{
  "_format": "hh-sol-artifact-1",
  "contractName": "LandNFT",
  "sourceName": "src/backend/contracts/LandNFT.sol",
  "abi": [
    {
      "inputs": [
        {
          "internalType": "address",
          "name": "_contractMain",
          "type": "address"
        }
      ],
      "stateMutability": "nonpayable",
      "type": "constructor"
    },
    {
      "inputs": [
        {
          "internalType": "string",
          "name": "message",
          "type": "string"
        },
        {
          "internalType": "uint256",
          "name": "limit",
          "type": "uint256"
        }
      ],
      "name": "LandsLimitError",
      "type": "error"
    },
    {
      "inputs": [
        {
          "internalType": "string",
          "name": "message",
          "type": "string"
        }
      ],
      "name": "LandsSmallLimitError",
      "type": "error"
    },
    {
      "anonymous": false,
      "inputs": [
        {
          "indexed": true,
          "internalType": "address",
          "name": "owner",
          "type": "address"
        },
        {
          "indexed": true,
          "internalType": "address",
          "name": "approved",
          "type": "address"
        },
        {
          "indexed": true,
          "internalType": "uint256",
          "name": "tokenId",
          "type": "uint256"
        }
      ],
      "name": "Approval",
      "type": "event"
    },
    {
      "anonymous": false,
      "inputs": [
        {
          "indexed": true,
          "internalType": "address",
          "name": "owner",
          "type": "address"
        },
        {
          "indexed": true,
          "internalType": "address",
          "name": "operator",
          "type": "address"
        },
        {
          "indexed": false,
          "internalType": "bool",
          "name": "approved",
          "type": "bool"
        }
      ],
      "name": "ApprovalForAll",
      "type": "event"
    },
    {
      "anonymous": false,
      "inputs": [
        {
          "indexed": true,
          "internalType": "address",
          "name": "previousOwner",
          "type": "address"
        },
        {
          "indexed": true,
          "internalType": "address",
          "name": "newOwner",
          "type": "address"
        }
      ],
      "name": "OwnershipTransferred",
      "type": "event"
    },
    {
      "anonymous": false,
      "inputs": [
        {
          "indexed": true,
          "internalType": "address",
          "name": "from",
          "type": "address"
        },
        {
          "indexed": true,
          "internalType": "address",
          "name": "to",
          "type": "address"
        },
        {
          "indexed": true,
          "internalType": "uint256",
          "name": "tokenId",
          "type": "uint256"
        }
      ],
      "name": "Transfer",
      "type": "event"
    },
    {
      "inputs": [
        {
          "internalType": "address",
          "name": "to",
          "type": "address"
        },
        {
          "internalType": "uint256",
          "name": "tokenId",
          "type": "uint256"
        }
      ],
      "name": "approve",
      "outputs": [],
      "stateMutability": "nonpayable",
      "type": "function"
    },
    {
      "inputs": [
        {
          "internalType": "address",
          "name": "owner",
          "type": "address"
        }
      ],
      "name": "balanceOf",
      "outputs": [
        {
          "internalType": "uint256",
          "name": "",
          "type": "uint256"
        }
      ],
      "stateMutability": "view",
      "type": "function"
    },
    {
      "inputs": [
        {
          "internalType": "uint256",
          "name": "tokenId",
          "type": "uint256"
        }
      ],
      "name": "burn",
      "outputs": [],
      "stateMutability": "nonpayable",
      "type": "function"
    },
    {
      "inputs": [],
      "name": "getAllLandsMedia",
      "outputs": [
        {
          "internalType": "string[]",
          "name": "",
          "type": "string[]"
        }
      ],
      "stateMutability": "view",
      "type": "function"
    },
    {
      "inputs": [
        {
          "internalType": "uint256",
          "name": "tokenId",
          "type": "uint256"
        }
      ],
      "name": "getApproved",
      "outputs": [
        {
          "internalType": "address",
          "name": "",
          "type": "address"
        }
      ],
      "stateMutability": "view",
      "type": "function"
    },
    {
      "inputs": [
        {
          "internalType": "address",
          "name": "owner",
          "type": "address"
        },
        {
          "internalType": "address",
          "name": "operator",
          "type": "address"
        }
      ],
      "name": "isApprovedForAll",
      "outputs": [
        {
          "internalType": "bool",
          "name": "",
          "type": "bool"
        }
      ],
      "stateMutability": "view",
      "type": "function"
    },
    {
      "inputs": [
        {
          "internalType": "enum LandNFT.LandType",
          "name": "",
          "type": "uint8"
        }
      ],
      "name": "landTypeCount",
      "outputs": [
        {
          "internalType": "uint256",
          "name": "",
          "type": "uint256"
        }
      ],
      "stateMutability": "view",
      "type": "function"
    },
    {
      "inputs": [],
      "name": "name",
      "outputs": [
        {
          "internalType": "string",
          "name": "",
          "type": "string"
        }
      ],
      "stateMutability": "view",
      "type": "function"
    },
    {
      "inputs": [],
      "name": "owner",
      "outputs": [
        {
          "internalType": "address",
          "name": "",
          "type": "address"
        }
      ],
      "stateMutability": "view",
      "type": "function"
    },
    {
      "inputs": [
        {
          "internalType": "uint256",
          "name": "tokenId",
          "type": "uint256"
        }
      ],
      "name": "ownerOf",
      "outputs": [
        {
          "internalType": "address",
          "name": "",
          "type": "address"
        }
      ],
      "stateMutability": "view",
      "type": "function"
    },
    {
      "inputs": [],
      "name": "renounceOwnership",
      "outputs": [],
      "stateMutability": "nonpayable",
      "type": "function"
    },
    {
      "inputs": [],
      "name": "safeMint",
      "outputs": [
        {
          "internalType": "uint256",
          "name": "",
          "type": "uint256"
        }
      ],
      "stateMutability": "payable",
      "type": "function"
    },
    {
      "inputs": [
        {
          "internalType": "address",
          "name": "from",
          "type": "address"
        },
        {
          "internalType": "address",
          "name": "to",
          "type": "address"
        },
        {
          "internalType": "uint256",
          "name": "tokenId",
          "type": "uint256"
        }
      ],
      "name": "safeTransferFrom",
      "outputs": [],
      "stateMutability": "nonpayable",
      "type": "function"
    },
    {
      "inputs": [
        {
          "internalType": "address",
          "name": "from",
          "type": "address"
        },
        {
          "internalType": "address",
          "name": "to",
          "type": "address"
        },
        {
          "internalType": "uint256",
          "name": "tokenId",
          "type": "uint256"
        },
        {
          "internalType": "bytes",
          "name": "_data",
          "type": "bytes"
        }
      ],
      "name": "safeTransferFrom",
      "outputs": [],
      "stateMutability": "nonpayable",
      "type": "function"
    },
    {
      "inputs": [
        {
          "internalType": "address",
          "name": "operator",
          "type": "address"
        },
        {
          "internalType": "bool",
          "name": "approved",
          "type": "bool"
        }
      ],
      "name": "setApprovalForAll",
      "outputs": [],
      "stateMutability": "nonpayable",
      "type": "function"
    },
    {
      "inputs": [
        {
          "internalType": "bytes4",
          "name": "_interfaceId",
          "type": "bytes4"
        }
      ],
      "name": "supportsInterface",
      "outputs": [
        {
          "internalType": "bool",
          "name": "",
          "type": "bool"
        }
      ],
      "stateMutability": "view",
      "type": "function"
    },
    {
      "inputs": [],
      "name": "symbol",
      "outputs": [
        {
          "internalType": "string",
          "name": "",
          "type": "string"
        }
      ],
      "stateMutability": "view",
      "type": "function"
    },
    {
      "inputs": [
        {
          "internalType": "uint256",
          "name": "index",
          "type": "uint256"
        }
      ],
      "name": "tokenByIndex",
      "outputs": [
        {
          "internalType": "uint256",
          "name": "",
          "type": "uint256"
        }
      ],
      "stateMutability": "view",
      "type": "function"
    },
    {
      "inputs": [
        {
          "internalType": "address",
          "name": "owner",
          "type": "address"
        },
        {
          "internalType": "uint256",
          "name": "index",
          "type": "uint256"
        }
      ],
      "name": "tokenOfOwnerByIndex",
      "outputs": [
        {
          "internalType": "uint256",
          "name": "",
          "type": "uint256"
        }
      ],
      "stateMutability": "view",
      "type": "function"
    },
    {
      "inputs": [
        {
          "internalType": "uint256",
          "name": "_tokenId",
          "type": "uint256"
        }
      ],
      "name": "tokenURI",
      "outputs": [
        {
          "internalType": "string",
          "name": "",
          "type": "string"
        }
      ],
      "stateMutability": "view",
      "type": "function"
    },
    {
      "inputs": [],
      "name": "totalSupply",
      "outputs": [
        {
          "internalType": "uint256",
          "name": "",
          "type": "uint256"
        }
      ],
      "stateMutability": "view",
      "type": "function"
    },
    {
      "inputs": [
        {
          "internalType": "address",
          "name": "from",
          "type": "address"
        },
        {
          "internalType": "address",
          "name": "to",
          "type": "address"
        },
        {
          "internalType": "uint256",
          "name": "tokenId",
          "type": "uint256"
        }
      ],
      "name": "transferFrom",
      "outputs": [],
      "stateMutability": "nonpayable",
      "type": "function"
    },
    {
      "inputs": [
        {
          "internalType": "address",
          "name": "newOwner",
          "type": "address"
        }
      ],
      "name": "transferOwnership",
      "outputs": [],
      "stateMutability": "nonpayable",
      "type": "function"
    },
    {
      "inputs": [
        {
          "internalType": "uint256",
          "name": "_startIndex",
          "type": "uint256"
        },
        {
          "internalType": "uint8",
          "name": "_count",
          "type": "uint8"
        }
      ],
      "name": "userLands",
      "outputs": [
        {
          "components": [
            {
              "internalType": "uint256",
              "name": "tokenId",
              "type": "uint256"
            },
            {
              "internalType": "enum LandNFT.LandType",
              "name": "landType",
              "type": "uint8"
            },
            {
              "internalType": "uint256",
              "name": "lastZombieClaim",
              "type": "uint256"
            },
            {
              "internalType": "uint256",
              "name": "salePrice",
              "type": "uint256"
            },
            {
              "internalType": "string",
              "name": "nftType",
              "type": "string"
            },
            {
              "internalType": "uint256",
              "name": "discoverEvents",
              "type": "uint256"
            }
          ],
          "internalType": "struct LandNFT.Land[]",
          "name": "",
          "type": "tuple[]"
        }
      ],
      "stateMutability": "view",
      "type": "function"
    }
  ],
  "bytecode": "0x60806040523480156200001157600080fd5b506040516200552c3803806200552c8339818101604052810190620000379190620003d0565b6040518060400160405280600781526020017f5a6f6d4c616e64000000000000000000000000000000000000000000000000008152506040518060400160405280600481526020017f5a4d4c4c000000000000000000000000000000000000000000000000000000008152508160009080519060200190620000bb92919062000309565b508060019080519060200190620000d492919062000309565b505050620000f7620000eb6200023b60201b60201c565b6200024360201b60201c565b80600d60006101000a81548173ffffffffffffffffffffffffffffffffffffffff021916908373ffffffffffffffffffffffffffffffffffffffff160217905550600e80600181540180825580915050600190039060005260206000200160006040518060600160405280603b81526020016200547b603b9139909190915090805190602001906200018b92919062000309565b50600e80600181540180825580915050600190039060005260206000200160006040518060600160405280603b8152602001620054f1603b913990919091509080519060200190620001df92919062000309565b50600e80600181540180825580915050600190039060005260206000200160006040518060600160405280603b8152602001620054b6603b9139909190915090805190602001906200023392919062000309565b5050620004af565b600033905090565b6000600b60009054906101000a900473ffffffffffffffffffffffffffffffffffffffff16905081600b60006101000a81548173ffffffffffffffffffffffffffffffffffffffff021916908373ffffffffffffffffffffffffffffffffffffffff1602179055508173ffffffffffffffffffffffffffffffffffffffff168173ffffffffffffffffffffffffffffffffffffffff167f8be0079c531659141344cd1fd0a4f28419497f9722a3daafe3b4186f6b6457e060405160405180910390a35050565b828054620003179062000430565b90600052602060002090601f0160209004810192826200033b576000855562000387565b82601f106200035657805160ff191683800117855562000387565b8280016001018555821562000387579182015b828111156200038657825182559160200191906001019062000369565b5b5090506200039691906200039a565b5090565b5b80821115620003b55760008160009055506001016200039b565b5090565b600081519050620003ca8162000495565b92915050565b600060208284031215620003e357600080fd5b6000620003f384828501620003b9565b91505092915050565b6000620004098262000410565b9050919050565b600073ffffffffffffffffffffffffffffffffffffffff82169050919050565b600060028204905060018216806200044957607f821691505b6020821081141562000460576200045f62000466565b5b50919050565b7f4e487b7100000000000000000000000000000000000000000000000000000000600052602260045260246000fd5b620004a081620003fc565b8114620004ac57600080fd5b50565b614fbc80620004bf6000396000f3fe60806040526004361061014b5760003560e01c80636352211e116100b6578063a22cb4651161006f578063a22cb465146104bd578063b88d4fde146104e6578063c87b56dd1461050f578063e4c33d711461054c578063e985e9c514610577578063f2fde38b146105b45761014b565b80636352211e146103b85780636871ee40146103f557806370a0823114610413578063715018a6146104505780638da5cb5b1461046757806395d89b41146104925761014b565b8063209a8fd011610108578063209a8fd01461028657806323b872dd146102c35780632f745c59146102ec57806342842e0e1461032957806342966c68146103525780634f6ccce71461037b5761014b565b806301ffc9a71461015057806306fdde031461018d578063081812fc146101b8578063095ea7b3146101f557806317300fcc1461021e57806318160ddd1461025b575b600080fd5b34801561015c57600080fd5b5061017760048036038101906101729190613848565b6105dd565b6040516101849190614024565b60405180910390f35b34801561019957600080fd5b506101a26105ef565b6040516101af919061403f565b60405180910390f35b3480156101c457600080fd5b506101df60048036038101906101da91906138c3565b610681565b6040516101ec9190613f79565b60405180910390f35b34801561020157600080fd5b5061021c6004803603810190610217919061380c565b610706565b005b34801561022a57600080fd5b506102456004803603810190610240919061389a565b61081e565b604051610252919061438f565b60405180910390f35b34801561026757600080fd5b50610270610836565b60405161027d919061438f565b60405180910390f35b34801561029257600080fd5b506102ad60048036038101906102a891906138ec565b610843565b6040516102ba9190614002565b60405180910390f35b3480156102cf57600080fd5b506102ea60048036038101906102e59190613706565b610abe565b005b3480156102f857600080fd5b50610313600480360381019061030e919061380c565b610b1e565b604051610320919061438f565b60405180910390f35b34801561033557600080fd5b50610350600480360381019061034b9190613706565b610bc3565b005b34801561035e57600080fd5b50610379600480360381019061037491906138c3565b610be3565b005b34801561038757600080fd5b506103a2600480360381019061039d91906138c3565b610c3f565b6040516103af919061438f565b60405180910390f35b3480156103c457600080fd5b506103df60048036038101906103da91906138c3565b610cd6565b6040516103ec9190613f79565b60405180910390f35b6103fd610d88565b60405161040a919061438f565b60405180910390f35b34801561041f57600080fd5b5061043a600480360381019061043591906136a1565b61101f565b604051610447919061438f565b60405180910390f35b34801561045c57600080fd5b506104656110d7565b005b34801561047357600080fd5b5061047c61115f565b6040516104899190613f79565b60405180910390f35b34801561049e57600080fd5b506104a7611189565b6040516104b4919061403f565b60405180910390f35b3480156104c957600080fd5b506104e460048036038101906104df91906137d0565b61121b565b005b3480156104f257600080fd5b5061050d60048036038101906105089190613755565b611231565b005b34801561051b57600080fd5b50610536600480360381019061053191906138c3565b611293565b604051610543919061403f565b60405180910390f35b34801561055857600080fd5b506105616112a5565b60405161056e9190613fe0565b60405180910390f35b34801561058357600080fd5b5061059e600480360381019061059991906136ca565b61137e565b6040516105ab9190614024565b60405180910390f35b3480156105c057600080fd5b506105db60048036038101906105d691906136a1565b611412565b005b60006105e88261150a565b9050919050565b6060600080546105fe90614669565b80601f016020809104026020016040519081016040528092919081815260200182805461062a90614669565b80156106775780601f1061064c57610100808354040283529160200191610677565b820191906000526020600020905b81548152906001019060200180831161065a57829003601f168201915b5050505050905090565b600061068c82611584565b6106cb576040517f08c379a00000000000000000000000000000000000000000000000000000000081526004016106c29061428f565b60405180910390fd5b6004600083815260200190815260200160002060009054906101000a900473ffffffffffffffffffffffffffffffffffffffff169050919050565b600061071182610cd6565b90508073ffffffffffffffffffffffffffffffffffffffff168373ffffffffffffffffffffffffffffffffffffffff161415610782576040517f08c379a0000000000000000000000000000000000000000000000000000000008152600401610779906142ef565b60405180910390fd5b8073ffffffffffffffffffffffffffffffffffffffff166107a16115f0565b73ffffffffffffffffffffffffffffffffffffffff1614806107d057506107cf816107ca6115f0565b61137e565b5b61080f576040517f08c379a0000000000000000000000000000000000000000000000000000000008152600401610806906141af565b60405180910390fd5b61081983836115f8565b505050565b600f6020528060005260406000206000915090505481565b6000600880549050905090565b606060008260ff1667ffffffffffffffff81111561088a577f4e487b7100000000000000000000000000000000000000000000000000000000600052604160045260246000fd5b6040519080825280602002602001820160405280156108c357816020015b6108b0613455565b8152602001906001900390816108a85790505b50905060006108d13361101f565b905060008590505b8460ff16811015610ab25780821115610a9f5760006108f83383610b1e565b9050601160008281526020019081526020016000206040518060c0016040529081600082015481526020016001820160009054906101000a900460ff16600281111561096d577f4e487b7100000000000000000000000000000000000000000000000000000000600052602160045260246000fd5b60028111156109a5577f4e487b7100000000000000000000000000000000000000000000000000000000600052602160045260246000fd5b815260200160028201548152602001600382015481526020016004820180546109cd90614669565b80601f01602080910402602001604051908101604052809291908181526020018280546109f990614669565b8015610a465780601f10610a1b57610100808354040283529160200191610a46565b820191906000526020600020905b815481529060010190602001808311610a2957829003601f168201915b50505050508152602001600582015481525050848381518110610a92577f4e487b7100000000000000000000000000000000000000000000000000000000600052603260045260246000fd5b6020026020010181905250505b8080610aaa906146cc565b9150506108d9565b50819250505092915050565b610acf610ac96115f0565b826116b1565b610b0e576040517f08c379a0000000000000000000000000000000000000000000000000000000008152600401610b059061432f565b60405180910390fd5b610b1983838361178f565b505050565b6000610b298361101f565b8210610b6a576040517f08c379a0000000000000000000000000000000000000000000000000000000008152600401610b6190614061565b60405180910390fd5b600660008473ffffffffffffffffffffffffffffffffffffffff1673ffffffffffffffffffffffffffffffffffffffff168152602001908152602001600020600083815260200190815260200160002054905092915050565b610bde83838360405180602001604052806000815250611231565b505050565b610bf4610bee6115f0565b826116b1565b610c33576040517f08c379a0000000000000000000000000000000000000000000000000000000008152600401610c2a9061436f565b60405180910390fd5b610c3c816119f6565b50565b6000610c49610836565b8210610c8a576040517f08c379a0000000000000000000000000000000000000000000000000000000008152600401610c819061434f565b60405180910390fd5b60088281548110610cc4577f4e487b7100000000000000000000000000000000000000000000000000000000600052603260045260246000fd5b90600052602060002001549050919050565b6000806002600084815260200190815260200160002060009054906101000a900473ffffffffffffffffffffffffffffffffffffffff169050600073ffffffffffffffffffffffffffffffffffffffff168173ffffffffffffffffffffffffffffffffffffffff161415610d7f576040517f08c379a0000000000000000000000000000000000000000000000000000000008152600401610d76906141ef565b60405180910390fd5b80915050919050565b600080610d93611a02565b9050610d9e81611a8c565b6000610da982611db1565b90506000610db7600c6121dc565b9050610dc3600c6121ea565b610dcd3382612200565b610dd7818361221e565b600f6000846002811115610e14577f4e487b7100000000000000000000000000000000000000000000000000000000600052602160045260246000fd5b6002811115610e4c577f4e487b7100000000000000000000000000000000000000000000000000000000600052602160045260246000fd5b81526020019081526020016000206000815480929190610e6b906146cc565b91905055506001601060003373ffffffffffffffffffffffffffffffffffffffff1673ffffffffffffffffffffffffffffffffffffffff16815260200190815260200160002060006101000a81548160ff0219169083151502179055506040518060c00160405280828152602001846002811115610f12577f4e487b7100000000000000000000000000000000000000000000000000000000600052602160045260246000fd5b815260200160008152602001600081526020016040518060400160405280600481526020017f6c616e640000000000000000000000000000000000000000000000000000000081525081526020016000815250601160008381526020019081526020016000206000820151816000015560208201518160010160006101000a81548160ff02191690836002811115610fd3577f4e487b7100000000000000000000000000000000000000000000000000000000600052602160045260246000fd5b0217905550604082015181600201556060820151816003015560808201518160040190805190602001906110089291906134c3565b5060a0820151816005015590505080935050505090565b60008073ffffffffffffffffffffffffffffffffffffffff168273ffffffffffffffffffffffffffffffffffffffff161415611090576040517f08c379a0000000000000000000000000000000000000000000000000000000008152600401611087906141cf565b60405180910390fd5b600360008373ffffffffffffffffffffffffffffffffffffffff1673ffffffffffffffffffffffffffffffffffffffff168152602001908152602001600020549050919050565b6110df6115f0565b73ffffffffffffffffffffffffffffffffffffffff166110fd61115f565b73ffffffffffffffffffffffffffffffffffffffff1614611153576040517f08c379a000000000000000000000000000000000000000000000000000000000815260040161114a906142af565b60405180910390fd5b61115d6000612292565b565b6000600b60009054906101000a900473ffffffffffffffffffffffffffffffffffffffff16905090565b60606001805461119890614669565b80601f01602080910402602001604051908101604052809291908181526020018280546111c490614669565b80156112115780601f106111e657610100808354040283529160200191611211565b820191906000526020600020905b8154815290600101906020018083116111f457829003601f168201915b5050505050905090565b61122d6112266115f0565b8383612358565b5050565b61124261123c6115f0565b836116b1565b611281576040517f08c379a00000000000000000000000000000000000000000000000000000000081526004016112789061432f565b60405180910390fd5b61128d848484846124c5565b50505050565b606061129e82612521565b9050919050565b6060600e805480602002602001604051908101604052809291908181526020016000905b828210156113755783829060005260206000200180546112e890614669565b80601f016020809104026020016040519081016040528092919081815260200182805461131490614669565b80156113615780601f1061133657610100808354040283529160200191611361565b820191906000526020600020905b81548152906001019060200180831161134457829003601f168201915b5050505050815260200190600101906112c9565b50505050905090565b6000600560008473ffffffffffffffffffffffffffffffffffffffff1673ffffffffffffffffffffffffffffffffffffffff16815260200190815260200160002060008373ffffffffffffffffffffffffffffffffffffffff1673ffffffffffffffffffffffffffffffffffffffff16815260200190815260200160002060009054906101000a900460ff16905092915050565b61141a6115f0565b73ffffffffffffffffffffffffffffffffffffffff1661143861115f565b73ffffffffffffffffffffffffffffffffffffffff161461148e576040517f08c379a0000000000000000000000000000000000000000000000000000000008152600401611485906142af565b60405180910390fd5b600073ffffffffffffffffffffffffffffffffffffffff168173ffffffffffffffffffffffffffffffffffffffff1614156114fe576040517f08c379a00000000000000000000000000000000000000000000000000000000081526004016114f5906140a1565b60405180910390fd5b61150781612292565b50565b60007f780e9d63000000000000000000000000000000000000000000000000000000007bffffffffffffffffffffffffffffffffffffffffffffffffffffffff1916827bffffffffffffffffffffffffffffffffffffffffffffffffffffffff1916148061157d575061157c82612673565b5b9050919050565b60008073ffffffffffffffffffffffffffffffffffffffff166002600084815260200190815260200160002060009054906101000a900473ffffffffffffffffffffffffffffffffffffffff1673ffffffffffffffffffffffffffffffffffffffff1614159050919050565b600033905090565b816004600083815260200190815260200160002060006101000a81548173ffffffffffffffffffffffffffffffffffffffff021916908373ffffffffffffffffffffffffffffffffffffffff160217905550808273ffffffffffffffffffffffffffffffffffffffff1661166b83610cd6565b73ffffffffffffffffffffffffffffffffffffffff167f8c5be1e5ebec7d5bd14f71427d1e84f3dd0314c0f7b2291e5b200ac8c7c3b92560405160405180910390a45050565b60006116bc82611584565b6116fb576040517f08c379a00000000000000000000000000000000000000000000000000000000081526004016116f29061418f565b60405180910390fd5b600061170683610cd6565b90508073ffffffffffffffffffffffffffffffffffffffff168473ffffffffffffffffffffffffffffffffffffffff16148061177557508373ffffffffffffffffffffffffffffffffffffffff1661175d84610681565b73ffffffffffffffffffffffffffffffffffffffff16145b806117865750611785818561137e565b5b91505092915050565b8273ffffffffffffffffffffffffffffffffffffffff166117af82610cd6565b73ffffffffffffffffffffffffffffffffffffffff1614611805576040517f08c379a00000000000000000000000000000000000000000000000000000000081526004016117fc906140e1565b60405180910390fd5b600073ffffffffffffffffffffffffffffffffffffffff168273ffffffffffffffffffffffffffffffffffffffff161415611875576040517f08c379a000000000000000000000000000000000000000000000000000000000815260040161186c9061414f565b60405180910390fd5b611880838383612755565b61188b6000826115f8565b6001600360008573ffffffffffffffffffffffffffffffffffffffff1673ffffffffffffffffffffffffffffffffffffffff16815260200190815260200160002060008282546118db919061454d565b925050819055506001600360008473ffffffffffffffffffffffffffffffffffffffff1673ffffffffffffffffffffffffffffffffffffffff168152602001908152602001600020600082825461193291906144c6565b92505081905550816002600083815260200190815260200160002060006101000a81548173ffffffffffffffffffffffffffffffffffffffff021916908373ffffffffffffffffffffffffffffffffffffffff160217905550808273ffffffffffffffffffffffffffffffffffffffff168473ffffffffffffffffffffffffffffffffffffffff167fddf252ad1be2c89b69c2b068fc378daa952ba7f163c4a11628f55a4df523b3ef60405160405180910390a46119f1838383612765565b505050565b6119ff8161276a565b50565b6000662386f26fc10000341415611a1c5760009050611a89565b674563918244f40000341415611a355760019050611a89565b677ce66c50e2840000341415611a4e5760029050611a89565b6040517f08c379a0000000000000000000000000000000000000000000000000000000008152600401611a809061430f565b60405180910390fd5b90565b6000806002811115611ac7577f4e487b7100000000000000000000000000000000000000000000000000000000600052602160045260246000fd5b826002811115611b00577f4e487b7100000000000000000000000000000000000000000000000000000000600052602160045260246000fd5b1415611ba45760011515601060003373ffffffffffffffffffffffffffffffffffffffff1673ffffffffffffffffffffffffffffffffffffffff16815260200190815260200160002060009054906101000a900460ff1615151415611b9a576040517fb490537d000000000000000000000000000000000000000000000000000000008152600401611b919061424f565b60405180910390fd5b61ea5f9050611ce6565b60016002811115611bde577f4e487b7100000000000000000000000000000000000000000000000000000000600052602160045260246000fd5b826002811115611c17577f4e487b7100000000000000000000000000000000000000000000000000000000600052602160045260246000fd5b1415611c275761176f9050611ce5565b600280811115611c60577f4e487b7100000000000000000000000000000000000000000000000000000000600052602160045260246000fd5b826002811115611c99577f4e487b7100000000000000000000000000000000000000000000000000000000600052602160045260246000fd5b1415611ca9576107cf9050611ce4565b6040517f08c379a0000000000000000000000000000000000000000000000000000000008152600401611cdb906140c1565b60405180910390fd5b5b5b80600f6000846002811115611d24577f4e487b7100000000000000000000000000000000000000000000000000000000600052602160045260246000fd5b6002811115611d5c577f4e487b7100000000000000000000000000000000000000000000000000000000600052602160045260246000fd5b81526020019081526020016000205410611dad57806040517f25d0bf14000000000000000000000000000000000000000000000000000000008152600401611da49190614121565b60405180910390fd5b5050565b606060006002811115611ded577f4e487b7100000000000000000000000000000000000000000000000000000000600052602160045260246000fd5b826002811115611e26577f4e487b7100000000000000000000000000000000000000000000000000000000600052602160045260246000fd5b1415611f0157600e600081548110611e67577f4e487b7100000000000000000000000000000000000000000000000000000000600052603260045260246000fd5b906000526020600020018054611e7c90614669565b80601f0160208091040260200160405190810160405280929190818152602001828054611ea890614669565b8015611ef55780601f10611eca57610100808354040283529160200191611ef5565b820191906000526020600020905b815481529060010190602001808311611ed857829003601f168201915b505050505090506121d7565b60016002811115611f3b577f4e487b7100000000000000000000000000000000000000000000000000000000600052602160045260246000fd5b826002811115611f74577f4e487b7100000000000000000000000000000000000000000000000000000000600052602160045260246000fd5b141561204f57600e600181548110611fb5577f4e487b7100000000000000000000000000000000000000000000000000000000600052603260045260246000fd5b906000526020600020018054611fca90614669565b80601f0160208091040260200160405190810160405280929190818152602001828054611ff690614669565b80156120435780601f1061201857610100808354040283529160200191612043565b820191906000526020600020905b81548152906001019060200180831161202657829003601f168201915b505050505090506121d7565b600280811115612088577f4e487b7100000000000000000000000000000000000000000000000000000000600052602160045260246000fd5b8260028111156120c1577f4e487b7100000000000000000000000000000000000000000000000000000000600052602160045260246000fd5b141561219c57600e600281548110612102577f4e487b7100000000000000000000000000000000000000000000000000000000600052603260045260246000fd5b90600052602060002001805461211790614669565b80601f016020809104026020016040519081016040528092919081815260200182805461214390614669565b80156121905780601f1061216557610100808354040283529160200191612190565b820191906000526020600020905b81548152906001019060200180831161217357829003601f168201915b505050505090506121d7565b6040517f08c379a00000000000000000000000000000000000000000000000000000000081526004016121ce906140c1565b60405180910390fd5b919050565b600081600001549050919050565b6001816000016000828254019250508190555050565b61221a8282604051806020016040528060008152506127bd565b5050565b61222782611584565b612266576040517f08c379a000000000000000000000000000000000000000000000000000000000815260040161225d9061420f565b60405180910390fd5b80600a6000848152602001908152602001600020908051906020019061228d9291906134c3565b505050565b6000600b60009054906101000a900473ffffffffffffffffffffffffffffffffffffffff16905081600b60006101000a81548173ffffffffffffffffffffffffffffffffffffffff021916908373ffffffffffffffffffffffffffffffffffffffff1602179055508173ffffffffffffffffffffffffffffffffffffffff168173ffffffffffffffffffffffffffffffffffffffff167f8be0079c531659141344cd1fd0a4f28419497f9722a3daafe3b4186f6b6457e060405160405180910390a35050565b8173ffffffffffffffffffffffffffffffffffffffff168373ffffffffffffffffffffffffffffffffffffffff1614156123c7576040517f08c379a00000000000000000000000000000000000000000000000000000000081526004016123be9061416f565b60405180910390fd5b80600560008573ffffffffffffffffffffffffffffffffffffffff1673ffffffffffffffffffffffffffffffffffffffff16815260200190815260200160002060008473ffffffffffffffffffffffffffffffffffffffff1673ffffffffffffffffffffffffffffffffffffffff16815260200190815260200160002060006101000a81548160ff0219169083151502179055508173ffffffffffffffffffffffffffffffffffffffff168373ffffffffffffffffffffffffffffffffffffffff167f17307eab39ab6107e8899845ad3d59bd9653f200f220920489ca2b5937696c31836040516124b89190614024565b60405180910390a3505050565b6124d084848461178f565b6124dc84848484612818565b61251b576040517f08c379a000000000000000000000000000000000000000000000000000000000815260040161251290614081565b60405180910390fd5b50505050565b606061252c82611584565b61256b576040517f08c379a00000000000000000000000000000000000000000000000000000000081526004016125629061426f565b60405180910390fd5b6000600a6000848152602001908152602001600020805461258b90614669565b80601f01602080910402602001604051908101604052809291908181526020018280546125b790614669565b80156126045780601f106125d957610100808354040283529160200191612604565b820191906000526020600020905b8154815290600101906020018083116125e757829003601f168201915b5050505050905060006126156129af565b905060008151141561262b57819250505061266e565b600082511115612660578082604051602001612648929190613f55565b6040516020818303038152906040529250505061266e565b612669846129ec565b925050505b919050565b60007f80ac58cd000000000000000000000000000000000000000000000000000000007bffffffffffffffffffffffffffffffffffffffffffffffffffffffff1916827bffffffffffffffffffffffffffffffffffffffffffffffffffffffff1916148061273e57507f5b5e139f000000000000000000000000000000000000000000000000000000007bffffffffffffffffffffffffffffffffffffffffffffffffffffffff1916827bffffffffffffffffffffffffffffffffffffffffffffffffffffffff1916145b8061274e575061274d82612a93565b5b9050919050565b612760838383612afd565b505050565b505050565b61277381612c11565b6000600a6000838152602001908152602001600020805461279390614669565b9050146127ba57600a600082815260200190815260200160002060006127b99190613549565b5b50565b6127c78383612d2e565b6127d46000848484612818565b612813576040517f08c379a000000000000000000000000000000000000000000000000000000000815260040161280a90614081565b60405180910390fd5b505050565b60006128398473ffffffffffffffffffffffffffffffffffffffff16612f08565b156129a2578373ffffffffffffffffffffffffffffffffffffffff1663150b7a026128626115f0565b8786866040518563ffffffff1660e01b81526004016128849493929190613f94565b602060405180830381600087803b15801561289e57600080fd5b505af19250505080156128cf57506040513d601f19601f820116820180604052508101906128cc9190613871565b60015b612952573d80600081146128ff576040519150601f19603f3d011682016040523d82523d6000602084013e612904565b606091505b5060008151141561294a576040517f08c379a000000000000000000000000000000000000000000000000000000000815260040161294190614081565b60405180910390fd5b805181602001fd5b63150b7a0260e01b7bffffffffffffffffffffffffffffffffffffffffffffffffffffffff1916817bffffffffffffffffffffffffffffffffffffffffffffffffffffffff1916149150506129a7565b600190505b949350505050565b60606040518060400160405280601581526020017f68747470733a2f2f697066732e696f2f697066732f0000000000000000000000815250905090565b60606129f782611584565b612a36576040517f08c379a0000000000000000000000000000000000000000000000000000000008152600401612a2d906142cf565b60405180910390fd5b6000612a406129af565b90506000815111612a605760405180602001604052806000815250612a8b565b80612a6a84612f2b565b604051602001612a7b929190613f55565b6040516020818303038152906040525b915050919050565b60007f01ffc9a7000000000000000000000000000000000000000000000000000000007bffffffffffffffffffffffffffffffffffffffffffffffffffffffff1916827bffffffffffffffffffffffffffffffffffffffffffffffffffffffff1916149050919050565b612b088383836130d8565b600073ffffffffffffffffffffffffffffffffffffffff168373ffffffffffffffffffffffffffffffffffffffff161415612b4b57612b46816130dd565b612b8a565b8173ffffffffffffffffffffffffffffffffffffffff168373ffffffffffffffffffffffffffffffffffffffff1614612b8957612b888382613126565b5b5b600073ffffffffffffffffffffffffffffffffffffffff168273ffffffffffffffffffffffffffffffffffffffff161415612bcd57612bc881613293565b612c0c565b8273ffffffffffffffffffffffffffffffffffffffff168273ffffffffffffffffffffffffffffffffffffffff1614612c0b57612c0a82826133d6565b5b5b505050565b6000612c1c82610cd6565b9050612c2a81600084612755565b612c356000836115f8565b6001600360008373ffffffffffffffffffffffffffffffffffffffff1673ffffffffffffffffffffffffffffffffffffffff1681526020019081526020016000206000828254612c85919061454d565b925050819055506002600083815260200190815260200160002060006101000a81549073ffffffffffffffffffffffffffffffffffffffff021916905581600073ffffffffffffffffffffffffffffffffffffffff168273ffffffffffffffffffffffffffffffffffffffff167fddf252ad1be2c89b69c2b068fc378daa952ba7f163c4a11628f55a4df523b3ef60405160405180910390a4612d2a81600084612765565b5050565b600073ffffffffffffffffffffffffffffffffffffffff168273ffffffffffffffffffffffffffffffffffffffff161415612d9e576040517f08c379a0000000000000000000000000000000000000000000000000000000008152600401612d959061422f565b60405180910390fd5b612da781611584565b15612de7576040517f08c379a0000000000000000000000000000000000000000000000000000000008152600401612dde90614101565b60405180910390fd5b612df360008383612755565b6001600360008473ffffffffffffffffffffffffffffffffffffffff1673ffffffffffffffffffffffffffffffffffffffff1681526020019081526020016000206000828254612e4391906144c6565b92505081905550816002600083815260200190815260200160002060006101000a81548173ffffffffffffffffffffffffffffffffffffffff021916908373ffffffffffffffffffffffffffffffffffffffff160217905550808273ffffffffffffffffffffffffffffffffffffffff16600073ffffffffffffffffffffffffffffffffffffffff167fddf252ad1be2c89b69c2b068fc378daa952ba7f163c4a11628f55a4df523b3ef60405160405180910390a4612f0460008383612765565b5050565b6000808273ffffffffffffffffffffffffffffffffffffffff163b119050919050565b60606000821415612f73576040518060400160405280600181526020017f300000000000000000000000000000000000000000000000000000000000000081525090506130d3565b600082905060005b60008214612fa5578080612f8e906146cc565b915050600a82612f9e919061451c565b9150612f7b565b60008167ffffffffffffffff811115612fe7577f4e487b7100000000000000000000000000000000000000000000000000000000600052604160045260246000fd5b6040519080825280601f01601f1916602001820160405280156130195781602001600182028036833780820191505090505b5090505b600085146130cc57600182613032919061454d565b9150600a856130419190614715565b603061304d91906144c6565b60f81b818381518110613089577f4e487b7100000000000000000000000000000000000000000000000000000000600052603260045260246000fd5b60200101907effffffffffffffffffffffffffffffffffffffffffffffffffffffffffffff1916908160001a905350600a856130c5919061451c565b945061301d565b8093505050505b919050565b505050565b6008805490506009600083815260200190815260200160002081905550600881908060018154018082558091505060019003906000526020600020016000909190919091505550565b600060016131338461101f565b61313d919061454d565b9050600060076000848152602001908152602001600020549050818114613222576000600660008673ffffffffffffffffffffffffffffffffffffffff1673ffffffffffffffffffffffffffffffffffffffff168152602001908152602001600020600084815260200190815260200160002054905080600660008773ffffffffffffffffffffffffffffffffffffffff1673ffffffffffffffffffffffffffffffffffffffff168152602001908152602001600020600084815260200190815260200160002081905550816007600083815260200190815260200160002081905550505b6007600084815260200190815260200160002060009055600660008573ffffffffffffffffffffffffffffffffffffffff1673ffffffffffffffffffffffffffffffffffffffff16815260200190815260200160002060008381526020019081526020016000206000905550505050565b600060016008805490506132a7919061454d565b90506000600960008481526020019081526020016000205490506000600883815481106132fd577f4e487b7100000000000000000000000000000000000000000000000000000000600052603260045260246000fd5b906000526020600020015490508060088381548110613345577f4e487b7100000000000000000000000000000000000000000000000000000000600052603260045260246000fd5b9060005260206000200181905550816009600083815260200190815260200160002081905550600960008581526020019081526020016000206000905560088054806133ba577f4e487b7100000000000000000000000000000000000000000000000000000000600052603160045260246000fd5b6001900381819060005260206000200160009055905550505050565b60006133e18361101f565b905081600660008573ffffffffffffffffffffffffffffffffffffffff1673ffffffffffffffffffffffffffffffffffffffff168152602001908152602001600020600083815260200190815260200160002081905550806007600084815260200190815260200160002081905550505050565b6040518060c0016040528060008152602001600060028111156134a1577f4e487b7100000000000000000000000000000000000000000000000000000000600052602160045260246000fd5b8152602001600081526020016000815260200160608152602001600081525090565b8280546134cf90614669565b90600052602060002090601f0160209004810192826134f15760008555613538565b82601f1061350a57805160ff1916838001178555613538565b82800160010185558215613538579182015b8281111561353757825182559160200191906001019061351c565b5b5090506135459190613589565b5090565b50805461355590614669565b6000825580601f106135675750613586565b601f0160209004906000526020600020908101906135859190613589565b5b50565b5b808211156135a257600081600090555060010161358a565b5090565b60006135b96135b4846143cf565b6143aa565b9050828152602081018484840111156135d157600080fd5b6135dc848285614627565b509392505050565b6000813590506135f381614f03565b92915050565b60008135905061360881614f1a565b92915050565b60008135905061361d81614f31565b92915050565b60008151905061363281614f31565b92915050565b600082601f83011261364957600080fd5b81356136598482602086016135a6565b91505092915050565b60008135905061367181614f48565b92915050565b60008135905061368681614f58565b92915050565b60008135905061369b81614f6f565b92915050565b6000602082840312156136b357600080fd5b60006136c1848285016135e4565b91505092915050565b600080604083850312156136dd57600080fd5b60006136eb858286016135e4565b92505060206136fc858286016135e4565b9150509250929050565b60008060006060848603121561371b57600080fd5b6000613729868287016135e4565b935050602061373a868287016135e4565b925050604061374b86828701613677565b9150509250925092565b6000806000806080858703121561376b57600080fd5b6000613779878288016135e4565b945050602061378a878288016135e4565b935050604061379b87828801613677565b925050606085013567ffffffffffffffff8111156137b857600080fd5b6137c487828801613638565b91505092959194509250565b600080604083850312156137e357600080fd5b60006137f1858286016135e4565b9250506020613802858286016135f9565b9150509250929050565b6000806040838503121561381f57600080fd5b600061382d858286016135e4565b925050602061383e85828601613677565b9150509250929050565b60006020828403121561385a57600080fd5b60006138688482850161360e565b91505092915050565b60006020828403121561388357600080fd5b600061389184828501613623565b91505092915050565b6000602082840312156138ac57600080fd5b60006138ba84828501613662565b91505092915050565b6000602082840312156138d557600080fd5b60006138e384828501613677565b91505092915050565b600080604083850312156138ff57600080fd5b600061390d85828601613677565b925050602061391e8582860161368c565b9150509250929050565b60006139348383613aa0565b905092915050565b60006139488383613eae565b905092915050565b61395981614581565b82525050565b600061396a82614420565b6139748185614466565b93508360208202850161398685614400565b8060005b858110156139c257848403895281516139a38582613928565b94506139ae8361444c565b925060208a0199505060018101905061398a565b50829750879550505050505092915050565b60006139df8261442b565b6139e98185614477565b9350836020820285016139fb85614410565b8060005b85811015613a375784840389528151613a18858261393c565b9450613a2383614459565b925060208a019950506001810190506139ff565b50829750879550505050505092915050565b613a5281614593565b82525050565b6000613a6382614436565b613a6d8185614488565b9350613a7d818560208601614636565b613a8681614831565b840191505092915050565b613a9a81614615565b82525050565b6000613aab82614441565b613ab58185614499565b9350613ac5818560208601614636565b613ace81614831565b840191505092915050565b6000613ae482614441565b613aee81856144aa565b9350613afe818560208601614636565b613b0781614831565b840191505092915050565b6000613b1d82614441565b613b2781856144bb565b9350613b37818560208601614636565b80840191505092915050565b6000613b50602b836144aa565b9150613b5b82614842565b604082019050919050565b6000613b736032836144aa565b9150613b7e82614891565b604082019050919050565b6000613b966026836144aa565b9150613ba1826148e0565b604082019050919050565b6000613bb9600f836144aa565b9150613bc48261492f565b602082019050919050565b6000613bdc6025836144aa565b9150613be782614958565b604082019050919050565b6000613bff601c836144aa565b9150613c0a826149a7565b602082019050919050565b6000613c226030836144aa565b9150613c2d826149d0565b604082019050919050565b6000613c456024836144aa565b9150613c5082614a1f565b604082019050919050565b6000613c686019836144aa565b9150613c7382614a6e565b602082019050919050565b6000613c8b602c836144aa565b9150613c9682614a97565b604082019050919050565b6000613cae6038836144aa565b9150613cb982614ae6565b604082019050919050565b6000613cd1602a836144aa565b9150613cdc82614b35565b604082019050919050565b6000613cf46029836144aa565b9150613cff82614b84565b604082019050919050565b6000613d17602e836144aa565b9150613d2282614bd3565b604082019050919050565b6000613d3a6020836144aa565b9150613d4582614c22565b602082019050919050565b6000613d5d6020836144aa565b9150613d6882614c4b565b602082019050919050565b6000613d806031836144aa565b9150613d8b82614c74565b604082019050919050565b6000613da3602c836144aa565b9150613dae82614cc3565b604082019050919050565b6000613dc66020836144aa565b9150613dd182614d12565b602082019050919050565b6000613de9602f836144aa565b9150613df482614d3b565b604082019050919050565b6000613e0c6021836144aa565b9150613e1782614d8a565b604082019050919050565b6000613e2f6014836144aa565b9150613e3a82614dd9565b602082019050919050565b6000613e526031836144aa565b9150613e5d82614e02565b604082019050919050565b6000613e75602c836144aa565b9150613e8082614e51565b604082019050919050565b6000613e986030836144aa565b9150613ea382614ea0565b604082019050919050565b600060c083016000830151613ec66000860182613f37565b506020830151613ed96020860182613a91565b506040830151613eec6040860182613f37565b506060830151613eff6060860182613f37565b5060808301518482036080860152613f178282613aa0565b91505060a0830151613f2c60a0860182613f37565b508091505092915050565b613f40816145fe565b82525050565b613f4f816145fe565b82525050565b6000613f618285613b12565b9150613f6d8284613b12565b91508190509392505050565b6000602082019050613f8e6000830184613950565b92915050565b6000608082019050613fa96000830187613950565b613fb66020830186613950565b613fc36040830185613f46565b8181036060830152613fd58184613a58565b905095945050505050565b60006020820190508181036000830152613ffa818461395f565b905092915050565b6000602082019050818103600083015261401c81846139d4565b905092915050565b60006020820190506140396000830184613a49565b92915050565b600060208201905081810360008301526140598184613ad9565b905092915050565b6000602082019050818103600083015261407a81613b43565b9050919050565b6000602082019050818103600083015261409a81613b66565b9050919050565b600060208201905081810360008301526140ba81613b89565b9050919050565b600060208201905081810360008301526140da81613bac565b9050919050565b600060208201905081810360008301526140fa81613bcf565b9050919050565b6000602082019050818103600083015261411a81613bf2565b9050919050565b6000604082019050818103600083015261413a81613c15565b90506141496020830184613f46565b92915050565b6000602082019050818103600083015261416881613c38565b9050919050565b6000602082019050818103600083015261418881613c5b565b9050919050565b600060208201905081810360008301526141a881613c7e565b9050919050565b600060208201905081810360008301526141c881613ca1565b9050919050565b600060208201905081810360008301526141e881613cc4565b9050919050565b6000602082019050818103600083015261420881613ce7565b9050919050565b6000602082019050818103600083015261422881613d0a565b9050919050565b6000602082019050818103600083015261424881613d2d565b9050919050565b6000602082019050818103600083015261426881613d50565b9050919050565b6000602082019050818103600083015261428881613d73565b9050919050565b600060208201905081810360008301526142a881613d96565b9050919050565b600060208201905081810360008301526142c881613db9565b9050919050565b600060208201905081810360008301526142e881613ddc565b9050919050565b6000602082019050818103600083015261430881613dff565b9050919050565b6000602082019050818103600083015261432881613e22565b9050919050565b6000602082019050818103600083015261434881613e45565b9050919050565b6000602082019050818103600083015261436881613e68565b9050919050565b6000602082019050818103600083015261438881613e8b565b9050919050565b60006020820190506143a46000830184613f46565b92915050565b60006143b46143c5565b90506143c0828261469b565b919050565b6000604051905090565b600067ffffffffffffffff8211156143ea576143e9614802565b5b6143f382614831565b9050602081019050919050565b6000819050602082019050919050565b6000819050602082019050919050565b600081519050919050565b600081519050919050565b600081519050919050565b600081519050919050565b6000602082019050919050565b6000602082019050919050565b600082825260208201905092915050565b600082825260208201905092915050565b600082825260208201905092915050565b600082825260208201905092915050565b600082825260208201905092915050565b600081905092915050565b60006144d1826145fe565b91506144dc836145fe565b9250827fffffffffffffffffffffffffffffffffffffffffffffffffffffffffffffffff0382111561451157614510614746565b5b828201905092915050565b6000614527826145fe565b9150614532836145fe565b92508261454257614541614775565b5b828204905092915050565b6000614558826145fe565b9150614563836145fe565b92508282101561457657614575614746565b5b828203905092915050565b600061458c826145de565b9050919050565b60008115159050919050565b60007fffffffff0000000000000000000000000000000000000000000000000000000082169050919050565b60008190506145d982614eef565b919050565b600073ffffffffffffffffffffffffffffffffffffffff82169050919050565b6000819050919050565b600060ff82169050919050565b6000614620826145cb565b9050919050565b82818337600083830152505050565b60005b83811015614654578082015181840152602081019050614639565b83811115614663576000848401525b50505050565b6000600282049050600182168061468157607f821691505b60208210811415614695576146946147d3565b5b50919050565b6146a482614831565b810181811067ffffffffffffffff821117156146c3576146c2614802565b5b80604052505050565b60006146d7826145fe565b91507fffffffffffffffffffffffffffffffffffffffffffffffffffffffffffffffff82141561470a57614709614746565b5b600182019050919050565b6000614720826145fe565b915061472b836145fe565b92508261473b5761473a614775565b5b828206905092915050565b7f4e487b7100000000000000000000000000000000000000000000000000000000600052601160045260246000fd5b7f4e487b7100000000000000000000000000000000000000000000000000000000600052601260045260246000fd5b7f4e487b7100000000000000000000000000000000000000000000000000000000600052602160045260246000fd5b7f4e487b7100000000000000000000000000000000000000000000000000000000600052602260045260246000fd5b7f4e487b7100000000000000000000000000000000000000000000000000000000600052604160045260246000fd5b6000601f19601f8301169050919050565b7f455243373231456e756d657261626c653a206f776e657220696e646578206f7560008201527f74206f6620626f756e6473000000000000000000000000000000000000000000602082015250565b7f4552433732313a207472616e7366657220746f206e6f6e20455243373231526560008201527f63656976657220696d706c656d656e7465720000000000000000000000000000602082015250565b7f4f776e61626c653a206e6577206f776e657220697320746865207a65726f206160008201527f6464726573730000000000000000000000000000000000000000000000000000602082015250565b7f57726f6e67206c616e6420747970650000000000000000000000000000000000600082015250565b7f4552433732313a207472616e736665722066726f6d20696e636f72726563742060008201527f6f776e6572000000000000000000000000000000000000000000000000000000602082015250565b7f4552433732313a20746f6b656e20616c7265616479206d696e74656400000000600082015250565b7f596f752063616e2774206d696e74206c616e6473206f6620746869732074797060008201527f652c206c696d6974207265616368656400000000000000000000000000000000602082015250565b7f4552433732313a207472616e7366657220746f20746865207a65726f2061646460008201527f7265737300000000000000000000000000000000000000000000000000000000602082015250565b7f4552433732313a20617070726f766520746f2063616c6c657200000000000000600082015250565b7f4552433732313a206f70657261746f7220717565727920666f72206e6f6e657860008201527f697374656e7420746f6b656e0000000000000000000000000000000000000000602082015250565b7f4552433732313a20617070726f76652063616c6c6572206973206e6f74206f7760008201527f6e6572206e6f7220617070726f76656420666f7220616c6c0000000000000000602082015250565b7f4552433732313a2062616c616e636520717565727920666f7220746865207a6560008201527f726f206164647265737300000000000000000000000000000000000000000000602082015250565b7f4552433732313a206f776e657220717565727920666f72206e6f6e657869737460008201527f656e7420746f6b656e0000000000000000000000000000000000000000000000602082015250565b7f45524337323155524953746f726167653a2055524920736574206f66206e6f6e60008201527f6578697374656e7420746f6b656e000000000000000000000000000000000000602082015250565b7f4552433732313a206d696e7420746f20746865207a65726f2061646472657373600082015250565b7f596f752063616e206d696e74206a757374206f6e6520536d616c6c204c616e64600082015250565b7f45524337323155524953746f726167653a2055524920717565727920666f722060008201527f6e6f6e6578697374656e7420746f6b656e000000000000000000000000000000602082015250565b7f4552433732313a20617070726f76656420717565727920666f72206e6f6e657860008201527f697374656e7420746f6b656e0000000000000000000000000000000000000000602082015250565b7f4f776e61626c653a2063616c6c6572206973206e6f7420746865206f776e6572600082015250565b7f4552433732314d657461646174613a2055524920717565727920666f72206e6f60008201527f6e6578697374656e7420746f6b656e0000000000000000000000000000000000602082015250565b7f4552433732313a20617070726f76616c20746f2063757272656e74206f776e6560008201527f7200000000000000000000000000000000000000000000000000000000000000602082015250565b7f57726f6e67206465706f73697420616d6f756e74000000000000000000000000600082015250565b7f4552433732313a207472616e736665722063616c6c6572206973206e6f74206f60008201527f776e6572206e6f7220617070726f766564000000000000000000000000000000602082015250565b7f455243373231456e756d657261626c653a20676c6f62616c20696e646578206f60008201527f7574206f6620626f756e64730000000000000000000000000000000000000000602082015250565b7f4552433732314275726e61626c653a2063616c6c6572206973206e6f74206f7760008201527f6e6572206e6f7220617070726f76656400000000000000000000000000000000602082015250565b60038110614f0057614eff6147a4565b5b50565b614f0c81614581565b8114614f1757600080fd5b50565b614f2381614593565b8114614f2e57600080fd5b50565b614f3a8161459f565b8114614f4557600080fd5b50565b60038110614f5557600080fd5b50565b614f61816145fe565b8114614f6c57600080fd5b50565b614f7881614608565b8114614f8357600080fd5b5056fea264697066735822122077f7bb38c70f8430c84681d51453003efc5dc5590090d7709bab2a6d296f053264736f6c634300080400336261666b7265696876636f72616978647978366a62726c6d6c667734357073726a6c6b77656d703769653377636b79653766726e796862646e6f696261666b72656967657a7566696837676d763664367866626d3361636b62767378786277356d70726c74336878356b767465376b6a6b6261786a756261666b72656965707a726d776365717535753662356478326a64727232767135756a6568696275347633327a64787267346a64677473326f7a71",
  "linkReferences": {},
  "deployedLinkReferences": {}
}