{
  "_format": "hh-sol-artifact-1",
  "contractName": "LandNFT",
  "sourceName": "src/backend/contracts/LandNFT.sol",
  "abi": [
    {
      "inputs": [
        {
          "internalType": "address",
          "name": "_contractMain",
          "type": "address"
        }
      ],
      "stateMutability": "nonpayable",
      "type": "constructor"
    },
    {
      "inputs": [
        {
          "internalType": "string",
          "name": "message",
          "type": "string"
        },
        {
          "internalType": "uint256",
          "name": "limit",
          "type": "uint256"
        }
      ],
      "name": "LandsLimitError",
      "type": "error"
    },
    {
      "inputs": [
        {
          "internalType": "string",
          "name": "message",
          "type": "string"
        }
      ],
      "name": "LandsSmallLimitError",
      "type": "error"
    },
    {
      "anonymous": false,
      "inputs": [
        {
          "indexed": true,
          "internalType": "address",
          "name": "owner",
          "type": "address"
        },
        {
          "indexed": true,
          "internalType": "address",
          "name": "approved",
          "type": "address"
        },
        {
          "indexed": true,
          "internalType": "uint256",
          "name": "tokenId",
          "type": "uint256"
        }
      ],
      "name": "Approval",
      "type": "event"
    },
    {
      "anonymous": false,
      "inputs": [
        {
          "indexed": true,
          "internalType": "address",
          "name": "owner",
          "type": "address"
        },
        {
          "indexed": true,
          "internalType": "address",
          "name": "operator",
          "type": "address"
        },
        {
          "indexed": false,
          "internalType": "bool",
          "name": "approved",
          "type": "bool"
        }
      ],
      "name": "ApprovalForAll",
      "type": "event"
    },
    {
      "anonymous": false,
      "inputs": [
        {
          "indexed": true,
          "internalType": "address",
          "name": "previousOwner",
          "type": "address"
        },
        {
          "indexed": true,
          "internalType": "address",
          "name": "newOwner",
          "type": "address"
        }
      ],
      "name": "OwnershipTransferred",
      "type": "event"
    },
    {
      "anonymous": false,
      "inputs": [
        {
          "indexed": true,
          "internalType": "address",
          "name": "from",
          "type": "address"
        },
        {
          "indexed": true,
          "internalType": "address",
          "name": "to",
          "type": "address"
        },
        {
          "indexed": true,
          "internalType": "uint256",
          "name": "tokenId",
          "type": "uint256"
        }
      ],
      "name": "Transfer",
      "type": "event"
    },
    {
      "inputs": [
        {
          "internalType": "address",
          "name": "to",
          "type": "address"
        },
        {
          "internalType": "uint256",
          "name": "tokenId",
          "type": "uint256"
        }
      ],
      "name": "approve",
      "outputs": [],
      "stateMutability": "nonpayable",
      "type": "function"
    },
    {
      "inputs": [
        {
          "internalType": "address",
          "name": "owner",
          "type": "address"
        }
      ],
      "name": "balanceOf",
      "outputs": [
        {
          "internalType": "uint256",
          "name": "",
          "type": "uint256"
        }
      ],
      "stateMutability": "view",
      "type": "function"
    },
    {
      "inputs": [
        {
          "internalType": "uint256",
          "name": "tokenId",
          "type": "uint256"
        }
      ],
      "name": "burn",
      "outputs": [],
      "stateMutability": "nonpayable",
      "type": "function"
    },
    {
      "inputs": [],
      "name": "getAllLands",
      "outputs": [
        {
          "components": [
            {
              "internalType": "uint256",
              "name": "price",
              "type": "uint256"
            },
            {
              "internalType": "uint256",
              "name": "limitCount",
              "type": "uint256"
            },
            {
              "internalType": "uint256",
              "name": "zombiesPerDay",
              "type": "uint256"
            },
            {
              "internalType": "string",
              "name": "media",
              "type": "string"
            }
          ],
          "internalType": "struct LandNFT.LandTypeData[]",
          "name": "",
          "type": "tuple[]"
        }
      ],
      "stateMutability": "view",
      "type": "function"
    },
    {
      "inputs": [
        {
          "internalType": "uint256",
          "name": "tokenId",
          "type": "uint256"
        }
      ],
      "name": "getApproved",
      "outputs": [
        {
          "internalType": "address",
          "name": "",
          "type": "address"
        }
      ],
      "stateMutability": "view",
      "type": "function"
    },
    {
      "inputs": [
        {
          "internalType": "address",
          "name": "owner",
          "type": "address"
        },
        {
          "internalType": "address",
          "name": "operator",
          "type": "address"
        }
      ],
      "name": "isApprovedForAll",
      "outputs": [
        {
          "internalType": "bool",
          "name": "",
          "type": "bool"
        }
      ],
      "stateMutability": "view",
      "type": "function"
    },
    {
      "inputs": [
        {
          "internalType": "enum LandNFT.LandType",
          "name": "",
          "type": "uint8"
        }
      ],
      "name": "landTypeCount",
      "outputs": [
        {
          "internalType": "uint256",
          "name": "",
          "type": "uint256"
        }
      ],
      "stateMutability": "view",
      "type": "function"
    },
    {
      "inputs": [
        {
          "internalType": "enum LandNFT.LandType",
          "name": "",
          "type": "uint8"
        }
      ],
      "name": "landTypeData",
      "outputs": [
        {
          "internalType": "uint256",
          "name": "price",
          "type": "uint256"
        },
        {
          "internalType": "uint256",
          "name": "limitCount",
          "type": "uint256"
        },
        {
          "internalType": "uint256",
          "name": "zombiesPerDay",
          "type": "uint256"
        },
        {
          "internalType": "string",
          "name": "media",
          "type": "string"
        }
      ],
      "stateMutability": "view",
      "type": "function"
    },
    {
      "inputs": [
        {
          "internalType": "uint8",
          "name": "",
          "type": "uint8"
        }
      ],
      "name": "landTypeIndex",
      "outputs": [
        {
          "internalType": "enum LandNFT.LandType",
          "name": "",
          "type": "uint8"
        }
      ],
      "stateMutability": "view",
      "type": "function"
    },
    {
      "inputs": [],
      "name": "name",
      "outputs": [
        {
          "internalType": "string",
          "name": "",
          "type": "string"
        }
      ],
      "stateMutability": "view",
      "type": "function"
    },
    {
      "inputs": [],
      "name": "owner",
      "outputs": [
        {
          "internalType": "address",
          "name": "",
          "type": "address"
        }
      ],
      "stateMutability": "view",
      "type": "function"
    },
    {
      "inputs": [
        {
          "internalType": "uint256",
          "name": "tokenId",
          "type": "uint256"
        }
      ],
      "name": "ownerOf",
      "outputs": [
        {
          "internalType": "address",
          "name": "",
          "type": "address"
        }
      ],
      "stateMutability": "view",
      "type": "function"
    },
    {
      "inputs": [],
      "name": "renounceOwnership",
      "outputs": [],
      "stateMutability": "nonpayable",
      "type": "function"
    },
    {
      "inputs": [],
      "name": "safeMint",
      "outputs": [
        {
          "internalType": "uint256",
          "name": "",
          "type": "uint256"
        }
      ],
      "stateMutability": "payable",
      "type": "function"
    },
    {
      "inputs": [
        {
          "internalType": "address",
          "name": "from",
          "type": "address"
        },
        {
          "internalType": "address",
          "name": "to",
          "type": "address"
        },
        {
          "internalType": "uint256",
          "name": "tokenId",
          "type": "uint256"
        }
      ],
      "name": "safeTransferFrom",
      "outputs": [],
      "stateMutability": "nonpayable",
      "type": "function"
    },
    {
      "inputs": [
        {
          "internalType": "address",
          "name": "from",
          "type": "address"
        },
        {
          "internalType": "address",
          "name": "to",
          "type": "address"
        },
        {
          "internalType": "uint256",
          "name": "tokenId",
          "type": "uint256"
        },
        {
          "internalType": "bytes",
          "name": "_data",
          "type": "bytes"
        }
      ],
      "name": "safeTransferFrom",
      "outputs": [],
      "stateMutability": "nonpayable",
      "type": "function"
    },
    {
      "inputs": [
        {
          "internalType": "address",
          "name": "operator",
          "type": "address"
        },
        {
          "internalType": "bool",
          "name": "approved",
          "type": "bool"
        }
      ],
      "name": "setApprovalForAll",
      "outputs": [],
      "stateMutability": "nonpayable",
      "type": "function"
    },
    {
      "inputs": [
        {
          "internalType": "bytes4",
          "name": "_interfaceId",
          "type": "bytes4"
        }
      ],
      "name": "supportsInterface",
      "outputs": [
        {
          "internalType": "bool",
          "name": "",
          "type": "bool"
        }
      ],
      "stateMutability": "view",
      "type": "function"
    },
    {
      "inputs": [],
      "name": "symbol",
      "outputs": [
        {
          "internalType": "string",
          "name": "",
          "type": "string"
        }
      ],
      "stateMutability": "view",
      "type": "function"
    },
    {
      "inputs": [
        {
          "internalType": "uint256",
          "name": "index",
          "type": "uint256"
        }
      ],
      "name": "tokenByIndex",
      "outputs": [
        {
          "internalType": "uint256",
          "name": "",
          "type": "uint256"
        }
      ],
      "stateMutability": "view",
      "type": "function"
    },
    {
      "inputs": [
        {
          "internalType": "address",
          "name": "owner",
          "type": "address"
        },
        {
          "internalType": "uint256",
          "name": "index",
          "type": "uint256"
        }
      ],
      "name": "tokenOfOwnerByIndex",
      "outputs": [
        {
          "internalType": "uint256",
          "name": "",
          "type": "uint256"
        }
      ],
      "stateMutability": "view",
      "type": "function"
    },
    {
      "inputs": [
        {
          "internalType": "uint256",
          "name": "_tokenId",
          "type": "uint256"
        }
      ],
      "name": "tokenURI",
      "outputs": [
        {
          "internalType": "string",
          "name": "",
          "type": "string"
        }
      ],
      "stateMutability": "view",
      "type": "function"
    },
    {
      "inputs": [],
      "name": "totalSupply",
      "outputs": [
        {
          "internalType": "uint256",
          "name": "",
          "type": "uint256"
        }
      ],
      "stateMutability": "view",
      "type": "function"
    },
    {
      "inputs": [
        {
          "internalType": "address",
          "name": "from",
          "type": "address"
        },
        {
          "internalType": "address",
          "name": "to",
          "type": "address"
        },
        {
          "internalType": "uint256",
          "name": "tokenId",
          "type": "uint256"
        }
      ],
      "name": "transferFrom",
      "outputs": [],
      "stateMutability": "nonpayable",
      "type": "function"
    },
    {
      "inputs": [
        {
          "internalType": "address",
          "name": "newOwner",
          "type": "address"
        }
      ],
      "name": "transferOwnership",
      "outputs": [],
      "stateMutability": "nonpayable",
      "type": "function"
    },
    {
      "inputs": [
        {
          "internalType": "uint256",
          "name": "_startIndex",
          "type": "uint256"
        },
        {
          "internalType": "uint8",
          "name": "_count",
          "type": "uint8"
        }
      ],
      "name": "userLands",
      "outputs": [
        {
          "components": [
            {
              "internalType": "uint256",
              "name": "tokenId",
              "type": "uint256"
            },
            {
              "internalType": "enum LandNFT.LandType",
              "name": "landType",
              "type": "uint8"
            },
            {
              "internalType": "uint256",
              "name": "lastZombieClaim",
              "type": "uint256"
            },
            {
              "internalType": "uint256",
              "name": "salePrice",
              "type": "uint256"
            },
            {
              "internalType": "string",
              "name": "nftType",
              "type": "string"
            },
            {
              "internalType": "uint256",
              "name": "discoverEvents",
              "type": "uint256"
            }
          ],
          "internalType": "struct LandNFT.Land[]",
          "name": "",
          "type": "tuple[]"
        }
      ],
      "stateMutability": "view",
      "type": "function"
    }
  ],
  "bytecode": "0x60806040523480156200001157600080fd5b5060405162005a0238038062005a02833981810160405281019062000037919062000720565b6040518060400160405280600781526020017f5a6f6d4c616e64000000000000000000000000000000000000000000000000008152506040518060400160405280600481526020017f5a4d4c4c000000000000000000000000000000000000000000000000000000008152508160009080519060200190620000bb92919062000659565b508060019080519060200190620000d492919062000659565b505050620000f7620000eb6200058b60201b60201c565b6200059360201b60201c565b80600d60006101000a81548173ffffffffffffffffffffffffffffffffffffffff021916908373ffffffffffffffffffffffffffffffffffffffff1602179055506000600e60008060ff16815260200190815260200160002060006101000a81548160ff0219169083600281111562000199577f4e487b7100000000000000000000000000000000000000000000000000000000600052602160045260246000fd5b02179055506001600e6000600160ff16815260200190815260200160002060006101000a81548160ff0219169083600281111562000200577f4e487b7100000000000000000000000000000000000000000000000000000000600052602160045260246000fd5b02179055506002600e6000600260ff16815260200190815260200160002060006101000a81548160ff0219169083600281111562000267577f4e487b7100000000000000000000000000000000000000000000000000000000600052602160045260246000fd5b021790555060405180608001604052806000815260200161ea5f8152602001600181526020016040518060600160405280603b815260200162005951603b913981525060106000806002811115620002e8577f4e487b7100000000000000000000000000000000000000000000000000000000600052602160045260246000fd5b600281111562000321577f4e487b7100000000000000000000000000000000000000000000000000000000600052602160045260246000fd5b815260200190815260200160002060008201518160000155602082015181600101556040820151816002015560608201518160030190805190602001906200036b92919062000659565b509050506040518060800160405280674563918244f40000815260200161176f8152602001600481526020016040518060600160405280603b8152602001620059c7603b91398152506010600060016002811115620003f3577f4e487b7100000000000000000000000000000000000000000000000000000000600052602160045260246000fd5b60028111156200042c577f4e487b7100000000000000000000000000000000000000000000000000000000600052602160045260246000fd5b815260200190815260200160002060008201518160000155602082015181600101556040820151816002015560608201518160030190805190602001906200047692919062000659565b509050506040518060800160405280677ce66c50e284000081526020016107cf8152602001600881526020016040518060600160405280603b81526020016200598c603b913981525060106000600280811115620004fd577f4e487b7100000000000000000000000000000000000000000000000000000000600052602160045260246000fd5b600281111562000536577f4e487b7100000000000000000000000000000000000000000000000000000000600052602160045260246000fd5b815260200190815260200160002060008201518160000155602082015181600101556040820151816002015560608201518160030190805190602001906200058092919062000659565b5090505050620007ff565b600033905090565b6000600b60009054906101000a900473ffffffffffffffffffffffffffffffffffffffff16905081600b60006101000a81548173ffffffffffffffffffffffffffffffffffffffff021916908373ffffffffffffffffffffffffffffffffffffffff1602179055508173ffffffffffffffffffffffffffffffffffffffff168173ffffffffffffffffffffffffffffffffffffffff167f8be0079c531659141344cd1fd0a4f28419497f9722a3daafe3b4186f6b6457e060405160405180910390a35050565b828054620006679062000780565b90600052602060002090601f0160209004810192826200068b5760008555620006d7565b82601f10620006a657805160ff1916838001178555620006d7565b82800160010185558215620006d7579182015b82811115620006d6578251825591602001919060010190620006b9565b5b509050620006e69190620006ea565b5090565b5b8082111562000705576000816000905550600101620006eb565b5090565b6000815190506200071a81620007e5565b92915050565b6000602082840312156200073357600080fd5b6000620007438482850162000709565b91505092915050565b6000620007598262000760565b9050919050565b600073ffffffffffffffffffffffffffffffffffffffff82169050919050565b600060028204905060018216806200079957607f821691505b60208210811415620007b057620007af620007b6565b5b50919050565b7f4e487b7100000000000000000000000000000000000000000000000000000000600052602260045260246000fd5b620007f0816200074c565b8114620007fc57600080fd5b50565b615142806200080f6000396000f3fe6080604052600436106101815760003560e01c80636871ee40116100d1578063a2e7ccb51161008a578063b88d4fde11610064578063b88d4fde146105c4578063c87b56dd146105ed578063e985e9c51461062a578063f2fde38b1461066757610181565b8063a2e7ccb51461051c578063a5d6c8e914610559578063b7b6e5431461059957610181565b80636871ee401461042b57806370a0823114610449578063715018a6146104865780638da5cb5b1461049d57806395d89b41146104c8578063a22cb465146104f357610181565b8063209a8fd01161013e57806342842e0e1161011857806342842e0e1461035f57806342966c68146103885780634f6ccce7146103b15780636352211e146103ee57610181565b8063209a8fd0146102bc57806323b872dd146102f95780632f745c591461032257610181565b806301ffc9a71461018657806306fdde03146101c3578063081812fc146101ee578063095ea7b31461022b57806317300fcc1461025457806318160ddd14610291575b600080fd5b34801561019257600080fd5b506101ad60048036038101906101a8919061390e565b610690565b6040516101ba9190614162565b60405180910390f35b3480156101cf57600080fd5b506101d86106a2565b6040516101e59190614198565b60405180910390f35b3480156101fa57600080fd5b5061021560048036038101906102109190613989565b610734565b60405161022291906140b7565b60405180910390f35b34801561023757600080fd5b50610252600480360381019061024d91906138d2565b6107b9565b005b34801561026057600080fd5b5061027b60048036038101906102769190613960565b6108d1565b60405161028891906144c8565b60405180910390f35b34801561029d57600080fd5b506102a66108e9565b6040516102b391906144c8565b60405180910390f35b3480156102c857600080fd5b506102e360048036038101906102de91906139b2565b6108f6565b6040516102f09190614140565b60405180910390f35b34801561030557600080fd5b50610320600480360381019061031b91906137cc565b610b71565b005b34801561032e57600080fd5b50610349600480360381019061034491906138d2565b610bd1565b60405161035691906144c8565b60405180910390f35b34801561036b57600080fd5b50610386600480360381019061038191906137cc565b610c76565b005b34801561039457600080fd5b506103af60048036038101906103aa9190613989565b610c96565b005b3480156103bd57600080fd5b506103d860048036038101906103d39190613989565b610cf2565b6040516103e591906144c8565b60405180910390f35b3480156103fa57600080fd5b5061041560048036038101906104109190613989565b610d89565b60405161042291906140b7565b60405180910390f35b610433610e3b565b60405161044091906144c8565b60405180910390f35b34801561045557600080fd5b50610470600480360381019061046b9190613767565b6111d8565b60405161047d91906144c8565b60405180910390f35b34801561049257600080fd5b5061049b611290565b005b3480156104a957600080fd5b506104b2611318565b6040516104bf91906140b7565b60405180910390f35b3480156104d457600080fd5b506104dd611342565b6040516104ea9190614198565b60405180910390f35b3480156104ff57600080fd5b5061051a60048036038101906105159190613896565b6113d4565b005b34801561052857600080fd5b50610543600480360381019061053e91906139ee565b6113ea565b604051610550919061417d565b60405180910390f35b34801561056557600080fd5b50610580600480360381019061057b9190613960565b61140a565b60405161059094939291906144e3565b60405180910390f35b3480156105a557600080fd5b506105ae6114c2565b6040516105bb919061411e565b60405180910390f35b3480156105d057600080fd5b506105eb60048036038101906105e6919061381b565b611718565b005b3480156105f957600080fd5b50610614600480360381019061060f9190613989565b61177a565b6040516106219190614198565b60405180910390f35b34801561063657600080fd5b50610651600480360381019061064c9190613790565b61178c565b60405161065e9190614162565b60405180910390f35b34801561067357600080fd5b5061068e60048036038101906106899190613767565b611820565b005b600061069b82611918565b9050919050565b6060600080546106b1906147ee565b80601f01602080910402602001604051908101604052809291908181526020018280546106dd906147ee565b801561072a5780601f106106ff5761010080835404028352916020019161072a565b820191906000526020600020905b81548152906001019060200180831161070d57829003601f168201915b5050505050905090565b600061073f82611992565b61077e576040517f08c379a0000000000000000000000000000000000000000000000000000000008152600401610775906143c8565b60405180910390fd5b6004600083815260200190815260200160002060009054906101000a900473ffffffffffffffffffffffffffffffffffffffff169050919050565b60006107c482610d89565b90508073ffffffffffffffffffffffffffffffffffffffff168373ffffffffffffffffffffffffffffffffffffffff161415610835576040517f08c379a000000000000000000000000000000000000000000000000000000000815260040161082c90614428565b60405180910390fd5b8073ffffffffffffffffffffffffffffffffffffffff166108546119fe565b73ffffffffffffffffffffffffffffffffffffffff16148061088357506108828161087d6119fe565b61178c565b5b6108c2576040517f08c379a00000000000000000000000000000000000000000000000000000000081526004016108b9906142e8565b60405180910390fd5b6108cc8383611a06565b505050565b600f6020528060005260406000206000915090505481565b6000600880549050905090565b606060008260ff1667ffffffffffffffff81111561093d577f4e487b7100000000000000000000000000000000000000000000000000000000600052604160045260246000fd5b60405190808252806020026020018201604052801561097657816020015b6109636134f3565b81526020019060019003908161095b5790505b5090506000610984336111d8565b905060008590505b8460ff16811015610b655780821115610b525760006109ab3383610bd1565b9050601260008281526020019081526020016000206040518060c0016040529081600082015481526020016001820160009054906101000a900460ff166002811115610a20577f4e487b7100000000000000000000000000000000000000000000000000000000600052602160045260246000fd5b6002811115610a58577f4e487b7100000000000000000000000000000000000000000000000000000000600052602160045260246000fd5b81526020016002820154815260200160038201548152602001600482018054610a80906147ee565b80601f0160208091040260200160405190810160405280929190818152602001828054610aac906147ee565b8015610af95780601f10610ace57610100808354040283529160200191610af9565b820191906000526020600020905b815481529060010190602001808311610adc57829003601f168201915b50505050508152602001600582015481525050848381518110610b45577f4e487b7100000000000000000000000000000000000000000000000000000000600052603260045260246000fd5b6020026020010181905250505b8080610b5d90614851565b91505061098c565b50819250505092915050565b610b82610b7c6119fe565b82611abf565b610bc1576040517f08c379a0000000000000000000000000000000000000000000000000000000008152600401610bb890614468565b60405180910390fd5b610bcc838383611b9d565b505050565b6000610bdc836111d8565b8210610c1d576040517f08c379a0000000000000000000000000000000000000000000000000000000008152600401610c14906141ba565b60405180910390fd5b600660008473ffffffffffffffffffffffffffffffffffffffff1673ffffffffffffffffffffffffffffffffffffffff168152602001908152602001600020600083815260200190815260200160002054905092915050565b610c9183838360405180602001604052806000815250611718565b505050565b610ca7610ca16119fe565b82611abf565b610ce6576040517f08c379a0000000000000000000000000000000000000000000000000000000008152600401610cdd906144a8565b60405180910390fd5b610cef81611e04565b50565b6000610cfc6108e9565b8210610d3d576040517f08c379a0000000000000000000000000000000000000000000000000000000008152600401610d3490614488565b60405180910390fd5b60088281548110610d77577f4e487b7100000000000000000000000000000000000000000000000000000000600052603260045260246000fd5b90600052602060002001549050919050565b6000806002600084815260200190815260200160002060009054906101000a900473ffffffffffffffffffffffffffffffffffffffff169050600073ffffffffffffffffffffffffffffffffffffffff168173ffffffffffffffffffffffffffffffffffffffff161415610e32576040517f08c379a0000000000000000000000000000000000000000000000000000000008152600401610e2990614328565b60405180910390fd5b80915050919050565b600080610e46611e10565b9050610e5181612016565b600060106000836002811115610e90577f4e487b7100000000000000000000000000000000000000000000000000000000600052602160045260246000fd5b6002811115610ec8577f4e487b7100000000000000000000000000000000000000000000000000000000600052602160045260246000fd5b81526020019081526020016000206003018054610ee4906147ee565b80601f0160208091040260200160405190810160405280929190818152602001828054610f10906147ee565b8015610f5d5780601f10610f3257610100808354040283529160200191610f5d565b820191906000526020600020905b815481529060010190602001808311610f4057829003601f168201915b505050505090506000610f70600c61227a565b9050610f7c600c612288565b610f86338261229e565b610f9081836122bc565b600f6000846002811115610fcd577f4e487b7100000000000000000000000000000000000000000000000000000000600052602160045260246000fd5b6002811115611005577f4e487b7100000000000000000000000000000000000000000000000000000000600052602160045260246000fd5b8152602001908152602001600020600081548092919061102490614851565b91905055506001601160003373ffffffffffffffffffffffffffffffffffffffff1673ffffffffffffffffffffffffffffffffffffffff16815260200190815260200160002060006101000a81548160ff0219169083151502179055506040518060c001604052808281526020018460028111156110cb577f4e487b7100000000000000000000000000000000000000000000000000000000600052602160045260246000fd5b815260200160008152602001600081526020016040518060400160405280600481526020017f6c616e640000000000000000000000000000000000000000000000000000000081525081526020016000815250601260008381526020019081526020016000206000820151816000015560208201518160010160006101000a81548160ff0219169083600281111561118c577f4e487b7100000000000000000000000000000000000000000000000000000000600052602160045260246000fd5b0217905550604082015181600201556060820151816003015560808201518160040190805190602001906111c1929190613561565b5060a0820151816005015590505080935050505090565b60008073ffffffffffffffffffffffffffffffffffffffff168273ffffffffffffffffffffffffffffffffffffffff161415611249576040517f08c379a000000000000000000000000000000000000000000000000000000000815260040161124090614308565b60405180910390fd5b600360008373ffffffffffffffffffffffffffffffffffffffff1673ffffffffffffffffffffffffffffffffffffffff168152602001908152602001600020549050919050565b6112986119fe565b73ffffffffffffffffffffffffffffffffffffffff166112b6611318565b73ffffffffffffffffffffffffffffffffffffffff161461130c576040517f08c379a0000000000000000000000000000000000000000000000000000000008152600401611303906143e8565b60405180910390fd5b6113166000612330565b565b6000600b60009054906101000a900473ffffffffffffffffffffffffffffffffffffffff16905090565b606060018054611351906147ee565b80601f016020809104026020016040519081016040528092919081815260200182805461137d906147ee565b80156113ca5780601f1061139f576101008083540402835291602001916113ca565b820191906000526020600020905b8154815290600101906020018083116113ad57829003601f168201915b5050505050905090565b6113e66113df6119fe565b83836123f6565b5050565b600e6020528060005260406000206000915054906101000a900460ff1681565b601060205280600052604060002060009150905080600001549080600101549080600201549080600301805461143f906147ee565b80601f016020809104026020016040519081016040528092919081815260200182805461146b906147ee565b80156114b85780601f1061148d576101008083540402835291602001916114b8565b820191906000526020600020905b81548152906001019060200180831161149b57829003601f168201915b5050505050905084565b60606000600367ffffffffffffffff811115611507577f4e487b7100000000000000000000000000000000000000000000000000000000600052604160045260246000fd5b60405190808252806020026020018201604052801561154057816020015b61152d6135e7565b8152602001906001900390816115255790505b50905060005b60038160ff1610156117105760106000600e60008460ff1660ff16815260200190815260200160002060009054906101000a900460ff1660028111156115b5577f4e487b7100000000000000000000000000000000000000000000000000000000600052602160045260246000fd5b60028111156115ed577f4e487b7100000000000000000000000000000000000000000000000000000000600052602160045260246000fd5b8152602001908152602001600020604051806080016040529081600082015481526020016001820154815260200160028201548152602001600382018054611634906147ee565b80601f0160208091040260200160405190810160405280929190818152602001828054611660906147ee565b80156116ad5780601f10611682576101008083540402835291602001916116ad565b820191906000526020600020905b81548152906001019060200180831161169057829003601f168201915b505050505081525050828260ff16815181106116f2577f4e487b7100000000000000000000000000000000000000000000000000000000600052603260045260246000fd5b602002602001018190525080806117089061489a565b915050611546565b508091505090565b6117296117236119fe565b83611abf565b611768576040517f08c379a000000000000000000000000000000000000000000000000000000000815260040161175f90614468565b60405180910390fd5b61177484848484612563565b50505050565b6060611785826125bf565b9050919050565b6000600560008473ffffffffffffffffffffffffffffffffffffffff1673ffffffffffffffffffffffffffffffffffffffff16815260200190815260200160002060008373ffffffffffffffffffffffffffffffffffffffff1673ffffffffffffffffffffffffffffffffffffffff16815260200190815260200160002060009054906101000a900460ff16905092915050565b6118286119fe565b73ffffffffffffffffffffffffffffffffffffffff16611846611318565b73ffffffffffffffffffffffffffffffffffffffff161461189c576040517f08c379a0000000000000000000000000000000000000000000000000000000008152600401611893906143e8565b60405180910390fd5b600073ffffffffffffffffffffffffffffffffffffffff168173ffffffffffffffffffffffffffffffffffffffff16141561190c576040517f08c379a0000000000000000000000000000000000000000000000000000000008152600401611903906141fa565b60405180910390fd5b61191581612330565b50565b60007f780e9d63000000000000000000000000000000000000000000000000000000007bffffffffffffffffffffffffffffffffffffffffffffffffffffffff1916827bffffffffffffffffffffffffffffffffffffffffffffffffffffffff1916148061198b575061198a82612711565b5b9050919050565b60008073ffffffffffffffffffffffffffffffffffffffff166002600084815260200190815260200160002060009054906101000a900473ffffffffffffffffffffffffffffffffffffffff1673ffffffffffffffffffffffffffffffffffffffff1614159050919050565b600033905090565b816004600083815260200190815260200160002060006101000a81548173ffffffffffffffffffffffffffffffffffffffff021916908373ffffffffffffffffffffffffffffffffffffffff160217905550808273ffffffffffffffffffffffffffffffffffffffff16611a7983610d89565b73ffffffffffffffffffffffffffffffffffffffff167f8c5be1e5ebec7d5bd14f71427d1e84f3dd0314c0f7b2291e5b200ac8c7c3b92560405160405180910390a45050565b6000611aca82611992565b611b09576040517f08c379a0000000000000000000000000000000000000000000000000000000008152600401611b00906142c8565b60405180910390fd5b6000611b1483610d89565b90508073ffffffffffffffffffffffffffffffffffffffff168473ffffffffffffffffffffffffffffffffffffffff161480611b8357508373ffffffffffffffffffffffffffffffffffffffff16611b6b84610734565b73ffffffffffffffffffffffffffffffffffffffff16145b80611b945750611b93818561178c565b5b91505092915050565b8273ffffffffffffffffffffffffffffffffffffffff16611bbd82610d89565b73ffffffffffffffffffffffffffffffffffffffff1614611c13576040517f08c379a0000000000000000000000000000000000000000000000000000000008152600401611c0a9061421a565b60405180910390fd5b600073ffffffffffffffffffffffffffffffffffffffff168273ffffffffffffffffffffffffffffffffffffffff161415611c83576040517f08c379a0000000000000000000000000000000000000000000000000000000008152600401611c7a90614288565b60405180910390fd5b611c8e8383836127f3565b611c99600082611a06565b6001600360008573ffffffffffffffffffffffffffffffffffffffff1673ffffffffffffffffffffffffffffffffffffffff1681526020019081526020016000206000828254611ce991906146d2565b925050819055506001600360008473ffffffffffffffffffffffffffffffffffffffff1673ffffffffffffffffffffffffffffffffffffffff1681526020019081526020016000206000828254611d40919061464b565b92505081905550816002600083815260200190815260200160002060006101000a81548173ffffffffffffffffffffffffffffffffffffffff021916908373ffffffffffffffffffffffffffffffffffffffff160217905550808273ffffffffffffffffffffffffffffffffffffffff168473ffffffffffffffffffffffffffffffffffffffff167fddf252ad1be2c89b69c2b068fc378daa952ba7f163c4a11628f55a4df523b3ef60405160405180910390a4611dff838383612803565b505050565b611e0d81612808565b50565b600060106000806002811115611e4f577f4e487b7100000000000000000000000000000000000000000000000000000000600052602160045260246000fd5b6002811115611e87577f4e487b7100000000000000000000000000000000000000000000000000000000600052602160045260246000fd5b815260200190815260200160002060000154341415611ea95760009050612013565b6010600060016002811115611ee7577f4e487b7100000000000000000000000000000000000000000000000000000000600052602160045260246000fd5b6002811115611f1f577f4e487b7100000000000000000000000000000000000000000000000000000000600052602160045260246000fd5b815260200190815260200160002060000154341415611f415760019050612013565b60106000600280811115611f7e577f4e487b7100000000000000000000000000000000000000000000000000000000600052602160045260246000fd5b6002811115611fb6577f4e487b7100000000000000000000000000000000000000000000000000000000600052602160045260246000fd5b815260200190815260200160002060000154341415611fd85760029050612013565b6040517f08c379a000000000000000000000000000000000000000000000000000000000815260040161200a90614448565b60405180910390fd5b90565b600060106000836002811115612055577f4e487b7100000000000000000000000000000000000000000000000000000000600052602160045260246000fd5b600281111561208d577f4e487b7100000000000000000000000000000000000000000000000000000000600052602160045260246000fd5b8152602001908152602001600020600101549050600060028111156120db577f4e487b7100000000000000000000000000000000000000000000000000000000600052602160045260246000fd5b826002811115612114577f4e487b7100000000000000000000000000000000000000000000000000000000600052602160045260246000fd5b14156121af5760011515601160003373ffffffffffffffffffffffffffffffffffffffff1673ffffffffffffffffffffffffffffffffffffffff16815260200190815260200160002060009054906101000a900460ff16151514156121ae576040517fb490537d0000000000000000000000000000000000000000000000000000000081526004016121a590614388565b60405180910390fd5b5b80600f60008460028111156121ed577f4e487b7100000000000000000000000000000000000000000000000000000000600052602160045260246000fd5b6002811115612225577f4e487b7100000000000000000000000000000000000000000000000000000000600052602160045260246000fd5b8152602001908152602001600020541061227657806040517f25d0bf1400000000000000000000000000000000000000000000000000000000815260040161226d919061425a565b60405180910390fd5b5050565b600081600001549050919050565b6001816000016000828254019250508190555050565b6122b882826040518060200160405280600081525061285b565b5050565b6122c582611992565b612304576040517f08c379a00000000000000000000000000000000000000000000000000000000081526004016122fb90614348565b60405180910390fd5b80600a6000848152602001908152602001600020908051906020019061232b929190613561565b505050565b6000600b60009054906101000a900473ffffffffffffffffffffffffffffffffffffffff16905081600b60006101000a81548173ffffffffffffffffffffffffffffffffffffffff021916908373ffffffffffffffffffffffffffffffffffffffff1602179055508173ffffffffffffffffffffffffffffffffffffffff168173ffffffffffffffffffffffffffffffffffffffff167f8be0079c531659141344cd1fd0a4f28419497f9722a3daafe3b4186f6b6457e060405160405180910390a35050565b8173ffffffffffffffffffffffffffffffffffffffff168373ffffffffffffffffffffffffffffffffffffffff161415612465576040517f08c379a000000000000000000000000000000000000000000000000000000000815260040161245c906142a8565b60405180910390fd5b80600560008573ffffffffffffffffffffffffffffffffffffffff1673ffffffffffffffffffffffffffffffffffffffff16815260200190815260200160002060008473ffffffffffffffffffffffffffffffffffffffff1673ffffffffffffffffffffffffffffffffffffffff16815260200190815260200160002060006101000a81548160ff0219169083151502179055508173ffffffffffffffffffffffffffffffffffffffff168373ffffffffffffffffffffffffffffffffffffffff167f17307eab39ab6107e8899845ad3d59bd9653f200f220920489ca2b5937696c31836040516125569190614162565b60405180910390a3505050565b61256e848484611b9d565b61257a848484846128b6565b6125b9576040517f08c379a00000000000000000000000000000000000000000000000000000000081526004016125b0906141da565b60405180910390fd5b50505050565b60606125ca82611992565b612609576040517f08c379a0000000000000000000000000000000000000000000000000000000008152600401612600906143a8565b60405180910390fd5b6000600a60008481526020019081526020016000208054612629906147ee565b80601f0160208091040260200160405190810160405280929190818152602001828054612655906147ee565b80156126a25780601f10612677576101008083540402835291602001916126a2565b820191906000526020600020905b81548152906001019060200180831161268557829003601f168201915b5050505050905060006126b3612a4d565b90506000815114156126c957819250505061270c565b6000825111156126fe5780826040516020016126e6929190614093565b6040516020818303038152906040529250505061270c565b61270784612a8a565b925050505b919050565b60007f80ac58cd000000000000000000000000000000000000000000000000000000007bffffffffffffffffffffffffffffffffffffffffffffffffffffffff1916827bffffffffffffffffffffffffffffffffffffffffffffffffffffffff191614806127dc57507f5b5e139f000000000000000000000000000000000000000000000000000000007bffffffffffffffffffffffffffffffffffffffffffffffffffffffff1916827bffffffffffffffffffffffffffffffffffffffffffffffffffffffff1916145b806127ec57506127eb82612b31565b5b9050919050565b6127fe838383612b9b565b505050565b505050565b61281181612caf565b6000600a60008381526020019081526020016000208054612831906147ee565b90501461285857600a60008281526020019081526020016000206000612857919061360f565b5b50565b6128658383612dcc565b61287260008484846128b6565b6128b1576040517f08c379a00000000000000000000000000000000000000000000000000000000081526004016128a8906141da565b60405180910390fd5b505050565b60006128d78473ffffffffffffffffffffffffffffffffffffffff16612fa6565b15612a40578373ffffffffffffffffffffffffffffffffffffffff1663150b7a026129006119fe565b8786866040518563ffffffff1660e01b815260040161292294939291906140d2565b602060405180830381600087803b15801561293c57600080fd5b505af192505050801561296d57506040513d601f19601f8201168201806040525081019061296a9190613937565b60015b6129f0573d806000811461299d576040519150601f19603f3d011682016040523d82523d6000602084013e6129a2565b606091505b506000815114156129e8576040517f08c379a00000000000000000000000000000000000000000000000000000000081526004016129df906141da565b60405180910390fd5b805181602001fd5b63150b7a0260e01b7bffffffffffffffffffffffffffffffffffffffffffffffffffffffff1916817bffffffffffffffffffffffffffffffffffffffffffffffffffffffff191614915050612a45565b600190505b949350505050565b60606040518060400160405280601581526020017f68747470733a2f2f697066732e696f2f697066732f0000000000000000000000815250905090565b6060612a9582611992565b612ad4576040517f08c379a0000000000000000000000000000000000000000000000000000000008152600401612acb90614408565b60405180910390fd5b6000612ade612a4d565b90506000815111612afe5760405180602001604052806000815250612b29565b80612b0884612fc9565b604051602001612b19929190614093565b6040516020818303038152906040525b915050919050565b60007f01ffc9a7000000000000000000000000000000000000000000000000000000007bffffffffffffffffffffffffffffffffffffffffffffffffffffffff1916827bffffffffffffffffffffffffffffffffffffffffffffffffffffffff1916149050919050565b612ba6838383613176565b600073ffffffffffffffffffffffffffffffffffffffff168373ffffffffffffffffffffffffffffffffffffffff161415612be957612be48161317b565b612c28565b8173ffffffffffffffffffffffffffffffffffffffff168373ffffffffffffffffffffffffffffffffffffffff1614612c2757612c2683826131c4565b5b5b600073ffffffffffffffffffffffffffffffffffffffff168273ffffffffffffffffffffffffffffffffffffffff161415612c6b57612c6681613331565b612caa565b8273ffffffffffffffffffffffffffffffffffffffff168273ffffffffffffffffffffffffffffffffffffffff1614612ca957612ca88282613474565b5b5b505050565b6000612cba82610d89565b9050612cc8816000846127f3565b612cd3600083611a06565b6001600360008373ffffffffffffffffffffffffffffffffffffffff1673ffffffffffffffffffffffffffffffffffffffff1681526020019081526020016000206000828254612d2391906146d2565b925050819055506002600083815260200190815260200160002060006101000a81549073ffffffffffffffffffffffffffffffffffffffff021916905581600073ffffffffffffffffffffffffffffffffffffffff168273ffffffffffffffffffffffffffffffffffffffff167fddf252ad1be2c89b69c2b068fc378daa952ba7f163c4a11628f55a4df523b3ef60405160405180910390a4612dc881600084612803565b5050565b600073ffffffffffffffffffffffffffffffffffffffff168273ffffffffffffffffffffffffffffffffffffffff161415612e3c576040517f08c379a0000000000000000000000000000000000000000000000000000000008152600401612e3390614368565b60405180910390fd5b612e4581611992565b15612e85576040517f08c379a0000000000000000000000000000000000000000000000000000000008152600401612e7c9061423a565b60405180910390fd5b612e91600083836127f3565b6001600360008473ffffffffffffffffffffffffffffffffffffffff1673ffffffffffffffffffffffffffffffffffffffff1681526020019081526020016000206000828254612ee1919061464b565b92505081905550816002600083815260200190815260200160002060006101000a81548173ffffffffffffffffffffffffffffffffffffffff021916908373ffffffffffffffffffffffffffffffffffffffff160217905550808273ffffffffffffffffffffffffffffffffffffffff16600073ffffffffffffffffffffffffffffffffffffffff167fddf252ad1be2c89b69c2b068fc378daa952ba7f163c4a11628f55a4df523b3ef60405160405180910390a4612fa260008383612803565b5050565b6000808273ffffffffffffffffffffffffffffffffffffffff163b119050919050565b60606000821415613011576040518060400160405280600181526020017f30000000000000000000000000000000000000000000000000000000000000008152509050613171565b600082905060005b6000821461304357808061302c90614851565b915050600a8261303c91906146a1565b9150613019565b60008167ffffffffffffffff811115613085577f4e487b7100000000000000000000000000000000000000000000000000000000600052604160045260246000fd5b6040519080825280601f01601f1916602001820160405280156130b75781602001600182028036833780820191505090505b5090505b6000851461316a576001826130d091906146d2565b9150600a856130df91906148c4565b60306130eb919061464b565b60f81b818381518110613127577f4e487b7100000000000000000000000000000000000000000000000000000000600052603260045260246000fd5b60200101907effffffffffffffffffffffffffffffffffffffffffffffffffffffffffffff1916908160001a905350600a8561316391906146a1565b94506130bb565b8093505050505b919050565b505050565b6008805490506009600083815260200190815260200160002081905550600881908060018154018082558091505060019003906000526020600020016000909190919091505550565b600060016131d1846111d8565b6131db91906146d2565b90506000600760008481526020019081526020016000205490508181146132c0576000600660008673ffffffffffffffffffffffffffffffffffffffff1673ffffffffffffffffffffffffffffffffffffffff168152602001908152602001600020600084815260200190815260200160002054905080600660008773ffffffffffffffffffffffffffffffffffffffff1673ffffffffffffffffffffffffffffffffffffffff168152602001908152602001600020600084815260200190815260200160002081905550816007600083815260200190815260200160002081905550505b6007600084815260200190815260200160002060009055600660008573ffffffffffffffffffffffffffffffffffffffff1673ffffffffffffffffffffffffffffffffffffffff16815260200190815260200160002060008381526020019081526020016000206000905550505050565b6000600160088054905061334591906146d2565b905060006009600084815260200190815260200160002054905060006008838154811061339b577f4e487b7100000000000000000000000000000000000000000000000000000000600052603260045260246000fd5b9060005260206000200154905080600883815481106133e3577f4e487b7100000000000000000000000000000000000000000000000000000000600052603260045260246000fd5b906000526020600020018190555081600960008381526020019081526020016000208190555060096000858152602001908152602001600020600090556008805480613458577f4e487b7100000000000000000000000000000000000000000000000000000000600052603160045260246000fd5b6001900381819060005260206000200160009055905550505050565b600061347f836111d8565b905081600660008573ffffffffffffffffffffffffffffffffffffffff1673ffffffffffffffffffffffffffffffffffffffff168152602001908152602001600020600083815260200190815260200160002081905550806007600084815260200190815260200160002081905550505050565b6040518060c00160405280600081526020016000600281111561353f577f4e487b7100000000000000000000000000000000000000000000000000000000600052602160045260246000fd5b8152602001600081526020016000815260200160608152602001600081525090565b82805461356d906147ee565b90600052602060002090601f01602090048101928261358f57600085556135d6565b82601f106135a857805160ff19168380011785556135d6565b828001600101855582156135d6579182015b828111156135d55782518255916020019190600101906135ba565b5b5090506135e3919061364f565b5090565b6040518060800160405280600081526020016000815260200160008152602001606081525090565b50805461361b906147ee565b6000825580601f1061362d575061364c565b601f01602090049060005260206000209081019061364b919061364f565b5b50565b5b80821115613668576000816000905550600101613650565b5090565b600061367f61367a84614554565b61452f565b90508281526020810184848401111561369757600080fd5b6136a28482856147ac565b509392505050565b6000813590506136b981615089565b92915050565b6000813590506136ce816150a0565b92915050565b6000813590506136e3816150b7565b92915050565b6000815190506136f8816150b7565b92915050565b600082601f83011261370f57600080fd5b813561371f84826020860161366c565b91505092915050565b600081359050613737816150ce565b92915050565b60008135905061374c816150de565b92915050565b600081359050613761816150f5565b92915050565b60006020828403121561377957600080fd5b6000613787848285016136aa565b91505092915050565b600080604083850312156137a357600080fd5b60006137b1858286016136aa565b92505060206137c2858286016136aa565b9150509250929050565b6000806000606084860312156137e157600080fd5b60006137ef868287016136aa565b9350506020613800868287016136aa565b92505060406138118682870161373d565b9150509250925092565b6000806000806080858703121561383157600080fd5b600061383f878288016136aa565b9450506020613850878288016136aa565b93505060406138618782880161373d565b925050606085013567ffffffffffffffff81111561387e57600080fd5b61388a878288016136fe565b91505092959194509250565b600080604083850312156138a957600080fd5b60006138b7858286016136aa565b92505060206138c8858286016136bf565b9150509250929050565b600080604083850312156138e557600080fd5b60006138f3858286016136aa565b92505060206139048582860161373d565b9150509250929050565b60006020828403121561392057600080fd5b600061392e848285016136d4565b91505092915050565b60006020828403121561394957600080fd5b6000613957848285016136e9565b91505092915050565b60006020828403121561397257600080fd5b600061398084828501613728565b91505092915050565b60006020828403121561399b57600080fd5b60006139a98482850161373d565b91505092915050565b600080604083850312156139c557600080fd5b60006139d38582860161373d565b92505060206139e485828601613752565b9150509250929050565b600060208284031215613a0057600080fd5b6000613a0e84828501613752565b91505092915050565b6000613a238383613f89565b905092915050565b6000613a378383613fec565b905092915050565b613a4881614706565b82525050565b6000613a59826145a5565b613a6381856145eb565b935083602082028501613a7585614585565b8060005b85811015613ab15784840389528151613a928582613a17565b9450613a9d836145d1565b925060208a01995050600181019050613a79565b50829750879550505050505092915050565b6000613ace826145b0565b613ad881856145fc565b935083602082028501613aea85614595565b8060005b85811015613b265784840389528151613b078582613a2b565b9450613b12836145de565b925060208a01995050600181019050613aee565b50829750879550505050505092915050565b613b4181614718565b82525050565b6000613b52826145bb565b613b5c818561460d565b9350613b6c8185602086016147bb565b613b75816149e0565b840191505092915050565b613b898161479a565b82525050565b613b988161479a565b82525050565b6000613ba9826145c6565b613bb3818561461e565b9350613bc38185602086016147bb565b613bcc816149e0565b840191505092915050565b6000613be2826145c6565b613bec818561462f565b9350613bfc8185602086016147bb565b613c05816149e0565b840191505092915050565b6000613c1b826145c6565b613c258185614640565b9350613c358185602086016147bb565b80840191505092915050565b6000613c4e602b8361462f565b9150613c59826149f1565b604082019050919050565b6000613c7160328361462f565b9150613c7c82614a40565b604082019050919050565b6000613c9460268361462f565b9150613c9f82614a8f565b604082019050919050565b6000613cb760258361462f565b9150613cc282614ade565b604082019050919050565b6000613cda601c8361462f565b9150613ce582614b2d565b602082019050919050565b6000613cfd60308361462f565b9150613d0882614b56565b604082019050919050565b6000613d2060248361462f565b9150613d2b82614ba5565b604082019050919050565b6000613d4360198361462f565b9150613d4e82614bf4565b602082019050919050565b6000613d66602c8361462f565b9150613d7182614c1d565b604082019050919050565b6000613d8960388361462f565b9150613d9482614c6c565b604082019050919050565b6000613dac602a8361462f565b9150613db782614cbb565b604082019050919050565b6000613dcf60298361462f565b9150613dda82614d0a565b604082019050919050565b6000613df2602e8361462f565b9150613dfd82614d59565b604082019050919050565b6000613e1560208361462f565b9150613e2082614da8565b602082019050919050565b6000613e3860208361462f565b9150613e4382614dd1565b602082019050919050565b6000613e5b60318361462f565b9150613e6682614dfa565b604082019050919050565b6000613e7e602c8361462f565b9150613e8982614e49565b604082019050919050565b6000613ea160208361462f565b9150613eac82614e98565b602082019050919050565b6000613ec4602f8361462f565b9150613ecf82614ec1565b604082019050919050565b6000613ee760218361462f565b9150613ef282614f10565b604082019050919050565b6000613f0a60148361462f565b9150613f1582614f5f565b602082019050919050565b6000613f2d60318361462f565b9150613f3882614f88565b604082019050919050565b6000613f50602c8361462f565b9150613f5b82614fd7565b604082019050919050565b6000613f7360308361462f565b9150613f7e82615026565b604082019050919050565b6000608083016000830151613fa16000860182614075565b506020830151613fb46020860182614075565b506040830151613fc76040860182614075565b5060608301518482036060860152613fdf8282613b9e565b9150508091505092915050565b600060c0830160008301516140046000860182614075565b5060208301516140176020860182613b80565b50604083015161402a6040860182614075565b50606083015161403d6060860182614075565b50608083015184820360808601526140558282613b9e565b91505060a083015161406a60a0860182614075565b508091505092915050565b61407e81614783565b82525050565b61408d81614783565b82525050565b600061409f8285613c10565b91506140ab8284613c10565b91508190509392505050565b60006020820190506140cc6000830184613a3f565b92915050565b60006080820190506140e76000830187613a3f565b6140f46020830186613a3f565b6141016040830185614084565b81810360608301526141138184613b47565b905095945050505050565b600060208201905081810360008301526141388184613a4e565b905092915050565b6000602082019050818103600083015261415a8184613ac3565b905092915050565b60006020820190506141776000830184613b38565b92915050565b60006020820190506141926000830184613b8f565b92915050565b600060208201905081810360008301526141b28184613bd7565b905092915050565b600060208201905081810360008301526141d381613c41565b9050919050565b600060208201905081810360008301526141f381613c64565b9050919050565b6000602082019050818103600083015261421381613c87565b9050919050565b6000602082019050818103600083015261423381613caa565b9050919050565b6000602082019050818103600083015261425381613ccd565b9050919050565b6000604082019050818103600083015261427381613cf0565b90506142826020830184614084565b92915050565b600060208201905081810360008301526142a181613d13565b9050919050565b600060208201905081810360008301526142c181613d36565b9050919050565b600060208201905081810360008301526142e181613d59565b9050919050565b6000602082019050818103600083015261430181613d7c565b9050919050565b6000602082019050818103600083015261432181613d9f565b9050919050565b6000602082019050818103600083015261434181613dc2565b9050919050565b6000602082019050818103600083015261436181613de5565b9050919050565b6000602082019050818103600083015261438181613e08565b9050919050565b600060208201905081810360008301526143a181613e2b565b9050919050565b600060208201905081810360008301526143c181613e4e565b9050919050565b600060208201905081810360008301526143e181613e71565b9050919050565b6000602082019050818103600083015261440181613e94565b9050919050565b6000602082019050818103600083015261442181613eb7565b9050919050565b6000602082019050818103600083015261444181613eda565b9050919050565b6000602082019050818103600083015261446181613efd565b9050919050565b6000602082019050818103600083015261448181613f20565b9050919050565b600060208201905081810360008301526144a181613f43565b9050919050565b600060208201905081810360008301526144c181613f66565b9050919050565b60006020820190506144dd6000830184614084565b92915050565b60006080820190506144f86000830187614084565b6145056020830186614084565b6145126040830185614084565b81810360608301526145248184613bd7565b905095945050505050565b600061453961454a565b90506145458282614820565b919050565b6000604051905090565b600067ffffffffffffffff82111561456f5761456e6149b1565b5b614578826149e0565b9050602081019050919050565b6000819050602082019050919050565b6000819050602082019050919050565b600081519050919050565b600081519050919050565b600081519050919050565b600081519050919050565b6000602082019050919050565b6000602082019050919050565b600082825260208201905092915050565b600082825260208201905092915050565b600082825260208201905092915050565b600082825260208201905092915050565b600082825260208201905092915050565b600081905092915050565b600061465682614783565b915061466183614783565b9250827fffffffffffffffffffffffffffffffffffffffffffffffffffffffffffffffff03821115614696576146956148f5565b5b828201905092915050565b60006146ac82614783565b91506146b783614783565b9250826146c7576146c6614924565b5b828204905092915050565b60006146dd82614783565b91506146e883614783565b9250828210156146fb576146fa6148f5565b5b828203905092915050565b600061471182614763565b9050919050565b60008115159050919050565b60007fffffffff0000000000000000000000000000000000000000000000000000000082169050919050565b600081905061475e82615075565b919050565b600073ffffffffffffffffffffffffffffffffffffffff82169050919050565b6000819050919050565b600060ff82169050919050565b60006147a582614750565b9050919050565b82818337600083830152505050565b60005b838110156147d95780820151818401526020810190506147be565b838111156147e8576000848401525b50505050565b6000600282049050600182168061480657607f821691505b6020821081141561481a57614819614982565b5b50919050565b614829826149e0565b810181811067ffffffffffffffff82111715614848576148476149b1565b5b80604052505050565b600061485c82614783565b91507fffffffffffffffffffffffffffffffffffffffffffffffffffffffffffffffff82141561488f5761488e6148f5565b5b600182019050919050565b60006148a58261478d565b915060ff8214156148b9576148b86148f5565b5b600182019050919050565b60006148cf82614783565b91506148da83614783565b9250826148ea576148e9614924565b5b828206905092915050565b7f4e487b7100000000000000000000000000000000000000000000000000000000600052601160045260246000fd5b7f4e487b7100000000000000000000000000000000000000000000000000000000600052601260045260246000fd5b7f4e487b7100000000000000000000000000000000000000000000000000000000600052602160045260246000fd5b7f4e487b7100000000000000000000000000000000000000000000000000000000600052602260045260246000fd5b7f4e487b7100000000000000000000000000000000000000000000000000000000600052604160045260246000fd5b6000601f19601f8301169050919050565b7f455243373231456e756d657261626c653a206f776e657220696e646578206f7560008201527f74206f6620626f756e6473000000000000000000000000000000000000000000602082015250565b7f4552433732313a207472616e7366657220746f206e6f6e20455243373231526560008201527f63656976657220696d706c656d656e7465720000000000000000000000000000602082015250565b7f4f776e61626c653a206e6577206f776e657220697320746865207a65726f206160008201527f6464726573730000000000000000000000000000000000000000000000000000602082015250565b7f4552433732313a207472616e736665722066726f6d20696e636f72726563742060008201527f6f776e6572000000000000000000000000000000000000000000000000000000602082015250565b7f4552433732313a20746f6b656e20616c7265616479206d696e74656400000000600082015250565b7f596f752063616e2774206d696e74206c616e6473206f6620746869732074797060008201527f652c206c696d6974207265616368656400000000000000000000000000000000602082015250565b7f4552433732313a207472616e7366657220746f20746865207a65726f2061646460008201527f7265737300000000000000000000000000000000000000000000000000000000602082015250565b7f4552433732313a20617070726f766520746f2063616c6c657200000000000000600082015250565b7f4552433732313a206f70657261746f7220717565727920666f72206e6f6e657860008201527f697374656e7420746f6b656e0000000000000000000000000000000000000000602082015250565b7f4552433732313a20617070726f76652063616c6c6572206973206e6f74206f7760008201527f6e6572206e6f7220617070726f76656420666f7220616c6c0000000000000000602082015250565b7f4552433732313a2062616c616e636520717565727920666f7220746865207a6560008201527f726f206164647265737300000000000000000000000000000000000000000000602082015250565b7f4552433732313a206f776e657220717565727920666f72206e6f6e657869737460008201527f656e7420746f6b656e0000000000000000000000000000000000000000000000602082015250565b7f45524337323155524953746f726167653a2055524920736574206f66206e6f6e60008201527f6578697374656e7420746f6b656e000000000000000000000000000000000000602082015250565b7f4552433732313a206d696e7420746f20746865207a65726f2061646472657373600082015250565b7f596f752063616e206d696e74206a757374206f6e6520536d616c6c204c616e64600082015250565b7f45524337323155524953746f726167653a2055524920717565727920666f722060008201527f6e6f6e6578697374656e7420746f6b656e000000000000000000000000000000602082015250565b7f4552433732313a20617070726f76656420717565727920666f72206e6f6e657860008201527f697374656e7420746f6b656e0000000000000000000000000000000000000000602082015250565b7f4f776e61626c653a2063616c6c6572206973206e6f7420746865206f776e6572600082015250565b7f4552433732314d657461646174613a2055524920717565727920666f72206e6f60008201527f6e6578697374656e7420746f6b656e0000000000000000000000000000000000602082015250565b7f4552433732313a20617070726f76616c20746f2063757272656e74206f776e6560008201527f7200000000000000000000000000000000000000000000000000000000000000602082015250565b7f57726f6e67206465706f73697420616d6f756e74000000000000000000000000600082015250565b7f4552433732313a207472616e736665722063616c6c6572206973206e6f74206f60008201527f776e6572206e6f7220617070726f766564000000000000000000000000000000602082015250565b7f455243373231456e756d657261626c653a20676c6f62616c20696e646578206f60008201527f7574206f6620626f756e64730000000000000000000000000000000000000000602082015250565b7f4552433732314275726e61626c653a2063616c6c6572206973206e6f74206f7760008201527f6e6572206e6f7220617070726f76656400000000000000000000000000000000602082015250565b6003811061508657615085614953565b5b50565b61509281614706565b811461509d57600080fd5b50565b6150a981614718565b81146150b457600080fd5b50565b6150c081614724565b81146150cb57600080fd5b50565b600381106150db57600080fd5b50565b6150e781614783565b81146150f257600080fd5b50565b6150fe8161478d565b811461510957600080fd5b5056fea2646970667358221220bb818061f5712d8f2200bc6ef739350a12fb9b46bc2b248cbe51c6002245644364736f6c634300080400336261666b7265696876636f72616978647978366a62726c6d6c667734357073726a6c6b77656d703769653377636b79653766726e796862646e6f696261666b72656967657a7566696837676d763664367866626d3361636b62767378786277356d70726c74336878356b767465376b6a6b6261786a756261666b72656965707a726d776365717535753662356478326a64727232767135756a6568696275347633327a64787267346a64677473326f7a71",
  "linkReferences": {},
  "deployedLinkReferences": {}
}