{
  "_format": "hh-sol-artifact-1",
  "contractName": "LandNFT",
  "sourceName": "src/backend/contracts/LandNFT.sol",
  "abi": [
    {
      "inputs": [
        {
          "internalType": "address",
          "name": "_contractMain",
          "type": "address"
        }
      ],
      "stateMutability": "nonpayable",
      "type": "constructor"
    },
    {
      "inputs": [
        {
          "internalType": "string",
          "name": "message",
          "type": "string"
        },
        {
          "internalType": "uint256",
          "name": "limit",
          "type": "uint256"
        }
      ],
      "name": "LandsLimitError",
      "type": "error"
    },
    {
      "inputs": [
        {
          "internalType": "string",
          "name": "message",
          "type": "string"
        }
      ],
      "name": "LandsSmallLimitError",
      "type": "error"
    },
    {
      "anonymous": false,
      "inputs": [
        {
          "indexed": true,
          "internalType": "address",
          "name": "owner",
          "type": "address"
        },
        {
          "indexed": true,
          "internalType": "address",
          "name": "approved",
          "type": "address"
        },
        {
          "indexed": true,
          "internalType": "uint256",
          "name": "tokenId",
          "type": "uint256"
        }
      ],
      "name": "Approval",
      "type": "event"
    },
    {
      "anonymous": false,
      "inputs": [
        {
          "indexed": true,
          "internalType": "address",
          "name": "owner",
          "type": "address"
        },
        {
          "indexed": true,
          "internalType": "address",
          "name": "operator",
          "type": "address"
        },
        {
          "indexed": false,
          "internalType": "bool",
          "name": "approved",
          "type": "bool"
        }
      ],
      "name": "ApprovalForAll",
      "type": "event"
    },
    {
      "anonymous": false,
      "inputs": [
        {
          "indexed": true,
          "internalType": "address",
          "name": "previousOwner",
          "type": "address"
        },
        {
          "indexed": true,
          "internalType": "address",
          "name": "newOwner",
          "type": "address"
        }
      ],
      "name": "OwnershipTransferred",
      "type": "event"
    },
    {
      "anonymous": false,
      "inputs": [
        {
          "indexed": true,
          "internalType": "address",
          "name": "from",
          "type": "address"
        },
        {
          "indexed": true,
          "internalType": "address",
          "name": "to",
          "type": "address"
        },
        {
          "indexed": true,
          "internalType": "uint256",
          "name": "tokenId",
          "type": "uint256"
        }
      ],
      "name": "Transfer",
      "type": "event"
    },
    {
      "inputs": [
        {
          "internalType": "address",
          "name": "to",
          "type": "address"
        },
        {
          "internalType": "uint256",
          "name": "tokenId",
          "type": "uint256"
        }
      ],
      "name": "approve",
      "outputs": [],
      "stateMutability": "nonpayable",
      "type": "function"
    },
    {
      "inputs": [
        {
          "internalType": "address",
          "name": "owner",
          "type": "address"
        }
      ],
      "name": "balanceOf",
      "outputs": [
        {
          "internalType": "uint256",
          "name": "",
          "type": "uint256"
        }
      ],
      "stateMutability": "view",
      "type": "function"
    },
    {
      "inputs": [
        {
          "internalType": "uint256",
          "name": "tokenId",
          "type": "uint256"
        }
      ],
      "name": "burn",
      "outputs": [],
      "stateMutability": "nonpayable",
      "type": "function"
    },
    {
      "inputs": [],
      "name": "getAllLands",
      "outputs": [
        {
          "components": [
            {
              "internalType": "uint256",
              "name": "price",
              "type": "uint256"
            },
            {
              "internalType": "uint256",
              "name": "limitCount",
              "type": "uint256"
            },
            {
              "internalType": "uint256",
              "name": "zombiesPerDay",
              "type": "uint256"
            },
            {
              "internalType": "string",
              "name": "media",
              "type": "string"
            }
          ],
          "internalType": "struct LandNFT.LandTypeData[]",
          "name": "",
          "type": "tuple[]"
        }
      ],
      "stateMutability": "view",
      "type": "function"
    },
    {
      "inputs": [
        {
          "internalType": "uint256",
          "name": "tokenId",
          "type": "uint256"
        }
      ],
      "name": "getApproved",
      "outputs": [
        {
          "internalType": "address",
          "name": "",
          "type": "address"
        }
      ],
      "stateMutability": "view",
      "type": "function"
    },
    {
      "inputs": [
        {
          "internalType": "address",
          "name": "owner",
          "type": "address"
        },
        {
          "internalType": "address",
          "name": "operator",
          "type": "address"
        }
      ],
      "name": "isApprovedForAll",
      "outputs": [
        {
          "internalType": "bool",
          "name": "",
          "type": "bool"
        }
      ],
      "stateMutability": "view",
      "type": "function"
    },
    {
      "inputs": [
        {
          "internalType": "enum LandNFT.LandType",
          "name": "",
          "type": "uint8"
        }
      ],
      "name": "landTypeCount",
      "outputs": [
        {
          "internalType": "uint256",
          "name": "",
          "type": "uint256"
        }
      ],
      "stateMutability": "view",
      "type": "function"
    },
    {
      "inputs": [
        {
          "internalType": "enum LandNFT.LandType",
          "name": "",
          "type": "uint8"
        }
      ],
      "name": "landTypeData",
      "outputs": [
        {
          "internalType": "uint256",
          "name": "price",
          "type": "uint256"
        },
        {
          "internalType": "uint256",
          "name": "limitCount",
          "type": "uint256"
        },
        {
          "internalType": "uint256",
          "name": "zombiesPerDay",
          "type": "uint256"
        },
        {
          "internalType": "string",
          "name": "media",
          "type": "string"
        }
      ],
      "stateMutability": "view",
      "type": "function"
    },
    {
      "inputs": [
        {
          "internalType": "uint8",
          "name": "",
          "type": "uint8"
        }
      ],
      "name": "landTypeIndex",
      "outputs": [
        {
          "internalType": "enum LandNFT.LandType",
          "name": "",
          "type": "uint8"
        }
      ],
      "stateMutability": "view",
      "type": "function"
    },
    {
      "inputs": [],
      "name": "name",
      "outputs": [
        {
          "internalType": "string",
          "name": "",
          "type": "string"
        }
      ],
      "stateMutability": "view",
      "type": "function"
    },
    {
      "inputs": [],
      "name": "owner",
      "outputs": [
        {
          "internalType": "address",
          "name": "",
          "type": "address"
        }
      ],
      "stateMutability": "view",
      "type": "function"
    },
    {
      "inputs": [
        {
          "internalType": "uint256",
          "name": "tokenId",
          "type": "uint256"
        }
      ],
      "name": "ownerOf",
      "outputs": [
        {
          "internalType": "address",
          "name": "",
          "type": "address"
        }
      ],
      "stateMutability": "view",
      "type": "function"
    },
    {
      "inputs": [],
      "name": "renounceOwnership",
      "outputs": [],
      "stateMutability": "nonpayable",
      "type": "function"
    },
    {
      "inputs": [],
      "name": "safeMint",
      "outputs": [
        {
          "internalType": "uint256",
          "name": "",
          "type": "uint256"
        }
      ],
      "stateMutability": "payable",
      "type": "function"
    },
    {
      "inputs": [
        {
          "internalType": "address",
          "name": "from",
          "type": "address"
        },
        {
          "internalType": "address",
          "name": "to",
          "type": "address"
        },
        {
          "internalType": "uint256",
          "name": "tokenId",
          "type": "uint256"
        }
      ],
      "name": "safeTransferFrom",
      "outputs": [],
      "stateMutability": "nonpayable",
      "type": "function"
    },
    {
      "inputs": [
        {
          "internalType": "address",
          "name": "from",
          "type": "address"
        },
        {
          "internalType": "address",
          "name": "to",
          "type": "address"
        },
        {
          "internalType": "uint256",
          "name": "tokenId",
          "type": "uint256"
        },
        {
          "internalType": "bytes",
          "name": "_data",
          "type": "bytes"
        }
      ],
      "name": "safeTransferFrom",
      "outputs": [],
      "stateMutability": "nonpayable",
      "type": "function"
    },
    {
      "inputs": [
        {
          "internalType": "address",
          "name": "operator",
          "type": "address"
        },
        {
          "internalType": "bool",
          "name": "approved",
          "type": "bool"
        }
      ],
      "name": "setApprovalForAll",
      "outputs": [],
      "stateMutability": "nonpayable",
      "type": "function"
    },
    {
      "inputs": [
        {
          "internalType": "bytes4",
          "name": "_interfaceId",
          "type": "bytes4"
        }
      ],
      "name": "supportsInterface",
      "outputs": [
        {
          "internalType": "bool",
          "name": "",
          "type": "bool"
        }
      ],
      "stateMutability": "view",
      "type": "function"
    },
    {
      "inputs": [],
      "name": "symbol",
      "outputs": [
        {
          "internalType": "string",
          "name": "",
          "type": "string"
        }
      ],
      "stateMutability": "view",
      "type": "function"
    },
    {
      "inputs": [
        {
          "internalType": "uint256",
          "name": "index",
          "type": "uint256"
        }
      ],
      "name": "tokenByIndex",
      "outputs": [
        {
          "internalType": "uint256",
          "name": "",
          "type": "uint256"
        }
      ],
      "stateMutability": "view",
      "type": "function"
    },
    {
      "inputs": [
        {
          "internalType": "address",
          "name": "owner",
          "type": "address"
        },
        {
          "internalType": "uint256",
          "name": "index",
          "type": "uint256"
        }
      ],
      "name": "tokenOfOwnerByIndex",
      "outputs": [
        {
          "internalType": "uint256",
          "name": "",
          "type": "uint256"
        }
      ],
      "stateMutability": "view",
      "type": "function"
    },
    {
      "inputs": [
        {
          "internalType": "uint256",
          "name": "_tokenId",
          "type": "uint256"
        }
      ],
      "name": "tokenURI",
      "outputs": [
        {
          "internalType": "string",
          "name": "",
          "type": "string"
        }
      ],
      "stateMutability": "view",
      "type": "function"
    },
    {
      "inputs": [],
      "name": "totalSupply",
      "outputs": [
        {
          "internalType": "uint256",
          "name": "",
          "type": "uint256"
        }
      ],
      "stateMutability": "view",
      "type": "function"
    },
    {
      "inputs": [
        {
          "internalType": "address",
          "name": "from",
          "type": "address"
        },
        {
          "internalType": "address",
          "name": "to",
          "type": "address"
        },
        {
          "internalType": "uint256",
          "name": "tokenId",
          "type": "uint256"
        }
      ],
      "name": "transferFrom",
      "outputs": [],
      "stateMutability": "nonpayable",
      "type": "function"
    },
    {
      "inputs": [
        {
          "internalType": "address",
          "name": "newOwner",
          "type": "address"
        }
      ],
      "name": "transferOwnership",
      "outputs": [],
      "stateMutability": "nonpayable",
      "type": "function"
    },
    {
      "inputs": [
        {
          "internalType": "uint256",
          "name": "_startIndex",
          "type": "uint256"
        },
        {
          "internalType": "uint8",
          "name": "_count",
          "type": "uint8"
        }
      ],
      "name": "userLands",
      "outputs": [
        {
          "components": [
            {
              "internalType": "uint256",
              "name": "tokenId",
              "type": "uint256"
            },
            {
              "internalType": "enum LandNFT.LandType",
              "name": "landType",
              "type": "uint8"
            },
            {
              "internalType": "uint256",
              "name": "lastZombieClaim",
              "type": "uint256"
            },
            {
              "internalType": "uint256",
              "name": "salePrice",
              "type": "uint256"
            },
            {
              "internalType": "string",
              "name": "nftType",
              "type": "string"
            },
            {
              "internalType": "uint256",
              "name": "discoverEvents",
              "type": "uint256"
            },
            {
              "internalType": "address",
              "name": "ownerId",
              "type": "address"
            }
          ],
          "internalType": "struct LandNFT.Land[]",
          "name": "",
          "type": "tuple[]"
        }
      ],
      "stateMutability": "view",
      "type": "function"
    }
  ],
  "bytecode": "0x60806040523480156200001157600080fd5b5060405162005afa38038062005afa833981810160405281019062000037919062000720565b6040518060400160405280600781526020017f5a6f6d4c616e64000000000000000000000000000000000000000000000000008152506040518060400160405280600481526020017f5a4d4c4c000000000000000000000000000000000000000000000000000000008152508160009080519060200190620000bb92919062000659565b508060019080519060200190620000d492919062000659565b505050620000f7620000eb6200058b60201b60201c565b6200059360201b60201c565b80600d60006101000a81548173ffffffffffffffffffffffffffffffffffffffff021916908373ffffffffffffffffffffffffffffffffffffffff1602179055506000600e60008060ff16815260200190815260200160002060006101000a81548160ff0219169083600281111562000199577f4e487b7100000000000000000000000000000000000000000000000000000000600052602160045260246000fd5b02179055506001600e6000600160ff16815260200190815260200160002060006101000a81548160ff0219169083600281111562000200577f4e487b7100000000000000000000000000000000000000000000000000000000600052602160045260246000fd5b02179055506002600e6000600260ff16815260200190815260200160002060006101000a81548160ff0219169083600281111562000267577f4e487b7100000000000000000000000000000000000000000000000000000000600052602160045260246000fd5b021790555060405180608001604052806000815260200161ea5f8152602001600181526020016040518060600160405280603b815260200162005a49603b913981525060106000806002811115620002e8577f4e487b7100000000000000000000000000000000000000000000000000000000600052602160045260246000fd5b600281111562000321577f4e487b7100000000000000000000000000000000000000000000000000000000600052602160045260246000fd5b815260200190815260200160002060008201518160000155602082015181600101556040820151816002015560608201518160030190805190602001906200036b92919062000659565b509050506040518060800160405280674563918244f40000815260200161176f8152602001600481526020016040518060600160405280603b815260200162005abf603b91398152506010600060016002811115620003f3577f4e487b7100000000000000000000000000000000000000000000000000000000600052602160045260246000fd5b60028111156200042c577f4e487b7100000000000000000000000000000000000000000000000000000000600052602160045260246000fd5b815260200190815260200160002060008201518160000155602082015181600101556040820151816002015560608201518160030190805190602001906200047692919062000659565b509050506040518060800160405280677ce66c50e284000081526020016107cf8152602001600881526020016040518060600160405280603b815260200162005a84603b913981525060106000600280811115620004fd577f4e487b7100000000000000000000000000000000000000000000000000000000600052602160045260246000fd5b600281111562000536577f4e487b7100000000000000000000000000000000000000000000000000000000600052602160045260246000fd5b815260200190815260200160002060008201518160000155602082015181600101556040820151816002015560608201518160030190805190602001906200058092919062000659565b5090505050620007ff565b600033905090565b6000600b60009054906101000a900473ffffffffffffffffffffffffffffffffffffffff16905081600b60006101000a81548173ffffffffffffffffffffffffffffffffffffffff021916908373ffffffffffffffffffffffffffffffffffffffff1602179055508173ffffffffffffffffffffffffffffffffffffffff168173ffffffffffffffffffffffffffffffffffffffff167f8be0079c531659141344cd1fd0a4f28419497f9722a3daafe3b4186f6b6457e060405160405180910390a35050565b828054620006679062000780565b90600052602060002090601f0160209004810192826200068b5760008555620006d7565b82601f10620006a657805160ff1916838001178555620006d7565b82800160010185558215620006d7579182015b82811115620006d6578251825591602001919060010190620006b9565b5b509050620006e69190620006ea565b5090565b5b8082111562000705576000816000905550600101620006eb565b5090565b6000815190506200071a81620007e5565b92915050565b6000602082840312156200073357600080fd5b6000620007438482850162000709565b91505092915050565b6000620007598262000760565b9050919050565b600073ffffffffffffffffffffffffffffffffffffffff82169050919050565b600060028204905060018216806200079957607f821691505b60208210811415620007b057620007af620007b6565b5b50919050565b7f4e487b7100000000000000000000000000000000000000000000000000000000600052602260045260246000fd5b620007f0816200074c565b8114620007fc57600080fd5b50565b61523a806200080f6000396000f3fe6080604052600436106101815760003560e01c80636871ee40116100d1578063a2e7ccb51161008a578063b88d4fde11610064578063b88d4fde146105c4578063c87b56dd146105ed578063e985e9c51461062a578063f2fde38b1461066757610181565b8063a2e7ccb51461051c578063a5d6c8e914610559578063b7b6e5431461059957610181565b80636871ee401461042b57806370a0823114610449578063715018a6146104865780638da5cb5b1461049d57806395d89b41146104c8578063a22cb465146104f357610181565b8063209a8fd01161013e57806342842e0e1161011857806342842e0e1461035f57806342966c68146103885780634f6ccce7146103b15780636352211e146103ee57610181565b8063209a8fd0146102bc57806323b872dd146102f95780632f745c591461032257610181565b806301ffc9a71461018657806306fdde03146101c3578063081812fc146101ee578063095ea7b31461022b57806317300fcc1461025457806318160ddd14610291575b600080fd5b34801561019257600080fd5b506101ad60048036038101906101a891906139e4565b610690565b6040516101ba919061425a565b60405180910390f35b3480156101cf57600080fd5b506101d86106a2565b6040516101e59190614290565b60405180910390f35b3480156101fa57600080fd5b5061021560048036038101906102109190613a5f565b610734565b60405161022291906141af565b60405180910390f35b34801561023757600080fd5b50610252600480360381019061024d91906139a8565b6107b9565b005b34801561026057600080fd5b5061027b60048036038101906102769190613a36565b6108d1565b60405161028891906145c0565b60405180910390f35b34801561029d57600080fd5b506102a66108e9565b6040516102b391906145c0565b60405180910390f35b3480156102c857600080fd5b506102e360048036038101906102de9190613a88565b6108f6565b6040516102f09190614238565b60405180910390f35b34801561030557600080fd5b50610320600480360381019061031b91906138a2565b610bc7565b005b34801561032e57600080fd5b50610349600480360381019061034491906139a8565b610c27565b60405161035691906145c0565b60405180910390f35b34801561036b57600080fd5b50610386600480360381019061038191906138a2565b610ccc565b005b34801561039457600080fd5b506103af60048036038101906103aa9190613a5f565b610cec565b005b3480156103bd57600080fd5b506103d860048036038101906103d39190613a5f565b610d48565b6040516103e591906145c0565b60405180910390f35b3480156103fa57600080fd5b5061041560048036038101906104109190613a5f565b610ddf565b60405161042291906141af565b60405180910390f35b610433610e91565b60405161044091906145c0565b60405180910390f35b34801561045557600080fd5b50610470600480360381019061046b919061383d565b611291565b60405161047d91906145c0565b60405180910390f35b34801561049257600080fd5b5061049b611349565b005b3480156104a957600080fd5b506104b26113d1565b6040516104bf91906141af565b60405180910390f35b3480156104d457600080fd5b506104dd6113fb565b6040516104ea9190614290565b60405180910390f35b3480156104ff57600080fd5b5061051a6004803603810190610515919061396c565b61148d565b005b34801561052857600080fd5b50610543600480360381019061053e9190613ac4565b6114a3565b6040516105509190614275565b60405180910390f35b34801561056557600080fd5b50610580600480360381019061057b9190613a36565b6114c3565b60405161059094939291906145db565b60405180910390f35b3480156105a557600080fd5b506105ae61157b565b6040516105bb9190614216565b60405180910390f35b3480156105d057600080fd5b506105eb60048036038101906105e691906138f1565b6117d1565b005b3480156105f957600080fd5b50610614600480360381019061060f9190613a5f565b611833565b6040516106219190614290565b60405180910390f35b34801561063657600080fd5b50610651600480360381019061064c9190613866565b611845565b60405161065e919061425a565b60405180910390f35b34801561067357600080fd5b5061068e6004803603810190610689919061383d565b6118d9565b005b600061069b826119d1565b9050919050565b6060600080546106b1906148e6565b80601f01602080910402602001604051908101604052809291908181526020018280546106dd906148e6565b801561072a5780601f106106ff5761010080835404028352916020019161072a565b820191906000526020600020905b81548152906001019060200180831161070d57829003601f168201915b5050505050905090565b600061073f82611a4b565b61077e576040517f08c379a0000000000000000000000000000000000000000000000000000000008152600401610775906144c0565b60405180910390fd5b6004600083815260200190815260200160002060009054906101000a900473ffffffffffffffffffffffffffffffffffffffff169050919050565b60006107c482610ddf565b90508073ffffffffffffffffffffffffffffffffffffffff168373ffffffffffffffffffffffffffffffffffffffff161415610835576040517f08c379a000000000000000000000000000000000000000000000000000000000815260040161082c90614520565b60405180910390fd5b8073ffffffffffffffffffffffffffffffffffffffff16610854611ab7565b73ffffffffffffffffffffffffffffffffffffffff16148061088357506108828161087d611ab7565b611845565b5b6108c2576040517f08c379a00000000000000000000000000000000000000000000000000000000081526004016108b9906143e0565b60405180910390fd5b6108cc8383611abf565b505050565b600f6020528060005260406000206000915090505481565b6000600880549050905090565b606060008260ff1667ffffffffffffffff81111561093d577f4e487b7100000000000000000000000000000000000000000000000000000000600052604160045260246000fd5b60405190808252806020026020018201604052801561097657816020015b6109636135ac565b81526020019060019003908161095b5790505b509050600061098433611291565b905060008590505b8460ff16811015610bbb5780821115610ba85760006109ab3383610c27565b9050601260008281526020019081526020016000206040518060e0016040529081600082015481526020016001820160009054906101000a900460ff166002811115610a20577f4e487b7100000000000000000000000000000000000000000000000000000000600052602160045260246000fd5b6002811115610a58577f4e487b7100000000000000000000000000000000000000000000000000000000600052602160045260246000fd5b81526020016002820154815260200160038201548152602001600482018054610a80906148e6565b80601f0160208091040260200160405190810160405280929190818152602001828054610aac906148e6565b8015610af95780601f10610ace57610100808354040283529160200191610af9565b820191906000526020600020905b815481529060010190602001808311610adc57829003601f168201915b50505050508152602001600582015481526020016006820160009054906101000a900473ffffffffffffffffffffffffffffffffffffffff1673ffffffffffffffffffffffffffffffffffffffff1673ffffffffffffffffffffffffffffffffffffffff1681525050848381518110610b9b577f4e487b7100000000000000000000000000000000000000000000000000000000600052603260045260246000fd5b6020026020010181905250505b8080610bb390614949565b91505061098c565b50819250505092915050565b610bd8610bd2611ab7565b82611b78565b610c17576040517f08c379a0000000000000000000000000000000000000000000000000000000008152600401610c0e90614560565b60405180910390fd5b610c22838383611c56565b505050565b6000610c3283611291565b8210610c73576040517f08c379a0000000000000000000000000000000000000000000000000000000008152600401610c6a906142b2565b60405180910390fd5b600660008473ffffffffffffffffffffffffffffffffffffffff1673ffffffffffffffffffffffffffffffffffffffff168152602001908152602001600020600083815260200190815260200160002054905092915050565b610ce7838383604051806020016040528060008152506117d1565b505050565b610cfd610cf7611ab7565b82611b78565b610d3c576040517f08c379a0000000000000000000000000000000000000000000000000000000008152600401610d33906145a0565b60405180910390fd5b610d4581611ebd565b50565b6000610d526108e9565b8210610d93576040517f08c379a0000000000000000000000000000000000000000000000000000000008152600401610d8a90614580565b60405180910390fd5b60088281548110610dcd577f4e487b7100000000000000000000000000000000000000000000000000000000600052603260045260246000fd5b90600052602060002001549050919050565b6000806002600084815260200190815260200160002060009054906101000a900473ffffffffffffffffffffffffffffffffffffffff169050600073ffffffffffffffffffffffffffffffffffffffff168173ffffffffffffffffffffffffffffffffffffffff161415610e88576040517f08c379a0000000000000000000000000000000000000000000000000000000008152600401610e7f90614420565b60405180910390fd5b80915050919050565b600080610e9c611ec9565b9050610ea7816120cf565b600060106000836002811115610ee6577f4e487b7100000000000000000000000000000000000000000000000000000000600052602160045260246000fd5b6002811115610f1e577f4e487b7100000000000000000000000000000000000000000000000000000000600052602160045260246000fd5b81526020019081526020016000206003018054610f3a906148e6565b80601f0160208091040260200160405190810160405280929190818152602001828054610f66906148e6565b8015610fb35780601f10610f8857610100808354040283529160200191610fb3565b820191906000526020600020905b815481529060010190602001808311610f9657829003601f168201915b505050505090506000610fc6600c612333565b9050610fd2600c612341565b610fdc3382612357565b610fe68183612375565b600f6000846002811115611023577f4e487b7100000000000000000000000000000000000000000000000000000000600052602160045260246000fd5b600281111561105b577f4e487b7100000000000000000000000000000000000000000000000000000000600052602160045260246000fd5b8152602001908152602001600020600081548092919061107a90614949565b91905055506001601160003373ffffffffffffffffffffffffffffffffffffffff1673ffffffffffffffffffffffffffffffffffffffff16815260200190815260200160002060006101000a81548160ff0219169083151502179055506040518060e00160405280828152602001846002811115611121577f4e487b7100000000000000000000000000000000000000000000000000000000600052602160045260246000fd5b815260200160008152602001600081526020016040518060400160405280600481526020017f6c616e64000000000000000000000000000000000000000000000000000000008152508152602001600081526020013373ffffffffffffffffffffffffffffffffffffffff16815250601260008381526020019081526020016000206000820151816000015560208201518160010160006101000a81548160ff021916908360028111156111fe577f4e487b7100000000000000000000000000000000000000000000000000000000600052602160045260246000fd5b021790555060408201518160020155606082015181600301556080820151816004019080519060200190611233929190613637565b5060a0820151816005015560c08201518160060160006101000a81548173ffffffffffffffffffffffffffffffffffffffff021916908373ffffffffffffffffffffffffffffffffffffffff16021790555090505080935050505090565b60008073ffffffffffffffffffffffffffffffffffffffff168273ffffffffffffffffffffffffffffffffffffffff161415611302576040517f08c379a00000000000000000000000000000000000000000000000000000000081526004016112f990614400565b60405180910390fd5b600360008373ffffffffffffffffffffffffffffffffffffffff1673ffffffffffffffffffffffffffffffffffffffff168152602001908152602001600020549050919050565b611351611ab7565b73ffffffffffffffffffffffffffffffffffffffff1661136f6113d1565b73ffffffffffffffffffffffffffffffffffffffff16146113c5576040517f08c379a00000000000000000000000000000000000000000000000000000000081526004016113bc906144e0565b60405180910390fd5b6113cf60006123e9565b565b6000600b60009054906101000a900473ffffffffffffffffffffffffffffffffffffffff16905090565b60606001805461140a906148e6565b80601f0160208091040260200160405190810160405280929190818152602001828054611436906148e6565b80156114835780601f1061145857610100808354040283529160200191611483565b820191906000526020600020905b81548152906001019060200180831161146657829003601f168201915b5050505050905090565b61149f611498611ab7565b83836124af565b5050565b600e6020528060005260406000206000915054906101000a900460ff1681565b60106020528060005260406000206000915090508060000154908060010154908060020154908060030180546114f8906148e6565b80601f0160208091040260200160405190810160405280929190818152602001828054611524906148e6565b80156115715780601f1061154657610100808354040283529160200191611571565b820191906000526020600020905b81548152906001019060200180831161155457829003601f168201915b5050505050905084565b60606000600367ffffffffffffffff8111156115c0577f4e487b7100000000000000000000000000000000000000000000000000000000600052604160045260246000fd5b6040519080825280602002602001820160405280156115f957816020015b6115e66136bd565b8152602001906001900390816115de5790505b50905060005b60038160ff1610156117c95760106000600e60008460ff1660ff16815260200190815260200160002060009054906101000a900460ff16600281111561166e577f4e487b7100000000000000000000000000000000000000000000000000000000600052602160045260246000fd5b60028111156116a6577f4e487b7100000000000000000000000000000000000000000000000000000000600052602160045260246000fd5b81526020019081526020016000206040518060800160405290816000820154815260200160018201548152602001600282015481526020016003820180546116ed906148e6565b80601f0160208091040260200160405190810160405280929190818152602001828054611719906148e6565b80156117665780601f1061173b57610100808354040283529160200191611766565b820191906000526020600020905b81548152906001019060200180831161174957829003601f168201915b505050505081525050828260ff16815181106117ab577f4e487b7100000000000000000000000000000000000000000000000000000000600052603260045260246000fd5b602002602001018190525080806117c190614992565b9150506115ff565b508091505090565b6117e26117dc611ab7565b83611b78565b611821576040517f08c379a000000000000000000000000000000000000000000000000000000000815260040161181890614560565b60405180910390fd5b61182d8484848461261c565b50505050565b606061183e82612678565b9050919050565b6000600560008473ffffffffffffffffffffffffffffffffffffffff1673ffffffffffffffffffffffffffffffffffffffff16815260200190815260200160002060008373ffffffffffffffffffffffffffffffffffffffff1673ffffffffffffffffffffffffffffffffffffffff16815260200190815260200160002060009054906101000a900460ff16905092915050565b6118e1611ab7565b73ffffffffffffffffffffffffffffffffffffffff166118ff6113d1565b73ffffffffffffffffffffffffffffffffffffffff1614611955576040517f08c379a000000000000000000000000000000000000000000000000000000000815260040161194c906144e0565b60405180910390fd5b600073ffffffffffffffffffffffffffffffffffffffff168173ffffffffffffffffffffffffffffffffffffffff1614156119c5576040517f08c379a00000000000000000000000000000000000000000000000000000000081526004016119bc906142f2565b60405180910390fd5b6119ce816123e9565b50565b60007f780e9d63000000000000000000000000000000000000000000000000000000007bffffffffffffffffffffffffffffffffffffffffffffffffffffffff1916827bffffffffffffffffffffffffffffffffffffffffffffffffffffffff19161480611a445750611a43826127ca565b5b9050919050565b60008073ffffffffffffffffffffffffffffffffffffffff166002600084815260200190815260200160002060009054906101000a900473ffffffffffffffffffffffffffffffffffffffff1673ffffffffffffffffffffffffffffffffffffffff1614159050919050565b600033905090565b816004600083815260200190815260200160002060006101000a81548173ffffffffffffffffffffffffffffffffffffffff021916908373ffffffffffffffffffffffffffffffffffffffff160217905550808273ffffffffffffffffffffffffffffffffffffffff16611b3283610ddf565b73ffffffffffffffffffffffffffffffffffffffff167f8c5be1e5ebec7d5bd14f71427d1e84f3dd0314c0f7b2291e5b200ac8c7c3b92560405160405180910390a45050565b6000611b8382611a4b565b611bc2576040517f08c379a0000000000000000000000000000000000000000000000000000000008152600401611bb9906143c0565b60405180910390fd5b6000611bcd83610ddf565b90508073ffffffffffffffffffffffffffffffffffffffff168473ffffffffffffffffffffffffffffffffffffffff161480611c3c57508373ffffffffffffffffffffffffffffffffffffffff16611c2484610734565b73ffffffffffffffffffffffffffffffffffffffff16145b80611c4d5750611c4c8185611845565b5b91505092915050565b8273ffffffffffffffffffffffffffffffffffffffff16611c7682610ddf565b73ffffffffffffffffffffffffffffffffffffffff1614611ccc576040517f08c379a0000000000000000000000000000000000000000000000000000000008152600401611cc390614312565b60405180910390fd5b600073ffffffffffffffffffffffffffffffffffffffff168273ffffffffffffffffffffffffffffffffffffffff161415611d3c576040517f08c379a0000000000000000000000000000000000000000000000000000000008152600401611d3390614380565b60405180910390fd5b611d478383836128ac565b611d52600082611abf565b6001600360008573ffffffffffffffffffffffffffffffffffffffff1673ffffffffffffffffffffffffffffffffffffffff1681526020019081526020016000206000828254611da291906147ca565b925050819055506001600360008473ffffffffffffffffffffffffffffffffffffffff1673ffffffffffffffffffffffffffffffffffffffff1681526020019081526020016000206000828254611df99190614743565b92505081905550816002600083815260200190815260200160002060006101000a81548173ffffffffffffffffffffffffffffffffffffffff021916908373ffffffffffffffffffffffffffffffffffffffff160217905550808273ffffffffffffffffffffffffffffffffffffffff168473ffffffffffffffffffffffffffffffffffffffff167fddf252ad1be2c89b69c2b068fc378daa952ba7f163c4a11628f55a4df523b3ef60405160405180910390a4611eb88383836128bc565b505050565b611ec6816128c1565b50565b600060106000806002811115611f08577f4e487b7100000000000000000000000000000000000000000000000000000000600052602160045260246000fd5b6002811115611f40577f4e487b7100000000000000000000000000000000000000000000000000000000600052602160045260246000fd5b815260200190815260200160002060000154341415611f6257600090506120cc565b6010600060016002811115611fa0577f4e487b7100000000000000000000000000000000000000000000000000000000600052602160045260246000fd5b6002811115611fd8577f4e487b7100000000000000000000000000000000000000000000000000000000600052602160045260246000fd5b815260200190815260200160002060000154341415611ffa57600190506120cc565b60106000600280811115612037577f4e487b7100000000000000000000000000000000000000000000000000000000600052602160045260246000fd5b600281111561206f577f4e487b7100000000000000000000000000000000000000000000000000000000600052602160045260246000fd5b81526020019081526020016000206000015434141561209157600290506120cc565b6040517f08c379a00000000000000000000000000000000000000000000000000000000081526004016120c390614540565b60405180910390fd5b90565b60006010600083600281111561210e577f4e487b7100000000000000000000000000000000000000000000000000000000600052602160045260246000fd5b6002811115612146577f4e487b7100000000000000000000000000000000000000000000000000000000600052602160045260246000fd5b815260200190815260200160002060010154905060006002811115612194577f4e487b7100000000000000000000000000000000000000000000000000000000600052602160045260246000fd5b8260028111156121cd577f4e487b7100000000000000000000000000000000000000000000000000000000600052602160045260246000fd5b14156122685760011515601160003373ffffffffffffffffffffffffffffffffffffffff1673ffffffffffffffffffffffffffffffffffffffff16815260200190815260200160002060009054906101000a900460ff1615151415612267576040517fb490537d00000000000000000000000000000000000000000000000000000000815260040161225e90614480565b60405180910390fd5b5b80600f60008460028111156122a6577f4e487b7100000000000000000000000000000000000000000000000000000000600052602160045260246000fd5b60028111156122de577f4e487b7100000000000000000000000000000000000000000000000000000000600052602160045260246000fd5b8152602001908152602001600020541061232f57806040517f25d0bf140000000000000000000000000000000000000000000000000000000081526004016123269190614352565b60405180910390fd5b5050565b600081600001549050919050565b6001816000016000828254019250508190555050565b612371828260405180602001604052806000815250612914565b5050565b61237e82611a4b565b6123bd576040517f08c379a00000000000000000000000000000000000000000000000000000000081526004016123b490614440565b60405180910390fd5b80600a600084815260200190815260200160002090805190602001906123e4929190613637565b505050565b6000600b60009054906101000a900473ffffffffffffffffffffffffffffffffffffffff16905081600b60006101000a81548173ffffffffffffffffffffffffffffffffffffffff021916908373ffffffffffffffffffffffffffffffffffffffff1602179055508173ffffffffffffffffffffffffffffffffffffffff168173ffffffffffffffffffffffffffffffffffffffff167f8be0079c531659141344cd1fd0a4f28419497f9722a3daafe3b4186f6b6457e060405160405180910390a35050565b8173ffffffffffffffffffffffffffffffffffffffff168373ffffffffffffffffffffffffffffffffffffffff16141561251e576040517f08c379a0000000000000000000000000000000000000000000000000000000008152600401612515906143a0565b60405180910390fd5b80600560008573ffffffffffffffffffffffffffffffffffffffff1673ffffffffffffffffffffffffffffffffffffffff16815260200190815260200160002060008473ffffffffffffffffffffffffffffffffffffffff1673ffffffffffffffffffffffffffffffffffffffff16815260200190815260200160002060006101000a81548160ff0219169083151502179055508173ffffffffffffffffffffffffffffffffffffffff168373ffffffffffffffffffffffffffffffffffffffff167f17307eab39ab6107e8899845ad3d59bd9653f200f220920489ca2b5937696c318360405161260f919061425a565b60405180910390a3505050565b612627848484611c56565b6126338484848461296f565b612672576040517f08c379a0000000000000000000000000000000000000000000000000000000008152600401612669906142d2565b60405180910390fd5b50505050565b606061268382611a4b565b6126c2576040517f08c379a00000000000000000000000000000000000000000000000000000000081526004016126b9906144a0565b60405180910390fd5b6000600a600084815260200190815260200160002080546126e2906148e6565b80601f016020809104026020016040519081016040528092919081815260200182805461270e906148e6565b801561275b5780601f106127305761010080835404028352916020019161275b565b820191906000526020600020905b81548152906001019060200180831161273e57829003601f168201915b50505050509050600061276c612b06565b90506000815114156127825781925050506127c5565b6000825111156127b757808260405160200161279f92919061418b565b604051602081830303815290604052925050506127c5565b6127c084612b43565b925050505b919050565b60007f80ac58cd000000000000000000000000000000000000000000000000000000007bffffffffffffffffffffffffffffffffffffffffffffffffffffffff1916827bffffffffffffffffffffffffffffffffffffffffffffffffffffffff1916148061289557507f5b5e139f000000000000000000000000000000000000000000000000000000007bffffffffffffffffffffffffffffffffffffffffffffffffffffffff1916827bffffffffffffffffffffffffffffffffffffffffffffffffffffffff1916145b806128a557506128a482612bea565b5b9050919050565b6128b7838383612c54565b505050565b505050565b6128ca81612d68565b6000600a600083815260200190815260200160002080546128ea906148e6565b90501461291157600a6000828152602001908152602001600020600061291091906136e5565b5b50565b61291e8383612e85565b61292b600084848461296f565b61296a576040517f08c379a0000000000000000000000000000000000000000000000000000000008152600401612961906142d2565b60405180910390fd5b505050565b60006129908473ffffffffffffffffffffffffffffffffffffffff1661305f565b15612af9578373ffffffffffffffffffffffffffffffffffffffff1663150b7a026129b9611ab7565b8786866040518563ffffffff1660e01b81526004016129db94939291906141ca565b602060405180830381600087803b1580156129f557600080fd5b505af1925050508015612a2657506040513d601f19601f82011682018060405250810190612a239190613a0d565b60015b612aa9573d8060008114612a56576040519150601f19603f3d011682016040523d82523d6000602084013e612a5b565b606091505b50600081511415612aa1576040517f08c379a0000000000000000000000000000000000000000000000000000000008152600401612a98906142d2565b60405180910390fd5b805181602001fd5b63150b7a0260e01b7bffffffffffffffffffffffffffffffffffffffffffffffffffffffff1916817bffffffffffffffffffffffffffffffffffffffffffffffffffffffff191614915050612afe565b600190505b949350505050565b60606040518060400160405280601581526020017f68747470733a2f2f697066732e696f2f697066732f0000000000000000000000815250905090565b6060612b4e82611a4b565b612b8d576040517f08c379a0000000000000000000000000000000000000000000000000000000008152600401612b8490614500565b60405180910390fd5b6000612b97612b06565b90506000815111612bb75760405180602001604052806000815250612be2565b80612bc184613082565b604051602001612bd292919061418b565b6040516020818303038152906040525b915050919050565b60007f01ffc9a7000000000000000000000000000000000000000000000000000000007bffffffffffffffffffffffffffffffffffffffffffffffffffffffff1916827bffffffffffffffffffffffffffffffffffffffffffffffffffffffff1916149050919050565b612c5f83838361322f565b600073ffffffffffffffffffffffffffffffffffffffff168373ffffffffffffffffffffffffffffffffffffffff161415612ca257612c9d81613234565b612ce1565b8173ffffffffffffffffffffffffffffffffffffffff168373ffffffffffffffffffffffffffffffffffffffff1614612ce057612cdf838261327d565b5b5b600073ffffffffffffffffffffffffffffffffffffffff168273ffffffffffffffffffffffffffffffffffffffff161415612d2457612d1f816133ea565b612d63565b8273ffffffffffffffffffffffffffffffffffffffff168273ffffffffffffffffffffffffffffffffffffffff1614612d6257612d61828261352d565b5b5b505050565b6000612d7382610ddf565b9050612d81816000846128ac565b612d8c600083611abf565b6001600360008373ffffffffffffffffffffffffffffffffffffffff1673ffffffffffffffffffffffffffffffffffffffff1681526020019081526020016000206000828254612ddc91906147ca565b925050819055506002600083815260200190815260200160002060006101000a81549073ffffffffffffffffffffffffffffffffffffffff021916905581600073ffffffffffffffffffffffffffffffffffffffff168273ffffffffffffffffffffffffffffffffffffffff167fddf252ad1be2c89b69c2b068fc378daa952ba7f163c4a11628f55a4df523b3ef60405160405180910390a4612e81816000846128bc565b5050565b600073ffffffffffffffffffffffffffffffffffffffff168273ffffffffffffffffffffffffffffffffffffffff161415612ef5576040517f08c379a0000000000000000000000000000000000000000000000000000000008152600401612eec90614460565b60405180910390fd5b612efe81611a4b565b15612f3e576040517f08c379a0000000000000000000000000000000000000000000000000000000008152600401612f3590614332565b60405180910390fd5b612f4a600083836128ac565b6001600360008473ffffffffffffffffffffffffffffffffffffffff1673ffffffffffffffffffffffffffffffffffffffff1681526020019081526020016000206000828254612f9a9190614743565b92505081905550816002600083815260200190815260200160002060006101000a81548173ffffffffffffffffffffffffffffffffffffffff021916908373ffffffffffffffffffffffffffffffffffffffff160217905550808273ffffffffffffffffffffffffffffffffffffffff16600073ffffffffffffffffffffffffffffffffffffffff167fddf252ad1be2c89b69c2b068fc378daa952ba7f163c4a11628f55a4df523b3ef60405160405180910390a461305b600083836128bc565b5050565b6000808273ffffffffffffffffffffffffffffffffffffffff163b119050919050565b606060008214156130ca576040518060400160405280600181526020017f3000000000000000000000000000000000000000000000000000000000000000815250905061322a565b600082905060005b600082146130fc5780806130e590614949565b915050600a826130f59190614799565b91506130d2565b60008167ffffffffffffffff81111561313e577f4e487b7100000000000000000000000000000000000000000000000000000000600052604160045260246000fd5b6040519080825280601f01601f1916602001820160405280156131705781602001600182028036833780820191505090505b5090505b600085146132235760018261318991906147ca565b9150600a8561319891906149bc565b60306131a49190614743565b60f81b8183815181106131e0577f4e487b7100000000000000000000000000000000000000000000000000000000600052603260045260246000fd5b60200101907effffffffffffffffffffffffffffffffffffffffffffffffffffffffffffff1916908160001a905350600a8561321c9190614799565b9450613174565b8093505050505b919050565b505050565b6008805490506009600083815260200190815260200160002081905550600881908060018154018082558091505060019003906000526020600020016000909190919091505550565b6000600161328a84611291565b61329491906147ca565b9050600060076000848152602001908152602001600020549050818114613379576000600660008673ffffffffffffffffffffffffffffffffffffffff1673ffffffffffffffffffffffffffffffffffffffff168152602001908152602001600020600084815260200190815260200160002054905080600660008773ffffffffffffffffffffffffffffffffffffffff1673ffffffffffffffffffffffffffffffffffffffff168152602001908152602001600020600084815260200190815260200160002081905550816007600083815260200190815260200160002081905550505b6007600084815260200190815260200160002060009055600660008573ffffffffffffffffffffffffffffffffffffffff1673ffffffffffffffffffffffffffffffffffffffff16815260200190815260200160002060008381526020019081526020016000206000905550505050565b600060016008805490506133fe91906147ca565b9050600060096000848152602001908152602001600020549050600060088381548110613454577f4e487b7100000000000000000000000000000000000000000000000000000000600052603260045260246000fd5b90600052602060002001549050806008838154811061349c577f4e487b7100000000000000000000000000000000000000000000000000000000600052603260045260246000fd5b906000526020600020018190555081600960008381526020019081526020016000208190555060096000858152602001908152602001600020600090556008805480613511577f4e487b7100000000000000000000000000000000000000000000000000000000600052603160045260246000fd5b6001900381819060005260206000200160009055905550505050565b600061353883611291565b905081600660008573ffffffffffffffffffffffffffffffffffffffff1673ffffffffffffffffffffffffffffffffffffffff168152602001908152602001600020600083815260200190815260200160002081905550806007600084815260200190815260200160002081905550505050565b6040518060e0016040528060008152602001600060028111156135f8577f4e487b7100000000000000000000000000000000000000000000000000000000600052602160045260246000fd5b815260200160008152602001600081526020016060815260200160008152602001600073ffffffffffffffffffffffffffffffffffffffff1681525090565b828054613643906148e6565b90600052602060002090601f01602090048101928261366557600085556136ac565b82601f1061367e57805160ff19168380011785556136ac565b828001600101855582156136ac579182015b828111156136ab578251825591602001919060010190613690565b5b5090506136b99190613725565b5090565b6040518060800160405280600081526020016000815260200160008152602001606081525090565b5080546136f1906148e6565b6000825580601f106137035750613722565b601f0160209004906000526020600020908101906137219190613725565b5b50565b5b8082111561373e576000816000905550600101613726565b5090565b60006137556137508461464c565b614627565b90508281526020810184848401111561376d57600080fd5b6137788482856148a4565b509392505050565b60008135905061378f81615181565b92915050565b6000813590506137a481615198565b92915050565b6000813590506137b9816151af565b92915050565b6000815190506137ce816151af565b92915050565b600082601f8301126137e557600080fd5b81356137f5848260208601613742565b91505092915050565b60008135905061380d816151c6565b92915050565b600081359050613822816151d6565b92915050565b600081359050613837816151ed565b92915050565b60006020828403121561384f57600080fd5b600061385d84828501613780565b91505092915050565b6000806040838503121561387957600080fd5b600061388785828601613780565b925050602061389885828601613780565b9150509250929050565b6000806000606084860312156138b757600080fd5b60006138c586828701613780565b93505060206138d686828701613780565b92505060406138e786828701613813565b9150509250925092565b6000806000806080858703121561390757600080fd5b600061391587828801613780565b945050602061392687828801613780565b935050604061393787828801613813565b925050606085013567ffffffffffffffff81111561395457600080fd5b613960878288016137d4565b91505092959194509250565b6000806040838503121561397f57600080fd5b600061398d85828601613780565b925050602061399e85828601613795565b9150509250929050565b600080604083850312156139bb57600080fd5b60006139c985828601613780565b92505060206139da85828601613813565b9150509250929050565b6000602082840312156139f657600080fd5b6000613a04848285016137aa565b91505092915050565b600060208284031215613a1f57600080fd5b6000613a2d848285016137bf565b91505092915050565b600060208284031215613a4857600080fd5b6000613a56848285016137fe565b91505092915050565b600060208284031215613a7157600080fd5b6000613a7f84828501613813565b91505092915050565b60008060408385031215613a9b57600080fd5b6000613aa985828601613813565b9250506020613aba85828601613828565b9150509250929050565b600060208284031215613ad657600080fd5b6000613ae484828501613828565b91505092915050565b6000613af9838361406e565b905092915050565b6000613b0d83836140d1565b905092915050565b613b1e816147fe565b82525050565b613b2d816147fe565b82525050565b6000613b3e8261469d565b613b4881856146e3565b935083602082028501613b5a8561467d565b8060005b85811015613b965784840389528151613b778582613aed565b9450613b82836146c9565b925060208a01995050600181019050613b5e565b50829750879550505050505092915050565b6000613bb3826146a8565b613bbd81856146f4565b935083602082028501613bcf8561468d565b8060005b85811015613c0b5784840389528151613bec8582613b01565b9450613bf7836146d6565b925060208a01995050600181019050613bd3565b50829750879550505050505092915050565b613c2681614810565b82525050565b6000613c37826146b3565b613c418185614705565b9350613c518185602086016148b3565b613c5a81614ad8565b840191505092915050565b613c6e81614892565b82525050565b613c7d81614892565b82525050565b6000613c8e826146be565b613c988185614716565b9350613ca88185602086016148b3565b613cb181614ad8565b840191505092915050565b6000613cc7826146be565b613cd18185614727565b9350613ce18185602086016148b3565b613cea81614ad8565b840191505092915050565b6000613d00826146be565b613d0a8185614738565b9350613d1a8185602086016148b3565b80840191505092915050565b6000613d33602b83614727565b9150613d3e82614ae9565b604082019050919050565b6000613d56603283614727565b9150613d6182614b38565b604082019050919050565b6000613d79602683614727565b9150613d8482614b87565b604082019050919050565b6000613d9c602583614727565b9150613da782614bd6565b604082019050919050565b6000613dbf601c83614727565b9150613dca82614c25565b602082019050919050565b6000613de2603083614727565b9150613ded82614c4e565b604082019050919050565b6000613e05602483614727565b9150613e1082614c9d565b604082019050919050565b6000613e28601983614727565b9150613e3382614cec565b602082019050919050565b6000613e4b602c83614727565b9150613e5682614d15565b604082019050919050565b6000613e6e603883614727565b9150613e7982614d64565b604082019050919050565b6000613e91602a83614727565b9150613e9c82614db3565b604082019050919050565b6000613eb4602983614727565b9150613ebf82614e02565b604082019050919050565b6000613ed7602e83614727565b9150613ee282614e51565b604082019050919050565b6000613efa602083614727565b9150613f0582614ea0565b602082019050919050565b6000613f1d602083614727565b9150613f2882614ec9565b602082019050919050565b6000613f40603183614727565b9150613f4b82614ef2565b604082019050919050565b6000613f63602c83614727565b9150613f6e82614f41565b604082019050919050565b6000613f86602083614727565b9150613f9182614f90565b602082019050919050565b6000613fa9602f83614727565b9150613fb482614fb9565b604082019050919050565b6000613fcc602183614727565b9150613fd782615008565b604082019050919050565b6000613fef601483614727565b9150613ffa82615057565b602082019050919050565b6000614012603183614727565b915061401d82615080565b604082019050919050565b6000614035602c83614727565b9150614040826150cf565b604082019050919050565b6000614058603083614727565b91506140638261511e565b604082019050919050565b6000608083016000830151614086600086018261416d565b506020830151614099602086018261416d565b5060408301516140ac604086018261416d565b50606083015184820360608601526140c48282613c83565b9150508091505092915050565b600060e0830160008301516140e9600086018261416d565b5060208301516140fc6020860182613c65565b50604083015161410f604086018261416d565b506060830151614122606086018261416d565b506080830151848203608086015261413a8282613c83565b91505060a083015161414f60a086018261416d565b5060c083015161416260c0860182613b15565b508091505092915050565b6141768161487b565b82525050565b6141858161487b565b82525050565b60006141978285613cf5565b91506141a38284613cf5565b91508190509392505050565b60006020820190506141c46000830184613b24565b92915050565b60006080820190506141df6000830187613b24565b6141ec6020830186613b24565b6141f9604083018561417c565b818103606083015261420b8184613c2c565b905095945050505050565b600060208201905081810360008301526142308184613b33565b905092915050565b600060208201905081810360008301526142528184613ba8565b905092915050565b600060208201905061426f6000830184613c1d565b92915050565b600060208201905061428a6000830184613c74565b92915050565b600060208201905081810360008301526142aa8184613cbc565b905092915050565b600060208201905081810360008301526142cb81613d26565b9050919050565b600060208201905081810360008301526142eb81613d49565b9050919050565b6000602082019050818103600083015261430b81613d6c565b9050919050565b6000602082019050818103600083015261432b81613d8f565b9050919050565b6000602082019050818103600083015261434b81613db2565b9050919050565b6000604082019050818103600083015261436b81613dd5565b905061437a602083018461417c565b92915050565b6000602082019050818103600083015261439981613df8565b9050919050565b600060208201905081810360008301526143b981613e1b565b9050919050565b600060208201905081810360008301526143d981613e3e565b9050919050565b600060208201905081810360008301526143f981613e61565b9050919050565b6000602082019050818103600083015261441981613e84565b9050919050565b6000602082019050818103600083015261443981613ea7565b9050919050565b6000602082019050818103600083015261445981613eca565b9050919050565b6000602082019050818103600083015261447981613eed565b9050919050565b6000602082019050818103600083015261449981613f10565b9050919050565b600060208201905081810360008301526144b981613f33565b9050919050565b600060208201905081810360008301526144d981613f56565b9050919050565b600060208201905081810360008301526144f981613f79565b9050919050565b6000602082019050818103600083015261451981613f9c565b9050919050565b6000602082019050818103600083015261453981613fbf565b9050919050565b6000602082019050818103600083015261455981613fe2565b9050919050565b6000602082019050818103600083015261457981614005565b9050919050565b6000602082019050818103600083015261459981614028565b9050919050565b600060208201905081810360008301526145b98161404b565b9050919050565b60006020820190506145d5600083018461417c565b92915050565b60006080820190506145f0600083018761417c565b6145fd602083018661417c565b61460a604083018561417c565b818103606083015261461c8184613cbc565b905095945050505050565b6000614631614642565b905061463d8282614918565b919050565b6000604051905090565b600067ffffffffffffffff82111561466757614666614aa9565b5b61467082614ad8565b9050602081019050919050565b6000819050602082019050919050565b6000819050602082019050919050565b600081519050919050565b600081519050919050565b600081519050919050565b600081519050919050565b6000602082019050919050565b6000602082019050919050565b600082825260208201905092915050565b600082825260208201905092915050565b600082825260208201905092915050565b600082825260208201905092915050565b600082825260208201905092915050565b600081905092915050565b600061474e8261487b565b91506147598361487b565b9250827fffffffffffffffffffffffffffffffffffffffffffffffffffffffffffffffff0382111561478e5761478d6149ed565b5b828201905092915050565b60006147a48261487b565b91506147af8361487b565b9250826147bf576147be614a1c565b5b828204905092915050565b60006147d58261487b565b91506147e08361487b565b9250828210156147f3576147f26149ed565b5b828203905092915050565b60006148098261485b565b9050919050565b60008115159050919050565b60007fffffffff0000000000000000000000000000000000000000000000000000000082169050919050565b60008190506148568261516d565b919050565b600073ffffffffffffffffffffffffffffffffffffffff82169050919050565b6000819050919050565b600060ff82169050919050565b600061489d82614848565b9050919050565b82818337600083830152505050565b60005b838110156148d15780820151818401526020810190506148b6565b838111156148e0576000848401525b50505050565b600060028204905060018216806148fe57607f821691505b6020821081141561491257614911614a7a565b5b50919050565b61492182614ad8565b810181811067ffffffffffffffff821117156149405761493f614aa9565b5b80604052505050565b60006149548261487b565b91507fffffffffffffffffffffffffffffffffffffffffffffffffffffffffffffffff821415614987576149866149ed565b5b600182019050919050565b600061499d82614885565b915060ff8214156149b1576149b06149ed565b5b600182019050919050565b60006149c78261487b565b91506149d28361487b565b9250826149e2576149e1614a1c565b5b828206905092915050565b7f4e487b7100000000000000000000000000000000000000000000000000000000600052601160045260246000fd5b7f4e487b7100000000000000000000000000000000000000000000000000000000600052601260045260246000fd5b7f4e487b7100000000000000000000000000000000000000000000000000000000600052602160045260246000fd5b7f4e487b7100000000000000000000000000000000000000000000000000000000600052602260045260246000fd5b7f4e487b7100000000000000000000000000000000000000000000000000000000600052604160045260246000fd5b6000601f19601f8301169050919050565b7f455243373231456e756d657261626c653a206f776e657220696e646578206f7560008201527f74206f6620626f756e6473000000000000000000000000000000000000000000602082015250565b7f4552433732313a207472616e7366657220746f206e6f6e20455243373231526560008201527f63656976657220696d706c656d656e7465720000000000000000000000000000602082015250565b7f4f776e61626c653a206e6577206f776e657220697320746865207a65726f206160008201527f6464726573730000000000000000000000000000000000000000000000000000602082015250565b7f4552433732313a207472616e736665722066726f6d20696e636f72726563742060008201527f6f776e6572000000000000000000000000000000000000000000000000000000602082015250565b7f4552433732313a20746f6b656e20616c7265616479206d696e74656400000000600082015250565b7f596f752063616e2774206d696e74206c616e6473206f6620746869732074797060008201527f652c206c696d6974207265616368656400000000000000000000000000000000602082015250565b7f4552433732313a207472616e7366657220746f20746865207a65726f2061646460008201527f7265737300000000000000000000000000000000000000000000000000000000602082015250565b7f4552433732313a20617070726f766520746f2063616c6c657200000000000000600082015250565b7f4552433732313a206f70657261746f7220717565727920666f72206e6f6e657860008201527f697374656e7420746f6b656e0000000000000000000000000000000000000000602082015250565b7f4552433732313a20617070726f76652063616c6c6572206973206e6f74206f7760008201527f6e6572206e6f7220617070726f76656420666f7220616c6c0000000000000000602082015250565b7f4552433732313a2062616c616e636520717565727920666f7220746865207a6560008201527f726f206164647265737300000000000000000000000000000000000000000000602082015250565b7f4552433732313a206f776e657220717565727920666f72206e6f6e657869737460008201527f656e7420746f6b656e0000000000000000000000000000000000000000000000602082015250565b7f45524337323155524953746f726167653a2055524920736574206f66206e6f6e60008201527f6578697374656e7420746f6b656e000000000000000000000000000000000000602082015250565b7f4552433732313a206d696e7420746f20746865207a65726f2061646472657373600082015250565b7f596f752063616e206d696e74206a757374206f6e6520536d616c6c204c616e64600082015250565b7f45524337323155524953746f726167653a2055524920717565727920666f722060008201527f6e6f6e6578697374656e7420746f6b656e000000000000000000000000000000602082015250565b7f4552433732313a20617070726f76656420717565727920666f72206e6f6e657860008201527f697374656e7420746f6b656e0000000000000000000000000000000000000000602082015250565b7f4f776e61626c653a2063616c6c6572206973206e6f7420746865206f776e6572600082015250565b7f4552433732314d657461646174613a2055524920717565727920666f72206e6f60008201527f6e6578697374656e7420746f6b656e0000000000000000000000000000000000602082015250565b7f4552433732313a20617070726f76616c20746f2063757272656e74206f776e6560008201527f7200000000000000000000000000000000000000000000000000000000000000602082015250565b7f57726f6e67206465706f73697420616d6f756e74000000000000000000000000600082015250565b7f4552433732313a207472616e736665722063616c6c6572206973206e6f74206f60008201527f776e6572206e6f7220617070726f766564000000000000000000000000000000602082015250565b7f455243373231456e756d657261626c653a20676c6f62616c20696e646578206f60008201527f7574206f6620626f756e64730000000000000000000000000000000000000000602082015250565b7f4552433732314275726e61626c653a2063616c6c6572206973206e6f74206f7760008201527f6e6572206e6f7220617070726f76656400000000000000000000000000000000602082015250565b6003811061517e5761517d614a4b565b5b50565b61518a816147fe565b811461519557600080fd5b50565b6151a181614810565b81146151ac57600080fd5b50565b6151b88161481c565b81146151c357600080fd5b50565b600381106151d357600080fd5b50565b6151df8161487b565b81146151ea57600080fd5b50565b6151f681614885565b811461520157600080fd5b5056fea2646970667358221220ff6698c92052a646d463e022f600367d027f7ea33cb1e8e23730ca88a5fa5efd64736f6c634300080400336261666b7265696876636f72616978647978366a62726c6d6c667734357073726a6c6b77656d703769653377636b79653766726e796862646e6f696261666b72656967657a7566696837676d763664367866626d3361636b62767378786277356d70726c74336878356b767465376b6a6b6261786a756261666b72656965707a726d776365717535753662356478326a64727232767135756a6568696275347633327a64787267346a64677473326f7a71",
  "linkReferences": {},
  "deployedLinkReferences": {}
}