{
  "_format": "hh-sol-artifact-1",
  "contractName": "LandNFT",
  "sourceName": "src/backend/contracts/LandNFT.sol",
  "abi": [
    {
      "inputs": [
        {
          "internalType": "address",
          "name": "_contractMain",
          "type": "address"
        }
      ],
      "stateMutability": "nonpayable",
      "type": "constructor"
    },
    {
      "inputs": [
        {
          "internalType": "string",
          "name": "message",
          "type": "string"
        },
        {
          "internalType": "uint256",
          "name": "limit",
          "type": "uint256"
        }
      ],
      "name": "LandsLimitError",
      "type": "error"
    },
    {
      "inputs": [
        {
          "internalType": "string",
          "name": "message",
          "type": "string"
        }
      ],
      "name": "LandsSmallLimitError",
      "type": "error"
    },
    {
      "anonymous": false,
      "inputs": [
        {
          "indexed": true,
          "internalType": "address",
          "name": "owner",
          "type": "address"
        },
        {
          "indexed": true,
          "internalType": "address",
          "name": "approved",
          "type": "address"
        },
        {
          "indexed": true,
          "internalType": "uint256",
          "name": "tokenId",
          "type": "uint256"
        }
      ],
      "name": "Approval",
      "type": "event"
    },
    {
      "anonymous": false,
      "inputs": [
        {
          "indexed": true,
          "internalType": "address",
          "name": "owner",
          "type": "address"
        },
        {
          "indexed": true,
          "internalType": "address",
          "name": "operator",
          "type": "address"
        },
        {
          "indexed": false,
          "internalType": "bool",
          "name": "approved",
          "type": "bool"
        }
      ],
      "name": "ApprovalForAll",
      "type": "event"
    },
    {
      "anonymous": false,
      "inputs": [
        {
          "indexed": true,
          "internalType": "address",
          "name": "previousOwner",
          "type": "address"
        },
        {
          "indexed": true,
          "internalType": "address",
          "name": "newOwner",
          "type": "address"
        }
      ],
      "name": "OwnershipTransferred",
      "type": "event"
    },
    {
      "anonymous": false,
      "inputs": [
        {
          "indexed": true,
          "internalType": "address",
          "name": "from",
          "type": "address"
        },
        {
          "indexed": true,
          "internalType": "address",
          "name": "to",
          "type": "address"
        },
        {
          "indexed": true,
          "internalType": "uint256",
          "name": "tokenId",
          "type": "uint256"
        }
      ],
      "name": "Transfer",
      "type": "event"
    },
    {
      "inputs": [
        {
          "internalType": "address",
          "name": "to",
          "type": "address"
        },
        {
          "internalType": "uint256",
          "name": "tokenId",
          "type": "uint256"
        }
      ],
      "name": "approve",
      "outputs": [],
      "stateMutability": "nonpayable",
      "type": "function"
    },
    {
      "inputs": [
        {
          "internalType": "address",
          "name": "owner",
          "type": "address"
        }
      ],
      "name": "balanceOf",
      "outputs": [
        {
          "internalType": "uint256",
          "name": "",
          "type": "uint256"
        }
      ],
      "stateMutability": "view",
      "type": "function"
    },
    {
      "inputs": [
        {
          "internalType": "uint256",
          "name": "tokenId",
          "type": "uint256"
        }
      ],
      "name": "burn",
      "outputs": [],
      "stateMutability": "nonpayable",
      "type": "function"
    },
    {
      "inputs": [],
      "name": "getAllLands",
      "outputs": [
        {
          "components": [
            {
              "internalType": "uint256",
              "name": "price",
              "type": "uint256"
            },
            {
              "internalType": "uint256",
              "name": "limitCount",
              "type": "uint256"
            },
            {
              "internalType": "uint8",
              "name": "zombiesPerDay",
              "type": "uint8"
            },
            {
              "internalType": "string",
              "name": "media",
              "type": "string"
            }
          ],
          "internalType": "struct LandNFT.LandTypeData[]",
          "name": "",
          "type": "tuple[]"
        }
      ],
      "stateMutability": "view",
      "type": "function"
    },
    {
      "inputs": [
        {
          "internalType": "uint256",
          "name": "tokenId",
          "type": "uint256"
        }
      ],
      "name": "getApproved",
      "outputs": [
        {
          "internalType": "address",
          "name": "",
          "type": "address"
        }
      ],
      "stateMutability": "view",
      "type": "function"
    },
    {
      "inputs": [
        {
          "internalType": "uint256",
          "name": "landId",
          "type": "uint256"
        }
      ],
      "name": "getLandMintZombiesCount",
      "outputs": [
        {
          "internalType": "uint8",
          "name": "",
          "type": "uint8"
        }
      ],
      "stateMutability": "view",
      "type": "function"
    },
    {
      "inputs": [
        {
          "internalType": "address",
          "name": "owner",
          "type": "address"
        },
        {
          "internalType": "address",
          "name": "operator",
          "type": "address"
        }
      ],
      "name": "isApprovedForAll",
      "outputs": [
        {
          "internalType": "bool",
          "name": "",
          "type": "bool"
        }
      ],
      "stateMutability": "view",
      "type": "function"
    },
    {
      "inputs": [
        {
          "internalType": "uint256",
          "name": "landId",
          "type": "uint256"
        }
      ],
      "name": "landSetMintTimestamp",
      "outputs": [],
      "stateMutability": "nonpayable",
      "type": "function"
    },
    {
      "inputs": [
        {
          "internalType": "enum LandNFT.LandType",
          "name": "",
          "type": "uint8"
        }
      ],
      "name": "landTypeCount",
      "outputs": [
        {
          "internalType": "uint256",
          "name": "",
          "type": "uint256"
        }
      ],
      "stateMutability": "view",
      "type": "function"
    },
    {
      "inputs": [
        {
          "internalType": "enum LandNFT.LandType",
          "name": "",
          "type": "uint8"
        }
      ],
      "name": "landTypeData",
      "outputs": [
        {
          "internalType": "uint256",
          "name": "price",
          "type": "uint256"
        },
        {
          "internalType": "uint256",
          "name": "limitCount",
          "type": "uint256"
        },
        {
          "internalType": "uint8",
          "name": "zombiesPerDay",
          "type": "uint8"
        },
        {
          "internalType": "string",
          "name": "media",
          "type": "string"
        }
      ],
      "stateMutability": "view",
      "type": "function"
    },
    {
      "inputs": [
        {
          "internalType": "uint8",
          "name": "",
          "type": "uint8"
        }
      ],
      "name": "landTypeIndex",
      "outputs": [
        {
          "internalType": "enum LandNFT.LandType",
          "name": "",
          "type": "uint8"
        }
      ],
      "stateMutability": "view",
      "type": "function"
    },
    {
      "inputs": [],
      "name": "name",
      "outputs": [
        {
          "internalType": "string",
          "name": "",
          "type": "string"
        }
      ],
      "stateMutability": "view",
      "type": "function"
    },
    {
      "inputs": [],
      "name": "owner",
      "outputs": [
        {
          "internalType": "address",
          "name": "",
          "type": "address"
        }
      ],
      "stateMutability": "view",
      "type": "function"
    },
    {
      "inputs": [
        {
          "internalType": "uint256",
          "name": "tokenId",
          "type": "uint256"
        }
      ],
      "name": "ownerOf",
      "outputs": [
        {
          "internalType": "address",
          "name": "",
          "type": "address"
        }
      ],
      "stateMutability": "view",
      "type": "function"
    },
    {
      "inputs": [],
      "name": "renounceOwnership",
      "outputs": [],
      "stateMutability": "nonpayable",
      "type": "function"
    },
    {
      "inputs": [],
      "name": "safeMint",
      "outputs": [
        {
          "internalType": "uint256",
          "name": "",
          "type": "uint256"
        }
      ],
      "stateMutability": "payable",
      "type": "function"
    },
    {
      "inputs": [
        {
          "internalType": "address",
          "name": "from",
          "type": "address"
        },
        {
          "internalType": "address",
          "name": "to",
          "type": "address"
        },
        {
          "internalType": "uint256",
          "name": "tokenId",
          "type": "uint256"
        }
      ],
      "name": "safeTransferFrom",
      "outputs": [],
      "stateMutability": "nonpayable",
      "type": "function"
    },
    {
      "inputs": [
        {
          "internalType": "address",
          "name": "from",
          "type": "address"
        },
        {
          "internalType": "address",
          "name": "to",
          "type": "address"
        },
        {
          "internalType": "uint256",
          "name": "tokenId",
          "type": "uint256"
        },
        {
          "internalType": "bytes",
          "name": "_data",
          "type": "bytes"
        }
      ],
      "name": "safeTransferFrom",
      "outputs": [],
      "stateMutability": "nonpayable",
      "type": "function"
    },
    {
      "inputs": [
        {
          "internalType": "address",
          "name": "operator",
          "type": "address"
        },
        {
          "internalType": "bool",
          "name": "approved",
          "type": "bool"
        }
      ],
      "name": "setApprovalForAll",
      "outputs": [],
      "stateMutability": "nonpayable",
      "type": "function"
    },
    {
      "inputs": [
        {
          "internalType": "bytes4",
          "name": "_interfaceId",
          "type": "bytes4"
        }
      ],
      "name": "supportsInterface",
      "outputs": [
        {
          "internalType": "bool",
          "name": "",
          "type": "bool"
        }
      ],
      "stateMutability": "view",
      "type": "function"
    },
    {
      "inputs": [],
      "name": "symbol",
      "outputs": [
        {
          "internalType": "string",
          "name": "",
          "type": "string"
        }
      ],
      "stateMutability": "view",
      "type": "function"
    },
    {
      "inputs": [
        {
          "internalType": "uint256",
          "name": "index",
          "type": "uint256"
        }
      ],
      "name": "tokenByIndex",
      "outputs": [
        {
          "internalType": "uint256",
          "name": "",
          "type": "uint256"
        }
      ],
      "stateMutability": "view",
      "type": "function"
    },
    {
      "inputs": [
        {
          "internalType": "address",
          "name": "owner",
          "type": "address"
        },
        {
          "internalType": "uint256",
          "name": "index",
          "type": "uint256"
        }
      ],
      "name": "tokenOfOwnerByIndex",
      "outputs": [
        {
          "internalType": "uint256",
          "name": "",
          "type": "uint256"
        }
      ],
      "stateMutability": "view",
      "type": "function"
    },
    {
      "inputs": [
        {
          "internalType": "uint256",
          "name": "_tokenId",
          "type": "uint256"
        }
      ],
      "name": "tokenURI",
      "outputs": [
        {
          "internalType": "string",
          "name": "",
          "type": "string"
        }
      ],
      "stateMutability": "view",
      "type": "function"
    },
    {
      "inputs": [],
      "name": "totalSupply",
      "outputs": [
        {
          "internalType": "uint256",
          "name": "",
          "type": "uint256"
        }
      ],
      "stateMutability": "view",
      "type": "function"
    },
    {
      "inputs": [
        {
          "internalType": "address",
          "name": "from",
          "type": "address"
        },
        {
          "internalType": "address",
          "name": "to",
          "type": "address"
        },
        {
          "internalType": "uint256",
          "name": "tokenId",
          "type": "uint256"
        }
      ],
      "name": "transferFrom",
      "outputs": [],
      "stateMutability": "nonpayable",
      "type": "function"
    },
    {
      "inputs": [
        {
          "internalType": "address",
          "name": "newOwner",
          "type": "address"
        }
      ],
      "name": "transferOwnership",
      "outputs": [],
      "stateMutability": "nonpayable",
      "type": "function"
    },
    {
      "inputs": [],
      "name": "userLands",
      "outputs": [
        {
          "components": [
            {
              "internalType": "uint256",
              "name": "tokenId",
              "type": "uint256"
            },
            {
              "internalType": "enum LandNFT.LandType",
              "name": "landType",
              "type": "uint8"
            },
            {
              "internalType": "uint256",
              "name": "lastZombieClaim",
              "type": "uint256"
            },
            {
              "internalType": "uint256",
              "name": "salePrice",
              "type": "uint256"
            },
            {
              "internalType": "string",
              "name": "media",
              "type": "string"
            },
            {
              "internalType": "string",
              "name": "nftType",
              "type": "string"
            },
            {
              "internalType": "uint256",
              "name": "discoverEvents",
              "type": "uint256"
            },
            {
              "internalType": "address",
              "name": "ownerId",
              "type": "address"
            }
          ],
          "internalType": "struct LandNFT.Land[]",
          "name": "",
          "type": "tuple[]"
        }
      ],
      "stateMutability": "view",
      "type": "function"
    }
  ],
  "bytecode": "0x60806040523480156200001157600080fd5b5060405162005ee338038062005ee383398181016040528101906200003791906200076e565b6040518060400160405280600781526020017f5a6f6d4c616e64000000000000000000000000000000000000000000000000008152506040518060400160405280600481526020017f5a4d4c4c000000000000000000000000000000000000000000000000000000008152508160009080519060200190620000bb929190620006a7565b508060019080519060200190620000d4929190620006a7565b505050620000f7620000eb620005d960201b60201c565b620005e160201b60201c565b80600d60006101000a81548173ffffffffffffffffffffffffffffffffffffffff021916908373ffffffffffffffffffffffffffffffffffffffff1602179055506000600e60008060ff16815260200190815260200160002060006101000a81548160ff0219169083600281111562000199577f4e487b7100000000000000000000000000000000000000000000000000000000600052602160045260246000fd5b02179055506001600e6000600160ff16815260200190815260200160002060006101000a81548160ff0219169083600281111562000200577f4e487b7100000000000000000000000000000000000000000000000000000000600052602160045260246000fd5b02179055506002600e6000600260ff16815260200190815260200160002060006101000a81548160ff0219169083600281111562000267577f4e487b7100000000000000000000000000000000000000000000000000000000600052602160045260246000fd5b021790555060405180608001604052806000815260200161ea5f8152602001600160ff1681526020016040518060600160405280603b815260200162005e32603b913981525060106000806002811115620002eb577f4e487b7100000000000000000000000000000000000000000000000000000000600052602160045260246000fd5b600281111562000324577f4e487b7100000000000000000000000000000000000000000000000000000000600052602160045260246000fd5b8152602001908152602001600020600082015181600001556020820151816001015560408201518160020160006101000a81548160ff021916908360ff160217905550606082015181600301908051906020019062000385929190620006a7565b509050506040518060800160405280674563918244f40000815260200161176f8152602001600460ff1681526020016040518060600160405280603b815260200162005ea8603b9139815250601060006001600281111562000410577f4e487b7100000000000000000000000000000000000000000000000000000000600052602160045260246000fd5b600281111562000449577f4e487b7100000000000000000000000000000000000000000000000000000000600052602160045260246000fd5b8152602001908152602001600020600082015181600001556020820151816001015560408201518160020160006101000a81548160ff021916908360ff1602179055506060820151816003019080519060200190620004aa929190620006a7565b509050506040518060800160405280677ce66c50e284000081526020016107cf8152602001600860ff1681526020016040518060600160405280603b815260200162005e6d603b91398152506010600060028081111562000534577f4e487b7100000000000000000000000000000000000000000000000000000000600052602160045260246000fd5b60028111156200056d577f4e487b7100000000000000000000000000000000000000000000000000000000600052602160045260246000fd5b8152602001908152602001600020600082015181600001556020820151816001015560408201518160020160006101000a81548160ff021916908360ff1602179055506060820151816003019080519060200190620005ce929190620006a7565b50905050506200084d565b600033905090565b6000600b60009054906101000a900473ffffffffffffffffffffffffffffffffffffffff16905081600b60006101000a81548173ffffffffffffffffffffffffffffffffffffffff021916908373ffffffffffffffffffffffffffffffffffffffff1602179055508173ffffffffffffffffffffffffffffffffffffffff168173ffffffffffffffffffffffffffffffffffffffff167f8be0079c531659141344cd1fd0a4f28419497f9722a3daafe3b4186f6b6457e060405160405180910390a35050565b828054620006b590620007ce565b90600052602060002090601f016020900481019282620006d9576000855562000725565b82601f10620006f457805160ff191683800117855562000725565b8280016001018555821562000725579182015b828111156200072457825182559160200191906001019062000707565b5b50905062000734919062000738565b5090565b5b808211156200075357600081600090555060010162000739565b5090565b600081519050620007688162000833565b92915050565b6000602082840312156200078157600080fd5b6000620007918482850162000757565b91505092915050565b6000620007a782620007ae565b9050919050565b600073ffffffffffffffffffffffffffffffffffffffff82169050919050565b60006002820490506001821680620007e757607f821691505b60208210811415620007fe57620007fd62000804565b5b50919050565b7f4e487b7100000000000000000000000000000000000000000000000000000000600052602260045260246000fd5b6200083e816200079a565b81146200084a57600080fd5b50565b6155d5806200085d6000396000f3fe6080604052600436106101b65760003560e01c80636871ee40116100ec578063a5d6c8e91161008a578063c87b56dd11610064578063c87b56dd14610639578063e7e937b914610676578063e985e9c5146106b3578063f2fde38b146106f0576101b6565b8063a5d6c8e9146105a5578063b7b6e543146105e5578063b88d4fde14610610576101b6565b80638da5cb5b116100c65780638da5cb5b146104e957806395d89b4114610514578063a22cb4651461053f578063a2e7ccb514610568576101b6565b80636871ee401461047757806370a0823114610495578063715018a6146104d2576101b6565b806318160ddd1161015957806342842e0e1161013357806342842e0e146103ab57806342966c68146103d45780634f6ccce7146103fd5780636352211e1461043a576101b6565b806318160ddd1461031a57806323b872dd146103455780632f745c591461036e576101b6565b8063081812fc11610195578063081812fc1461024e578063095ea7b31461028b57806317300fcc146102b457806317cdd616146102f1576101b6565b80621d436a146101bb57806301ffc9a7146101e657806306fdde0314610223575b600080fd5b3480156101c757600080fd5b506101d0610719565b6040516101dd91906145b8565b60405180910390f35b3480156101f257600080fd5b5061020d60048036038101906102089190613d67565b610a68565b60405161021a91906145da565b60405180910390f35b34801561022f57600080fd5b50610238610a7a565b6040516102459190614610565b60405180910390f35b34801561025a57600080fd5b5061027560048036038101906102709190613de2565b610b0c565b604051610282919061452f565b60405180910390f35b34801561029757600080fd5b506102b260048036038101906102ad9190613d2b565b610b91565b005b3480156102c057600080fd5b506102db60048036038101906102d69190613db9565b610ca9565b6040516102e89190614940565b60405180910390f35b3480156102fd57600080fd5b5061031860048036038101906103139190613de2565b610cc1565b005b34801561032657600080fd5b5061032f610cdf565b60405161033c9190614940565b60405180910390f35b34801561035157600080fd5b5061036c60048036038101906103679190613c25565b610cec565b005b34801561037a57600080fd5b5061039560048036038101906103909190613d2b565b610d4c565b6040516103a29190614940565b60405180910390f35b3480156103b757600080fd5b506103d260048036038101906103cd9190613c25565b610df1565b005b3480156103e057600080fd5b506103fb60048036038101906103f69190613de2565b610e11565b005b34801561040957600080fd5b50610424600480360381019061041f9190613de2565b610e6d565b6040516104319190614940565b60405180910390f35b34801561044657600080fd5b50610461600480360381019061045c9190613de2565b610f04565b60405161046e919061452f565b60405180910390f35b61047f610fb6565b60405161048c9190614940565b60405180910390f35b3480156104a157600080fd5b506104bc60048036038101906104b79190613bc0565b6114e8565b6040516104c99190614940565b60405180910390f35b3480156104de57600080fd5b506104e76115a0565b005b3480156104f557600080fd5b506104fe611628565b60405161050b919061452f565b60405180910390f35b34801561052057600080fd5b50610529611652565b6040516105369190614610565b60405180910390f35b34801561054b57600080fd5b5061056660048036038101906105619190613cef565b6116e4565b005b34801561057457600080fd5b5061058f600480360381019061058a9190613e0b565b6116fa565b60405161059c91906145f5565b60405180910390f35b3480156105b157600080fd5b506105cc60048036038101906105c79190613db9565b61171a565b6040516105dc949392919061495b565b60405180910390f35b3480156105f157600080fd5b506105fa6117df565b6040516106079190614596565b60405180910390f35b34801561061c57600080fd5b5061063760048036038101906106329190613c74565b611a48565b005b34801561064557600080fd5b50610660600480360381019061065b9190613de2565b611aaa565b60405161066d9190614610565b60405180910390f35b34801561068257600080fd5b5061069d60048036038101906106989190613de2565b611abc565b6040516106aa91906149a7565b60405180910390f35b3480156106bf57600080fd5b506106da60048036038101906106d59190613be9565b611bbd565b6040516106e791906145da565b60405180910390f35b3480156106fc57600080fd5b5061071760048036038101906107129190613bc0565b611c51565b005b60606000610726336114e8565b905060008167ffffffffffffffff81111561076a577f4e487b7100000000000000000000000000000000000000000000000000000000600052604160045260246000fd5b6040519080825280602002602001820160405280156107a357816020015b610790613924565b8152602001906001900390816107885790505b50905060005b82811015610a5f5760006107bd3383610d4c565b90506012600082815260200190815260200160002060405180610100016040529081600082015481526020016001820160009054906101000a900460ff166002811115610833577f4e487b7100000000000000000000000000000000000000000000000000000000600052602160045260246000fd5b600281111561086b577f4e487b7100000000000000000000000000000000000000000000000000000000600052602160045260246000fd5b8152602001600282015481526020016003820154815260200160048201805461089390614c81565b80601f01602080910402602001604051908101604052809291908181526020018280546108bf90614c81565b801561090c5780601f106108e15761010080835404028352916020019161090c565b820191906000526020600020905b8154815290600101906020018083116108ef57829003601f168201915b5050505050815260200160058201805461092590614c81565b80601f016020809104026020016040519081016040528092919081815260200182805461095190614c81565b801561099e5780601f106109735761010080835404028352916020019161099e565b820191906000526020600020905b81548152906001019060200180831161098157829003601f168201915b50505050508152602001600682015481526020016007820160009054906101000a900473ffffffffffffffffffffffffffffffffffffffff1673ffffffffffffffffffffffffffffffffffffffff1673ffffffffffffffffffffffffffffffffffffffff1681525050838381518110610a40577f4e487b7100000000000000000000000000000000000000000000000000000000600052603260045260246000fd5b6020026020010181905250508080610a5790614ce4565b9150506107a9565b50809250505090565b6000610a7382611d49565b9050919050565b606060008054610a8990614c81565b80601f0160208091040260200160405190810160405280929190818152602001828054610ab590614c81565b8015610b025780601f10610ad757610100808354040283529160200191610b02565b820191906000526020600020905b815481529060010190602001808311610ae557829003601f168201915b5050505050905090565b6000610b1782611dc3565b610b56576040517f08c379a0000000000000000000000000000000000000000000000000000000008152600401610b4d90614840565b60405180910390fd5b6004600083815260200190815260200160002060009054906101000a900473ffffffffffffffffffffffffffffffffffffffff169050919050565b6000610b9c82610f04565b90508073ffffffffffffffffffffffffffffffffffffffff168373ffffffffffffffffffffffffffffffffffffffff161415610c0d576040517f08c379a0000000000000000000000000000000000000000000000000000000008152600401610c04906148a0565b60405180910390fd5b8073ffffffffffffffffffffffffffffffffffffffff16610c2c611e2f565b73ffffffffffffffffffffffffffffffffffffffff161480610c5b5750610c5a81610c55611e2f565b611bbd565b5b610c9a576040517f08c379a0000000000000000000000000000000000000000000000000000000008152600401610c9190614760565b60405180910390fd5b610ca48383611e37565b505050565b600f6020528060005260406000206000915090505481565b42601260008381526020019081526020016000206002018190555050565b6000600880549050905090565b610cfd610cf7611e2f565b82611ef0565b610d3c576040517f08c379a0000000000000000000000000000000000000000000000000000000008152600401610d33906148e0565b60405180910390fd5b610d47838383611fce565b505050565b6000610d57836114e8565b8210610d98576040517f08c379a0000000000000000000000000000000000000000000000000000000008152600401610d8f90614632565b60405180910390fd5b600660008473ffffffffffffffffffffffffffffffffffffffff1673ffffffffffffffffffffffffffffffffffffffff168152602001908152602001600020600083815260200190815260200160002054905092915050565b610e0c83838360405180602001604052806000815250611a48565b505050565b610e22610e1c611e2f565b82611ef0565b610e61576040517f08c379a0000000000000000000000000000000000000000000000000000000008152600401610e5890614920565b60405180910390fd5b610e6a81612235565b50565b6000610e77610cdf565b8210610eb8576040517f08c379a0000000000000000000000000000000000000000000000000000000008152600401610eaf90614900565b60405180910390fd5b60088281548110610ef2577f4e487b7100000000000000000000000000000000000000000000000000000000600052603260045260246000fd5b90600052602060002001549050919050565b6000806002600084815260200190815260200160002060009054906101000a900473ffffffffffffffffffffffffffffffffffffffff169050600073ffffffffffffffffffffffffffffffffffffffff168173ffffffffffffffffffffffffffffffffffffffff161415610fad576040517f08c379a0000000000000000000000000000000000000000000000000000000008152600401610fa4906147a0565b60405180910390fd5b80915050919050565b600080610fc1612241565b9050610fcc81612447565b60006010600083600281111561100b577f4e487b7100000000000000000000000000000000000000000000000000000000600052602160045260246000fd5b6002811115611043577f4e487b7100000000000000000000000000000000000000000000000000000000600052602160045260246000fd5b8152602001908152602001600020600301805461105f90614c81565b80601f016020809104026020016040519081016040528092919081815260200182805461108b90614c81565b80156110d85780601f106110ad576101008083540402835291602001916110d8565b820191906000526020600020905b8154815290600101906020018083116110bb57829003601f168201915b5050505050905060006110eb600c6126ab565b90506110f7600c6126b9565b61110133826126cf565b61110b81836126ed565b600f6000846002811115611148577f4e487b7100000000000000000000000000000000000000000000000000000000600052602160045260246000fd5b6002811115611180577f4e487b7100000000000000000000000000000000000000000000000000000000600052602160045260246000fd5b8152602001908152602001600020600081548092919061119f90614ce4565b91905055506001601160003373ffffffffffffffffffffffffffffffffffffffff1673ffffffffffffffffffffffffffffffffffffffff16815260200190815260200160002060006101000a81548160ff021916908315150217905550604051806101000160405280828152602001846002811115611247577f4e487b7100000000000000000000000000000000000000000000000000000000600052602160045260246000fd5b8152602001600081526020016000815260200160106000866002811115611297577f4e487b7100000000000000000000000000000000000000000000000000000000600052602160045260246000fd5b60028111156112cf577f4e487b7100000000000000000000000000000000000000000000000000000000600052602160045260246000fd5b815260200190815260200160002060030180546112eb90614c81565b80601f016020809104026020016040519081016040528092919081815260200182805461131790614c81565b80156113645780601f1061133957610100808354040283529160200191611364565b820191906000526020600020905b81548152906001019060200180831161134757829003601f168201915b505050505081526020016040518060400160405280600481526020017f4c616e64000000000000000000000000000000000000000000000000000000008152508152602001600081526020013373ffffffffffffffffffffffffffffffffffffffff16815250601260008381526020019081526020016000206000820151816000015560208201518160010160006101000a81548160ff02191690836002811115611438577f4e487b7100000000000000000000000000000000000000000000000000000000600052602160045260246000fd5b02179055506040820151816002015560608201518160030155608082015181600401908051906020019061146d9291906139b7565b5060a082015181600501908051906020019061148a9291906139b7565b5060c0820151816006015560e08201518160070160006101000a81548173ffffffffffffffffffffffffffffffffffffffff021916908373ffffffffffffffffffffffffffffffffffffffff16021790555090505080935050505090565b60008073ffffffffffffffffffffffffffffffffffffffff168273ffffffffffffffffffffffffffffffffffffffff161415611559576040517f08c379a000000000000000000000000000000000000000000000000000000000815260040161155090614780565b60405180910390fd5b600360008373ffffffffffffffffffffffffffffffffffffffff1673ffffffffffffffffffffffffffffffffffffffff168152602001908152602001600020549050919050565b6115a8611e2f565b73ffffffffffffffffffffffffffffffffffffffff166115c6611628565b73ffffffffffffffffffffffffffffffffffffffff161461161c576040517f08c379a000000000000000000000000000000000000000000000000000000000815260040161161390614860565b60405180910390fd5b6116266000612761565b565b6000600b60009054906101000a900473ffffffffffffffffffffffffffffffffffffffff16905090565b60606001805461166190614c81565b80601f016020809104026020016040519081016040528092919081815260200182805461168d90614c81565b80156116da5780601f106116af576101008083540402835291602001916116da565b820191906000526020600020905b8154815290600101906020018083116116bd57829003601f168201915b5050505050905090565b6116f66116ef611e2f565b8383612827565b5050565b600e6020528060005260406000206000915054906101000a900460ff1681565b60106020528060005260406000206000915090508060000154908060010154908060020160009054906101000a900460ff169080600301805461175c90614c81565b80601f016020809104026020016040519081016040528092919081815260200182805461178890614c81565b80156117d55780601f106117aa576101008083540402835291602001916117d5565b820191906000526020600020905b8154815290600101906020018083116117b857829003601f168201915b5050505050905084565b60606000600367ffffffffffffffff811115611824577f4e487b7100000000000000000000000000000000000000000000000000000000600052604160045260246000fd5b60405190808252806020026020018201604052801561185d57816020015b61184a613a3d565b8152602001906001900390816118425790505b50905060005b60038160ff161015611a405760106000600e60008460ff1660ff16815260200190815260200160002060009054906101000a900460ff1660028111156118d2577f4e487b7100000000000000000000000000000000000000000000000000000000600052602160045260246000fd5b600281111561190a577f4e487b7100000000000000000000000000000000000000000000000000000000600052602160045260246000fd5b815260200190815260200160002060405180608001604052908160008201548152602001600182015481526020016002820160009054906101000a900460ff1660ff1660ff16815260200160038201805461196490614c81565b80601f016020809104026020016040519081016040528092919081815260200182805461199090614c81565b80156119dd5780601f106119b2576101008083540402835291602001916119dd565b820191906000526020600020905b8154815290600101906020018083116119c057829003601f168201915b505050505081525050828260ff1681518110611a22577f4e487b7100000000000000000000000000000000000000000000000000000000600052603260045260246000fd5b60200260200101819052508080611a3890614d2d565b915050611863565b508091505090565b611a59611a53611e2f565b83611ef0565b611a98576040517f08c379a0000000000000000000000000000000000000000000000000000000008152600401611a8f906148e0565b60405180910390fd5b611aa484848484612994565b50505050565b6060611ab5826129f0565b9050919050565b60008062015180905080601260008581526020019081526020016000206002015442611ae89190614b65565b10611bb25760006012600085815260200190815260200160002060010160009054906101000a900460ff16905060106000826002811115611b52577f4e487b7100000000000000000000000000000000000000000000000000000000600052602160045260246000fd5b6002811115611b8a577f4e487b7100000000000000000000000000000000000000000000000000000000600052602160045260246000fd5b815260200190815260200160002060020160009054906101000a900460ff1692505050611bb8565b60009150505b919050565b6000600560008473ffffffffffffffffffffffffffffffffffffffff1673ffffffffffffffffffffffffffffffffffffffff16815260200190815260200160002060008373ffffffffffffffffffffffffffffffffffffffff1673ffffffffffffffffffffffffffffffffffffffff16815260200190815260200160002060009054906101000a900460ff16905092915050565b611c59611e2f565b73ffffffffffffffffffffffffffffffffffffffff16611c77611628565b73ffffffffffffffffffffffffffffffffffffffff1614611ccd576040517f08c379a0000000000000000000000000000000000000000000000000000000008152600401611cc490614860565b60405180910390fd5b600073ffffffffffffffffffffffffffffffffffffffff168173ffffffffffffffffffffffffffffffffffffffff161415611d3d576040517f08c379a0000000000000000000000000000000000000000000000000000000008152600401611d3490614672565b60405180910390fd5b611d4681612761565b50565b60007f780e9d63000000000000000000000000000000000000000000000000000000007bffffffffffffffffffffffffffffffffffffffffffffffffffffffff1916827bffffffffffffffffffffffffffffffffffffffffffffffffffffffff19161480611dbc5750611dbb82612b42565b5b9050919050565b60008073ffffffffffffffffffffffffffffffffffffffff166002600084815260200190815260200160002060009054906101000a900473ffffffffffffffffffffffffffffffffffffffff1673ffffffffffffffffffffffffffffffffffffffff1614159050919050565b600033905090565b816004600083815260200190815260200160002060006101000a81548173ffffffffffffffffffffffffffffffffffffffff021916908373ffffffffffffffffffffffffffffffffffffffff160217905550808273ffffffffffffffffffffffffffffffffffffffff16611eaa83610f04565b73ffffffffffffffffffffffffffffffffffffffff167f8c5be1e5ebec7d5bd14f71427d1e84f3dd0314c0f7b2291e5b200ac8c7c3b92560405160405180910390a45050565b6000611efb82611dc3565b611f3a576040517f08c379a0000000000000000000000000000000000000000000000000000000008152600401611f3190614740565b60405180910390fd5b6000611f4583610f04565b90508073ffffffffffffffffffffffffffffffffffffffff168473ffffffffffffffffffffffffffffffffffffffff161480611fb457508373ffffffffffffffffffffffffffffffffffffffff16611f9c84610b0c565b73ffffffffffffffffffffffffffffffffffffffff16145b80611fc55750611fc48185611bbd565b5b91505092915050565b8273ffffffffffffffffffffffffffffffffffffffff16611fee82610f04565b73ffffffffffffffffffffffffffffffffffffffff1614612044576040517f08c379a000000000000000000000000000000000000000000000000000000000815260040161203b90614692565b60405180910390fd5b600073ffffffffffffffffffffffffffffffffffffffff168273ffffffffffffffffffffffffffffffffffffffff1614156120b4576040517f08c379a00000000000000000000000000000000000000000000000000000000081526004016120ab90614700565b60405180910390fd5b6120bf838383612c24565b6120ca600082611e37565b6001600360008573ffffffffffffffffffffffffffffffffffffffff1673ffffffffffffffffffffffffffffffffffffffff168152602001908152602001600020600082825461211a9190614b65565b925050819055506001600360008473ffffffffffffffffffffffffffffffffffffffff1673ffffffffffffffffffffffffffffffffffffffff16815260200190815260200160002060008282546121719190614ade565b92505081905550816002600083815260200190815260200160002060006101000a81548173ffffffffffffffffffffffffffffffffffffffff021916908373ffffffffffffffffffffffffffffffffffffffff160217905550808273ffffffffffffffffffffffffffffffffffffffff168473ffffffffffffffffffffffffffffffffffffffff167fddf252ad1be2c89b69c2b068fc378daa952ba7f163c4a11628f55a4df523b3ef60405160405180910390a4612230838383612c34565b505050565b61223e81612c39565b50565b600060106000806002811115612280577f4e487b7100000000000000000000000000000000000000000000000000000000600052602160045260246000fd5b60028111156122b8577f4e487b7100000000000000000000000000000000000000000000000000000000600052602160045260246000fd5b8152602001908152602001600020600001543414156122da5760009050612444565b6010600060016002811115612318577f4e487b7100000000000000000000000000000000000000000000000000000000600052602160045260246000fd5b6002811115612350577f4e487b7100000000000000000000000000000000000000000000000000000000600052602160045260246000fd5b8152602001908152602001600020600001543414156123725760019050612444565b601060006002808111156123af577f4e487b7100000000000000000000000000000000000000000000000000000000600052602160045260246000fd5b60028111156123e7577f4e487b7100000000000000000000000000000000000000000000000000000000600052602160045260246000fd5b8152602001908152602001600020600001543414156124095760029050612444565b6040517f08c379a000000000000000000000000000000000000000000000000000000000815260040161243b906148c0565b60405180910390fd5b90565b600060106000836002811115612486577f4e487b7100000000000000000000000000000000000000000000000000000000600052602160045260246000fd5b60028111156124be577f4e487b7100000000000000000000000000000000000000000000000000000000600052602160045260246000fd5b81526020019081526020016000206001015490506000600281111561250c577f4e487b7100000000000000000000000000000000000000000000000000000000600052602160045260246000fd5b826002811115612545577f4e487b7100000000000000000000000000000000000000000000000000000000600052602160045260246000fd5b14156125e05760011515601160003373ffffffffffffffffffffffffffffffffffffffff1673ffffffffffffffffffffffffffffffffffffffff16815260200190815260200160002060009054906101000a900460ff16151514156125df576040517fb490537d0000000000000000000000000000000000000000000000000000000081526004016125d690614800565b60405180910390fd5b5b80600f600084600281111561261e577f4e487b7100000000000000000000000000000000000000000000000000000000600052602160045260246000fd5b6002811115612656577f4e487b7100000000000000000000000000000000000000000000000000000000600052602160045260246000fd5b815260200190815260200160002054106126a757806040517f25d0bf1400000000000000000000000000000000000000000000000000000000815260040161269e91906146d2565b60405180910390fd5b5050565b600081600001549050919050565b6001816000016000828254019250508190555050565b6126e9828260405180602001604052806000815250612c8c565b5050565b6126f682611dc3565b612735576040517f08c379a000000000000000000000000000000000000000000000000000000000815260040161272c906147c0565b60405180910390fd5b80600a6000848152602001908152602001600020908051906020019061275c9291906139b7565b505050565b6000600b60009054906101000a900473ffffffffffffffffffffffffffffffffffffffff16905081600b60006101000a81548173ffffffffffffffffffffffffffffffffffffffff021916908373ffffffffffffffffffffffffffffffffffffffff1602179055508173ffffffffffffffffffffffffffffffffffffffff168173ffffffffffffffffffffffffffffffffffffffff167f8be0079c531659141344cd1fd0a4f28419497f9722a3daafe3b4186f6b6457e060405160405180910390a35050565b8173ffffffffffffffffffffffffffffffffffffffff168373ffffffffffffffffffffffffffffffffffffffff161415612896576040517f08c379a000000000000000000000000000000000000000000000000000000000815260040161288d90614720565b60405180910390fd5b80600560008573ffffffffffffffffffffffffffffffffffffffff1673ffffffffffffffffffffffffffffffffffffffff16815260200190815260200160002060008473ffffffffffffffffffffffffffffffffffffffff1673ffffffffffffffffffffffffffffffffffffffff16815260200190815260200160002060006101000a81548160ff0219169083151502179055508173ffffffffffffffffffffffffffffffffffffffff168373ffffffffffffffffffffffffffffffffffffffff167f17307eab39ab6107e8899845ad3d59bd9653f200f220920489ca2b5937696c318360405161298791906145da565b60405180910390a3505050565b61299f848484611fce565b6129ab84848484612ce7565b6129ea576040517f08c379a00000000000000000000000000000000000000000000000000000000081526004016129e190614652565b60405180910390fd5b50505050565b60606129fb82611dc3565b612a3a576040517f08c379a0000000000000000000000000000000000000000000000000000000008152600401612a3190614820565b60405180910390fd5b6000600a60008481526020019081526020016000208054612a5a90614c81565b80601f0160208091040260200160405190810160405280929190818152602001828054612a8690614c81565b8015612ad35780601f10612aa857610100808354040283529160200191612ad3565b820191906000526020600020905b815481529060010190602001808311612ab657829003601f168201915b505050505090506000612ae4612e7e565b9050600081511415612afa578192505050612b3d565b600082511115612b2f578082604051602001612b1792919061450b565b60405160208183030381529060405292505050612b3d565b612b3884612ebb565b925050505b919050565b60007f80ac58cd000000000000000000000000000000000000000000000000000000007bffffffffffffffffffffffffffffffffffffffffffffffffffffffff1916827bffffffffffffffffffffffffffffffffffffffffffffffffffffffff19161480612c0d57507f5b5e139f000000000000000000000000000000000000000000000000000000007bffffffffffffffffffffffffffffffffffffffffffffffffffffffff1916827bffffffffffffffffffffffffffffffffffffffffffffffffffffffff1916145b80612c1d5750612c1c82612f62565b5b9050919050565b612c2f838383612fcc565b505050565b505050565b612c42816130e0565b6000600a60008381526020019081526020016000208054612c6290614c81565b905014612c8957600a60008281526020019081526020016000206000612c889190613a68565b5b50565b612c9683836131fd565b612ca36000848484612ce7565b612ce2576040517f08c379a0000000000000000000000000000000000000000000000000000000008152600401612cd990614652565b60405180910390fd5b505050565b6000612d088473ffffffffffffffffffffffffffffffffffffffff166133d7565b15612e71578373ffffffffffffffffffffffffffffffffffffffff1663150b7a02612d31611e2f565b8786866040518563ffffffff1660e01b8152600401612d53949392919061454a565b602060405180830381600087803b158015612d6d57600080fd5b505af1925050508015612d9e57506040513d601f19601f82011682018060405250810190612d9b9190613d90565b60015b612e21573d8060008114612dce576040519150601f19603f3d011682016040523d82523d6000602084013e612dd3565b606091505b50600081511415612e19576040517f08c379a0000000000000000000000000000000000000000000000000000000008152600401612e1090614652565b60405180910390fd5b805181602001fd5b63150b7a0260e01b7bffffffffffffffffffffffffffffffffffffffffffffffffffffffff1916817bffffffffffffffffffffffffffffffffffffffffffffffffffffffff191614915050612e76565b600190505b949350505050565b60606040518060400160405280601581526020017f68747470733a2f2f697066732e696f2f697066732f0000000000000000000000815250905090565b6060612ec682611dc3565b612f05576040517f08c379a0000000000000000000000000000000000000000000000000000000008152600401612efc90614880565b60405180910390fd5b6000612f0f612e7e565b90506000815111612f2f5760405180602001604052806000815250612f5a565b80612f39846133fa565b604051602001612f4a92919061450b565b6040516020818303038152906040525b915050919050565b60007f01ffc9a7000000000000000000000000000000000000000000000000000000007bffffffffffffffffffffffffffffffffffffffffffffffffffffffff1916827bffffffffffffffffffffffffffffffffffffffffffffffffffffffff1916149050919050565b612fd78383836135a7565b600073ffffffffffffffffffffffffffffffffffffffff168373ffffffffffffffffffffffffffffffffffffffff16141561301a57613015816135ac565b613059565b8173ffffffffffffffffffffffffffffffffffffffff168373ffffffffffffffffffffffffffffffffffffffff16146130585761305783826135f5565b5b5b600073ffffffffffffffffffffffffffffffffffffffff168273ffffffffffffffffffffffffffffffffffffffff16141561309c5761309781613762565b6130db565b8273ffffffffffffffffffffffffffffffffffffffff168273ffffffffffffffffffffffffffffffffffffffff16146130da576130d982826138a5565b5b5b505050565b60006130eb82610f04565b90506130f981600084612c24565b613104600083611e37565b6001600360008373ffffffffffffffffffffffffffffffffffffffff1673ffffffffffffffffffffffffffffffffffffffff16815260200190815260200160002060008282546131549190614b65565b925050819055506002600083815260200190815260200160002060006101000a81549073ffffffffffffffffffffffffffffffffffffffff021916905581600073ffffffffffffffffffffffffffffffffffffffff168273ffffffffffffffffffffffffffffffffffffffff167fddf252ad1be2c89b69c2b068fc378daa952ba7f163c4a11628f55a4df523b3ef60405160405180910390a46131f981600084612c34565b5050565b600073ffffffffffffffffffffffffffffffffffffffff168273ffffffffffffffffffffffffffffffffffffffff16141561326d576040517f08c379a0000000000000000000000000000000000000000000000000000000008152600401613264906147e0565b60405180910390fd5b61327681611dc3565b156132b6576040517f08c379a00000000000000000000000000000000000000000000000000000000081526004016132ad906146b2565b60405180910390fd5b6132c260008383612c24565b6001600360008473ffffffffffffffffffffffffffffffffffffffff1673ffffffffffffffffffffffffffffffffffffffff16815260200190815260200160002060008282546133129190614ade565b92505081905550816002600083815260200190815260200160002060006101000a81548173ffffffffffffffffffffffffffffffffffffffff021916908373ffffffffffffffffffffffffffffffffffffffff160217905550808273ffffffffffffffffffffffffffffffffffffffff16600073ffffffffffffffffffffffffffffffffffffffff167fddf252ad1be2c89b69c2b068fc378daa952ba7f163c4a11628f55a4df523b3ef60405160405180910390a46133d360008383612c34565b5050565b6000808273ffffffffffffffffffffffffffffffffffffffff163b119050919050565b60606000821415613442576040518060400160405280600181526020017f300000000000000000000000000000000000000000000000000000000000000081525090506135a2565b600082905060005b6000821461347457808061345d90614ce4565b915050600a8261346d9190614b34565b915061344a565b60008167ffffffffffffffff8111156134b6577f4e487b7100000000000000000000000000000000000000000000000000000000600052604160045260246000fd5b6040519080825280601f01601f1916602001820160405280156134e85781602001600182028036833780820191505090505b5090505b6000851461359b576001826135019190614b65565b9150600a856135109190614d57565b603061351c9190614ade565b60f81b818381518110613558577f4e487b7100000000000000000000000000000000000000000000000000000000600052603260045260246000fd5b60200101907effffffffffffffffffffffffffffffffffffffffffffffffffffffffffffff1916908160001a905350600a856135949190614b34565b94506134ec565b8093505050505b919050565b505050565b6008805490506009600083815260200190815260200160002081905550600881908060018154018082558091505060019003906000526020600020016000909190919091505550565b60006001613602846114e8565b61360c9190614b65565b90506000600760008481526020019081526020016000205490508181146136f1576000600660008673ffffffffffffffffffffffffffffffffffffffff1673ffffffffffffffffffffffffffffffffffffffff168152602001908152602001600020600084815260200190815260200160002054905080600660008773ffffffffffffffffffffffffffffffffffffffff1673ffffffffffffffffffffffffffffffffffffffff168152602001908152602001600020600084815260200190815260200160002081905550816007600083815260200190815260200160002081905550505b6007600084815260200190815260200160002060009055600660008573ffffffffffffffffffffffffffffffffffffffff1673ffffffffffffffffffffffffffffffffffffffff16815260200190815260200160002060008381526020019081526020016000206000905550505050565b600060016008805490506137769190614b65565b90506000600960008481526020019081526020016000205490506000600883815481106137cc577f4e487b7100000000000000000000000000000000000000000000000000000000600052603260045260246000fd5b906000526020600020015490508060088381548110613814577f4e487b7100000000000000000000000000000000000000000000000000000000600052603260045260246000fd5b906000526020600020018190555081600960008381526020019081526020016000208190555060096000858152602001908152602001600020600090556008805480613889577f4e487b7100000000000000000000000000000000000000000000000000000000600052603160045260246000fd5b6001900381819060005260206000200160009055905550505050565b60006138b0836114e8565b905081600660008573ffffffffffffffffffffffffffffffffffffffff1673ffffffffffffffffffffffffffffffffffffffff168152602001908152602001600020600083815260200190815260200160002081905550806007600084815260200190815260200160002081905550505050565b6040518061010001604052806000815260200160006002811115613971577f4e487b7100000000000000000000000000000000000000000000000000000000600052602160045260246000fd5b81526020016000815260200160008152602001606081526020016060815260200160008152602001600073ffffffffffffffffffffffffffffffffffffffff1681525090565b8280546139c390614c81565b90600052602060002090601f0160209004810192826139e55760008555613a2c565b82601f106139fe57805160ff1916838001178555613a2c565b82800160010185558215613a2c579182015b82811115613a2b578251825591602001919060010190613a10565b5b509050613a399190613aa8565b5090565b60405180608001604052806000815260200160008152602001600060ff168152602001606081525090565b508054613a7490614c81565b6000825580601f10613a865750613aa5565b601f016020900490600052602060002090810190613aa49190613aa8565b5b50565b5b80821115613ac1576000816000905550600101613aa9565b5090565b6000613ad8613ad3846149e7565b6149c2565b905082815260208101848484011115613af057600080fd5b613afb848285614c3f565b509392505050565b600081359050613b128161551c565b92915050565b600081359050613b2781615533565b92915050565b600081359050613b3c8161554a565b92915050565b600081519050613b518161554a565b92915050565b600082601f830112613b6857600080fd5b8135613b78848260208601613ac5565b91505092915050565b600081359050613b9081615561565b92915050565b600081359050613ba581615571565b92915050565b600081359050613bba81615588565b92915050565b600060208284031215613bd257600080fd5b6000613be084828501613b03565b91505092915050565b60008060408385031215613bfc57600080fd5b6000613c0a85828601613b03565b9250506020613c1b85828601613b03565b9150509250929050565b600080600060608486031215613c3a57600080fd5b6000613c4886828701613b03565b9350506020613c5986828701613b03565b9250506040613c6a86828701613b96565b9150509250925092565b60008060008060808587031215613c8a57600080fd5b6000613c9887828801613b03565b9450506020613ca987828801613b03565b9350506040613cba87828801613b96565b925050606085013567ffffffffffffffff811115613cd757600080fd5b613ce387828801613b57565b91505092959194509250565b60008060408385031215613d0257600080fd5b6000613d1085828601613b03565b9250506020613d2185828601613b18565b9150509250929050565b60008060408385031215613d3e57600080fd5b6000613d4c85828601613b03565b9250506020613d5d85828601613b96565b9150509250929050565b600060208284031215613d7957600080fd5b6000613d8784828501613b2d565b91505092915050565b600060208284031215613da257600080fd5b6000613db084828501613b42565b91505092915050565b600060208284031215613dcb57600080fd5b6000613dd984828501613b81565b91505092915050565b600060208284031215613df457600080fd5b6000613e0284828501613b96565b91505092915050565b600060208284031215613e1d57600080fd5b6000613e2b84828501613bab565b91505092915050565b6000613e4083836143b5565b905092915050565b6000613e548383614418565b905092915050565b613e6581614b99565b82525050565b613e7481614b99565b82525050565b6000613e8582614a38565b613e8f8185614a7e565b935083602082028501613ea185614a18565b8060005b85811015613edd5784840389528151613ebe8582613e34565b9450613ec983614a64565b925060208a01995050600181019050613ea5565b50829750879550505050505092915050565b6000613efa82614a43565b613f048185614a8f565b935083602082028501613f1685614a28565b8060005b85811015613f525784840389528151613f338582613e48565b9450613f3e83614a71565b925060208a01995050600181019050613f1a565b50829750879550505050505092915050565b613f6d81614bab565b82525050565b6000613f7e82614a4e565b613f888185614aa0565b9350613f98818560208601614c4e565b613fa181614e73565b840191505092915050565b613fb581614c2d565b82525050565b613fc481614c2d565b82525050565b6000613fd582614a59565b613fdf8185614ab1565b9350613fef818560208601614c4e565b613ff881614e73565b840191505092915050565b600061400e82614a59565b6140188185614ac2565b9350614028818560208601614c4e565b61403181614e73565b840191505092915050565b600061404782614a59565b6140518185614ad3565b9350614061818560208601614c4e565b80840191505092915050565b600061407a602b83614ac2565b915061408582614e84565b604082019050919050565b600061409d603283614ac2565b91506140a882614ed3565b604082019050919050565b60006140c0602683614ac2565b91506140cb82614f22565b604082019050919050565b60006140e3602583614ac2565b91506140ee82614f71565b604082019050919050565b6000614106601c83614ac2565b915061411182614fc0565b602082019050919050565b6000614129603083614ac2565b915061413482614fe9565b604082019050919050565b600061414c602483614ac2565b915061415782615038565b604082019050919050565b600061416f601983614ac2565b915061417a82615087565b602082019050919050565b6000614192602c83614ac2565b915061419d826150b0565b604082019050919050565b60006141b5603883614ac2565b91506141c0826150ff565b604082019050919050565b60006141d8602a83614ac2565b91506141e38261514e565b604082019050919050565b60006141fb602983614ac2565b91506142068261519d565b604082019050919050565b600061421e602e83614ac2565b9150614229826151ec565b604082019050919050565b6000614241602083614ac2565b915061424c8261523b565b602082019050919050565b6000614264602083614ac2565b915061426f82615264565b602082019050919050565b6000614287603183614ac2565b91506142928261528d565b604082019050919050565b60006142aa602c83614ac2565b91506142b5826152dc565b604082019050919050565b60006142cd602083614ac2565b91506142d88261532b565b602082019050919050565b60006142f0602f83614ac2565b91506142fb82615354565b604082019050919050565b6000614313602183614ac2565b915061431e826153a3565b604082019050919050565b6000614336601483614ac2565b9150614341826153f2565b602082019050919050565b6000614359603183614ac2565b91506143648261541b565b604082019050919050565b600061437c602c83614ac2565b91506143878261546a565b604082019050919050565b600061439f603083614ac2565b91506143aa826154b9565b604082019050919050565b60006080830160008301516143cd60008601826144cf565b5060208301516143e060208601826144cf565b5060408301516143f360408601826144ed565b506060830151848203606086015261440b8282613fca565b9150508091505092915050565b60006101008301600083015161443160008601826144cf565b5060208301516144446020860182613fac565b50604083015161445760408601826144cf565b50606083015161446a60608601826144cf565b50608083015184820360808601526144828282613fca565b91505060a083015184820360a086015261449c8282613fca565b91505060c08301516144b160c08601826144cf565b5060e08301516144c460e0860182613e5c565b508091505092915050565b6144d881614c16565b82525050565b6144e781614c16565b82525050565b6144f681614c20565b82525050565b61450581614c20565b82525050565b6000614517828561403c565b9150614523828461403c565b91508190509392505050565b60006020820190506145446000830184613e6b565b92915050565b600060808201905061455f6000830187613e6b565b61456c6020830186613e6b565b61457960408301856144de565b818103606083015261458b8184613f73565b905095945050505050565b600060208201905081810360008301526145b08184613e7a565b905092915050565b600060208201905081810360008301526145d28184613eef565b905092915050565b60006020820190506145ef6000830184613f64565b92915050565b600060208201905061460a6000830184613fbb565b92915050565b6000602082019050818103600083015261462a8184614003565b905092915050565b6000602082019050818103600083015261464b8161406d565b9050919050565b6000602082019050818103600083015261466b81614090565b9050919050565b6000602082019050818103600083015261468b816140b3565b9050919050565b600060208201905081810360008301526146ab816140d6565b9050919050565b600060208201905081810360008301526146cb816140f9565b9050919050565b600060408201905081810360008301526146eb8161411c565b90506146fa60208301846144de565b92915050565b600060208201905081810360008301526147198161413f565b9050919050565b6000602082019050818103600083015261473981614162565b9050919050565b6000602082019050818103600083015261475981614185565b9050919050565b60006020820190508181036000830152614779816141a8565b9050919050565b60006020820190508181036000830152614799816141cb565b9050919050565b600060208201905081810360008301526147b9816141ee565b9050919050565b600060208201905081810360008301526147d981614211565b9050919050565b600060208201905081810360008301526147f981614234565b9050919050565b6000602082019050818103600083015261481981614257565b9050919050565b600060208201905081810360008301526148398161427a565b9050919050565b600060208201905081810360008301526148598161429d565b9050919050565b60006020820190508181036000830152614879816142c0565b9050919050565b60006020820190508181036000830152614899816142e3565b9050919050565b600060208201905081810360008301526148b981614306565b9050919050565b600060208201905081810360008301526148d981614329565b9050919050565b600060208201905081810360008301526148f98161434c565b9050919050565b600060208201905081810360008301526149198161436f565b9050919050565b6000602082019050818103600083015261493981614392565b9050919050565b600060208201905061495560008301846144de565b92915050565b600060808201905061497060008301876144de565b61497d60208301866144de565b61498a60408301856144fc565b818103606083015261499c8184614003565b905095945050505050565b60006020820190506149bc60008301846144fc565b92915050565b60006149cc6149dd565b90506149d88282614cb3565b919050565b6000604051905090565b600067ffffffffffffffff821115614a0257614a01614e44565b5b614a0b82614e73565b9050602081019050919050565b6000819050602082019050919050565b6000819050602082019050919050565b600081519050919050565b600081519050919050565b600081519050919050565b600081519050919050565b6000602082019050919050565b6000602082019050919050565b600082825260208201905092915050565b600082825260208201905092915050565b600082825260208201905092915050565b600082825260208201905092915050565b600082825260208201905092915050565b600081905092915050565b6000614ae982614c16565b9150614af483614c16565b9250827fffffffffffffffffffffffffffffffffffffffffffffffffffffffffffffffff03821115614b2957614b28614d88565b5b828201905092915050565b6000614b3f82614c16565b9150614b4a83614c16565b925082614b5a57614b59614db7565b5b828204905092915050565b6000614b7082614c16565b9150614b7b83614c16565b925082821015614b8e57614b8d614d88565b5b828203905092915050565b6000614ba482614bf6565b9050919050565b60008115159050919050565b60007fffffffff0000000000000000000000000000000000000000000000000000000082169050919050565b6000819050614bf182615508565b919050565b600073ffffffffffffffffffffffffffffffffffffffff82169050919050565b6000819050919050565b600060ff82169050919050565b6000614c3882614be3565b9050919050565b82818337600083830152505050565b60005b83811015614c6c578082015181840152602081019050614c51565b83811115614c7b576000848401525b50505050565b60006002820490506001821680614c9957607f821691505b60208210811415614cad57614cac614e15565b5b50919050565b614cbc82614e73565b810181811067ffffffffffffffff82111715614cdb57614cda614e44565b5b80604052505050565b6000614cef82614c16565b91507fffffffffffffffffffffffffffffffffffffffffffffffffffffffffffffffff821415614d2257614d21614d88565b5b600182019050919050565b6000614d3882614c20565b915060ff821415614d4c57614d4b614d88565b5b600182019050919050565b6000614d6282614c16565b9150614d6d83614c16565b925082614d7d57614d7c614db7565b5b828206905092915050565b7f4e487b7100000000000000000000000000000000000000000000000000000000600052601160045260246000fd5b7f4e487b7100000000000000000000000000000000000000000000000000000000600052601260045260246000fd5b7f4e487b7100000000000000000000000000000000000000000000000000000000600052602160045260246000fd5b7f4e487b7100000000000000000000000000000000000000000000000000000000600052602260045260246000fd5b7f4e487b7100000000000000000000000000000000000000000000000000000000600052604160045260246000fd5b6000601f19601f8301169050919050565b7f455243373231456e756d657261626c653a206f776e657220696e646578206f7560008201527f74206f6620626f756e6473000000000000000000000000000000000000000000602082015250565b7f4552433732313a207472616e7366657220746f206e6f6e20455243373231526560008201527f63656976657220696d706c656d656e7465720000000000000000000000000000602082015250565b7f4f776e61626c653a206e6577206f776e657220697320746865207a65726f206160008201527f6464726573730000000000000000000000000000000000000000000000000000602082015250565b7f4552433732313a207472616e736665722066726f6d20696e636f72726563742060008201527f6f776e6572000000000000000000000000000000000000000000000000000000602082015250565b7f4552433732313a20746f6b656e20616c7265616479206d696e74656400000000600082015250565b7f596f752063616e2774206d696e74206c616e6473206f6620746869732074797060008201527f652c206c696d6974207265616368656400000000000000000000000000000000602082015250565b7f4552433732313a207472616e7366657220746f20746865207a65726f2061646460008201527f7265737300000000000000000000000000000000000000000000000000000000602082015250565b7f4552433732313a20617070726f766520746f2063616c6c657200000000000000600082015250565b7f4552433732313a206f70657261746f7220717565727920666f72206e6f6e657860008201527f697374656e7420746f6b656e0000000000000000000000000000000000000000602082015250565b7f4552433732313a20617070726f76652063616c6c6572206973206e6f74206f7760008201527f6e6572206e6f7220617070726f76656420666f7220616c6c0000000000000000602082015250565b7f4552433732313a2062616c616e636520717565727920666f7220746865207a6560008201527f726f206164647265737300000000000000000000000000000000000000000000602082015250565b7f4552433732313a206f776e657220717565727920666f72206e6f6e657869737460008201527f656e7420746f6b656e0000000000000000000000000000000000000000000000602082015250565b7f45524337323155524953746f726167653a2055524920736574206f66206e6f6e60008201527f6578697374656e7420746f6b656e000000000000000000000000000000000000602082015250565b7f4552433732313a206d696e7420746f20746865207a65726f2061646472657373600082015250565b7f596f752063616e206d696e74206a757374206f6e6520536d616c6c204c616e64600082015250565b7f45524337323155524953746f726167653a2055524920717565727920666f722060008201527f6e6f6e6578697374656e7420746f6b656e000000000000000000000000000000602082015250565b7f4552433732313a20617070726f76656420717565727920666f72206e6f6e657860008201527f697374656e7420746f6b656e0000000000000000000000000000000000000000602082015250565b7f4f776e61626c653a2063616c6c6572206973206e6f7420746865206f776e6572600082015250565b7f4552433732314d657461646174613a2055524920717565727920666f72206e6f60008201527f6e6578697374656e7420746f6b656e0000000000000000000000000000000000602082015250565b7f4552433732313a20617070726f76616c20746f2063757272656e74206f776e6560008201527f7200000000000000000000000000000000000000000000000000000000000000602082015250565b7f57726f6e67206465706f73697420616d6f756e74000000000000000000000000600082015250565b7f4552433732313a207472616e736665722063616c6c6572206973206e6f74206f60008201527f776e6572206e6f7220617070726f766564000000000000000000000000000000602082015250565b7f455243373231456e756d657261626c653a20676c6f62616c20696e646578206f60008201527f7574206f6620626f756e64730000000000000000000000000000000000000000602082015250565b7f4552433732314275726e61626c653a2063616c6c6572206973206e6f74206f7760008201527f6e6572206e6f7220617070726f76656400000000000000000000000000000000602082015250565b6003811061551957615518614de6565b5b50565b61552581614b99565b811461553057600080fd5b50565b61553c81614bab565b811461554757600080fd5b50565b61555381614bb7565b811461555e57600080fd5b50565b6003811061556e57600080fd5b50565b61557a81614c16565b811461558557600080fd5b50565b61559181614c20565b811461559c57600080fd5b5056fea2646970667358221220cb8a1687e615b8c65fe589badb1accc0c412b99671412978950f7c4808f0324f64736f6c634300080400336261666b7265696876636f72616978647978366a62726c6d6c667734357073726a6c6b77656d703769653377636b79653766726e796862646e6f696261666b72656967657a7566696837676d763664367866626d3361636b62767378786277356d70726c74336878356b767465376b6a6b6261786a756261666b72656965707a726d776365717535753662356478326a64727232767135756a6568696275347633327a64787267346a64677473326f7a71",
  "linkReferences": {},
  "deployedLinkReferences": {}
}