{
  "_format": "hh-sol-artifact-1",
  "contractName": "LandNFT",
  "sourceName": "src/backend/contracts/LandNFT.sol",
  "abi": [
    {
      "inputs": [
        {
          "internalType": "address",
          "name": "_contractMain",
          "type": "address"
        }
      ],
      "stateMutability": "nonpayable",
      "type": "constructor"
    },
    {
      "inputs": [
        {
          "internalType": "string",
          "name": "message",
          "type": "string"
        },
        {
          "internalType": "uint256",
          "name": "limit",
          "type": "uint256"
        }
      ],
      "name": "LandsLimitError",
      "type": "error"
    },
    {
      "inputs": [
        {
          "internalType": "string",
          "name": "message",
          "type": "string"
        }
      ],
      "name": "LandsSmallLimitError",
      "type": "error"
    },
    {
      "anonymous": false,
      "inputs": [
        {
          "indexed": true,
          "internalType": "address",
          "name": "owner",
          "type": "address"
        },
        {
          "indexed": true,
          "internalType": "address",
          "name": "approved",
          "type": "address"
        },
        {
          "indexed": true,
          "internalType": "uint256",
          "name": "tokenId",
          "type": "uint256"
        }
      ],
      "name": "Approval",
      "type": "event"
    },
    {
      "anonymous": false,
      "inputs": [
        {
          "indexed": true,
          "internalType": "address",
          "name": "owner",
          "type": "address"
        },
        {
          "indexed": true,
          "internalType": "address",
          "name": "operator",
          "type": "address"
        },
        {
          "indexed": false,
          "internalType": "bool",
          "name": "approved",
          "type": "bool"
        }
      ],
      "name": "ApprovalForAll",
      "type": "event"
    },
    {
      "anonymous": false,
      "inputs": [
        {
          "indexed": true,
          "internalType": "address",
          "name": "previousOwner",
          "type": "address"
        },
        {
          "indexed": true,
          "internalType": "address",
          "name": "newOwner",
          "type": "address"
        }
      ],
      "name": "OwnershipTransferred",
      "type": "event"
    },
    {
      "anonymous": false,
      "inputs": [
        {
          "indexed": true,
          "internalType": "address",
          "name": "from",
          "type": "address"
        },
        {
          "indexed": true,
          "internalType": "address",
          "name": "to",
          "type": "address"
        },
        {
          "indexed": true,
          "internalType": "uint256",
          "name": "tokenId",
          "type": "uint256"
        }
      ],
      "name": "Transfer",
      "type": "event"
    },
    {
      "inputs": [
        {
          "internalType": "address",
          "name": "to",
          "type": "address"
        },
        {
          "internalType": "uint256",
          "name": "tokenId",
          "type": "uint256"
        }
      ],
      "name": "approve",
      "outputs": [],
      "stateMutability": "nonpayable",
      "type": "function"
    },
    {
      "inputs": [
        {
          "internalType": "address",
          "name": "owner",
          "type": "address"
        }
      ],
      "name": "balanceOf",
      "outputs": [
        {
          "internalType": "uint256",
          "name": "",
          "type": "uint256"
        }
      ],
      "stateMutability": "view",
      "type": "function"
    },
    {
      "inputs": [
        {
          "internalType": "uint256",
          "name": "tokenId",
          "type": "uint256"
        }
      ],
      "name": "burn",
      "outputs": [],
      "stateMutability": "nonpayable",
      "type": "function"
    },
    {
      "inputs": [],
      "name": "getAllLandsMedia",
      "outputs": [
        {
          "internalType": "string[]",
          "name": "",
          "type": "string[]"
        }
      ],
      "stateMutability": "view",
      "type": "function"
    },
    {
      "inputs": [
        {
          "internalType": "uint256",
          "name": "tokenId",
          "type": "uint256"
        }
      ],
      "name": "getApproved",
      "outputs": [
        {
          "internalType": "address",
          "name": "",
          "type": "address"
        }
      ],
      "stateMutability": "view",
      "type": "function"
    },
    {
      "inputs": [
        {
          "internalType": "address",
          "name": "owner",
          "type": "address"
        },
        {
          "internalType": "address",
          "name": "operator",
          "type": "address"
        }
      ],
      "name": "isApprovedForAll",
      "outputs": [
        {
          "internalType": "bool",
          "name": "",
          "type": "bool"
        }
      ],
      "stateMutability": "view",
      "type": "function"
    },
    {
      "inputs": [
        {
          "internalType": "enum LandNFT.LandType",
          "name": "",
          "type": "uint8"
        }
      ],
      "name": "landTypeCount",
      "outputs": [
        {
          "internalType": "uint256",
          "name": "",
          "type": "uint256"
        }
      ],
      "stateMutability": "view",
      "type": "function"
    },
    {
      "inputs": [],
      "name": "name",
      "outputs": [
        {
          "internalType": "string",
          "name": "",
          "type": "string"
        }
      ],
      "stateMutability": "view",
      "type": "function"
    },
    {
      "inputs": [],
      "name": "owner",
      "outputs": [
        {
          "internalType": "address",
          "name": "",
          "type": "address"
        }
      ],
      "stateMutability": "view",
      "type": "function"
    },
    {
      "inputs": [
        {
          "internalType": "uint256",
          "name": "tokenId",
          "type": "uint256"
        }
      ],
      "name": "ownerOf",
      "outputs": [
        {
          "internalType": "address",
          "name": "",
          "type": "address"
        }
      ],
      "stateMutability": "view",
      "type": "function"
    },
    {
      "inputs": [],
      "name": "renounceOwnership",
      "outputs": [],
      "stateMutability": "nonpayable",
      "type": "function"
    },
    {
      "inputs": [],
      "name": "safeMint",
      "outputs": [
        {
          "internalType": "uint256",
          "name": "",
          "type": "uint256"
        }
      ],
      "stateMutability": "payable",
      "type": "function"
    },
    {
      "inputs": [
        {
          "internalType": "address",
          "name": "from",
          "type": "address"
        },
        {
          "internalType": "address",
          "name": "to",
          "type": "address"
        },
        {
          "internalType": "uint256",
          "name": "tokenId",
          "type": "uint256"
        }
      ],
      "name": "safeTransferFrom",
      "outputs": [],
      "stateMutability": "nonpayable",
      "type": "function"
    },
    {
      "inputs": [
        {
          "internalType": "address",
          "name": "from",
          "type": "address"
        },
        {
          "internalType": "address",
          "name": "to",
          "type": "address"
        },
        {
          "internalType": "uint256",
          "name": "tokenId",
          "type": "uint256"
        },
        {
          "internalType": "bytes",
          "name": "_data",
          "type": "bytes"
        }
      ],
      "name": "safeTransferFrom",
      "outputs": [],
      "stateMutability": "nonpayable",
      "type": "function"
    },
    {
      "inputs": [
        {
          "internalType": "address",
          "name": "operator",
          "type": "address"
        },
        {
          "internalType": "bool",
          "name": "approved",
          "type": "bool"
        }
      ],
      "name": "setApprovalForAll",
      "outputs": [],
      "stateMutability": "nonpayable",
      "type": "function"
    },
    {
      "inputs": [
        {
          "internalType": "bytes4",
          "name": "_interfaceId",
          "type": "bytes4"
        }
      ],
      "name": "supportsInterface",
      "outputs": [
        {
          "internalType": "bool",
          "name": "",
          "type": "bool"
        }
      ],
      "stateMutability": "view",
      "type": "function"
    },
    {
      "inputs": [],
      "name": "symbol",
      "outputs": [
        {
          "internalType": "string",
          "name": "",
          "type": "string"
        }
      ],
      "stateMutability": "view",
      "type": "function"
    },
    {
      "inputs": [
        {
          "internalType": "uint256",
          "name": "index",
          "type": "uint256"
        }
      ],
      "name": "tokenByIndex",
      "outputs": [
        {
          "internalType": "uint256",
          "name": "",
          "type": "uint256"
        }
      ],
      "stateMutability": "view",
      "type": "function"
    },
    {
      "inputs": [
        {
          "internalType": "address",
          "name": "owner",
          "type": "address"
        },
        {
          "internalType": "uint256",
          "name": "index",
          "type": "uint256"
        }
      ],
      "name": "tokenOfOwnerByIndex",
      "outputs": [
        {
          "internalType": "uint256",
          "name": "",
          "type": "uint256"
        }
      ],
      "stateMutability": "view",
      "type": "function"
    },
    {
      "inputs": [
        {
          "internalType": "uint256",
          "name": "_tokenId",
          "type": "uint256"
        }
      ],
      "name": "tokenURI",
      "outputs": [
        {
          "internalType": "string",
          "name": "",
          "type": "string"
        }
      ],
      "stateMutability": "view",
      "type": "function"
    },
    {
      "inputs": [],
      "name": "totalSupply",
      "outputs": [
        {
          "internalType": "uint256",
          "name": "",
          "type": "uint256"
        }
      ],
      "stateMutability": "view",
      "type": "function"
    },
    {
      "inputs": [
        {
          "internalType": "address",
          "name": "from",
          "type": "address"
        },
        {
          "internalType": "address",
          "name": "to",
          "type": "address"
        },
        {
          "internalType": "uint256",
          "name": "tokenId",
          "type": "uint256"
        }
      ],
      "name": "transferFrom",
      "outputs": [],
      "stateMutability": "nonpayable",
      "type": "function"
    },
    {
      "inputs": [
        {
          "internalType": "address",
          "name": "newOwner",
          "type": "address"
        }
      ],
      "name": "transferOwnership",
      "outputs": [],
      "stateMutability": "nonpayable",
      "type": "function"
    },
    {
      "inputs": [
        {
          "internalType": "uint256",
          "name": "startIndex",
          "type": "uint256"
        },
        {
          "internalType": "uint8",
          "name": "count",
          "type": "uint8"
        }
      ],
      "name": "userLandByIndex",
      "outputs": [
        {
          "components": [
            {
              "internalType": "uint256",
              "name": "tokenId",
              "type": "uint256"
            },
            {
              "internalType": "enum LandNFT.LandType",
              "name": "landType",
              "type": "uint8"
            },
            {
              "internalType": "uint256",
              "name": "lastZombieClaim",
              "type": "uint256"
            },
            {
              "internalType": "uint256",
              "name": "salePrice",
              "type": "uint256"
            },
            {
              "internalType": "string",
              "name": "nftType",
              "type": "string"
            },
            {
              "internalType": "uint256",
              "name": "discoverEvents",
              "type": "uint256"
            }
          ],
          "internalType": "struct LandNFT.Land[]",
          "name": "",
          "type": "tuple[]"
        }
      ],
      "stateMutability": "view",
      "type": "function"
    }
  ],
  "bytecode": "0x60806040523480156200001157600080fd5b506040516200557b3803806200557b8339818101604052810190620000379190620003d0565b6040518060400160405280600781526020017f5a6f6d4c616e64000000000000000000000000000000000000000000000000008152506040518060400160405280600481526020017f5a4d4c4c000000000000000000000000000000000000000000000000000000008152508160009080519060200190620000bb92919062000309565b508060019080519060200190620000d492919062000309565b505050620000f7620000eb6200023b60201b60201c565b6200024360201b60201c565b80600d60006101000a81548173ffffffffffffffffffffffffffffffffffffffff021916908373ffffffffffffffffffffffffffffffffffffffff160217905550600e80600181540180825580915050600190039060005260206000200160006040518060600160405280603b8152602001620054ca603b9139909190915090805190602001906200018b92919062000309565b50600e80600181540180825580915050600190039060005260206000200160006040518060600160405280603b815260200162005540603b913990919091509080519060200190620001df92919062000309565b50600e80600181540180825580915050600190039060005260206000200160006040518060600160405280603b815260200162005505603b9139909190915090805190602001906200023392919062000309565b5050620004af565b600033905090565b6000600b60009054906101000a900473ffffffffffffffffffffffffffffffffffffffff16905081600b60006101000a81548173ffffffffffffffffffffffffffffffffffffffff021916908373ffffffffffffffffffffffffffffffffffffffff1602179055508173ffffffffffffffffffffffffffffffffffffffff168173ffffffffffffffffffffffffffffffffffffffff167f8be0079c531659141344cd1fd0a4f28419497f9722a3daafe3b4186f6b6457e060405160405180910390a35050565b828054620003179062000430565b90600052602060002090601f0160209004810192826200033b576000855562000387565b82601f106200035657805160ff191683800117855562000387565b8280016001018555821562000387579182015b828111156200038657825182559160200191906001019062000369565b5b5090506200039691906200039a565b5090565b5b80821115620003b55760008160009055506001016200039b565b5090565b600081519050620003ca8162000495565b92915050565b600060208284031215620003e357600080fd5b6000620003f384828501620003b9565b91505092915050565b6000620004098262000410565b9050919050565b600073ffffffffffffffffffffffffffffffffffffffff82169050919050565b600060028204905060018216806200044957607f821691505b6020821081141562000460576200045f62000466565b5b50919050565b7f4e487b7100000000000000000000000000000000000000000000000000000000600052602260045260246000fd5b620004a081620003fc565b8114620004ac57600080fd5b50565b61500b80620004bf6000396000f3fe60806040526004361061014a5760003560e01c80636352211e116100b6578063a22cb4651161006f578063a22cb465146104bc578063b88d4fde146104e5578063c87b56dd1461050e578063e4c33d711461054b578063e985e9c514610576578063f2fde38b146105b35761014a565b80636352211e146103b75780636871ee40146103f457806370a0823114610412578063715018a61461044f5780638da5cb5b1461046657806395d89b41146104915761014a565b806318160ddd1161010857806318160ddd1461029757806323b872dd146102c25780632f745c59146102eb57806342842e0e1461032857806342966c68146103515780634f6ccce71461037a5761014a565b8062dddcfd1461014f57806301ffc9a71461018c57806306fdde03146101c9578063081812fc146101f4578063095ea7b31461023157806317300fcc1461025a575b600080fd5b34801561015b57600080fd5b506101766004803603810190610171919061393b565b6105dc565b6040516101839190614051565b60405180910390f35b34801561019857600080fd5b506101b360048036038101906101ae9190613897565b6108a7565b6040516101c09190614073565b60405180910390f35b3480156101d557600080fd5b506101de6108b9565b6040516101eb919061408e565b60405180910390f35b34801561020057600080fd5b5061021b60048036038101906102169190613912565b61094b565b6040516102289190613fc8565b60405180910390f35b34801561023d57600080fd5b506102586004803603810190610253919061385b565b6109d0565b005b34801561026657600080fd5b50610281600480360381019061027c91906138e9565b610ae8565b60405161028e91906143de565b60405180910390f35b3480156102a357600080fd5b506102ac610b00565b6040516102b991906143de565b60405180910390f35b3480156102ce57600080fd5b506102e960048036038101906102e49190613755565b610b0d565b005b3480156102f757600080fd5b50610312600480360381019061030d919061385b565b610b6d565b60405161031f91906143de565b60405180910390f35b34801561033457600080fd5b5061034f600480360381019061034a9190613755565b610c12565b005b34801561035d57600080fd5b5061037860048036038101906103739190613912565b610c32565b005b34801561038657600080fd5b506103a1600480360381019061039c9190613912565b610c8e565b6040516103ae91906143de565b60405180910390f35b3480156103c357600080fd5b506103de60048036038101906103d99190613912565b610d25565b6040516103eb9190613fc8565b60405180910390f35b6103fc610dd7565b60405161040991906143de565b60405180910390f35b34801561041e57600080fd5b50610439600480360381019061043491906136f0565b61106e565b60405161044691906143de565b60405180910390f35b34801561045b57600080fd5b50610464611126565b005b34801561047257600080fd5b5061047b6111ae565b6040516104889190613fc8565b60405180910390f35b34801561049d57600080fd5b506104a66111d8565b6040516104b3919061408e565b60405180910390f35b3480156104c857600080fd5b506104e360048036038101906104de919061381f565b61126a565b005b3480156104f157600080fd5b5061050c600480360381019061050791906137a4565b611280565b005b34801561051a57600080fd5b5061053560048036038101906105309190613912565b6112e2565b604051610542919061408e565b60405180910390f35b34801561055757600080fd5b506105606112f4565b60405161056d919061402f565b60405180910390f35b34801561058257600080fd5b5061059d60048036038101906105989190613719565b6113cd565b6040516105aa9190614073565b60405180910390f35b3480156105bf57600080fd5b506105da60048036038101906105d591906136f0565b611461565b005b606060008260ff1667ffffffffffffffff811115610623577f4e487b7100000000000000000000000000000000000000000000000000000000600052604160045260246000fd5b60405190808252806020026020018201604052801561065c57816020015b6106496134a4565b8152602001906001900390816106415790505b509050600061066a3361106e565b905060008590505b8460ff1681101561089b578082111561083c5760006106913383610b6d565b9050601160008281526020019081526020016000206040518060c0016040529081600082015481526020016001820160009054906101000a900460ff166002811115610706577f4e487b7100000000000000000000000000000000000000000000000000000000600052602160045260246000fd5b600281111561073e577f4e487b7100000000000000000000000000000000000000000000000000000000600052602160045260246000fd5b81526020016002820154815260200160038201548152602001600482018054610766906146b8565b80601f0160208091040260200160405190810160405280929190818152602001828054610792906146b8565b80156107df5780601f106107b4576101008083540402835291602001916107df565b820191906000526020600020905b8154815290600101906020018083116107c257829003601f168201915b5050505050815260200160058201548152505084838151811061082b577f4e487b7100000000000000000000000000000000000000000000000000000000600052603260045260246000fd5b602002602001018190525050610888565b828181518110610875577f4e487b7100000000000000000000000000000000000000000000000000000000600052603260045260246000fd5b602002602001016108846134a4565b8152505b80806108939061471b565b915050610672565b50819250505092915050565b60006108b282611559565b9050919050565b6060600080546108c8906146b8565b80601f01602080910402602001604051908101604052809291908181526020018280546108f4906146b8565b80156109415780601f1061091657610100808354040283529160200191610941565b820191906000526020600020905b81548152906001019060200180831161092457829003601f168201915b5050505050905090565b6000610956826115d3565b610995576040517f08c379a000000000000000000000000000000000000000000000000000000000815260040161098c906142de565b60405180910390fd5b6004600083815260200190815260200160002060009054906101000a900473ffffffffffffffffffffffffffffffffffffffff169050919050565b60006109db82610d25565b90508073ffffffffffffffffffffffffffffffffffffffff168373ffffffffffffffffffffffffffffffffffffffff161415610a4c576040517f08c379a0000000000000000000000000000000000000000000000000000000008152600401610a439061433e565b60405180910390fd5b8073ffffffffffffffffffffffffffffffffffffffff16610a6b61163f565b73ffffffffffffffffffffffffffffffffffffffff161480610a9a5750610a9981610a9461163f565b6113cd565b5b610ad9576040517f08c379a0000000000000000000000000000000000000000000000000000000008152600401610ad0906141fe565b60405180910390fd5b610ae38383611647565b505050565b600f6020528060005260406000206000915090505481565b6000600880549050905090565b610b1e610b1861163f565b82611700565b610b5d576040517f08c379a0000000000000000000000000000000000000000000000000000000008152600401610b549061437e565b60405180910390fd5b610b688383836117de565b505050565b6000610b788361106e565b8210610bb9576040517f08c379a0000000000000000000000000000000000000000000000000000000008152600401610bb0906140b0565b60405180910390fd5b600660008473ffffffffffffffffffffffffffffffffffffffff1673ffffffffffffffffffffffffffffffffffffffff168152602001908152602001600020600083815260200190815260200160002054905092915050565b610c2d83838360405180602001604052806000815250611280565b505050565b610c43610c3d61163f565b82611700565b610c82576040517f08c379a0000000000000000000000000000000000000000000000000000000008152600401610c79906143be565b60405180910390fd5b610c8b81611a45565b50565b6000610c98610b00565b8210610cd9576040517f08c379a0000000000000000000000000000000000000000000000000000000008152600401610cd09061439e565b60405180910390fd5b60088281548110610d13577f4e487b7100000000000000000000000000000000000000000000000000000000600052603260045260246000fd5b90600052602060002001549050919050565b6000806002600084815260200190815260200160002060009054906101000a900473ffffffffffffffffffffffffffffffffffffffff169050600073ffffffffffffffffffffffffffffffffffffffff168173ffffffffffffffffffffffffffffffffffffffff161415610dce576040517f08c379a0000000000000000000000000000000000000000000000000000000008152600401610dc59061423e565b60405180910390fd5b80915050919050565b600080610de2611a51565b9050610ded81611adb565b6000610df882611e00565b90506000610e06600c61222b565b9050610e12600c612239565b610e1c338261224f565b610e26818361226d565b600f6000846002811115610e63577f4e487b7100000000000000000000000000000000000000000000000000000000600052602160045260246000fd5b6002811115610e9b577f4e487b7100000000000000000000000000000000000000000000000000000000600052602160045260246000fd5b81526020019081526020016000206000815480929190610eba9061471b565b91905055506001601060003373ffffffffffffffffffffffffffffffffffffffff1673ffffffffffffffffffffffffffffffffffffffff16815260200190815260200160002060006101000a81548160ff0219169083151502179055506040518060c00160405280828152602001846002811115610f61577f4e487b7100000000000000000000000000000000000000000000000000000000600052602160045260246000fd5b815260200160008152602001600081526020016040518060400160405280600481526020017f6c616e640000000000000000000000000000000000000000000000000000000081525081526020016000815250601160008381526020019081526020016000206000820151816000015560208201518160010160006101000a81548160ff02191690836002811115611022577f4e487b7100000000000000000000000000000000000000000000000000000000600052602160045260246000fd5b021790555060408201518160020155606082015181600301556080820151816004019080519060200190611057929190613512565b5060a0820151816005015590505080935050505090565b60008073ffffffffffffffffffffffffffffffffffffffff168273ffffffffffffffffffffffffffffffffffffffff1614156110df576040517f08c379a00000000000000000000000000000000000000000000000000000000081526004016110d69061421e565b60405180910390fd5b600360008373ffffffffffffffffffffffffffffffffffffffff1673ffffffffffffffffffffffffffffffffffffffff168152602001908152602001600020549050919050565b61112e61163f565b73ffffffffffffffffffffffffffffffffffffffff1661114c6111ae565b73ffffffffffffffffffffffffffffffffffffffff16146111a2576040517f08c379a0000000000000000000000000000000000000000000000000000000008152600401611199906142fe565b60405180910390fd5b6111ac60006122e1565b565b6000600b60009054906101000a900473ffffffffffffffffffffffffffffffffffffffff16905090565b6060600180546111e7906146b8565b80601f0160208091040260200160405190810160405280929190818152602001828054611213906146b8565b80156112605780601f1061123557610100808354040283529160200191611260565b820191906000526020600020905b81548152906001019060200180831161124357829003601f168201915b5050505050905090565b61127c61127561163f565b83836123a7565b5050565b61129161128b61163f565b83611700565b6112d0576040517f08c379a00000000000000000000000000000000000000000000000000000000081526004016112c79061437e565b60405180910390fd5b6112dc84848484612514565b50505050565b60606112ed82612570565b9050919050565b6060600e805480602002602001604051908101604052809291908181526020016000905b828210156113c4578382906000526020600020018054611337906146b8565b80601f0160208091040260200160405190810160405280929190818152602001828054611363906146b8565b80156113b05780601f10611385576101008083540402835291602001916113b0565b820191906000526020600020905b81548152906001019060200180831161139357829003601f168201915b505050505081526020019060010190611318565b50505050905090565b6000600560008473ffffffffffffffffffffffffffffffffffffffff1673ffffffffffffffffffffffffffffffffffffffff16815260200190815260200160002060008373ffffffffffffffffffffffffffffffffffffffff1673ffffffffffffffffffffffffffffffffffffffff16815260200190815260200160002060009054906101000a900460ff16905092915050565b61146961163f565b73ffffffffffffffffffffffffffffffffffffffff166114876111ae565b73ffffffffffffffffffffffffffffffffffffffff16146114dd576040517f08c379a00000000000000000000000000000000000000000000000000000000081526004016114d4906142fe565b60405180910390fd5b600073ffffffffffffffffffffffffffffffffffffffff168173ffffffffffffffffffffffffffffffffffffffff16141561154d576040517f08c379a0000000000000000000000000000000000000000000000000000000008152600401611544906140f0565b60405180910390fd5b611556816122e1565b50565b60007f780e9d63000000000000000000000000000000000000000000000000000000007bffffffffffffffffffffffffffffffffffffffffffffffffffffffff1916827bffffffffffffffffffffffffffffffffffffffffffffffffffffffff191614806115cc57506115cb826126c2565b5b9050919050565b60008073ffffffffffffffffffffffffffffffffffffffff166002600084815260200190815260200160002060009054906101000a900473ffffffffffffffffffffffffffffffffffffffff1673ffffffffffffffffffffffffffffffffffffffff1614159050919050565b600033905090565b816004600083815260200190815260200160002060006101000a81548173ffffffffffffffffffffffffffffffffffffffff021916908373ffffffffffffffffffffffffffffffffffffffff160217905550808273ffffffffffffffffffffffffffffffffffffffff166116ba83610d25565b73ffffffffffffffffffffffffffffffffffffffff167f8c5be1e5ebec7d5bd14f71427d1e84f3dd0314c0f7b2291e5b200ac8c7c3b92560405160405180910390a45050565b600061170b826115d3565b61174a576040517f08c379a0000000000000000000000000000000000000000000000000000000008152600401611741906141de565b60405180910390fd5b600061175583610d25565b90508073ffffffffffffffffffffffffffffffffffffffff168473ffffffffffffffffffffffffffffffffffffffff1614806117c457508373ffffffffffffffffffffffffffffffffffffffff166117ac8461094b565b73ffffffffffffffffffffffffffffffffffffffff16145b806117d557506117d481856113cd565b5b91505092915050565b8273ffffffffffffffffffffffffffffffffffffffff166117fe82610d25565b73ffffffffffffffffffffffffffffffffffffffff1614611854576040517f08c379a000000000000000000000000000000000000000000000000000000000815260040161184b90614130565b60405180910390fd5b600073ffffffffffffffffffffffffffffffffffffffff168273ffffffffffffffffffffffffffffffffffffffff1614156118c4576040517f08c379a00000000000000000000000000000000000000000000000000000000081526004016118bb9061419e565b60405180910390fd5b6118cf8383836127a4565b6118da600082611647565b6001600360008573ffffffffffffffffffffffffffffffffffffffff1673ffffffffffffffffffffffffffffffffffffffff168152602001908152602001600020600082825461192a919061459c565b925050819055506001600360008473ffffffffffffffffffffffffffffffffffffffff1673ffffffffffffffffffffffffffffffffffffffff16815260200190815260200160002060008282546119819190614515565b92505081905550816002600083815260200190815260200160002060006101000a81548173ffffffffffffffffffffffffffffffffffffffff021916908373ffffffffffffffffffffffffffffffffffffffff160217905550808273ffffffffffffffffffffffffffffffffffffffff168473ffffffffffffffffffffffffffffffffffffffff167fddf252ad1be2c89b69c2b068fc378daa952ba7f163c4a11628f55a4df523b3ef60405160405180910390a4611a408383836127b4565b505050565b611a4e816127b9565b50565b6000662386f26fc10000341415611a6b5760009050611ad8565b674563918244f40000341415611a845760019050611ad8565b677ce66c50e2840000341415611a9d5760029050611ad8565b6040517f08c379a0000000000000000000000000000000000000000000000000000000008152600401611acf9061435e565b60405180910390fd5b90565b6000806002811115611b16577f4e487b7100000000000000000000000000000000000000000000000000000000600052602160045260246000fd5b826002811115611b4f577f4e487b7100000000000000000000000000000000000000000000000000000000600052602160045260246000fd5b1415611bf35760011515601060003373ffffffffffffffffffffffffffffffffffffffff1673ffffffffffffffffffffffffffffffffffffffff16815260200190815260200160002060009054906101000a900460ff1615151415611be9576040517fb490537d000000000000000000000000000000000000000000000000000000008152600401611be09061429e565b60405180910390fd5b61ea5f9050611d35565b60016002811115611c2d577f4e487b7100000000000000000000000000000000000000000000000000000000600052602160045260246000fd5b826002811115611c66577f4e487b7100000000000000000000000000000000000000000000000000000000600052602160045260246000fd5b1415611c765761176f9050611d34565b600280811115611caf577f4e487b7100000000000000000000000000000000000000000000000000000000600052602160045260246000fd5b826002811115611ce8577f4e487b7100000000000000000000000000000000000000000000000000000000600052602160045260246000fd5b1415611cf8576107cf9050611d33565b6040517f08c379a0000000000000000000000000000000000000000000000000000000008152600401611d2a90614110565b60405180910390fd5b5b5b80600f6000846002811115611d73577f4e487b7100000000000000000000000000000000000000000000000000000000600052602160045260246000fd5b6002811115611dab577f4e487b7100000000000000000000000000000000000000000000000000000000600052602160045260246000fd5b81526020019081526020016000205410611dfc57806040517f25d0bf14000000000000000000000000000000000000000000000000000000008152600401611df39190614170565b60405180910390fd5b5050565b606060006002811115611e3c577f4e487b7100000000000000000000000000000000000000000000000000000000600052602160045260246000fd5b826002811115611e75577f4e487b7100000000000000000000000000000000000000000000000000000000600052602160045260246000fd5b1415611f5057600e600081548110611eb6577f4e487b7100000000000000000000000000000000000000000000000000000000600052603260045260246000fd5b906000526020600020018054611ecb906146b8565b80601f0160208091040260200160405190810160405280929190818152602001828054611ef7906146b8565b8015611f445780601f10611f1957610100808354040283529160200191611f44565b820191906000526020600020905b815481529060010190602001808311611f2757829003601f168201915b50505050509050612226565b60016002811115611f8a577f4e487b7100000000000000000000000000000000000000000000000000000000600052602160045260246000fd5b826002811115611fc3577f4e487b7100000000000000000000000000000000000000000000000000000000600052602160045260246000fd5b141561209e57600e600181548110612004577f4e487b7100000000000000000000000000000000000000000000000000000000600052603260045260246000fd5b906000526020600020018054612019906146b8565b80601f0160208091040260200160405190810160405280929190818152602001828054612045906146b8565b80156120925780601f1061206757610100808354040283529160200191612092565b820191906000526020600020905b81548152906001019060200180831161207557829003601f168201915b50505050509050612226565b6002808111156120d7577f4e487b7100000000000000000000000000000000000000000000000000000000600052602160045260246000fd5b826002811115612110577f4e487b7100000000000000000000000000000000000000000000000000000000600052602160045260246000fd5b14156121eb57600e600281548110612151577f4e487b7100000000000000000000000000000000000000000000000000000000600052603260045260246000fd5b906000526020600020018054612166906146b8565b80601f0160208091040260200160405190810160405280929190818152602001828054612192906146b8565b80156121df5780601f106121b4576101008083540402835291602001916121df565b820191906000526020600020905b8154815290600101906020018083116121c257829003601f168201915b50505050509050612226565b6040517f08c379a000000000000000000000000000000000000000000000000000000000815260040161221d90614110565b60405180910390fd5b919050565b600081600001549050919050565b6001816000016000828254019250508190555050565b61226982826040518060200160405280600081525061280c565b5050565b612276826115d3565b6122b5576040517f08c379a00000000000000000000000000000000000000000000000000000000081526004016122ac9061425e565b60405180910390fd5b80600a600084815260200190815260200160002090805190602001906122dc929190613512565b505050565b6000600b60009054906101000a900473ffffffffffffffffffffffffffffffffffffffff16905081600b60006101000a81548173ffffffffffffffffffffffffffffffffffffffff021916908373ffffffffffffffffffffffffffffffffffffffff1602179055508173ffffffffffffffffffffffffffffffffffffffff168173ffffffffffffffffffffffffffffffffffffffff167f8be0079c531659141344cd1fd0a4f28419497f9722a3daafe3b4186f6b6457e060405160405180910390a35050565b8173ffffffffffffffffffffffffffffffffffffffff168373ffffffffffffffffffffffffffffffffffffffff161415612416576040517f08c379a000000000000000000000000000000000000000000000000000000000815260040161240d906141be565b60405180910390fd5b80600560008573ffffffffffffffffffffffffffffffffffffffff1673ffffffffffffffffffffffffffffffffffffffff16815260200190815260200160002060008473ffffffffffffffffffffffffffffffffffffffff1673ffffffffffffffffffffffffffffffffffffffff16815260200190815260200160002060006101000a81548160ff0219169083151502179055508173ffffffffffffffffffffffffffffffffffffffff168373ffffffffffffffffffffffffffffffffffffffff167f17307eab39ab6107e8899845ad3d59bd9653f200f220920489ca2b5937696c31836040516125079190614073565b60405180910390a3505050565b61251f8484846117de565b61252b84848484612867565b61256a576040517f08c379a0000000000000000000000000000000000000000000000000000000008152600401612561906140d0565b60405180910390fd5b50505050565b606061257b826115d3565b6125ba576040517f08c379a00000000000000000000000000000000000000000000000000000000081526004016125b1906142be565b60405180910390fd5b6000600a600084815260200190815260200160002080546125da906146b8565b80601f0160208091040260200160405190810160405280929190818152602001828054612606906146b8565b80156126535780601f1061262857610100808354040283529160200191612653565b820191906000526020600020905b81548152906001019060200180831161263657829003601f168201915b5050505050905060006126646129fe565b905060008151141561267a5781925050506126bd565b6000825111156126af578082604051602001612697929190613fa4565b604051602081830303815290604052925050506126bd565b6126b884612a3b565b925050505b919050565b60007f80ac58cd000000000000000000000000000000000000000000000000000000007bffffffffffffffffffffffffffffffffffffffffffffffffffffffff1916827bffffffffffffffffffffffffffffffffffffffffffffffffffffffff1916148061278d57507f5b5e139f000000000000000000000000000000000000000000000000000000007bffffffffffffffffffffffffffffffffffffffffffffffffffffffff1916827bffffffffffffffffffffffffffffffffffffffffffffffffffffffff1916145b8061279d575061279c82612ae2565b5b9050919050565b6127af838383612b4c565b505050565b505050565b6127c281612c60565b6000600a600083815260200190815260200160002080546127e2906146b8565b90501461280957600a600082815260200190815260200160002060006128089190613598565b5b50565b6128168383612d7d565b6128236000848484612867565b612862576040517f08c379a0000000000000000000000000000000000000000000000000000000008152600401612859906140d0565b60405180910390fd5b505050565b60006128888473ffffffffffffffffffffffffffffffffffffffff16612f57565b156129f1578373ffffffffffffffffffffffffffffffffffffffff1663150b7a026128b161163f565b8786866040518563ffffffff1660e01b81526004016128d39493929190613fe3565b602060405180830381600087803b1580156128ed57600080fd5b505af192505050801561291e57506040513d601f19601f8201168201806040525081019061291b91906138c0565b60015b6129a1573d806000811461294e576040519150601f19603f3d011682016040523d82523d6000602084013e612953565b606091505b50600081511415612999576040517f08c379a0000000000000000000000000000000000000000000000000000000008152600401612990906140d0565b60405180910390fd5b805181602001fd5b63150b7a0260e01b7bffffffffffffffffffffffffffffffffffffffffffffffffffffffff1916817bffffffffffffffffffffffffffffffffffffffffffffffffffffffff1916149150506129f6565b600190505b949350505050565b60606040518060400160405280601581526020017f68747470733a2f2f697066732e696f2f697066732f0000000000000000000000815250905090565b6060612a46826115d3565b612a85576040517f08c379a0000000000000000000000000000000000000000000000000000000008152600401612a7c9061431e565b60405180910390fd5b6000612a8f6129fe565b90506000815111612aaf5760405180602001604052806000815250612ada565b80612ab984612f7a565b604051602001612aca929190613fa4565b6040516020818303038152906040525b915050919050565b60007f01ffc9a7000000000000000000000000000000000000000000000000000000007bffffffffffffffffffffffffffffffffffffffffffffffffffffffff1916827bffffffffffffffffffffffffffffffffffffffffffffffffffffffff1916149050919050565b612b57838383613127565b600073ffffffffffffffffffffffffffffffffffffffff168373ffffffffffffffffffffffffffffffffffffffff161415612b9a57612b958161312c565b612bd9565b8173ffffffffffffffffffffffffffffffffffffffff168373ffffffffffffffffffffffffffffffffffffffff1614612bd857612bd78382613175565b5b5b600073ffffffffffffffffffffffffffffffffffffffff168273ffffffffffffffffffffffffffffffffffffffff161415612c1c57612c17816132e2565b612c5b565b8273ffffffffffffffffffffffffffffffffffffffff168273ffffffffffffffffffffffffffffffffffffffff1614612c5a57612c598282613425565b5b5b505050565b6000612c6b82610d25565b9050612c79816000846127a4565b612c84600083611647565b6001600360008373ffffffffffffffffffffffffffffffffffffffff1673ffffffffffffffffffffffffffffffffffffffff1681526020019081526020016000206000828254612cd4919061459c565b925050819055506002600083815260200190815260200160002060006101000a81549073ffffffffffffffffffffffffffffffffffffffff021916905581600073ffffffffffffffffffffffffffffffffffffffff168273ffffffffffffffffffffffffffffffffffffffff167fddf252ad1be2c89b69c2b068fc378daa952ba7f163c4a11628f55a4df523b3ef60405160405180910390a4612d79816000846127b4565b5050565b600073ffffffffffffffffffffffffffffffffffffffff168273ffffffffffffffffffffffffffffffffffffffff161415612ded576040517f08c379a0000000000000000000000000000000000000000000000000000000008152600401612de49061427e565b60405180910390fd5b612df6816115d3565b15612e36576040517f08c379a0000000000000000000000000000000000000000000000000000000008152600401612e2d90614150565b60405180910390fd5b612e42600083836127a4565b6001600360008473ffffffffffffffffffffffffffffffffffffffff1673ffffffffffffffffffffffffffffffffffffffff1681526020019081526020016000206000828254612e929190614515565b92505081905550816002600083815260200190815260200160002060006101000a81548173ffffffffffffffffffffffffffffffffffffffff021916908373ffffffffffffffffffffffffffffffffffffffff160217905550808273ffffffffffffffffffffffffffffffffffffffff16600073ffffffffffffffffffffffffffffffffffffffff167fddf252ad1be2c89b69c2b068fc378daa952ba7f163c4a11628f55a4df523b3ef60405160405180910390a4612f53600083836127b4565b5050565b6000808273ffffffffffffffffffffffffffffffffffffffff163b119050919050565b60606000821415612fc2576040518060400160405280600181526020017f30000000000000000000000000000000000000000000000000000000000000008152509050613122565b600082905060005b60008214612ff4578080612fdd9061471b565b915050600a82612fed919061456b565b9150612fca565b60008167ffffffffffffffff811115613036577f4e487b7100000000000000000000000000000000000000000000000000000000600052604160045260246000fd5b6040519080825280601f01601f1916602001820160405280156130685781602001600182028036833780820191505090505b5090505b6000851461311b57600182613081919061459c565b9150600a856130909190614764565b603061309c9190614515565b60f81b8183815181106130d8577f4e487b7100000000000000000000000000000000000000000000000000000000600052603260045260246000fd5b60200101907effffffffffffffffffffffffffffffffffffffffffffffffffffffffffffff1916908160001a905350600a85613114919061456b565b945061306c565b8093505050505b919050565b505050565b6008805490506009600083815260200190815260200160002081905550600881908060018154018082558091505060019003906000526020600020016000909190919091505550565b600060016131828461106e565b61318c919061459c565b9050600060076000848152602001908152602001600020549050818114613271576000600660008673ffffffffffffffffffffffffffffffffffffffff1673ffffffffffffffffffffffffffffffffffffffff168152602001908152602001600020600084815260200190815260200160002054905080600660008773ffffffffffffffffffffffffffffffffffffffff1673ffffffffffffffffffffffffffffffffffffffff168152602001908152602001600020600084815260200190815260200160002081905550816007600083815260200190815260200160002081905550505b6007600084815260200190815260200160002060009055600660008573ffffffffffffffffffffffffffffffffffffffff1673ffffffffffffffffffffffffffffffffffffffff16815260200190815260200160002060008381526020019081526020016000206000905550505050565b600060016008805490506132f6919061459c565b905060006009600084815260200190815260200160002054905060006008838154811061334c577f4e487b7100000000000000000000000000000000000000000000000000000000600052603260045260246000fd5b906000526020600020015490508060088381548110613394577f4e487b7100000000000000000000000000000000000000000000000000000000600052603260045260246000fd5b906000526020600020018190555081600960008381526020019081526020016000208190555060096000858152602001908152602001600020600090556008805480613409577f4e487b7100000000000000000000000000000000000000000000000000000000600052603160045260246000fd5b6001900381819060005260206000200160009055905550505050565b60006134308361106e565b905081600660008573ffffffffffffffffffffffffffffffffffffffff1673ffffffffffffffffffffffffffffffffffffffff168152602001908152602001600020600083815260200190815260200160002081905550806007600084815260200190815260200160002081905550505050565b6040518060c0016040528060008152602001600060028111156134f0577f4e487b7100000000000000000000000000000000000000000000000000000000600052602160045260246000fd5b8152602001600081526020016000815260200160608152602001600081525090565b82805461351e906146b8565b90600052602060002090601f0160209004810192826135405760008555613587565b82601f1061355957805160ff1916838001178555613587565b82800160010185558215613587579182015b8281111561358657825182559160200191906001019061356b565b5b50905061359491906135d8565b5090565b5080546135a4906146b8565b6000825580601f106135b657506135d5565b601f0160209004906000526020600020908101906135d491906135d8565b5b50565b5b808211156135f15760008160009055506001016135d9565b5090565b60006136086136038461441e565b6143f9565b90508281526020810184848401111561362057600080fd5b61362b848285614676565b509392505050565b60008135905061364281614f52565b92915050565b60008135905061365781614f69565b92915050565b60008135905061366c81614f80565b92915050565b60008151905061368181614f80565b92915050565b600082601f83011261369857600080fd5b81356136a88482602086016135f5565b91505092915050565b6000813590506136c081614f97565b92915050565b6000813590506136d581614fa7565b92915050565b6000813590506136ea81614fbe565b92915050565b60006020828403121561370257600080fd5b600061371084828501613633565b91505092915050565b6000806040838503121561372c57600080fd5b600061373a85828601613633565b925050602061374b85828601613633565b9150509250929050565b60008060006060848603121561376a57600080fd5b600061377886828701613633565b935050602061378986828701613633565b925050604061379a868287016136c6565b9150509250925092565b600080600080608085870312156137ba57600080fd5b60006137c887828801613633565b94505060206137d987828801613633565b93505060406137ea878288016136c6565b925050606085013567ffffffffffffffff81111561380757600080fd5b61381387828801613687565b91505092959194509250565b6000806040838503121561383257600080fd5b600061384085828601613633565b925050602061385185828601613648565b9150509250929050565b6000806040838503121561386e57600080fd5b600061387c85828601613633565b925050602061388d858286016136c6565b9150509250929050565b6000602082840312156138a957600080fd5b60006138b78482850161365d565b91505092915050565b6000602082840312156138d257600080fd5b60006138e084828501613672565b91505092915050565b6000602082840312156138fb57600080fd5b6000613909848285016136b1565b91505092915050565b60006020828403121561392457600080fd5b6000613932848285016136c6565b91505092915050565b6000806040838503121561394e57600080fd5b600061395c858286016136c6565b925050602061396d858286016136db565b9150509250929050565b60006139838383613aef565b905092915050565b60006139978383613efd565b905092915050565b6139a8816145d0565b82525050565b60006139b98261446f565b6139c381856144b5565b9350836020820285016139d58561444f565b8060005b85811015613a1157848403895281516139f28582613977565b94506139fd8361449b565b925060208a019950506001810190506139d9565b50829750879550505050505092915050565b6000613a2e8261447a565b613a3881856144c6565b935083602082028501613a4a8561445f565b8060005b85811015613a865784840389528151613a67858261398b565b9450613a72836144a8565b925060208a01995050600181019050613a4e565b50829750879550505050505092915050565b613aa1816145e2565b82525050565b6000613ab282614485565b613abc81856144d7565b9350613acc818560208601614685565b613ad581614880565b840191505092915050565b613ae981614664565b82525050565b6000613afa82614490565b613b0481856144e8565b9350613b14818560208601614685565b613b1d81614880565b840191505092915050565b6000613b3382614490565b613b3d81856144f9565b9350613b4d818560208601614685565b613b5681614880565b840191505092915050565b6000613b6c82614490565b613b76818561450a565b9350613b86818560208601614685565b80840191505092915050565b6000613b9f602b836144f9565b9150613baa82614891565b604082019050919050565b6000613bc26032836144f9565b9150613bcd826148e0565b604082019050919050565b6000613be56026836144f9565b9150613bf08261492f565b604082019050919050565b6000613c08600f836144f9565b9150613c138261497e565b602082019050919050565b6000613c2b6025836144f9565b9150613c36826149a7565b604082019050919050565b6000613c4e601c836144f9565b9150613c59826149f6565b602082019050919050565b6000613c716030836144f9565b9150613c7c82614a1f565b604082019050919050565b6000613c946024836144f9565b9150613c9f82614a6e565b604082019050919050565b6000613cb76019836144f9565b9150613cc282614abd565b602082019050919050565b6000613cda602c836144f9565b9150613ce582614ae6565b604082019050919050565b6000613cfd6038836144f9565b9150613d0882614b35565b604082019050919050565b6000613d20602a836144f9565b9150613d2b82614b84565b604082019050919050565b6000613d436029836144f9565b9150613d4e82614bd3565b604082019050919050565b6000613d66602e836144f9565b9150613d7182614c22565b604082019050919050565b6000613d896020836144f9565b9150613d9482614c71565b602082019050919050565b6000613dac6020836144f9565b9150613db782614c9a565b602082019050919050565b6000613dcf6031836144f9565b9150613dda82614cc3565b604082019050919050565b6000613df2602c836144f9565b9150613dfd82614d12565b604082019050919050565b6000613e156020836144f9565b9150613e2082614d61565b602082019050919050565b6000613e38602f836144f9565b9150613e4382614d8a565b604082019050919050565b6000613e5b6021836144f9565b9150613e6682614dd9565b604082019050919050565b6000613e7e6014836144f9565b9150613e8982614e28565b602082019050919050565b6000613ea16031836144f9565b9150613eac82614e51565b604082019050919050565b6000613ec4602c836144f9565b9150613ecf82614ea0565b604082019050919050565b6000613ee76030836144f9565b9150613ef282614eef565b604082019050919050565b600060c083016000830151613f156000860182613f86565b506020830151613f286020860182613ae0565b506040830151613f3b6040860182613f86565b506060830151613f4e6060860182613f86565b5060808301518482036080860152613f668282613aef565b91505060a0830151613f7b60a0860182613f86565b508091505092915050565b613f8f8161464d565b82525050565b613f9e8161464d565b82525050565b6000613fb08285613b61565b9150613fbc8284613b61565b91508190509392505050565b6000602082019050613fdd600083018461399f565b92915050565b6000608082019050613ff8600083018761399f565b614005602083018661399f565b6140126040830185613f95565b81810360608301526140248184613aa7565b905095945050505050565b6000602082019050818103600083015261404981846139ae565b905092915050565b6000602082019050818103600083015261406b8184613a23565b905092915050565b60006020820190506140886000830184613a98565b92915050565b600060208201905081810360008301526140a88184613b28565b905092915050565b600060208201905081810360008301526140c981613b92565b9050919050565b600060208201905081810360008301526140e981613bb5565b9050919050565b6000602082019050818103600083015261410981613bd8565b9050919050565b6000602082019050818103600083015261412981613bfb565b9050919050565b6000602082019050818103600083015261414981613c1e565b9050919050565b6000602082019050818103600083015261416981613c41565b9050919050565b6000604082019050818103600083015261418981613c64565b90506141986020830184613f95565b92915050565b600060208201905081810360008301526141b781613c87565b9050919050565b600060208201905081810360008301526141d781613caa565b9050919050565b600060208201905081810360008301526141f781613ccd565b9050919050565b6000602082019050818103600083015261421781613cf0565b9050919050565b6000602082019050818103600083015261423781613d13565b9050919050565b6000602082019050818103600083015261425781613d36565b9050919050565b6000602082019050818103600083015261427781613d59565b9050919050565b6000602082019050818103600083015261429781613d7c565b9050919050565b600060208201905081810360008301526142b781613d9f565b9050919050565b600060208201905081810360008301526142d781613dc2565b9050919050565b600060208201905081810360008301526142f781613de5565b9050919050565b6000602082019050818103600083015261431781613e08565b9050919050565b6000602082019050818103600083015261433781613e2b565b9050919050565b6000602082019050818103600083015261435781613e4e565b9050919050565b6000602082019050818103600083015261437781613e71565b9050919050565b6000602082019050818103600083015261439781613e94565b9050919050565b600060208201905081810360008301526143b781613eb7565b9050919050565b600060208201905081810360008301526143d781613eda565b9050919050565b60006020820190506143f36000830184613f95565b92915050565b6000614403614414565b905061440f82826146ea565b919050565b6000604051905090565b600067ffffffffffffffff82111561443957614438614851565b5b61444282614880565b9050602081019050919050565b6000819050602082019050919050565b6000819050602082019050919050565b600081519050919050565b600081519050919050565b600081519050919050565b600081519050919050565b6000602082019050919050565b6000602082019050919050565b600082825260208201905092915050565b600082825260208201905092915050565b600082825260208201905092915050565b600082825260208201905092915050565b600082825260208201905092915050565b600081905092915050565b60006145208261464d565b915061452b8361464d565b9250827fffffffffffffffffffffffffffffffffffffffffffffffffffffffffffffffff038211156145605761455f614795565b5b828201905092915050565b60006145768261464d565b91506145818361464d565b925082614591576145906147c4565b5b828204905092915050565b60006145a78261464d565b91506145b28361464d565b9250828210156145c5576145c4614795565b5b828203905092915050565b60006145db8261462d565b9050919050565b60008115159050919050565b60007fffffffff0000000000000000000000000000000000000000000000000000000082169050919050565b600081905061462882614f3e565b919050565b600073ffffffffffffffffffffffffffffffffffffffff82169050919050565b6000819050919050565b600060ff82169050919050565b600061466f8261461a565b9050919050565b82818337600083830152505050565b60005b838110156146a3578082015181840152602081019050614688565b838111156146b2576000848401525b50505050565b600060028204905060018216806146d057607f821691505b602082108114156146e4576146e3614822565b5b50919050565b6146f382614880565b810181811067ffffffffffffffff8211171561471257614711614851565b5b80604052505050565b60006147268261464d565b91507fffffffffffffffffffffffffffffffffffffffffffffffffffffffffffffffff82141561475957614758614795565b5b600182019050919050565b600061476f8261464d565b915061477a8361464d565b92508261478a576147896147c4565b5b828206905092915050565b7f4e487b7100000000000000000000000000000000000000000000000000000000600052601160045260246000fd5b7f4e487b7100000000000000000000000000000000000000000000000000000000600052601260045260246000fd5b7f4e487b7100000000000000000000000000000000000000000000000000000000600052602160045260246000fd5b7f4e487b7100000000000000000000000000000000000000000000000000000000600052602260045260246000fd5b7f4e487b7100000000000000000000000000000000000000000000000000000000600052604160045260246000fd5b6000601f19601f8301169050919050565b7f455243373231456e756d657261626c653a206f776e657220696e646578206f7560008201527f74206f6620626f756e6473000000000000000000000000000000000000000000602082015250565b7f4552433732313a207472616e7366657220746f206e6f6e20455243373231526560008201527f63656976657220696d706c656d656e7465720000000000000000000000000000602082015250565b7f4f776e61626c653a206e6577206f776e657220697320746865207a65726f206160008201527f6464726573730000000000000000000000000000000000000000000000000000602082015250565b7f57726f6e67206c616e6420747970650000000000000000000000000000000000600082015250565b7f4552433732313a207472616e736665722066726f6d20696e636f72726563742060008201527f6f776e6572000000000000000000000000000000000000000000000000000000602082015250565b7f4552433732313a20746f6b656e20616c7265616479206d696e74656400000000600082015250565b7f596f752063616e2774206d696e74206c616e6473206f6620746869732074797060008201527f652c206c696d6974207265616368656400000000000000000000000000000000602082015250565b7f4552433732313a207472616e7366657220746f20746865207a65726f2061646460008201527f7265737300000000000000000000000000000000000000000000000000000000602082015250565b7f4552433732313a20617070726f766520746f2063616c6c657200000000000000600082015250565b7f4552433732313a206f70657261746f7220717565727920666f72206e6f6e657860008201527f697374656e7420746f6b656e0000000000000000000000000000000000000000602082015250565b7f4552433732313a20617070726f76652063616c6c6572206973206e6f74206f7760008201527f6e6572206e6f7220617070726f76656420666f7220616c6c0000000000000000602082015250565b7f4552433732313a2062616c616e636520717565727920666f7220746865207a6560008201527f726f206164647265737300000000000000000000000000000000000000000000602082015250565b7f4552433732313a206f776e657220717565727920666f72206e6f6e657869737460008201527f656e7420746f6b656e0000000000000000000000000000000000000000000000602082015250565b7f45524337323155524953746f726167653a2055524920736574206f66206e6f6e60008201527f6578697374656e7420746f6b656e000000000000000000000000000000000000602082015250565b7f4552433732313a206d696e7420746f20746865207a65726f2061646472657373600082015250565b7f596f752063616e206d696e74206a757374206f6e6520536d616c6c204c616e64600082015250565b7f45524337323155524953746f726167653a2055524920717565727920666f722060008201527f6e6f6e6578697374656e7420746f6b656e000000000000000000000000000000602082015250565b7f4552433732313a20617070726f76656420717565727920666f72206e6f6e657860008201527f697374656e7420746f6b656e0000000000000000000000000000000000000000602082015250565b7f4f776e61626c653a2063616c6c6572206973206e6f7420746865206f776e6572600082015250565b7f4552433732314d657461646174613a2055524920717565727920666f72206e6f60008201527f6e6578697374656e7420746f6b656e0000000000000000000000000000000000602082015250565b7f4552433732313a20617070726f76616c20746f2063757272656e74206f776e6560008201527f7200000000000000000000000000000000000000000000000000000000000000602082015250565b7f57726f6e67206465706f73697420616d6f756e74000000000000000000000000600082015250565b7f4552433732313a207472616e736665722063616c6c6572206973206e6f74206f60008201527f776e6572206e6f7220617070726f766564000000000000000000000000000000602082015250565b7f455243373231456e756d657261626c653a20676c6f62616c20696e646578206f60008201527f7574206f6620626f756e64730000000000000000000000000000000000000000602082015250565b7f4552433732314275726e61626c653a2063616c6c6572206973206e6f74206f7760008201527f6e6572206e6f7220617070726f76656400000000000000000000000000000000602082015250565b60038110614f4f57614f4e6147f3565b5b50565b614f5b816145d0565b8114614f6657600080fd5b50565b614f72816145e2565b8114614f7d57600080fd5b50565b614f89816145ee565b8114614f9457600080fd5b50565b60038110614fa457600080fd5b50565b614fb08161464d565b8114614fbb57600080fd5b50565b614fc781614657565b8114614fd257600080fd5b5056fea2646970667358221220b3166b137ed1b84e73a88f491861041e71446d0ca3337e7d974d628d6fc376c964736f6c634300080400336261666b7265696876636f72616978647978366a62726c6d6c667734357073726a6c6b77656d703769653377636b79653766726e796862646e6f696261666b72656967657a7566696837676d763664367866626d3361636b62767378786277356d70726c74336878356b767465376b6a6b6261786a756261666b72656965707a726d776365717535753662356478326a64727232767135756a6568696275347633327a64787267346a64677473326f7a71",
  "linkReferences": {},
  "deployedLinkReferences": {}
}