{
  "_format": "hh-sol-artifact-1",
  "contractName": "LandNFT",
  "sourceName": "src/backend/contracts/LandNFT.sol",
  "abi": [
    {
      "inputs": [
        {
          "internalType": "address",
          "name": "_contractMain",
          "type": "address"
        }
      ],
      "stateMutability": "nonpayable",
      "type": "constructor"
    },
    {
      "inputs": [
        {
          "internalType": "string",
          "name": "message",
          "type": "string"
        },
        {
          "internalType": "uint256",
          "name": "limit",
          "type": "uint256"
        }
      ],
      "name": "LandsLimitError",
      "type": "error"
    },
    {
      "inputs": [
        {
          "internalType": "string",
          "name": "message",
          "type": "string"
        }
      ],
      "name": "LandsSmallLimitError",
      "type": "error"
    },
    {
      "anonymous": false,
      "inputs": [
        {
          "indexed": true,
          "internalType": "address",
          "name": "owner",
          "type": "address"
        },
        {
          "indexed": true,
          "internalType": "address",
          "name": "approved",
          "type": "address"
        },
        {
          "indexed": true,
          "internalType": "uint256",
          "name": "tokenId",
          "type": "uint256"
        }
      ],
      "name": "Approval",
      "type": "event"
    },
    {
      "anonymous": false,
      "inputs": [
        {
          "indexed": true,
          "internalType": "address",
          "name": "owner",
          "type": "address"
        },
        {
          "indexed": true,
          "internalType": "address",
          "name": "operator",
          "type": "address"
        },
        {
          "indexed": false,
          "internalType": "bool",
          "name": "approved",
          "type": "bool"
        }
      ],
      "name": "ApprovalForAll",
      "type": "event"
    },
    {
      "anonymous": false,
      "inputs": [
        {
          "indexed": true,
          "internalType": "address",
          "name": "previousOwner",
          "type": "address"
        },
        {
          "indexed": true,
          "internalType": "address",
          "name": "newOwner",
          "type": "address"
        }
      ],
      "name": "OwnershipTransferred",
      "type": "event"
    },
    {
      "anonymous": false,
      "inputs": [
        {
          "indexed": true,
          "internalType": "address",
          "name": "from",
          "type": "address"
        },
        {
          "indexed": true,
          "internalType": "address",
          "name": "to",
          "type": "address"
        },
        {
          "indexed": true,
          "internalType": "uint256",
          "name": "tokenId",
          "type": "uint256"
        }
      ],
      "name": "Transfer",
      "type": "event"
    },
    {
      "inputs": [
        {
          "internalType": "address",
          "name": "to",
          "type": "address"
        },
        {
          "internalType": "uint256",
          "name": "tokenId",
          "type": "uint256"
        }
      ],
      "name": "approve",
      "outputs": [],
      "stateMutability": "nonpayable",
      "type": "function"
    },
    {
      "inputs": [
        {
          "internalType": "address",
          "name": "owner",
          "type": "address"
        }
      ],
      "name": "balanceOf",
      "outputs": [
        {
          "internalType": "uint256",
          "name": "",
          "type": "uint256"
        }
      ],
      "stateMutability": "view",
      "type": "function"
    },
    {
      "inputs": [
        {
          "internalType": "uint256",
          "name": "tokenId",
          "type": "uint256"
        }
      ],
      "name": "burn",
      "outputs": [],
      "stateMutability": "nonpayable",
      "type": "function"
    },
    {
      "inputs": [],
      "name": "getAllLandsMedia",
      "outputs": [
        {
          "internalType": "string[]",
          "name": "",
          "type": "string[]"
        }
      ],
      "stateMutability": "view",
      "type": "function"
    },
    {
      "inputs": [
        {
          "internalType": "uint256",
          "name": "tokenId",
          "type": "uint256"
        }
      ],
      "name": "getApproved",
      "outputs": [
        {
          "internalType": "address",
          "name": "",
          "type": "address"
        }
      ],
      "stateMutability": "view",
      "type": "function"
    },
    {
      "inputs": [
        {
          "internalType": "address",
          "name": "owner",
          "type": "address"
        },
        {
          "internalType": "address",
          "name": "operator",
          "type": "address"
        }
      ],
      "name": "isApprovedForAll",
      "outputs": [
        {
          "internalType": "bool",
          "name": "",
          "type": "bool"
        }
      ],
      "stateMutability": "view",
      "type": "function"
    },
    {
      "inputs": [
        {
          "internalType": "enum LandNFT.LandType",
          "name": "",
          "type": "uint8"
        }
      ],
      "name": "landTypeCount",
      "outputs": [
        {
          "internalType": "uint256",
          "name": "",
          "type": "uint256"
        }
      ],
      "stateMutability": "view",
      "type": "function"
    },
    {
      "inputs": [],
      "name": "name",
      "outputs": [
        {
          "internalType": "string",
          "name": "",
          "type": "string"
        }
      ],
      "stateMutability": "view",
      "type": "function"
    },
    {
      "inputs": [],
      "name": "owner",
      "outputs": [
        {
          "internalType": "address",
          "name": "",
          "type": "address"
        }
      ],
      "stateMutability": "view",
      "type": "function"
    },
    {
      "inputs": [
        {
          "internalType": "uint256",
          "name": "tokenId",
          "type": "uint256"
        }
      ],
      "name": "ownerOf",
      "outputs": [
        {
          "internalType": "address",
          "name": "",
          "type": "address"
        }
      ],
      "stateMutability": "view",
      "type": "function"
    },
    {
      "inputs": [],
      "name": "renounceOwnership",
      "outputs": [],
      "stateMutability": "nonpayable",
      "type": "function"
    },
    {
      "inputs": [],
      "name": "safeMint",
      "outputs": [
        {
          "internalType": "uint256",
          "name": "",
          "type": "uint256"
        }
      ],
      "stateMutability": "payable",
      "type": "function"
    },
    {
      "inputs": [
        {
          "internalType": "address",
          "name": "from",
          "type": "address"
        },
        {
          "internalType": "address",
          "name": "to",
          "type": "address"
        },
        {
          "internalType": "uint256",
          "name": "tokenId",
          "type": "uint256"
        }
      ],
      "name": "safeTransferFrom",
      "outputs": [],
      "stateMutability": "nonpayable",
      "type": "function"
    },
    {
      "inputs": [
        {
          "internalType": "address",
          "name": "from",
          "type": "address"
        },
        {
          "internalType": "address",
          "name": "to",
          "type": "address"
        },
        {
          "internalType": "uint256",
          "name": "tokenId",
          "type": "uint256"
        },
        {
          "internalType": "bytes",
          "name": "_data",
          "type": "bytes"
        }
      ],
      "name": "safeTransferFrom",
      "outputs": [],
      "stateMutability": "nonpayable",
      "type": "function"
    },
    {
      "inputs": [
        {
          "internalType": "address",
          "name": "operator",
          "type": "address"
        },
        {
          "internalType": "bool",
          "name": "approved",
          "type": "bool"
        }
      ],
      "name": "setApprovalForAll",
      "outputs": [],
      "stateMutability": "nonpayable",
      "type": "function"
    },
    {
      "inputs": [
        {
          "internalType": "bytes4",
          "name": "_interfaceId",
          "type": "bytes4"
        }
      ],
      "name": "supportsInterface",
      "outputs": [
        {
          "internalType": "bool",
          "name": "",
          "type": "bool"
        }
      ],
      "stateMutability": "view",
      "type": "function"
    },
    {
      "inputs": [],
      "name": "symbol",
      "outputs": [
        {
          "internalType": "string",
          "name": "",
          "type": "string"
        }
      ],
      "stateMutability": "view",
      "type": "function"
    },
    {
      "inputs": [
        {
          "internalType": "uint256",
          "name": "index",
          "type": "uint256"
        }
      ],
      "name": "tokenByIndex",
      "outputs": [
        {
          "internalType": "uint256",
          "name": "",
          "type": "uint256"
        }
      ],
      "stateMutability": "view",
      "type": "function"
    },
    {
      "inputs": [
        {
          "internalType": "address",
          "name": "owner",
          "type": "address"
        },
        {
          "internalType": "uint256",
          "name": "index",
          "type": "uint256"
        }
      ],
      "name": "tokenOfOwnerByIndex",
      "outputs": [
        {
          "internalType": "uint256",
          "name": "",
          "type": "uint256"
        }
      ],
      "stateMutability": "view",
      "type": "function"
    },
    {
      "inputs": [
        {
          "internalType": "uint256",
          "name": "_tokenId",
          "type": "uint256"
        }
      ],
      "name": "tokenURI",
      "outputs": [
        {
          "internalType": "string",
          "name": "",
          "type": "string"
        }
      ],
      "stateMutability": "view",
      "type": "function"
    },
    {
      "inputs": [],
      "name": "totalSupply",
      "outputs": [
        {
          "internalType": "uint256",
          "name": "",
          "type": "uint256"
        }
      ],
      "stateMutability": "view",
      "type": "function"
    },
    {
      "inputs": [
        {
          "internalType": "address",
          "name": "from",
          "type": "address"
        },
        {
          "internalType": "address",
          "name": "to",
          "type": "address"
        },
        {
          "internalType": "uint256",
          "name": "tokenId",
          "type": "uint256"
        }
      ],
      "name": "transferFrom",
      "outputs": [],
      "stateMutability": "nonpayable",
      "type": "function"
    },
    {
      "inputs": [
        {
          "internalType": "address",
          "name": "newOwner",
          "type": "address"
        }
      ],
      "name": "transferOwnership",
      "outputs": [],
      "stateMutability": "nonpayable",
      "type": "function"
    },
    {
      "inputs": [
        {
          "internalType": "uint256",
          "name": "index",
          "type": "uint256"
        }
      ],
      "name": "userLandByIndex",
      "outputs": [
        {
          "components": [
            {
              "internalType": "uint256",
              "name": "tokenId",
              "type": "uint256"
            },
            {
              "internalType": "enum LandNFT.LandType",
              "name": "landType",
              "type": "uint8"
            },
            {
              "internalType": "uint256",
              "name": "lastZombieClaim",
              "type": "uint256"
            },
            {
              "internalType": "uint256",
              "name": "salePrice",
              "type": "uint256"
            },
            {
              "internalType": "string",
              "name": "nftType",
              "type": "string"
            },
            {
              "internalType": "uint256",
              "name": "discoverEvents",
              "type": "uint256"
            }
          ],
          "internalType": "struct LandNFT.Land",
          "name": "",
          "type": "tuple"
        }
      ],
      "stateMutability": "view",
      "type": "function"
    }
  ],
  "bytecode": "0x60806040523480156200001157600080fd5b50604051620052f7380380620052f78339818101604052810190620000379190620003d0565b6040518060400160405280600781526020017f5a6f6d4c616e64000000000000000000000000000000000000000000000000008152506040518060400160405280600481526020017f5a4d4c4c000000000000000000000000000000000000000000000000000000008152508160009080519060200190620000bb92919062000309565b508060019080519060200190620000d492919062000309565b505050620000f7620000eb6200023b60201b60201c565b6200024360201b60201c565b80600d60006101000a81548173ffffffffffffffffffffffffffffffffffffffff021916908373ffffffffffffffffffffffffffffffffffffffff160217905550600e80600181540180825580915050600190039060005260206000200160006040518060600160405280603b815260200162005246603b9139909190915090805190602001906200018b92919062000309565b50600e80600181540180825580915050600190039060005260206000200160006040518060600160405280603b8152602001620052bc603b913990919091509080519060200190620001df92919062000309565b50600e80600181540180825580915050600190039060005260206000200160006040518060600160405280603b815260200162005281603b9139909190915090805190602001906200023392919062000309565b5050620004af565b600033905090565b6000600b60009054906101000a900473ffffffffffffffffffffffffffffffffffffffff16905081600b60006101000a81548173ffffffffffffffffffffffffffffffffffffffff021916908373ffffffffffffffffffffffffffffffffffffffff1602179055508173ffffffffffffffffffffffffffffffffffffffff168173ffffffffffffffffffffffffffffffffffffffff167f8be0079c531659141344cd1fd0a4f28419497f9722a3daafe3b4186f6b6457e060405160405180910390a35050565b828054620003179062000430565b90600052602060002090601f0160209004810192826200033b576000855562000387565b82601f106200035657805160ff191683800117855562000387565b8280016001018555821562000387579182015b828111156200038657825182559160200191906001019062000369565b5b5090506200039691906200039a565b5090565b5b80821115620003b55760008160009055506001016200039b565b5090565b600081519050620003ca8162000495565b92915050565b600060208284031215620003e357600080fd5b6000620003f384828501620003b9565b91505092915050565b6000620004098262000410565b9050919050565b600073ffffffffffffffffffffffffffffffffffffffff82169050919050565b600060028204905060018216806200044957607f821691505b6020821081141562000460576200045f62000466565b5b50919050565b7f4e487b7100000000000000000000000000000000000000000000000000000000600052602260045260246000fd5b620004a081620003fc565b8114620004ac57600080fd5b50565b614d8780620004bf6000396000f3fe60806040526004361061014b5760003560e01c80636352211e116100b6578063a22cb4651161006f578063a22cb465146104bd578063b88d4fde146104e6578063c87b56dd1461050f578063e4c33d711461054c578063e985e9c514610577578063f2fde38b146105b45761014b565b80636352211e146103b85780636871ee40146103f557806370a0823114610413578063715018a6146104505780638da5cb5b1461046757806395d89b41146104925761014b565b806323b872dd1161010857806323b872dd146102865780632f745c59146102af57806342842e0e146102ec57806342966c6814610315578063469046981461033e5780634f6ccce71461037b5761014b565b806301ffc9a71461015057806306fdde031461018d578063081812fc146101b8578063095ea7b3146101f557806317300fcc1461021e57806318160ddd1461025b575b600080fd5b34801561015c57600080fd5b5061017760048036038101906101729190613735565b6105dd565b6040516101849190613e2a565b60405180910390f35b34801561019957600080fd5b506101a26105ef565b6040516101af9190613e45565b60405180910390f35b3480156101c457600080fd5b506101df60048036038101906101da91906137b0565b610681565b6040516101ec9190613da1565b60405180910390f35b34801561020157600080fd5b5061021c600480360381019061021791906136f9565b610706565b005b34801561022a57600080fd5b5061024560048036038101906102409190613787565b61081e565b60405161025291906141b7565b60405180910390f35b34801561026757600080fd5b50610270610836565b60405161027d91906141b7565b60405180910390f35b34801561029257600080fd5b506102ad60048036038101906102a891906135f3565b610843565b005b3480156102bb57600080fd5b506102d660048036038101906102d191906136f9565b6108a3565b6040516102e391906141b7565b60405180910390f35b3480156102f857600080fd5b50610313600480360381019061030e91906135f3565b610948565b005b34801561032157600080fd5b5061033c600480360381019061033791906137b0565b610968565b005b34801561034a57600080fd5b50610365600480360381019061036091906137b0565b6109c4565b6040516103729190614195565b60405180910390f35b34801561038757600080fd5b506103a2600480360381019061039d91906137b0565b610b41565b6040516103af91906141b7565b60405180910390f35b3480156103c457600080fd5b506103df60048036038101906103da91906137b0565b610bd8565b6040516103ec9190613da1565b60405180910390f35b6103fd610c8a565b60405161040a91906141b7565b60405180910390f35b34801561041f57600080fd5b5061043a6004803603810190610435919061358e565b610f21565b60405161044791906141b7565b60405180910390f35b34801561045c57600080fd5b50610465610fd9565b005b34801561047357600080fd5b5061047c611061565b6040516104899190613da1565b60405180910390f35b34801561049e57600080fd5b506104a761108b565b6040516104b49190613e45565b60405180910390f35b3480156104c957600080fd5b506104e460048036038101906104df91906136bd565b61111d565b005b3480156104f257600080fd5b5061050d60048036038101906105089190613642565b611133565b005b34801561051b57600080fd5b50610536600480360381019061053191906137b0565b611195565b6040516105439190613e45565b60405180910390f35b34801561055857600080fd5b506105616111a7565b60405161056e9190613e08565b60405180910390f35b34801561058357600080fd5b5061059e600480360381019061059991906135b7565b611280565b6040516105ab9190613e2a565b60405180910390f35b3480156105c057600080fd5b506105db60048036038101906105d6919061358e565b611314565b005b60006105e88261140c565b9050919050565b6060600080546105fe9061444b565b80601f016020809104026020016040519081016040528092919081815260200182805461062a9061444b565b80156106775780601f1061064c57610100808354040283529160200191610677565b820191906000526020600020905b81548152906001019060200180831161065a57829003601f168201915b5050505050905090565b600061068c82611486565b6106cb576040517f08c379a00000000000000000000000000000000000000000000000000000000081526004016106c290614095565b60405180910390fd5b6004600083815260200190815260200160002060009054906101000a900473ffffffffffffffffffffffffffffffffffffffff169050919050565b600061071182610bd8565b90508073ffffffffffffffffffffffffffffffffffffffff168373ffffffffffffffffffffffffffffffffffffffff161415610782576040517f08c379a0000000000000000000000000000000000000000000000000000000008152600401610779906140f5565b60405180910390fd5b8073ffffffffffffffffffffffffffffffffffffffff166107a16114f2565b73ffffffffffffffffffffffffffffffffffffffff1614806107d057506107cf816107ca6114f2565b611280565b5b61080f576040517f08c379a000000000000000000000000000000000000000000000000000000000815260040161080690613fb5565b60405180910390fd5b61081983836114fa565b505050565b600f6020528060005260406000206000915090505481565b6000600880549050905090565b61085461084e6114f2565b826115b3565b610893576040517f08c379a000000000000000000000000000000000000000000000000000000000815260040161088a90614135565b60405180910390fd5b61089e838383611691565b505050565b60006108ae83610f21565b82106108ef576040517f08c379a00000000000000000000000000000000000000000000000000000000081526004016108e690613e67565b60405180910390fd5b600660008473ffffffffffffffffffffffffffffffffffffffff1673ffffffffffffffffffffffffffffffffffffffff168152602001908152602001600020600083815260200190815260200160002054905092915050565b61096383838360405180602001604052806000815250611133565b505050565b6109796109736114f2565b826115b3565b6109b8576040517f08c379a00000000000000000000000000000000000000000000000000000000081526004016109af90614175565b60405180910390fd5b6109c1816118f8565b50565b6109cc613357565b60006109d833846108a3565b9050601160008281526020019081526020016000206040518060c0016040529081600082015481526020016001820160009054906101000a900460ff166002811115610a4d577f4e487b7100000000000000000000000000000000000000000000000000000000600052602160045260246000fd5b6002811115610a85577f4e487b7100000000000000000000000000000000000000000000000000000000600052602160045260246000fd5b81526020016002820154815260200160038201548152602001600482018054610aad9061444b565b80601f0160208091040260200160405190810160405280929190818152602001828054610ad99061444b565b8015610b265780601f10610afb57610100808354040283529160200191610b26565b820191906000526020600020905b815481529060010190602001808311610b0957829003601f168201915b50505050508152602001600582015481525050915050919050565b6000610b4b610836565b8210610b8c576040517f08c379a0000000000000000000000000000000000000000000000000000000008152600401610b8390614155565b60405180910390fd5b60088281548110610bc6577f4e487b7100000000000000000000000000000000000000000000000000000000600052603260045260246000fd5b90600052602060002001549050919050565b6000806002600084815260200190815260200160002060009054906101000a900473ffffffffffffffffffffffffffffffffffffffff169050600073ffffffffffffffffffffffffffffffffffffffff168173ffffffffffffffffffffffffffffffffffffffff161415610c81576040517f08c379a0000000000000000000000000000000000000000000000000000000008152600401610c7890613ff5565b60405180910390fd5b80915050919050565b600080610c95611904565b9050610ca08161198e565b6000610cab82611cb3565b90506000610cb9600c6120de565b9050610cc5600c6120ec565b610ccf3382612102565b610cd98183612120565b600f6000846002811115610d16577f4e487b7100000000000000000000000000000000000000000000000000000000600052602160045260246000fd5b6002811115610d4e577f4e487b7100000000000000000000000000000000000000000000000000000000600052602160045260246000fd5b81526020019081526020016000206000815480929190610d6d906144ae565b91905055506001601060003373ffffffffffffffffffffffffffffffffffffffff1673ffffffffffffffffffffffffffffffffffffffff16815260200190815260200160002060006101000a81548160ff0219169083151502179055506040518060c00160405280828152602001846002811115610e14577f4e487b7100000000000000000000000000000000000000000000000000000000600052602160045260246000fd5b815260200160008152602001600081526020016040518060400160405280600481526020017f6c616e640000000000000000000000000000000000000000000000000000000081525081526020016000815250601160008381526020019081526020016000206000820151816000015560208201518160010160006101000a81548160ff02191690836002811115610ed5577f4e487b7100000000000000000000000000000000000000000000000000000000600052602160045260246000fd5b021790555060408201518160020155606082015181600301556080820151816004019080519060200190610f0a9291906133c5565b5060a0820151816005015590505080935050505090565b60008073ffffffffffffffffffffffffffffffffffffffff168273ffffffffffffffffffffffffffffffffffffffff161415610f92576040517f08c379a0000000000000000000000000000000000000000000000000000000008152600401610f8990613fd5565b60405180910390fd5b600360008373ffffffffffffffffffffffffffffffffffffffff1673ffffffffffffffffffffffffffffffffffffffff168152602001908152602001600020549050919050565b610fe16114f2565b73ffffffffffffffffffffffffffffffffffffffff16610fff611061565b73ffffffffffffffffffffffffffffffffffffffff1614611055576040517f08c379a000000000000000000000000000000000000000000000000000000000815260040161104c906140b5565b60405180910390fd5b61105f6000612194565b565b6000600b60009054906101000a900473ffffffffffffffffffffffffffffffffffffffff16905090565b60606001805461109a9061444b565b80601f01602080910402602001604051908101604052809291908181526020018280546110c69061444b565b80156111135780601f106110e857610100808354040283529160200191611113565b820191906000526020600020905b8154815290600101906020018083116110f657829003601f168201915b5050505050905090565b61112f6111286114f2565b838361225a565b5050565b61114461113e6114f2565b836115b3565b611183576040517f08c379a000000000000000000000000000000000000000000000000000000000815260040161117a90614135565b60405180910390fd5b61118f848484846123c7565b50505050565b60606111a082612423565b9050919050565b6060600e805480602002602001604051908101604052809291908181526020016000905b828210156112775783829060005260206000200180546111ea9061444b565b80601f01602080910402602001604051908101604052809291908181526020018280546112169061444b565b80156112635780601f1061123857610100808354040283529160200191611263565b820191906000526020600020905b81548152906001019060200180831161124657829003601f168201915b5050505050815260200190600101906111cb565b50505050905090565b6000600560008473ffffffffffffffffffffffffffffffffffffffff1673ffffffffffffffffffffffffffffffffffffffff16815260200190815260200160002060008373ffffffffffffffffffffffffffffffffffffffff1673ffffffffffffffffffffffffffffffffffffffff16815260200190815260200160002060009054906101000a900460ff16905092915050565b61131c6114f2565b73ffffffffffffffffffffffffffffffffffffffff1661133a611061565b73ffffffffffffffffffffffffffffffffffffffff1614611390576040517f08c379a0000000000000000000000000000000000000000000000000000000008152600401611387906140b5565b60405180910390fd5b600073ffffffffffffffffffffffffffffffffffffffff168173ffffffffffffffffffffffffffffffffffffffff161415611400576040517f08c379a00000000000000000000000000000000000000000000000000000000081526004016113f790613ea7565b60405180910390fd5b61140981612194565b50565b60007f780e9d63000000000000000000000000000000000000000000000000000000007bffffffffffffffffffffffffffffffffffffffffffffffffffffffff1916827bffffffffffffffffffffffffffffffffffffffffffffffffffffffff1916148061147f575061147e82612575565b5b9050919050565b60008073ffffffffffffffffffffffffffffffffffffffff166002600084815260200190815260200160002060009054906101000a900473ffffffffffffffffffffffffffffffffffffffff1673ffffffffffffffffffffffffffffffffffffffff1614159050919050565b600033905090565b816004600083815260200190815260200160002060006101000a81548173ffffffffffffffffffffffffffffffffffffffff021916908373ffffffffffffffffffffffffffffffffffffffff160217905550808273ffffffffffffffffffffffffffffffffffffffff1661156d83610bd8565b73ffffffffffffffffffffffffffffffffffffffff167f8c5be1e5ebec7d5bd14f71427d1e84f3dd0314c0f7b2291e5b200ac8c7c3b92560405160405180910390a45050565b60006115be82611486565b6115fd576040517f08c379a00000000000000000000000000000000000000000000000000000000081526004016115f490613f95565b60405180910390fd5b600061160883610bd8565b90508073ffffffffffffffffffffffffffffffffffffffff168473ffffffffffffffffffffffffffffffffffffffff16148061167757508373ffffffffffffffffffffffffffffffffffffffff1661165f84610681565b73ffffffffffffffffffffffffffffffffffffffff16145b8061168857506116878185611280565b5b91505092915050565b8273ffffffffffffffffffffffffffffffffffffffff166116b182610bd8565b73ffffffffffffffffffffffffffffffffffffffff1614611707576040517f08c379a00000000000000000000000000000000000000000000000000000000081526004016116fe90613ee7565b60405180910390fd5b600073ffffffffffffffffffffffffffffffffffffffff168273ffffffffffffffffffffffffffffffffffffffff161415611777576040517f08c379a000000000000000000000000000000000000000000000000000000000815260040161176e90613f55565b60405180910390fd5b611782838383612657565b61178d6000826114fa565b6001600360008573ffffffffffffffffffffffffffffffffffffffff1673ffffffffffffffffffffffffffffffffffffffff16815260200190815260200160002060008282546117dd919061433c565b925050819055506001600360008473ffffffffffffffffffffffffffffffffffffffff1673ffffffffffffffffffffffffffffffffffffffff168152602001908152602001600020600082825461183491906142b5565b92505081905550816002600083815260200190815260200160002060006101000a81548173ffffffffffffffffffffffffffffffffffffffff021916908373ffffffffffffffffffffffffffffffffffffffff160217905550808273ffffffffffffffffffffffffffffffffffffffff168473ffffffffffffffffffffffffffffffffffffffff167fddf252ad1be2c89b69c2b068fc378daa952ba7f163c4a11628f55a4df523b3ef60405160405180910390a46118f3838383612667565b505050565b6119018161266c565b50565b6000662386f26fc1000034141561191e576000905061198b565b674563918244f40000341415611937576001905061198b565b677ce66c50e2840000341415611950576002905061198b565b6040517f08c379a000000000000000000000000000000000000000000000000000000000815260040161198290614115565b60405180910390fd5b90565b60008060028111156119c9577f4e487b7100000000000000000000000000000000000000000000000000000000600052602160045260246000fd5b826002811115611a02577f4e487b7100000000000000000000000000000000000000000000000000000000600052602160045260246000fd5b1415611aa65760011515601060003373ffffffffffffffffffffffffffffffffffffffff1673ffffffffffffffffffffffffffffffffffffffff16815260200190815260200160002060009054906101000a900460ff1615151415611a9c576040517fb490537d000000000000000000000000000000000000000000000000000000008152600401611a9390614055565b60405180910390fd5b61ea5f9050611be8565b60016002811115611ae0577f4e487b7100000000000000000000000000000000000000000000000000000000600052602160045260246000fd5b826002811115611b19577f4e487b7100000000000000000000000000000000000000000000000000000000600052602160045260246000fd5b1415611b295761176f9050611be7565b600280811115611b62577f4e487b7100000000000000000000000000000000000000000000000000000000600052602160045260246000fd5b826002811115611b9b577f4e487b7100000000000000000000000000000000000000000000000000000000600052602160045260246000fd5b1415611bab576107cf9050611be6565b6040517f08c379a0000000000000000000000000000000000000000000000000000000008152600401611bdd90613ec7565b60405180910390fd5b5b5b80600f6000846002811115611c26577f4e487b7100000000000000000000000000000000000000000000000000000000600052602160045260246000fd5b6002811115611c5e577f4e487b7100000000000000000000000000000000000000000000000000000000600052602160045260246000fd5b81526020019081526020016000205410611caf57806040517f25d0bf14000000000000000000000000000000000000000000000000000000008152600401611ca69190613f27565b60405180910390fd5b5050565b606060006002811115611cef577f4e487b7100000000000000000000000000000000000000000000000000000000600052602160045260246000fd5b826002811115611d28577f4e487b7100000000000000000000000000000000000000000000000000000000600052602160045260246000fd5b1415611e0357600e600081548110611d69577f4e487b7100000000000000000000000000000000000000000000000000000000600052603260045260246000fd5b906000526020600020018054611d7e9061444b565b80601f0160208091040260200160405190810160405280929190818152602001828054611daa9061444b565b8015611df75780601f10611dcc57610100808354040283529160200191611df7565b820191906000526020600020905b815481529060010190602001808311611dda57829003601f168201915b505050505090506120d9565b60016002811115611e3d577f4e487b7100000000000000000000000000000000000000000000000000000000600052602160045260246000fd5b826002811115611e76577f4e487b7100000000000000000000000000000000000000000000000000000000600052602160045260246000fd5b1415611f5157600e600181548110611eb7577f4e487b7100000000000000000000000000000000000000000000000000000000600052603260045260246000fd5b906000526020600020018054611ecc9061444b565b80601f0160208091040260200160405190810160405280929190818152602001828054611ef89061444b565b8015611f455780601f10611f1a57610100808354040283529160200191611f45565b820191906000526020600020905b815481529060010190602001808311611f2857829003601f168201915b505050505090506120d9565b600280811115611f8a577f4e487b7100000000000000000000000000000000000000000000000000000000600052602160045260246000fd5b826002811115611fc3577f4e487b7100000000000000000000000000000000000000000000000000000000600052602160045260246000fd5b141561209e57600e600281548110612004577f4e487b7100000000000000000000000000000000000000000000000000000000600052603260045260246000fd5b9060005260206000200180546120199061444b565b80601f01602080910402602001604051908101604052809291908181526020018280546120459061444b565b80156120925780601f1061206757610100808354040283529160200191612092565b820191906000526020600020905b81548152906001019060200180831161207557829003601f168201915b505050505090506120d9565b6040517f08c379a00000000000000000000000000000000000000000000000000000000081526004016120d090613ec7565b60405180910390fd5b919050565b600081600001549050919050565b6001816000016000828254019250508190555050565b61211c8282604051806020016040528060008152506126bf565b5050565b61212982611486565b612168576040517f08c379a000000000000000000000000000000000000000000000000000000000815260040161215f90614015565b60405180910390fd5b80600a6000848152602001908152602001600020908051906020019061218f9291906133c5565b505050565b6000600b60009054906101000a900473ffffffffffffffffffffffffffffffffffffffff16905081600b60006101000a81548173ffffffffffffffffffffffffffffffffffffffff021916908373ffffffffffffffffffffffffffffffffffffffff1602179055508173ffffffffffffffffffffffffffffffffffffffff168173ffffffffffffffffffffffffffffffffffffffff167f8be0079c531659141344cd1fd0a4f28419497f9722a3daafe3b4186f6b6457e060405160405180910390a35050565b8173ffffffffffffffffffffffffffffffffffffffff168373ffffffffffffffffffffffffffffffffffffffff1614156122c9576040517f08c379a00000000000000000000000000000000000000000000000000000000081526004016122c090613f75565b60405180910390fd5b80600560008573ffffffffffffffffffffffffffffffffffffffff1673ffffffffffffffffffffffffffffffffffffffff16815260200190815260200160002060008473ffffffffffffffffffffffffffffffffffffffff1673ffffffffffffffffffffffffffffffffffffffff16815260200190815260200160002060006101000a81548160ff0219169083151502179055508173ffffffffffffffffffffffffffffffffffffffff168373ffffffffffffffffffffffffffffffffffffffff167f17307eab39ab6107e8899845ad3d59bd9653f200f220920489ca2b5937696c31836040516123ba9190613e2a565b60405180910390a3505050565b6123d2848484611691565b6123de8484848461271a565b61241d576040517f08c379a000000000000000000000000000000000000000000000000000000000815260040161241490613e87565b60405180910390fd5b50505050565b606061242e82611486565b61246d576040517f08c379a000000000000000000000000000000000000000000000000000000000815260040161246490614075565b60405180910390fd5b6000600a6000848152602001908152602001600020805461248d9061444b565b80601f01602080910402602001604051908101604052809291908181526020018280546124b99061444b565b80156125065780601f106124db57610100808354040283529160200191612506565b820191906000526020600020905b8154815290600101906020018083116124e957829003601f168201915b5050505050905060006125176128b1565b905060008151141561252d578192505050612570565b60008251111561256257808260405160200161254a929190613d7d565b60405160208183030381529060405292505050612570565b61256b846128ee565b925050505b919050565b60007f80ac58cd000000000000000000000000000000000000000000000000000000007bffffffffffffffffffffffffffffffffffffffffffffffffffffffff1916827bffffffffffffffffffffffffffffffffffffffffffffffffffffffff1916148061264057507f5b5e139f000000000000000000000000000000000000000000000000000000007bffffffffffffffffffffffffffffffffffffffffffffffffffffffff1916827bffffffffffffffffffffffffffffffffffffffffffffffffffffffff1916145b80612650575061264f82612995565b5b9050919050565b6126628383836129ff565b505050565b505050565b61267581612b13565b6000600a600083815260200190815260200160002080546126959061444b565b9050146126bc57600a600082815260200190815260200160002060006126bb919061344b565b5b50565b6126c98383612c30565b6126d6600084848461271a565b612715576040517f08c379a000000000000000000000000000000000000000000000000000000000815260040161270c90613e87565b60405180910390fd5b505050565b600061273b8473ffffffffffffffffffffffffffffffffffffffff16612e0a565b156128a4578373ffffffffffffffffffffffffffffffffffffffff1663150b7a026127646114f2565b8786866040518563ffffffff1660e01b81526004016127869493929190613dbc565b602060405180830381600087803b1580156127a057600080fd5b505af19250505080156127d157506040513d601f19601f820116820180604052508101906127ce919061375e565b60015b612854573d8060008114612801576040519150601f19603f3d011682016040523d82523d6000602084013e612806565b606091505b5060008151141561284c576040517f08c379a000000000000000000000000000000000000000000000000000000000815260040161284390613e87565b60405180910390fd5b805181602001fd5b63150b7a0260e01b7bffffffffffffffffffffffffffffffffffffffffffffffffffffffff1916817bffffffffffffffffffffffffffffffffffffffffffffffffffffffff1916149150506128a9565b600190505b949350505050565b60606040518060400160405280601581526020017f68747470733a2f2f697066732e696f2f697066732f0000000000000000000000815250905090565b60606128f982611486565b612938576040517f08c379a000000000000000000000000000000000000000000000000000000000815260040161292f906140d5565b60405180910390fd5b60006129426128b1565b90506000815111612962576040518060200160405280600081525061298d565b8061296c84612e2d565b60405160200161297d929190613d7d565b6040516020818303038152906040525b915050919050565b60007f01ffc9a7000000000000000000000000000000000000000000000000000000007bffffffffffffffffffffffffffffffffffffffffffffffffffffffff1916827bffffffffffffffffffffffffffffffffffffffffffffffffffffffff1916149050919050565b612a0a838383612fda565b600073ffffffffffffffffffffffffffffffffffffffff168373ffffffffffffffffffffffffffffffffffffffff161415612a4d57612a4881612fdf565b612a8c565b8173ffffffffffffffffffffffffffffffffffffffff168373ffffffffffffffffffffffffffffffffffffffff1614612a8b57612a8a8382613028565b5b5b600073ffffffffffffffffffffffffffffffffffffffff168273ffffffffffffffffffffffffffffffffffffffff161415612acf57612aca81613195565b612b0e565b8273ffffffffffffffffffffffffffffffffffffffff168273ffffffffffffffffffffffffffffffffffffffff1614612b0d57612b0c82826132d8565b5b5b505050565b6000612b1e82610bd8565b9050612b2c81600084612657565b612b376000836114fa565b6001600360008373ffffffffffffffffffffffffffffffffffffffff1673ffffffffffffffffffffffffffffffffffffffff1681526020019081526020016000206000828254612b87919061433c565b925050819055506002600083815260200190815260200160002060006101000a81549073ffffffffffffffffffffffffffffffffffffffff021916905581600073ffffffffffffffffffffffffffffffffffffffff168273ffffffffffffffffffffffffffffffffffffffff167fddf252ad1be2c89b69c2b068fc378daa952ba7f163c4a11628f55a4df523b3ef60405160405180910390a4612c2c81600084612667565b5050565b600073ffffffffffffffffffffffffffffffffffffffff168273ffffffffffffffffffffffffffffffffffffffff161415612ca0576040517f08c379a0000000000000000000000000000000000000000000000000000000008152600401612c9790614035565b60405180910390fd5b612ca981611486565b15612ce9576040517f08c379a0000000000000000000000000000000000000000000000000000000008152600401612ce090613f07565b60405180910390fd5b612cf560008383612657565b6001600360008473ffffffffffffffffffffffffffffffffffffffff1673ffffffffffffffffffffffffffffffffffffffff1681526020019081526020016000206000828254612d4591906142b5565b92505081905550816002600083815260200190815260200160002060006101000a81548173ffffffffffffffffffffffffffffffffffffffff021916908373ffffffffffffffffffffffffffffffffffffffff160217905550808273ffffffffffffffffffffffffffffffffffffffff16600073ffffffffffffffffffffffffffffffffffffffff167fddf252ad1be2c89b69c2b068fc378daa952ba7f163c4a11628f55a4df523b3ef60405160405180910390a4612e0660008383612667565b5050565b6000808273ffffffffffffffffffffffffffffffffffffffff163b119050919050565b60606000821415612e75576040518060400160405280600181526020017f30000000000000000000000000000000000000000000000000000000000000008152509050612fd5565b600082905060005b60008214612ea7578080612e90906144ae565b915050600a82612ea0919061430b565b9150612e7d565b60008167ffffffffffffffff811115612ee9577f4e487b7100000000000000000000000000000000000000000000000000000000600052604160045260246000fd5b6040519080825280601f01601f191660200182016040528015612f1b5781602001600182028036833780820191505090505b5090505b60008514612fce57600182612f34919061433c565b9150600a85612f4391906144f7565b6030612f4f91906142b5565b60f81b818381518110612f8b577f4e487b7100000000000000000000000000000000000000000000000000000000600052603260045260246000fd5b60200101907effffffffffffffffffffffffffffffffffffffffffffffffffffffffffffff1916908160001a905350600a85612fc7919061430b565b9450612f1f565b8093505050505b919050565b505050565b6008805490506009600083815260200190815260200160002081905550600881908060018154018082558091505060019003906000526020600020016000909190919091505550565b6000600161303584610f21565b61303f919061433c565b9050600060076000848152602001908152602001600020549050818114613124576000600660008673ffffffffffffffffffffffffffffffffffffffff1673ffffffffffffffffffffffffffffffffffffffff168152602001908152602001600020600084815260200190815260200160002054905080600660008773ffffffffffffffffffffffffffffffffffffffff1673ffffffffffffffffffffffffffffffffffffffff168152602001908152602001600020600084815260200190815260200160002081905550816007600083815260200190815260200160002081905550505b6007600084815260200190815260200160002060009055600660008573ffffffffffffffffffffffffffffffffffffffff1673ffffffffffffffffffffffffffffffffffffffff16815260200190815260200160002060008381526020019081526020016000206000905550505050565b600060016008805490506131a9919061433c565b90506000600960008481526020019081526020016000205490506000600883815481106131ff577f4e487b7100000000000000000000000000000000000000000000000000000000600052603260045260246000fd5b906000526020600020015490508060088381548110613247577f4e487b7100000000000000000000000000000000000000000000000000000000600052603260045260246000fd5b9060005260206000200181905550816009600083815260200190815260200160002081905550600960008581526020019081526020016000206000905560088054806132bc577f4e487b7100000000000000000000000000000000000000000000000000000000600052603160045260246000fd5b6001900381819060005260206000200160009055905550505050565b60006132e383610f21565b905081600660008573ffffffffffffffffffffffffffffffffffffffff1673ffffffffffffffffffffffffffffffffffffffff168152602001908152602001600020600083815260200190815260200160002081905550806007600084815260200190815260200160002081905550505050565b6040518060c0016040528060008152602001600060028111156133a3577f4e487b7100000000000000000000000000000000000000000000000000000000600052602160045260246000fd5b8152602001600081526020016000815260200160608152602001600081525090565b8280546133d19061444b565b90600052602060002090601f0160209004810192826133f3576000855561343a565b82601f1061340c57805160ff191683800117855561343a565b8280016001018555821561343a579182015b8281111561343957825182559160200191906001019061341e565b5b509050613447919061348b565b5090565b5080546134579061444b565b6000825580601f106134695750613488565b601f016020900490600052602060002090810190613487919061348b565b5b50565b5b808211156134a457600081600090555060010161348c565b5090565b60006134bb6134b6846141f7565b6141d2565b9050828152602081018484840111156134d357600080fd5b6134de848285614409565b509392505050565b6000813590506134f581614ce5565b92915050565b60008135905061350a81614cfc565b92915050565b60008135905061351f81614d13565b92915050565b60008151905061353481614d13565b92915050565b600082601f83011261354b57600080fd5b813561355b8482602086016134a8565b91505092915050565b60008135905061357381614d2a565b92915050565b60008135905061358881614d3a565b92915050565b6000602082840312156135a057600080fd5b60006135ae848285016134e6565b91505092915050565b600080604083850312156135ca57600080fd5b60006135d8858286016134e6565b92505060206135e9858286016134e6565b9150509250929050565b60008060006060848603121561360857600080fd5b6000613616868287016134e6565b9350506020613627868287016134e6565b925050604061363886828701613579565b9150509250925092565b6000806000806080858703121561365857600080fd5b6000613666878288016134e6565b9450506020613677878288016134e6565b935050604061368887828801613579565b925050606085013567ffffffffffffffff8111156136a557600080fd5b6136b18782880161353a565b91505092959194509250565b600080604083850312156136d057600080fd5b60006136de858286016134e6565b92505060206136ef858286016134fb565b9150509250929050565b6000806040838503121561370c57600080fd5b600061371a858286016134e6565b925050602061372b85828601613579565b9150509250929050565b60006020828403121561374757600080fd5b600061375584828501613510565b91505092915050565b60006020828403121561377057600080fd5b600061377e84828501613525565b91505092915050565b60006020828403121561379957600080fd5b60006137a784828501613564565b91505092915050565b6000602082840312156137c257600080fd5b60006137d084828501613579565b91505092915050565b60006137e583836138c8565b905092915050565b6137f681614370565b82525050565b600061380782614238565b6138118185614266565b93508360208202850161382385614228565b8060005b8581101561385f578484038952815161384085826137d9565b945061384b83614259565b925060208a01995050600181019050613827565b50829750879550505050505092915050565b61387a81614382565b82525050565b600061388b82614243565b6138958185614277565b93506138a5818560208601614418565b6138ae81614613565b840191505092915050565b6138c2816143f7565b82525050565b60006138d38261424e565b6138dd8185614288565b93506138ed818560208601614418565b6138f681614613565b840191505092915050565b600061390c8261424e565b6139168185614299565b9350613926818560208601614418565b61392f81614613565b840191505092915050565b60006139458261424e565b61394f81856142aa565b935061395f818560208601614418565b80840191505092915050565b6000613978602b83614299565b915061398382614624565b604082019050919050565b600061399b603283614299565b91506139a682614673565b604082019050919050565b60006139be602683614299565b91506139c9826146c2565b604082019050919050565b60006139e1600f83614299565b91506139ec82614711565b602082019050919050565b6000613a04602583614299565b9150613a0f8261473a565b604082019050919050565b6000613a27601c83614299565b9150613a3282614789565b602082019050919050565b6000613a4a603083614299565b9150613a55826147b2565b604082019050919050565b6000613a6d602483614299565b9150613a7882614801565b604082019050919050565b6000613a90601983614299565b9150613a9b82614850565b602082019050919050565b6000613ab3602c83614299565b9150613abe82614879565b604082019050919050565b6000613ad6603883614299565b9150613ae1826148c8565b604082019050919050565b6000613af9602a83614299565b9150613b0482614917565b604082019050919050565b6000613b1c602983614299565b9150613b2782614966565b604082019050919050565b6000613b3f602e83614299565b9150613b4a826149b5565b604082019050919050565b6000613b62602083614299565b9150613b6d82614a04565b602082019050919050565b6000613b85602083614299565b9150613b9082614a2d565b602082019050919050565b6000613ba8603183614299565b9150613bb382614a56565b604082019050919050565b6000613bcb602c83614299565b9150613bd682614aa5565b604082019050919050565b6000613bee602083614299565b9150613bf982614af4565b602082019050919050565b6000613c11602f83614299565b9150613c1c82614b1d565b604082019050919050565b6000613c34602183614299565b9150613c3f82614b6c565b604082019050919050565b6000613c57601483614299565b9150613c6282614bbb565b602082019050919050565b6000613c7a603183614299565b9150613c8582614be4565b604082019050919050565b6000613c9d602c83614299565b9150613ca882614c33565b604082019050919050565b6000613cc0603083614299565b9150613ccb82614c82565b604082019050919050565b600060c083016000830151613cee6000860182613d5f565b506020830151613d0160208601826138b9565b506040830151613d146040860182613d5f565b506060830151613d276060860182613d5f565b5060808301518482036080860152613d3f82826138c8565b91505060a0830151613d5460a0860182613d5f565b508091505092915050565b613d68816143ed565b82525050565b613d77816143ed565b82525050565b6000613d89828561393a565b9150613d95828461393a565b91508190509392505050565b6000602082019050613db660008301846137ed565b92915050565b6000608082019050613dd160008301876137ed565b613dde60208301866137ed565b613deb6040830185613d6e565b8181036060830152613dfd8184613880565b905095945050505050565b60006020820190508181036000830152613e2281846137fc565b905092915050565b6000602082019050613e3f6000830184613871565b92915050565b60006020820190508181036000830152613e5f8184613901565b905092915050565b60006020820190508181036000830152613e808161396b565b9050919050565b60006020820190508181036000830152613ea08161398e565b9050919050565b60006020820190508181036000830152613ec0816139b1565b9050919050565b60006020820190508181036000830152613ee0816139d4565b9050919050565b60006020820190508181036000830152613f00816139f7565b9050919050565b60006020820190508181036000830152613f2081613a1a565b9050919050565b60006040820190508181036000830152613f4081613a3d565b9050613f4f6020830184613d6e565b92915050565b60006020820190508181036000830152613f6e81613a60565b9050919050565b60006020820190508181036000830152613f8e81613a83565b9050919050565b60006020820190508181036000830152613fae81613aa6565b9050919050565b60006020820190508181036000830152613fce81613ac9565b9050919050565b60006020820190508181036000830152613fee81613aec565b9050919050565b6000602082019050818103600083015261400e81613b0f565b9050919050565b6000602082019050818103600083015261402e81613b32565b9050919050565b6000602082019050818103600083015261404e81613b55565b9050919050565b6000602082019050818103600083015261406e81613b78565b9050919050565b6000602082019050818103600083015261408e81613b9b565b9050919050565b600060208201905081810360008301526140ae81613bbe565b9050919050565b600060208201905081810360008301526140ce81613be1565b9050919050565b600060208201905081810360008301526140ee81613c04565b9050919050565b6000602082019050818103600083015261410e81613c27565b9050919050565b6000602082019050818103600083015261412e81613c4a565b9050919050565b6000602082019050818103600083015261414e81613c6d565b9050919050565b6000602082019050818103600083015261416e81613c90565b9050919050565b6000602082019050818103600083015261418e81613cb3565b9050919050565b600060208201905081810360008301526141af8184613cd6565b905092915050565b60006020820190506141cc6000830184613d6e565b92915050565b60006141dc6141ed565b90506141e8828261447d565b919050565b6000604051905090565b600067ffffffffffffffff821115614212576142116145e4565b5b61421b82614613565b9050602081019050919050565b6000819050602082019050919050565b600081519050919050565b600081519050919050565b600081519050919050565b6000602082019050919050565b600082825260208201905092915050565b600082825260208201905092915050565b600082825260208201905092915050565b600082825260208201905092915050565b600081905092915050565b60006142c0826143ed565b91506142cb836143ed565b9250827fffffffffffffffffffffffffffffffffffffffffffffffffffffffffffffffff03821115614300576142ff614528565b5b828201905092915050565b6000614316826143ed565b9150614321836143ed565b92508261433157614330614557565b5b828204905092915050565b6000614347826143ed565b9150614352836143ed565b92508282101561436557614364614528565b5b828203905092915050565b600061437b826143cd565b9050919050565b60008115159050919050565b60007fffffffff0000000000000000000000000000000000000000000000000000000082169050919050565b60008190506143c882614cd1565b919050565b600073ffffffffffffffffffffffffffffffffffffffff82169050919050565b6000819050919050565b6000614402826143ba565b9050919050565b82818337600083830152505050565b60005b8381101561443657808201518184015260208101905061441b565b83811115614445576000848401525b50505050565b6000600282049050600182168061446357607f821691505b60208210811415614477576144766145b5565b5b50919050565b61448682614613565b810181811067ffffffffffffffff821117156144a5576144a46145e4565b5b80604052505050565b60006144b9826143ed565b91507fffffffffffffffffffffffffffffffffffffffffffffffffffffffffffffffff8214156144ec576144eb614528565b5b600182019050919050565b6000614502826143ed565b915061450d836143ed565b92508261451d5761451c614557565b5b828206905092915050565b7f4e487b7100000000000000000000000000000000000000000000000000000000600052601160045260246000fd5b7f4e487b7100000000000000000000000000000000000000000000000000000000600052601260045260246000fd5b7f4e487b7100000000000000000000000000000000000000000000000000000000600052602160045260246000fd5b7f4e487b7100000000000000000000000000000000000000000000000000000000600052602260045260246000fd5b7f4e487b7100000000000000000000000000000000000000000000000000000000600052604160045260246000fd5b6000601f19601f8301169050919050565b7f455243373231456e756d657261626c653a206f776e657220696e646578206f7560008201527f74206f6620626f756e6473000000000000000000000000000000000000000000602082015250565b7f4552433732313a207472616e7366657220746f206e6f6e20455243373231526560008201527f63656976657220696d706c656d656e7465720000000000000000000000000000602082015250565b7f4f776e61626c653a206e6577206f776e657220697320746865207a65726f206160008201527f6464726573730000000000000000000000000000000000000000000000000000602082015250565b7f57726f6e67206c616e6420747970650000000000000000000000000000000000600082015250565b7f4552433732313a207472616e736665722066726f6d20696e636f72726563742060008201527f6f776e6572000000000000000000000000000000000000000000000000000000602082015250565b7f4552433732313a20746f6b656e20616c7265616479206d696e74656400000000600082015250565b7f596f752063616e2774206d696e74206c616e6473206f6620746869732074797060008201527f652c206c696d6974207265616368656400000000000000000000000000000000602082015250565b7f4552433732313a207472616e7366657220746f20746865207a65726f2061646460008201527f7265737300000000000000000000000000000000000000000000000000000000602082015250565b7f4552433732313a20617070726f766520746f2063616c6c657200000000000000600082015250565b7f4552433732313a206f70657261746f7220717565727920666f72206e6f6e657860008201527f697374656e7420746f6b656e0000000000000000000000000000000000000000602082015250565b7f4552433732313a20617070726f76652063616c6c6572206973206e6f74206f7760008201527f6e6572206e6f7220617070726f76656420666f7220616c6c0000000000000000602082015250565b7f4552433732313a2062616c616e636520717565727920666f7220746865207a6560008201527f726f206164647265737300000000000000000000000000000000000000000000602082015250565b7f4552433732313a206f776e657220717565727920666f72206e6f6e657869737460008201527f656e7420746f6b656e0000000000000000000000000000000000000000000000602082015250565b7f45524337323155524953746f726167653a2055524920736574206f66206e6f6e60008201527f6578697374656e7420746f6b656e000000000000000000000000000000000000602082015250565b7f4552433732313a206d696e7420746f20746865207a65726f2061646472657373600082015250565b7f596f752063616e206d696e74206a757374206f6e6520536d616c6c204c616e64600082015250565b7f45524337323155524953746f726167653a2055524920717565727920666f722060008201527f6e6f6e6578697374656e7420746f6b656e000000000000000000000000000000602082015250565b7f4552433732313a20617070726f76656420717565727920666f72206e6f6e657860008201527f697374656e7420746f6b656e0000000000000000000000000000000000000000602082015250565b7f4f776e61626c653a2063616c6c6572206973206e6f7420746865206f776e6572600082015250565b7f4552433732314d657461646174613a2055524920717565727920666f72206e6f60008201527f6e6578697374656e7420746f6b656e0000000000000000000000000000000000602082015250565b7f4552433732313a20617070726f76616c20746f2063757272656e74206f776e6560008201527f7200000000000000000000000000000000000000000000000000000000000000602082015250565b7f57726f6e67206465706f73697420616d6f756e74000000000000000000000000600082015250565b7f4552433732313a207472616e736665722063616c6c6572206973206e6f74206f60008201527f776e6572206e6f7220617070726f766564000000000000000000000000000000602082015250565b7f455243373231456e756d657261626c653a20676c6f62616c20696e646578206f60008201527f7574206f6620626f756e64730000000000000000000000000000000000000000602082015250565b7f4552433732314275726e61626c653a2063616c6c6572206973206e6f74206f7760008201527f6e6572206e6f7220617070726f76656400000000000000000000000000000000602082015250565b60038110614ce257614ce1614586565b5b50565b614cee81614370565b8114614cf957600080fd5b50565b614d0581614382565b8114614d1057600080fd5b50565b614d1c8161438e565b8114614d2757600080fd5b50565b60038110614d3757600080fd5b50565b614d43816143ed565b8114614d4e57600080fd5b5056fea26469706673582212204ed1ec0ec5b2ebbf8c790d934ec4479d76a81b2a0100e41d49970f7c834bf5d664736f6c634300080400336261666b7265696876636f72616978647978366a62726c6d6c667734357073726a6c6b77656d703769653377636b79653766726e796862646e6f696261666b72656967657a7566696837676d763664367866626d3361636b62767378786277356d70726c74336878356b767465376b6a6b6261786a756261666b72656965707a726d776365717535753662356478326a64727232767135756a6568696275347633327a64787267346a64677473326f7a71",
  "linkReferences": {},
  "deployedLinkReferences": {}
}