{
  "_format": "hh-sol-artifact-1",
  "contractName": "LandNFT",
  "sourceName": "src/backend/contracts/LandNFT.sol",
  "abi": [
    {
      "inputs": [
        {
          "internalType": "address",
          "name": "_contractMain",
          "type": "address"
        }
      ],
      "stateMutability": "nonpayable",
      "type": "constructor"
    },
    {
      "inputs": [
        {
          "internalType": "string",
          "name": "message",
          "type": "string"
        },
        {
          "internalType": "uint256",
          "name": "limit",
          "type": "uint256"
        }
      ],
      "name": "LandsLimitError",
      "type": "error"
    },
    {
      "inputs": [
        {
          "internalType": "string",
          "name": "message",
          "type": "string"
        }
      ],
      "name": "LandsSmallLimitError",
      "type": "error"
    },
    {
      "anonymous": false,
      "inputs": [
        {
          "indexed": true,
          "internalType": "address",
          "name": "owner",
          "type": "address"
        },
        {
          "indexed": true,
          "internalType": "address",
          "name": "approved",
          "type": "address"
        },
        {
          "indexed": true,
          "internalType": "uint256",
          "name": "tokenId",
          "type": "uint256"
        }
      ],
      "name": "Approval",
      "type": "event"
    },
    {
      "anonymous": false,
      "inputs": [
        {
          "indexed": true,
          "internalType": "address",
          "name": "owner",
          "type": "address"
        },
        {
          "indexed": true,
          "internalType": "address",
          "name": "operator",
          "type": "address"
        },
        {
          "indexed": false,
          "internalType": "bool",
          "name": "approved",
          "type": "bool"
        }
      ],
      "name": "ApprovalForAll",
      "type": "event"
    },
    {
      "anonymous": false,
      "inputs": [
        {
          "indexed": true,
          "internalType": "address",
          "name": "previousOwner",
          "type": "address"
        },
        {
          "indexed": true,
          "internalType": "address",
          "name": "newOwner",
          "type": "address"
        }
      ],
      "name": "OwnershipTransferred",
      "type": "event"
    },
    {
      "anonymous": false,
      "inputs": [
        {
          "indexed": true,
          "internalType": "address",
          "name": "from",
          "type": "address"
        },
        {
          "indexed": true,
          "internalType": "address",
          "name": "to",
          "type": "address"
        },
        {
          "indexed": true,
          "internalType": "uint256",
          "name": "tokenId",
          "type": "uint256"
        }
      ],
      "name": "Transfer",
      "type": "event"
    },
    {
      "inputs": [
        {
          "internalType": "address",
          "name": "to",
          "type": "address"
        },
        {
          "internalType": "uint256",
          "name": "tokenId",
          "type": "uint256"
        }
      ],
      "name": "approve",
      "outputs": [],
      "stateMutability": "nonpayable",
      "type": "function"
    },
    {
      "inputs": [
        {
          "internalType": "address",
          "name": "owner",
          "type": "address"
        }
      ],
      "name": "balanceOf",
      "outputs": [
        {
          "internalType": "uint256",
          "name": "",
          "type": "uint256"
        }
      ],
      "stateMutability": "view",
      "type": "function"
    },
    {
      "inputs": [
        {
          "internalType": "uint256",
          "name": "tokenId",
          "type": "uint256"
        }
      ],
      "name": "burn",
      "outputs": [],
      "stateMutability": "nonpayable",
      "type": "function"
    },
    {
      "inputs": [
        {
          "internalType": "uint256",
          "name": "tokenId",
          "type": "uint256"
        }
      ],
      "name": "getApproved",
      "outputs": [
        {
          "internalType": "address",
          "name": "",
          "type": "address"
        }
      ],
      "stateMutability": "view",
      "type": "function"
    },
    {
      "inputs": [
        {
          "internalType": "address",
          "name": "owner",
          "type": "address"
        },
        {
          "internalType": "address",
          "name": "operator",
          "type": "address"
        }
      ],
      "name": "isApprovedForAll",
      "outputs": [
        {
          "internalType": "bool",
          "name": "",
          "type": "bool"
        }
      ],
      "stateMutability": "view",
      "type": "function"
    },
    {
      "inputs": [
        {
          "internalType": "enum LandNFT.LandType",
          "name": "",
          "type": "uint8"
        }
      ],
      "name": "landTypeCount",
      "outputs": [
        {
          "internalType": "uint256",
          "name": "",
          "type": "uint256"
        }
      ],
      "stateMutability": "view",
      "type": "function"
    },
    {
      "inputs": [],
      "name": "name",
      "outputs": [
        {
          "internalType": "string",
          "name": "",
          "type": "string"
        }
      ],
      "stateMutability": "view",
      "type": "function"
    },
    {
      "inputs": [],
      "name": "owner",
      "outputs": [
        {
          "internalType": "address",
          "name": "",
          "type": "address"
        }
      ],
      "stateMutability": "view",
      "type": "function"
    },
    {
      "inputs": [
        {
          "internalType": "uint256",
          "name": "tokenId",
          "type": "uint256"
        }
      ],
      "name": "ownerOf",
      "outputs": [
        {
          "internalType": "address",
          "name": "",
          "type": "address"
        }
      ],
      "stateMutability": "view",
      "type": "function"
    },
    {
      "inputs": [],
      "name": "renounceOwnership",
      "outputs": [],
      "stateMutability": "nonpayable",
      "type": "function"
    },
    {
      "inputs": [],
      "name": "safeMint",
      "outputs": [
        {
          "internalType": "uint256",
          "name": "",
          "type": "uint256"
        }
      ],
      "stateMutability": "payable",
      "type": "function"
    },
    {
      "inputs": [
        {
          "internalType": "address",
          "name": "from",
          "type": "address"
        },
        {
          "internalType": "address",
          "name": "to",
          "type": "address"
        },
        {
          "internalType": "uint256",
          "name": "tokenId",
          "type": "uint256"
        }
      ],
      "name": "safeTransferFrom",
      "outputs": [],
      "stateMutability": "nonpayable",
      "type": "function"
    },
    {
      "inputs": [
        {
          "internalType": "address",
          "name": "from",
          "type": "address"
        },
        {
          "internalType": "address",
          "name": "to",
          "type": "address"
        },
        {
          "internalType": "uint256",
          "name": "tokenId",
          "type": "uint256"
        },
        {
          "internalType": "bytes",
          "name": "_data",
          "type": "bytes"
        }
      ],
      "name": "safeTransferFrom",
      "outputs": [],
      "stateMutability": "nonpayable",
      "type": "function"
    },
    {
      "inputs": [
        {
          "internalType": "address",
          "name": "operator",
          "type": "address"
        },
        {
          "internalType": "bool",
          "name": "approved",
          "type": "bool"
        }
      ],
      "name": "setApprovalForAll",
      "outputs": [],
      "stateMutability": "nonpayable",
      "type": "function"
    },
    {
      "inputs": [
        {
          "internalType": "bytes4",
          "name": "_interfaceId",
          "type": "bytes4"
        }
      ],
      "name": "supportsInterface",
      "outputs": [
        {
          "internalType": "bool",
          "name": "",
          "type": "bool"
        }
      ],
      "stateMutability": "view",
      "type": "function"
    },
    {
      "inputs": [],
      "name": "symbol",
      "outputs": [
        {
          "internalType": "string",
          "name": "",
          "type": "string"
        }
      ],
      "stateMutability": "view",
      "type": "function"
    },
    {
      "inputs": [
        {
          "internalType": "uint256",
          "name": "index",
          "type": "uint256"
        }
      ],
      "name": "tokenByIndex",
      "outputs": [
        {
          "internalType": "uint256",
          "name": "",
          "type": "uint256"
        }
      ],
      "stateMutability": "view",
      "type": "function"
    },
    {
      "inputs": [
        {
          "internalType": "address",
          "name": "owner",
          "type": "address"
        },
        {
          "internalType": "uint256",
          "name": "index",
          "type": "uint256"
        }
      ],
      "name": "tokenOfOwnerByIndex",
      "outputs": [
        {
          "internalType": "uint256",
          "name": "",
          "type": "uint256"
        }
      ],
      "stateMutability": "view",
      "type": "function"
    },
    {
      "inputs": [
        {
          "internalType": "uint256",
          "name": "_tokenId",
          "type": "uint256"
        }
      ],
      "name": "tokenURI",
      "outputs": [
        {
          "internalType": "string",
          "name": "",
          "type": "string"
        }
      ],
      "stateMutability": "view",
      "type": "function"
    },
    {
      "inputs": [],
      "name": "totalSupply",
      "outputs": [
        {
          "internalType": "uint256",
          "name": "",
          "type": "uint256"
        }
      ],
      "stateMutability": "view",
      "type": "function"
    },
    {
      "inputs": [
        {
          "internalType": "address",
          "name": "from",
          "type": "address"
        },
        {
          "internalType": "address",
          "name": "to",
          "type": "address"
        },
        {
          "internalType": "uint256",
          "name": "tokenId",
          "type": "uint256"
        }
      ],
      "name": "transferFrom",
      "outputs": [],
      "stateMutability": "nonpayable",
      "type": "function"
    },
    {
      "inputs": [
        {
          "internalType": "address",
          "name": "newOwner",
          "type": "address"
        }
      ],
      "name": "transferOwnership",
      "outputs": [],
      "stateMutability": "nonpayable",
      "type": "function"
    }
  ],
  "bytecode": "0x60806040523480156200001157600080fd5b5060405162004955380380620049558339818101604052810190620000379190620002d4565b6040518060400160405280600781526020017f5a6f6d4c616e64000000000000000000000000000000000000000000000000008152506040518060400160405280600481526020017f5a4d4c4c000000000000000000000000000000000000000000000000000000008152508160009080519060200190620000bb9291906200020d565b508060019080519060200190620000d49291906200020d565b505050620000f7620000eb6200013f60201b60201c565b6200014760201b60201c565b80601060006101000a81548173ffffffffffffffffffffffffffffffffffffffff021916908373ffffffffffffffffffffffffffffffffffffffff16021790555050620003b3565b600033905090565b6000600b60009054906101000a900473ffffffffffffffffffffffffffffffffffffffff16905081600b60006101000a81548173ffffffffffffffffffffffffffffffffffffffff021916908373ffffffffffffffffffffffffffffffffffffffff1602179055508173ffffffffffffffffffffffffffffffffffffffff168173ffffffffffffffffffffffffffffffffffffffff167f8be0079c531659141344cd1fd0a4f28419497f9722a3daafe3b4186f6b6457e060405160405180910390a35050565b8280546200021b9062000334565b90600052602060002090601f0160209004810192826200023f57600085556200028b565b82601f106200025a57805160ff19168380011785556200028b565b828001600101855582156200028b579182015b828111156200028a5782518255916020019190600101906200026d565b5b5090506200029a91906200029e565b5090565b5b80821115620002b95760008160009055506001016200029f565b5090565b600081519050620002ce8162000399565b92915050565b600060208284031215620002e757600080fd5b6000620002f784828501620002bd565b91505092915050565b60006200030d8262000314565b9050919050565b600073ffffffffffffffffffffffffffffffffffffffff82169050919050565b600060028204905060018216806200034d57607f821691505b602082108114156200036457620003636200036a565b5b50919050565b7f4e487b7100000000000000000000000000000000000000000000000000000000600052602260045260246000fd5b620003a48162000300565b8114620003b057600080fd5b50565b61459280620003c36000396000f3fe6080604052600436106101355760003560e01c80636352211e116100ab57806395d89b411161006f57806395d89b411461043f578063a22cb4651461046a578063b88d4fde14610493578063c87b56dd146104bc578063e985e9c5146104f9578063f2fde38b1461053657610135565b80636352211e146103655780636871ee40146103a257806370a08231146103c0578063715018a6146103fd5780638da5cb5b1461041457610135565b806318160ddd116100fd57806318160ddd1461024557806323b872dd146102705780632f745c591461029957806342842e0e146102d657806342966c68146102ff5780634f6ccce71461032857610135565b806301ffc9a71461013a57806306fdde0314610177578063081812fc146101a2578063095ea7b3146101df57806317300fcc14610208575b600080fd5b34801561014657600080fd5b50610161600480360381019061015c91906130ee565b61055f565b60405161016e9190613658565b60405180910390f35b34801561018357600080fd5b5061018c610571565b6040516101999190613673565b60405180910390f35b3480156101ae57600080fd5b506101c960048036038101906101c49190613169565b610603565b6040516101d691906135f1565b60405180910390f35b3480156101eb57600080fd5b50610206600480360381019061020191906130b2565b610688565b005b34801561021457600080fd5b5061022f600480360381019061022a9190613140565b6107a0565b60405161023c91906139c3565b60405180910390f35b34801561025157600080fd5b5061025a6107b8565b60405161026791906139c3565b60405180910390f35b34801561027c57600080fd5b5061029760048036038101906102929190612fac565b6107c5565b005b3480156102a557600080fd5b506102c060048036038101906102bb91906130b2565b610825565b6040516102cd91906139c3565b60405180910390f35b3480156102e257600080fd5b506102fd60048036038101906102f89190612fac565b6108ca565b005b34801561030b57600080fd5b5061032660048036038101906103219190613169565b6108ea565b005b34801561033457600080fd5b5061034f600480360381019061034a9190613169565b610946565b60405161035c91906139c3565b60405180910390f35b34801561037157600080fd5b5061038c60048036038101906103879190613169565b6109dd565b60405161039991906135f1565b60405180910390f35b6103aa610a8f565b6040516103b791906139c3565b60405180910390f35b3480156103cc57600080fd5b506103e760048036038101906103e29190612f47565b610c39565b6040516103f491906139c3565b60405180910390f35b34801561040957600080fd5b50610412610cf1565b005b34801561042057600080fd5b50610429610d79565b60405161043691906135f1565b60405180910390f35b34801561044b57600080fd5b50610454610da3565b6040516104619190613673565b60405180910390f35b34801561047657600080fd5b50610491600480360381019061048c9190613076565b610e35565b005b34801561049f57600080fd5b506104ba60048036038101906104b59190612ffb565b610e4b565b005b3480156104c857600080fd5b506104e360048036038101906104de9190613169565b610ead565b6040516104f09190613673565b60405180910390f35b34801561050557600080fd5b50610520600480360381019061051b9190612f70565b610ebf565b60405161052d9190613658565b60405180910390f35b34801561054257600080fd5b5061055d60048036038101906105589190612f47565b610f53565b005b600061056a8261104b565b9050919050565b60606000805461058090613be8565b80601f01602080910402602001604051908101604052809291908181526020018280546105ac90613be8565b80156105f95780601f106105ce576101008083540402835291602001916105f9565b820191906000526020600020905b8154815290600101906020018083116105dc57829003601f168201915b5050505050905090565b600061060e826110c5565b61064d576040517f08c379a0000000000000000000000000000000000000000000000000000000008152600401610644906138c3565b60405180910390fd5b6004600083815260200190815260200160002060009054906101000a900473ffffffffffffffffffffffffffffffffffffffff169050919050565b6000610693826109dd565b90508073ffffffffffffffffffffffffffffffffffffffff168373ffffffffffffffffffffffffffffffffffffffff161415610704576040517f08c379a00000000000000000000000000000000000000000000000000000000081526004016106fb90613923565b60405180910390fd5b8073ffffffffffffffffffffffffffffffffffffffff16610723611131565b73ffffffffffffffffffffffffffffffffffffffff16148061075257506107518161074c611131565b610ebf565b5b610791576040517f08c379a0000000000000000000000000000000000000000000000000000000008152600401610788906137e3565b60405180910390fd5b61079b8383611139565b505050565b600d6020528060005260406000206000915090505481565b6000600880549050905090565b6107d66107d0611131565b826111f2565b610815576040517f08c379a000000000000000000000000000000000000000000000000000000000815260040161080c90613963565b60405180910390fd5b6108208383836112d0565b505050565b600061083083610c39565b8210610871576040517f08c379a000000000000000000000000000000000000000000000000000000000815260040161086890613695565b60405180910390fd5b600660008473ffffffffffffffffffffffffffffffffffffffff1673ffffffffffffffffffffffffffffffffffffffff168152602001908152602001600020600083815260200190815260200160002054905092915050565b6108e583838360405180602001604052806000815250610e4b565b505050565b6108fb6108f5611131565b826111f2565b61093a576040517f08c379a0000000000000000000000000000000000000000000000000000000008152600401610931906139a3565b60405180910390fd5b61094381611537565b50565b60006109506107b8565b8210610991576040517f08c379a000000000000000000000000000000000000000000000000000000000815260040161098890613983565b60405180910390fd5b600882815481106109cb577f4e487b7100000000000000000000000000000000000000000000000000000000600052603260045260246000fd5b90600052602060002001549050919050565b6000806002600084815260200190815260200160002060009054906101000a900473ffffffffffffffffffffffffffffffffffffffff169050600073ffffffffffffffffffffffffffffffffffffffff168173ffffffffffffffffffffffffffffffffffffffff161415610a86576040517f08c379a0000000000000000000000000000000000000000000000000000000008152600401610a7d90613823565b60405180910390fd5b80915050919050565b600080610a9a611543565b9050610aa5816115cd565b6000610ab0826118f2565b90506000610abe600c611b05565b9050610aca600c611b13565b610ad43382611b29565b610ade8183611b47565b600d6000846002811115610b1b577f4e487b7100000000000000000000000000000000000000000000000000000000600052602160045260246000fd5b6002811115610b53577f4e487b7100000000000000000000000000000000000000000000000000000000600052602160045260246000fd5b81526020019081526020016000206000815480929190610b7290613c4b565b91905055506001600e60003373ffffffffffffffffffffffffffffffffffffffff1673ffffffffffffffffffffffffffffffffffffffff16815260200190815260200160002060006101000a81548160ff02191690831515021790555082600f600083815260200190815260200160002060006101000a81548160ff02191690836002811115610c2b577f4e487b7100000000000000000000000000000000000000000000000000000000600052602160045260246000fd5b021790555080935050505090565b60008073ffffffffffffffffffffffffffffffffffffffff168273ffffffffffffffffffffffffffffffffffffffff161415610caa576040517f08c379a0000000000000000000000000000000000000000000000000000000008152600401610ca190613803565b60405180910390fd5b600360008373ffffffffffffffffffffffffffffffffffffffff1673ffffffffffffffffffffffffffffffffffffffff168152602001908152602001600020549050919050565b610cf9611131565b73ffffffffffffffffffffffffffffffffffffffff16610d17610d79565b73ffffffffffffffffffffffffffffffffffffffff1614610d6d576040517f08c379a0000000000000000000000000000000000000000000000000000000008152600401610d64906138e3565b60405180910390fd5b610d776000611bbb565b565b6000600b60009054906101000a900473ffffffffffffffffffffffffffffffffffffffff16905090565b606060018054610db290613be8565b80601f0160208091040260200160405190810160405280929190818152602001828054610dde90613be8565b8015610e2b5780601f10610e0057610100808354040283529160200191610e2b565b820191906000526020600020905b815481529060010190602001808311610e0e57829003601f168201915b5050505050905090565b610e47610e40611131565b8383611c81565b5050565b610e5c610e56611131565b836111f2565b610e9b576040517f08c379a0000000000000000000000000000000000000000000000000000000008152600401610e9290613963565b60405180910390fd5b610ea784848484611dee565b50505050565b6060610eb882611e4a565b9050919050565b6000600560008473ffffffffffffffffffffffffffffffffffffffff1673ffffffffffffffffffffffffffffffffffffffff16815260200190815260200160002060008373ffffffffffffffffffffffffffffffffffffffff1673ffffffffffffffffffffffffffffffffffffffff16815260200190815260200160002060009054906101000a900460ff16905092915050565b610f5b611131565b73ffffffffffffffffffffffffffffffffffffffff16610f79610d79565b73ffffffffffffffffffffffffffffffffffffffff1614610fcf576040517f08c379a0000000000000000000000000000000000000000000000000000000008152600401610fc6906138e3565b60405180910390fd5b600073ffffffffffffffffffffffffffffffffffffffff168173ffffffffffffffffffffffffffffffffffffffff16141561103f576040517f08c379a0000000000000000000000000000000000000000000000000000000008152600401611036906136d5565b60405180910390fd5b61104881611bbb565b50565b60007f780e9d63000000000000000000000000000000000000000000000000000000007bffffffffffffffffffffffffffffffffffffffffffffffffffffffff1916827bffffffffffffffffffffffffffffffffffffffffffffffffffffffff191614806110be57506110bd82611f9c565b5b9050919050565b60008073ffffffffffffffffffffffffffffffffffffffff166002600084815260200190815260200160002060009054906101000a900473ffffffffffffffffffffffffffffffffffffffff1673ffffffffffffffffffffffffffffffffffffffff1614159050919050565b600033905090565b816004600083815260200190815260200160002060006101000a81548173ffffffffffffffffffffffffffffffffffffffff021916908373ffffffffffffffffffffffffffffffffffffffff160217905550808273ffffffffffffffffffffffffffffffffffffffff166111ac836109dd565b73ffffffffffffffffffffffffffffffffffffffff167f8c5be1e5ebec7d5bd14f71427d1e84f3dd0314c0f7b2291e5b200ac8c7c3b92560405160405180910390a45050565b60006111fd826110c5565b61123c576040517f08c379a0000000000000000000000000000000000000000000000000000000008152600401611233906137c3565b60405180910390fd5b6000611247836109dd565b90508073ffffffffffffffffffffffffffffffffffffffff168473ffffffffffffffffffffffffffffffffffffffff1614806112b657508373ffffffffffffffffffffffffffffffffffffffff1661129e84610603565b73ffffffffffffffffffffffffffffffffffffffff16145b806112c757506112c68185610ebf565b5b91505092915050565b8273ffffffffffffffffffffffffffffffffffffffff166112f0826109dd565b73ffffffffffffffffffffffffffffffffffffffff1614611346576040517f08c379a000000000000000000000000000000000000000000000000000000000815260040161133d90613715565b60405180910390fd5b600073ffffffffffffffffffffffffffffffffffffffff168273ffffffffffffffffffffffffffffffffffffffff1614156113b6576040517f08c379a00000000000000000000000000000000000000000000000000000000081526004016113ad90613783565b60405180910390fd5b6113c183838361207e565b6113cc600082611139565b6001600360008573ffffffffffffffffffffffffffffffffffffffff1673ffffffffffffffffffffffffffffffffffffffff168152602001908152602001600020600082825461141c9190613afe565b925050819055506001600360008473ffffffffffffffffffffffffffffffffffffffff1673ffffffffffffffffffffffffffffffffffffffff16815260200190815260200160002060008282546114739190613a77565b92505081905550816002600083815260200190815260200160002060006101000a81548173ffffffffffffffffffffffffffffffffffffffff021916908373ffffffffffffffffffffffffffffffffffffffff160217905550808273ffffffffffffffffffffffffffffffffffffffff168473ffffffffffffffffffffffffffffffffffffffff167fddf252ad1be2c89b69c2b068fc378daa952ba7f163c4a11628f55a4df523b3ef60405160405180910390a461153283838361208e565b505050565b61154081612093565b50565b6000662386f26fc1000034141561155d57600090506115ca565b674563918244f4000034141561157657600190506115ca565b677ce66c50e284000034141561158f57600290506115ca565b6040517f08c379a00000000000000000000000000000000000000000000000000000000081526004016115c190613943565b60405180910390fd5b90565b6000806002811115611608577f4e487b7100000000000000000000000000000000000000000000000000000000600052602160045260246000fd5b826002811115611641577f4e487b7100000000000000000000000000000000000000000000000000000000600052602160045260246000fd5b14156116e55760011515600e60003373ffffffffffffffffffffffffffffffffffffffff1673ffffffffffffffffffffffffffffffffffffffff16815260200190815260200160002060009054906101000a900460ff16151514156116db576040517fb490537d0000000000000000000000000000000000000000000000000000000081526004016116d290613883565b60405180910390fd5b61ea5f9050611827565b6001600281111561171f577f4e487b7100000000000000000000000000000000000000000000000000000000600052602160045260246000fd5b826002811115611758577f4e487b7100000000000000000000000000000000000000000000000000000000600052602160045260246000fd5b14156117685761176f9050611826565b6002808111156117a1577f4e487b7100000000000000000000000000000000000000000000000000000000600052602160045260246000fd5b8260028111156117da577f4e487b7100000000000000000000000000000000000000000000000000000000600052602160045260246000fd5b14156117ea576107cf9050611825565b6040517f08c379a000000000000000000000000000000000000000000000000000000000815260040161181c906136f5565b60405180910390fd5b5b5b80600d6000846002811115611865577f4e487b7100000000000000000000000000000000000000000000000000000000600052602160045260246000fd5b600281111561189d577f4e487b7100000000000000000000000000000000000000000000000000000000600052602160045260246000fd5b815260200190815260200160002054106118ee57806040517f25d0bf140000000000000000000000000000000000000000000000000000000081526004016118e59190613755565b60405180910390fd5b5050565b6060806000600281111561192f577f4e487b7100000000000000000000000000000000000000000000000000000000600052602160045260246000fd5b836002811115611968577f4e487b7100000000000000000000000000000000000000000000000000000000600052602160045260246000fd5b141561198e576040518060600160405280603b81526020016144ac603b91399050611afc565b600160028111156119c8577f4e487b7100000000000000000000000000000000000000000000000000000000600052602160045260246000fd5b836002811115611a01577f4e487b7100000000000000000000000000000000000000000000000000000000600052602160045260246000fd5b1415611a27576040518060600160405280603b8152602001614522603b91399050611afb565b600280811115611a60577f4e487b7100000000000000000000000000000000000000000000000000000000600052602160045260246000fd5b836002811115611a99577f4e487b7100000000000000000000000000000000000000000000000000000000600052602160045260246000fd5b1415611abf576040518060600160405280603b81526020016144e7603b91399050611afa565b6040517f08c379a0000000000000000000000000000000000000000000000000000000008152600401611af1906136f5565b60405180910390fd5b5b5b80915050919050565b600081600001549050919050565b6001816000016000828254019250508190555050565b611b438282604051806020016040528060008152506120e6565b5050565b611b50826110c5565b611b8f576040517f08c379a0000000000000000000000000000000000000000000000000000000008152600401611b8690613843565b60405180910390fd5b80600a60008481526020019081526020016000209080519060200190611bb6929190612d7e565b505050565b6000600b60009054906101000a900473ffffffffffffffffffffffffffffffffffffffff16905081600b60006101000a81548173ffffffffffffffffffffffffffffffffffffffff021916908373ffffffffffffffffffffffffffffffffffffffff1602179055508173ffffffffffffffffffffffffffffffffffffffff168173ffffffffffffffffffffffffffffffffffffffff167f8be0079c531659141344cd1fd0a4f28419497f9722a3daafe3b4186f6b6457e060405160405180910390a35050565b8173ffffffffffffffffffffffffffffffffffffffff168373ffffffffffffffffffffffffffffffffffffffff161415611cf0576040517f08c379a0000000000000000000000000000000000000000000000000000000008152600401611ce7906137a3565b60405180910390fd5b80600560008573ffffffffffffffffffffffffffffffffffffffff1673ffffffffffffffffffffffffffffffffffffffff16815260200190815260200160002060008473ffffffffffffffffffffffffffffffffffffffff1673ffffffffffffffffffffffffffffffffffffffff16815260200190815260200160002060006101000a81548160ff0219169083151502179055508173ffffffffffffffffffffffffffffffffffffffff168373ffffffffffffffffffffffffffffffffffffffff167f17307eab39ab6107e8899845ad3d59bd9653f200f220920489ca2b5937696c3183604051611de19190613658565b60405180910390a3505050565b611df98484846112d0565b611e0584848484612141565b611e44576040517f08c379a0000000000000000000000000000000000000000000000000000000008152600401611e3b906136b5565b60405180910390fd5b50505050565b6060611e55826110c5565b611e94576040517f08c379a0000000000000000000000000000000000000000000000000000000008152600401611e8b906138a3565b60405180910390fd5b6000600a60008481526020019081526020016000208054611eb490613be8565b80601f0160208091040260200160405190810160405280929190818152602001828054611ee090613be8565b8015611f2d5780601f10611f0257610100808354040283529160200191611f2d565b820191906000526020600020905b815481529060010190602001808311611f1057829003601f168201915b505050505090506000611f3e6122d8565b9050600081511415611f54578192505050611f97565b600082511115611f89578082604051602001611f719291906135cd565b60405160208183030381529060405292505050611f97565b611f9284612315565b925050505b919050565b60007f80ac58cd000000000000000000000000000000000000000000000000000000007bffffffffffffffffffffffffffffffffffffffffffffffffffffffff1916827bffffffffffffffffffffffffffffffffffffffffffffffffffffffff1916148061206757507f5b5e139f000000000000000000000000000000000000000000000000000000007bffffffffffffffffffffffffffffffffffffffffffffffffffffffff1916827bffffffffffffffffffffffffffffffffffffffffffffffffffffffff1916145b806120775750612076826123bc565b5b9050919050565b612089838383612426565b505050565b505050565b61209c8161253a565b6000600a600083815260200190815260200160002080546120bc90613be8565b9050146120e357600a600082815260200190815260200160002060006120e29190612e04565b5b50565b6120f08383612657565b6120fd6000848484612141565b61213c576040517f08c379a0000000000000000000000000000000000000000000000000000000008152600401612133906136b5565b60405180910390fd5b505050565b60006121628473ffffffffffffffffffffffffffffffffffffffff16612831565b156122cb578373ffffffffffffffffffffffffffffffffffffffff1663150b7a0261218b611131565b8786866040518563ffffffff1660e01b81526004016121ad949392919061360c565b602060405180830381600087803b1580156121c757600080fd5b505af19250505080156121f857506040513d601f19601f820116820180604052508101906121f59190613117565b60015b61227b573d8060008114612228576040519150601f19603f3d011682016040523d82523d6000602084013e61222d565b606091505b50600081511415612273576040517f08c379a000000000000000000000000000000000000000000000000000000000815260040161226a906136b5565b60405180910390fd5b805181602001fd5b63150b7a0260e01b7bffffffffffffffffffffffffffffffffffffffffffffffffffffffff1916817bffffffffffffffffffffffffffffffffffffffffffffffffffffffff1916149150506122d0565b600190505b949350505050565b60606040518060400160405280600781526020017f697066733a2f2f00000000000000000000000000000000000000000000000000815250905090565b6060612320826110c5565b61235f576040517f08c379a000000000000000000000000000000000000000000000000000000000815260040161235690613903565b60405180910390fd5b60006123696122d8565b9050600081511161238957604051806020016040528060008152506123b4565b8061239384612854565b6040516020016123a49291906135cd565b6040516020818303038152906040525b915050919050565b60007f01ffc9a7000000000000000000000000000000000000000000000000000000007bffffffffffffffffffffffffffffffffffffffffffffffffffffffff1916827bffffffffffffffffffffffffffffffffffffffffffffffffffffffff1916149050919050565b612431838383612a01565b600073ffffffffffffffffffffffffffffffffffffffff168373ffffffffffffffffffffffffffffffffffffffff1614156124745761246f81612a06565b6124b3565b8173ffffffffffffffffffffffffffffffffffffffff168373ffffffffffffffffffffffffffffffffffffffff16146124b2576124b18382612a4f565b5b5b600073ffffffffffffffffffffffffffffffffffffffff168273ffffffffffffffffffffffffffffffffffffffff1614156124f6576124f181612bbc565b612535565b8273ffffffffffffffffffffffffffffffffffffffff168273ffffffffffffffffffffffffffffffffffffffff1614612534576125338282612cff565b5b5b505050565b6000612545826109dd565b90506125538160008461207e565b61255e600083611139565b6001600360008373ffffffffffffffffffffffffffffffffffffffff1673ffffffffffffffffffffffffffffffffffffffff16815260200190815260200160002060008282546125ae9190613afe565b925050819055506002600083815260200190815260200160002060006101000a81549073ffffffffffffffffffffffffffffffffffffffff021916905581600073ffffffffffffffffffffffffffffffffffffffff168273ffffffffffffffffffffffffffffffffffffffff167fddf252ad1be2c89b69c2b068fc378daa952ba7f163c4a11628f55a4df523b3ef60405160405180910390a46126538160008461208e565b5050565b600073ffffffffffffffffffffffffffffffffffffffff168273ffffffffffffffffffffffffffffffffffffffff1614156126c7576040517f08c379a00000000000000000000000000000000000000000000000000000000081526004016126be90613863565b60405180910390fd5b6126d0816110c5565b15612710576040517f08c379a000000000000000000000000000000000000000000000000000000000815260040161270790613735565b60405180910390fd5b61271c6000838361207e565b6001600360008473ffffffffffffffffffffffffffffffffffffffff1673ffffffffffffffffffffffffffffffffffffffff168152602001908152602001600020600082825461276c9190613a77565b92505081905550816002600083815260200190815260200160002060006101000a81548173ffffffffffffffffffffffffffffffffffffffff021916908373ffffffffffffffffffffffffffffffffffffffff160217905550808273ffffffffffffffffffffffffffffffffffffffff16600073ffffffffffffffffffffffffffffffffffffffff167fddf252ad1be2c89b69c2b068fc378daa952ba7f163c4a11628f55a4df523b3ef60405160405180910390a461282d6000838361208e565b5050565b6000808273ffffffffffffffffffffffffffffffffffffffff163b119050919050565b6060600082141561289c576040518060400160405280600181526020017f300000000000000000000000000000000000000000000000000000000000000081525090506129fc565b600082905060005b600082146128ce5780806128b790613c4b565b915050600a826128c79190613acd565b91506128a4565b60008167ffffffffffffffff811115612910577f4e487b7100000000000000000000000000000000000000000000000000000000600052604160045260246000fd5b6040519080825280601f01601f1916602001820160405280156129425781602001600182028036833780820191505090505b5090505b600085146129f55760018261295b9190613afe565b9150600a8561296a9190613c94565b60306129769190613a77565b60f81b8183815181106129b2577f4e487b7100000000000000000000000000000000000000000000000000000000600052603260045260246000fd5b60200101907effffffffffffffffffffffffffffffffffffffffffffffffffffffffffffff1916908160001a905350600a856129ee9190613acd565b9450612946565b8093505050505b919050565b505050565b6008805490506009600083815260200190815260200160002081905550600881908060018154018082558091505060019003906000526020600020016000909190919091505550565b60006001612a5c84610c39565b612a669190613afe565b9050600060076000848152602001908152602001600020549050818114612b4b576000600660008673ffffffffffffffffffffffffffffffffffffffff1673ffffffffffffffffffffffffffffffffffffffff168152602001908152602001600020600084815260200190815260200160002054905080600660008773ffffffffffffffffffffffffffffffffffffffff1673ffffffffffffffffffffffffffffffffffffffff168152602001908152602001600020600084815260200190815260200160002081905550816007600083815260200190815260200160002081905550505b6007600084815260200190815260200160002060009055600660008573ffffffffffffffffffffffffffffffffffffffff1673ffffffffffffffffffffffffffffffffffffffff16815260200190815260200160002060008381526020019081526020016000206000905550505050565b60006001600880549050612bd09190613afe565b9050600060096000848152602001908152602001600020549050600060088381548110612c26577f4e487b7100000000000000000000000000000000000000000000000000000000600052603260045260246000fd5b906000526020600020015490508060088381548110612c6e577f4e487b7100000000000000000000000000000000000000000000000000000000600052603260045260246000fd5b906000526020600020018190555081600960008381526020019081526020016000208190555060096000858152602001908152602001600020600090556008805480612ce3577f4e487b7100000000000000000000000000000000000000000000000000000000600052603160045260246000fd5b6001900381819060005260206000200160009055905550505050565b6000612d0a83610c39565b905081600660008573ffffffffffffffffffffffffffffffffffffffff1673ffffffffffffffffffffffffffffffffffffffff168152602001908152602001600020600083815260200190815260200160002081905550806007600084815260200190815260200160002081905550505050565b828054612d8a90613be8565b90600052602060002090601f016020900481019282612dac5760008555612df3565b82601f10612dc557805160ff1916838001178555612df3565b82800160010185558215612df3579182015b82811115612df2578251825591602001919060010190612dd7565b5b509050612e009190612e44565b5090565b508054612e1090613be8565b6000825580601f10612e225750612e41565b601f016020900490600052602060002090810190612e409190612e44565b5b50565b5b80821115612e5d576000816000905550600101612e45565b5090565b6000612e74612e6f84613a03565b6139de565b905082815260208101848484011115612e8c57600080fd5b612e97848285613ba6565b509392505050565b600081359050612eae8161443f565b92915050565b600081359050612ec381614456565b92915050565b600081359050612ed88161446d565b92915050565b600081519050612eed8161446d565b92915050565b600082601f830112612f0457600080fd5b8135612f14848260208601612e61565b91505092915050565b600081359050612f2c81614484565b92915050565b600081359050612f4181614494565b92915050565b600060208284031215612f5957600080fd5b6000612f6784828501612e9f565b91505092915050565b60008060408385031215612f8357600080fd5b6000612f9185828601612e9f565b9250506020612fa285828601612e9f565b9150509250929050565b600080600060608486031215612fc157600080fd5b6000612fcf86828701612e9f565b9350506020612fe086828701612e9f565b9250506040612ff186828701612f32565b9150509250925092565b6000806000806080858703121561301157600080fd5b600061301f87828801612e9f565b945050602061303087828801612e9f565b935050604061304187828801612f32565b925050606085013567ffffffffffffffff81111561305e57600080fd5b61306a87828801612ef3565b91505092959194509250565b6000806040838503121561308957600080fd5b600061309785828601612e9f565b92505060206130a885828601612eb4565b9150509250929050565b600080604083850312156130c557600080fd5b60006130d385828601612e9f565b92505060206130e485828601612f32565b9150509250929050565b60006020828403121561310057600080fd5b600061310e84828501612ec9565b91505092915050565b60006020828403121561312957600080fd5b600061313784828501612ede565b91505092915050565b60006020828403121561315257600080fd5b600061316084828501612f1d565b91505092915050565b60006020828403121561317b57600080fd5b600061318984828501612f32565b91505092915050565b61319b81613b32565b82525050565b6131aa81613b44565b82525050565b60006131bb82613a34565b6131c58185613a4a565b93506131d5818560208601613bb5565b6131de81613d81565b840191505092915050565b60006131f482613a3f565b6131fe8185613a5b565b935061320e818560208601613bb5565b61321781613d81565b840191505092915050565b600061322d82613a3f565b6132378185613a6c565b9350613247818560208601613bb5565b80840191505092915050565b6000613260602b83613a5b565b915061326b82613d92565b604082019050919050565b6000613283603283613a5b565b915061328e82613de1565b604082019050919050565b60006132a6602683613a5b565b91506132b182613e30565b604082019050919050565b60006132c9600f83613a5b565b91506132d482613e7f565b602082019050919050565b60006132ec602583613a5b565b91506132f782613ea8565b604082019050919050565b600061330f601c83613a5b565b915061331a82613ef7565b602082019050919050565b6000613332603083613a5b565b915061333d82613f20565b604082019050919050565b6000613355602483613a5b565b915061336082613f6f565b604082019050919050565b6000613378601983613a5b565b915061338382613fbe565b602082019050919050565b600061339b602c83613a5b565b91506133a682613fe7565b604082019050919050565b60006133be603883613a5b565b91506133c982614036565b604082019050919050565b60006133e1602a83613a5b565b91506133ec82614085565b604082019050919050565b6000613404602983613a5b565b915061340f826140d4565b604082019050919050565b6000613427602e83613a5b565b915061343282614123565b604082019050919050565b600061344a602083613a5b565b915061345582614172565b602082019050919050565b600061346d602083613a5b565b91506134788261419b565b602082019050919050565b6000613490603183613a5b565b915061349b826141c4565b604082019050919050565b60006134b3602c83613a5b565b91506134be82614213565b604082019050919050565b60006134d6602083613a5b565b91506134e182614262565b602082019050919050565b60006134f9602f83613a5b565b91506135048261428b565b604082019050919050565b600061351c602183613a5b565b9150613527826142da565b604082019050919050565b600061353f601483613a5b565b915061354a82614329565b602082019050919050565b6000613562603183613a5b565b915061356d82614352565b604082019050919050565b6000613585602c83613a5b565b9150613590826143a1565b604082019050919050565b60006135a8603083613a5b565b91506135b3826143f0565b604082019050919050565b6135c781613b9c565b82525050565b60006135d98285613222565b91506135e58284613222565b91508190509392505050565b60006020820190506136066000830184613192565b92915050565b60006080820190506136216000830187613192565b61362e6020830186613192565b61363b60408301856135be565b818103606083015261364d81846131b0565b905095945050505050565b600060208201905061366d60008301846131a1565b92915050565b6000602082019050818103600083015261368d81846131e9565b905092915050565b600060208201905081810360008301526136ae81613253565b9050919050565b600060208201905081810360008301526136ce81613276565b9050919050565b600060208201905081810360008301526136ee81613299565b9050919050565b6000602082019050818103600083015261370e816132bc565b9050919050565b6000602082019050818103600083015261372e816132df565b9050919050565b6000602082019050818103600083015261374e81613302565b9050919050565b6000604082019050818103600083015261376e81613325565b905061377d60208301846135be565b92915050565b6000602082019050818103600083015261379c81613348565b9050919050565b600060208201905081810360008301526137bc8161336b565b9050919050565b600060208201905081810360008301526137dc8161338e565b9050919050565b600060208201905081810360008301526137fc816133b1565b9050919050565b6000602082019050818103600083015261381c816133d4565b9050919050565b6000602082019050818103600083015261383c816133f7565b9050919050565b6000602082019050818103600083015261385c8161341a565b9050919050565b6000602082019050818103600083015261387c8161343d565b9050919050565b6000602082019050818103600083015261389c81613460565b9050919050565b600060208201905081810360008301526138bc81613483565b9050919050565b600060208201905081810360008301526138dc816134a6565b9050919050565b600060208201905081810360008301526138fc816134c9565b9050919050565b6000602082019050818103600083015261391c816134ec565b9050919050565b6000602082019050818103600083015261393c8161350f565b9050919050565b6000602082019050818103600083015261395c81613532565b9050919050565b6000602082019050818103600083015261397c81613555565b9050919050565b6000602082019050818103600083015261399c81613578565b9050919050565b600060208201905081810360008301526139bc8161359b565b9050919050565b60006020820190506139d860008301846135be565b92915050565b60006139e86139f9565b90506139f48282613c1a565b919050565b6000604051905090565b600067ffffffffffffffff821115613a1e57613a1d613d52565b5b613a2782613d81565b9050602081019050919050565b600081519050919050565b600081519050919050565b600082825260208201905092915050565b600082825260208201905092915050565b600081905092915050565b6000613a8282613b9c565b9150613a8d83613b9c565b9250827fffffffffffffffffffffffffffffffffffffffffffffffffffffffffffffffff03821115613ac257613ac1613cc5565b5b828201905092915050565b6000613ad882613b9c565b9150613ae383613b9c565b925082613af357613af2613cf4565b5b828204905092915050565b6000613b0982613b9c565b9150613b1483613b9c565b925082821015613b2757613b26613cc5565b5b828203905092915050565b6000613b3d82613b7c565b9050919050565b60008115159050919050565b60007fffffffff0000000000000000000000000000000000000000000000000000000082169050919050565b600073ffffffffffffffffffffffffffffffffffffffff82169050919050565b6000819050919050565b82818337600083830152505050565b60005b83811015613bd3578082015181840152602081019050613bb8565b83811115613be2576000848401525b50505050565b60006002820490506001821680613c0057607f821691505b60208210811415613c1457613c13613d23565b5b50919050565b613c2382613d81565b810181811067ffffffffffffffff82111715613c4257613c41613d52565b5b80604052505050565b6000613c5682613b9c565b91507fffffffffffffffffffffffffffffffffffffffffffffffffffffffffffffffff821415613c8957613c88613cc5565b5b600182019050919050565b6000613c9f82613b9c565b9150613caa83613b9c565b925082613cba57613cb9613cf4565b5b828206905092915050565b7f4e487b7100000000000000000000000000000000000000000000000000000000600052601160045260246000fd5b7f4e487b7100000000000000000000000000000000000000000000000000000000600052601260045260246000fd5b7f4e487b7100000000000000000000000000000000000000000000000000000000600052602260045260246000fd5b7f4e487b7100000000000000000000000000000000000000000000000000000000600052604160045260246000fd5b6000601f19601f8301169050919050565b7f455243373231456e756d657261626c653a206f776e657220696e646578206f7560008201527f74206f6620626f756e6473000000000000000000000000000000000000000000602082015250565b7f4552433732313a207472616e7366657220746f206e6f6e20455243373231526560008201527f63656976657220696d706c656d656e7465720000000000000000000000000000602082015250565b7f4f776e61626c653a206e6577206f776e657220697320746865207a65726f206160008201527f6464726573730000000000000000000000000000000000000000000000000000602082015250565b7f57726f6e67206c616e6420747970650000000000000000000000000000000000600082015250565b7f4552433732313a207472616e736665722066726f6d20696e636f72726563742060008201527f6f776e6572000000000000000000000000000000000000000000000000000000602082015250565b7f4552433732313a20746f6b656e20616c7265616479206d696e74656400000000600082015250565b7f596f752063616e2774206d696e74206c616e6473206f6620746869732074797060008201527f652c206c696d6974207265616368656400000000000000000000000000000000602082015250565b7f4552433732313a207472616e7366657220746f20746865207a65726f2061646460008201527f7265737300000000000000000000000000000000000000000000000000000000602082015250565b7f4552433732313a20617070726f766520746f2063616c6c657200000000000000600082015250565b7f4552433732313a206f70657261746f7220717565727920666f72206e6f6e657860008201527f697374656e7420746f6b656e0000000000000000000000000000000000000000602082015250565b7f4552433732313a20617070726f76652063616c6c6572206973206e6f74206f7760008201527f6e6572206e6f7220617070726f76656420666f7220616c6c0000000000000000602082015250565b7f4552433732313a2062616c616e636520717565727920666f7220746865207a6560008201527f726f206164647265737300000000000000000000000000000000000000000000602082015250565b7f4552433732313a206f776e657220717565727920666f72206e6f6e657869737460008201527f656e7420746f6b656e0000000000000000000000000000000000000000000000602082015250565b7f45524337323155524953746f726167653a2055524920736574206f66206e6f6e60008201527f6578697374656e7420746f6b656e000000000000000000000000000000000000602082015250565b7f4552433732313a206d696e7420746f20746865207a65726f2061646472657373600082015250565b7f596f752063616e206d696e74206a757374206f6e6520536d616c6c204c616e64600082015250565b7f45524337323155524953746f726167653a2055524920717565727920666f722060008201527f6e6f6e6578697374656e7420746f6b656e000000000000000000000000000000602082015250565b7f4552433732313a20617070726f76656420717565727920666f72206e6f6e657860008201527f697374656e7420746f6b656e0000000000000000000000000000000000000000602082015250565b7f4f776e61626c653a2063616c6c6572206973206e6f7420746865206f776e6572600082015250565b7f4552433732314d657461646174613a2055524920717565727920666f72206e6f60008201527f6e6578697374656e7420746f6b656e0000000000000000000000000000000000602082015250565b7f4552433732313a20617070726f76616c20746f2063757272656e74206f776e6560008201527f7200000000000000000000000000000000000000000000000000000000000000602082015250565b7f57726f6e67206465706f73697420616d6f756e74000000000000000000000000600082015250565b7f4552433732313a207472616e736665722063616c6c6572206973206e6f74206f60008201527f776e6572206e6f7220617070726f766564000000000000000000000000000000602082015250565b7f455243373231456e756d657261626c653a20676c6f62616c20696e646578206f60008201527f7574206f6620626f756e64730000000000000000000000000000000000000000602082015250565b7f4552433732314275726e61626c653a2063616c6c6572206973206e6f74206f7760008201527f6e6572206e6f7220617070726f76656400000000000000000000000000000000602082015250565b61444881613b32565b811461445357600080fd5b50565b61445f81613b44565b811461446a57600080fd5b50565b61447681613b50565b811461448157600080fd5b50565b6003811061449157600080fd5b50565b61449d81613b9c565b81146144a857600080fd5b5056fe6261666b7265696876636f72616978647978366a62726c6d6c667734357073726a6c6b77656d703769653377636b79653766726e796862646e6f696261666b72656967657a7566696837676d763664367866626d3361636b62767378786277356d70726c74336878356b767465376b6a6b6261786a756261666b72656965707a726d776365717535753662356478326a64727232767135756a6568696275347633327a64787267346a64677473326f7a71a264697066735822122067bcc3a804edf2c638e40dd9a016c6e4f4c84cae517c73d7aea21a2078990f1964736f6c63430008040033",
  "linkReferences": {},
  "deployedLinkReferences": {}
}