{
  "_format": "hh-sol-artifact-1",
  "contractName": "LandNFTContract",
  "sourceName": "src/backend/contracts/LandNFT.sol",
  "abi": [
    {
      "inputs": [],
      "stateMutability": "nonpayable",
      "type": "constructor"
    },
    {
      "inputs": [
        {
          "internalType": "string",
          "name": "message",
          "type": "string"
        },
        {
          "internalType": "uint256",
          "name": "limit",
          "type": "uint256"
        }
      ],
      "name": "LandsLimitError",
      "type": "error"
    },
    {
      "inputs": [
        {
          "internalType": "string",
          "name": "message",
          "type": "string"
        }
      ],
      "name": "LandsSmallLimitError",
      "type": "error"
    },
    {
      "anonymous": false,
      "inputs": [
        {
          "indexed": false,
          "internalType": "address",
          "name": "previousAdmin",
          "type": "address"
        },
        {
          "indexed": false,
          "internalType": "address",
          "name": "newAdmin",
          "type": "address"
        }
      ],
      "name": "AdminChanged",
      "type": "event"
    },
    {
      "anonymous": false,
      "inputs": [
        {
          "indexed": true,
          "internalType": "address",
          "name": "owner",
          "type": "address"
        },
        {
          "indexed": true,
          "internalType": "address",
          "name": "approved",
          "type": "address"
        },
        {
          "indexed": true,
          "internalType": "uint256",
          "name": "tokenId",
          "type": "uint256"
        }
      ],
      "name": "Approval",
      "type": "event"
    },
    {
      "anonymous": false,
      "inputs": [
        {
          "indexed": true,
          "internalType": "address",
          "name": "owner",
          "type": "address"
        },
        {
          "indexed": true,
          "internalType": "address",
          "name": "operator",
          "type": "address"
        },
        {
          "indexed": false,
          "internalType": "bool",
          "name": "approved",
          "type": "bool"
        }
      ],
      "name": "ApprovalForAll",
      "type": "event"
    },
    {
      "anonymous": false,
      "inputs": [
        {
          "indexed": true,
          "internalType": "address",
          "name": "beacon",
          "type": "address"
        }
      ],
      "name": "BeaconUpgraded",
      "type": "event"
    },
    {
      "anonymous": false,
      "inputs": [
        {
          "indexed": false,
          "internalType": "uint8",
          "name": "version",
          "type": "uint8"
        }
      ],
      "name": "Initialized",
      "type": "event"
    },
    {
      "anonymous": false,
      "inputs": [
        {
          "indexed": true,
          "internalType": "address",
          "name": "previousOwner",
          "type": "address"
        },
        {
          "indexed": true,
          "internalType": "address",
          "name": "newOwner",
          "type": "address"
        }
      ],
      "name": "OwnershipTransferred",
      "type": "event"
    },
    {
      "anonymous": false,
      "inputs": [
        {
          "indexed": true,
          "internalType": "address",
          "name": "from",
          "type": "address"
        },
        {
          "indexed": true,
          "internalType": "address",
          "name": "to",
          "type": "address"
        },
        {
          "indexed": true,
          "internalType": "uint256",
          "name": "tokenId",
          "type": "uint256"
        }
      ],
      "name": "Transfer",
      "type": "event"
    },
    {
      "anonymous": false,
      "inputs": [
        {
          "indexed": true,
          "internalType": "address",
          "name": "implementation",
          "type": "address"
        }
      ],
      "name": "Upgraded",
      "type": "event"
    },
    {
      "inputs": [
        {
          "internalType": "address",
          "name": "to",
          "type": "address"
        },
        {
          "internalType": "uint256",
          "name": "tokenId",
          "type": "uint256"
        }
      ],
      "name": "approve",
      "outputs": [],
      "stateMutability": "nonpayable",
      "type": "function"
    },
    {
      "inputs": [
        {
          "internalType": "address",
          "name": "owner",
          "type": "address"
        }
      ],
      "name": "balanceOf",
      "outputs": [
        {
          "internalType": "uint256",
          "name": "",
          "type": "uint256"
        }
      ],
      "stateMutability": "view",
      "type": "function"
    },
    {
      "inputs": [
        {
          "internalType": "uint256",
          "name": "tokenId",
          "type": "uint256"
        }
      ],
      "name": "burn",
      "outputs": [],
      "stateMutability": "nonpayable",
      "type": "function"
    },
    {
      "inputs": [
        {
          "internalType": "uint256",
          "name": "_id",
          "type": "uint256"
        },
        {
          "internalType": "uint256",
          "name": "_payAmount",
          "type": "uint256"
        },
        {
          "internalType": "address",
          "name": "_newOwner",
          "type": "address"
        }
      ],
      "name": "buyToken",
      "outputs": [
        {
          "internalType": "address",
          "name": "",
          "type": "address"
        }
      ],
      "stateMutability": "nonpayable",
      "type": "function"
    },
    {
      "inputs": [],
      "name": "getAllLands",
      "outputs": [
        {
          "components": [
            {
              "internalType": "uint256",
              "name": "price",
              "type": "uint256"
            },
            {
              "internalType": "uint256",
              "name": "limitCount",
              "type": "uint256"
            },
            {
              "internalType": "uint8",
              "name": "zombiesPerDay",
              "type": "uint8"
            },
            {
              "internalType": "string",
              "name": "media",
              "type": "string"
            }
          ],
          "internalType": "struct LandNFTContract.LandTypeData[]",
          "name": "",
          "type": "tuple[]"
        }
      ],
      "stateMutability": "view",
      "type": "function"
    },
    {
      "inputs": [
        {
          "internalType": "uint256",
          "name": "tokenId",
          "type": "uint256"
        }
      ],
      "name": "getApproved",
      "outputs": [
        {
          "internalType": "address",
          "name": "",
          "type": "address"
        }
      ],
      "stateMutability": "view",
      "type": "function"
    },
    {
      "inputs": [
        {
          "internalType": "uint256",
          "name": "_landId",
          "type": "uint256"
        }
      ],
      "name": "getLandMintZombiesCount",
      "outputs": [
        {
          "internalType": "uint8",
          "name": "",
          "type": "uint8"
        }
      ],
      "stateMutability": "view",
      "type": "function"
    },
    {
      "inputs": [
        {
          "internalType": "uint256[]",
          "name": "_listId",
          "type": "uint256[]"
        }
      ],
      "name": "getListById",
      "outputs": [
        {
          "components": [
            {
              "internalType": "uint256",
              "name": "tokenId",
              "type": "uint256"
            },
            {
              "internalType": "enum LandNFTContract.LandType",
              "name": "landType",
              "type": "uint8"
            },
            {
              "internalType": "uint256",
              "name": "lastZombieClaim",
              "type": "uint256"
            },
            {
              "internalType": "uint256",
              "name": "salePrice",
              "type": "uint256"
            },
            {
              "internalType": "string",
              "name": "media",
              "type": "string"
            },
            {
              "internalType": "string",
              "name": "nftType",
              "type": "string"
            },
            {
              "internalType": "uint256",
              "name": "discoverEvents",
              "type": "uint256"
            },
            {
              "internalType": "uint256",
              "name": "countMintedZombies",
              "type": "uint256"
            },
            {
              "internalType": "address",
              "name": "ownerId",
              "type": "address"
            }
          ],
          "internalType": "struct LandNFTContract.Land[]",
          "name": "",
          "type": "tuple[]"
        }
      ],
      "stateMutability": "view",
      "type": "function"
    },
    {
      "inputs": [
        {
          "internalType": "uint256",
          "name": "_startIndex",
          "type": "uint256"
        },
        {
          "internalType": "uint8",
          "name": "_count",
          "type": "uint8"
        },
        {
          "internalType": "string",
          "name": "_filterLandType",
          "type": "string"
        }
      ],
      "name": "getMarketItems",
      "outputs": [
        {
          "internalType": "uint256",
          "name": "",
          "type": "uint256"
        },
        {
          "components": [
            {
              "internalType": "uint256",
              "name": "tokenId",
              "type": "uint256"
            },
            {
              "internalType": "enum LandNFTContract.LandType",
              "name": "landType",
              "type": "uint8"
            },
            {
              "internalType": "uint256",
              "name": "lastZombieClaim",
              "type": "uint256"
            },
            {
              "internalType": "uint256",
              "name": "salePrice",
              "type": "uint256"
            },
            {
              "internalType": "string",
              "name": "media",
              "type": "string"
            },
            {
              "internalType": "string",
              "name": "nftType",
              "type": "string"
            },
            {
              "internalType": "uint256",
              "name": "discoverEvents",
              "type": "uint256"
            },
            {
              "internalType": "uint256",
              "name": "countMintedZombies",
              "type": "uint256"
            },
            {
              "internalType": "address",
              "name": "ownerId",
              "type": "address"
            }
          ],
          "internalType": "struct LandNFTContract.Land[]",
          "name": "",
          "type": "tuple[]"
        }
      ],
      "stateMutability": "view",
      "type": "function"
    },
    {
      "inputs": [
        {
          "internalType": "address",
          "name": "_mainContract",
          "type": "address"
        }
      ],
      "name": "initialize",
      "outputs": [],
      "stateMutability": "nonpayable",
      "type": "function"
    },
    {
      "inputs": [
        {
          "internalType": "address",
          "name": "owner",
          "type": "address"
        },
        {
          "internalType": "address",
          "name": "operator",
          "type": "address"
        }
      ],
      "name": "isApprovedForAll",
      "outputs": [
        {
          "internalType": "bool",
          "name": "",
          "type": "bool"
        }
      ],
      "stateMutability": "view",
      "type": "function"
    },
    {
      "inputs": [
        {
          "internalType": "uint256",
          "name": "_id",
          "type": "uint256"
        }
      ],
      "name": "landInfo",
      "outputs": [
        {
          "internalType": "address",
          "name": "",
          "type": "address"
        },
        {
          "internalType": "string",
          "name": "",
          "type": "string"
        },
        {
          "internalType": "uint256",
          "name": "",
          "type": "uint256"
        }
      ],
      "stateMutability": "view",
      "type": "function"
    },
    {
      "inputs": [
        {
          "internalType": "uint256",
          "name": "_id",
          "type": "uint256"
        }
      ],
      "name": "landInfoType",
      "outputs": [
        {
          "internalType": "string",
          "name": "",
          "type": "string"
        }
      ],
      "stateMutability": "view",
      "type": "function"
    },
    {
      "inputs": [
        {
          "internalType": "uint256",
          "name": "_landId",
          "type": "uint256"
        }
      ],
      "name": "landSetMintTimestamp",
      "outputs": [],
      "stateMutability": "nonpayable",
      "type": "function"
    },
    {
      "inputs": [
        {
          "internalType": "enum LandNFTContract.LandType",
          "name": "",
          "type": "uint8"
        }
      ],
      "name": "landTypeCount",
      "outputs": [
        {
          "internalType": "uint256",
          "name": "",
          "type": "uint256"
        }
      ],
      "stateMutability": "view",
      "type": "function"
    },
    {
      "inputs": [
        {
          "internalType": "enum LandNFTContract.LandType",
          "name": "",
          "type": "uint8"
        }
      ],
      "name": "landTypeData",
      "outputs": [
        {
          "internalType": "uint256",
          "name": "price",
          "type": "uint256"
        },
        {
          "internalType": "uint256",
          "name": "limitCount",
          "type": "uint256"
        },
        {
          "internalType": "uint8",
          "name": "zombiesPerDay",
          "type": "uint8"
        },
        {
          "internalType": "string",
          "name": "media",
          "type": "string"
        }
      ],
      "stateMutability": "view",
      "type": "function"
    },
    {
      "inputs": [
        {
          "internalType": "uint8",
          "name": "",
          "type": "uint8"
        }
      ],
      "name": "landTypeIndex",
      "outputs": [
        {
          "internalType": "enum LandNFTContract.LandType",
          "name": "",
          "type": "uint8"
        }
      ],
      "stateMutability": "view",
      "type": "function"
    },
    {
      "inputs": [],
      "name": "name",
      "outputs": [
        {
          "internalType": "string",
          "name": "",
          "type": "string"
        }
      ],
      "stateMutability": "view",
      "type": "function"
    },
    {
      "inputs": [],
      "name": "owner",
      "outputs": [
        {
          "internalType": "address",
          "name": "",
          "type": "address"
        }
      ],
      "stateMutability": "view",
      "type": "function"
    },
    {
      "inputs": [
        {
          "internalType": "uint256",
          "name": "tokenId",
          "type": "uint256"
        }
      ],
      "name": "ownerOf",
      "outputs": [
        {
          "internalType": "address",
          "name": "",
          "type": "address"
        }
      ],
      "stateMutability": "view",
      "type": "function"
    },
    {
      "inputs": [],
      "name": "proxiableUUID",
      "outputs": [
        {
          "internalType": "bytes32",
          "name": "",
          "type": "bytes32"
        }
      ],
      "stateMutability": "view",
      "type": "function"
    },
    {
      "inputs": [],
      "name": "renounceOwnership",
      "outputs": [],
      "stateMutability": "nonpayable",
      "type": "function"
    },
    {
      "inputs": [],
      "name": "safeMint",
      "outputs": [
        {
          "internalType": "uint256",
          "name": "",
          "type": "uint256"
        }
      ],
      "stateMutability": "payable",
      "type": "function"
    },
    {
      "inputs": [
        {
          "internalType": "address",
          "name": "from",
          "type": "address"
        },
        {
          "internalType": "address",
          "name": "to",
          "type": "address"
        },
        {
          "internalType": "uint256",
          "name": "tokenId",
          "type": "uint256"
        }
      ],
      "name": "safeTransferFrom",
      "outputs": [],
      "stateMutability": "nonpayable",
      "type": "function"
    },
    {
      "inputs": [
        {
          "internalType": "address",
          "name": "from",
          "type": "address"
        },
        {
          "internalType": "address",
          "name": "to",
          "type": "address"
        },
        {
          "internalType": "uint256",
          "name": "tokenId",
          "type": "uint256"
        },
        {
          "internalType": "bytes",
          "name": "data",
          "type": "bytes"
        }
      ],
      "name": "safeTransferFrom",
      "outputs": [],
      "stateMutability": "nonpayable",
      "type": "function"
    },
    {
      "inputs": [
        {
          "internalType": "address",
          "name": "operator",
          "type": "address"
        },
        {
          "internalType": "bool",
          "name": "approved",
          "type": "bool"
        }
      ],
      "name": "setApprovalForAll",
      "outputs": [],
      "stateMutability": "nonpayable",
      "type": "function"
    },
    {
      "inputs": [
        {
          "internalType": "uint256",
          "name": "_tokenId",
          "type": "uint256"
        },
        {
          "internalType": "uint256",
          "name": "_price",
          "type": "uint256"
        },
        {
          "internalType": "address",
          "name": "_ownerId",
          "type": "address"
        }
      ],
      "name": "setMarketSalePrice",
      "outputs": [],
      "stateMutability": "nonpayable",
      "type": "function"
    },
    {
      "inputs": [
        {
          "internalType": "bytes4",
          "name": "_interfaceId",
          "type": "bytes4"
        }
      ],
      "name": "supportsInterface",
      "outputs": [
        {
          "internalType": "bool",
          "name": "",
          "type": "bool"
        }
      ],
      "stateMutability": "view",
      "type": "function"
    },
    {
      "inputs": [],
      "name": "symbol",
      "outputs": [
        {
          "internalType": "string",
          "name": "",
          "type": "string"
        }
      ],
      "stateMutability": "view",
      "type": "function"
    },
    {
      "inputs": [
        {
          "internalType": "uint256",
          "name": "index",
          "type": "uint256"
        }
      ],
      "name": "tokenByIndex",
      "outputs": [
        {
          "internalType": "uint256",
          "name": "",
          "type": "uint256"
        }
      ],
      "stateMutability": "view",
      "type": "function"
    },
    {
      "inputs": [
        {
          "internalType": "address",
          "name": "owner",
          "type": "address"
        },
        {
          "internalType": "uint256",
          "name": "index",
          "type": "uint256"
        }
      ],
      "name": "tokenOfOwnerByIndex",
      "outputs": [
        {
          "internalType": "uint256",
          "name": "",
          "type": "uint256"
        }
      ],
      "stateMutability": "view",
      "type": "function"
    },
    {
      "inputs": [
        {
          "internalType": "uint256",
          "name": "_tokenId",
          "type": "uint256"
        }
      ],
      "name": "tokenURI",
      "outputs": [
        {
          "internalType": "string",
          "name": "",
          "type": "string"
        }
      ],
      "stateMutability": "view",
      "type": "function"
    },
    {
      "inputs": [],
      "name": "totalSupply",
      "outputs": [
        {
          "internalType": "uint256",
          "name": "",
          "type": "uint256"
        }
      ],
      "stateMutability": "view",
      "type": "function"
    },
    {
      "inputs": [
        {
          "internalType": "address",
          "name": "from",
          "type": "address"
        },
        {
          "internalType": "address",
          "name": "to",
          "type": "address"
        },
        {
          "internalType": "uint256",
          "name": "tokenId",
          "type": "uint256"
        }
      ],
      "name": "transferFrom",
      "outputs": [],
      "stateMutability": "nonpayable",
      "type": "function"
    },
    {
      "inputs": [
        {
          "internalType": "address",
          "name": "newOwner",
          "type": "address"
        }
      ],
      "name": "transferOwnership",
      "outputs": [],
      "stateMutability": "nonpayable",
      "type": "function"
    },
    {
      "inputs": [
        {
          "internalType": "address",
          "name": "newImplementation",
          "type": "address"
        }
      ],
      "name": "upgradeTo",
      "outputs": [],
      "stateMutability": "nonpayable",
      "type": "function"
    },
    {
      "inputs": [
        {
          "internalType": "address",
          "name": "newImplementation",
          "type": "address"
        },
        {
          "internalType": "bytes",
          "name": "data",
          "type": "bytes"
        }
      ],
      "name": "upgradeToAndCall",
      "outputs": [],
      "stateMutability": "payable",
      "type": "function"
    },
    {
      "inputs": [],
      "name": "userLands",
      "outputs": [
        {
          "components": [
            {
              "internalType": "uint256",
              "name": "tokenId",
              "type": "uint256"
            },
            {
              "internalType": "enum LandNFTContract.LandType",
              "name": "landType",
              "type": "uint8"
            },
            {
              "internalType": "uint256",
              "name": "lastZombieClaim",
              "type": "uint256"
            },
            {
              "internalType": "uint256",
              "name": "salePrice",
              "type": "uint256"
            },
            {
              "internalType": "string",
              "name": "media",
              "type": "string"
            },
            {
              "internalType": "string",
              "name": "nftType",
              "type": "string"
            },
            {
              "internalType": "uint256",
              "name": "discoverEvents",
              "type": "uint256"
            },
            {
              "internalType": "uint256",
              "name": "countMintedZombies",
              "type": "uint256"
            },
            {
              "internalType": "address",
              "name": "ownerId",
              "type": "address"
            }
          ],
          "internalType": "struct LandNFTContract.Land[]",
          "name": "",
          "type": "tuple[]"
        }
      ],
      "stateMutability": "view",
      "type": "function"
    },
    {
      "inputs": [
        {
          "internalType": "uint256",
          "name": "_amount",
          "type": "uint256"
        }
      ],
      "name": "withdrawToken",
      "outputs": [],
      "stateMutability": "nonpayable",
      "type": "function"
    }
  ],
  "bytecode": "0x60a0604052306080523480156200001557600080fd5b506200002062000026565b620000e8565b600054610100900460ff1615620000935760405162461bcd60e51b815260206004820152602760248201527f496e697469616c697a61626c653a20636f6e747261637420697320696e697469604482015266616c697a696e6760c81b606482015260840160405180910390fd5b60005460ff9081161015620000e6576000805460ff191660ff9081179091556040519081527f7f26b83ff96e1f2b6a682f133852f6798a09c465da95921460cefb38474024989060200160405180910390a15b565b608051614e4c6200012060003960008181610e4401528181610e8401528181610f6d01528181610fad01526111080152614e4c6000f3fe60806040526004361061022f5760003560e01c80636352211e1161012e578063b7b6e543116100ab578063d8e4c9b21161006f578063d8e4c9b2146106b4578063e7e937b9146106e2578063e985e9c514610714578063f2fde38b1461075d578063feb9fd641461077d57600080fd5b8063b7b6e54314610603578063b88d4fde14610625578063c3edcdd114610645578063c4d66de814610674578063c87b56dd1461069457600080fd5b80638e169b14116100f25780638e169b141461054057806395d89b4114610560578063a22cb46514610575578063a2e7ccb514610595578063a5d6c8e9146105d357600080fd5b80636352211e146104c45780636871ee40146104e457806370a08231146104ec578063715018a61461050c5780638da5cb5b1461052157600080fd5b806323b872dd116101bc5780634f1ef286116101805780634f1ef2861461043c5780634f6ccce71461044f57806350baa6221461046f57806352d1902d1461048f57806359cc3cb8146104a457600080fd5b806323b872dd1461039c5780632f745c59146103bc5780633659cfe6146103dc57806342842e0e146103fc57806342966c681461041c57600080fd5b8063095ea7b311610203578063095ea7b3146102e957806317300fcc1461030b57806317cdd6161461034757806318160ddd1461036757806321466eb51461037c57600080fd5b80621d436a1461023457806301ffc9a71461025f57806306fdde031461028f578063081812fc146102b1575b600080fd5b34801561024057600080fd5b5061024961079d565b60405161025691906142ee565b60405180910390f35b34801561026b57600080fd5b5061027f61027a366004614317565b610a0a565b6040519015158152602001610256565b34801561029b57600080fd5b506102a4610a1b565b6040516102569190614334565b3480156102bd57600080fd5b506102d16102cc366004614347565b610aad565b6040516001600160a01b039091168152602001610256565b3480156102f557600080fd5b50610309610304366004614375565b610ad4565b005b34801561031757600080fd5b506103396103263660046143a1565b6101c66020526000908152604090205481565b604051908152602001610256565b34801561035357600080fd5b50610309610362366004614347565b610bef565b34801561037357600080fd5b50609954610339565b34801561038857600080fd5b506102d16103973660046143c2565b610c28565b3480156103a857600080fd5b506103096103b73660046143fb565b610d71565b3480156103c857600080fd5b506103396103d7366004614375565b610da3565b3480156103e857600080fd5b506103096103f736600461443c565b610e39565b34801561040857600080fd5b506103096104173660046143fb565b610f19565b34801561042857600080fd5b50610309610437366004614347565b610f34565b61030961044a366004614518565b610f62565b34801561045b57600080fd5b5061033961046a366004614347565b611033565b34801561047b57600080fd5b5061030961048a366004614347565b6110c6565b34801561049b57600080fd5b506103396110fb565b3480156104b057600080fd5b506102a46104bf366004614347565b6111ae565b3480156104d057600080fd5b506102d16104df366004614347565b6111d0565b610339611230565b3480156104f857600080fd5b5061033961050736600461443c565b6115d7565b34801561051857600080fd5b5061030961165d565b34801561052d57600080fd5b5061012d546001600160a01b03166102d1565b34801561054c57600080fd5b5061024961055b36600461458c565b611671565b34801561056c57600080fd5b506102a46118e3565b34801561058157600080fd5b50610309610590366004614622565b6118f2565b3480156105a157600080fd5b506105c66105b0366004614676565b6101c56020526000908152604090205460ff1681565b6040516102569190614691565b3480156105df57600080fd5b506105f36105ee3660046143a1565b6118fd565b604051610256949392919061469f565b34801561060f57600080fd5b506106186119b5565b60405161025691906146d1565b34801561063157600080fd5b5061030961064036600461475f565b611b67565b34801561065157600080fd5b50610665610660366004614347565b611b9f565b604051610256939291906147cb565b34801561068057600080fd5b5061030961068f36600461443c565b611be9565b3480156106a057600080fd5b506102a46106af366004614347565b61227b565b3480156106c057600080fd5b506106d46106cf3660046147ff565b612286565b60405161025692919061486a565b3480156106ee57600080fd5b506107026106fd366004614347565b61260e565b60405160ff9091168152602001610256565b34801561072057600080fd5b5061027f61072f366004614883565b6001600160a01b039182166000908152606a6020908152604080832093909416825291909152205460ff1690565b34801561076957600080fd5b5061030961077836600461443c565b61269d565b34801561078957600080fd5b506103096107983660046143c2565b612713565b606060006107aa336115d7565b905060008167ffffffffffffffff8111156107c7576107c7614459565b60405190808252806020026020018201604052801561080057816020015b6107ed614053565b8152602001906001900390816107e55790505b50905060005b82811015610a0357600061081a3383610da3565b60008181526101c960209081526040918290208251610120810190935280548352600181015493945091929083019060ff16600381111561085d5761085d614178565b600381111561086e5761086e614178565b81526020016002820154815260200160038201548152602001600482018054610896906148b1565b80601f01602080910402602001604051908101604052809291908181526020018280546108c2906148b1565b801561090f5780601f106108e45761010080835404028352916020019161090f565b820191906000526020600020905b8154815290600101906020018083116108f257829003601f168201915b50505050508152602001600582018054610928906148b1565b80601f0160208091040260200160405190810160405280929190818152602001828054610954906148b1565b80156109a15780601f10610976576101008083540402835291602001916109a1565b820191906000526020600020905b81548152906001019060200180831161098457829003601f168201915b505050918352505060068201546020820152600782015460408201526008909101546001600160a01b031660609091015283518490849081106109e6576109e66148e6565b602002602001018190525050806109fc90614912565b9050610806565b5092915050565b6000610a15826127ab565b92915050565b606060658054610a2a906148b1565b80601f0160208091040260200160405190810160405280929190818152602001828054610a56906148b1565b8015610aa35780601f10610a7857610100808354040283529160200191610aa3565b820191906000526020600020905b815481529060010190602001808311610a8657829003601f168201915b5050505050905090565b6000610ab8826127d0565b506000908152606960205260409020546001600160a01b031690565b6000610adf826111d0565b9050806001600160a01b0316836001600160a01b03161415610b525760405162461bcd60e51b815260206004820152602160248201527f4552433732313a20617070726f76616c20746f2063757272656e74206f776e656044820152603960f91b60648201526084015b60405180910390fd5b336001600160a01b0382161480610b6e5750610b6e813361072f565b610be05760405162461bcd60e51b815260206004820152603e60248201527f4552433732313a20617070726f76652063616c6c6572206973206e6f7420746f60448201527f6b656e206f776e6572206e6f7220617070726f76656420666f7220616c6c00006064820152608401610b49565b610bea838361282f565b505050565b610bf761289d565b60008181526101c960205260408120426002820155600701805460019290610c2090849061492d565b909155505050565b6000610c32612966565b60008481526101c9602052604090206003810154610c895760405162461bcd60e51b815260206004820152601460248201527315dc9bdb99c81c185e5b595b9d08185b5bdd5b9d60621b6044820152606401610b49565b83816003015414610cd35760405162461bcd60e51b815260206004820152601460248201527315dc9bdb99c81c185e5b595b9d08185b5bdd5b9d60621b6044820152606401610b49565b60088101546001600160a01b0384811691161415610d335760405162461bcd60e51b815260206004820152601f60248201527f43616e27742073656c6c20666f72207468652073616d65206163636f756e74006044820152606401610b49565b6008810180546001600160a01b038581166001600160a01b03198316179092556000600384015516610d668185886129b1565b9150505b9392505050565b610d7c335b82612b58565b610d985760405162461bcd60e51b8152600401610b4990614945565b610bea8383836129b1565b6000610dae836115d7565b8210610e105760405162461bcd60e51b815260206004820152602b60248201527f455243373231456e756d657261626c653a206f776e657220696e646578206f7560448201526a74206f6620626f756e647360a81b6064820152608401610b49565b506001600160a01b03919091166000908152609760209081526040808320938352929052205490565b306001600160a01b037f0000000000000000000000000000000000000000000000000000000000000000161415610e825760405162461bcd60e51b8152600401610b4990614993565b7f00000000000000000000000000000000000000000000000000000000000000006001600160a01b0316610ecb600080516020614d1f833981519152546001600160a01b031690565b6001600160a01b031614610ef15760405162461bcd60e51b8152600401610b49906149df565b610efa81612bd7565b60408051600080825260208201909252610f1691839190612bdf565b50565b610bea83838360405180602001604052806000815250611b67565b610f3d33610d76565b610f595760405162461bcd60e51b8152600401610b4990614945565b610f1681612d4a565b306001600160a01b037f0000000000000000000000000000000000000000000000000000000000000000161415610fab5760405162461bcd60e51b8152600401610b4990614993565b7f00000000000000000000000000000000000000000000000000000000000000006001600160a01b0316610ff4600080516020614d1f833981519152546001600160a01b031690565b6001600160a01b03161461101a5760405162461bcd60e51b8152600401610b49906149df565b61102382612bd7565b61102f82826001612bdf565b5050565b600061103e60995490565b82106110a15760405162461bcd60e51b815260206004820152602c60248201527f455243373231456e756d657261626c653a20676c6f62616c20696e646578206f60448201526b7574206f6620626f756e647360a01b6064820152608401610b49565b609982815481106110b4576110b46148e6565b90600052602060002001549050919050565b6110ce612d5c565b604051339082156108fc029083906000818181858888f1935050505015801561102f573d6000803e3d6000fd5b6000306001600160a01b037f0000000000000000000000000000000000000000000000000000000000000000161461119b5760405162461bcd60e51b815260206004820152603860248201527f555550535570677261646561626c653a206d757374206e6f742062652063616c60448201527f6c6564207468726f7567682064656c656761746563616c6c00000000000000006064820152608401610b49565b50600080516020614d1f83398151915290565b60008181526101c96020526040902060010154606090610a159060ff16612db7565b6000818152606760205260408120546001600160a01b031680610a155760405162461bcd60e51b8152602060048201526018602482015277115490cdcc8c4e881a5b9d985b1a59081d1bdad95b88125160421b6044820152606401610b49565b60008061123b612e8c565b905061124681612fb3565b60006101c7600083600381111561125f5761125f614178565b600381111561127057611270614178565b8152602001908152602001600020600301805461128c906148b1565b80601f01602080910402602001604051908101604052809291908181526020018280546112b8906148b1565b80156113055780601f106112da57610100808354040283529160200191611305565b820191906000526020600020905b8154815290600101906020018083116112e857829003601f168201915b5050505050905060006113186101c45490565b90506113296101c480546001019055565b611333338261311c565b61133d8183613136565b60405180610120016040528082815260200184600381111561136157611361614178565b815260200160008152602001600081526020016101c7600086600381111561138b5761138b614178565b600381111561139c5761139c614178565b815260200190815260200160002060030180546113b8906148b1565b80601f01602080910402602001604051908101604052809291908181526020018280546113e4906148b1565b80156114315780601f1061140657610100808354040283529160200191611431565b820191906000526020600020905b81548152906001019060200180831161141457829003601f168201915b505050505081526020016040518060400160405280600481526020016313185b9960e21b81525081526020016000815260200160008152602001336001600160a01b03168152506101c960008381526020019081526020016000206000820151816000015560208201518160010160006101000a81548160ff021916908360038111156114c0576114c0614178565b02179055506040820151600282015560608201516003820155608082015180516114f49160048401916020909101906140a9565b5060a082015180516115109160058401916020909101906140a9565b5060c0820151600682015560e0820151600782015561010090910151600890910180546001600160a01b0319166001600160a01b039092169190911790556101c6600084600381111561156557611565614178565b600381111561157657611576614178565b8152602001908152602001600020600081548092919061159590614912565b90915550600090508360038111156115af576115af614178565b1415610d6a573360009081526101c860205260409020805460ff191660011790559392505050565b60006001600160a01b0382166116415760405162461bcd60e51b815260206004820152602960248201527f4552433732313a2061646472657373207a65726f206973206e6f7420612076616044820152683634b21037bbb732b960b91b6064820152608401610b49565b506001600160a01b031660009081526068602052604090205490565b611665612d5c565b61166f60006131d0565b565b60606000825167ffffffffffffffff81111561168f5761168f614459565b6040519080825280602002602001820160405280156116c857816020015b6116b5614053565b8152602001906001900390816116ad5790505b50905060005b8351811015610a03576101c960008583815181106116ee576116ee6148e6565b6020026020010151815260200190815260200160002060405180610120016040529081600082015481526020016001820160009054906101000a900460ff16600381111561173e5761173e614178565b600381111561174f5761174f614178565b81526020016002820154815260200160038201548152602001600482018054611777906148b1565b80601f01602080910402602001604051908101604052809291908181526020018280546117a3906148b1565b80156117f05780601f106117c5576101008083540402835291602001916117f0565b820191906000526020600020905b8154815290600101906020018083116117d357829003601f168201915b50505050508152602001600582018054611809906148b1565b80601f0160208091040260200160405190810160405280929190818152602001828054611835906148b1565b80156118825780601f1061185757610100808354040283529160200191611882565b820191906000526020600020905b81548152906001019060200180831161186557829003601f168201915b505050918352505060068201546020820152600782015460408201526008909101546001600160a01b031660609091015282518390839081106118c7576118c76148e6565b6020026020010181905250806118dc90614912565b90506116ce565b606060668054610a2a906148b1565b61102f338383613223565b6101c76020526000908152604090208054600182015460028301546003840180549394929360ff9092169291611932906148b1565b80601f016020809104026020016040519081016040528092919081815260200182805461195e906148b1565b80156119ab5780601f10611980576101008083540402835291602001916119ab565b820191906000526020600020905b81548152906001019060200180831161198e57829003601f168201915b5050505050905084565b60408051600480825260a0820190925260609160009190816020015b6119ff60405180608001604052806000815260200160008152602001600060ff168152602001606081525090565b8152602001906001900390816119d157905050905060005b60048160ff161015611b615760ff80821660009081526101c560205260408120546101c792166003811115611a4e57611a4e614178565b6003811115611a5f57611a5f614178565b81526020808201929092526040908101600020815160808101835281548152600182015493810193909352600281015460ff1691830191909152600381018054606084019190611aae906148b1565b80601f0160208091040260200160405190810160405280929190818152602001828054611ada906148b1565b8015611b275780601f10611afc57610100808354040283529160200191611b27565b820191906000526020600020905b815481529060010190602001808311611b0a57829003601f168201915b505050505081525050828260ff1681518110611b4557611b456148e6565b602002602001018190525080611b5a90614a2b565b9050611a17565b50919050565b611b713383612b58565b611b8d5760405162461bcd60e51b8152600401610b4990614945565b611b99848484846132f2565b50505050565b60008181526101c96020526040812060088101546001820154606092849290916001600160a01b0390911690611bd79060ff16612db7565b60079092015490969195509350915050565b600054610100900460ff1615808015611c095750600054600160ff909116105b80611c235750303b158015611c23575060005460ff166001145b611c865760405162461bcd60e51b815260206004820152602e60248201527f496e697469616c697a61626c653a20636f6e747261637420697320616c72656160448201526d191e481a5b9a5d1a585b1a5e995960921b6064820152608401610b49565b6000805460ff191660011790558015611ca9576000805461ff0019166101001790555b611cee60405180604001604052806007815260200166169bdb53185b9960ca1b815250604051806040016040528060048152602001631693531360e21b815250613325565b611cf6613356565b611cfe613356565b611d06613356565b611d0e61337d565b611d16613356565b6101c380546001600160a01b0319166001600160a01b0384161790556101c560209081527f0ac9d374755404692c16f3e5d6d71fdb2195a9b14c407f14a90c1bb9c44ddf6a805460ff199081169091557f816f2382abfe7a352b739364271e45f343d7faf96f7359e23a6fec9259b0a9818054821660019081179091557fa4d8ad4f5c3cb7fe02cf49e800605bda87de88c643bbfcc265cc60032494f23a80546002908416179055600360008190527f840a6f4c731511087ddd1a93db74c9a8574430ab883f85add70c1912fff0728f8054909316179091556040805160808101825266038d7ea4c68000815261c34f818501528082019290925280516060808201909252603b8082529293918401929091614ddc908301399052600080526101c7602090815281517f803f868a8c92f93994e82b8386807484eb2b85ad4113cddb6f2ba1000bfa9148908155828201517f803f868a8c92f93994e82b8386807484eb2b85ad4113cddb6f2ba1000bfa91495560408301517f803f868a8c92f93994e82b8386807484eb2b85ad4113cddb6f2ba1000bfa914a805460ff191660ff909216919091179055606083015180519192611ef8927f803f868a8c92f93994e82b8386807484eb2b85ad4113cddb6f2ba1000bfa914b92909101906140a9565b5090505060405180608001604052806701118f178fb48000815260200161270f8152602001600260ff1681526020016040518060600160405280603b8152602001614ce4603b9139905260016000526101c7602090815281517fecae23ce77e22cf74da29a9dcf572b01e30bb26796df1b98b54cc945f91a312e908155828201517fecae23ce77e22cf74da29a9dcf572b01e30bb26796df1b98b54cc945f91a312f5560408301517fecae23ce77e22cf74da29a9dcf572b01e30bb26796df1b98b54cc945f91a3130805460ff191660ff90921691909117905560608301518051919261200a927fecae23ce77e22cf74da29a9dcf572b01e30bb26796df1b98b54cc945f91a313192909101906140a9565b509050506040518060800160405280670214e8348c4f0000815260200161176f8152602001600460ff1681526020016040518060600160405280603b8152602001614da1603b9139905260026000526101c7602090815281517f0f664db7d929ca145ef65ba243fb6b0231c84fa0f6d181c15b7a634a3b83b1d6908155828201517f0f664db7d929ca145ef65ba243fb6b0231c84fa0f6d181c15b7a634a3b83b1d75560408301517f0f664db7d929ca145ef65ba243fb6b0231c84fa0f6d181c15b7a634a3b83b1d8805460ff191660ff90921691909117905560608301518051919261211c927f0f664db7d929ca145ef65ba243fb6b0231c84fa0f6d181c15b7a634a3b83b1d992909101906140a9565b509050506040518060800160405280670494654067e1000081526020016107cf8152602001600860ff1681526020016040518060600160405280603b8152602001614d3f603b9139905260036000526101c7602090815281517f01ff15573a5e91f7038bc125320a0fe4228830b2730ae57a221de98fde5afc96908155828201517f01ff15573a5e91f7038bc125320a0fe4228830b2730ae57a221de98fde5afc975560408301517f01ff15573a5e91f7038bc125320a0fe4228830b2730ae57a221de98fde5afc98805460ff191660ff90921691909117905560608301518051919261222e927f01ff15573a5e91f7038bc125320a0fe4228830b2730ae57a221de98fde5afc9992909101906140a9565b50905050801561102f576000805461ff0019169055604051600181527f7f26b83ff96e1f2b6a682f133852f6798a09c465da95921460cefb38474024989060200160405180910390a15050565b6060610a15826133ac565b6000606060008460ff1667ffffffffffffffff8111156122a8576122a8614459565b6040519080825280602002602001820160405280156122e157816020015b6122ce614053565b8152602001906001900390816122c65790505b50905060006101c360009054906101000a90046001600160a01b03166001600160a01b031663f34b899d6040518163ffffffff1660e01b8152600401602060405180830381865afa15801561233a573d6000803e3d6000fd5b505050506040513d601f19601f8201168201806040525081019061235e9190614a4b565b9050600080826001600160a01b0316637620f6258a8a8a6040518463ffffffff1660e01b815260040161239393929190614a68565b600060405180830381865afa1580156123b0573d6000803e3d6000fd5b505050506040513d6000823e601f3d908101601f191682016040526123d89190810190614a8a565b9150915060005b8860ff168110156125fe57828110156125ee576101c96000838381518110612409576124096148e6565b6020026020010151815260200190815260200160002060405180610120016040529081600082015481526020016001820160009054906101000a900460ff16600381111561245957612459614178565b600381111561246a5761246a614178565b81526020016002820154815260200160038201548152602001600482018054612492906148b1565b80601f01602080910402602001604051908101604052809291908181526020018280546124be906148b1565b801561250b5780601f106124e05761010080835404028352916020019161250b565b820191906000526020600020905b8154815290600101906020018083116124ee57829003601f168201915b50505050508152602001600582018054612524906148b1565b80601f0160208091040260200160405190810160405280929190818152602001828054612550906148b1565b801561259d5780601f106125725761010080835404028352916020019161259d565b820191906000526020600020905b81548152906001019060200180831161258057829003601f168201915b505050918352505060068201546020820152600782015460408201526008909101546001600160a01b031660609091015285518690839081106125e2576125e26148e6565b60200260200101819052505b6125f781614912565b90506123df565b5090989297509195505050505050565b60008181526101c96020526040812060020154620151809081906126329042614b27565b106126945760008381526101c9602052604081206001015460ff16906101c79082600381111561266457612664614178565b600381111561267557612675614178565b815260208101919091526040016000206002015460ff16949350505050565b50600092915050565b6126a5612d5c565b6001600160a01b03811661270a5760405162461bcd60e51b815260206004820152602660248201527f4f776e61626c653a206e6577206f776e657220697320746865207a65726f206160448201526564647265737360d01b6064820152608401610b49565b610f16816131d0565b61271b612966565b60008381526101c960205260409020600801546001600160a01b038281169116146127945760405162461bcd60e51b815260206004820152602360248201527f596f752063616e2774206368616e676520707269636520666f7220746869732060448201526213919560ea1b6064820152608401610b49565b5060009182526101c9602052604090912060030155565b60006001600160e01b0319821663780e9d6360e01b1480610a155750610a15826134d2565b6000818152606760205260409020546001600160a01b0316610f165760405162461bcd60e51b8152602060048201526018602482015277115490cdcc8c4e881a5b9d985b1a59081d1bdad95b88125160421b6044820152606401610b49565b600081815260696020526040902080546001600160a01b0319166001600160a01b0384169081179091558190612864826111d0565b6001600160a01b03167f8c5be1e5ebec7d5bd14f71427d1e84f3dd0314c0f7b2291e5b200ac8c7c3b92560405160405180910390a45050565b6101c3546040805163b53720c560e01b815290516000926001600160a01b03169163b53720c59160048083019260209291908290030181865afa1580156128e8573d6000803e3d6000fd5b505050506040513d601f19601f8201168201806040525081019061290c9190614a4b565b90506001600160a01b0381163314610f165760405162461bcd60e51b815260206004820152601a60248201527f596f752063616e27742063616c6c2074686973206d6574686f640000000000006044820152606401610b49565b6101c3546040805163f34b899d60e01b815290516000926001600160a01b03169163f34b899d9160048083019260209291908290030181865afa1580156128e8573d6000803e3d6000fd5b826001600160a01b03166129c4826111d0565b6001600160a01b031614612a285760405162461bcd60e51b815260206004820152602560248201527f4552433732313a207472616e736665722066726f6d20696e636f72726563742060448201526437bbb732b960d91b6064820152608401610b49565b6001600160a01b038216612a8a5760405162461bcd60e51b8152602060048201526024808201527f4552433732313a207472616e7366657220746f20746865207a65726f206164646044820152637265737360e01b6064820152608401610b49565b612a95838383613522565b612aa060008261282f565b6001600160a01b0383166000908152606860205260408120805460019290612ac9908490614b27565b90915550506001600160a01b0382166000908152606860205260408120805460019290612af790849061492d565b909155505060008181526067602052604080822080546001600160a01b0319166001600160a01b0386811691821790925591518493918716917fddf252ad1be2c89b69c2b068fc378daa952ba7f163c4a11628f55a4df523b3ef91a4505050565b600080612b64836111d0565b9050806001600160a01b0316846001600160a01b03161480612bab57506001600160a01b038082166000908152606a602090815260408083209388168352929052205460ff165b80612bcf5750836001600160a01b0316612bc484610aad565b6001600160a01b0316145b949350505050565b610f16612d5c565b7f4910fdfa16fed3260ed0e7147f7cc6da11a60208b5b9406d12a635614ffd91435460ff1615612c1257610bea83613577565b826001600160a01b03166352d1902d6040518163ffffffff1660e01b8152600401602060405180830381865afa925050508015612c6c575060408051601f3d908101601f19168201909252612c6991810190614b3e565b60015b612ccf5760405162461bcd60e51b815260206004820152602e60248201527f45524331393637557067726164653a206e657720696d706c656d656e7461746960448201526d6f6e206973206e6f74205555505360901b6064820152608401610b49565b600080516020614d1f8339815191528114612d3e5760405162461bcd60e51b815260206004820152602960248201527f45524331393637557067726164653a20756e737570706f727465642070726f786044820152681a58589b195555525160ba1b6064820152608401610b49565b50610bea838383613613565b612d5381613638565b610f1681613678565b61012d546001600160a01b0316331461166f5760405162461bcd60e51b815260206004820181905260248201527f4f776e61626c653a2063616c6c6572206973206e6f7420746865206f776e65726044820152606401610b49565b60606000826003811115612dcd57612dcd614178565b1415612df45750506040805180820190915260058152644d6963726f60d81b602082015290565b6001826003811115612e0857612e08614178565b1415612e2f57505060408051808201909152600581526414db585b1b60da1b602082015290565b6002826003811115612e4357612e43614178565b1415612e6b5750506040805180820190915260068152654d656469756d60d01b602082015290565b50506040805180820190915260058152644c6172676560d81b602082015290565b60008080526101c76020527f803f868a8c92f93994e82b8386807484eb2b85ad4113cddb6f2ba1000bfa914854341415612ec65750600090565b60016000526101c76020527fecae23ce77e22cf74da29a9dcf572b01e30bb26796df1b98b54cc945f91a312e54341415612f005750600190565b60026000526101c76020527f0f664db7d929ca145ef65ba243fb6b0231c84fa0f6d181c15b7a634a3b83b1d654341415612f3a5750600290565b60036000526101c76020527f01ff15573a5e91f7038bc125320a0fe4228830b2730ae57a221de98fde5afc9654341415612f745750600390565b60405162461bcd60e51b815260206004820152601460248201527315dc9bdb99c819195c1bdcda5d08185b5bdd5b9d60621b6044820152606401610b49565b60006101c76000836003811115612fcc57612fcc614178565b6003811115612fdd57612fdd614178565b81526020810191909152604001600090812060010154915082600381111561300757613007614178565b1415613074573360009081526101c8602052604090205460ff161515600114156130745760405163b490537d60e01b815260206004820181905260248201527f596f752063616e206d696e74206a757374206f6e65204d6963726f204c616e646044820152606401610b49565b806101c6600084600381111561308c5761308c614178565b600381111561309d5761309d614178565b8152602001908152602001600020541061102f57604080516309742fc560e21b81526004810191909152603060448201527f596f752063616e2774206d696e74206c616e6473206f6620746869732074797060648201526f194b081b1a5b5a5d081c995858da195960821b60848201526024810182905260a401610b49565b61102f82826040518060200160405280600081525061376c565b6000828152606760205260409020546001600160a01b03166131b15760405162461bcd60e51b815260206004820152602e60248201527f45524337323155524953746f726167653a2055524920736574206f66206e6f6e60448201526d32bc34b9ba32b73a103a37b5b2b760911b6064820152608401610b49565b600082815260c9602090815260409091208251610bea928401906140a9565b61012d80546001600160a01b038381166001600160a01b0319831681179093556040519116919082907f8be0079c531659141344cd1fd0a4f28419497f9722a3daafe3b4186f6b6457e090600090a35050565b816001600160a01b0316836001600160a01b031614156132855760405162461bcd60e51b815260206004820152601960248201527f4552433732313a20617070726f766520746f2063616c6c6572000000000000006044820152606401610b49565b6001600160a01b038381166000818152606a6020908152604080832094871680845294825291829020805460ff191686151590811790915591519182527f17307eab39ab6107e8899845ad3d59bd9653f200f220920489ca2b5937696c31910160405180910390a3505050565b6132fd8484846129b1565b6133098484848461379f565b611b995760405162461bcd60e51b8152600401610b4990614b57565b600054610100900460ff1661334c5760405162461bcd60e51b8152600401610b4990614ba9565b61102f828261389d565b600054610100900460ff1661166f5760405162461bcd60e51b8152600401610b4990614ba9565b600054610100900460ff166133a45760405162461bcd60e51b8152600401610b4990614ba9565b61166f6138eb565b60606133b7826127d0565b600082815260c96020526040812080546133d0906148b1565b80601f01602080910402602001604051908101604052809291908181526020018280546133fc906148b1565b80156134495780601f1061341e57610100808354040283529160200191613449565b820191906000526020600020905b81548152906001019060200180831161342c57829003601f168201915b50505050509050600061348460408051808201909152601581527468747470733a2f2f697066732e696f2f697066732f60581b602082015290565b9050805160001415613497575092915050565b8151156134c95780826040516020016134b1929190614bf4565b60405160208183030381529060405292505050919050565b612bcf8461391b565b60006001600160e01b031982166380ac58cd60e01b148061350357506001600160e01b03198216635b5e139f60e01b145b80610a1557506301ffc9a760e01b6001600160e01b0319831614610a15565b61352d8383836139ab565b6001600160a01b03831615610bea5761354581613678565b60008181526101c96020526040902060080180546001600160a01b0384166001600160a01b0319909116179055505050565b6001600160a01b0381163b6135e45760405162461bcd60e51b815260206004820152602d60248201527f455243313936373a206e657720696d706c656d656e746174696f6e206973206e60448201526c1bdd08184818dbdb9d1c9858dd609a1b6064820152608401610b49565b600080516020614d1f83398151915280546001600160a01b0319166001600160a01b0392909216919091179055565b61361c83613a63565b6000825111806136295750805b15610bea57611b998383613aa3565b61364181613b97565b600081815260c960205260409020805461365a906148b1565b159050610f1657600081815260c960205260408120610f169161412d565b6101c3546040805163f34b899d60e01b815290516000926001600160a01b03169163f34b899d9160048083019260209291908290030181865afa1580156136c3573d6000803e3d6000fd5b505050506040513d601f19601f820116820180604052508101906136e79190614a4b565b6040516314a2c6db60e11b81529091506001600160a01b038216906329458db690613736908590600401908152604060208201819052600490820152631b185b9960e21b606082015260800190565b600060405180830381600087803b15801561375057600080fd5b505af1158015613764573d6000803e3d6000fd5b505050505050565b6137768383613c3e565b613783600084848461379f565b610bea5760405162461bcd60e51b8152600401610b4990614b57565b60006001600160a01b0384163b1561389257604051630a85bd0160e11b81526001600160a01b0385169063150b7a02906137e3903390899088908890600401614c23565b6020604051808303816000875af192505050801561381e575060408051601f3d908101601f1916820190925261381b91810190614c56565b60015b613878573d80801561384c576040519150601f19603f3d011682016040523d82523d6000602084013e613851565b606091505b5080516138705760405162461bcd60e51b8152600401610b4990614b57565b805181602001fd5b6001600160e01b031916630a85bd0160e11b149050612bcf565b506001949350505050565b600054610100900460ff166138c45760405162461bcd60e51b8152600401610b4990614ba9565b81516138d79060659060208501906140a9565b508051610bea9060669060208401906140a9565b600054610100900460ff166139125760405162461bcd60e51b8152600401610b4990614ba9565b61166f336131d0565b6060613926826127d0565b600061395a60408051808201909152601581527468747470733a2f2f697066732e696f2f697066732f60581b602082015290565b9050600081511161397a5760405180602001604052806000815250610d6a565b8061398484613d8c565b604051602001613995929190614bf4565b6040516020818303038152906040529392505050565b6001600160a01b038316613a0657613a0181609980546000838152609a60205260408120829055600182018355919091527f72a152ddfb8e864297c917af52ea6c1c68aead0fee1a62673fcc7e0c94979d000155565b613a29565b816001600160a01b0316836001600160a01b031614613a2957613a298382613e8a565b6001600160a01b038216613a4057610bea81613f27565b826001600160a01b0316826001600160a01b031614610bea57610bea8282613fd6565b613a6c81613577565b6040516001600160a01b038216907fbc7cd75a20ee27fd9adebab32041f755214dbc6bffa90cc0225b39da2e5c2d3b90600090a250565b60606001600160a01b0383163b613b0b5760405162461bcd60e51b815260206004820152602660248201527f416464726573733a2064656c65676174652063616c6c20746f206e6f6e2d636f6044820152651b9d1c9858dd60d21b6064820152608401610b49565b600080846001600160a01b031684604051613b269190614c73565b600060405180830381855af49150503d8060008114613b61576040519150601f19603f3d011682016040523d82523d6000602084013e613b66565b606091505b5091509150613b8e8282604051806060016040528060278152602001614d7a6027913961401a565b95945050505050565b6000613ba2826111d0565b9050613bb081600084613522565b613bbb60008361282f565b6001600160a01b0381166000908152606860205260408120805460019290613be4908490614b27565b909155505060008281526067602052604080822080546001600160a01b0319169055518391906001600160a01b038416907fddf252ad1be2c89b69c2b068fc378daa952ba7f163c4a11628f55a4df523b3ef908390a45050565b6001600160a01b038216613c945760405162461bcd60e51b815260206004820181905260248201527f4552433732313a206d696e7420746f20746865207a65726f20616464726573736044820152606401610b49565b6000818152606760205260409020546001600160a01b031615613cf95760405162461bcd60e51b815260206004820152601c60248201527f4552433732313a20746f6b656e20616c7265616479206d696e746564000000006044820152606401610b49565b613d0560008383613522565b6001600160a01b0382166000908152606860205260408120805460019290613d2e90849061492d565b909155505060008181526067602052604080822080546001600160a01b0319166001600160a01b03861690811790915590518392907fddf252ad1be2c89b69c2b068fc378daa952ba7f163c4a11628f55a4df523b3ef908290a45050565b606081613db05750506040805180820190915260018152600360fc1b602082015290565b8160005b8115613dda5780613dc481614912565b9150613dd39050600a83614ca5565b9150613db4565b60008167ffffffffffffffff811115613df557613df5614459565b6040519080825280601f01601f191660200182016040528015613e1f576020820181803683370190505b5090505b8415612bcf57613e34600183614b27565b9150613e41600a86614cb9565b613e4c90603061492d565b60f81b818381518110613e6157613e616148e6565b60200101906001600160f81b031916908160001a905350613e83600a86614ca5565b9450613e23565b60006001613e97846115d7565b613ea19190614b27565b600083815260986020526040902054909150808214613ef4576001600160a01b03841660009081526097602090815260408083208584528252808320548484528184208190558352609890915290208190555b5060009182526098602090815260408084208490556001600160a01b039094168352609781528383209183525290812055565b609954600090613f3990600190614b27565b6000838152609a602052604081205460998054939450909284908110613f6157613f616148e6565b906000526020600020015490508060998381548110613f8257613f826148e6565b6000918252602080832090910192909255828152609a90915260408082208490558582528120556099805480613fba57613fba614ccd565b6001900381819060005260206000200160009055905550505050565b6000613fe1836115d7565b6001600160a01b039093166000908152609760209081526040808320868452825280832085905593825260989052919091209190915550565b60608315614029575081610d6a565b8251156140395782518084602001fd5b8160405162461bcd60e51b8152600401610b499190614334565b60408051610120810190915260008082526020820190815260200160008152602001600081526020016060815260200160608152602001600081526020016000815260200160006001600160a01b031681525090565b8280546140b5906148b1565b90600052602060002090601f0160209004810192826140d7576000855561411d565b82601f106140f057805160ff191683800117855561411d565b8280016001018555821561411d579182015b8281111561411d578251825591602001919060010190614102565b50614129929150614163565b5090565b508054614139906148b1565b6000825580601f10614149575050565b601f016020900490600052602060002090810190610f1691905b5b808211156141295760008155600101614164565b634e487b7160e01b600052602160045260246000fd5b600481106141ac57634e487b7160e01b600052602160045260246000fd5b9052565b60005b838110156141cb5781810151838201526020016141b3565b83811115611b995750506000910152565b600081518084526141f48160208601602086016141b0565b601f01601f19169290920160200192915050565b600082825180855260208086019550808260051b84010181860160005b848110156142e157601f198684030189528151610120815185528582015161424f8787018261418e565b50604082810151908601526060808301519086015260808083015181870183905261427c838801826141dc565b9250505060a0808301518683038288015261429783826141dc565b60c0858101519089015260e08086015190890152610100948501516001600160a01b038116868a01529490935091506142cd9050565b509985019993505090830190600101614225565b5090979650505050505050565b602081526000610d6a6020830184614208565b6001600160e01b031981168114610f1657600080fd5b60006020828403121561432957600080fd5b8135610d6a81614301565b602081526000610d6a60208301846141dc565b60006020828403121561435957600080fd5b5035919050565b6001600160a01b0381168114610f1657600080fd5b6000806040838503121561438857600080fd5b823561439381614360565b946020939093013593505050565b6000602082840312156143b357600080fd5b813560048110610d6a57600080fd5b6000806000606084860312156143d757600080fd5b833592506020840135915060408401356143f081614360565b809150509250925092565b60008060006060848603121561441057600080fd5b833561441b81614360565b9250602084013561442b81614360565b929592945050506040919091013590565b60006020828403121561444e57600080fd5b8135610d6a81614360565b634e487b7160e01b600052604160045260246000fd5b604051601f8201601f1916810167ffffffffffffffff8111828210171561449857614498614459565b604052919050565b600067ffffffffffffffff8311156144ba576144ba614459565b6144cd601f8401601f191660200161446f565b90508281528383830111156144e157600080fd5b828260208301376000602084830101529392505050565b600082601f83011261450957600080fd5b610d6a838335602085016144a0565b6000806040838503121561452b57600080fd5b823561453681614360565b9150602083013567ffffffffffffffff81111561455257600080fd5b61455e858286016144f8565b9150509250929050565b600067ffffffffffffffff82111561458257614582614459565b5060051b60200190565b6000602080838503121561459f57600080fd5b823567ffffffffffffffff8111156145b657600080fd5b8301601f810185136145c757600080fd5b80356145da6145d582614568565b61446f565b81815260059190911b820183019083810190878311156145f957600080fd5b928401925b82841015614617578335825292840192908401906145fe565b979650505050505050565b6000806040838503121561463557600080fd5b823561464081614360565b91506020830135801515811461465557600080fd5b809150509250929050565b803560ff8116811461467157600080fd5b919050565b60006020828403121561468857600080fd5b610d6a82614660565b60208101610a15828461418e565b84815283602082015260ff831660408201526080606082015260006146c760808301846141dc565b9695505050505050565b60006020808301818452808551808352604092508286019150828160051b87010184880160005b8381101561475157888303603f1901855281518051845287810151888501528681015160ff168785015260609081015160809185018290529061473d818601836141dc565b9689019694505050908601906001016146f8565b509098975050505050505050565b6000806000806080858703121561477557600080fd5b843561478081614360565b9350602085013561479081614360565b925060408501359150606085013567ffffffffffffffff8111156147b357600080fd5b6147bf878288016144f8565b91505092959194509250565b6001600160a01b03841681526060602082018190526000906147ef908301856141dc565b9050826040830152949350505050565b60008060006060848603121561481457600080fd5b8335925061482460208501614660565b9150604084013567ffffffffffffffff81111561484057600080fd5b8401601f8101861361485157600080fd5b614860868235602084016144a0565b9150509250925092565b828152604060208201526000612bcf6040830184614208565b6000806040838503121561489657600080fd5b82356148a181614360565b9150602083013561465581614360565b600181811c908216806148c557607f821691505b60208210811415611b6157634e487b7160e01b600052602260045260246000fd5b634e487b7160e01b600052603260045260246000fd5b634e487b7160e01b600052601160045260246000fd5b6000600019821415614926576149266148fc565b5060010190565b60008219821115614940576149406148fc565b500190565b6020808252602e908201527f4552433732313a2063616c6c6572206973206e6f7420746f6b656e206f776e6560408201526d1c881b9bdc88185c1c1c9bdd995960921b606082015260800190565b6020808252602c908201527f46756e6374696f6e206d7573742062652063616c6c6564207468726f7567682060408201526b19195b1959d85d1958d85b1b60a21b606082015260800190565b6020808252602c908201527f46756e6374696f6e206d7573742062652063616c6c6564207468726f7567682060408201526b6163746976652070726f787960a01b606082015260800190565b600060ff821660ff811415614a4257614a426148fc565b60010192915050565b600060208284031215614a5d57600080fd5b8151610d6a81614360565b83815260ff83166020820152606060408201526000613b8e60608301846141dc565b60008060408385031215614a9d57600080fd5b8251915060208084015167ffffffffffffffff811115614abc57600080fd5b8401601f81018613614acd57600080fd5b8051614adb6145d582614568565b81815260059190911b82018301908381019088831115614afa57600080fd5b928401925b82841015614b1857835182529284019290840190614aff565b80955050505050509250929050565b600082821015614b3957614b396148fc565b500390565b600060208284031215614b5057600080fd5b5051919050565b60208082526032908201527f4552433732313a207472616e7366657220746f206e6f6e20455243373231526560408201527131b2b4bb32b91034b6b83632b6b2b73a32b960711b606082015260800190565b6020808252602b908201527f496e697469616c697a61626c653a20636f6e7472616374206973206e6f74206960408201526a6e697469616c697a696e6760a81b606082015260800190565b60008351614c068184602088016141b0565b835190830190614c1a8183602088016141b0565b01949350505050565b6001600160a01b03858116825284166020820152604081018390526080606082018190526000906146c7908301846141dc565b600060208284031215614c6857600080fd5b8151610d6a81614301565b60008251614c858184602087016141b0565b9190910192915050565b634e487b7160e01b600052601260045260246000fd5b600082614cb457614cb4614c8f565b500490565b600082614cc857614cc8614c8f565b500690565b634e487b7160e01b600052603160045260246000fdfe6261666b7265696876636f72616978647978366a62726c6d6c667734357073726a6c6b77656d703769653377636b79653766726e796862646e6f69360894a13ba1a3210667c828492db98dca3e2076cc3735a920a3ca505d382bbc6261666b72656967657a7566696837676d763664367866626d3361636b62767378786277356d70726c74336878356b767465376b6a6b6261786a75416464726573733a206c6f772d6c6576656c2064656c65676174652063616c6c206661696c65646261666b72656965707a726d776365717535753662356478326a64727232767135756a6568696275347633327a64787267346a64677473326f7a716261666b726569647572743568736a6471696432746c36617a7762787965356670697a727a667663786861766a707767327772356b64766b377434a2646970667358221220e922dcf63a6e6c003903860888a5706a5481a56768abe1b0cb70ba5fcf5e2b1364736f6c634300080c0033",
  "linkReferences": {},
  "deployedLinkReferences": {}
}