{
  "_format": "hh-sol-artifact-1",
  "contractName": "Main",
  "sourceName": "src/backend/contracts/Main.sol",
  "abi": [
    {
      "anonymous": false,
      "inputs": [
        {
          "indexed": true,
          "internalType": "address",
          "name": "previousOwner",
          "type": "address"
        },
        {
          "indexed": true,
          "internalType": "address",
          "name": "newOwner",
          "type": "address"
        }
      ],
      "name": "OwnershipTransferred",
      "type": "event"
    },
    {
      "inputs": [],
      "name": "contractLandNFT",
      "outputs": [
        {
          "internalType": "address",
          "name": "",
          "type": "address"
        }
      ],
      "stateMutability": "view",
      "type": "function"
    },
    {
      "inputs": [],
      "name": "contractTokenFT",
      "outputs": [
        {
          "internalType": "address",
          "name": "",
          "type": "address"
        }
      ],
      "stateMutability": "view",
      "type": "function"
    },
    {
      "inputs": [],
      "name": "contractZombieNFT",
      "outputs": [
        {
          "internalType": "address",
          "name": "",
          "type": "address"
        }
      ],
      "stateMutability": "view",
      "type": "function"
    },
    {
      "inputs": [],
      "name": "owner",
      "outputs": [
        {
          "internalType": "address",
          "name": "",
          "type": "address"
        }
      ],
      "stateMutability": "view",
      "type": "function"
    },
    {
      "inputs": [],
      "name": "renounceOwnership",
      "outputs": [],
      "stateMutability": "nonpayable",
      "type": "function"
    },
    {
      "inputs": [
        {
          "internalType": "address",
          "name": "newOwner",
          "type": "address"
        }
      ],
      "name": "transferOwnership",
      "outputs": [],
      "stateMutability": "nonpayable",
      "type": "function"
    },
    {
      "inputs": [
        {
          "internalType": "address",
          "name": "_landNFT",
          "type": "address"
        },
        {
          "internalType": "address",
          "name": "_zombieNFT",
          "type": "address"
        },
        {
          "internalType": "address",
          "name": "_tokenFT",
          "type": "address"
        }
      ],
      "name": "updateContractAddress",
      "outputs": [],
      "stateMutability": "nonpayable",
      "type": "function"
    }
  ],
  "bytecode": "0x608060405234801561001057600080fd5b50600160008190555061003561002a61003a60201b60201c565b61004260201b60201c565b610108565b600033905090565b6000600160009054906101000a900473ffffffffffffffffffffffffffffffffffffffff16905081600160006101000a81548173ffffffffffffffffffffffffffffffffffffffff021916908373ffffffffffffffffffffffffffffffffffffffff1602179055508173ffffffffffffffffffffffffffffffffffffffff168173ffffffffffffffffffffffffffffffffffffffff167f8be0079c531659141344cd1fd0a4f28419497f9722a3daafe3b4186f6b6457e060405160405180910390a35050565b6107af806101176000396000f3fe608060405234801561001057600080fd5b506004361061007d5760003560e01c80638da5cb5b1161005b5780638da5cb5b146100c6578063aff31725146100e4578063d0229c7214610102578063f2fde38b146101205761007d565b806312d970a2146100825780632284cec91461009e578063715018a6146100bc575b600080fd5b61009c600480360381019061009791906105a8565b61013c565b005b6100a6610280565b6040516100b3919061064c565b60405180910390f35b6100c46102a6565b005b6100ce61032e565b6040516100db919061064c565b60405180910390f35b6100ec610358565b6040516100f9919061064c565b60405180910390f35b61010a61037e565b604051610117919061064c565b60405180910390f35b61013a6004803603810190610135919061057f565b6103a4565b005b61014461049c565b73ffffffffffffffffffffffffffffffffffffffff1661016261032e565b73ffffffffffffffffffffffffffffffffffffffff16146101b8576040517f08c379a00000000000000000000000000000000000000000000000000000000081526004016101af90610687565b60405180910390fd5b82600260006101000a81548173ffffffffffffffffffffffffffffffffffffffff021916908373ffffffffffffffffffffffffffffffffffffffff16021790555081600360006101000a81548173ffffffffffffffffffffffffffffffffffffffff021916908373ffffffffffffffffffffffffffffffffffffffff16021790555080600460006101000a81548173ffffffffffffffffffffffffffffffffffffffff021916908373ffffffffffffffffffffffffffffffffffffffff160217905550505050565b600260009054906101000a900473ffffffffffffffffffffffffffffffffffffffff1681565b6102ae61049c565b73ffffffffffffffffffffffffffffffffffffffff166102cc61032e565b73ffffffffffffffffffffffffffffffffffffffff1614610322576040517f08c379a000000000000000000000000000000000000000000000000000000000815260040161031990610687565b60405180910390fd5b61032c60006104a4565b565b6000600160009054906101000a900473ffffffffffffffffffffffffffffffffffffffff16905090565b600460009054906101000a900473ffffffffffffffffffffffffffffffffffffffff1681565b600360009054906101000a900473ffffffffffffffffffffffffffffffffffffffff1681565b6103ac61049c565b73ffffffffffffffffffffffffffffffffffffffff166103ca61032e565b73ffffffffffffffffffffffffffffffffffffffff1614610420576040517f08c379a000000000000000000000000000000000000000000000000000000000815260040161041790610687565b60405180910390fd5b600073ffffffffffffffffffffffffffffffffffffffff168173ffffffffffffffffffffffffffffffffffffffff161415610490576040517f08c379a000000000000000000000000000000000000000000000000000000000815260040161048790610667565b60405180910390fd5b610499816104a4565b50565b600033905090565b6000600160009054906101000a900473ffffffffffffffffffffffffffffffffffffffff16905081600160006101000a81548173ffffffffffffffffffffffffffffffffffffffff021916908373ffffffffffffffffffffffffffffffffffffffff1602179055508173ffffffffffffffffffffffffffffffffffffffff168173ffffffffffffffffffffffffffffffffffffffff167f8be0079c531659141344cd1fd0a4f28419497f9722a3daafe3b4186f6b6457e060405160405180910390a35050565b60008135905061057981610762565b92915050565b60006020828403121561059157600080fd5b600061059f8482850161056a565b91505092915050565b6000806000606084860312156105bd57600080fd5b60006105cb8682870161056a565b93505060206105dc8682870161056a565b92505060406105ed8682870161056a565b9150509250925092565b610600816106b8565b82525050565b60006106136026836106a7565b915061061e826106ea565b604082019050919050565b60006106366020836106a7565b915061064182610739565b602082019050919050565b600060208201905061066160008301846105f7565b92915050565b6000602082019050818103600083015261068081610606565b9050919050565b600060208201905081810360008301526106a081610629565b9050919050565b600082825260208201905092915050565b60006106c3826106ca565b9050919050565b600073ffffffffffffffffffffffffffffffffffffffff82169050919050565b7f4f776e61626c653a206e6577206f776e657220697320746865207a65726f206160008201527f6464726573730000000000000000000000000000000000000000000000000000602082015250565b7f4f776e61626c653a2063616c6c6572206973206e6f7420746865206f776e6572600082015250565b61076b816106b8565b811461077657600080fd5b5056fea2646970667358221220acb2fc9fd24642ca22a28ad18dba005fd76e9b5479387891fb526f11e067bbb864736f6c63430008040033",
  "linkReferences": {},
  "deployedLinkReferences": {}
}