{
  "_format": "hh-sol-artifact-1",
  "contractName": "Main",
  "sourceName": "src/backend/contracts/Main.sol",
  "abi": [
    {
      "inputs": [],
      "stateMutability": "nonpayable",
      "type": "constructor"
    },
    {
      "inputs": [],
      "name": "contract_ft",
      "outputs": [
        {
          "internalType": "address",
          "name": "",
          "type": "address"
        }
      ],
      "stateMutability": "view",
      "type": "function"
    },
    {
      "inputs": [],
      "name": "contract_nft_land",
      "outputs": [
        {
          "internalType": "address",
          "name": "",
          "type": "address"
        }
      ],
      "stateMutability": "view",
      "type": "function"
    },
    {
      "inputs": [],
      "name": "contract_nft_zombie",
      "outputs": [
        {
          "internalType": "address",
          "name": "",
          "type": "address"
        }
      ],
      "stateMutability": "view",
      "type": "function"
    },
    {
      "inputs": [
        {
          "internalType": "uint256[]",
          "name": "id_list",
          "type": "uint256[]"
        }
      ],
      "name": "get_lands_by_id",
      "outputs": [
        {
          "components": [
            {
              "internalType": "uint256",
              "name": "token_id",
              "type": "uint256"
            },
            {
              "internalType": "enum MainLand.LandType",
              "name": "land_type",
              "type": "uint8"
            },
            {
              "internalType": "contract IERC721",
              "name": "nft",
              "type": "address"
            },
            {
              "internalType": "uint256",
              "name": "last_zombie_claim",
              "type": "uint256"
            },
            {
              "internalType": "uint256",
              "name": "sale_price",
              "type": "uint256"
            },
            {
              "internalType": "string",
              "name": "nft_type",
              "type": "string"
            },
            {
              "internalType": "address",
              "name": "owner_id",
              "type": "address"
            },
            {
              "internalType": "uint256",
              "name": "discover_events",
              "type": "uint256"
            }
          ],
          "internalType": "struct MainLand.Land[]",
          "name": "",
          "type": "tuple[]"
        }
      ],
      "stateMutability": "view",
      "type": "function"
    },
    {
      "inputs": [
        {
          "internalType": "uint256",
          "name": "",
          "type": "uint256"
        }
      ],
      "name": "lands",
      "outputs": [
        {
          "internalType": "uint256",
          "name": "token_id",
          "type": "uint256"
        },
        {
          "internalType": "enum MainLand.LandType",
          "name": "land_type",
          "type": "uint8"
        },
        {
          "internalType": "contract IERC721",
          "name": "nft",
          "type": "address"
        },
        {
          "internalType": "uint256",
          "name": "last_zombie_claim",
          "type": "uint256"
        },
        {
          "internalType": "uint256",
          "name": "sale_price",
          "type": "uint256"
        },
        {
          "internalType": "string",
          "name": "nft_type",
          "type": "string"
        },
        {
          "internalType": "address",
          "name": "owner_id",
          "type": "address"
        },
        {
          "internalType": "uint256",
          "name": "discover_events",
          "type": "uint256"
        }
      ],
      "stateMutability": "view",
      "type": "function"
    },
    {
      "inputs": [],
      "name": "owner_id",
      "outputs": [
        {
          "internalType": "address",
          "name": "",
          "type": "address"
        }
      ],
      "stateMutability": "view",
      "type": "function"
    }
  ],
  "bytecode": "0x608060405234801561001057600080fd5b50336000806101000a81548173ffffffffffffffffffffffffffffffffffffffff021916908373ffffffffffffffffffffffffffffffffffffffff160217905550610cf8806100606000396000f3fe608060405234801561001057600080fd5b50600436106100625760003560e01c806318c62fee146100675780638e198ddf146100855780638f5ebf71146100b5578063a4881a59146100d3578063e261f1e5146100f1578063e73f348414610128575b600080fd5b61006f610146565b60405161007c91906108ed565b60405180910390f35b61009f600480360381019061009a9190610660565b61016c565b6040516100ac9190610908565b60405180910390f35b6100bd610428565b6040516100ca91906108ed565b60405180910390f35b6100db61044c565b6040516100e891906108ed565b60405180910390f35b61010b600480360381019061010691906106a1565b610472565b60405161011f98979695949392919061092a565b60405180910390f35b61013061058f565b60405161013d91906108ed565b60405180910390f35b600160009054906101000a900473ffffffffffffffffffffffffffffffffffffffff1681565b60608060005b835181101561041e57600460008583815181106101b8577f4e487b7100000000000000000000000000000000000000000000000000000000600052603260045260246000fd5b6020026020010151815260200190815260200160002060405180610100016040529081600082015481526020016001820160009054906101000a900460ff16600281111561022f577f4e487b7100000000000000000000000000000000000000000000000000000000600052602160045260246000fd5b6002811115610267577f4e487b7100000000000000000000000000000000000000000000000000000000600052602160045260246000fd5b81526020016001820160019054906101000a900473ffffffffffffffffffffffffffffffffffffffff1673ffffffffffffffffffffffffffffffffffffffff1673ffffffffffffffffffffffffffffffffffffffff16815260200160028201548152602001600382015481526020016004820180546102e590610b1e565b80601f016020809104026020016040519081016040528092919081815260200182805461031190610b1e565b801561035e5780601f106103335761010080835404028352916020019161035e565b820191906000526020600020905b81548152906001019060200180831161034157829003601f168201915b505050505081526020016005820160009054906101000a900473ffffffffffffffffffffffffffffffffffffffff1673ffffffffffffffffffffffffffffffffffffffff1673ffffffffffffffffffffffffffffffffffffffff168152602001600682015481525050828281518110610400577f4e487b7100000000000000000000000000000000000000000000000000000000600052603260045260246000fd5b6020026020010181905250808061041690610b81565b915050610172565b5080915050919050565b60008054906101000a900473ffffffffffffffffffffffffffffffffffffffff1681565b600360009054906101000a900473ffffffffffffffffffffffffffffffffffffffff1681565b60046020528060005260406000206000915090508060000154908060010160009054906101000a900460ff16908060010160019054906101000a900473ffffffffffffffffffffffffffffffffffffffff16908060020154908060030154908060040180546104e090610b1e565b80601f016020809104026020016040519081016040528092919081815260200182805461050c90610b1e565b80156105595780601f1061052e57610100808354040283529160200191610559565b820191906000526020600020905b81548152906001019060200180831161053c57829003601f168201915b5050505050908060050160009054906101000a900473ffffffffffffffffffffffffffffffffffffffff16908060060154905088565b600260009054906101000a900473ffffffffffffffffffffffffffffffffffffffff1681565b60006105c86105c3846109d4565b6109af565b905080838252602082019050828560208602820111156105e757600080fd5b60005b8581101561061757816105fd888261064b565b8452602084019350602083019250506001810190506105ea565b5050509392505050565b600082601f83011261063257600080fd5b81356106428482602086016105b5565b91505092915050565b60008135905061065a81610cab565b92915050565b60006020828403121561067257600080fd5b600082013567ffffffffffffffff81111561068c57600080fd5b61069884828501610621565b91505092915050565b6000602082840312156106b357600080fd5b60006106c18482850161064b565b91505092915050565b60006106d6838361081f565b905092915050565b6106e781610a66565b82525050565b6106f681610a66565b82525050565b600061070782610a10565b6107118185610a33565b93508360208202850161072385610a00565b8060005b8581101561075f578484038952815161074085826106ca565b945061074b83610a26565b925060208a01995050600181019050610727565b50829750879550505050505092915050565b61077a81610ab5565b82525050565b61078981610ab5565b82525050565b61079881610ad9565b82525050565b6107a781610ad9565b82525050565b60006107b882610a1b565b6107c28185610a44565b93506107d2818560208601610aeb565b6107db81610c86565b840191505092915050565b60006107f182610a1b565b6107fb8185610a55565b935061080b818560208601610aeb565b61081481610c86565b840191505092915050565b60006101008301600083015161083860008601826108cf565b50602083015161084b602086018261078f565b50604083015161085e6040860182610771565b50606083015161087160608601826108cf565b50608083015161088460808601826108cf565b5060a083015184820360a086015261089c82826107ad565b91505060c08301516108b160c08601826106de565b5060e08301516108c460e08601826108cf565b508091505092915050565b6108d881610aab565b82525050565b6108e781610aab565b82525050565b600060208201905061090260008301846106ed565b92915050565b6000602082019050818103600083015261092281846106fc565b905092915050565b600061010082019050610940600083018b6108de565b61094d602083018a61079e565b61095a6040830189610780565b61096760608301886108de565b61097460808301876108de565b81810360a083015261098681866107e6565b905061099560c08301856106ed565b6109a260e08301846108de565b9998505050505050505050565b60006109b96109ca565b90506109c58282610b50565b919050565b6000604051905090565b600067ffffffffffffffff8211156109ef576109ee610c57565b5b602082029050602081019050919050565b6000819050602082019050919050565b600081519050919050565b600081519050919050565b6000602082019050919050565b600082825260208201905092915050565b600082825260208201905092915050565b600082825260208201905092915050565b6000610a7182610a8b565b9050919050565b6000819050610a8682610c97565b919050565b600073ffffffffffffffffffffffffffffffffffffffff82169050919050565b6000819050919050565b6000610ac082610ac7565b9050919050565b6000610ad282610a8b565b9050919050565b6000610ae482610a78565b9050919050565b60005b83811015610b09578082015181840152602081019050610aee565b83811115610b18576000848401525b50505050565b60006002820490506001821680610b3657607f821691505b60208210811415610b4a57610b49610c28565b5b50919050565b610b5982610c86565b810181811067ffffffffffffffff82111715610b7857610b77610c57565b5b80604052505050565b6000610b8c82610aab565b91507fffffffffffffffffffffffffffffffffffffffffffffffffffffffffffffffff821415610bbf57610bbe610bca565b5b600182019050919050565b7f4e487b7100000000000000000000000000000000000000000000000000000000600052601160045260246000fd5b7f4e487b7100000000000000000000000000000000000000000000000000000000600052602160045260246000fd5b7f4e487b7100000000000000000000000000000000000000000000000000000000600052602260045260246000fd5b7f4e487b7100000000000000000000000000000000000000000000000000000000600052604160045260246000fd5b6000601f19601f8301169050919050565b60038110610ca857610ca7610bf9565b5b50565b610cb481610aab565b8114610cbf57600080fd5b5056fea2646970667358221220fab20130da8f588857263f74692d47b971a034f39c5466282b2fa5d29dd8853264736f6c63430008040033",
  "linkReferences": {},
  "deployedLinkReferences": {}
}