{
  "_format": "hh-sol-artifact-1",
  "contractName": "Main",
  "sourceName": "src/backend/contracts/Main.sol",
  "abi": [
    {
      "anonymous": false,
      "inputs": [
        {
          "indexed": true,
          "internalType": "address",
          "name": "previousOwner",
          "type": "address"
        },
        {
          "indexed": true,
          "internalType": "address",
          "name": "newOwner",
          "type": "address"
        }
      ],
      "name": "OwnershipTransferred",
      "type": "event"
    },
    {
      "inputs": [],
      "name": "contractFt",
      "outputs": [
        {
          "internalType": "address",
          "name": "",
          "type": "address"
        }
      ],
      "stateMutability": "view",
      "type": "function"
    },
    {
      "inputs": [],
      "name": "contractNftLand",
      "outputs": [
        {
          "internalType": "address",
          "name": "",
          "type": "address"
        }
      ],
      "stateMutability": "view",
      "type": "function"
    },
    {
      "inputs": [],
      "name": "contractNftZombie",
      "outputs": [
        {
          "internalType": "address",
          "name": "",
          "type": "address"
        }
      ],
      "stateMutability": "view",
      "type": "function"
    },
    {
      "inputs": [],
      "name": "owner",
      "outputs": [
        {
          "internalType": "address",
          "name": "",
          "type": "address"
        }
      ],
      "stateMutability": "view",
      "type": "function"
    },
    {
      "inputs": [],
      "name": "renounceOwnership",
      "outputs": [],
      "stateMutability": "nonpayable",
      "type": "function"
    },
    {
      "inputs": [
        {
          "internalType": "address",
          "name": "_contractNftLand",
          "type": "address"
        }
      ],
      "name": "setContractAddresses",
      "outputs": [],
      "stateMutability": "nonpayable",
      "type": "function"
    },
    {
      "inputs": [
        {
          "internalType": "address",
          "name": "newOwner",
          "type": "address"
        }
      ],
      "name": "transferOwnership",
      "outputs": [],
      "stateMutability": "nonpayable",
      "type": "function"
    }
  ],
  "bytecode": "0x608060405234801561001057600080fd5b50600160008190555061003561002a61003a60201b60201c565b61004260201b60201c565b610108565b600033905090565b6000600160009054906101000a900473ffffffffffffffffffffffffffffffffffffffff16905081600160006101000a81548173ffffffffffffffffffffffffffffffffffffffff021916908373ffffffffffffffffffffffffffffffffffffffff1602179055508173ffffffffffffffffffffffffffffffffffffffff168173ffffffffffffffffffffffffffffffffffffffff167f8be0079c531659141344cd1fd0a4f28419497f9722a3daafe3b4186f6b6457e060405160405180910390a35050565b6106dc806101176000396000f3fe608060405234801561001057600080fd5b506004361061007d5760003560e01c80638da5cb5b1161005b5780638da5cb5b146100c657806390410a8d146100e4578063cf36560414610102578063f2fde38b146101205761007d565b80630c06c218146100825780631f88bb87146100a0578063715018a6146100bc575b600080fd5b61008a61013c565b6040516100979190610579565b60405180910390f35b6100ba60048036038101906100b591906104fb565b610162565b005b6100c4610222565b005b6100ce6102aa565b6040516100db9190610579565b60405180910390f35b6100ec6102d4565b6040516100f99190610579565b60405180910390f35b61010a6102fa565b6040516101179190610579565b60405180910390f35b61013a600480360381019061013591906104fb565b610320565b005b600360009054906101000a900473ffffffffffffffffffffffffffffffffffffffff1681565b61016a610418565b73ffffffffffffffffffffffffffffffffffffffff166101886102aa565b73ffffffffffffffffffffffffffffffffffffffff16146101de576040517f08c379a00000000000000000000000000000000000000000000000000000000081526004016101d5906105b4565b60405180910390fd5b80600460006101000a81548173ffffffffffffffffffffffffffffffffffffffff021916908373ffffffffffffffffffffffffffffffffffffffff16021790555050565b61022a610418565b73ffffffffffffffffffffffffffffffffffffffff166102486102aa565b73ffffffffffffffffffffffffffffffffffffffff161461029e576040517f08c379a0000000000000000000000000000000000000000000000000000000008152600401610295906105b4565b60405180910390fd5b6102a86000610420565b565b6000600160009054906101000a900473ffffffffffffffffffffffffffffffffffffffff16905090565b600460009054906101000a900473ffffffffffffffffffffffffffffffffffffffff1681565b600260009054906101000a900473ffffffffffffffffffffffffffffffffffffffff1681565b610328610418565b73ffffffffffffffffffffffffffffffffffffffff166103466102aa565b73ffffffffffffffffffffffffffffffffffffffff161461039c576040517f08c379a0000000000000000000000000000000000000000000000000000000008152600401610393906105b4565b60405180910390fd5b600073ffffffffffffffffffffffffffffffffffffffff168173ffffffffffffffffffffffffffffffffffffffff16141561040c576040517f08c379a000000000000000000000000000000000000000000000000000000000815260040161040390610594565b60405180910390fd5b61041581610420565b50565b600033905090565b6000600160009054906101000a900473ffffffffffffffffffffffffffffffffffffffff16905081600160006101000a81548173ffffffffffffffffffffffffffffffffffffffff021916908373ffffffffffffffffffffffffffffffffffffffff1602179055508173ffffffffffffffffffffffffffffffffffffffff168173ffffffffffffffffffffffffffffffffffffffff167f8be0079c531659141344cd1fd0a4f28419497f9722a3daafe3b4186f6b6457e060405160405180910390a35050565b6000813590506104f58161068f565b92915050565b60006020828403121561050d57600080fd5b600061051b848285016104e6565b91505092915050565b61052d816105e5565b82525050565b60006105406026836105d4565b915061054b82610617565b604082019050919050565b60006105636020836105d4565b915061056e82610666565b602082019050919050565b600060208201905061058e6000830184610524565b92915050565b600060208201905081810360008301526105ad81610533565b9050919050565b600060208201905081810360008301526105cd81610556565b9050919050565b600082825260208201905092915050565b60006105f0826105f7565b9050919050565b600073ffffffffffffffffffffffffffffffffffffffff82169050919050565b7f4f776e61626c653a206e6577206f776e657220697320746865207a65726f206160008201527f6464726573730000000000000000000000000000000000000000000000000000602082015250565b7f4f776e61626c653a2063616c6c6572206973206e6f7420746865206f776e6572600082015250565b610698816105e5565b81146106a357600080fd5b5056fea264697066735822122034189a6ccfa3d7c5f3858387376391351dfd1115c49e5e1cf63aa893f759628664736f6c63430008040033",
  "linkReferences": {},
  "deployedLinkReferences": {}
}