{
  "_format": "hh-sol-artifact-1",
  "contractName": "MainContract",
  "sourceName": "src/backend/contracts/Main.sol",
  "abi": [
    {
      "inputs": [],
      "stateMutability": "nonpayable",
      "type": "constructor"
    },
    {
      "anonymous": false,
      "inputs": [
        {
          "indexed": false,
          "internalType": "address",
          "name": "previousAdmin",
          "type": "address"
        },
        {
          "indexed": false,
          "internalType": "address",
          "name": "newAdmin",
          "type": "address"
        }
      ],
      "name": "AdminChanged",
      "type": "event"
    },
    {
      "anonymous": false,
      "inputs": [
        {
          "indexed": true,
          "internalType": "address",
          "name": "beacon",
          "type": "address"
        }
      ],
      "name": "BeaconUpgraded",
      "type": "event"
    },
    {
      "anonymous": false,
      "inputs": [
        {
          "indexed": false,
          "internalType": "uint8",
          "name": "version",
          "type": "uint8"
        }
      ],
      "name": "Initialized",
      "type": "event"
    },
    {
      "anonymous": false,
      "inputs": [
        {
          "indexed": true,
          "internalType": "address",
          "name": "previousOwner",
          "type": "address"
        },
        {
          "indexed": true,
          "internalType": "address",
          "name": "newOwner",
          "type": "address"
        }
      ],
      "name": "OwnershipTransferred",
      "type": "event"
    },
    {
      "anonymous": false,
      "inputs": [
        {
          "indexed": true,
          "internalType": "address",
          "name": "implementation",
          "type": "address"
        }
      ],
      "name": "Upgraded",
      "type": "event"
    },
    {
      "inputs": [],
      "name": "getContractCollection",
      "outputs": [
        {
          "internalType": "address",
          "name": "",
          "type": "address"
        }
      ],
      "stateMutability": "view",
      "type": "function"
    },
    {
      "inputs": [],
      "name": "getContractLandNFT",
      "outputs": [
        {
          "internalType": "address",
          "name": "",
          "type": "address"
        }
      ],
      "stateMutability": "view",
      "type": "function"
    },
    {
      "inputs": [],
      "name": "getContractLandNFTHelper",
      "outputs": [
        {
          "internalType": "address",
          "name": "",
          "type": "address"
        }
      ],
      "stateMutability": "view",
      "type": "function"
    },
    {
      "inputs": [],
      "name": "getContractMarket",
      "outputs": [
        {
          "internalType": "address",
          "name": "",
          "type": "address"
        }
      ],
      "stateMutability": "view",
      "type": "function"
    },
    {
      "inputs": [],
      "name": "getContractMonsterNFT",
      "outputs": [
        {
          "internalType": "address",
          "name": "",
          "type": "address"
        }
      ],
      "stateMutability": "view",
      "type": "function"
    },
    {
      "inputs": [],
      "name": "getContractMonsterNFTHelper",
      "outputs": [
        {
          "internalType": "address",
          "name": "",
          "type": "address"
        }
      ],
      "stateMutability": "view",
      "type": "function"
    },
    {
      "inputs": [],
      "name": "getContractTokenFT",
      "outputs": [
        {
          "internalType": "address",
          "name": "",
          "type": "address"
        }
      ],
      "stateMutability": "view",
      "type": "function"
    },
    {
      "inputs": [],
      "name": "getContractZombieNFT",
      "outputs": [
        {
          "internalType": "address",
          "name": "",
          "type": "address"
        }
      ],
      "stateMutability": "view",
      "type": "function"
    },
    {
      "inputs": [],
      "name": "getContractZombieNFTHelper",
      "outputs": [
        {
          "internalType": "address",
          "name": "",
          "type": "address"
        }
      ],
      "stateMutability": "view",
      "type": "function"
    },
    {
      "inputs": [],
      "name": "initialize",
      "outputs": [],
      "stateMutability": "nonpayable",
      "type": "function"
    },
    {
      "inputs": [],
      "name": "owner",
      "outputs": [
        {
          "internalType": "address",
          "name": "",
          "type": "address"
        }
      ],
      "stateMutability": "view",
      "type": "function"
    },
    {
      "inputs": [],
      "name": "proxiableUUID",
      "outputs": [
        {
          "internalType": "bytes32",
          "name": "",
          "type": "bytes32"
        }
      ],
      "stateMutability": "view",
      "type": "function"
    },
    {
      "inputs": [],
      "name": "renounceOwnership",
      "outputs": [],
      "stateMutability": "nonpayable",
      "type": "function"
    },
    {
      "inputs": [
        {
          "internalType": "address",
          "name": "_account",
          "type": "address"
        },
        {
          "internalType": "uint256",
          "name": "_amount",
          "type": "uint256"
        }
      ],
      "name": "transferOnKill",
      "outputs": [],
      "stateMutability": "nonpayable",
      "type": "function"
    },
    {
      "inputs": [
        {
          "internalType": "address",
          "name": "newOwner",
          "type": "address"
        }
      ],
      "name": "transferOwnership",
      "outputs": [],
      "stateMutability": "nonpayable",
      "type": "function"
    },
    {
      "inputs": [
        {
          "internalType": "address",
          "name": "_landNFT",
          "type": "address"
        },
        {
          "internalType": "address",
          "name": "_landNFTHelper",
          "type": "address"
        },
        {
          "internalType": "address",
          "name": "_zombieNFT",
          "type": "address"
        },
        {
          "internalType": "address",
          "name": "_zombieNFTHelper",
          "type": "address"
        },
        {
          "internalType": "address",
          "name": "_monsterNFT",
          "type": "address"
        },
        {
          "internalType": "address",
          "name": "_monsterNFTHelper",
          "type": "address"
        },
        {
          "internalType": "address",
          "name": "_tokenFT",
          "type": "address"
        },
        {
          "internalType": "address",
          "name": "_collection",
          "type": "address"
        },
        {
          "internalType": "address",
          "name": "_market",
          "type": "address"
        }
      ],
      "name": "updateContractAddress",
      "outputs": [],
      "stateMutability": "nonpayable",
      "type": "function"
    },
    {
      "inputs": [
        {
          "internalType": "address",
          "name": "newImplementation",
          "type": "address"
        }
      ],
      "name": "upgradeTo",
      "outputs": [],
      "stateMutability": "nonpayable",
      "type": "function"
    },
    {
      "inputs": [
        {
          "internalType": "address",
          "name": "newImplementation",
          "type": "address"
        },
        {
          "internalType": "bytes",
          "name": "data",
          "type": "bytes"
        }
      ],
      "name": "upgradeToAndCall",
      "outputs": [],
      "stateMutability": "payable",
      "type": "function"
    }
  ],
  "bytecode": "0x60a06040523060805234801561001457600080fd5b5061001d610022565b6100e2565b600054610100900460ff161561008e5760405162461bcd60e51b815260206004820152602760248201527f496e697469616c697a61626c653a20636f6e747261637420697320696e697469604482015266616c697a696e6760c81b606482015260840160405180910390fd5b60005460ff90811610156100e0576000805460ff191660ff9081179091556040519081527f7f26b83ff96e1f2b6a682f133852f6798a09c465da95921460cefb38474024989060200160405180910390a15b565b6080516111ab6101196000396000818161034001528181610389015281816105140152818161055401526105e701526111ab6000f3fe6080604052600436106101095760003560e01c80638da5cb5b11610095578063c189779e11610064578063c189779e1461029b578063c7842629146102bb578063f095821f146102d9578063f2fde38b146102f7578063f34b899d1461031757600080fd5b80638da5cb5b146102235780639811017014610241578063afc297cb1461025f578063b53720c51461027d57600080fd5b806352d1902d116100dc57806352d1902d1461019a57806353d09e25146101bd578063715018a6146101db5780637641ed66146101f05780638129fc1c1461020e57600080fd5b80633659cfe61461010e57806342104fac146101305780634b45011a146101675780634f1ef28614610187575b600080fd5b34801561011a57600080fd5b5061012e610129366004610dd0565b610335565b005b34801561013c57600080fd5b5060cd546001600160a01b03165b6040516001600160a01b0390911681526020015b60405180910390f35b34801561017357600080fd5b5061012e610182366004610deb565b61041e565b61012e610195366004610e2b565b610509565b3480156101a657600080fd5b506101af6105da565b60405190815260200161015e565b3480156101c957600080fd5b5060cb546001600160a01b031661014a565b3480156101e757600080fd5b5061012e61068d565b3480156101fc57600080fd5b5060cf546001600160a01b031661014a565b34801561021a57600080fd5b5061012e6106a1565b34801561022f57600080fd5b506033546001600160a01b031661014a565b34801561024d57600080fd5b5060d1546001600160a01b031661014a565b34801561026b57600080fd5b5060ca546001600160a01b031661014a565b34801561028957600080fd5b5060cc546001600160a01b031661014a565b3480156102a757600080fd5b5061012e6102b6366004610eed565b6107b9565b3480156102c757600080fd5b5060d0546001600160a01b031661014a565b3480156102e557600080fd5b5060ce546001600160a01b031661014a565b34801561030357600080fd5b5061012e610312366004610dd0565b61085e565b34801561032357600080fd5b5060d2546001600160a01b031661014a565b306001600160a01b037f00000000000000000000000000000000000000000000000000000000000000001614156103875760405162461bcd60e51b815260040161037e90610f95565b60405180910390fd5b7f00000000000000000000000000000000000000000000000000000000000000006001600160a01b03166103d060008051602061112f833981519152546001600160a01b031690565b6001600160a01b0316146103f65760405162461bcd60e51b815260040161037e90610fe1565b6103ff816108d4565b6040805160008082526020820190925261041b918391906108dc565b50565b60cc546001600160a01b0316331480610441575060ce546001600160a01b031633145b61048d5760405162461bcd60e51b815260206004820152601a60248201527f596f752063616e27742063616c6c2074686973206d6574686f64000000000000604482015260640161037e565b60d05460405163a9059cbb60e01b81526001600160a01b038481166004830152602482018490529091169063a9059cbb906044016020604051808303816000875af11580156104e0573d6000803e3d6000fd5b505050506040513d601f19601f82011682018060405250810190610504919061102d565b505050565b306001600160a01b037f00000000000000000000000000000000000000000000000000000000000000001614156105525760405162461bcd60e51b815260040161037e90610f95565b7f00000000000000000000000000000000000000000000000000000000000000006001600160a01b031661059b60008051602061112f833981519152546001600160a01b031690565b6001600160a01b0316146105c15760405162461bcd60e51b815260040161037e90610fe1565b6105ca826108d4565b6105d6828260016108dc565b5050565b6000306001600160a01b037f0000000000000000000000000000000000000000000000000000000000000000161461067a5760405162461bcd60e51b815260206004820152603860248201527f555550535570677261646561626c653a206d757374206e6f742062652063616c60448201527f6c6564207468726f7567682064656c656761746563616c6c0000000000000000606482015260840161037e565b5060008051602061112f83398151915290565b610695610a47565b61069f6000610aa1565b565b600054610100900460ff16158080156106c15750600054600160ff909116105b806106db5750303b1580156106db575060005460ff166001145b61073e5760405162461bcd60e51b815260206004820152602e60248201527f496e697469616c697a61626c653a20636f6e747261637420697320616c72656160448201526d191e481a5b9a5d1a585b1a5e995960921b606482015260840161037e565b6000805460ff191660011790558015610761576000805461ff0019166101001790555b610769610af3565b610771610b22565b801561041b576000805461ff0019169055604051600181527f7f26b83ff96e1f2b6a682f133852f6798a09c465da95921460cefb38474024989060200160405180910390a150565b6107c1610a47565b60ca80546001600160a01b03199081166001600160a01b039b8c161790915560cb80548216998b169990991790985560cc80548916978a169790971790965560cd805488169589169590951790945560ce805487169388169390931790925560cf8054861691871691909117905560d08054851691861691909117905560d18054841691851691909117905560d280549092169216919091179055565b610866610a47565b6001600160a01b0381166108cb5760405162461bcd60e51b815260206004820152602660248201527f4f776e61626c653a206e6577206f776e657220697320746865207a65726f206160448201526564647265737360d01b606482015260840161037e565b61041b81610aa1565b61041b610a47565b7f4910fdfa16fed3260ed0e7147f7cc6da11a60208b5b9406d12a635614ffd91435460ff161561090f5761050483610b49565b826001600160a01b03166352d1902d6040518163ffffffff1660e01b8152600401602060405180830381865afa925050508015610969575060408051601f3d908101601f191682019092526109669181019061104f565b60015b6109cc5760405162461bcd60e51b815260206004820152602e60248201527f45524331393637557067726164653a206e657720696d706c656d656e7461746960448201526d6f6e206973206e6f74205555505360901b606482015260840161037e565b60008051602061112f8339815191528114610a3b5760405162461bcd60e51b815260206004820152602960248201527f45524331393637557067726164653a20756e737570706f727465642070726f786044820152681a58589b195555525160ba1b606482015260840161037e565b50610504838383610be5565b6033546001600160a01b0316331461069f5760405162461bcd60e51b815260206004820181905260248201527f4f776e61626c653a2063616c6c6572206973206e6f7420746865206f776e6572604482015260640161037e565b603380546001600160a01b038381166001600160a01b0319831681179093556040519116919082907f8be0079c531659141344cd1fd0a4f28419497f9722a3daafe3b4186f6b6457e090600090a35050565b600054610100900460ff16610b1a5760405162461bcd60e51b815260040161037e90611068565b61069f610c10565b600054610100900460ff1661069f5760405162461bcd60e51b815260040161037e90611068565b6001600160a01b0381163b610bb65760405162461bcd60e51b815260206004820152602d60248201527f455243313936373a206e657720696d706c656d656e746174696f6e206973206e60448201526c1bdd08184818dbdb9d1c9858dd609a1b606482015260840161037e565b60008051602061112f83398151915280546001600160a01b0319166001600160a01b0392909216919091179055565b610bee83610c40565b600082511180610bfb5750805b1561050457610c0a8383610c80565b50505050565b600054610100900460ff16610c375760405162461bcd60e51b815260040161037e90611068565b61069f33610aa1565b610c4981610b49565b6040516001600160a01b038216907fbc7cd75a20ee27fd9adebab32041f755214dbc6bffa90cc0225b39da2e5c2d3b90600090a250565b60606001600160a01b0383163b610ce85760405162461bcd60e51b815260206004820152602660248201527f416464726573733a2064656c65676174652063616c6c20746f206e6f6e2d636f6044820152651b9d1c9858dd60d21b606482015260840161037e565b600080846001600160a01b031684604051610d0391906110df565b600060405180830381855af49150503d8060008114610d3e576040519150601f19603f3d011682016040523d82523d6000602084013e610d43565b606091505b5091509150610d6b828260405180606001604052806027815260200161114f60279139610d74565b95945050505050565b60608315610d83575081610dad565b825115610d935782518084602001fd5b8160405162461bcd60e51b815260040161037e91906110fb565b9392505050565b80356001600160a01b0381168114610dcb57600080fd5b919050565b600060208284031215610de257600080fd5b610dad82610db4565b60008060408385031215610dfe57600080fd5b610e0783610db4565b946020939093013593505050565b634e487b7160e01b600052604160045260246000fd5b60008060408385031215610e3e57600080fd5b610e4783610db4565b9150602083013567ffffffffffffffff80821115610e6457600080fd5b818501915085601f830112610e7857600080fd5b813581811115610e8a57610e8a610e15565b604051601f8201601f19908116603f01168101908382118183101715610eb257610eb2610e15565b81604052828152886020848701011115610ecb57600080fd5b8260208601602083013760006020848301015280955050505050509250929050565b60008060008060008060008060006101208a8c031215610f0c57600080fd5b610f158a610db4565b9850610f2360208b01610db4565b9750610f3160408b01610db4565b9650610f3f60608b01610db4565b9550610f4d60808b01610db4565b9450610f5b60a08b01610db4565b9350610f6960c08b01610db4565b9250610f7760e08b01610db4565b9150610f866101008b01610db4565b90509295985092959850929598565b6020808252602c908201527f46756e6374696f6e206d7573742062652063616c6c6564207468726f7567682060408201526b19195b1959d85d1958d85b1b60a21b606082015260800190565b6020808252602c908201527f46756e6374696f6e206d7573742062652063616c6c6564207468726f7567682060408201526b6163746976652070726f787960a01b606082015260800190565b60006020828403121561103f57600080fd5b81518015158114610dad57600080fd5b60006020828403121561106157600080fd5b5051919050565b6020808252602b908201527f496e697469616c697a61626c653a20636f6e7472616374206973206e6f74206960408201526a6e697469616c697a696e6760a81b606082015260800190565b60005b838110156110ce5781810151838201526020016110b6565b83811115610c0a5750506000910152565b600082516110f18184602087016110b3565b9190910192915050565b602081526000825180602084015261111a8160408501602087016110b3565b601f01601f1916919091016040019291505056fe360894a13ba1a3210667c828492db98dca3e2076cc3735a920a3ca505d382bbc416464726573733a206c6f772d6c6576656c2064656c65676174652063616c6c206661696c6564a2646970667358221220cb416b890537caa32b5954b89cb16fdf7d94e01f9e41d22959cb6f7393d7320c64736f6c634300080c0033",
  "linkReferences": {},
  "deployedLinkReferences": {}
}