{
  "_format": "hh-sol-artifact-1",
  "contractName": "MonsterNFTContract",
  "sourceName": "src/backend/contracts/MonsterNFT.sol",
  "abi": [
    {
      "inputs": [],
      "stateMutability": "nonpayable",
      "type": "constructor"
    },
    {
      "inputs": [
        {
          "internalType": "string",
          "name": "message",
          "type": "string"
        }
      ],
      "name": "MonsterKillError",
      "type": "error"
    },
    {
      "inputs": [
        {
          "internalType": "string",
          "name": "message",
          "type": "string"
        },
        {
          "internalType": "uint256",
          "name": "required",
          "type": "uint256"
        }
      ],
      "name": "MonsterMintCountError",
      "type": "error"
    },
    {
      "inputs": [
        {
          "internalType": "string",
          "name": "message",
          "type": "string"
        }
      ],
      "name": "MonsterStakeError",
      "type": "error"
    },
    {
      "anonymous": false,
      "inputs": [
        {
          "indexed": false,
          "internalType": "address",
          "name": "previousAdmin",
          "type": "address"
        },
        {
          "indexed": false,
          "internalType": "address",
          "name": "newAdmin",
          "type": "address"
        }
      ],
      "name": "AdminChanged",
      "type": "event"
    },
    {
      "anonymous": false,
      "inputs": [
        {
          "indexed": true,
          "internalType": "address",
          "name": "owner",
          "type": "address"
        },
        {
          "indexed": true,
          "internalType": "address",
          "name": "approved",
          "type": "address"
        },
        {
          "indexed": true,
          "internalType": "uint256",
          "name": "tokenId",
          "type": "uint256"
        }
      ],
      "name": "Approval",
      "type": "event"
    },
    {
      "anonymous": false,
      "inputs": [
        {
          "indexed": true,
          "internalType": "address",
          "name": "owner",
          "type": "address"
        },
        {
          "indexed": true,
          "internalType": "address",
          "name": "operator",
          "type": "address"
        },
        {
          "indexed": false,
          "internalType": "bool",
          "name": "approved",
          "type": "bool"
        }
      ],
      "name": "ApprovalForAll",
      "type": "event"
    },
    {
      "anonymous": false,
      "inputs": [
        {
          "indexed": true,
          "internalType": "address",
          "name": "beacon",
          "type": "address"
        }
      ],
      "name": "BeaconUpgraded",
      "type": "event"
    },
    {
      "anonymous": false,
      "inputs": [
        {
          "indexed": false,
          "internalType": "uint8",
          "name": "version",
          "type": "uint8"
        }
      ],
      "name": "Initialized",
      "type": "event"
    },
    {
      "anonymous": false,
      "inputs": [
        {
          "indexed": true,
          "internalType": "address",
          "name": "previousOwner",
          "type": "address"
        },
        {
          "indexed": true,
          "internalType": "address",
          "name": "newOwner",
          "type": "address"
        }
      ],
      "name": "OwnershipTransferred",
      "type": "event"
    },
    {
      "anonymous": false,
      "inputs": [
        {
          "indexed": true,
          "internalType": "address",
          "name": "from",
          "type": "address"
        },
        {
          "indexed": true,
          "internalType": "address",
          "name": "to",
          "type": "address"
        },
        {
          "indexed": true,
          "internalType": "uint256",
          "name": "tokenId",
          "type": "uint256"
        }
      ],
      "name": "Transfer",
      "type": "event"
    },
    {
      "anonymous": false,
      "inputs": [
        {
          "indexed": true,
          "internalType": "address",
          "name": "implementation",
          "type": "address"
        }
      ],
      "name": "Upgraded",
      "type": "event"
    },
    {
      "inputs": [
        {
          "internalType": "address",
          "name": "to",
          "type": "address"
        },
        {
          "internalType": "uint256",
          "name": "tokenId",
          "type": "uint256"
        }
      ],
      "name": "approve",
      "outputs": [],
      "stateMutability": "nonpayable",
      "type": "function"
    },
    {
      "inputs": [
        {
          "internalType": "address",
          "name": "owner",
          "type": "address"
        }
      ],
      "name": "balanceOf",
      "outputs": [
        {
          "internalType": "uint256",
          "name": "",
          "type": "uint256"
        }
      ],
      "stateMutability": "view",
      "type": "function"
    },
    {
      "inputs": [
        {
          "internalType": "uint256",
          "name": "tokenId",
          "type": "uint256"
        }
      ],
      "name": "burn",
      "outputs": [],
      "stateMutability": "nonpayable",
      "type": "function"
    },
    {
      "inputs": [
        {
          "internalType": "uint256",
          "name": "_id",
          "type": "uint256"
        },
        {
          "internalType": "uint256",
          "name": "_payAmount",
          "type": "uint256"
        },
        {
          "internalType": "address",
          "name": "_newOwner",
          "type": "address"
        }
      ],
      "name": "buyToken",
      "outputs": [
        {
          "internalType": "address",
          "name": "",
          "type": "address"
        }
      ],
      "stateMutability": "nonpayable",
      "type": "function"
    },
    {
      "inputs": [
        {
          "internalType": "uint256",
          "name": "tokenId",
          "type": "uint256"
        }
      ],
      "name": "getApproved",
      "outputs": [
        {
          "internalType": "address",
          "name": "",
          "type": "address"
        }
      ],
      "stateMutability": "view",
      "type": "function"
    },
    {
      "inputs": [
        {
          "internalType": "uint256[]",
          "name": "_listId",
          "type": "uint256[]"
        }
      ],
      "name": "getListById",
      "outputs": [
        {
          "components": [
            {
              "internalType": "uint256",
              "name": "tokenId",
              "type": "uint256"
            },
            {
              "internalType": "enum Utils.CardRarity",
              "name": "cardRarity",
              "type": "uint8"
            },
            {
              "internalType": "uint256",
              "name": "collection",
              "type": "uint256"
            },
            {
              "internalType": "uint256",
              "name": "killTokens",
              "type": "uint256"
            },
            {
              "internalType": "uint256",
              "name": "salePrice",
              "type": "uint256"
            },
            {
              "internalType": "uint256",
              "name": "mintDate",
              "type": "uint256"
            },
            {
              "internalType": "string",
              "name": "media",
              "type": "string"
            },
            {
              "internalType": "uint256",
              "name": "health",
              "type": "uint256"
            },
            {
              "internalType": "uint256",
              "name": "attack",
              "type": "uint256"
            },
            {
              "internalType": "uint256",
              "name": "brain",
              "type": "uint256"
            },
            {
              "internalType": "string",
              "name": "nftType",
              "type": "string"
            },
            {
              "internalType": "address",
              "name": "ownerId",
              "type": "address"
            },
            {
              "internalType": "uint256",
              "name": "nextLandDiscovery",
              "type": "uint256"
            },
            {
              "internalType": "uint256",
              "name": "nextBattle",
              "type": "uint256"
            }
          ],
          "internalType": "struct MonsterNFTContract.Monster[]",
          "name": "",
          "type": "tuple[]"
        }
      ],
      "stateMutability": "view",
      "type": "function"
    },
    {
      "inputs": [
        {
          "internalType": "uint256",
          "name": "_startIndex",
          "type": "uint256"
        },
        {
          "internalType": "uint8",
          "name": "_count",
          "type": "uint8"
        },
        {
          "internalType": "string",
          "name": "_rarity",
          "type": "string"
        },
        {
          "internalType": "string",
          "name": "_collection",
          "type": "string"
        }
      ],
      "name": "getMarketItems",
      "outputs": [
        {
          "internalType": "uint256",
          "name": "",
          "type": "uint256"
        },
        {
          "components": [
            {
              "internalType": "uint256",
              "name": "tokenId",
              "type": "uint256"
            },
            {
              "internalType": "enum Utils.CardRarity",
              "name": "cardRarity",
              "type": "uint8"
            },
            {
              "internalType": "uint256",
              "name": "collection",
              "type": "uint256"
            },
            {
              "internalType": "uint256",
              "name": "killTokens",
              "type": "uint256"
            },
            {
              "internalType": "uint256",
              "name": "salePrice",
              "type": "uint256"
            },
            {
              "internalType": "uint256",
              "name": "mintDate",
              "type": "uint256"
            },
            {
              "internalType": "string",
              "name": "media",
              "type": "string"
            },
            {
              "internalType": "uint256",
              "name": "health",
              "type": "uint256"
            },
            {
              "internalType": "uint256",
              "name": "attack",
              "type": "uint256"
            },
            {
              "internalType": "uint256",
              "name": "brain",
              "type": "uint256"
            },
            {
              "internalType": "string",
              "name": "nftType",
              "type": "string"
            },
            {
              "internalType": "address",
              "name": "ownerId",
              "type": "address"
            },
            {
              "internalType": "uint256",
              "name": "nextLandDiscovery",
              "type": "uint256"
            },
            {
              "internalType": "uint256",
              "name": "nextBattle",
              "type": "uint256"
            }
          ],
          "internalType": "struct MonsterNFTContract.Monster[]",
          "name": "",
          "type": "tuple[]"
        }
      ],
      "stateMutability": "view",
      "type": "function"
    },
    {
      "inputs": [
        {
          "internalType": "uint256",
          "name": "_id",
          "type": "uint256"
        }
      ],
      "name": "getRarityCollection",
      "outputs": [
        {
          "internalType": "string",
          "name": "",
          "type": "string"
        },
        {
          "internalType": "uint256",
          "name": "",
          "type": "uint256"
        }
      ],
      "stateMutability": "view",
      "type": "function"
    },
    {
      "inputs": [
        {
          "internalType": "address",
          "name": "_owner",
          "type": "address"
        },
        {
          "internalType": "string",
          "name": "_rarityFilter",
          "type": "string"
        }
      ],
      "name": "getUserMonsterRarity",
      "outputs": [
        {
          "internalType": "uint256[]",
          "name": "",
          "type": "uint256[]"
        }
      ],
      "stateMutability": "view",
      "type": "function"
    },
    {
      "inputs": [
        {
          "internalType": "address",
          "name": "_mainContract",
          "type": "address"
        }
      ],
      "name": "initialize",
      "outputs": [],
      "stateMutability": "nonpayable",
      "type": "function"
    },
    {
      "inputs": [
        {
          "internalType": "address",
          "name": "owner",
          "type": "address"
        },
        {
          "internalType": "address",
          "name": "operator",
          "type": "address"
        }
      ],
      "name": "isApprovedForAll",
      "outputs": [
        {
          "internalType": "bool",
          "name": "",
          "type": "bool"
        }
      ],
      "stateMutability": "view",
      "type": "function"
    },
    {
      "inputs": [
        {
          "internalType": "address",
          "name": "_owner",
          "type": "address"
        }
      ],
      "name": "isStakeMonster",
      "outputs": [
        {
          "components": [
            {
              "internalType": "uint256",
              "name": "tokenId",
              "type": "uint256"
            },
            {
              "internalType": "enum Utils.CardRarity",
              "name": "cardRarity",
              "type": "uint8"
            },
            {
              "internalType": "uint256",
              "name": "collection",
              "type": "uint256"
            },
            {
              "internalType": "uint256",
              "name": "killTokens",
              "type": "uint256"
            },
            {
              "internalType": "uint256",
              "name": "salePrice",
              "type": "uint256"
            },
            {
              "internalType": "uint256",
              "name": "mintDate",
              "type": "uint256"
            },
            {
              "internalType": "string",
              "name": "media",
              "type": "string"
            },
            {
              "internalType": "uint256",
              "name": "health",
              "type": "uint256"
            },
            {
              "internalType": "uint256",
              "name": "attack",
              "type": "uint256"
            },
            {
              "internalType": "uint256",
              "name": "brain",
              "type": "uint256"
            },
            {
              "internalType": "string",
              "name": "nftType",
              "type": "string"
            },
            {
              "internalType": "address",
              "name": "ownerId",
              "type": "address"
            },
            {
              "internalType": "uint256",
              "name": "nextLandDiscovery",
              "type": "uint256"
            },
            {
              "internalType": "uint256",
              "name": "nextBattle",
              "type": "uint256"
            }
          ],
          "internalType": "struct MonsterNFTContract.Monster",
          "name": "",
          "type": "tuple"
        },
        {
          "internalType": "uint256",
          "name": "",
          "type": "uint256"
        },
        {
          "internalType": "bool",
          "name": "",
          "type": "bool"
        }
      ],
      "stateMutability": "view",
      "type": "function"
    },
    {
      "inputs": [
        {
          "internalType": "uint256[]",
          "name": "_tokenList",
          "type": "uint256[]"
        }
      ],
      "name": "killNftList",
      "outputs": [],
      "stateMutability": "nonpayable",
      "type": "function"
    },
    {
      "inputs": [],
      "name": "leaderboardStats",
      "outputs": [
        {
          "internalType": "uint256",
          "name": "",
          "type": "uint256"
        },
        {
          "internalType": "uint256",
          "name": "",
          "type": "uint256"
        }
      ],
      "stateMutability": "view",
      "type": "function"
    },
    {
      "inputs": [],
      "name": "name",
      "outputs": [
        {
          "internalType": "string",
          "name": "",
          "type": "string"
        }
      ],
      "stateMutability": "view",
      "type": "function"
    },
    {
      "inputs": [],
      "name": "owner",
      "outputs": [
        {
          "internalType": "address",
          "name": "",
          "type": "address"
        }
      ],
      "stateMutability": "view",
      "type": "function"
    },
    {
      "inputs": [
        {
          "internalType": "uint256",
          "name": "tokenId",
          "type": "uint256"
        }
      ],
      "name": "ownerOf",
      "outputs": [
        {
          "internalType": "address",
          "name": "",
          "type": "address"
        }
      ],
      "stateMutability": "view",
      "type": "function"
    },
    {
      "inputs": [],
      "name": "proxiableUUID",
      "outputs": [
        {
          "internalType": "bytes32",
          "name": "",
          "type": "bytes32"
        }
      ],
      "stateMutability": "view",
      "type": "function"
    },
    {
      "inputs": [],
      "name": "renounceOwnership",
      "outputs": [],
      "stateMutability": "nonpayable",
      "type": "function"
    },
    {
      "inputs": [
        {
          "internalType": "uint256",
          "name": "payAmount",
          "type": "uint256"
        },
        {
          "internalType": "uint256[]",
          "name": "_zombiesList",
          "type": "uint256[]"
        },
        {
          "internalType": "address",
          "name": "_owner",
          "type": "address"
        }
      ],
      "name": "safeMint",
      "outputs": [
        {
          "internalType": "uint256",
          "name": "",
          "type": "uint256"
        }
      ],
      "stateMutability": "nonpayable",
      "type": "function"
    },
    {
      "inputs": [
        {
          "internalType": "address",
          "name": "from",
          "type": "address"
        },
        {
          "internalType": "address",
          "name": "to",
          "type": "address"
        },
        {
          "internalType": "uint256",
          "name": "tokenId",
          "type": "uint256"
        }
      ],
      "name": "safeTransferFrom",
      "outputs": [],
      "stateMutability": "nonpayable",
      "type": "function"
    },
    {
      "inputs": [
        {
          "internalType": "address",
          "name": "from",
          "type": "address"
        },
        {
          "internalType": "address",
          "name": "to",
          "type": "address"
        },
        {
          "internalType": "uint256",
          "name": "tokenId",
          "type": "uint256"
        },
        {
          "internalType": "bytes",
          "name": "data",
          "type": "bytes"
        }
      ],
      "name": "safeTransferFrom",
      "outputs": [],
      "stateMutability": "nonpayable",
      "type": "function"
    },
    {
      "inputs": [
        {
          "internalType": "address",
          "name": "operator",
          "type": "address"
        },
        {
          "internalType": "bool",
          "name": "approved",
          "type": "bool"
        }
      ],
      "name": "setApprovalForAll",
      "outputs": [],
      "stateMutability": "nonpayable",
      "type": "function"
    },
    {
      "inputs": [
        {
          "internalType": "uint256",
          "name": "_tokenId",
          "type": "uint256"
        },
        {
          "internalType": "uint256",
          "name": "_price",
          "type": "uint256"
        },
        {
          "internalType": "address",
          "name": "_ownerId",
          "type": "address"
        }
      ],
      "name": "setMarketSalePrice",
      "outputs": [],
      "stateMutability": "nonpayable",
      "type": "function"
    },
    {
      "inputs": [
        {
          "internalType": "address",
          "name": "_owner",
          "type": "address"
        }
      ],
      "name": "stakeMonsterRewardPct",
      "outputs": [
        {
          "internalType": "uint256",
          "name": "",
          "type": "uint256"
        },
        {
          "internalType": "bool",
          "name": "",
          "type": "bool"
        }
      ],
      "stateMutability": "view",
      "type": "function"
    },
    {
      "inputs": [
        {
          "internalType": "bytes4",
          "name": "_interfaceId",
          "type": "bytes4"
        }
      ],
      "name": "supportsInterface",
      "outputs": [
        {
          "internalType": "bool",
          "name": "",
          "type": "bool"
        }
      ],
      "stateMutability": "view",
      "type": "function"
    },
    {
      "inputs": [],
      "name": "symbol",
      "outputs": [
        {
          "internalType": "string",
          "name": "",
          "type": "string"
        }
      ],
      "stateMutability": "view",
      "type": "function"
    },
    {
      "inputs": [
        {
          "internalType": "uint256",
          "name": "index",
          "type": "uint256"
        }
      ],
      "name": "tokenByIndex",
      "outputs": [
        {
          "internalType": "uint256",
          "name": "",
          "type": "uint256"
        }
      ],
      "stateMutability": "view",
      "type": "function"
    },
    {
      "inputs": [
        {
          "internalType": "address",
          "name": "owner",
          "type": "address"
        },
        {
          "internalType": "uint256",
          "name": "index",
          "type": "uint256"
        }
      ],
      "name": "tokenOfOwnerByIndex",
      "outputs": [
        {
          "internalType": "uint256",
          "name": "",
          "type": "uint256"
        }
      ],
      "stateMutability": "view",
      "type": "function"
    },
    {
      "inputs": [
        {
          "internalType": "uint256",
          "name": "_tokenId",
          "type": "uint256"
        }
      ],
      "name": "tokenURI",
      "outputs": [
        {
          "internalType": "string",
          "name": "",
          "type": "string"
        }
      ],
      "stateMutability": "view",
      "type": "function"
    },
    {
      "inputs": [],
      "name": "totalSupply",
      "outputs": [
        {
          "internalType": "uint256",
          "name": "",
          "type": "uint256"
        }
      ],
      "stateMutability": "view",
      "type": "function"
    },
    {
      "inputs": [
        {
          "internalType": "address",
          "name": "from",
          "type": "address"
        },
        {
          "internalType": "address",
          "name": "to",
          "type": "address"
        },
        {
          "internalType": "uint256",
          "name": "tokenId",
          "type": "uint256"
        }
      ],
      "name": "transferFrom",
      "outputs": [],
      "stateMutability": "nonpayable",
      "type": "function"
    },
    {
      "inputs": [
        {
          "internalType": "address",
          "name": "newOwner",
          "type": "address"
        }
      ],
      "name": "transferOwnership",
      "outputs": [],
      "stateMutability": "nonpayable",
      "type": "function"
    },
    {
      "inputs": [],
      "name": "unStakeMonster",
      "outputs": [],
      "stateMutability": "nonpayable",
      "type": "function"
    },
    {
      "inputs": [
        {
          "internalType": "address",
          "name": "newImplementation",
          "type": "address"
        }
      ],
      "name": "upgradeTo",
      "outputs": [],
      "stateMutability": "nonpayable",
      "type": "function"
    },
    {
      "inputs": [
        {
          "internalType": "address",
          "name": "newImplementation",
          "type": "address"
        },
        {
          "internalType": "bytes",
          "name": "data",
          "type": "bytes"
        }
      ],
      "name": "upgradeToAndCall",
      "outputs": [],
      "stateMutability": "payable",
      "type": "function"
    },
    {
      "inputs": [
        {
          "internalType": "uint256",
          "name": "_page",
          "type": "uint256"
        },
        {
          "internalType": "uint8",
          "name": "_count",
          "type": "uint8"
        },
        {
          "internalType": "string",
          "name": "_rarityFilter",
          "type": "string"
        }
      ],
      "name": "userMonsters",
      "outputs": [
        {
          "internalType": "uint256",
          "name": "",
          "type": "uint256"
        },
        {
          "components": [
            {
              "internalType": "uint256",
              "name": "tokenId",
              "type": "uint256"
            },
            {
              "internalType": "enum Utils.CardRarity",
              "name": "cardRarity",
              "type": "uint8"
            },
            {
              "internalType": "uint256",
              "name": "collection",
              "type": "uint256"
            },
            {
              "internalType": "uint256",
              "name": "killTokens",
              "type": "uint256"
            },
            {
              "internalType": "uint256",
              "name": "salePrice",
              "type": "uint256"
            },
            {
              "internalType": "uint256",
              "name": "mintDate",
              "type": "uint256"
            },
            {
              "internalType": "string",
              "name": "media",
              "type": "string"
            },
            {
              "internalType": "uint256",
              "name": "health",
              "type": "uint256"
            },
            {
              "internalType": "uint256",
              "name": "attack",
              "type": "uint256"
            },
            {
              "internalType": "uint256",
              "name": "brain",
              "type": "uint256"
            },
            {
              "internalType": "string",
              "name": "nftType",
              "type": "string"
            },
            {
              "internalType": "address",
              "name": "ownerId",
              "type": "address"
            },
            {
              "internalType": "uint256",
              "name": "nextLandDiscovery",
              "type": "uint256"
            },
            {
              "internalType": "uint256",
              "name": "nextBattle",
              "type": "uint256"
            }
          ],
          "internalType": "struct MonsterNFTContract.Monster[]",
          "name": "",
          "type": "tuple[]"
        }
      ],
      "stateMutability": "view",
      "type": "function"
    }
  ],
  "bytecode": "0x60a0604052306080523480156200001557600080fd5b506200002062000026565b620000e8565b600054610100900460ff1615620000935760405162461bcd60e51b815260206004820152602760248201527f496e697469616c697a61626c653a20636f6e747261637420697320696e697469604482015266616c697a696e6760c81b606482015260840160405180910390fd5b60005460ff9081161015620000e6576000805460ff191660ff9081179091556040519081527f7f26b83ff96e1f2b6a682f133852f6798a09c465da95921460cefb38474024989060200160405180910390a15b565b6080516152266200012060003960008181610c8001528181610cc00152818161130101528181611341015261146701526152266000f3fe60806040526004361061021a5760003560e01c806370a0823111610123578063c4d66de8116100ab578063e77f95701161006f578063e77f957014610693578063e985e9c5146106b3578063f2fde38b146106fc578063f4c6817c1461071c578063feb9fd641461074657600080fd5b8063c4d66de81461059f578063c87b56dd146105bf578063d7d8de92146105df578063d9dbcf821461060c578063e28035dc1461063a57600080fd5b806395d89b41116100f257806395d89b41146104fb578063994ddfb414610510578063a22cb4651461053f578063af3f65771461055f578063b88d4fde1461057f57600080fd5b806370a082311461047a578063715018a61461049a5780638da5cb5b146104af5780638e169b14146104ce57600080fd5b80633659cfe6116101a6578063489cb82011610175578063489cb820146103f25780634f1ef286146104125780634f6ccce71461042557806352d1902d146104455780636352211e1461045a57600080fd5b80633659cfe61461036457806342842e0e1461038457806342966c68146103a45780634689856c146103c457600080fd5b806318160ddd116101ed57806318160ddd146102d057806321466eb5146102ef578063215ecec31461030f57806323b872dd146103245780632f745c591461034457600080fd5b806301ffc9a71461021f57806306fdde0314610254578063081812fc14610276578063095ea7b3146102ae575b600080fd5b34801561022b57600080fd5b5061023f61023a366004614477565b610766565b60405190151581526020015b60405180910390f35b34801561026057600080fd5b50610269610777565b60405161024b91906144ec565b34801561028257600080fd5b506102966102913660046144ff565b610809565b6040516001600160a01b03909116815260200161024b565b3480156102ba57600080fd5b506102ce6102c936600461452d565b610830565b005b3480156102dc57600080fd5b506099545b60405190815260200161024b565b3480156102fb57600080fd5b5061029661030a366004614559565b61094b565b34801561031b57600080fd5b506102ce610a94565b34801561033057600080fd5b506102ce61033f366004614592565b610bad565b34801561035057600080fd5b506102e161035f36600461452d565b610bdf565b34801561037057600080fd5b506102ce61037f3660046145d3565b610c75565b34801561039057600080fd5b506102ce61039f366004614592565b610d55565b3480156103b057600080fd5b506102ce6103bf3660046144ff565b610d70565b3480156103d057600080fd5b506103e46103df3660046144ff565b610d9e565b60405161024b9291906145f0565b3480156103fe57600080fd5b506102e161040d3660046146e6565b610dd2565b6102ce6104203660046147ad565b6112f6565b34801561043157600080fd5b506102e16104403660046144ff565b6113c7565b34801561045157600080fd5b506102e161145a565b34801561046657600080fd5b506102966104753660046144ff565b61150d565b34801561048657600080fd5b506102e16104953660046145d3565b61156d565b3480156104a657600080fd5b506102ce6115f3565b3480156104bb57600080fd5b5061012d546001600160a01b0316610296565b3480156104da57600080fd5b506104ee6104e93660046147fc565b611607565b60405161024b9190614994565b34801561050757600080fd5b506102696118b1565b34801561051c57600080fd5b5061053061052b3660046145d3565b6118c0565b60405161024b939291906149a7565b34801561054b57600080fd5b506102ce61055a3660046149d1565b611b06565b34801561056b57600080fd5b506102ce61057a3660046147fc565b611b11565b34801561058b57600080fd5b506102ce61059a366004614a0f565b611c47565b3480156105ab57600080fd5b506102ce6105ba3660046145d3565b611c7f565b3480156105cb57600080fd5b506102696105da3660046144ff565b611e11565b3480156105eb57600080fd5b506105ff6105fa3660046147ad565b611e1c565b60405161024b9190614ab5565b34801561061857600080fd5b5061062c610627366004614ade565b611ec8565b60405161024b929190614b4f565b34801561064657600080fd5b5061067e6106553660046145d3565b6001600160a01b031660009081526101c86020526040902060028101549054909160ff90911690565b6040805192835290151560208301520161024b565b34801561069f57600080fd5b5061062c6106ae366004614b68565b612284565b3480156106bf57600080fd5b5061023f6106ce366004614bbe565b6001600160a01b039182166000908152606a6020908152604080832093909416825291909152205460ff1690565b34801561070857600080fd5b506102ce6107173660046145d3565b612680565b34801561072857600080fd5b506107316126f6565b6040805192835260208301919091520161024b565b34801561075257600080fd5b506102ce610761366004614559565b61270f565b6000610771826127a7565b92915050565b60606065805461078690614bec565b80601f01602080910402602001604051908101604052809291908181526020018280546107b290614bec565b80156107ff5780601f106107d4576101008083540402835291602001916107ff565b820191906000526020600020905b8154815290600101906020018083116107e257829003601f168201915b5050505050905090565b6000610814826127cc565b506000908152606960205260409020546001600160a01b031690565b600061083b8261150d565b9050806001600160a01b0316836001600160a01b031614156108ae5760405162461bcd60e51b815260206004820152602160248201527f4552433732313a20617070726f76616c20746f2063757272656e74206f776e656044820152603960f91b60648201526084015b60405180910390fd5b336001600160a01b03821614806108ca57506108ca81336106ce565b61093c5760405162461bcd60e51b815260206004820152603e60248201527f4552433732313a20617070726f76652063616c6c6572206973206e6f7420746f60448201527f6b656e206f776e6572206e6f7220617070726f76656420666f7220616c6c000060648201526084016108a5565b610946838361282b565b505050565b6000610955612899565b60008481526101c56020526040902060048101546109ac5760405162461bcd60e51b815260206004820152601460248201527315dc9bdb99c81c185e5b595b9d08185b5bdd5b9d60621b60448201526064016108a5565b838160040154146109f65760405162461bcd60e51b815260206004820152601460248201527315dc9bdb99c81c185e5b595b9d08185b5bdd5b9d60621b60448201526064016108a5565b600b8101546001600160a01b0384811691161415610a565760405162461bcd60e51b815260206004820152601f60248201527f43616e27742073656c6c20666f72207468652073616d65206163636f756e740060448201526064016108a5565b600b810180546001600160a01b038581166001600160a01b03198316179092556000600484015516610a89818588612962565b9150505b9392505050565b3360009081526101c8602052604090205460ff16610af5576040516348d8e1b960e01b815260206004820152601d60248201527f596f7520646f6e27742068617665207374616b6564204d6f6e7374657200000060448201526064016108a5565b6101c3546040805163c784262960e01b815290516000926001600160a01b03169163c78426299160048083019260209291908290030181865afa158015610b40573d6000803e3d6000fd5b505050506040513d601f19601f82011682018060405250810190610b649190614c21565b3360008181526101c86020526040902060010154919250610b8791839190612962565b503360009081526101c860205260408120805460ff191681556001810182905560020155565b610bb8335b82612b09565b610bd45760405162461bcd60e51b81526004016108a590614c3e565b610946838383612962565b6000610bea8361156d565b8210610c4c5760405162461bcd60e51b815260206004820152602b60248201527f455243373231456e756d657261626c653a206f776e657220696e646578206f7560448201526a74206f6620626f756e647360a81b60648201526084016108a5565b506001600160a01b03919091166000908152609760209081526040808320938352929052205490565b306001600160a01b037f0000000000000000000000000000000000000000000000000000000000000000161415610cbe5760405162461bcd60e51b81526004016108a590614c8c565b7f00000000000000000000000000000000000000000000000000000000000000006001600160a01b0316610d076000805160206151aa833981519152546001600160a01b031690565b6001600160a01b031614610d2d5760405162461bcd60e51b81526004016108a590614cd8565b610d3681612b88565b60408051600080825260208201909252610d5291839190612b90565b50565b61094683838360405180602001604052806000815250611c47565b610d7933610bb2565b610d955760405162461bcd60e51b81526004016108a590614c3e565b610d5281612cfb565b60008181526101c56020526040812060018101546060929190610dc39060ff16612d4b565b81600201549250925050915091565b6000610ddc612e21565b8251600a908114610e52576040805163240e801f60e01b81526004810191909152602e60448201527f596f75206e65656420746f2073656e64206d6f7265207a6f6d6269657320666f60648201526d391036b4b73a1026b7b739ba32b960911b608482015260ff8216602482015260a4016108a5565b6101c3546040805163b53720c560e01b815290516000926001600160a01b03169163b53720c59160048083019260209291908290030181865afa158015610e9d573d6000803e3d6000fd5b505050506040513d601f19601f82011682018060405250810190610ec19190614c21565b90506000816001600160a01b031663767c5e1b876040518263ffffffff1660e01b8152600401610ef19190614ab5565b6000604051808303816000875af1158015610f10573d6000803e3d6000fd5b505050506040513d6000823e601f3d908101601f19168201604052610f389190810190614d24565b6040805160a0810182526000808252602082018190528183018190526060820181905260808201529051630954fccb60e21b8152919250906001600160a01b03841690632553f32c90610f939089908b908d90600401614d91565b60a0604051808303816000875af1158015610fb2573d6000803e3d6000fd5b505050506040513d601f19601f82011682018060405250810190610fd69190614dc5565b608086015260608501526040840152602083015281526000610ff783612e6c565b905060006101c360009054906101000a90046001600160a01b03166001600160a01b031663981101706040518163ffffffff1660e01b8152600401602060405180830381865afa15801561104f573d6000803e3d6000fd5b505050506040513d601f19601f820116820180604052508101906110739190614c21565b90506000816001600160a01b031663636f349685608001516040518263ffffffff1660e01b81526004016110a991815260200190565b6000604051808303816000875af11580156110c8573d6000803e3d6000fd5b505050506040513d6000823e601f3d908101601f191682016040526110f09190810190614d24565b905060006110fe6101c45490565b905061110f6101c480546001019055565b6111198a82612f5f565b6111238183612f79565b604051806101c0016040528082815260200185600381111561114757611147614830565b81526020018660800151815260200186606001518152602001600081526020014281526020018381526020018660000151815260200186602001518152602001866040015181526020016040518060400160405280600781526020016626b7b739ba32b960c91b81525081526020018b6001600160a01b03168152602001428152602001428152506101c560008381526020019081526020016000206000820151816000015560208201518160010160006101000a81548160ff0219169083600381111561121757611217614830565b021790555060408201516002820155606082015160038201556080820151600482015560a0820151600582015560c0820151805161125f916006840191602090910190614319565b5060e0820151600782015561010082015160088201556101208201516009820155610140820151805161129c91600a840191602090910190614319565b50610160820151600b820180546001600160a01b0319166001600160a01b03909216919091179055610180820151600c8201556101a090910151600d909101556112e78a8286613013565b9b9a5050505050505050505050565b306001600160a01b037f000000000000000000000000000000000000000000000000000000000000000016141561133f5760405162461bcd60e51b81526004016108a590614c8c565b7f00000000000000000000000000000000000000000000000000000000000000006001600160a01b03166113886000805160206151aa833981519152546001600160a01b031690565b6001600160a01b0316146113ae5760405162461bcd60e51b81526004016108a590614cd8565b6113b782612b88565b6113c382826001612b90565b5050565b60006113d260995490565b82106114355760405162461bcd60e51b815260206004820152602c60248201527f455243373231456e756d657261626c653a20676c6f62616c20696e646578206f60448201526b7574206f6620626f756e647360a01b60648201526084016108a5565b6099828154811061144857611448614e05565b90600052602060002001549050919050565b6000306001600160a01b037f000000000000000000000000000000000000000000000000000000000000000016146114fa5760405162461bcd60e51b815260206004820152603860248201527f555550535570677261646561626c653a206d757374206e6f742062652063616c60448201527f6c6564207468726f7567682064656c656761746563616c6c000000000000000060648201526084016108a5565b506000805160206151aa83398151915290565b6000818152606760205260408120546001600160a01b0316806107715760405162461bcd60e51b8152602060048201526018602482015277115490cdcc8c4e881a5b9d985b1a59081d1bdad95b88125160421b60448201526064016108a5565b60006001600160a01b0382166115d75760405162461bcd60e51b815260206004820152602960248201527f4552433732313a2061646472657373207a65726f206973206e6f7420612076616044820152683634b21037bbb732b960b91b60648201526084016108a5565b506001600160a01b031660009081526068602052604090205490565b6115fb61307a565b61160560006130d5565b565b6060600082516001600160401b0381111561162457611624614612565b60405190808252806020026020018201604052801561165d57816020015b61164a61439d565b8152602001906001900390816116425790505b50905060005b83518110156118aa576101c5600085838151811061168357611683614e05565b60200260200101518152602001908152602001600020604051806101c0016040529081600082015481526020016001820160009054906101000a900460ff1660038111156116d3576116d3614830565b60038111156116e4576116e4614830565b81526020016002820154815260200160038201548152602001600482015481526020016005820154815260200160068201805461172090614bec565b80601f016020809104026020016040519081016040528092919081815260200182805461174c90614bec565b80156117995780601f1061176e57610100808354040283529160200191611799565b820191906000526020600020905b81548152906001019060200180831161177c57829003601f168201915b50505050508152602001600782015481526020016008820154815260200160098201548152602001600a820180546117d090614bec565b80601f01602080910402602001604051908101604052809291908181526020018280546117fc90614bec565b80156118495780601f1061181e57610100808354040283529160200191611849565b820191906000526020600020905b81548152906001019060200180831161182c57829003601f168201915b5050509183525050600b8201546001600160a01b03166020820152600c8201546040820152600d90910154606090910152825183908390811061188e5761188e614e05565b6020026020010181905250806118a390614e31565b9050611663565b5092915050565b60606066805461078690614bec565b6118c861439d565b6001600160a01b03821660009081526101c8602090815260408083208151606081018352815460ff908116151582526001808401548387018190526002909401548386019081529387526101c586528487209351835186516101c0810190975285548752918501548897949691949293919286929084019116600381111561195257611952614830565b600381111561196357611963614830565b81526020016002820154815260200160038201548152602001600482015481526020016005820154815260200160068201805461199f90614bec565b80601f01602080910402602001604051908101604052809291908181526020018280546119cb90614bec565b8015611a185780601f106119ed57610100808354040283529160200191611a18565b820191906000526020600020905b8154815290600101906020018083116119fb57829003601f168201915b50505050508152602001600782015481526020016008820154815260200160098201548152602001600a82018054611a4f90614bec565b80601f0160208091040260200160405190810160405280929190818152602001828054611a7b90614bec565b8015611ac85780601f10611a9d57610100808354040283529160200191611ac8565b820191906000526020600020905b815481529060010190602001808311611aab57829003601f168201915b5050509183525050600b8201546001600160a01b03166020820152600c8201546040820152600d909101546060909101529891975095509350505050565b6113c3338383613128565b6000805b8251811015611bdc576000838281518110611b3257611b32614e05565b60209081029190910181015160008181526101c59092526040909120600b810154919250906001600160a01b03163314611baf5760405163e2bd753160e01b815260206004820152601b60248201527f596f752063616e2774206b696c6c2074686973204d6f6e73746572000000000060448201526064016108a5565b6003810154611bbe9085614e4c565b9350611bc982612cfb565b505080611bd590614e31565b9050611b15565b506101c3546040516325a2808d60e11b8152336004820152602481018390526001600160a01b0390911690634b45011a906044015b600060405180830381600087803b158015611c2b57600080fd5b505af1158015611c3f573d6000803e3d6000fd5b505050505050565b611c513383612b09565b611c6d5760405162461bcd60e51b81526004016108a590614c3e565b611c79848484846131f7565b50505050565b600054610100900460ff1615808015611c9f5750600054600160ff909116105b80611cb95750303b158015611cb9575060005460ff166001145b611d1c5760405162461bcd60e51b815260206004820152602e60248201527f496e697469616c697a61626c653a20636f6e747261637420697320616c72656160448201526d191e481a5b9a5d1a585b1a5e995960921b60648201526084016108a5565b6000805460ff191660011790558015611d3f576000805461ff0019166101001790555b611d8460405180604001604052806007815260200166169bdb53185b9960ca1b815250604051806040016040528060048152602001635a4d4c4d60e01b81525061322a565b611d8c61325b565b611d9461325b565b611d9c61325b565b611da4613282565b611dac61325b565b6101c380546001600160a01b0319166001600160a01b03841617905580156113c3576000805461ff0019169055604051600181527f7f26b83ff96e1f2b6a682f133852f6798a09c465da95921460cefb38474024989060200160405180910390a15050565b6060610771826132b1565b6001600160a01b03821660009081526101c660205260408120606091611e4184612e6c565b6003811115611e5257611e52614830565b6003811115611e6357611e63614830565b8152602001908152602001600020805480602002602001604051908101604052809291908181526020018280548015611ebb57602002820191906000526020600020905b815481526020019060010190808311611ea7575b5050505050905092915050565b6000606060008560ff166001600160401b03811115611ee957611ee9614612565b604051908082528060200260200182016040528015611f2257816020015b611f0f61439d565b815260200190600190039081611f075790505b50905060006101c360009054906101000a90046001600160a01b03166001600160a01b031663f34b899d6040518163ffffffff1660e01b8152600401602060405180830381865afa158015611f7b573d6000803e3d6000fd5b505050506040513d601f19601f82011682018060405250810190611f9f9190614c21565b9050600080826001600160a01b031663278d453c8b8b8b8b6040518563ffffffff1660e01b8152600401611fd69493929190614e64565b600060405180830381865afa158015611ff3573d6000803e3d6000fd5b505050506040513d6000823e601f3d908101601f1916820160405261201b9190810190614f1d565b9150915060005b8960ff168110156122735782811015612263576101c5600083838151811061204c5761204c614e05565b60200260200101518152602001908152602001600020604051806101c0016040529081600082015481526020016001820160009054906101000a900460ff16600381111561209c5761209c614830565b60038111156120ad576120ad614830565b8152602001600282015481526020016003820154815260200160048201548152602001600582015481526020016006820180546120e990614bec565b80601f016020809104026020016040519081016040528092919081815260200182805461211590614bec565b80156121625780601f1061213757610100808354040283529160200191612162565b820191906000526020600020905b81548152906001019060200180831161214557829003601f168201915b50505050508152602001600782015481526020016008820154815260200160098201548152602001600a8201805461219990614bec565b80601f01602080910402602001604051908101604052809291908181526020018280546121c590614bec565b80156122125780601f106121e757610100808354040283529160200191612212565b820191906000526020600020905b8154815290600101906020018083116121f557829003601f168201915b5050509183525050600b8201546001600160a01b03166020820152600c8201546040820152600d90910154606090910152855186908390811061225757612257614e05565b60200260200101819052505b61226c81614e31565b9050612022565b509099929850919650505050505050565b6000606060008460ff166001600160401b038111156122a5576122a5614612565b6040519080825280602002602001820160405280156122ce578160200160208202803683370190505b50905060008060006101c360009054906101000a90046001600160a01b03166001600160a01b0316637641ed666040518163ffffffff1660e01b8152600401602060405180830381865afa15801561232a573d6000803e3d6000fd5b505050506040513d601f19601f8201168201806040525081019061234e9190614c21565b604051630184561160e51b81529091506001600160a01b0382169063308ac22090612383908c908c908c903390600401614f59565b600060405180830381865afa1580156123a0573d6000803e3d6000fd5b505050506040513d6000823e601f3d908101601f191682016040526123c89190810190614f94565b91955090935091506000836001600160401b038111156123ea576123ea614612565b60405190808252806020026020018201604052801561242357816020015b61241061439d565b8152602001906001900390816124085790505b50905060005b8381101561266f576101c5600087838151811061244857612448614e05565b60200260200101518152602001908152602001600020604051806101c0016040529081600082015481526020016001820160009054906101000a900460ff16600381111561249857612498614830565b60038111156124a9576124a9614830565b8152602001600282015481526020016003820154815260200160048201548152602001600582015481526020016006820180546124e590614bec565b80601f016020809104026020016040519081016040528092919081815260200182805461251190614bec565b801561255e5780601f106125335761010080835404028352916020019161255e565b820191906000526020600020905b81548152906001019060200180831161254157829003601f168201915b50505050508152602001600782015481526020016008820154815260200160098201548152602001600a8201805461259590614bec565b80601f01602080910402602001604051908101604052809291908181526020018280546125c190614bec565b801561260e5780601f106125e35761010080835404028352916020019161260e565b820191906000526020600020905b8154815290600101906020018083116125f157829003601f168201915b5050509183525050600b8201546001600160a01b03166020820152600c8201546040820152600d90910154606090910152825183908390811061265357612653614e05565b60200260200101819052508061266890614e31565b9050612429565b509299929850919650505050505050565b61268861307a565b6001600160a01b0381166126ed5760405162461bcd60e51b815260206004820152602660248201527f4f776e61626c653a206e6577206f776e657220697320746865207a65726f206160448201526564647265737360d01b60648201526084016108a5565b610d52816130d5565b6000806127036101c45490565b6101c754915091509091565b612717612899565b60008381526101c560205260409020600b01546001600160a01b038281169116146127905760405162461bcd60e51b815260206004820152602360248201527f596f752063616e2774206368616e676520707269636520666f7220746869732060448201526213919560ea1b60648201526084016108a5565b5060009182526101c5602052604090912060040155565b60006001600160e01b0319821663780e9d6360e01b14806107715750610771826133d7565b6000818152606760205260409020546001600160a01b0316610d525760405162461bcd60e51b8152602060048201526018602482015277115490cdcc8c4e881a5b9d985b1a59081d1bdad95b88125160421b60448201526064016108a5565b600081815260696020526040902080546001600160a01b0319166001600160a01b03841690811790915581906128608261150d565b6001600160a01b03167f8c5be1e5ebec7d5bd14f71427d1e84f3dd0314c0f7b2291e5b200ac8c7c3b92560405160405180910390a45050565b6101c3546040805163f34b899d60e01b815290516000926001600160a01b03169163f34b899d9160048083019260209291908290030181865afa1580156128e4573d6000803e3d6000fd5b505050506040513d601f19601f820116820180604052508101906129089190614c21565b90506001600160a01b0381163314610d525760405162461bcd60e51b815260206004820152601a60248201527f596f752063616e27742063616c6c2074686973206d6574686f6400000000000060448201526064016108a5565b826001600160a01b03166129758261150d565b6001600160a01b0316146129d95760405162461bcd60e51b815260206004820152602560248201527f4552433732313a207472616e736665722066726f6d20696e636f72726563742060448201526437bbb732b960d91b60648201526084016108a5565b6001600160a01b038216612a3b5760405162461bcd60e51b8152602060048201526024808201527f4552433732313a207472616e7366657220746f20746865207a65726f206164646044820152637265737360e01b60648201526084016108a5565b612a46838383613427565b612a5160008261282b565b6001600160a01b0383166000908152606860205260408120805460019290612a7a908490614fe3565b90915550506001600160a01b0382166000908152606860205260408120805460019290612aa8908490614e4c565b909155505060008181526067602052604080822080546001600160a01b0319166001600160a01b0386811691821790925591518493918716917fddf252ad1be2c89b69c2b068fc378daa952ba7f163c4a11628f55a4df523b3ef91a4505050565b600080612b158361150d565b9050806001600160a01b0316846001600160a01b03161480612b5c57506001600160a01b038082166000908152606a602090815260408083209388168352929052205460ff165b80612b805750836001600160a01b0316612b7584610809565b6001600160a01b0316145b949350505050565b610d5261307a565b7f4910fdfa16fed3260ed0e7147f7cc6da11a60208b5b9406d12a635614ffd91435460ff1615612bc35761094683613606565b826001600160a01b03166352d1902d6040518163ffffffff1660e01b8152600401602060405180830381865afa925050508015612c1d575060408051601f3d908101601f19168201909252612c1a91810190614ffa565b60015b612c805760405162461bcd60e51b815260206004820152602e60248201527f45524331393637557067726164653a206e657720696d706c656d656e7461746960448201526d6f6e206973206e6f74205555505360901b60648201526084016108a5565b6000805160206151aa8339815191528114612cef5760405162461bcd60e51b815260206004820152602960248201527f45524331393637557067726164653a20756e737570706f727465642070726f786044820152681a58589b195555525160ba1b60648201526084016108a5565b506109468383836136a2565b60008181526101c5602052604090206001810154612d1f903390849060ff166136c7565b612d2882613840565b60016101c76000828254612d3c9190614e4c565b909155506113c39050826138ff565b60606000826003811115612d6157612d61614830565b1415612d8957505060408051808201909152600681526521b7b6b6b7b760d11b602082015290565b6001826003811115612d9d57612d9d614830565b1415612dc75750506040805180820190915260088152672ab721b7b6b6b7b760c11b602082015290565b6002826003811115612ddb57612ddb614830565b1415612e015750506040805180820190915260048152635261726560e01b602082015290565b50506040805180820190915260048152634570696360e01b602082015290565b6101c3546040805163c784262960e01b815290516000926001600160a01b03169163c78426299160048083019260209291908290030181865afa1580156128e4573d6000803e3d6000fd5b60008082604051602001612e809190615013565b604051602081830303815290604052805190602001209050604051602001612eb4906521b7b6b6b7b760d11b815260060190565b60405160208183030381529060405280519060200120811415612eda5750600092915050565b604051672ab721b7b6b6b7b760c11b602082015260280160405160208183030381529060405280519060200120811415612f175750600192915050565b604051635261726560e01b602082015260240160405160208183030381529060405280519060200120811415612f505750600292915050565b50600392915050565b50919050565b6113c382826040518060200160405280600081525061393f565b6000828152606760205260409020546001600160a01b0316612ff45760405162461bcd60e51b815260206004820152602e60248201527f45524337323155524953746f726167653a2055524920736574206f66206e6f6e60448201526d32bc34b9ba32b73a103a37b5b2b760911b60648201526084016108a5565b600082815260c960209081526040909120825161094692840190614319565b6001600160a01b03831660009081526101c6602052604081209082600381111561303f5761303f614830565b600381111561305057613050614830565b81526020808201929092526040016000908120805460018101825590825291902001919091555050565b61012d546001600160a01b031633146116055760405162461bcd60e51b815260206004820181905260248201527f4f776e61626c653a2063616c6c6572206973206e6f7420746865206f776e657260448201526064016108a5565b61012d80546001600160a01b038381166001600160a01b0319831681179093556040519116919082907f8be0079c531659141344cd1fd0a4f28419497f9722a3daafe3b4186f6b6457e090600090a35050565b816001600160a01b0316836001600160a01b0316141561318a5760405162461bcd60e51b815260206004820152601960248201527f4552433732313a20617070726f766520746f2063616c6c65720000000000000060448201526064016108a5565b6001600160a01b038381166000818152606a6020908152604080832094871680845294825291829020805460ff191686151590811790915591519182527f17307eab39ab6107e8899845ad3d59bd9653f200f220920489ca2b5937696c31910160405180910390a3505050565b613202848484612962565b61320e84848484613972565b611c795760405162461bcd60e51b81526004016108a59061502f565b600054610100900460ff166132515760405162461bcd60e51b81526004016108a590615081565b6113c38282613a70565b600054610100900460ff166116055760405162461bcd60e51b81526004016108a590615081565b600054610100900460ff166132a95760405162461bcd60e51b81526004016108a590615081565b611605613abe565b60606132bc826127cc565b600082815260c96020526040812080546132d590614bec565b80601f016020809104026020016040519081016040528092919081815260200182805461330190614bec565b801561334e5780601f106133235761010080835404028352916020019161334e565b820191906000526020600020905b81548152906001019060200180831161333157829003601f168201915b50505050509050600061338960408051808201909152601581527468747470733a2f2f697066732e696f2f697066732f60581b602082015290565b905080516000141561339c575092915050565b8151156133ce5780826040516020016133b69291906150cc565b60405160208183030381529060405292505050919050565b612b8084613aee565b60006001600160e01b031982166380ac58cd60e01b148061340857506001600160e01b03198216635b5e139f60e01b145b8061077157506301ffc9a760e01b6001600160e01b0319831614610771565b613432838383613b7e565b6001600160a01b038316156109465760008181526101c560205260409020600b810180546001600160a01b0319166001600160a01b03851617905561347682613840565b600181015461348b908590849060ff166136c7565b60018101546134a0908490849060ff16613013565b6101c360009054906101000a90046001600160a01b03166001600160a01b031663c78426296040518163ffffffff1660e01b8152600401602060405180830381865afa1580156134f4573d6000803e3d6000fd5b505050506040513d601f19601f820116820180604052508101906135189190614c21565b6001600160a01b0316836001600160a01b03161415611c79576001600160a01b03841660009081526101c8602052604090205460ff161561359c576040516348d8e1b960e01b815260206004820152601f60248201527f596f7520616c72656164792068617665207374616b6564204d6f6e737465720060448201526064016108a5565b60405180606001604052806001151581526020018381526020016135bf84613c36565b90526001600160a01b03851660009081526101c860209081526040918290208351815490151560ff1990911617815590830151600182015591015160029091015550505050565b6001600160a01b0381163b6136735760405162461bcd60e51b815260206004820152602d60248201527f455243313936373a206e657720696d706c656d656e746174696f6e206973206e60448201526c1bdd08184818dbdb9d1c9858dd609a1b60648201526084016108a5565b6000805160206151aa83398151915280546001600160a01b0319166001600160a01b0392909216919091179055565b6136ab83613cca565b6000825111806136b85750805b1561094657611c798383613d0a565b6001600160a01b03831660009081526101c660205260408120819061376d90828560038111156136f9576136f9614830565b600381111561370a5761370a614830565b815260200190815260200160002080548060200260200160405190810160405280929190818152602001828054801561376257602002820191906000526020600020905b81548152602001906001019080831161374e575b505050505085613dfe565b915091508015613839576001600160a01b03851660009081526101c660205260408120818560038111156137a3576137a3614830565b60038111156137b4576137b4614830565b8152602001908152602001600020905080600182805490506137d69190614fe3565b815481106137e6576137e6614e05565b906000526020600020015481848154811061380357613803614e05565b906000526020600020018190555080805480613821576138216150fb565b60019003818190600052602060002001600090559055505b5050505050565b6101c3546040805163f34b899d60e01b815290516000926001600160a01b03169163f34b899d9160048083019260209291908290030181865afa15801561388b573d6000803e3d6000fd5b505050506040513d601f19601f820116820180604052508101906138af9190614c21565b604080516314a2c6db60e11b8152600481018590526024810191909152600760448201526636b7b739ba32b960c91b60648201529091506001600160a01b038216906329458db690608401611c11565b61390881613e5e565b600081815260c960205260409020805461392190614bec565b159050610d5257600081815260c960205260408120610d5291614416565b6139498383613f05565b6139566000848484613972565b6109465760405162461bcd60e51b81526004016108a59061502f565b60006001600160a01b0384163b15613a6557604051630a85bd0160e11b81526001600160a01b0385169063150b7a02906139b6903390899088908890600401615111565b6020604051808303816000875af19250505080156139f1575060408051601f3d908101601f191682019092526139ee9181019061514e565b60015b613a4b573d808015613a1f576040519150601f19603f3d011682016040523d82523d6000602084013e613a24565b606091505b508051613a435760405162461bcd60e51b81526004016108a59061502f565b805181602001fd5b6001600160e01b031916630a85bd0160e11b149050612b80565b506001949350505050565b600054610100900460ff16613a975760405162461bcd60e51b81526004016108a590615081565b8151613aaa906065906020850190614319565b508051610946906066906020840190614319565b600054610100900460ff16613ae55760405162461bcd60e51b81526004016108a590615081565b611605336130d5565b6060613af9826127cc565b6000613b2d60408051808201909152601581527468747470733a2f2f697066732e696f2f697066732f60581b602082015290565b90506000815111613b4d5760405180602001604052806000815250610a8d565b80613b5784614053565b604051602001613b689291906150cc565b6040516020818303038152906040529392505050565b6001600160a01b038316613bd957613bd481609980546000838152609a60205260408120829055600182018355919091527f72a152ddfb8e864297c917af52ea6c1c68aead0fee1a62673fcc7e0c94979d000155565b613bfc565b816001600160a01b0316836001600160a01b031614613bfc57613bfc8382614150565b6001600160a01b038216613c1357610946816141ed565b826001600160a01b0316826001600160a01b03161461094657610946828261429c565b60008181526101c56020526040812081600182015460ff166003811115613c5f57613c5f614830565b1415613c6e5750600292915050565b60018082015460ff166003811115613c8857613c88614830565b1415613c975750600592915050565b6002600182015460ff166003811115613cb257613cb2614830565b1415613cc15750600c92915050565b50601692915050565b613cd381613606565b6040516001600160a01b038216907fbc7cd75a20ee27fd9adebab32041f755214dbc6bffa90cc0225b39da2e5c2d3b90600090a250565b60606001600160a01b0383163b613d725760405162461bcd60e51b815260206004820152602660248201527f416464726573733a2064656c65676174652063616c6c20746f206e6f6e2d636f6044820152651b9d1c9858dd60d21b60648201526084016108a5565b600080846001600160a01b031684604051613d8d9190615013565b600060405180830381855af49150503d8060008114613dc8576040519150601f19603f3d011682016040523d82523d6000602084013e613dcd565b606091505b5091509150613df582826040518060600160405280602781526020016151ca602791396142e0565b95945050505050565b81516000908190815b81811015613e4d5784868281518110613e2257613e22614e05565b60200260200101511415613e3d57925060019150613e579050565b613e4681614e31565b9050613e07565b5060008092509250505b9250929050565b6000613e698261150d565b9050613e7781600084613427565b613e8260008361282b565b6001600160a01b0381166000908152606860205260408120805460019290613eab908490614fe3565b909155505060008281526067602052604080822080546001600160a01b0319169055518391906001600160a01b038416907fddf252ad1be2c89b69c2b068fc378daa952ba7f163c4a11628f55a4df523b3ef908390a45050565b6001600160a01b038216613f5b5760405162461bcd60e51b815260206004820181905260248201527f4552433732313a206d696e7420746f20746865207a65726f206164647265737360448201526064016108a5565b6000818152606760205260409020546001600160a01b031615613fc05760405162461bcd60e51b815260206004820152601c60248201527f4552433732313a20746f6b656e20616c7265616479206d696e7465640000000060448201526064016108a5565b613fcc60008383613427565b6001600160a01b0382166000908152606860205260408120805460019290613ff5908490614e4c565b909155505060008181526067602052604080822080546001600160a01b0319166001600160a01b03861690811790915590518392907fddf252ad1be2c89b69c2b068fc378daa952ba7f163c4a11628f55a4df523b3ef908290a45050565b6060816140775750506040805180820190915260018152600360fc1b602082015290565b8160005b81156140a1578061408b81614e31565b915061409a9050600a83615181565b915061407b565b6000816001600160401b038111156140bb576140bb614612565b6040519080825280601f01601f1916602001820160405280156140e5576020820181803683370190505b5090505b8415612b80576140fa600183614fe3565b9150614107600a86615195565b614112906030614e4c565b60f81b81838151811061412757614127614e05565b60200101906001600160f81b031916908160001a905350614149600a86615181565b94506140e9565b6000600161415d8461156d565b6141679190614fe3565b6000838152609860205260409020549091508082146141ba576001600160a01b03841660009081526097602090815260408083208584528252808320548484528184208190558352609890915290208190555b5060009182526098602090815260408084208490556001600160a01b039094168352609781528383209183525290812055565b6099546000906141ff90600190614fe3565b6000838152609a60205260408120546099805493945090928490811061422757614227614e05565b90600052602060002001549050806099838154811061424857614248614e05565b6000918252602080832090910192909255828152609a90915260408082208490558582528120556099805480614280576142806150fb565b6001900381819060005260206000200160009055905550505050565b60006142a78361156d565b6001600160a01b039093166000908152609760209081526040808320868452825280832085905593825260989052919091209190915550565b606083156142ef575081610a8d565b8251156142ff5782518084602001fd5b8160405162461bcd60e51b81526004016108a591906144ec565b82805461432590614bec565b90600052602060002090601f016020900481019282614347576000855561438d565b82601f1061436057805160ff191683800117855561438d565b8280016001018555821561438d579182015b8281111561438d578251825591602001919060010190614372565b5061439992915061444c565b5090565b604080516101c0810190915260008082526020820190815260200160008152602001600081526020016000815260200160008152602001606081526020016000815260200160008152602001600081526020016060815260200160006001600160a01b0316815260200160008152602001600081525090565b50805461442290614bec565b6000825580601f10614432575050565b601f016020900490600052602060002090810190610d5291905b5b80821115614399576000815560010161444d565b6001600160e01b031981168114610d5257600080fd5b60006020828403121561448957600080fd5b8135610a8d81614461565b60005b838110156144af578181015183820152602001614497565b83811115611c795750506000910152565b600081518084526144d8816020860160208601614494565b601f01601f19169290920160200192915050565b602081526000610a8d60208301846144c0565b60006020828403121561451157600080fd5b5035919050565b6001600160a01b0381168114610d5257600080fd5b6000806040838503121561454057600080fd5b823561454b81614518565b946020939093013593505050565b60008060006060848603121561456e57600080fd5b8335925060208401359150604084013561458781614518565b809150509250925092565b6000806000606084860312156145a757600080fd5b83356145b281614518565b925060208401356145c281614518565b929592945050506040919091013590565b6000602082840312156145e557600080fd5b8135610a8d81614518565b60408152600061460360408301856144c0565b90508260208301529392505050565b634e487b7160e01b600052604160045260246000fd5b604051601f8201601f191681016001600160401b038111828210171561465057614650614612565b604052919050565b60006001600160401b0382111561467157614671614612565b5060051b60200190565b600082601f83011261468c57600080fd5b813560206146a161469c83614658565b614628565b82815260059290921b840181019181810190868411156146c057600080fd5b8286015b848110156146db57803583529183019183016146c4565b509695505050505050565b6000806000606084860312156146fb57600080fd5b8335925060208401356001600160401b0381111561471857600080fd5b6147248682870161467b565b925050604084013561458781614518565b60006001600160401b0382111561474e5761474e614612565b50601f01601f191660200190565b600082601f83011261476d57600080fd5b813561477b61469c82614735565b81815284602083860101111561479057600080fd5b816020850160208301376000918101602001919091529392505050565b600080604083850312156147c057600080fd5b82356147cb81614518565b915060208301356001600160401b038111156147e657600080fd5b6147f28582860161475c565b9150509250929050565b60006020828403121561480e57600080fd5b81356001600160401b0381111561482457600080fd5b612b808482850161467b565b634e487b7160e01b600052602160045260246000fd5b6004811061486457634e487b7160e01b600052602160045260246000fd5b9052565b60006101c08251845260208301516148836020860182614846565b5060408301516040850152606083015160608501526080830151608085015260a083015160a085015260c08301518160c08601526148c3828601826144c0565b91505060e083015160e0850152610100808401518186015250610120808401518186015250610140808401518583038287015261490083826144c0565b925050506101608084015161491f828701826001600160a01b03169052565b505061018083810151908501526101a09283015192909301919091525090565b600081518084526020808501808196508360051b8101915082860160005b85811015614987578284038952614975848351614868565b9885019893509084019060010161495d565b5091979650505050505050565b602081526000610a8d602083018461493f565b6060815260006149ba6060830186614868565b602083019490945250901515604090910152919050565b600080604083850312156149e457600080fd5b82356149ef81614518565b915060208301358015158114614a0457600080fd5b809150509250929050565b60008060008060808587031215614a2557600080fd5b8435614a3081614518565b93506020850135614a4081614518565b92506040850135915060608501356001600160401b03811115614a6257600080fd5b614a6e8782880161475c565b91505092959194509250565b600081518084526020808501945080840160005b83811015614aaa57815187529582019590820190600101614a8e565b509495945050505050565b602081526000610a8d6020830184614a7a565b803560ff81168114614ad957600080fd5b919050565b60008060008060808587031215614af457600080fd5b84359350614b0460208601614ac8565b925060408501356001600160401b0380821115614b2057600080fd5b614b2c8883890161475c565b93506060870135915080821115614b4257600080fd5b50614a6e8782880161475c565b828152604060208201526000612b80604083018461493f565b600080600060608486031215614b7d57600080fd5b83359250614b8d60208501614ac8565b915060408401356001600160401b03811115614ba857600080fd5b614bb48682870161475c565b9150509250925092565b60008060408385031215614bd157600080fd5b8235614bdc81614518565b91506020830135614a0481614518565b600181811c90821680614c0057607f821691505b60208210811415612f5957634e487b7160e01b600052602260045260246000fd5b600060208284031215614c3357600080fd5b8151610a8d81614518565b6020808252602e908201527f4552433732313a2063616c6c6572206973206e6f7420746f6b656e206f776e6560408201526d1c881b9bdc88185c1c1c9bdd995960921b606082015260800190565b6020808252602c908201527f46756e6374696f6e206d7573742062652063616c6c6564207468726f7567682060408201526b19195b1959d85d1958d85b1b60a21b606082015260800190565b6020808252602c908201527f46756e6374696f6e206d7573742062652063616c6c6564207468726f7567682060408201526b6163746976652070726f787960a01b606082015260800190565b600060208284031215614d3657600080fd5b81516001600160401b03811115614d4c57600080fd5b8201601f81018413614d5d57600080fd5b8051614d6b61469c82614735565b818152856020838501011115614d8057600080fd5b613df5826020830160208601614494565b6001600160a01b0384168152606060208201819052600090614db590830185614a7a565b9050826040830152949350505050565b600080600080600060a08688031215614ddd57600080fd5b5050835160208501516040860151606087015160809097015192989197509594509092509050565b634e487b7160e01b600052603260045260246000fd5b634e487b7160e01b600052601160045260246000fd5b6000600019821415614e4557614e45614e1b565b5060010190565b60008219821115614e5f57614e5f614e1b565b500190565b84815260ff8416602082015260a06040820152600860a0820152676d6f6e737465727360c01b60c082015260e060608201526000614ea560e08301856144c0565b8281036080840152614eb781856144c0565b979650505050505050565b600082601f830112614ed357600080fd5b81516020614ee361469c83614658565b82815260059290921b84018101918181019086841115614f0257600080fd5b8286015b848110156146db5780518352918301918301614f06565b60008060408385031215614f3057600080fd5b8251915060208301516001600160401b03811115614f4d57600080fd5b6147f285828601614ec2565b84815260ff84166020820152608060408201526000614f7b60808301856144c0565b905060018060a01b038316606083015295945050505050565b600080600060608486031215614fa957600080fd5b83516001600160401b03811115614fbf57600080fd5b614fcb86828701614ec2565b93505060208401519150604084015190509250925092565b600082821015614ff557614ff5614e1b565b500390565b60006020828403121561500c57600080fd5b5051919050565b60008251615025818460208701614494565b9190910192915050565b60208082526032908201527f4552433732313a207472616e7366657220746f206e6f6e20455243373231526560408201527131b2b4bb32b91034b6b83632b6b2b73a32b960711b606082015260800190565b6020808252602b908201527f496e697469616c697a61626c653a20636f6e7472616374206973206e6f74206960408201526a6e697469616c697a696e6760a81b606082015260800190565b600083516150de818460208801614494565b8351908301906150f2818360208801614494565b01949350505050565b634e487b7160e01b600052603160045260246000fd5b6001600160a01b0385811682528416602082015260408101839052608060608201819052600090615144908301846144c0565b9695505050505050565b60006020828403121561516057600080fd5b8151610a8d81614461565b634e487b7160e01b600052601260045260246000fd5b6000826151905761519061516b565b500490565b6000826151a4576151a461516b565b50069056fe360894a13ba1a3210667c828492db98dca3e2076cc3735a920a3ca505d382bbc416464726573733a206c6f772d6c6576656c2064656c65676174652063616c6c206661696c6564a2646970667358221220b2d83bdbf513b386a664633986da5ab1377519f54878d63f2d297f9f893eb00a64736f6c634300080c0033",
  "linkReferences": {},
  "deployedLinkReferences": {}
}