{
  "_format": "hh-sol-artifact-1",
  "contractName": "MonsterNFTHelperContract",
  "sourceName": "src/backend/contracts/MonsterNFTHelper.sol",
  "abi": [
    {
      "inputs": [],
      "stateMutability": "nonpayable",
      "type": "constructor"
    },
    {
      "anonymous": false,
      "inputs": [
        {
          "indexed": false,
          "internalType": "address",
          "name": "previousAdmin",
          "type": "address"
        },
        {
          "indexed": false,
          "internalType": "address",
          "name": "newAdmin",
          "type": "address"
        }
      ],
      "name": "AdminChanged",
      "type": "event"
    },
    {
      "anonymous": false,
      "inputs": [
        {
          "indexed": true,
          "internalType": "address",
          "name": "beacon",
          "type": "address"
        }
      ],
      "name": "BeaconUpgraded",
      "type": "event"
    },
    {
      "anonymous": false,
      "inputs": [
        {
          "indexed": false,
          "internalType": "uint8",
          "name": "version",
          "type": "uint8"
        }
      ],
      "name": "Initialized",
      "type": "event"
    },
    {
      "anonymous": false,
      "inputs": [
        {
          "indexed": true,
          "internalType": "address",
          "name": "previousOwner",
          "type": "address"
        },
        {
          "indexed": true,
          "internalType": "address",
          "name": "newOwner",
          "type": "address"
        }
      ],
      "name": "OwnershipTransferred",
      "type": "event"
    },
    {
      "anonymous": false,
      "inputs": [
        {
          "indexed": true,
          "internalType": "address",
          "name": "implementation",
          "type": "address"
        }
      ],
      "name": "Upgraded",
      "type": "event"
    },
    {
      "inputs": [
        {
          "internalType": "uint256",
          "name": "_page",
          "type": "uint256"
        },
        {
          "internalType": "uint256",
          "name": "_count",
          "type": "uint256"
        },
        {
          "internalType": "string",
          "name": "_rarityFilter",
          "type": "string"
        },
        {
          "internalType": "address",
          "name": "_owner",
          "type": "address"
        }
      ],
      "name": "getPageIdList",
      "outputs": [
        {
          "internalType": "uint256[]",
          "name": "",
          "type": "uint256[]"
        },
        {
          "internalType": "uint256",
          "name": "",
          "type": "uint256"
        },
        {
          "internalType": "uint256",
          "name": "",
          "type": "uint256"
        }
      ],
      "stateMutability": "view",
      "type": "function"
    },
    {
      "inputs": [
        {
          "internalType": "address",
          "name": "_mainContract",
          "type": "address"
        }
      ],
      "name": "initialize",
      "outputs": [],
      "stateMutability": "nonpayable",
      "type": "function"
    },
    {
      "inputs": [],
      "name": "owner",
      "outputs": [
        {
          "internalType": "address",
          "name": "",
          "type": "address"
        }
      ],
      "stateMutability": "view",
      "type": "function"
    },
    {
      "inputs": [],
      "name": "proxiableUUID",
      "outputs": [
        {
          "internalType": "bytes32",
          "name": "",
          "type": "bytes32"
        }
      ],
      "stateMutability": "view",
      "type": "function"
    },
    {
      "inputs": [],
      "name": "renounceOwnership",
      "outputs": [],
      "stateMutability": "nonpayable",
      "type": "function"
    },
    {
      "inputs": [
        {
          "internalType": "address",
          "name": "newOwner",
          "type": "address"
        }
      ],
      "name": "transferOwnership",
      "outputs": [],
      "stateMutability": "nonpayable",
      "type": "function"
    },
    {
      "inputs": [
        {
          "internalType": "address",
          "name": "newImplementation",
          "type": "address"
        }
      ],
      "name": "upgradeTo",
      "outputs": [],
      "stateMutability": "nonpayable",
      "type": "function"
    },
    {
      "inputs": [
        {
          "internalType": "address",
          "name": "newImplementation",
          "type": "address"
        },
        {
          "internalType": "bytes",
          "name": "data",
          "type": "bytes"
        }
      ],
      "name": "upgradeToAndCall",
      "outputs": [],
      "stateMutability": "payable",
      "type": "function"
    }
  ],
  "bytecode": "0x60a06040523060805234801561001457600080fd5b5061001d610022565b6100e2565b600054610100900460ff161561008e5760405162461bcd60e51b815260206004820152602760248201527f496e697469616c697a61626c653a20636f6e747261637420697320696e697469604482015266616c697a696e6760c81b606482015260840160405180910390fd5b60005460ff90811610156100e0576000805460ff191660ff9081179091556040519081527f7f26b83ff96e1f2b6a682f133852f6798a09c465da95921460cefb38474024989060200160405180910390a15b565b60805161156a6101196000396000818161053901528181610582015281816106220152818161066201526106f5015261156a6000f3fe60806040526004361061007b5760003560e01c8063715018a61161004e578063715018a6146101105780638da5cb5b14610125578063c4d66de81461014d578063f2fde38b1461016d57600080fd5b8063308ac220146100805780633659cfe6146100b85780634f1ef286146100da57806352d1902d146100ed575b600080fd5b34801561008c57600080fd5b506100a061009b3660046110b3565b61018d565b6040516100af9392919061112a565b60405180910390f35b3480156100c457600080fd5b506100d86100d3366004611177565b61052e565b005b6100d86100e8366004611194565b610617565b3480156100f957600080fd5b506101026106e8565b6040519081526020016100af565b34801561011c57600080fd5b506100d861079b565b34801561013157600080fd5b506033546040516001600160a01b0390911681526020016100af565b34801561015957600080fd5b506100d8610168366004611177565b6107af565b34801561017957600080fd5b506100d8610188366004611177565b6108e3565b6060600080600060c960009054906101000a90046001600160a01b03166001600160a01b031663f095821f6040518163ffffffff1660e01b8152600401602060405180830381865afa1580156101e7573d6000803e3d6000fd5b505050506040513d601f19601f8201168201806040525081019061020b91906111f8565b9050600060c960009054906101000a90046001600160a01b03166001600160a01b03166342104fac6040518163ffffffff1660e01b8152600401602060405180830381865afa158015610262573d6000803e3d6000fd5b505050506040513d601f19601f8201168201806040525081019061028691906111f8565b905060008867ffffffffffffffff8111156102a3576102a3610fff565b6040519080825280602002602001820160405280156102cc578160200160208202803683370190505b509050600080895160001461036e57604051636bec6f4960e11b81526000906001600160a01b0387169063d7d8de929061030c908d908f9060040161126d565b600060405180830381865afa158015610329573d6000803e3d6000fd5b505050506040513d6000823e601f3d908101601f191682016040526103519190810190611299565b90506103608182518f8f610959565b9195509350915061051c9050565b6040516370a0823160e01b81526001600160a01b038a811660048301528616906370a0823190602401602060405180830381865afa1580156103b4573d6000803e3d6000fd5b505050506040513d601f19601f820116820180604052508101906103d8919061133f565b60405163293e4b8b60e11b8152600481018e9052602481018d90526044810182905290915060009081906001600160a01b0387169063527c9716906064016040805180830381865afa158015610432573d6000803e3d6000fd5b505050506040513d601f19601f820116820180604052508101906104569190611358565b9092509050805b828111610518578084111561050857604051632f745c5960e01b81526001600160a01b038d8116600483015260248201839052891690632f745c5990604401602060405180830381865afa1580156104b9573d6000803e3d6000fd5b505050506040513d601f19601f820116820180604052508101906104dd919061133f565b8686815181106104ef576104ef61137c565b60209081029190910101526105056001866113a8565b94505b610511816113c0565b905061045d565b5050505b919b909a509098509650505050505050565b306001600160a01b037f00000000000000000000000000000000000000000000000000000000000000001614156105805760405162461bcd60e51b8152600401610577906113db565b60405180910390fd5b7f00000000000000000000000000000000000000000000000000000000000000006001600160a01b03166105c96000805160206114ee833981519152546001600160a01b031690565b6001600160a01b0316146105ef5760405162461bcd60e51b815260040161057790611427565b6105f881610b1a565b6040805160008082526020820190925261061491839190610b22565b50565b306001600160a01b037f00000000000000000000000000000000000000000000000000000000000000001614156106605760405162461bcd60e51b8152600401610577906113db565b7f00000000000000000000000000000000000000000000000000000000000000006001600160a01b03166106a96000805160206114ee833981519152546001600160a01b031690565b6001600160a01b0316146106cf5760405162461bcd60e51b815260040161057790611427565b6106d882610b1a565b6106e482826001610b22565b5050565b6000306001600160a01b037f000000000000000000000000000000000000000000000000000000000000000016146107885760405162461bcd60e51b815260206004820152603860248201527f555550535570677261646561626c653a206d757374206e6f742062652063616c60448201527f6c6564207468726f7567682064656c656761746563616c6c00000000000000006064820152608401610577565b506000805160206114ee83398151915290565b6107a3610c92565b6107ad6000610cec565b565b600054610100900460ff16158080156107cf5750600054600160ff909116105b806107e95750303b1580156107e9575060005460ff166001145b61084c5760405162461bcd60e51b815260206004820152602e60248201527f496e697469616c697a61626c653a20636f6e747261637420697320616c72656160448201526d191e481a5b9a5d1a585b1a5e995960921b6064820152608401610577565b6000805460ff19166001179055801561086f576000805461ff0019166101001790555b610877610d3e565b61087f610d6d565b60c980546001600160a01b0319166001600160a01b03841617905580156106e4576000805461ff0019169055604051600181527f7f26b83ff96e1f2b6a682f133852f6798a09c465da95921460cefb38474024989060200160405180910390a15050565b6108eb610c92565b6001600160a01b0381166109505760405162461bcd60e51b815260206004820152602660248201527f4f776e61626c653a206e6577206f776e657220697320746865207a65726f206160448201526564647265737360d01b6064820152608401610577565b61061481610cec565b60606000806000808567ffffffffffffffff81111561097a5761097a610fff565b6040519080825280602002602001820160405280156109a3578160200160208202803683370190505b509050600060c960009054906101000a90046001600160a01b03166001600160a01b03166342104fac6040518163ffffffff1660e01b8152600401602060405180830381865afa1580156109fb573d6000803e3d6000fd5b505050506040513d601f19601f82011682018060405250810190610a1f91906111f8565b60405163293e4b8b60e11b8152600481018a905260248101899052604481018b905290915060009081906001600160a01b0384169063527c9716906064016040805180830381865afa158015610a79573d6000803e3d6000fd5b505050506040513d601f19601f82011682018060405250810190610a9d9190611358565b9092509050805b828111610b0857808c1115610af8578c8181518110610ac557610ac561137c565b6020026020010151858781518110610adf57610adf61137c565b6020908102919091010152610af56001876113a8565b95505b610b01816113c0565b9050610aa4565b50929b939a5092975050505050505050565b610614610c92565b7f4910fdfa16fed3260ed0e7147f7cc6da11a60208b5b9406d12a635614ffd91435460ff1615610b5a57610b5583610d94565b505050565b826001600160a01b03166352d1902d6040518163ffffffff1660e01b8152600401602060405180830381865afa925050508015610bb4575060408051601f3d908101601f19168201909252610bb19181019061133f565b60015b610c175760405162461bcd60e51b815260206004820152602e60248201527f45524331393637557067726164653a206e657720696d706c656d656e7461746960448201526d6f6e206973206e6f74205555505360901b6064820152608401610577565b6000805160206114ee8339815191528114610c865760405162461bcd60e51b815260206004820152602960248201527f45524331393637557067726164653a20756e737570706f727465642070726f786044820152681a58589b195555525160ba1b6064820152608401610577565b50610b55838383610e30565b6033546001600160a01b031633146107ad5760405162461bcd60e51b815260206004820181905260248201527f4f776e61626c653a2063616c6c6572206973206e6f7420746865206f776e65726044820152606401610577565b603380546001600160a01b038381166001600160a01b0319831681179093556040519116919082907f8be0079c531659141344cd1fd0a4f28419497f9722a3daafe3b4186f6b6457e090600090a35050565b600054610100900460ff16610d655760405162461bcd60e51b815260040161057790611473565b6107ad610e5b565b600054610100900460ff166107ad5760405162461bcd60e51b815260040161057790611473565b6001600160a01b0381163b610e015760405162461bcd60e51b815260206004820152602d60248201527f455243313936373a206e657720696d706c656d656e746174696f6e206973206e60448201526c1bdd08184818dbdb9d1c9858dd609a1b6064820152608401610577565b6000805160206114ee83398151915280546001600160a01b0319166001600160a01b0392909216919091179055565b610e3983610e8b565b600082511180610e465750805b15610b5557610e558383610ecb565b50505050565b600054610100900460ff16610e825760405162461bcd60e51b815260040161057790611473565b6107ad33610cec565b610e9481610d94565b6040516001600160a01b038216907fbc7cd75a20ee27fd9adebab32041f755214dbc6bffa90cc0225b39da2e5c2d3b90600090a250565b60606001600160a01b0383163b610f335760405162461bcd60e51b815260206004820152602660248201527f416464726573733a2064656c65676174652063616c6c20746f206e6f6e2d636f6044820152651b9d1c9858dd60d21b6064820152608401610577565b600080846001600160a01b031684604051610f4e91906114be565b600060405180830381855af49150503d8060008114610f89576040519150601f19603f3d011682016040523d82523d6000602084013e610f8e565b606091505b5091509150610fb6828260405180606001604052806027815260200161150e60279139610fbf565b95945050505050565b60608315610fce575081610ff8565b825115610fde5782518084602001fd5b8160405162461bcd60e51b815260040161057791906114da565b9392505050565b634e487b7160e01b600052604160045260246000fd5b604051601f8201601f1916810167ffffffffffffffff8111828210171561103e5761103e610fff565b604052919050565b600067ffffffffffffffff83111561106057611060610fff565b611073601f8401601f1916602001611015565b905082815283838301111561108757600080fd5b828260208301376000602084830101529392505050565b6001600160a01b038116811461061457600080fd5b600080600080608085870312156110c957600080fd5b8435935060208501359250604085013567ffffffffffffffff8111156110ee57600080fd5b8501601f810187136110ff57600080fd5b61110e87823560208401611046565b925050606085013561111f8161109e565b939692955090935050565b606080825284519082018190526000906020906080840190828801845b8281101561116357815184529284019290840190600101611147565b505050908301949094525060400152919050565b60006020828403121561118957600080fd5b8135610ff88161109e565b600080604083850312156111a757600080fd5b82356111b28161109e565b9150602083013567ffffffffffffffff8111156111ce57600080fd5b8301601f810185136111df57600080fd5b6111ee85823560208401611046565b9150509250929050565b60006020828403121561120a57600080fd5b8151610ff88161109e565b60005b83811015611230578181015183820152602001611218565b83811115610e555750506000910152565b60008151808452611259816020860160208601611215565b601f01601f19169290920160200192915050565b6001600160a01b038316815260406020820181905260009061129190830184611241565b949350505050565b600060208083850312156112ac57600080fd5b825167ffffffffffffffff808211156112c457600080fd5b818501915085601f8301126112d857600080fd5b8151818111156112ea576112ea610fff565b8060051b91506112fb848301611015565b818152918301840191848101908884111561131557600080fd5b938501935b838510156113335784518252938501939085019061131a565b98975050505050505050565b60006020828403121561135157600080fd5b5051919050565b6000806040838503121561136b57600080fd5b505080516020909101519092909150565b634e487b7160e01b600052603260045260246000fd5b634e487b7160e01b600052601160045260246000fd5b600082198211156113bb576113bb611392565b500190565b60006000198214156113d4576113d4611392565b5060010190565b6020808252602c908201527f46756e6374696f6e206d7573742062652063616c6c6564207468726f7567682060408201526b19195b1959d85d1958d85b1b60a21b606082015260800190565b6020808252602c908201527f46756e6374696f6e206d7573742062652063616c6c6564207468726f7567682060408201526b6163746976652070726f787960a01b606082015260800190565b6020808252602b908201527f496e697469616c697a61626c653a20636f6e7472616374206973206e6f74206960408201526a6e697469616c697a696e6760a81b606082015260800190565b600082516114d0818460208701611215565b9190910192915050565b602081526000610ff8602083018461124156fe360894a13ba1a3210667c828492db98dca3e2076cc3735a920a3ca505d382bbc416464726573733a206c6f772d6c6576656c2064656c65676174652063616c6c206661696c6564a26469706673582212204b7539f17c8806d04b5db80c348b23fa628b93a12860126df189a27f65ac800164736f6c634300080c0033",
  "linkReferences": {},
  "deployedLinkReferences": {}
}