{
  "_format": "hh-sol-artifact-1",
  "contractName": "NftLand",
  "sourceName": "src/backend/contracts/NftLand.sol",
  "abi": [
    {
      "inputs": [
        {
          "internalType": "address",
          "name": "_contractMain",
          "type": "address"
        }
      ],
      "stateMutability": "nonpayable",
      "type": "constructor"
    },
    {
      "anonymous": false,
      "inputs": [
        {
          "indexed": true,
          "internalType": "address",
          "name": "owner",
          "type": "address"
        },
        {
          "indexed": true,
          "internalType": "address",
          "name": "approved",
          "type": "address"
        },
        {
          "indexed": true,
          "internalType": "uint256",
          "name": "tokenId",
          "type": "uint256"
        }
      ],
      "name": "Approval",
      "type": "event"
    },
    {
      "anonymous": false,
      "inputs": [
        {
          "indexed": true,
          "internalType": "address",
          "name": "owner",
          "type": "address"
        },
        {
          "indexed": true,
          "internalType": "address",
          "name": "operator",
          "type": "address"
        },
        {
          "indexed": false,
          "internalType": "bool",
          "name": "approved",
          "type": "bool"
        }
      ],
      "name": "ApprovalForAll",
      "type": "event"
    },
    {
      "anonymous": false,
      "inputs": [
        {
          "indexed": true,
          "internalType": "address",
          "name": "previousOwner",
          "type": "address"
        },
        {
          "indexed": true,
          "internalType": "address",
          "name": "newOwner",
          "type": "address"
        }
      ],
      "name": "OwnershipTransferred",
      "type": "event"
    },
    {
      "anonymous": false,
      "inputs": [
        {
          "indexed": true,
          "internalType": "address",
          "name": "from",
          "type": "address"
        },
        {
          "indexed": true,
          "internalType": "address",
          "name": "to",
          "type": "address"
        },
        {
          "indexed": true,
          "internalType": "uint256",
          "name": "tokenId",
          "type": "uint256"
        }
      ],
      "name": "Transfer",
      "type": "event"
    },
    {
      "inputs": [
        {
          "internalType": "address",
          "name": "to",
          "type": "address"
        },
        {
          "internalType": "uint256",
          "name": "tokenId",
          "type": "uint256"
        }
      ],
      "name": "approve",
      "outputs": [],
      "stateMutability": "nonpayable",
      "type": "function"
    },
    {
      "inputs": [
        {
          "internalType": "address",
          "name": "owner",
          "type": "address"
        }
      ],
      "name": "balanceOf",
      "outputs": [
        {
          "internalType": "uint256",
          "name": "",
          "type": "uint256"
        }
      ],
      "stateMutability": "view",
      "type": "function"
    },
    {
      "inputs": [
        {
          "internalType": "uint256",
          "name": "tokenId",
          "type": "uint256"
        }
      ],
      "name": "burn",
      "outputs": [],
      "stateMutability": "nonpayable",
      "type": "function"
    },
    {
      "inputs": [
        {
          "internalType": "uint256",
          "name": "tokenId",
          "type": "uint256"
        }
      ],
      "name": "getApproved",
      "outputs": [
        {
          "internalType": "address",
          "name": "",
          "type": "address"
        }
      ],
      "stateMutability": "view",
      "type": "function"
    },
    {
      "inputs": [
        {
          "internalType": "address",
          "name": "owner",
          "type": "address"
        },
        {
          "internalType": "address",
          "name": "operator",
          "type": "address"
        }
      ],
      "name": "isApprovedForAll",
      "outputs": [
        {
          "internalType": "bool",
          "name": "",
          "type": "bool"
        }
      ],
      "stateMutability": "view",
      "type": "function"
    },
    {
      "inputs": [],
      "name": "name",
      "outputs": [
        {
          "internalType": "string",
          "name": "",
          "type": "string"
        }
      ],
      "stateMutability": "view",
      "type": "function"
    },
    {
      "inputs": [],
      "name": "owner",
      "outputs": [
        {
          "internalType": "address",
          "name": "",
          "type": "address"
        }
      ],
      "stateMutability": "view",
      "type": "function"
    },
    {
      "inputs": [
        {
          "internalType": "uint256",
          "name": "tokenId",
          "type": "uint256"
        }
      ],
      "name": "ownerOf",
      "outputs": [
        {
          "internalType": "address",
          "name": "",
          "type": "address"
        }
      ],
      "stateMutability": "view",
      "type": "function"
    },
    {
      "inputs": [],
      "name": "renounceOwnership",
      "outputs": [],
      "stateMutability": "nonpayable",
      "type": "function"
    },
    {
      "inputs": [
        {
          "internalType": "address",
          "name": "to",
          "type": "address"
        },
        {
          "internalType": "string",
          "name": "uri",
          "type": "string"
        }
      ],
      "name": "safeMint",
      "outputs": [],
      "stateMutability": "nonpayable",
      "type": "function"
    },
    {
      "inputs": [
        {
          "internalType": "address",
          "name": "from",
          "type": "address"
        },
        {
          "internalType": "address",
          "name": "to",
          "type": "address"
        },
        {
          "internalType": "uint256",
          "name": "tokenId",
          "type": "uint256"
        }
      ],
      "name": "safeTransferFrom",
      "outputs": [],
      "stateMutability": "nonpayable",
      "type": "function"
    },
    {
      "inputs": [
        {
          "internalType": "address",
          "name": "from",
          "type": "address"
        },
        {
          "internalType": "address",
          "name": "to",
          "type": "address"
        },
        {
          "internalType": "uint256",
          "name": "tokenId",
          "type": "uint256"
        },
        {
          "internalType": "bytes",
          "name": "_data",
          "type": "bytes"
        }
      ],
      "name": "safeTransferFrom",
      "outputs": [],
      "stateMutability": "nonpayable",
      "type": "function"
    },
    {
      "inputs": [
        {
          "internalType": "address",
          "name": "operator",
          "type": "address"
        },
        {
          "internalType": "bool",
          "name": "approved",
          "type": "bool"
        }
      ],
      "name": "setApprovalForAll",
      "outputs": [],
      "stateMutability": "nonpayable",
      "type": "function"
    },
    {
      "inputs": [
        {
          "internalType": "bytes4",
          "name": "interfaceId",
          "type": "bytes4"
        }
      ],
      "name": "supportsInterface",
      "outputs": [
        {
          "internalType": "bool",
          "name": "",
          "type": "bool"
        }
      ],
      "stateMutability": "view",
      "type": "function"
    },
    {
      "inputs": [],
      "name": "symbol",
      "outputs": [
        {
          "internalType": "string",
          "name": "",
          "type": "string"
        }
      ],
      "stateMutability": "view",
      "type": "function"
    },
    {
      "inputs": [
        {
          "internalType": "uint256",
          "name": "index",
          "type": "uint256"
        }
      ],
      "name": "tokenByIndex",
      "outputs": [
        {
          "internalType": "uint256",
          "name": "",
          "type": "uint256"
        }
      ],
      "stateMutability": "view",
      "type": "function"
    },
    {
      "inputs": [
        {
          "internalType": "address",
          "name": "owner",
          "type": "address"
        },
        {
          "internalType": "uint256",
          "name": "index",
          "type": "uint256"
        }
      ],
      "name": "tokenOfOwnerByIndex",
      "outputs": [
        {
          "internalType": "uint256",
          "name": "",
          "type": "uint256"
        }
      ],
      "stateMutability": "view",
      "type": "function"
    },
    {
      "inputs": [
        {
          "internalType": "uint256",
          "name": "tokenId",
          "type": "uint256"
        }
      ],
      "name": "tokenURI",
      "outputs": [
        {
          "internalType": "string",
          "name": "",
          "type": "string"
        }
      ],
      "stateMutability": "view",
      "type": "function"
    },
    {
      "inputs": [],
      "name": "totalSupply",
      "outputs": [
        {
          "internalType": "uint256",
          "name": "",
          "type": "uint256"
        }
      ],
      "stateMutability": "view",
      "type": "function"
    },
    {
      "inputs": [
        {
          "internalType": "address",
          "name": "from",
          "type": "address"
        },
        {
          "internalType": "address",
          "name": "to",
          "type": "address"
        },
        {
          "internalType": "uint256",
          "name": "tokenId",
          "type": "uint256"
        }
      ],
      "name": "transferFrom",
      "outputs": [],
      "stateMutability": "nonpayable",
      "type": "function"
    },
    {
      "inputs": [
        {
          "internalType": "address",
          "name": "newOwner",
          "type": "address"
        }
      ],
      "name": "transferOwnership",
      "outputs": [],
      "stateMutability": "nonpayable",
      "type": "function"
    }
  ],
  "bytecode": "0x60806040523480156200001157600080fd5b5060405162003fce38038062003fce8339818101604052810190620000379190620002d4565b6040518060400160405280600781526020017f4e46544c616e64000000000000000000000000000000000000000000000000008152506040518060400160405280600381526020017f4c4e4400000000000000000000000000000000000000000000000000000000008152508160009080519060200190620000bb9291906200020d565b508060019080519060200190620000d49291906200020d565b505050620000f7620000eb6200013f60201b60201c565b6200014760201b60201c565b80600d60006101000a81548173ffffffffffffffffffffffffffffffffffffffff021916908373ffffffffffffffffffffffffffffffffffffffff16021790555050620003b3565b600033905090565b6000600b60009054906101000a900473ffffffffffffffffffffffffffffffffffffffff16905081600b60006101000a81548173ffffffffffffffffffffffffffffffffffffffff021916908373ffffffffffffffffffffffffffffffffffffffff1602179055508173ffffffffffffffffffffffffffffffffffffffff168173ffffffffffffffffffffffffffffffffffffffff167f8be0079c531659141344cd1fd0a4f28419497f9722a3daafe3b4186f6b6457e060405160405180910390a35050565b8280546200021b9062000334565b90600052602060002090601f0160209004810192826200023f57600085556200028b565b82601f106200025a57805160ff19168380011785556200028b565b828001600101855582156200028b579182015b828111156200028a5782518255916020019190600101906200026d565b5b5090506200029a91906200029e565b5090565b5b80821115620002b95760008160009055506001016200029f565b5090565b600081519050620002ce8162000399565b92915050565b600060208284031215620002e757600080fd5b6000620002f784828501620002bd565b91505092915050565b60006200030d8262000314565b9050919050565b600073ffffffffffffffffffffffffffffffffffffffff82169050919050565b600060028204905060018216806200034d57607f821691505b602082108114156200036457620003636200036a565b5b50919050565b7f4e487b7100000000000000000000000000000000000000000000000000000000600052602260045260246000fd5b620003a48162000300565b8114620003b057600080fd5b50565b613c0b80620003c36000396000f3fe608060405234801561001057600080fd5b50600436106101375760003560e01c80636352211e116100b8578063a22cb4651161007c578063a22cb4651461034e578063b88d4fde1461036a578063c87b56dd14610386578063d204c45e146103b6578063e985e9c5146103d2578063f2fde38b1461040257610137565b80636352211e146102a857806370a08231146102d8578063715018a6146103085780638da5cb5b1461031257806395d89b411461033057610137565b806323b872dd116100ff57806323b872dd146101f45780632f745c591461021057806342842e0e1461024057806342966c681461025c5780634f6ccce71461027857610137565b806301ffc9a71461013c57806306fdde031461016c578063081812fc1461018a578063095ea7b3146101ba57806318160ddd146101d6575b600080fd5b61015660048036038101906101519190612998565b61041e565b6040516101639190612e70565b60405180910390f35b610174610430565b6040516101819190612e8b565b60405180910390f35b6101a4600480360381019061019f91906129ea565b6104c2565b6040516101b19190612e09565b60405180910390f35b6101d460048036038101906101cf919061295c565b610547565b005b6101de61065f565b6040516101eb919061316d565b60405180910390f35b61020e60048036038101906102099190612802565b61066c565b005b61022a6004803603810190610225919061295c565b6106cc565b604051610237919061316d565b60405180910390f35b61025a60048036038101906102559190612802565b610771565b005b610276600480360381019061027191906129ea565b610791565b005b610292600480360381019061028d91906129ea565b6107ed565b60405161029f919061316d565b60405180910390f35b6102c260048036038101906102bd91906129ea565b610884565b6040516102cf9190612e09565b60405180910390f35b6102f260048036038101906102ed919061279d565b610936565b6040516102ff919061316d565b60405180910390f35b6103106109ee565b005b61031a610a76565b6040516103279190612e09565b60405180910390f35b610338610aa0565b6040516103459190612e8b565b60405180910390f35b610368600480360381019061036391906128cc565b610b32565b005b610384600480360381019061037f9190612851565b610b48565b005b6103a0600480360381019061039b91906129ea565b610baa565b6040516103ad9190612e8b565b60405180910390f35b6103d060048036038101906103cb9190612908565b610bbc565b005b6103ec60048036038101906103e791906127c6565b610c84565b6040516103f99190612e70565b60405180910390f35b61041c6004803603810190610417919061279d565b610d18565b005b600061042982610e10565b9050919050565b60606000805461043f906133c3565b80601f016020809104026020016040519081016040528092919081815260200182805461046b906133c3565b80156104b85780601f1061048d576101008083540402835291602001916104b8565b820191906000526020600020905b81548152906001019060200180831161049b57829003601f168201915b5050505050905090565b60006104cd82610e8a565b61050c576040517f08c379a00000000000000000000000000000000000000000000000000000000081526004016105039061306d565b60405180910390fd5b6004600083815260200190815260200160002060009054906101000a900473ffffffffffffffffffffffffffffffffffffffff169050919050565b600061055282610884565b90508073ffffffffffffffffffffffffffffffffffffffff168373ffffffffffffffffffffffffffffffffffffffff1614156105c3576040517f08c379a00000000000000000000000000000000000000000000000000000000081526004016105ba906130cd565b60405180910390fd5b8073ffffffffffffffffffffffffffffffffffffffff166105e2610ef6565b73ffffffffffffffffffffffffffffffffffffffff16148061061157506106108161060b610ef6565b610c84565b5b610650576040517f08c379a000000000000000000000000000000000000000000000000000000000815260040161064790612fad565b60405180910390fd5b61065a8383610efe565b505050565b6000600880549050905090565b61067d610677610ef6565b82610fb7565b6106bc576040517f08c379a00000000000000000000000000000000000000000000000000000000081526004016106b3906130ed565b60405180910390fd5b6106c7838383611095565b505050565b60006106d783610936565b8210610718576040517f08c379a000000000000000000000000000000000000000000000000000000000815260040161070f90612ead565b60405180910390fd5b600660008473ffffffffffffffffffffffffffffffffffffffff1673ffffffffffffffffffffffffffffffffffffffff168152602001908152602001600020600083815260200190815260200160002054905092915050565b61078c83838360405180602001604052806000815250610b48565b505050565b6107a261079c610ef6565b82610fb7565b6107e1576040517f08c379a00000000000000000000000000000000000000000000000000000000081526004016107d89061312d565b60405180910390fd5b6107ea816112fc565b50565b60006107f761065f565b8210610838576040517f08c379a000000000000000000000000000000000000000000000000000000000815260040161082f9061310d565b60405180910390fd5b60088281548110610872577f4e487b7100000000000000000000000000000000000000000000000000000000600052603260045260246000fd5b90600052602060002001549050919050565b6000806002600084815260200190815260200160002060009054906101000a900473ffffffffffffffffffffffffffffffffffffffff169050600073ffffffffffffffffffffffffffffffffffffffff168173ffffffffffffffffffffffffffffffffffffffff16141561092d576040517f08c379a000000000000000000000000000000000000000000000000000000000815260040161092490612fed565b60405180910390fd5b80915050919050565b60008073ffffffffffffffffffffffffffffffffffffffff168273ffffffffffffffffffffffffffffffffffffffff1614156109a7576040517f08c379a000000000000000000000000000000000000000000000000000000000815260040161099e90612fcd565b60405180910390fd5b600360008373ffffffffffffffffffffffffffffffffffffffff1673ffffffffffffffffffffffffffffffffffffffff168152602001908152602001600020549050919050565b6109f6610ef6565b73ffffffffffffffffffffffffffffffffffffffff16610a14610a76565b73ffffffffffffffffffffffffffffffffffffffff1614610a6a576040517f08c379a0000000000000000000000000000000000000000000000000000000008152600401610a619061308d565b60405180910390fd5b610a746000611308565b565b6000600b60009054906101000a900473ffffffffffffffffffffffffffffffffffffffff16905090565b606060018054610aaf906133c3565b80601f0160208091040260200160405190810160405280929190818152602001828054610adb906133c3565b8015610b285780601f10610afd57610100808354040283529160200191610b28565b820191906000526020600020905b815481529060010190602001808311610b0b57829003601f168201915b5050505050905090565b610b44610b3d610ef6565b83836113ce565b5050565b610b59610b53610ef6565b83610fb7565b610b98576040517f08c379a0000000000000000000000000000000000000000000000000000000008152600401610b8f906130ed565b60405180910390fd5b610ba48484848461153b565b50505050565b6060610bb582611597565b9050919050565b610bc4610ef6565b73ffffffffffffffffffffffffffffffffffffffff16600d60009054906101000a900473ffffffffffffffffffffffffffffffffffffffff1673ffffffffffffffffffffffffffffffffffffffff1614610c53576040517f08c379a0000000000000000000000000000000000000000000000000000000008152600401610c4a9061314d565b60405180910390fd5b6000610c5f600c6116e9565b9050610c6b600c6116f7565b610c75838261170d565b610c7f818361172b565b505050565b6000600560008473ffffffffffffffffffffffffffffffffffffffff1673ffffffffffffffffffffffffffffffffffffffff16815260200190815260200160002060008373ffffffffffffffffffffffffffffffffffffffff1673ffffffffffffffffffffffffffffffffffffffff16815260200190815260200160002060009054906101000a900460ff16905092915050565b610d20610ef6565b73ffffffffffffffffffffffffffffffffffffffff16610d3e610a76565b73ffffffffffffffffffffffffffffffffffffffff1614610d94576040517f08c379a0000000000000000000000000000000000000000000000000000000008152600401610d8b9061308d565b60405180910390fd5b600073ffffffffffffffffffffffffffffffffffffffff168173ffffffffffffffffffffffffffffffffffffffff161415610e04576040517f08c379a0000000000000000000000000000000000000000000000000000000008152600401610dfb90612eed565b60405180910390fd5b610e0d81611308565b50565b60007f780e9d63000000000000000000000000000000000000000000000000000000007bffffffffffffffffffffffffffffffffffffffffffffffffffffffff1916827bffffffffffffffffffffffffffffffffffffffffffffffffffffffff19161480610e835750610e828261179f565b5b9050919050565b60008073ffffffffffffffffffffffffffffffffffffffff166002600084815260200190815260200160002060009054906101000a900473ffffffffffffffffffffffffffffffffffffffff1673ffffffffffffffffffffffffffffffffffffffff1614159050919050565b600033905090565b816004600083815260200190815260200160002060006101000a81548173ffffffffffffffffffffffffffffffffffffffff021916908373ffffffffffffffffffffffffffffffffffffffff160217905550808273ffffffffffffffffffffffffffffffffffffffff16610f7183610884565b73ffffffffffffffffffffffffffffffffffffffff167f8c5be1e5ebec7d5bd14f71427d1e84f3dd0314c0f7b2291e5b200ac8c7c3b92560405160405180910390a45050565b6000610fc282610e8a565b611001576040517f08c379a0000000000000000000000000000000000000000000000000000000008152600401610ff890612f8d565b60405180910390fd5b600061100c83610884565b90508073ffffffffffffffffffffffffffffffffffffffff168473ffffffffffffffffffffffffffffffffffffffff16148061107b57508373ffffffffffffffffffffffffffffffffffffffff16611063846104c2565b73ffffffffffffffffffffffffffffffffffffffff16145b8061108c575061108b8185610c84565b5b91505092915050565b8273ffffffffffffffffffffffffffffffffffffffff166110b582610884565b73ffffffffffffffffffffffffffffffffffffffff161461110b576040517f08c379a000000000000000000000000000000000000000000000000000000000815260040161110290612f0d565b60405180910390fd5b600073ffffffffffffffffffffffffffffffffffffffff168273ffffffffffffffffffffffffffffffffffffffff16141561117b576040517f08c379a000000000000000000000000000000000000000000000000000000000815260040161117290612f4d565b60405180910390fd5b611186838383611881565b611191600082610efe565b6001600360008573ffffffffffffffffffffffffffffffffffffffff1673ffffffffffffffffffffffffffffffffffffffff16815260200190815260200160002060008282546111e191906132d9565b925050819055506001600360008473ffffffffffffffffffffffffffffffffffffffff1673ffffffffffffffffffffffffffffffffffffffff16815260200190815260200160002060008282546112389190613252565b92505081905550816002600083815260200190815260200160002060006101000a81548173ffffffffffffffffffffffffffffffffffffffff021916908373ffffffffffffffffffffffffffffffffffffffff160217905550808273ffffffffffffffffffffffffffffffffffffffff168473ffffffffffffffffffffffffffffffffffffffff167fddf252ad1be2c89b69c2b068fc378daa952ba7f163c4a11628f55a4df523b3ef60405160405180910390a46112f7838383611891565b505050565b61130581611896565b50565b6000600b60009054906101000a900473ffffffffffffffffffffffffffffffffffffffff16905081600b60006101000a81548173ffffffffffffffffffffffffffffffffffffffff021916908373ffffffffffffffffffffffffffffffffffffffff1602179055508173ffffffffffffffffffffffffffffffffffffffff168173ffffffffffffffffffffffffffffffffffffffff167f8be0079c531659141344cd1fd0a4f28419497f9722a3daafe3b4186f6b6457e060405160405180910390a35050565b8173ffffffffffffffffffffffffffffffffffffffff168373ffffffffffffffffffffffffffffffffffffffff16141561143d576040517f08c379a000000000000000000000000000000000000000000000000000000000815260040161143490612f6d565b60405180910390fd5b80600560008573ffffffffffffffffffffffffffffffffffffffff1673ffffffffffffffffffffffffffffffffffffffff16815260200190815260200160002060008473ffffffffffffffffffffffffffffffffffffffff1673ffffffffffffffffffffffffffffffffffffffff16815260200190815260200160002060006101000a81548160ff0219169083151502179055508173ffffffffffffffffffffffffffffffffffffffff168373ffffffffffffffffffffffffffffffffffffffff167f17307eab39ab6107e8899845ad3d59bd9653f200f220920489ca2b5937696c318360405161152e9190612e70565b60405180910390a3505050565b611546848484611095565b611552848484846118e9565b611591576040517f08c379a000000000000000000000000000000000000000000000000000000000815260040161158890612ecd565b60405180910390fd5b50505050565b60606115a282610e8a565b6115e1576040517f08c379a00000000000000000000000000000000000000000000000000000000081526004016115d89061304d565b60405180910390fd5b6000600a60008481526020019081526020016000208054611601906133c3565b80601f016020809104026020016040519081016040528092919081815260200182805461162d906133c3565b801561167a5780601f1061164f5761010080835404028352916020019161167a565b820191906000526020600020905b81548152906001019060200180831161165d57829003601f168201915b50505050509050600061168b611a80565b90506000815114156116a15781925050506116e4565b6000825111156116d65780826040516020016116be929190612de5565b604051602081830303815290604052925050506116e4565b6116df84611abd565b925050505b919050565b600081600001549050919050565b6001816000016000828254019250508190555050565b611727828260405180602001604052806000815250611b64565b5050565b61173482610e8a565b611773576040517f08c379a000000000000000000000000000000000000000000000000000000000815260040161176a9061300d565b60405180910390fd5b80600a6000848152602001908152602001600020908051906020019061179a929190612581565b505050565b60007f80ac58cd000000000000000000000000000000000000000000000000000000007bffffffffffffffffffffffffffffffffffffffffffffffffffffffff1916827bffffffffffffffffffffffffffffffffffffffffffffffffffffffff1916148061186a57507f5b5e139f000000000000000000000000000000000000000000000000000000007bffffffffffffffffffffffffffffffffffffffffffffffffffffffff1916827bffffffffffffffffffffffffffffffffffffffffffffffffffffffff1916145b8061187a575061187982611bbf565b5b9050919050565b61188c838383611c29565b505050565b505050565b61189f81611d3d565b6000600a600083815260200190815260200160002080546118bf906133c3565b9050146118e657600a600082815260200190815260200160002060006118e59190612607565b5b50565b600061190a8473ffffffffffffffffffffffffffffffffffffffff16611e5a565b15611a73578373ffffffffffffffffffffffffffffffffffffffff1663150b7a02611933610ef6565b8786866040518563ffffffff1660e01b81526004016119559493929190612e24565b602060405180830381600087803b15801561196f57600080fd5b505af19250505080156119a057506040513d601f19601f8201168201806040525081019061199d91906129c1565b60015b611a23573d80600081146119d0576040519150601f19603f3d011682016040523d82523d6000602084013e6119d5565b606091505b50600081511415611a1b576040517f08c379a0000000000000000000000000000000000000000000000000000000008152600401611a1290612ecd565b60405180910390fd5b805181602001fd5b63150b7a0260e01b7bffffffffffffffffffffffffffffffffffffffffffffffffffffffff1916817bffffffffffffffffffffffffffffffffffffffffffffffffffffffff191614915050611a78565b600190505b949350505050565b60606040518060400160405280600781526020017f697066733a2f2f00000000000000000000000000000000000000000000000000815250905090565b6060611ac882610e8a565b611b07576040517f08c379a0000000000000000000000000000000000000000000000000000000008152600401611afe906130ad565b60405180910390fd5b6000611b11611a80565b90506000815111611b315760405180602001604052806000815250611b5c565b80611b3b84611e7d565b604051602001611b4c929190612de5565b6040516020818303038152906040525b915050919050565b611b6e838361202a565b611b7b60008484846118e9565b611bba576040517f08c379a0000000000000000000000000000000000000000000000000000000008152600401611bb190612ecd565b60405180910390fd5b505050565b60007f01ffc9a7000000000000000000000000000000000000000000000000000000007bffffffffffffffffffffffffffffffffffffffffffffffffffffffff1916827bffffffffffffffffffffffffffffffffffffffffffffffffffffffff1916149050919050565b611c34838383612204565b600073ffffffffffffffffffffffffffffffffffffffff168373ffffffffffffffffffffffffffffffffffffffff161415611c7757611c7281612209565b611cb6565b8173ffffffffffffffffffffffffffffffffffffffff168373ffffffffffffffffffffffffffffffffffffffff1614611cb557611cb48382612252565b5b5b600073ffffffffffffffffffffffffffffffffffffffff168273ffffffffffffffffffffffffffffffffffffffff161415611cf957611cf4816123bf565b611d38565b8273ffffffffffffffffffffffffffffffffffffffff168273ffffffffffffffffffffffffffffffffffffffff1614611d3757611d368282612502565b5b5b505050565b6000611d4882610884565b9050611d5681600084611881565b611d61600083610efe565b6001600360008373ffffffffffffffffffffffffffffffffffffffff1673ffffffffffffffffffffffffffffffffffffffff1681526020019081526020016000206000828254611db191906132d9565b925050819055506002600083815260200190815260200160002060006101000a81549073ffffffffffffffffffffffffffffffffffffffff021916905581600073ffffffffffffffffffffffffffffffffffffffff168273ffffffffffffffffffffffffffffffffffffffff167fddf252ad1be2c89b69c2b068fc378daa952ba7f163c4a11628f55a4df523b3ef60405160405180910390a4611e5681600084611891565b5050565b6000808273ffffffffffffffffffffffffffffffffffffffff163b119050919050565b60606000821415611ec5576040518060400160405280600181526020017f30000000000000000000000000000000000000000000000000000000000000008152509050612025565b600082905060005b60008214611ef7578080611ee090613426565b915050600a82611ef091906132a8565b9150611ecd565b60008167ffffffffffffffff811115611f39577f4e487b7100000000000000000000000000000000000000000000000000000000600052604160045260246000fd5b6040519080825280601f01601f191660200182016040528015611f6b5781602001600182028036833780820191505090505b5090505b6000851461201e57600182611f8491906132d9565b9150600a85611f93919061346f565b6030611f9f9190613252565b60f81b818381518110611fdb577f4e487b7100000000000000000000000000000000000000000000000000000000600052603260045260246000fd5b60200101907effffffffffffffffffffffffffffffffffffffffffffffffffffffffffffff1916908160001a905350600a8561201791906132a8565b9450611f6f565b8093505050505b919050565b600073ffffffffffffffffffffffffffffffffffffffff168273ffffffffffffffffffffffffffffffffffffffff16141561209a576040517f08c379a00000000000000000000000000000000000000000000000000000000081526004016120919061302d565b60405180910390fd5b6120a381610e8a565b156120e3576040517f08c379a00000000000000000000000000000000000000000000000000000000081526004016120da90612f2d565b60405180910390fd5b6120ef60008383611881565b6001600360008473ffffffffffffffffffffffffffffffffffffffff1673ffffffffffffffffffffffffffffffffffffffff168152602001908152602001600020600082825461213f9190613252565b92505081905550816002600083815260200190815260200160002060006101000a81548173ffffffffffffffffffffffffffffffffffffffff021916908373ffffffffffffffffffffffffffffffffffffffff160217905550808273ffffffffffffffffffffffffffffffffffffffff16600073ffffffffffffffffffffffffffffffffffffffff167fddf252ad1be2c89b69c2b068fc378daa952ba7f163c4a11628f55a4df523b3ef60405160405180910390a461220060008383611891565b5050565b505050565b6008805490506009600083815260200190815260200160002081905550600881908060018154018082558091505060019003906000526020600020016000909190919091505550565b6000600161225f84610936565b61226991906132d9565b905060006007600084815260200190815260200160002054905081811461234e576000600660008673ffffffffffffffffffffffffffffffffffffffff1673ffffffffffffffffffffffffffffffffffffffff168152602001908152602001600020600084815260200190815260200160002054905080600660008773ffffffffffffffffffffffffffffffffffffffff1673ffffffffffffffffffffffffffffffffffffffff168152602001908152602001600020600084815260200190815260200160002081905550816007600083815260200190815260200160002081905550505b6007600084815260200190815260200160002060009055600660008573ffffffffffffffffffffffffffffffffffffffff1673ffffffffffffffffffffffffffffffffffffffff16815260200190815260200160002060008381526020019081526020016000206000905550505050565b600060016008805490506123d391906132d9565b9050600060096000848152602001908152602001600020549050600060088381548110612429577f4e487b7100000000000000000000000000000000000000000000000000000000600052603260045260246000fd5b906000526020600020015490508060088381548110612471577f4e487b7100000000000000000000000000000000000000000000000000000000600052603260045260246000fd5b9060005260206000200181905550816009600083815260200190815260200160002081905550600960008581526020019081526020016000206000905560088054806124e6577f4e487b7100000000000000000000000000000000000000000000000000000000600052603160045260246000fd5b6001900381819060005260206000200160009055905550505050565b600061250d83610936565b905081600660008573ffffffffffffffffffffffffffffffffffffffff1673ffffffffffffffffffffffffffffffffffffffff168152602001908152602001600020600083815260200190815260200160002081905550806007600084815260200190815260200160002081905550505050565b82805461258d906133c3565b90600052602060002090601f0160209004810192826125af57600085556125f6565b82601f106125c857805160ff19168380011785556125f6565b828001600101855582156125f6579182015b828111156125f55782518255916020019190600101906125da565b5b5090506126039190612647565b5090565b508054612613906133c3565b6000825580601f106126255750612644565b601f0160209004906000526020600020908101906126439190612647565b5b50565b5b80821115612660576000816000905550600101612648565b5090565b6000612677612672846131ad565b613188565b90508281526020810184848401111561268f57600080fd5b61269a848285613381565b509392505050565b60006126b56126b0846131de565b613188565b9050828152602081018484840111156126cd57600080fd5b6126d8848285613381565b509392505050565b6000813590506126ef81613b79565b92915050565b60008135905061270481613b90565b92915050565b60008135905061271981613ba7565b92915050565b60008151905061272e81613ba7565b92915050565b600082601f83011261274557600080fd5b8135612755848260208601612664565b91505092915050565b600082601f83011261276f57600080fd5b813561277f8482602086016126a2565b91505092915050565b60008135905061279781613bbe565b92915050565b6000602082840312156127af57600080fd5b60006127bd848285016126e0565b91505092915050565b600080604083850312156127d957600080fd5b60006127e7858286016126e0565b92505060206127f8858286016126e0565b9150509250929050565b60008060006060848603121561281757600080fd5b6000612825868287016126e0565b9350506020612836868287016126e0565b925050604061284786828701612788565b9150509250925092565b6000806000806080858703121561286757600080fd5b6000612875878288016126e0565b9450506020612886878288016126e0565b935050604061289787828801612788565b925050606085013567ffffffffffffffff8111156128b457600080fd5b6128c087828801612734565b91505092959194509250565b600080604083850312156128df57600080fd5b60006128ed858286016126e0565b92505060206128fe858286016126f5565b9150509250929050565b6000806040838503121561291b57600080fd5b6000612929858286016126e0565b925050602083013567ffffffffffffffff81111561294657600080fd5b6129528582860161275e565b9150509250929050565b6000806040838503121561296f57600080fd5b600061297d858286016126e0565b925050602061298e85828601612788565b9150509250929050565b6000602082840312156129aa57600080fd5b60006129b88482850161270a565b91505092915050565b6000602082840312156129d357600080fd5b60006129e18482850161271f565b91505092915050565b6000602082840312156129fc57600080fd5b6000612a0a84828501612788565b91505092915050565b612a1c8161330d565b82525050565b612a2b8161331f565b82525050565b6000612a3c8261320f565b612a468185613225565b9350612a56818560208601613390565b612a5f8161355c565b840191505092915050565b6000612a758261321a565b612a7f8185613236565b9350612a8f818560208601613390565b612a988161355c565b840191505092915050565b6000612aae8261321a565b612ab88185613247565b9350612ac8818560208601613390565b80840191505092915050565b6000612ae1602b83613236565b9150612aec8261356d565b604082019050919050565b6000612b04603283613236565b9150612b0f826135bc565b604082019050919050565b6000612b27602683613236565b9150612b328261360b565b604082019050919050565b6000612b4a602583613236565b9150612b558261365a565b604082019050919050565b6000612b6d601c83613236565b9150612b78826136a9565b602082019050919050565b6000612b90602483613236565b9150612b9b826136d2565b604082019050919050565b6000612bb3601983613236565b9150612bbe82613721565b602082019050919050565b6000612bd6602c83613236565b9150612be18261374a565b604082019050919050565b6000612bf9603883613236565b9150612c0482613799565b604082019050919050565b6000612c1c602a83613236565b9150612c27826137e8565b604082019050919050565b6000612c3f602983613236565b9150612c4a82613837565b604082019050919050565b6000612c62602e83613236565b9150612c6d82613886565b604082019050919050565b6000612c85602083613236565b9150612c90826138d5565b602082019050919050565b6000612ca8603183613236565b9150612cb3826138fe565b604082019050919050565b6000612ccb602c83613236565b9150612cd68261394d565b604082019050919050565b6000612cee602083613236565b9150612cf98261399c565b602082019050919050565b6000612d11602f83613236565b9150612d1c826139c5565b604082019050919050565b6000612d34602183613236565b9150612d3f82613a14565b604082019050919050565b6000612d57603183613236565b9150612d6282613a63565b604082019050919050565b6000612d7a602c83613236565b9150612d8582613ab2565b604082019050919050565b6000612d9d603083613236565b9150612da882613b01565b604082019050919050565b6000612dc0601b83613236565b9150612dcb82613b50565b602082019050919050565b612ddf81613377565b82525050565b6000612df18285612aa3565b9150612dfd8284612aa3565b91508190509392505050565b6000602082019050612e1e6000830184612a13565b92915050565b6000608082019050612e396000830187612a13565b612e466020830186612a13565b612e536040830185612dd6565b8181036060830152612e658184612a31565b905095945050505050565b6000602082019050612e856000830184612a22565b92915050565b60006020820190508181036000830152612ea58184612a6a565b905092915050565b60006020820190508181036000830152612ec681612ad4565b9050919050565b60006020820190508181036000830152612ee681612af7565b9050919050565b60006020820190508181036000830152612f0681612b1a565b9050919050565b60006020820190508181036000830152612f2681612b3d565b9050919050565b60006020820190508181036000830152612f4681612b60565b9050919050565b60006020820190508181036000830152612f6681612b83565b9050919050565b60006020820190508181036000830152612f8681612ba6565b9050919050565b60006020820190508181036000830152612fa681612bc9565b9050919050565b60006020820190508181036000830152612fc681612bec565b9050919050565b60006020820190508181036000830152612fe681612c0f565b9050919050565b6000602082019050818103600083015261300681612c32565b9050919050565b6000602082019050818103600083015261302681612c55565b9050919050565b6000602082019050818103600083015261304681612c78565b9050919050565b6000602082019050818103600083015261306681612c9b565b9050919050565b6000602082019050818103600083015261308681612cbe565b9050919050565b600060208201905081810360008301526130a681612ce1565b9050919050565b600060208201905081810360008301526130c681612d04565b9050919050565b600060208201905081810360008301526130e681612d27565b9050919050565b6000602082019050818103600083015261310681612d4a565b9050919050565b6000602082019050818103600083015261312681612d6d565b9050919050565b6000602082019050818103600083015261314681612d90565b9050919050565b6000602082019050818103600083015261316681612db3565b9050919050565b60006020820190506131826000830184612dd6565b92915050565b60006131926131a3565b905061319e82826133f5565b919050565b6000604051905090565b600067ffffffffffffffff8211156131c8576131c761352d565b5b6131d18261355c565b9050602081019050919050565b600067ffffffffffffffff8211156131f9576131f861352d565b5b6132028261355c565b9050602081019050919050565b600081519050919050565b600081519050919050565b600082825260208201905092915050565b600082825260208201905092915050565b600081905092915050565b600061325d82613377565b915061326883613377565b9250827fffffffffffffffffffffffffffffffffffffffffffffffffffffffffffffffff0382111561329d5761329c6134a0565b5b828201905092915050565b60006132b382613377565b91506132be83613377565b9250826132ce576132cd6134cf565b5b828204905092915050565b60006132e482613377565b91506132ef83613377565b925082821015613302576133016134a0565b5b828203905092915050565b600061331882613357565b9050919050565b60008115159050919050565b60007fffffffff0000000000000000000000000000000000000000000000000000000082169050919050565b600073ffffffffffffffffffffffffffffffffffffffff82169050919050565b6000819050919050565b82818337600083830152505050565b60005b838110156133ae578082015181840152602081019050613393565b838111156133bd576000848401525b50505050565b600060028204905060018216806133db57607f821691505b602082108114156133ef576133ee6134fe565b5b50919050565b6133fe8261355c565b810181811067ffffffffffffffff8211171561341d5761341c61352d565b5b80604052505050565b600061343182613377565b91507fffffffffffffffffffffffffffffffffffffffffffffffffffffffffffffffff821415613464576134636134a0565b5b600182019050919050565b600061347a82613377565b915061348583613377565b925082613495576134946134cf565b5b828206905092915050565b7f4e487b7100000000000000000000000000000000000000000000000000000000600052601160045260246000fd5b7f4e487b7100000000000000000000000000000000000000000000000000000000600052601260045260246000fd5b7f4e487b7100000000000000000000000000000000000000000000000000000000600052602260045260246000fd5b7f4e487b7100000000000000000000000000000000000000000000000000000000600052604160045260246000fd5b6000601f19601f8301169050919050565b7f455243373231456e756d657261626c653a206f776e657220696e646578206f7560008201527f74206f6620626f756e6473000000000000000000000000000000000000000000602082015250565b7f4552433732313a207472616e7366657220746f206e6f6e20455243373231526560008201527f63656976657220696d706c656d656e7465720000000000000000000000000000602082015250565b7f4f776e61626c653a206e6577206f776e657220697320746865207a65726f206160008201527f6464726573730000000000000000000000000000000000000000000000000000602082015250565b7f4552433732313a207472616e736665722066726f6d20696e636f72726563742060008201527f6f776e6572000000000000000000000000000000000000000000000000000000602082015250565b7f4552433732313a20746f6b656e20616c7265616479206d696e74656400000000600082015250565b7f4552433732313a207472616e7366657220746f20746865207a65726f2061646460008201527f7265737300000000000000000000000000000000000000000000000000000000602082015250565b7f4552433732313a20617070726f766520746f2063616c6c657200000000000000600082015250565b7f4552433732313a206f70657261746f7220717565727920666f72206e6f6e657860008201527f697374656e7420746f6b656e0000000000000000000000000000000000000000602082015250565b7f4552433732313a20617070726f76652063616c6c6572206973206e6f74206f7760008201527f6e6572206e6f7220617070726f76656420666f7220616c6c0000000000000000602082015250565b7f4552433732313a2062616c616e636520717565727920666f7220746865207a6560008201527f726f206164647265737300000000000000000000000000000000000000000000602082015250565b7f4552433732313a206f776e657220717565727920666f72206e6f6e657869737460008201527f656e7420746f6b656e0000000000000000000000000000000000000000000000602082015250565b7f45524337323155524953746f726167653a2055524920736574206f66206e6f6e60008201527f6578697374656e7420746f6b656e000000000000000000000000000000000000602082015250565b7f4552433732313a206d696e7420746f20746865207a65726f2061646472657373600082015250565b7f45524337323155524953746f726167653a2055524920717565727920666f722060008201527f6e6f6e6578697374656e7420746f6b656e000000000000000000000000000000602082015250565b7f4552433732313a20617070726f76656420717565727920666f72206e6f6e657860008201527f697374656e7420746f6b656e0000000000000000000000000000000000000000602082015250565b7f4f776e61626c653a2063616c6c6572206973206e6f7420746865206f776e6572600082015250565b7f4552433732314d657461646174613a2055524920717565727920666f72206e6f60008201527f6e6578697374656e7420746f6b656e0000000000000000000000000000000000602082015250565b7f4552433732313a20617070726f76616c20746f2063757272656e74206f776e6560008201527f7200000000000000000000000000000000000000000000000000000000000000602082015250565b7f4552433732313a207472616e736665722063616c6c6572206973206e6f74206f60008201527f776e6572206e6f7220617070726f766564000000000000000000000000000000602082015250565b7f455243373231456e756d657261626c653a20676c6f62616c20696e646578206f60008201527f7574206f6620626f756e64730000000000000000000000000000000000000000602082015250565b7f4552433732314275726e61626c653a2063616c6c6572206973206e6f74206f7760008201527f6e6572206e6f7220617070726f76656400000000000000000000000000000000602082015250565b7f43616c6c6572206973206e6f74206d61696e20636f6e74726163740000000000600082015250565b613b828161330d565b8114613b8d57600080fd5b50565b613b998161331f565b8114613ba457600080fd5b50565b613bb08161332b565b8114613bbb57600080fd5b50565b613bc781613377565b8114613bd257600080fd5b5056fea2646970667358221220b5418ee5c827d3526e13959f9893f3875a92859602fd549f4ac77d49ce7b926b64736f6c63430008040033",
  "linkReferences": {},
  "deployedLinkReferences": {}
}