{
  "_format": "hh-sol-artifact-1",
  "contractName": "TokenFT",
  "sourceName": "src/backend/contracts/TokenFT.sol",
  "abi": [
    {
      "inputs": [
        {
          "internalType": "address",
          "name": "_contractMain",
          "type": "address"
        }
      ],
      "stateMutability": "nonpayable",
      "type": "constructor"
    },
    {
      "anonymous": false,
      "inputs": [
        {
          "indexed": true,
          "internalType": "address",
          "name": "owner",
          "type": "address"
        },
        {
          "indexed": true,
          "internalType": "address",
          "name": "spender",
          "type": "address"
        },
        {
          "indexed": false,
          "internalType": "uint256",
          "name": "value",
          "type": "uint256"
        }
      ],
      "name": "Approval",
      "type": "event"
    },
    {
      "anonymous": false,
      "inputs": [
        {
          "indexed": true,
          "internalType": "address",
          "name": "from",
          "type": "address"
        },
        {
          "indexed": true,
          "internalType": "address",
          "name": "to",
          "type": "address"
        },
        {
          "indexed": false,
          "internalType": "uint256",
          "name": "value",
          "type": "uint256"
        }
      ],
      "name": "Transfer",
      "type": "event"
    },
    {
      "inputs": [
        {
          "internalType": "address",
          "name": "owner",
          "type": "address"
        },
        {
          "internalType": "address",
          "name": "spender",
          "type": "address"
        }
      ],
      "name": "allowance",
      "outputs": [
        {
          "internalType": "uint256",
          "name": "",
          "type": "uint256"
        }
      ],
      "stateMutability": "view",
      "type": "function"
    },
    {
      "inputs": [
        {
          "internalType": "address",
          "name": "spender",
          "type": "address"
        },
        {
          "internalType": "uint256",
          "name": "amount",
          "type": "uint256"
        }
      ],
      "name": "approve",
      "outputs": [
        {
          "internalType": "bool",
          "name": "",
          "type": "bool"
        }
      ],
      "stateMutability": "nonpayable",
      "type": "function"
    },
    {
      "inputs": [
        {
          "internalType": "address",
          "name": "account",
          "type": "address"
        }
      ],
      "name": "balanceOf",
      "outputs": [
        {
          "internalType": "uint256",
          "name": "",
          "type": "uint256"
        }
      ],
      "stateMutability": "view",
      "type": "function"
    },
    {
      "inputs": [],
      "name": "decimals",
      "outputs": [
        {
          "internalType": "uint8",
          "name": "",
          "type": "uint8"
        }
      ],
      "stateMutability": "view",
      "type": "function"
    },
    {
      "inputs": [
        {
          "internalType": "address",
          "name": "spender",
          "type": "address"
        },
        {
          "internalType": "uint256",
          "name": "subtractedValue",
          "type": "uint256"
        }
      ],
      "name": "decreaseAllowance",
      "outputs": [
        {
          "internalType": "bool",
          "name": "",
          "type": "bool"
        }
      ],
      "stateMutability": "nonpayable",
      "type": "function"
    },
    {
      "inputs": [
        {
          "internalType": "address",
          "name": "account",
          "type": "address"
        }
      ],
      "name": "earned",
      "outputs": [
        {
          "internalType": "uint256",
          "name": "",
          "type": "uint256"
        }
      ],
      "stateMutability": "view",
      "type": "function"
    },
    {
      "inputs": [],
      "name": "getAPR",
      "outputs": [
        {
          "internalType": "uint256",
          "name": "",
          "type": "uint256"
        }
      ],
      "stateMutability": "view",
      "type": "function"
    },
    {
      "inputs": [],
      "name": "getReward",
      "outputs": [],
      "stateMutability": "nonpayable",
      "type": "function"
    },
    {
      "inputs": [
        {
          "internalType": "address",
          "name": "spender",
          "type": "address"
        },
        {
          "internalType": "uint256",
          "name": "addedValue",
          "type": "uint256"
        }
      ],
      "name": "increaseAllowance",
      "outputs": [
        {
          "internalType": "bool",
          "name": "",
          "type": "bool"
        }
      ],
      "stateMutability": "nonpayable",
      "type": "function"
    },
    {
      "inputs": [],
      "name": "lastUpdateTime",
      "outputs": [
        {
          "internalType": "uint256",
          "name": "",
          "type": "uint256"
        }
      ],
      "stateMutability": "view",
      "type": "function"
    },
    {
      "inputs": [],
      "name": "myBalance",
      "outputs": [
        {
          "internalType": "uint256",
          "name": "",
          "type": "uint256"
        }
      ],
      "stateMutability": "view",
      "type": "function"
    },
    {
      "inputs": [],
      "name": "name",
      "outputs": [
        {
          "internalType": "string",
          "name": "",
          "type": "string"
        }
      ],
      "stateMutability": "view",
      "type": "function"
    },
    {
      "inputs": [],
      "name": "rewardPerToken",
      "outputs": [
        {
          "internalType": "uint256",
          "name": "",
          "type": "uint256"
        }
      ],
      "stateMutability": "view",
      "type": "function"
    },
    {
      "inputs": [],
      "name": "rewardPerTokenStored",
      "outputs": [
        {
          "internalType": "uint256",
          "name": "",
          "type": "uint256"
        }
      ],
      "stateMutability": "view",
      "type": "function"
    },
    {
      "inputs": [],
      "name": "rewardRate",
      "outputs": [
        {
          "internalType": "uint256",
          "name": "",
          "type": "uint256"
        }
      ],
      "stateMutability": "view",
      "type": "function"
    },
    {
      "inputs": [
        {
          "internalType": "address",
          "name": "",
          "type": "address"
        }
      ],
      "name": "rewards",
      "outputs": [
        {
          "internalType": "uint256",
          "name": "",
          "type": "uint256"
        }
      ],
      "stateMutability": "view",
      "type": "function"
    },
    {
      "inputs": [
        {
          "internalType": "uint256",
          "name": "_amount",
          "type": "uint256"
        }
      ],
      "name": "stake",
      "outputs": [],
      "stateMutability": "nonpayable",
      "type": "function"
    },
    {
      "inputs": [],
      "name": "stakingTotalSupply",
      "outputs": [
        {
          "internalType": "uint256",
          "name": "",
          "type": "uint256"
        }
      ],
      "stateMutability": "view",
      "type": "function"
    },
    {
      "inputs": [],
      "name": "symbol",
      "outputs": [
        {
          "internalType": "string",
          "name": "",
          "type": "string"
        }
      ],
      "stateMutability": "view",
      "type": "function"
    },
    {
      "inputs": [],
      "name": "totalSupply",
      "outputs": [
        {
          "internalType": "uint256",
          "name": "",
          "type": "uint256"
        }
      ],
      "stateMutability": "view",
      "type": "function"
    },
    {
      "inputs": [
        {
          "internalType": "address",
          "name": "to",
          "type": "address"
        },
        {
          "internalType": "uint256",
          "name": "amount",
          "type": "uint256"
        }
      ],
      "name": "transfer",
      "outputs": [
        {
          "internalType": "bool",
          "name": "",
          "type": "bool"
        }
      ],
      "stateMutability": "nonpayable",
      "type": "function"
    },
    {
      "inputs": [
        {
          "internalType": "address",
          "name": "from",
          "type": "address"
        },
        {
          "internalType": "address",
          "name": "to",
          "type": "address"
        },
        {
          "internalType": "uint256",
          "name": "amount",
          "type": "uint256"
        }
      ],
      "name": "transferFrom",
      "outputs": [
        {
          "internalType": "bool",
          "name": "",
          "type": "bool"
        }
      ],
      "stateMutability": "nonpayable",
      "type": "function"
    },
    {
      "inputs": [
        {
          "internalType": "address",
          "name": "account",
          "type": "address"
        },
        {
          "internalType": "uint256",
          "name": "amount",
          "type": "uint256"
        }
      ],
      "name": "transferOnKill",
      "outputs": [],
      "stateMutability": "nonpayable",
      "type": "function"
    },
    {
      "inputs": [
        {
          "internalType": "address",
          "name": "",
          "type": "address"
        }
      ],
      "name": "userRewardPerTokenPaid",
      "outputs": [
        {
          "internalType": "uint256",
          "name": "",
          "type": "uint256"
        }
      ],
      "stateMutability": "view",
      "type": "function"
    },
    {
      "inputs": [
        {
          "internalType": "uint256",
          "name": "_amount",
          "type": "uint256"
        }
      ],
      "name": "withdraw",
      "outputs": [],
      "stateMutability": "nonpayable",
      "type": "function"
    }
  ],
  "bytecode": "0x608060405266038d7ea4c680006006553480156200001c57600080fd5b506040516200276a3803806200276a833981810160405281019062000042919062000416565b6040518060400160405280600781526020017f5a6f6d6c616e64000000000000000000000000000000000000000000000000008152506040518060400160405280600381526020017f5a4d4c00000000000000000000000000000000000000000000000000000000008152508160039080519060200190620000c69291906200034f565b508060049080519060200190620000df9291906200034f565b50505080600560006101000a81548173ffffffffffffffffffffffffffffffffffffffff021916908373ffffffffffffffffffffffffffffffffffffffff160217905550600062000135620001c360201b60201c565b600a62000143919062000582565b633b9aca00620001549190620006bf565b9050600062000168620001c360201b60201c565b600a62000176919062000582565b6304c4b400620001879190620006bf565b9050620001a83382846200019c919062000720565b620001cc60201b60201c565b620001ba3082620001cc60201b60201c565b5050506200088a565b60006012905090565b600073ffffffffffffffffffffffffffffffffffffffff168273ffffffffffffffffffffffffffffffffffffffff1614156200023f576040517f08c379a000000000000000000000000000000000000000000000000000000000815260040162000236906200047a565b60405180910390fd5b62000253600083836200034560201b60201c565b8060026000828254620002679190620004ca565b92505081905550806000808473ffffffffffffffffffffffffffffffffffffffff1673ffffffffffffffffffffffffffffffffffffffff1681526020019081526020016000206000828254620002be9190620004ca565b925050819055508173ffffffffffffffffffffffffffffffffffffffff16600073ffffffffffffffffffffffffffffffffffffffff167fddf252ad1be2c89b69c2b068fc378daa952ba7f163c4a11628f55a4df523b3ef836040516200032591906200049c565b60405180910390a362000341600083836200034a60201b60201c565b5050565b505050565b505050565b8280546200035d90620007a6565b90600052602060002090601f016020900481019282620003815760008555620003cd565b82601f106200039c57805160ff1916838001178555620003cd565b82800160010185558215620003cd579182015b82811115620003cc578251825591602001919060010190620003af565b5b509050620003dc9190620003e0565b5090565b5b80821115620003fb576000816000905550600101620003e1565b5090565b600081519050620004108162000870565b92915050565b6000602082840312156200042957600080fd5b60006200043984828501620003ff565b91505092915050565b600062000451601f83620004b9565b91506200045e8262000847565b602082019050919050565b62000474816200078f565b82525050565b60006020820190508181036000830152620004958162000442565b9050919050565b6000602082019050620004b3600083018462000469565b92915050565b600082825260208201905092915050565b6000620004d7826200078f565b9150620004e4836200078f565b9250827fffffffffffffffffffffffffffffffffffffffffffffffffffffffffffffffff038211156200051c576200051b620007dc565b5b828201905092915050565b6000808291508390505b60018511156200057957808604811115620005515762000550620007dc565b5b6001851615620005615780820291505b808102905062000571856200083a565b945062000531565b94509492505050565b60006200058f826200078f565b91506200059c8362000799565b9250620005cb7fffffffffffffffffffffffffffffffffffffffffffffffffffffffffffffffff8484620005d3565b905092915050565b600082620005e55760019050620006b8565b81620005f55760009050620006b8565b81600181146200060e576002811462000619576200064f565b6001915050620006b8565b60ff8411156200062e576200062d620007dc565b5b8360020a915084821115620006485762000647620007dc565b5b50620006b8565b5060208310610133831016604e8410600b8410161715620006895782820a905083811115620006835762000682620007dc565b5b620006b8565b62000698848484600162000527565b92509050818404811115620006b257620006b1620007dc565b5b81810290505b9392505050565b6000620006cc826200078f565b9150620006d9836200078f565b9250817fffffffffffffffffffffffffffffffffffffffffffffffffffffffffffffffff0483118215151615620007155762000714620007dc565b5b828202905092915050565b60006200072d826200078f565b91506200073a836200078f565b92508282101562000750576200074f620007dc565b5b828203905092915050565b600062000768826200076f565b9050919050565b600073ffffffffffffffffffffffffffffffffffffffff82169050919050565b6000819050919050565b600060ff82169050919050565b60006002820490506001821680620007bf57607f821691505b60208210811415620007d657620007d56200080b565b5b50919050565b7f4e487b7100000000000000000000000000000000000000000000000000000000600052601160045260246000fd5b7f4e487b7100000000000000000000000000000000000000000000000000000000600052602260045260246000fd5b60008160011c9050919050565b7f45524332303a206d696e7420746f20746865207a65726f206164647265737300600082015250565b6200087b816200075b565b81146200088757600080fd5b50565b611ed0806200089a6000396000f3fe608060405234801561001057600080fd5b50600436106101725760003560e01c80637b0a47ee116100de578063c89d5b8b11610097578063cd3daf9d11610071578063cd3daf9d14610475578063d58ea17614610493578063dd62ed3e146104b1578063df136d65146104e157610172565b8063c89d5b8b1461041b578063c8f33c9114610439578063c9116b691461045757610172565b80637b0a47ee146103335780638b8763471461035157806395d89b4114610381578063a457c2d71461039f578063a694fc3a146103cf578063a9059cbb146103eb57610172565b80632e1a7d4d116101305780632e1a7d4d14610273578063313ce5671461028f57806339509351146102ad5780633d18b912146102dd5780634b45011a146102e757806370a082311461030357610172565b80628cc2621461017757806306fdde03146101a75780630700037d146101c5578063095ea7b3146101f557806318160ddd1461022557806323b872dd14610243575b600080fd5b610191600480360381019061018c91906115a1565b6104ff565b60405161019e9190611993565b60405180910390f35b6101af610601565b6040516101bc9190611891565b60405180910390f35b6101df60048036038101906101da91906115a1565b610693565b6040516101ec9190611993565b60405180910390f35b61020f600480360381019061020a9190611655565b6106ab565b60405161021c9190611876565b60405180910390f35b61022d6106ce565b60405161023a9190611993565b60405180910390f35b61025d60048036038101906102589190611606565b6106d8565b60405161026a9190611876565b60405180910390f35b61028d600480360381019061028891906116ba565b610707565b005b6102976108b0565b6040516102a491906119ae565b60405180910390f35b6102c760048036038101906102c29190611655565b6108b9565b6040516102d49190611876565b60405180910390f35b6102e5610963565b005b61030160048036038101906102fc9190611655565b610b26565b005b61031d600480360381019061031891906115a1565b610bb8565b60405161032a9190611993565b60405180910390f35b61033b610c00565b6040516103489190611993565b60405180910390f35b61036b600480360381019061036691906115a1565b610c06565b6040516103789190611993565b60405180910390f35b610389610c1e565b6040516103969190611891565b60405180910390f35b6103b960048036038101906103b49190611655565b610cb0565b6040516103c69190611876565b60405180910390f35b6103e960048036038101906103e491906116ba565b610d9a565b005b61040560048036038101906104009190611655565b610ec0565b6040516104129190611876565b60405180910390f35b610423610ee3565b6040516104309190611993565b60405180910390f35b610441610f34565b60405161044e9190611993565b60405180910390f35b61045f610f3a565b60405161046c9190611993565b60405180910390f35b61047d610f81565b60405161048a9190611993565b60405180910390f35b61049b610fe5565b6040516104a89190611993565b60405180910390f35b6104cb60048036038101906104c691906115ca565b610feb565b6040516104d89190611993565b60405180910390f35b6104e9611072565b6040516104f69190611993565b60405180910390f35b6000600a60008373ffffffffffffffffffffffffffffffffffffffff1673ffffffffffffffffffffffffffffffffffffffff16815260200190815260200160002054670de0b6b3a7640000600960008573ffffffffffffffffffffffffffffffffffffffff1673ffffffffffffffffffffffffffffffffffffffff16815260200190815260200160002054610592610f81565b61059c9190611ac6565b600c60008673ffffffffffffffffffffffffffffffffffffffff1673ffffffffffffffffffffffffffffffffffffffff168152602001908152602001600020546105e69190611a6c565b6105f09190611a3b565b6105fa91906119e5565b9050919050565b60606003805461061090611b82565b80601f016020809104026020016040519081016040528092919081815260200182805461063c90611b82565b80156106895780601f1061065e57610100808354040283529160200191610689565b820191906000526020600020905b81548152906001019060200180831161066c57829003601f168201915b5050505050905090565b600a6020528060005260406000206000915090505481565b6000806106b6611078565b90506106c3818585611080565b600191505092915050565b6000600254905090565b6000806106e3611078565b90506106f085828561124b565b6106fb8585856112d7565b60019150509392505050565b33610710610f81565b60088190555042600781905550610726816104ff565b600a60008373ffffffffffffffffffffffffffffffffffffffff1673ffffffffffffffffffffffffffffffffffffffff16815260200190815260200160002081905550600854600960008373ffffffffffffffffffffffffffffffffffffffff1673ffffffffffffffffffffffffffffffffffffffff1681526020019081526020016000208190555081600b60008282546107c19190611ac6565b9250508190555081600c60003373ffffffffffffffffffffffffffffffffffffffff1673ffffffffffffffffffffffffffffffffffffffff16815260200190815260200160002060008282546108179190611ac6565b925050819055503073ffffffffffffffffffffffffffffffffffffffff1663a9059cbb33846040518363ffffffff1660e01b815260040161085992919061184d565b602060405180830381600087803b15801561087357600080fd5b505af1158015610887573d6000803e3d6000fd5b505050506040513d601f19601f820116820180604052508101906108ab9190611691565b505050565b60006012905090565b6000806108c4611078565b9050610958818585600160008673ffffffffffffffffffffffffffffffffffffffff1673ffffffffffffffffffffffffffffffffffffffff16815260200190815260200160002060008973ffffffffffffffffffffffffffffffffffffffff1673ffffffffffffffffffffffffffffffffffffffff1681526020019081526020016000205461095391906119e5565b611080565b600191505092915050565b3361096c610f81565b60088190555042600781905550610982816104ff565b600a60008373ffffffffffffffffffffffffffffffffffffffff1673ffffffffffffffffffffffffffffffffffffffff16815260200190815260200160002081905550600854600960008373ffffffffffffffffffffffffffffffffffffffff1673ffffffffffffffffffffffffffffffffffffffff168152602001908152602001600020819055506000600a60003373ffffffffffffffffffffffffffffffffffffffff1673ffffffffffffffffffffffffffffffffffffffff1681526020019081526020016000205490506000600a60003373ffffffffffffffffffffffffffffffffffffffff1673ffffffffffffffffffffffffffffffffffffffff168152602001908152602001600020819055503073ffffffffffffffffffffffffffffffffffffffff1663a9059cbb33836040518363ffffffff1660e01b8152600401610acf92919061184d565b602060405180830381600087803b158015610ae957600080fd5b505af1158015610afd573d6000803e3d6000fd5b505050506040513d601f19601f82011682018060405250810190610b219190611691565b505050565b3073ffffffffffffffffffffffffffffffffffffffff1663a9059cbb83836040518363ffffffff1660e01b8152600401610b6192919061184d565b602060405180830381600087803b158015610b7b57600080fd5b505af1158015610b8f573d6000803e3d6000fd5b505050506040513d601f19601f82011682018060405250810190610bb39190611691565b505050565b60008060008373ffffffffffffffffffffffffffffffffffffffff1673ffffffffffffffffffffffffffffffffffffffff168152602001908152602001600020549050919050565b60065481565b60096020528060005260406000206000915090505481565b606060048054610c2d90611b82565b80601f0160208091040260200160405190810160405280929190818152602001828054610c5990611b82565b8015610ca65780601f10610c7b57610100808354040283529160200191610ca6565b820191906000526020600020905b815481529060010190602001808311610c8957829003601f168201915b5050505050905090565b600080610cbb611078565b90506000600160008373ffffffffffffffffffffffffffffffffffffffff1673ffffffffffffffffffffffffffffffffffffffff16815260200190815260200160002060008673ffffffffffffffffffffffffffffffffffffffff1673ffffffffffffffffffffffffffffffffffffffff16815260200190815260200160002054905083811015610d81576040517f08c379a0000000000000000000000000000000000000000000000000000000008152600401610d7890611973565b60405180910390fd5b610d8e8286868403611080565b60019250505092915050565b33610da3610f81565b60088190555042600781905550610db9816104ff565b600a60008373ffffffffffffffffffffffffffffffffffffffff1673ffffffffffffffffffffffffffffffffffffffff16815260200190815260200160002081905550600854600960008373ffffffffffffffffffffffffffffffffffffffff1673ffffffffffffffffffffffffffffffffffffffff1681526020019081526020016000208190555081600b6000828254610e5491906119e5565b9250508190555081600c60003373ffffffffffffffffffffffffffffffffffffffff1673ffffffffffffffffffffffffffffffffffffffff1681526020019081526020016000206000828254610eaa91906119e5565b92505081905550610ebb3083610ec0565b505050565b600080610ecb611078565b9050610ed88185856112d7565b600191505092915050565b600080600b541115610f2c5760006301e133809050600b5481670de0b6b3a764000083610f109190611a6c565b610f1a9190611a6c565b610f249190611a3b565b915050610f31565b600090505b90565b60075481565b6000600c60003373ffffffffffffffffffffffffffffffffffffffff1673ffffffffffffffffffffffffffffffffffffffff16815260200190815260200160002054905090565b600080600b541415610f97576008549050610fe2565b600b54670de0b6b3a764000060065460075442610fb49190611ac6565b610fbe9190611a6c565b610fc89190611a6c565b610fd29190611a3b565b600854610fdf91906119e5565b90505b90565b600b5481565b6000600160008473ffffffffffffffffffffffffffffffffffffffff1673ffffffffffffffffffffffffffffffffffffffff16815260200190815260200160002060008373ffffffffffffffffffffffffffffffffffffffff1673ffffffffffffffffffffffffffffffffffffffff16815260200190815260200160002054905092915050565b60085481565b600033905090565b600073ffffffffffffffffffffffffffffffffffffffff168373ffffffffffffffffffffffffffffffffffffffff1614156110f0576040517f08c379a00000000000000000000000000000000000000000000000000000000081526004016110e790611953565b60405180910390fd5b600073ffffffffffffffffffffffffffffffffffffffff168273ffffffffffffffffffffffffffffffffffffffff161415611160576040517f08c379a0000000000000000000000000000000000000000000000000000000008152600401611157906118d3565b60405180910390fd5b80600160008573ffffffffffffffffffffffffffffffffffffffff1673ffffffffffffffffffffffffffffffffffffffff16815260200190815260200160002060008473ffffffffffffffffffffffffffffffffffffffff1673ffffffffffffffffffffffffffffffffffffffff168152602001908152602001600020819055508173ffffffffffffffffffffffffffffffffffffffff168373ffffffffffffffffffffffffffffffffffffffff167f8c5be1e5ebec7d5bd14f71427d1e84f3dd0314c0f7b2291e5b200ac8c7c3b9258360405161123e9190611993565b60405180910390a3505050565b60006112578484610feb565b90507fffffffffffffffffffffffffffffffffffffffffffffffffffffffffffffffff81146112d157818110156112c3576040517f08c379a00000000000000000000000000000000000000000000000000000000081526004016112ba906118f3565b60405180910390fd5b6112d08484848403611080565b5b50505050565b600073ffffffffffffffffffffffffffffffffffffffff168373ffffffffffffffffffffffffffffffffffffffff161415611347576040517f08c379a000000000000000000000000000000000000000000000000000000000815260040161133e90611933565b60405180910390fd5b600073ffffffffffffffffffffffffffffffffffffffff168273ffffffffffffffffffffffffffffffffffffffff1614156113b7576040517f08c379a00000000000000000000000000000000000000000000000000000000081526004016113ae906118b3565b60405180910390fd5b6113c2838383611558565b60008060008573ffffffffffffffffffffffffffffffffffffffff1673ffffffffffffffffffffffffffffffffffffffff16815260200190815260200160002054905081811015611448576040517f08c379a000000000000000000000000000000000000000000000000000000000815260040161143f90611913565b60405180910390fd5b8181036000808673ffffffffffffffffffffffffffffffffffffffff1673ffffffffffffffffffffffffffffffffffffffff16815260200190815260200160002081905550816000808573ffffffffffffffffffffffffffffffffffffffff1673ffffffffffffffffffffffffffffffffffffffff16815260200190815260200160002060008282546114db91906119e5565b925050819055508273ffffffffffffffffffffffffffffffffffffffff168473ffffffffffffffffffffffffffffffffffffffff167fddf252ad1be2c89b69c2b068fc378daa952ba7f163c4a11628f55a4df523b3ef8460405161153f9190611993565b60405180910390a361155284848461155d565b50505050565b505050565b505050565b60008135905061157181611e55565b92915050565b60008151905061158681611e6c565b92915050565b60008135905061159b81611e83565b92915050565b6000602082840312156115b357600080fd5b60006115c184828501611562565b91505092915050565b600080604083850312156115dd57600080fd5b60006115eb85828601611562565b92505060206115fc85828601611562565b9150509250929050565b60008060006060848603121561161b57600080fd5b600061162986828701611562565b935050602061163a86828701611562565b925050604061164b8682870161158c565b9150509250925092565b6000806040838503121561166857600080fd5b600061167685828601611562565b92505060206116878582860161158c565b9150509250929050565b6000602082840312156116a357600080fd5b60006116b184828501611577565b91505092915050565b6000602082840312156116cc57600080fd5b60006116da8482850161158c565b91505092915050565b6116ec81611afa565b82525050565b6116fb81611b0c565b82525050565b600061170c826119c9565b61171681856119d4565b9350611726818560208601611b4f565b61172f81611c41565b840191505092915050565b60006117476023836119d4565b915061175282611c52565b604082019050919050565b600061176a6022836119d4565b915061177582611ca1565b604082019050919050565b600061178d601d836119d4565b915061179882611cf0565b602082019050919050565b60006117b06026836119d4565b91506117bb82611d19565b604082019050919050565b60006117d36025836119d4565b91506117de82611d68565b604082019050919050565b60006117f66024836119d4565b915061180182611db7565b604082019050919050565b60006118196025836119d4565b915061182482611e06565b604082019050919050565b61183881611b38565b82525050565b61184781611b42565b82525050565b600060408201905061186260008301856116e3565b61186f602083018461182f565b9392505050565b600060208201905061188b60008301846116f2565b92915050565b600060208201905081810360008301526118ab8184611701565b905092915050565b600060208201905081810360008301526118cc8161173a565b9050919050565b600060208201905081810360008301526118ec8161175d565b9050919050565b6000602082019050818103600083015261190c81611780565b9050919050565b6000602082019050818103600083015261192c816117a3565b9050919050565b6000602082019050818103600083015261194c816117c6565b9050919050565b6000602082019050818103600083015261196c816117e9565b9050919050565b6000602082019050818103600083015261198c8161180c565b9050919050565b60006020820190506119a8600083018461182f565b92915050565b60006020820190506119c3600083018461183e565b92915050565b600081519050919050565b600082825260208201905092915050565b60006119f082611b38565b91506119fb83611b38565b9250827fffffffffffffffffffffffffffffffffffffffffffffffffffffffffffffffff03821115611a3057611a2f611bb4565b5b828201905092915050565b6000611a4682611b38565b9150611a5183611b38565b925082611a6157611a60611be3565b5b828204905092915050565b6000611a7782611b38565b9150611a8283611b38565b9250817fffffffffffffffffffffffffffffffffffffffffffffffffffffffffffffffff0483118215151615611abb57611aba611bb4565b5b828202905092915050565b6000611ad182611b38565b9150611adc83611b38565b925082821015611aef57611aee611bb4565b5b828203905092915050565b6000611b0582611b18565b9050919050565b60008115159050919050565b600073ffffffffffffffffffffffffffffffffffffffff82169050919050565b6000819050919050565b600060ff82169050919050565b60005b83811015611b6d578082015181840152602081019050611b52565b83811115611b7c576000848401525b50505050565b60006002820490506001821680611b9a57607f821691505b60208210811415611bae57611bad611c12565b5b50919050565b7f4e487b7100000000000000000000000000000000000000000000000000000000600052601160045260246000fd5b7f4e487b7100000000000000000000000000000000000000000000000000000000600052601260045260246000fd5b7f4e487b7100000000000000000000000000000000000000000000000000000000600052602260045260246000fd5b6000601f19601f8301169050919050565b7f45524332303a207472616e7366657220746f20746865207a65726f206164647260008201527f6573730000000000000000000000000000000000000000000000000000000000602082015250565b7f45524332303a20617070726f766520746f20746865207a65726f20616464726560008201527f7373000000000000000000000000000000000000000000000000000000000000602082015250565b7f45524332303a20696e73756666696369656e7420616c6c6f77616e6365000000600082015250565b7f45524332303a207472616e7366657220616d6f756e742065786365656473206260008201527f616c616e63650000000000000000000000000000000000000000000000000000602082015250565b7f45524332303a207472616e736665722066726f6d20746865207a65726f20616460008201527f6472657373000000000000000000000000000000000000000000000000000000602082015250565b7f45524332303a20617070726f76652066726f6d20746865207a65726f2061646460008201527f7265737300000000000000000000000000000000000000000000000000000000602082015250565b7f45524332303a2064656372656173656420616c6c6f77616e63652062656c6f7760008201527f207a65726f000000000000000000000000000000000000000000000000000000602082015250565b611e5e81611afa565b8114611e6957600080fd5b50565b611e7581611b0c565b8114611e8057600080fd5b50565b611e8c81611b38565b8114611e9757600080fd5b5056fea264697066735822122030e6047213857db3bcb763708fb372d2409f18f8f9450487caefec421e5a4d2364736f6c63430008040033",
  "linkReferences": {},
  "deployedLinkReferences": {}
}