{
  "_format": "hh-sol-artifact-1",
  "contractName": "TokenFTContract",
  "sourceName": "src/backend/contracts/TokenFT.sol",
  "abi": [
    {
      "inputs": [],
      "stateMutability": "nonpayable",
      "type": "constructor"
    },
    {
      "anonymous": false,
      "inputs": [
        {
          "indexed": false,
          "internalType": "address",
          "name": "previousAdmin",
          "type": "address"
        },
        {
          "indexed": false,
          "internalType": "address",
          "name": "newAdmin",
          "type": "address"
        }
      ],
      "name": "AdminChanged",
      "type": "event"
    },
    {
      "anonymous": false,
      "inputs": [
        {
          "indexed": true,
          "internalType": "address",
          "name": "owner",
          "type": "address"
        },
        {
          "indexed": true,
          "internalType": "address",
          "name": "spender",
          "type": "address"
        },
        {
          "indexed": false,
          "internalType": "uint256",
          "name": "value",
          "type": "uint256"
        }
      ],
      "name": "Approval",
      "type": "event"
    },
    {
      "anonymous": false,
      "inputs": [
        {
          "indexed": true,
          "internalType": "address",
          "name": "beacon",
          "type": "address"
        }
      ],
      "name": "BeaconUpgraded",
      "type": "event"
    },
    {
      "anonymous": false,
      "inputs": [
        {
          "indexed": false,
          "internalType": "uint8",
          "name": "version",
          "type": "uint8"
        }
      ],
      "name": "Initialized",
      "type": "event"
    },
    {
      "anonymous": false,
      "inputs": [
        {
          "indexed": true,
          "internalType": "address",
          "name": "previousOwner",
          "type": "address"
        },
        {
          "indexed": true,
          "internalType": "address",
          "name": "newOwner",
          "type": "address"
        }
      ],
      "name": "OwnershipTransferred",
      "type": "event"
    },
    {
      "anonymous": false,
      "inputs": [
        {
          "indexed": true,
          "internalType": "address",
          "name": "from",
          "type": "address"
        },
        {
          "indexed": true,
          "internalType": "address",
          "name": "to",
          "type": "address"
        },
        {
          "indexed": false,
          "internalType": "uint256",
          "name": "value",
          "type": "uint256"
        }
      ],
      "name": "Transfer",
      "type": "event"
    },
    {
      "anonymous": false,
      "inputs": [
        {
          "indexed": true,
          "internalType": "address",
          "name": "implementation",
          "type": "address"
        }
      ],
      "name": "Upgraded",
      "type": "event"
    },
    {
      "inputs": [
        {
          "internalType": "address",
          "name": "owner",
          "type": "address"
        },
        {
          "internalType": "address",
          "name": "spender",
          "type": "address"
        }
      ],
      "name": "allowance",
      "outputs": [
        {
          "internalType": "uint256",
          "name": "",
          "type": "uint256"
        }
      ],
      "stateMutability": "view",
      "type": "function"
    },
    {
      "inputs": [
        {
          "internalType": "address",
          "name": "spender",
          "type": "address"
        },
        {
          "internalType": "uint256",
          "name": "amount",
          "type": "uint256"
        }
      ],
      "name": "approve",
      "outputs": [
        {
          "internalType": "bool",
          "name": "",
          "type": "bool"
        }
      ],
      "stateMutability": "nonpayable",
      "type": "function"
    },
    {
      "inputs": [
        {
          "internalType": "address",
          "name": "account",
          "type": "address"
        }
      ],
      "name": "balanceOf",
      "outputs": [
        {
          "internalType": "uint256",
          "name": "",
          "type": "uint256"
        }
      ],
      "stateMutability": "view",
      "type": "function"
    },
    {
      "inputs": [
        {
          "internalType": "uint256",
          "name": "amount",
          "type": "uint256"
        }
      ],
      "name": "burn",
      "outputs": [],
      "stateMutability": "nonpayable",
      "type": "function"
    },
    {
      "inputs": [
        {
          "internalType": "address",
          "name": "account",
          "type": "address"
        },
        {
          "internalType": "uint256",
          "name": "amount",
          "type": "uint256"
        }
      ],
      "name": "burnFrom",
      "outputs": [],
      "stateMutability": "nonpayable",
      "type": "function"
    },
    {
      "inputs": [],
      "name": "decimals",
      "outputs": [
        {
          "internalType": "uint8",
          "name": "",
          "type": "uint8"
        }
      ],
      "stateMutability": "view",
      "type": "function"
    },
    {
      "inputs": [
        {
          "internalType": "address",
          "name": "spender",
          "type": "address"
        },
        {
          "internalType": "uint256",
          "name": "subtractedValue",
          "type": "uint256"
        }
      ],
      "name": "decreaseAllowance",
      "outputs": [
        {
          "internalType": "bool",
          "name": "",
          "type": "bool"
        }
      ],
      "stateMutability": "nonpayable",
      "type": "function"
    },
    {
      "inputs": [
        {
          "internalType": "address",
          "name": "_account",
          "type": "address"
        }
      ],
      "name": "earned",
      "outputs": [
        {
          "internalType": "uint256",
          "name": "",
          "type": "uint256"
        }
      ],
      "stateMutability": "view",
      "type": "function"
    },
    {
      "inputs": [],
      "name": "getAPR",
      "outputs": [
        {
          "internalType": "uint256",
          "name": "",
          "type": "uint256"
        }
      ],
      "stateMutability": "view",
      "type": "function"
    },
    {
      "inputs": [],
      "name": "getReward",
      "outputs": [],
      "stateMutability": "nonpayable",
      "type": "function"
    },
    {
      "inputs": [
        {
          "internalType": "address",
          "name": "spender",
          "type": "address"
        },
        {
          "internalType": "uint256",
          "name": "addedValue",
          "type": "uint256"
        }
      ],
      "name": "increaseAllowance",
      "outputs": [
        {
          "internalType": "bool",
          "name": "",
          "type": "bool"
        }
      ],
      "stateMutability": "nonpayable",
      "type": "function"
    },
    {
      "inputs": [
        {
          "internalType": "address",
          "name": "_mainContract",
          "type": "address"
        }
      ],
      "name": "initialize",
      "outputs": [],
      "stateMutability": "nonpayable",
      "type": "function"
    },
    {
      "inputs": [],
      "name": "lastUpdateTime",
      "outputs": [
        {
          "internalType": "uint256",
          "name": "",
          "type": "uint256"
        }
      ],
      "stateMutability": "view",
      "type": "function"
    },
    {
      "inputs": [
        {
          "internalType": "uint256",
          "name": "_payAmount",
          "type": "uint256"
        },
        {
          "internalType": "uint256[]",
          "name": "_zombiesList",
          "type": "uint256[]"
        }
      ],
      "name": "mintMonsterPay",
      "outputs": [
        {
          "internalType": "uint256",
          "name": "",
          "type": "uint256"
        }
      ],
      "stateMutability": "nonpayable",
      "type": "function"
    },
    {
      "inputs": [],
      "name": "myBalance",
      "outputs": [
        {
          "internalType": "uint256",
          "name": "",
          "type": "uint256"
        }
      ],
      "stateMutability": "view",
      "type": "function"
    },
    {
      "inputs": [],
      "name": "name",
      "outputs": [
        {
          "internalType": "string",
          "name": "",
          "type": "string"
        }
      ],
      "stateMutability": "view",
      "type": "function"
    },
    {
      "inputs": [],
      "name": "owner",
      "outputs": [
        {
          "internalType": "address",
          "name": "",
          "type": "address"
        }
      ],
      "stateMutability": "view",
      "type": "function"
    },
    {
      "inputs": [],
      "name": "proxiableUUID",
      "outputs": [
        {
          "internalType": "bytes32",
          "name": "",
          "type": "bytes32"
        }
      ],
      "stateMutability": "view",
      "type": "function"
    },
    {
      "inputs": [],
      "name": "renounceOwnership",
      "outputs": [],
      "stateMutability": "nonpayable",
      "type": "function"
    },
    {
      "inputs": [],
      "name": "rewardPerToken",
      "outputs": [
        {
          "internalType": "uint256",
          "name": "",
          "type": "uint256"
        }
      ],
      "stateMutability": "view",
      "type": "function"
    },
    {
      "inputs": [],
      "name": "rewardPerTokenStored",
      "outputs": [
        {
          "internalType": "uint256",
          "name": "",
          "type": "uint256"
        }
      ],
      "stateMutability": "view",
      "type": "function"
    },
    {
      "inputs": [],
      "name": "rewardRate",
      "outputs": [
        {
          "internalType": "uint256",
          "name": "",
          "type": "uint256"
        }
      ],
      "stateMutability": "view",
      "type": "function"
    },
    {
      "inputs": [
        {
          "internalType": "address",
          "name": "",
          "type": "address"
        }
      ],
      "name": "rewards",
      "outputs": [
        {
          "internalType": "uint256",
          "name": "",
          "type": "uint256"
        }
      ],
      "stateMutability": "view",
      "type": "function"
    },
    {
      "inputs": [
        {
          "internalType": "uint256",
          "name": "_amount",
          "type": "uint256"
        }
      ],
      "name": "stake",
      "outputs": [],
      "stateMutability": "nonpayable",
      "type": "function"
    },
    {
      "inputs": [],
      "name": "stakingTotalSupply",
      "outputs": [
        {
          "internalType": "uint256",
          "name": "",
          "type": "uint256"
        }
      ],
      "stateMutability": "view",
      "type": "function"
    },
    {
      "inputs": [],
      "name": "symbol",
      "outputs": [
        {
          "internalType": "string",
          "name": "",
          "type": "string"
        }
      ],
      "stateMutability": "view",
      "type": "function"
    },
    {
      "inputs": [],
      "name": "totalSupply",
      "outputs": [
        {
          "internalType": "uint256",
          "name": "",
          "type": "uint256"
        }
      ],
      "stateMutability": "view",
      "type": "function"
    },
    {
      "inputs": [
        {
          "internalType": "address",
          "name": "to",
          "type": "address"
        },
        {
          "internalType": "uint256",
          "name": "amount",
          "type": "uint256"
        }
      ],
      "name": "transfer",
      "outputs": [
        {
          "internalType": "bool",
          "name": "",
          "type": "bool"
        }
      ],
      "stateMutability": "nonpayable",
      "type": "function"
    },
    {
      "inputs": [
        {
          "internalType": "address",
          "name": "from",
          "type": "address"
        },
        {
          "internalType": "address",
          "name": "to",
          "type": "address"
        },
        {
          "internalType": "uint256",
          "name": "amount",
          "type": "uint256"
        }
      ],
      "name": "transferFrom",
      "outputs": [
        {
          "internalType": "bool",
          "name": "",
          "type": "bool"
        }
      ],
      "stateMutability": "nonpayable",
      "type": "function"
    },
    {
      "inputs": [
        {
          "internalType": "address",
          "name": "newOwner",
          "type": "address"
        }
      ],
      "name": "transferOwnership",
      "outputs": [],
      "stateMutability": "nonpayable",
      "type": "function"
    },
    {
      "inputs": [
        {
          "internalType": "address",
          "name": "newImplementation",
          "type": "address"
        }
      ],
      "name": "upgradeTo",
      "outputs": [],
      "stateMutability": "nonpayable",
      "type": "function"
    },
    {
      "inputs": [
        {
          "internalType": "address",
          "name": "newImplementation",
          "type": "address"
        },
        {
          "internalType": "bytes",
          "name": "data",
          "type": "bytes"
        }
      ],
      "name": "upgradeToAndCall",
      "outputs": [],
      "stateMutability": "payable",
      "type": "function"
    },
    {
      "inputs": [
        {
          "internalType": "address",
          "name": "",
          "type": "address"
        }
      ],
      "name": "userRewardPerTokenPaid",
      "outputs": [
        {
          "internalType": "uint256",
          "name": "",
          "type": "uint256"
        }
      ],
      "stateMutability": "view",
      "type": "function"
    },
    {
      "inputs": [
        {
          "internalType": "uint256",
          "name": "_amount",
          "type": "uint256"
        }
      ],
      "name": "withdraw",
      "outputs": [],
      "stateMutability": "nonpayable",
      "type": "function"
    }
  ],
  "bytecode": "0x60a0604052306080523480156200001557600080fd5b506200002062000026565b620000e8565b600054610100900460ff1615620000935760405162461bcd60e51b815260206004820152602760248201527f496e697469616c697a61626c653a20636f6e747261637420697320696e697469604482015266616c697a696e6760c81b606482015260840160405180910390fd5b60005460ff9081161015620000e6576000805460ff191660ff9081179091556040519081527f7f26b83ff96e1f2b6a682f133852f6798a09c465da95921460cefb38474024989060200160405180910390a15b565b6080516125496200012060003960008181610992015281816109db01528181610b2a01528181610b6a0152610bfd01526125496000f3fe6080604052600436106101f85760003560e01c806379cc67901161010d578063c4d66de8116100a0578063cd3daf9d1161006f578063cd3daf9d1461059c578063d58ea176146105b1578063dd62ed3e146105c8578063df136d65146105e8578063f2fde38b146105ff57600080fd5b8063c4d66de81461052d578063c89d5b8b1461054d578063c8f33c9114610562578063c9116b691461057957600080fd5b806395d89b41116100dc57806395d89b41146104b8578063a457c2d7146104cd578063a694fc3a146104ed578063a9059cbb1461050d57600080fd5b806379cc67901461042b5780637b0a47ee1461044b5780638b876347146104625780638da5cb5b1461049057600080fd5b80633659cfe6116101905780634f1ef2861161015f5780634f1ef2861461039857806352d1902d146103ab57806370a08231146103c0578063713ea158146103f6578063715018a61461041657600080fd5b80633659cfe61461032357806339509351146103435780633d18b9121461036357806342966c681461037857600080fd5b806318160ddd116101cc57806318160ddd146102b057806323b872dd146102c55780632e1a7d4d146102e5578063313ce5671461030757600080fd5b80628cc262146101fd57806306fdde03146102305780630700037d14610252578063095ea7b314610280575b600080fd5b34801561020957600080fd5b5061021d610218366004611e48565b61061f565b6040519081526020015b60405180910390f35b34801561023c57600080fd5b506102456107be565b6040516102279190611e91565b34801561025e57600080fd5b5061021d61026d366004611e48565b6101336020526000908152604090205481565b34801561028c57600080fd5b506102a061029b366004611ec4565b610850565b6040519015158152602001610227565b3480156102bc57600080fd5b5060355461021d565b3480156102d157600080fd5b506102a06102e0366004611ef0565b61086a565b3480156102f157600080fd5b50610305610300366004611f31565b610890565b005b34801561031357600080fd5b5060405160128152602001610227565b34801561032f57600080fd5b5061030561033e366004611e48565b610987565b34801561034f57600080fd5b506102a061035e366004611ec4565b610a70565b34801561036f57600080fd5b50610305610a92565b34801561038457600080fd5b50610305610393366004611f31565b610b15565b6103056103a6366004611f91565b610b1f565b3480156103b757600080fd5b5061021d610bf0565b3480156103cc57600080fd5b5061021d6103db366004611e48565b6001600160a01b031660009081526033602052604090205490565b34801561040257600080fd5b5061021d610411366004612039565b610ca3565b34801561042257600080fd5b50610305610de6565b34801561043757600080fd5b50610305610446366004611ec4565b610dfa565b34801561045757600080fd5b5061021d61012e5481565b34801561046e57600080fd5b5061021d61047d366004611e48565b6101326020526000908152604090205481565b34801561049c57600080fd5b506097546040516001600160a01b039091168152602001610227565b3480156104c457600080fd5b50610245610e0f565b3480156104d957600080fd5b506102a06104e8366004611ec4565b610e1e565b3480156104f957600080fd5b50610305610508366004611f31565b610ea4565b34801561051957600080fd5b506102a0610528366004611ec4565b610f34565b34801561053957600080fd5b50610305610548366004611e48565b610f42565b34801561055957600080fd5b5061021d611160565b34801561056e57600080fd5b5061021d61012f5481565b34801561058557600080fd5b50336000908152610134602052604090205461021d565b3480156105a857600080fd5b5061021d6111a9565b3480156105bd57600080fd5b5061021d6101315481565b3480156105d457600080fd5b5061021d6105e33660046120eb565b61120e565b3480156105f457600080fd5b5061021d6101305481565b34801561060b57600080fd5b5061030561061a366004611e48565b611239565b6001600160a01b03811660009081526101336020908152604080832054610132909252822054829190670de0b6b3a76400009061065a6111a9565b610664919061213a565b6001600160a01b038616600090815261013460205260409020546106889190612151565b6106929190612170565b61069c9190612192565b9050600061012d60009054906101000a90046001600160a01b03166001600160a01b031663f095821f6040518163ffffffff1660e01b8152600401602060405180830381865afa1580156106f4573d6000803e3d6000fd5b505050506040513d601f19601f8201168201806040525081019061071891906121aa565b6040516338a00d7760e21b815233600482015290915060009081906001600160a01b0384169063e28035dc906024016040805180830381865afa158015610763573d6000803e3d6000fd5b505050506040513d601f19601f8201168201806040525081019061078791906121dc565b9150915080156107b4578161079d606486612170565b6107a79190612151565b6107b19085612192565b93505b5091949350505050565b6060603680546107cd90612208565b80601f01602080910402602001604051908101604052809291908181526020018280546107f990612208565b80156108465780601f1061081b57610100808354040283529160200191610846565b820191906000526020600020905b81548152906001019060200180831161082957829003601f168201915b5050505050905090565b60003361085e8185856112af565b60019150505b92915050565b6000336108788582856113d3565b61088385858561144d565b60019150505b9392505050565b336108996111a9565b610130554261012f556108ab8161061f565b6001600160a01b03821660009081526101336020908152604080832093909355610130546101329091529181209190915561013180548492906108ef90849061213a565b909155505033600090815261013460205260408120805484929061091490849061213a565b909155505060405163a9059cbb60e01b815233600482015260248101839052309063a9059cbb906044015b6020604051808303816000875af115801561095e573d6000803e3d6000fd5b505050506040513d601f19601f820116820180604052508101906109829190612243565b505050565b306001600160a01b037f00000000000000000000000000000000000000000000000000000000000000001614156109d95760405162461bcd60e51b81526004016109d09061225e565b60405180910390fd5b7f00000000000000000000000000000000000000000000000000000000000000006001600160a01b0316610a226000805160206124cd833981519152546001600160a01b031690565b6001600160a01b031614610a485760405162461bcd60e51b81526004016109d0906122aa565b610a518161161b565b60408051600080825260208201909252610a6d91839190611623565b50565b60003361085e818585610a83838361120e565b610a8d9190612192565b6112af565b33610a9b6111a9565b610130554261012f55610aad8161061f565b6001600160a01b0382166000908152610133602081815260408084209490945561013054610132825284842055338084529190528282208054929055915163a9059cbb60e01b815260048101929092526024820181905290309063a9059cbb9060440161093f565b610a6d338261178e565b306001600160a01b037f0000000000000000000000000000000000000000000000000000000000000000161415610b685760405162461bcd60e51b81526004016109d09061225e565b7f00000000000000000000000000000000000000000000000000000000000000006001600160a01b0316610bb16000805160206124cd833981519152546001600160a01b031690565b6001600160a01b031614610bd75760405162461bcd60e51b81526004016109d0906122aa565b610be08261161b565b610bec82826001611623565b5050565b6000306001600160a01b037f00000000000000000000000000000000000000000000000000000000000000001614610c905760405162461bcd60e51b815260206004820152603860248201527f555550535570677261646561626c653a206d757374206e6f742062652063616c60448201527f6c6564207468726f7567682064656c656761746563616c6c000000000000000060648201526084016109d0565b506000805160206124cd83398151915290565b6000808311610ceb5760405162461bcd60e51b815260206004820152601460248201527315dc9bdb99c81c185e5b595b9d08185b5bdd5b9d60621b60448201526064016109d0565b61012d546040805163f095821f60e01b815290516000926001600160a01b03169163f095821f9160048083019260209291908290030181865afa158015610d36573d6000803e3d6000fd5b505050506040513d601f19601f82011682018060405250810190610d5a91906121aa565b90506000816001600160a01b031663489cb8208686336040518463ffffffff1660e01b8152600401610d8e939291906122f6565b6020604051808303816000875af1158015610dad573d6000803e3d6000fd5b505050506040513d601f19601f82011682018060405250810190610dd19190612359565b9050610ddd3086610f34565b50949350505050565b610dee6118dc565b610df86000611936565b565b610e058233836113d3565b610bec828261178e565b6060603780546107cd90612208565b60003381610e2c828661120e565b905083811015610e8c5760405162461bcd60e51b815260206004820152602560248201527f45524332303a2064656372656173656420616c6c6f77616e63652062656c6f77604482015264207a65726f60d81b60648201526084016109d0565b610e9982868684036112af565b506001949350505050565b33610ead6111a9565b610130554261012f55610ebf8161061f565b6001600160a01b0382166000908152610133602090815260408083209390935561013054610132909152918120919091556101318054849290610f03908490612192565b9091555050336000908152610134602052604081208054849290610f28908490612192565b90915550610982905030835b60003361085e81858561144d565b600054610100900460ff1615808015610f625750600054600160ff909116105b80610f7c5750303b158015610f7c575060005460ff166001145b610fdf5760405162461bcd60e51b815260206004820152602e60248201527f496e697469616c697a61626c653a20636f6e747261637420697320616c72656160448201526d191e481a5b9a5d1a585b1a5e995960921b60648201526084016109d0565b6000805460ff191660011790558015611002576000805461ff0019166101001790555b61104660405180604001604052806007815260200166169bdb5b185b9960ca1b8152506040518060400160405280600381526020016216935360ea1b815250611988565b61104e6119b9565b6110566119e0565b61105e6119b9565b61012d80546001600160a01b0319166001600160a01b038416179055670de0b6b3a764000061012e556000601261109690600a612456565b6110a490633b9aca00612151565b905060006110b46012600a612456565b6110c2906304c4b400612151565b905060006110d26012600a612456565b6110e090631312d000612151565b905061110033826110f1858761213a565b6110fb919061213a565b611a0f565b61110a3083611a0f565b6111148582611a0f565b5050508015610bec576000805461ff0019169055604051600181527f7f26b83ff96e1f2b6a682f133852f6798a09c465da95921460cefb38474024989060200160405180910390a15050565b61013154600090156111a357610131546301e13380908161118981670de0b6b3a7640000612151565b6111939190612151565b61119d9190612170565b91505090565b50600090565b600061013154600014156111bf57506101305490565b6101315461012e5461012f546111d5904261213a565b6111df9190612151565b6111f190670de0b6b3a7640000612151565b6111fb9190612170565b610130546112099190612192565b905090565b6001600160a01b03918216600090815260346020908152604080832093909416825291909152205490565b6112416118dc565b6001600160a01b0381166112a65760405162461bcd60e51b815260206004820152602660248201527f4f776e61626c653a206e6577206f776e657220697320746865207a65726f206160448201526564647265737360d01b60648201526084016109d0565b610a6d81611936565b6001600160a01b0383166113115760405162461bcd60e51b8152602060048201526024808201527f45524332303a20617070726f76652066726f6d20746865207a65726f206164646044820152637265737360e01b60648201526084016109d0565b6001600160a01b0382166113725760405162461bcd60e51b815260206004820152602260248201527f45524332303a20617070726f766520746f20746865207a65726f206164647265604482015261737360f01b60648201526084016109d0565b6001600160a01b0383811660008181526034602090815260408083209487168084529482529182902085905590518481527f8c5be1e5ebec7d5bd14f71427d1e84f3dd0314c0f7b2291e5b200ac8c7c3b925910160405180910390a3505050565b60006113df848461120e565b90506000198114611447578181101561143a5760405162461bcd60e51b815260206004820152601d60248201527f45524332303a20696e73756666696369656e7420616c6c6f77616e636500000060448201526064016109d0565b61144784848484036112af565b50505050565b6001600160a01b0383166114b15760405162461bcd60e51b815260206004820152602560248201527f45524332303a207472616e736665722066726f6d20746865207a65726f206164604482015264647265737360d81b60648201526084016109d0565b6001600160a01b0382166115135760405162461bcd60e51b815260206004820152602360248201527f45524332303a207472616e7366657220746f20746865207a65726f206164647260448201526265737360e81b60648201526084016109d0565b6001600160a01b0383166000908152603360205260409020548181101561158b5760405162461bcd60e51b815260206004820152602660248201527f45524332303a207472616e7366657220616d6f756e7420657863656564732062604482015265616c616e636560d01b60648201526084016109d0565b6001600160a01b038085166000908152603360205260408082208585039055918516815290812080548492906115c2908490612192565b92505081905550826001600160a01b0316846001600160a01b03167fddf252ad1be2c89b69c2b068fc378daa952ba7f163c4a11628f55a4df523b3ef8460405161160e91815260200190565b60405180910390a3611447565b610a6d6118dc565b7f4910fdfa16fed3260ed0e7147f7cc6da11a60208b5b9406d12a635614ffd91435460ff16156116565761098283611aee565b826001600160a01b03166352d1902d6040518163ffffffff1660e01b8152600401602060405180830381865afa9250505080156116b0575060408051601f3d908101601f191682019092526116ad91810190612359565b60015b6117135760405162461bcd60e51b815260206004820152602e60248201527f45524331393637557067726164653a206e657720696d706c656d656e7461746960448201526d6f6e206973206e6f74205555505360901b60648201526084016109d0565b6000805160206124cd83398151915281146117825760405162461bcd60e51b815260206004820152602960248201527f45524331393637557067726164653a20756e737570706f727465642070726f786044820152681a58589b195555525160ba1b60648201526084016109d0565b50610982838383611b8a565b6001600160a01b0382166117ee5760405162461bcd60e51b815260206004820152602160248201527f45524332303a206275726e2066726f6d20746865207a65726f206164647265736044820152607360f81b60648201526084016109d0565b6001600160a01b038216600090815260336020526040902054818110156118625760405162461bcd60e51b815260206004820152602260248201527f45524332303a206275726e20616d6f756e7420657863656564732062616c616e604482015261636560f01b60648201526084016109d0565b6001600160a01b038316600090815260336020526040812083830390556035805484929061189190849061213a565b90915550506040518281526000906001600160a01b038516907fddf252ad1be2c89b69c2b068fc378daa952ba7f163c4a11628f55a4df523b3ef9060200160405180910390a3505050565b6097546001600160a01b03163314610df85760405162461bcd60e51b815260206004820181905260248201527f4f776e61626c653a2063616c6c6572206973206e6f7420746865206f776e657260448201526064016109d0565b609780546001600160a01b038381166001600160a01b0319831681179093556040519116919082907f8be0079c531659141344cd1fd0a4f28419497f9722a3daafe3b4186f6b6457e090600090a35050565b600054610100900460ff166119af5760405162461bcd60e51b81526004016109d090612465565b610bec8282611baf565b600054610100900460ff16610df85760405162461bcd60e51b81526004016109d090612465565b600054610100900460ff16611a075760405162461bcd60e51b81526004016109d090612465565b610df8611bfd565b6001600160a01b038216611a655760405162461bcd60e51b815260206004820152601f60248201527f45524332303a206d696e7420746f20746865207a65726f20616464726573730060448201526064016109d0565b8060356000828254611a779190612192565b90915550506001600160a01b03821660009081526033602052604081208054839290611aa4908490612192565b90915550506040518181526001600160a01b038316906000907fddf252ad1be2c89b69c2b068fc378daa952ba7f163c4a11628f55a4df523b3ef9060200160405180910390a35050565b6001600160a01b0381163b611b5b5760405162461bcd60e51b815260206004820152602d60248201527f455243313936373a206e657720696d706c656d656e746174696f6e206973206e60448201526c1bdd08184818dbdb9d1c9858dd609a1b60648201526084016109d0565b6000805160206124cd83398151915280546001600160a01b0319166001600160a01b0392909216919091179055565b611b9383611c2d565b600082511180611ba05750805b15610982576114478383611c6d565b600054610100900460ff16611bd65760405162461bcd60e51b81526004016109d090612465565b8151611be9906036906020850190611d9a565b508051610982906037906020840190611d9a565b600054610100900460ff16611c245760405162461bcd60e51b81526004016109d090612465565b610df833611936565b611c3681611aee565b6040516001600160a01b038216907fbc7cd75a20ee27fd9adebab32041f755214dbc6bffa90cc0225b39da2e5c2d3b90600090a250565b60606001600160a01b0383163b611cd55760405162461bcd60e51b815260206004820152602660248201527f416464726573733a2064656c65676174652063616c6c20746f206e6f6e2d636f6044820152651b9d1c9858dd60d21b60648201526084016109d0565b600080846001600160a01b031684604051611cf091906124b0565b600060405180830381855af49150503d8060008114611d2b576040519150601f19603f3d011682016040523d82523d6000602084013e611d30565b606091505b5091509150611d5882826040518060600160405280602781526020016124ed60279139611d61565b95945050505050565b60608315611d70575081610889565b825115611d805782518084602001fd5b8160405162461bcd60e51b81526004016109d09190611e91565b828054611da690612208565b90600052602060002090601f016020900481019282611dc85760008555611e0e565b82601f10611de157805160ff1916838001178555611e0e565b82800160010185558215611e0e579182015b82811115611e0e578251825591602001919060010190611df3565b50611e1a929150611e1e565b5090565b5b80821115611e1a5760008155600101611e1f565b6001600160a01b0381168114610a6d57600080fd5b600060208284031215611e5a57600080fd5b813561088981611e33565b60005b83811015611e80578181015183820152602001611e68565b838111156114475750506000910152565b6020815260008251806020840152611eb0816040850160208701611e65565b601f01601f19169190910160400192915050565b60008060408385031215611ed757600080fd5b8235611ee281611e33565b946020939093013593505050565b600080600060608486031215611f0557600080fd5b8335611f1081611e33565b92506020840135611f2081611e33565b929592945050506040919091013590565b600060208284031215611f4357600080fd5b5035919050565b634e487b7160e01b600052604160045260246000fd5b604051601f8201601f1916810167ffffffffffffffff81118282101715611f8957611f89611f4a565b604052919050565b60008060408385031215611fa457600080fd5b8235611faf81611e33565b915060208381013567ffffffffffffffff80821115611fcd57600080fd5b818601915086601f830112611fe157600080fd5b813581811115611ff357611ff3611f4a565b612005601f8201601f19168501611f60565b9150808252878482850101111561201b57600080fd5b80848401858401376000848284010152508093505050509250929050565b6000806040838503121561204c57600080fd5b8235915060208084013567ffffffffffffffff8082111561206c57600080fd5b818601915086601f83011261208057600080fd5b81358181111561209257612092611f4a565b8060051b91506120a3848301611f60565b81815291830184019184810190898411156120bd57600080fd5b938501935b838510156120db578435825293850193908501906120c2565b8096505050505050509250929050565b600080604083850312156120fe57600080fd5b823561210981611e33565b9150602083013561211981611e33565b809150509250929050565b634e487b7160e01b600052601160045260246000fd5b60008282101561214c5761214c612124565b500390565b600081600019048311821515161561216b5761216b612124565b500290565b60008261218d57634e487b7160e01b600052601260045260246000fd5b500490565b600082198211156121a5576121a5612124565b500190565b6000602082840312156121bc57600080fd5b815161088981611e33565b805180151581146121d757600080fd5b919050565b600080604083850312156121ef57600080fd5b825191506121ff602084016121c7565b90509250929050565b600181811c9082168061221c57607f821691505b6020821081141561223d57634e487b7160e01b600052602260045260246000fd5b50919050565b60006020828403121561225557600080fd5b610889826121c7565b6020808252602c908201527f46756e6374696f6e206d7573742062652063616c6c6564207468726f7567682060408201526b19195b1959d85d1958d85b1b60a21b606082015260800190565b6020808252602c908201527f46756e6374696f6e206d7573742062652063616c6c6564207468726f7567682060408201526b6163746976652070726f787960a01b606082015260800190565b6000606082018583526020606081850152818651808452608086019150828801935060005b818110156123375784518352938301939183019160010161231b565b50506001600160a01b0395909516604094909401939093525091949350505050565b60006020828403121561236b57600080fd5b5051919050565b600181815b808511156123ad57816000190482111561239357612393612124565b808516156123a057918102915b93841c9390800290612377565b509250929050565b6000826123c457506001610864565b816123d157506000610864565b81600181146123e757600281146123f15761240d565b6001915050610864565b60ff84111561240257612402612124565b50506001821b610864565b5060208310610133831016604e8410600b8410161715612430575081810a610864565b61243a8383612372565b806000190482111561244e5761244e612124565b029392505050565b600061088960ff8416836123b5565b6020808252602b908201527f496e697469616c697a61626c653a20636f6e7472616374206973206e6f74206960408201526a6e697469616c697a696e6760a81b606082015260800190565b600082516124c2818460208701611e65565b919091019291505056fe360894a13ba1a3210667c828492db98dca3e2076cc3735a920a3ca505d382bbc416464726573733a206c6f772d6c6576656c2064656c65676174652063616c6c206661696c6564a264697066735822122076470aac1e2faae3b40fdd6e2b72d43543a1ce5097aee3e9baa641141109093264736f6c634300080c0033",
  "linkReferences": {},
  "deployedLinkReferences": {}
}