{
  "_format": "hh-sol-artifact-1",
  "contractName": "ZombieNFT",
  "sourceName": "src/backend/contracts/ZombieNFT.sol",
  "abi": [
    {
      "inputs": [
        {
          "internalType": "address",
          "name": "_contractMain",
          "type": "address"
        },
        {
          "internalType": "address",
          "name": "_contractLands",
          "type": "address"
        },
        {
          "internalType": "address",
          "name": "_contractTokenFT",
          "type": "address"
        }
      ],
      "stateMutability": "nonpayable",
      "type": "constructor"
    },
    {
      "inputs": [
        {
          "internalType": "string",
          "name": "message",
          "type": "string"
        }
      ],
      "name": "ZombiesKillError",
      "type": "error"
    },
    {
      "inputs": [
        {
          "internalType": "string",
          "name": "message",
          "type": "string"
        }
      ],
      "name": "ZombiesMintError",
      "type": "error"
    },
    {
      "anonymous": false,
      "inputs": [
        {
          "indexed": true,
          "internalType": "address",
          "name": "owner",
          "type": "address"
        },
        {
          "indexed": true,
          "internalType": "address",
          "name": "approved",
          "type": "address"
        },
        {
          "indexed": true,
          "internalType": "uint256",
          "name": "tokenId",
          "type": "uint256"
        }
      ],
      "name": "Approval",
      "type": "event"
    },
    {
      "anonymous": false,
      "inputs": [
        {
          "indexed": true,
          "internalType": "address",
          "name": "owner",
          "type": "address"
        },
        {
          "indexed": true,
          "internalType": "address",
          "name": "operator",
          "type": "address"
        },
        {
          "indexed": false,
          "internalType": "bool",
          "name": "approved",
          "type": "bool"
        }
      ],
      "name": "ApprovalForAll",
      "type": "event"
    },
    {
      "anonymous": false,
      "inputs": [
        {
          "indexed": true,
          "internalType": "address",
          "name": "previousOwner",
          "type": "address"
        },
        {
          "indexed": true,
          "internalType": "address",
          "name": "newOwner",
          "type": "address"
        }
      ],
      "name": "OwnershipTransferred",
      "type": "event"
    },
    {
      "anonymous": false,
      "inputs": [
        {
          "indexed": true,
          "internalType": "address",
          "name": "from",
          "type": "address"
        },
        {
          "indexed": true,
          "internalType": "address",
          "name": "to",
          "type": "address"
        },
        {
          "indexed": true,
          "internalType": "uint256",
          "name": "tokenId",
          "type": "uint256"
        }
      ],
      "name": "Transfer",
      "type": "event"
    },
    {
      "inputs": [
        {
          "internalType": "string",
          "name": "title",
          "type": "string"
        },
        {
          "internalType": "string",
          "name": "image",
          "type": "string"
        },
        {
          "internalType": "string[]",
          "name": "zombieImages",
          "type": "string[]"
        }
      ],
      "name": "addCollection",
      "outputs": [],
      "stateMutability": "nonpayable",
      "type": "function"
    },
    {
      "inputs": [
        {
          "internalType": "address",
          "name": "to",
          "type": "address"
        },
        {
          "internalType": "uint256",
          "name": "tokenId",
          "type": "uint256"
        }
      ],
      "name": "approve",
      "outputs": [],
      "stateMutability": "nonpayable",
      "type": "function"
    },
    {
      "inputs": [
        {
          "internalType": "address",
          "name": "owner",
          "type": "address"
        }
      ],
      "name": "balanceOf",
      "outputs": [
        {
          "internalType": "uint256",
          "name": "",
          "type": "uint256"
        }
      ],
      "stateMutability": "view",
      "type": "function"
    },
    {
      "inputs": [
        {
          "internalType": "uint256",
          "name": "tokenId",
          "type": "uint256"
        }
      ],
      "name": "burn",
      "outputs": [],
      "stateMutability": "nonpayable",
      "type": "function"
    },
    {
      "inputs": [
        {
          "internalType": "uint256",
          "name": "",
          "type": "uint256"
        }
      ],
      "name": "cardRarity",
      "outputs": [
        {
          "internalType": "string",
          "name": "",
          "type": "string"
        }
      ],
      "stateMutability": "view",
      "type": "function"
    },
    {
      "inputs": [],
      "name": "collectionCount",
      "outputs": [
        {
          "internalType": "uint256",
          "name": "",
          "type": "uint256"
        }
      ],
      "stateMutability": "view",
      "type": "function"
    },
    {
      "inputs": [
        {
          "internalType": "uint256",
          "name": "",
          "type": "uint256"
        }
      ],
      "name": "collections",
      "outputs": [
        {
          "internalType": "string",
          "name": "title",
          "type": "string"
        },
        {
          "internalType": "string",
          "name": "image",
          "type": "string"
        }
      ],
      "stateMutability": "view",
      "type": "function"
    },
    {
      "inputs": [
        {
          "internalType": "uint256",
          "name": "tokenId",
          "type": "uint256"
        }
      ],
      "name": "getApproved",
      "outputs": [
        {
          "internalType": "address",
          "name": "",
          "type": "address"
        }
      ],
      "stateMutability": "view",
      "type": "function"
    },
    {
      "inputs": [
        {
          "internalType": "address",
          "name": "owner",
          "type": "address"
        },
        {
          "internalType": "address",
          "name": "operator",
          "type": "address"
        }
      ],
      "name": "isApprovedForAll",
      "outputs": [
        {
          "internalType": "bool",
          "name": "",
          "type": "bool"
        }
      ],
      "stateMutability": "view",
      "type": "function"
    },
    {
      "inputs": [
        {
          "internalType": "uint256",
          "name": "tokenId",
          "type": "uint256"
        }
      ],
      "name": "killZombie",
      "outputs": [],
      "stateMutability": "nonpayable",
      "type": "function"
    },
    {
      "inputs": [],
      "name": "name",
      "outputs": [
        {
          "internalType": "string",
          "name": "",
          "type": "string"
        }
      ],
      "stateMutability": "view",
      "type": "function"
    },
    {
      "inputs": [],
      "name": "owner",
      "outputs": [
        {
          "internalType": "address",
          "name": "",
          "type": "address"
        }
      ],
      "stateMutability": "view",
      "type": "function"
    },
    {
      "inputs": [
        {
          "internalType": "uint256",
          "name": "tokenId",
          "type": "uint256"
        }
      ],
      "name": "ownerOf",
      "outputs": [
        {
          "internalType": "address",
          "name": "",
          "type": "address"
        }
      ],
      "stateMutability": "view",
      "type": "function"
    },
    {
      "inputs": [],
      "name": "renounceOwnership",
      "outputs": [],
      "stateMutability": "nonpayable",
      "type": "function"
    },
    {
      "inputs": [
        {
          "internalType": "uint256",
          "name": "landId",
          "type": "uint256"
        }
      ],
      "name": "safeMint",
      "outputs": [],
      "stateMutability": "nonpayable",
      "type": "function"
    },
    {
      "inputs": [
        {
          "internalType": "address",
          "name": "from",
          "type": "address"
        },
        {
          "internalType": "address",
          "name": "to",
          "type": "address"
        },
        {
          "internalType": "uint256",
          "name": "tokenId",
          "type": "uint256"
        }
      ],
      "name": "safeTransferFrom",
      "outputs": [],
      "stateMutability": "nonpayable",
      "type": "function"
    },
    {
      "inputs": [
        {
          "internalType": "address",
          "name": "from",
          "type": "address"
        },
        {
          "internalType": "address",
          "name": "to",
          "type": "address"
        },
        {
          "internalType": "uint256",
          "name": "tokenId",
          "type": "uint256"
        },
        {
          "internalType": "bytes",
          "name": "_data",
          "type": "bytes"
        }
      ],
      "name": "safeTransferFrom",
      "outputs": [],
      "stateMutability": "nonpayable",
      "type": "function"
    },
    {
      "inputs": [
        {
          "internalType": "address",
          "name": "operator",
          "type": "address"
        },
        {
          "internalType": "bool",
          "name": "approved",
          "type": "bool"
        }
      ],
      "name": "setApprovalForAll",
      "outputs": [],
      "stateMutability": "nonpayable",
      "type": "function"
    },
    {
      "inputs": [
        {
          "internalType": "bytes4",
          "name": "_interfaceId",
          "type": "bytes4"
        }
      ],
      "name": "supportsInterface",
      "outputs": [
        {
          "internalType": "bool",
          "name": "",
          "type": "bool"
        }
      ],
      "stateMutability": "view",
      "type": "function"
    },
    {
      "inputs": [],
      "name": "symbol",
      "outputs": [
        {
          "internalType": "string",
          "name": "",
          "type": "string"
        }
      ],
      "stateMutability": "view",
      "type": "function"
    },
    {
      "inputs": [
        {
          "internalType": "uint256",
          "name": "index",
          "type": "uint256"
        }
      ],
      "name": "tokenByIndex",
      "outputs": [
        {
          "internalType": "uint256",
          "name": "",
          "type": "uint256"
        }
      ],
      "stateMutability": "view",
      "type": "function"
    },
    {
      "inputs": [
        {
          "internalType": "address",
          "name": "owner",
          "type": "address"
        },
        {
          "internalType": "uint256",
          "name": "index",
          "type": "uint256"
        }
      ],
      "name": "tokenOfOwnerByIndex",
      "outputs": [
        {
          "internalType": "uint256",
          "name": "",
          "type": "uint256"
        }
      ],
      "stateMutability": "view",
      "type": "function"
    },
    {
      "inputs": [
        {
          "internalType": "uint256",
          "name": "_tokenId",
          "type": "uint256"
        }
      ],
      "name": "tokenURI",
      "outputs": [
        {
          "internalType": "string",
          "name": "",
          "type": "string"
        }
      ],
      "stateMutability": "view",
      "type": "function"
    },
    {
      "inputs": [],
      "name": "totalSupply",
      "outputs": [
        {
          "internalType": "uint256",
          "name": "",
          "type": "uint256"
        }
      ],
      "stateMutability": "view",
      "type": "function"
    },
    {
      "inputs": [
        {
          "internalType": "address",
          "name": "from",
          "type": "address"
        },
        {
          "internalType": "address",
          "name": "to",
          "type": "address"
        },
        {
          "internalType": "uint256",
          "name": "tokenId",
          "type": "uint256"
        }
      ],
      "name": "transferFrom",
      "outputs": [],
      "stateMutability": "nonpayable",
      "type": "function"
    },
    {
      "inputs": [
        {
          "internalType": "address",
          "name": "newOwner",
          "type": "address"
        }
      ],
      "name": "transferOwnership",
      "outputs": [],
      "stateMutability": "nonpayable",
      "type": "function"
    },
    {
      "inputs": [
        {
          "internalType": "uint256",
          "name": "_startIndex",
          "type": "uint256"
        },
        {
          "internalType": "uint8",
          "name": "_count",
          "type": "uint8"
        }
      ],
      "name": "userZombies",
      "outputs": [
        {
          "components": [
            {
              "internalType": "uint256",
              "name": "tokenId",
              "type": "uint256"
            },
            {
              "internalType": "enum ZombieNFT.CardRarity",
              "name": "cardRarity",
              "type": "uint8"
            },
            {
              "internalType": "uint256",
              "name": "collection",
              "type": "uint256"
            },
            {
              "internalType": "uint256",
              "name": "killTokens",
              "type": "uint256"
            },
            {
              "internalType": "uint256",
              "name": "salePrice",
              "type": "uint256"
            },
            {
              "internalType": "uint256",
              "name": "mintDate",
              "type": "uint256"
            },
            {
              "internalType": "string",
              "name": "media",
              "type": "string"
            },
            {
              "internalType": "uint8",
              "name": "health",
              "type": "uint8"
            },
            {
              "internalType": "uint8",
              "name": "attack",
              "type": "uint8"
            },
            {
              "internalType": "uint8",
              "name": "brain",
              "type": "uint8"
            },
            {
              "internalType": "uint8",
              "name": "speed",
              "type": "uint8"
            },
            {
              "internalType": "string",
              "name": "nftType",
              "type": "string"
            },
            {
              "internalType": "address",
              "name": "ownerId",
              "type": "address"
            }
          ],
          "internalType": "struct ZombieNFT.Zombie[]",
          "name": "",
          "type": "tuple[]"
        }
      ],
      "stateMutability": "view",
      "type": "function"
    }
  ],
  "bytecode": "0x60806040523480156200001157600080fd5b5060405162005e2038038062005e208339818101604052810190620000379190620004d7565b6040518060400160405280600781526020017f5a6f6d4c616e64000000000000000000000000000000000000000000000000008152506040518060400160405280600481526020017f5a4d4c5a000000000000000000000000000000000000000000000000000000008152508160009080519060200190620000bb92919062000410565b508060019080519060200190620000d492919062000410565b505050620000f7620000eb6200034260201b60201c565b6200034a60201b60201c565b82600d60006101000a81548173ffffffffffffffffffffffffffffffffffffffff021916908373ffffffffffffffffffffffffffffffffffffffff16021790555081600e60006101000a81548173ffffffffffffffffffffffffffffffffffffffff021916908373ffffffffffffffffffffffffffffffffffffffff16021790555080600f60006101000a81548173ffffffffffffffffffffffffffffffffffffffff021916908373ffffffffffffffffffffffffffffffffffffffff1602179055506040518060400160405280600681526020017f436f6d6d6f6e00000000000000000000000000000000000000000000000000008152506013600080815260200190815260200160002090805190602001906200021892919062000410565b506040518060400160405280600881526020017f556e636f6d6d6f6e000000000000000000000000000000000000000000000000815250601360006001815260200190815260200160002090805190602001906200027892919062000410565b506040518060400160405280600481526020017f526172650000000000000000000000000000000000000000000000000000000081525060136000600281526020019081526020016000209080519060200190620002d892919062000410565b506040518060400160405280600481526020017f4570696300000000000000000000000000000000000000000000000000000000815250601360006003815260200190815260200160002090805190602001906200033892919062000410565b50505050620005e0565b600033905090565b6000600b60009054906101000a900473ffffffffffffffffffffffffffffffffffffffff16905081600b60006101000a81548173ffffffffffffffffffffffffffffffffffffffff021916908373ffffffffffffffffffffffffffffffffffffffff1602179055508173ffffffffffffffffffffffffffffffffffffffff168173ffffffffffffffffffffffffffffffffffffffff167f8be0079c531659141344cd1fd0a4f28419497f9722a3daafe3b4186f6b6457e060405160405180910390a35050565b8280546200041e9062000561565b90600052602060002090601f0160209004810192826200044257600085556200048e565b82601f106200045d57805160ff19168380011785556200048e565b828001600101855582156200048e579182015b828111156200048d57825182559160200191906001019062000470565b5b5090506200049d9190620004a1565b5090565b5b80821115620004bc576000816000905550600101620004a2565b5090565b600081519050620004d181620005c6565b92915050565b600080600060608486031215620004ed57600080fd5b6000620004fd86828701620004c0565b93505060206200051086828701620004c0565b92505060406200052386828701620004c0565b9150509250925092565b60006200053a8262000541565b9050919050565b600073ffffffffffffffffffffffffffffffffffffffff82169050919050565b600060028204905060018216806200057a57607f821691505b6020821081141562000591576200059062000597565b5b50919050565b7f4e487b7100000000000000000000000000000000000000000000000000000000600052602260045260246000fd5b620005d1816200052d565b8114620005dd57600080fd5b50565b61583080620005f06000396000f3fe608060405234801561001057600080fd5b50600436106101a95760003560e01c80634f6ccce7116100f9578063b88d4fde11610097578063d57f966b11610071578063d57f966b146104dc578063e985e9c5146104fa578063f2fde38b1461052a578063fdbda0ec14610546576101a9565b8063b88d4fde14610460578063bd5f161c1461047c578063c87b56dd146104ac576101a9565b8063715018a6116100d3578063715018a6146103fe5780638da5cb5b1461040857806395d89b4114610426578063a22cb46514610444576101a9565b80634f6ccce71461036e5780636352211e1461039e57806370a08231146103ce576101a9565b806318160ddd1161016657806331c864e81161014057806331c864e8146102fe57806341cdb8481461031a57806342842e0e1461033657806342966c6814610352576101a9565b806318160ddd1461029457806323b872dd146102b25780632f745c59146102ce576101a9565b806301ffc9a7146101ae57806306fdde03146101de578063081812fc146101fc578063095ea7b31461022c578063112400f9146102485780631313761114610278575b600080fd5b6101c860048036038101906101c39190613ee7565b610577565b6040516101d591906147e6565b60405180910390f35b6101e6610589565b6040516101f39190614801565b60405180910390f35b61021660048036038101906102119190613fd0565b61061b565b6040516102239190614734565b60405180910390f35b61024660048036038101906102419190613eab565b6106a0565b005b610262600480360381019061025d9190613ff9565b6107b8565b60405161026f91906147c4565b60405180910390f35b610292600480360381019061028d9190613f39565b610b9a565b005b61029c610cbf565b6040516102a99190614b5a565b60405180910390f35b6102cc60048036038101906102c79190613da5565b610ccc565b005b6102e860048036038101906102e39190613eab565b610d2c565b6040516102f59190614b5a565b60405180910390f35b61031860048036038101906103139190613fd0565b610dd1565b005b610334600480360381019061032f9190613fd0565b61141c565b005b610350600480360381019061034b9190613da5565b611565565b005b61036c60048036038101906103679190613fd0565b611585565b005b61038860048036038101906103839190613fd0565b6115e1565b6040516103959190614b5a565b60405180910390f35b6103b860048036038101906103b39190613fd0565b611678565b6040516103c59190614734565b60405180910390f35b6103e860048036038101906103e39190613d17565b61172a565b6040516103f59190614b5a565b60405180910390f35b6104066117e2565b005b61041061186a565b60405161041d9190614734565b60405180910390f35b61042e611894565b60405161043b9190614801565b60405180910390f35b61045e60048036038101906104599190613e6f565b611926565b005b61047a60048036038101906104759190613df4565b61193c565b005b61049660048036038101906104919190613fd0565b61199e565b6040516104a39190614801565b60405180910390f35b6104c660048036038101906104c19190613fd0565b611a3e565b6040516104d39190614801565b60405180910390f35b6104e4611a50565b6040516104f19190614b5a565b60405180910390f35b610514600480360381019061050f9190613d69565b611a56565b60405161052191906147e6565b60405180910390f35b610544600480360381019061053f9190613d17565b611aea565b005b610560600480360381019061055b9190613fd0565b611be2565b60405161056e929190614823565b60405180910390f35b600061058282611d16565b9050919050565b60606000805461059890614ee9565b80601f01602080910402602001604051908101604052809291908181526020018280546105c490614ee9565b80156106115780601f106105e657610100808354040283529160200191610611565b820191906000526020600020905b8154815290600101906020018083116105f457829003601f168201915b5050505050905090565b600061062682611d90565b610665576040517f08c379a000000000000000000000000000000000000000000000000000000000815260040161065c90614a3a565b60405180910390fd5b6004600083815260200190815260200160002060009054906101000a900473ffffffffffffffffffffffffffffffffffffffff169050919050565b60006106ab82611678565b90508073ffffffffffffffffffffffffffffffffffffffff168373ffffffffffffffffffffffffffffffffffffffff16141561071c576040517f08c379a000000000000000000000000000000000000000000000000000000000815260040161071390614a9a565b60405180910390fd5b8073ffffffffffffffffffffffffffffffffffffffff1661073b611dfc565b73ffffffffffffffffffffffffffffffffffffffff16148061076a575061076981610764611dfc565b611a56565b5b6107a9576040517f08c379a00000000000000000000000000000000000000000000000000000000081526004016107a09061495a565b60405180910390fd5b6107b38383611e04565b505050565b606060008260ff1667ffffffffffffffff8111156107ff577f4e487b7100000000000000000000000000000000000000000000000000000000600052604160045260246000fd5b60405190808252806020026020018201604052801561083857816020015b6108256138c6565b81526020019060019003908161081d5790505b50905060006108463361172a565b905060008590505b8460ff16811015610b8e5780821115610b7b57600061086d3383610d2c565b905060106000828152602001908152602001600020604051806101a0016040529081600082015481526020016001820160009054906101000a900460ff1660038111156108e3577f4e487b7100000000000000000000000000000000000000000000000000000000600052602160045260246000fd5b600381111561091b577f4e487b7100000000000000000000000000000000000000000000000000000000600052602160045260246000fd5b81526020016002820154815260200160038201548152602001600482015481526020016005820154815260200160068201805461095790614ee9565b80601f016020809104026020016040519081016040528092919081815260200182805461098390614ee9565b80156109d05780601f106109a5576101008083540402835291602001916109d0565b820191906000526020600020905b8154815290600101906020018083116109b357829003601f168201915b505050505081526020016007820160009054906101000a900460ff1660ff1660ff1681526020016007820160019054906101000a900460ff1660ff1660ff1681526020016007820160029054906101000a900460ff1660ff1660ff1681526020016007820160039054906101000a900460ff1660ff1660ff168152602001600882018054610a5d90614ee9565b80601f0160208091040260200160405190810160405280929190818152602001828054610a8990614ee9565b8015610ad65780601f10610aab57610100808354040283529160200191610ad6565b820191906000526020600020905b815481529060010190602001808311610ab957829003601f168201915b505050505081526020016009820160009054906101000a900473ffffffffffffffffffffffffffffffffffffffff1673ffffffffffffffffffffffffffffffffffffffff1673ffffffffffffffffffffffffffffffffffffffff1681525050848381518110610b6e577f4e487b7100000000000000000000000000000000000000000000000000000000600052603260045260246000fd5b6020026020010181905250505b8080610b8690614f4c565b91505061084e565b50819250505092915050565b610ba2611dfc565b73ffffffffffffffffffffffffffffffffffffffff16610bc061186a565b73ffffffffffffffffffffffffffffffffffffffff1614610c16576040517f08c379a0000000000000000000000000000000000000000000000000000000008152600401610c0d90614a5a565b60405180910390fd5b6040518060600160405280848152602001838152602001828152506011600060125481526020019081526020016000206000820151816000019080519060200190610c62929190613988565b506020820151816001019080519060200190610c7f929190613988565b506040820151816002019080519060200190610c9c929190613a0e565b50905050600160126000828254610cb39190614cb5565b92505081905550505050565b6000600880549050905090565b610cdd610cd7611dfc565b82611ebd565b610d1c576040517f08c379a0000000000000000000000000000000000000000000000000000000008152600401610d1390614aba565b60405180910390fd5b610d27838383611f9b565b505050565b6000610d378361172a565b8210610d78576040517f08c379a0000000000000000000000000000000000000000000000000000000008152600401610d6f9061485a565b60405180910390fd5b600660008473ffffffffffffffffffffffffffffffffffffffff1673ffffffffffffffffffffffffffffffffffffffff168152602001908152602001600020600083815260200190815260200160002054905092915050565b3373ffffffffffffffffffffffffffffffffffffffff16600e60009054906101000a900473ffffffffffffffffffffffffffffffffffffffff1673ffffffffffffffffffffffffffffffffffffffff16636352211e836040518263ffffffff1660e01b8152600401610e439190614b5a565b60206040518083038186803b158015610e5b57600080fd5b505afa158015610e6f573d6000803e3d6000fd5b505050506040513d601f19601f82011682018060405250810190610e939190613d40565b73ffffffffffffffffffffffffffffffffffffffff1614610ee9576040517fea7a24bc000000000000000000000000000000000000000000000000000000008152600401610ee090614afa565b60405180910390fd5b6000600e60009054906101000a900473ffffffffffffffffffffffffffffffffffffffff1673ffffffffffffffffffffffffffffffffffffffff1663e7e937b9836040518263ffffffff1660e01b8152600401610f469190614b5a565b60206040518083038186803b158015610f5e57600080fd5b505afa158015610f72573d6000803e3d6000fd5b505050506040513d601f19601f82011682018060405250810190610f969190614035565b905060008160ff1611156113dd5760005b8160ff168160ff16101561134a576000610fc082612202565b90506000610fd9600584610fd49190614d0b565b612287565b90506000610ff3600a85610fed9190614d0b565b836122ce565b90506000611001600c612407565b9050600061101c600f876110159190614d0b565b6031612415565b905060006110376014886110309190614d0b565b6018612415565b9050600061105260198961104b9190614d0b565b6018612415565b9050600061106d601e8a6110669190614d0b565b6013612415565b9050600061107e898686868661246a565b905061108a600c61264f565b6110943387612665565b61109e8688612683565b604051806101a001604052808781526020018a60038111156110e9577f4e487b7100000000000000000000000000000000000000000000000000000000600052602160045260246000fd5b8152602001898152602001828152602001600081526020014281526020018881526020018660ff1681526020018560ff1681526020018460ff1681526020018360ff1681526020016040518060400160405280600681526020017f5a6f6d626965000000000000000000000000000000000000000000000000000081525081526020013373ffffffffffffffffffffffffffffffffffffffff16815250601060008881526020019081526020016000206000820151816000015560208201518160010160006101000a81548160ff021916908360038111156111f4577f4e487b7100000000000000000000000000000000000000000000000000000000600052602160045260246000fd5b021790555060408201518160020155606082015181600301556080820151816004015560a0820151816005015560c082015181600601908051906020019061123d929190613988565b5060e08201518160070160006101000a81548160ff021916908360ff1602179055506101008201518160070160016101000a81548160ff021916908360ff1602179055506101208201518160070160026101000a81548160ff021916908360ff1602179055506101408201518160070160036101000a81548160ff021916908360ff1602179055506101608201518160080190805190602001906112e2929190613988565b506101808201518160090160006101000a81548173ffffffffffffffffffffffffffffffffffffffff021916908373ffffffffffffffffffffffffffffffffffffffff160217905550905050505050505050505050808061134290614f95565b915050610fa7565b50600e60009054906101000a900473ffffffffffffffffffffffffffffffffffffffff1673ffffffffffffffffffffffffffffffffffffffff166317cdd616836040518263ffffffff1660e01b81526004016113a69190614b5a565b600060405180830381600087803b1580156113c057600080fd5b505af11580156113d4573d6000803e3d6000fd5b50505050611418565b6040517fea7a24bc00000000000000000000000000000000000000000000000000000000815260040161140f90614b3a565b60405180910390fd5b5050565b60006010600083815260200190815260200160002090503373ffffffffffffffffffffffffffffffffffffffff168160090160009054906101000a900473ffffffffffffffffffffffffffffffffffffffff1673ffffffffffffffffffffffffffffffffffffffff16146114c5576040517fbb20bcd30000000000000000000000000000000000000000000000000000000081526004016114bc906149da565b60405180910390fd5b6114ce826126f7565b600f60009054906101000a900473ffffffffffffffffffffffffffffffffffffffff1673ffffffffffffffffffffffffffffffffffffffff16634b45011a3383600301546040518363ffffffff1660e01b815260040161152f92919061479b565b600060405180830381600087803b15801561154957600080fd5b505af115801561155d573d6000803e3d6000fd5b505050505050565b6115808383836040518060200160405280600081525061193c565b505050565b611596611590611dfc565b82611ebd565b6115d5576040517f08c379a00000000000000000000000000000000000000000000000000000000081526004016115cc90614b1a565b60405180910390fd5b6115de816126f7565b50565b60006115eb610cbf565b821061162c576040517f08c379a000000000000000000000000000000000000000000000000000000000815260040161162390614ada565b60405180910390fd5b60088281548110611666577f4e487b7100000000000000000000000000000000000000000000000000000000600052603260045260246000fd5b90600052602060002001549050919050565b6000806002600084815260200190815260200160002060009054906101000a900473ffffffffffffffffffffffffffffffffffffffff169050600073ffffffffffffffffffffffffffffffffffffffff168173ffffffffffffffffffffffffffffffffffffffff161415611721576040517f08c379a00000000000000000000000000000000000000000000000000000000081526004016117189061499a565b60405180910390fd5b80915050919050565b60008073ffffffffffffffffffffffffffffffffffffffff168273ffffffffffffffffffffffffffffffffffffffff16141561179b576040517f08c379a00000000000000000000000000000000000000000000000000000000081526004016117929061497a565b60405180910390fd5b600360008373ffffffffffffffffffffffffffffffffffffffff1673ffffffffffffffffffffffffffffffffffffffff168152602001908152602001600020549050919050565b6117ea611dfc565b73ffffffffffffffffffffffffffffffffffffffff1661180861186a565b73ffffffffffffffffffffffffffffffffffffffff161461185e576040517f08c379a000000000000000000000000000000000000000000000000000000000815260040161185590614a5a565b60405180910390fd5b6118686000612703565b565b6000600b60009054906101000a900473ffffffffffffffffffffffffffffffffffffffff16905090565b6060600180546118a390614ee9565b80601f01602080910402602001604051908101604052809291908181526020018280546118cf90614ee9565b801561191c5780601f106118f15761010080835404028352916020019161191c565b820191906000526020600020905b8154815290600101906020018083116118ff57829003601f168201915b5050505050905090565b611938611931611dfc565b83836127c9565b5050565b61194d611947611dfc565b83611ebd565b61198c576040517f08c379a000000000000000000000000000000000000000000000000000000000815260040161198390614aba565b60405180910390fd5b61199884848484612936565b50505050565b601360205280600052604060002060009150905080546119bd90614ee9565b80601f01602080910402602001604051908101604052809291908181526020018280546119e990614ee9565b8015611a365780601f10611a0b57610100808354040283529160200191611a36565b820191906000526020600020905b815481529060010190602001808311611a1957829003601f168201915b505050505081565b6060611a4982612992565b9050919050565b60125481565b6000600560008473ffffffffffffffffffffffffffffffffffffffff1673ffffffffffffffffffffffffffffffffffffffff16815260200190815260200160002060008373ffffffffffffffffffffffffffffffffffffffff1673ffffffffffffffffffffffffffffffffffffffff16815260200190815260200160002060009054906101000a900460ff16905092915050565b611af2611dfc565b73ffffffffffffffffffffffffffffffffffffffff16611b1061186a565b73ffffffffffffffffffffffffffffffffffffffff1614611b66576040517f08c379a0000000000000000000000000000000000000000000000000000000008152600401611b5d90614a5a565b60405180910390fd5b600073ffffffffffffffffffffffffffffffffffffffff168173ffffffffffffffffffffffffffffffffffffffff161415611bd6576040517f08c379a0000000000000000000000000000000000000000000000000000000008152600401611bcd9061489a565b60405180910390fd5b611bdf81612703565b50565b6011602052806000526040600020600091509050806000018054611c0590614ee9565b80601f0160208091040260200160405190810160405280929190818152602001828054611c3190614ee9565b8015611c7e5780601f10611c5357610100808354040283529160200191611c7e565b820191906000526020600020905b815481529060010190602001808311611c6157829003601f168201915b505050505090806001018054611c9390614ee9565b80601f0160208091040260200160405190810160405280929190818152602001828054611cbf90614ee9565b8015611d0c5780601f10611ce157610100808354040283529160200191611d0c565b820191906000526020600020905b815481529060010190602001808311611cef57829003601f168201915b5050505050905082565b60007f780e9d63000000000000000000000000000000000000000000000000000000007bffffffffffffffffffffffffffffffffffffffffffffffffffffffff1916827bffffffffffffffffffffffffffffffffffffffffffffffffffffffff19161480611d895750611d8882612ae4565b5b9050919050565b60008073ffffffffffffffffffffffffffffffffffffffff166002600084815260200190815260200160002060009054906101000a900473ffffffffffffffffffffffffffffffffffffffff1673ffffffffffffffffffffffffffffffffffffffff1614159050919050565b600033905090565b816004600083815260200190815260200160002060006101000a81548173ffffffffffffffffffffffffffffffffffffffff021916908373ffffffffffffffffffffffffffffffffffffffff160217905550808273ffffffffffffffffffffffffffffffffffffffff16611e7783611678565b73ffffffffffffffffffffffffffffffffffffffff167f8c5be1e5ebec7d5bd14f71427d1e84f3dd0314c0f7b2291e5b200ac8c7c3b92560405160405180910390a45050565b6000611ec882611d90565b611f07576040517f08c379a0000000000000000000000000000000000000000000000000000000008152600401611efe9061493a565b60405180910390fd5b6000611f1283611678565b90508073ffffffffffffffffffffffffffffffffffffffff168473ffffffffffffffffffffffffffffffffffffffff161480611f8157508373ffffffffffffffffffffffffffffffffffffffff16611f698461061b565b73ffffffffffffffffffffffffffffffffffffffff16145b80611f925750611f918185611a56565b5b91505092915050565b8273ffffffffffffffffffffffffffffffffffffffff16611fbb82611678565b73ffffffffffffffffffffffffffffffffffffffff1614612011576040517f08c379a0000000000000000000000000000000000000000000000000000000008152600401612008906148ba565b60405180910390fd5b600073ffffffffffffffffffffffffffffffffffffffff168273ffffffffffffffffffffffffffffffffffffffff161415612081576040517f08c379a0000000000000000000000000000000000000000000000000000000008152600401612078906148fa565b60405180910390fd5b61208c838383612bc6565b612097600082611e04565b6001600360008573ffffffffffffffffffffffffffffffffffffffff1673ffffffffffffffffffffffffffffffffffffffff16815260200190815260200160002060008282546120e79190614dcd565b925050819055506001600360008473ffffffffffffffffffffffffffffffffffffffff1673ffffffffffffffffffffffffffffffffffffffff168152602001908152602001600020600082825461213e9190614cb5565b92505081905550816002600083815260200190815260200160002060006101000a81548173ffffffffffffffffffffffffffffffffffffffff021916908373ffffffffffffffffffffffffffffffffffffffff160217905550808273ffffffffffffffffffffffffffffffffffffffff168473ffffffffffffffffffffffffffffffffffffffff167fddf252ad1be2c89b69c2b068fc378daa952ba7f163c4a11628f55a4df523b3ef60405160405180910390a46121fd838383612bd6565b505050565b6000806103e8834442600160405160200161222094939291906146e6565b6040516020818303038152906040528051906020012060001c6122439190614fdb565b9050600a8111612257576003915050612282565b603c8111612269576002915050612282565b61012c811161227c576001915050612282565b60009150505b919050565b600060125482444260016040516020016122a494939291906146e6565b6040516020818303038152906040528051906020012060001c6122c79190614fdb565b9050919050565b6060600060116000848152602001908152602001600020905060008160020180549050854442600160405160200161230994939291906146e6565b6040516020818303038152906040528051906020012060001c61232c9190614fdb565b905081600201818154811061236a577f4e487b7100000000000000000000000000000000000000000000000000000000600052603260045260246000fd5b90600052602060002001805461237f90614ee9565b80601f01602080910402602001604051908101604052809291908181526020018280546123ab90614ee9565b80156123f85780601f106123cd576101008083540402835291602001916123f8565b820191906000526020600020905b8154815290600101906020018083116123db57829003601f168201915b50505050509250505092915050565b600081600001549050919050565b600060018260ff16844442600160405160200161243594939291906146e6565b6040516020818303038152906040528051906020012060001c6124589190614fdb565b6124629190614d0b565b905092915050565b600080600190506003808111156124aa577f4e487b7100000000000000000000000000000000000000000000000000000000600052602160045260246000fd5b8760038111156124e3577f4e487b7100000000000000000000000000000000000000000000000000000000600052602160045260246000fd5b14156124f257601590506125f4565b6002600381111561252c577f4e487b7100000000000000000000000000000000000000000000000000000000600052602160045260246000fd5b876003811115612565577f4e487b7100000000000000000000000000000000000000000000000000000000600052602160045260246000fd5b141561257457600990506125f3565b600160038111156125ae577f4e487b7100000000000000000000000000000000000000000000000000000000600052602160045260246000fd5b8760038111156125e7577f4e487b7100000000000000000000000000000000000000000000000000000000600052602160045260246000fd5b14156125f257600390505b5b5b670de0b6b3a764000060028486888a61260d9190614d0b565b6126179190614d0b565b6126219190614d0b565b60ff1661262e9190614d42565b826126399190614d73565b6126439190614d73565b91505095945050505050565b6001816000016000828254019250508190555050565b61267f828260405180602001604052806000815250612bdb565b5050565b61268c82611d90565b6126cb576040517f08c379a00000000000000000000000000000000000000000000000000000000081526004016126c2906149ba565b60405180910390fd5b80600a600084815260200190815260200160002090805190602001906126f2929190613988565b505050565b61270081612c36565b50565b6000600b60009054906101000a900473ffffffffffffffffffffffffffffffffffffffff16905081600b60006101000a81548173ffffffffffffffffffffffffffffffffffffffff021916908373ffffffffffffffffffffffffffffffffffffffff1602179055508173ffffffffffffffffffffffffffffffffffffffff168173ffffffffffffffffffffffffffffffffffffffff167f8be0079c531659141344cd1fd0a4f28419497f9722a3daafe3b4186f6b6457e060405160405180910390a35050565b8173ffffffffffffffffffffffffffffffffffffffff168373ffffffffffffffffffffffffffffffffffffffff161415612838576040517f08c379a000000000000000000000000000000000000000000000000000000000815260040161282f9061491a565b60405180910390fd5b80600560008573ffffffffffffffffffffffffffffffffffffffff1673ffffffffffffffffffffffffffffffffffffffff16815260200190815260200160002060008473ffffffffffffffffffffffffffffffffffffffff1673ffffffffffffffffffffffffffffffffffffffff16815260200190815260200160002060006101000a81548160ff0219169083151502179055508173ffffffffffffffffffffffffffffffffffffffff168373ffffffffffffffffffffffffffffffffffffffff167f17307eab39ab6107e8899845ad3d59bd9653f200f220920489ca2b5937696c318360405161292991906147e6565b60405180910390a3505050565b612941848484611f9b565b61294d84848484612c89565b61298c576040517f08c379a00000000000000000000000000000000000000000000000000000000081526004016129839061487a565b60405180910390fd5b50505050565b606061299d82611d90565b6129dc576040517f08c379a00000000000000000000000000000000000000000000000000000000081526004016129d390614a1a565b60405180910390fd5b6000600a600084815260200190815260200160002080546129fc90614ee9565b80601f0160208091040260200160405190810160405280929190818152602001828054612a2890614ee9565b8015612a755780601f10612a4a57610100808354040283529160200191612a75565b820191906000526020600020905b815481529060010190602001808311612a5857829003601f168201915b505050505090506000612a86612e20565b9050600081511415612a9c578192505050612adf565b600082511115612ad1578082604051602001612ab99291906146c2565b60405160208183030381529060405292505050612adf565b612ada84612e5d565b925050505b919050565b60007f80ac58cd000000000000000000000000000000000000000000000000000000007bffffffffffffffffffffffffffffffffffffffffffffffffffffffff1916827bffffffffffffffffffffffffffffffffffffffffffffffffffffffff19161480612baf57507f5b5e139f000000000000000000000000000000000000000000000000000000007bffffffffffffffffffffffffffffffffffffffffffffffffffffffff1916827bffffffffffffffffffffffffffffffffffffffffffffffffffffffff1916145b80612bbf5750612bbe82612f04565b5b9050919050565b612bd1838383612f6e565b505050565b505050565b612be58383613082565b612bf26000848484612c89565b612c31576040517f08c379a0000000000000000000000000000000000000000000000000000000008152600401612c289061487a565b60405180910390fd5b505050565b612c3f8161325c565b6000600a60008381526020019081526020016000208054612c5f90614ee9565b905014612c8657600a60008281526020019081526020016000206000612c859190613a6e565b5b50565b6000612caa8473ffffffffffffffffffffffffffffffffffffffff16613379565b15612e13578373ffffffffffffffffffffffffffffffffffffffff1663150b7a02612cd3611dfc565b8786866040518563ffffffff1660e01b8152600401612cf5949392919061474f565b602060405180830381600087803b158015612d0f57600080fd5b505af1925050508015612d4057506040513d601f19601f82011682018060405250810190612d3d9190613f10565b60015b612dc3573d8060008114612d70576040519150601f19603f3d011682016040523d82523d6000602084013e612d75565b606091505b50600081511415612dbb576040517f08c379a0000000000000000000000000000000000000000000000000000000008152600401612db29061487a565b60405180910390fd5b805181602001fd5b63150b7a0260e01b7bffffffffffffffffffffffffffffffffffffffffffffffffffffffff1916817bffffffffffffffffffffffffffffffffffffffffffffffffffffffff191614915050612e18565b600190505b949350505050565b60606040518060400160405280601581526020017f68747470733a2f2f697066732e696f2f697066732f0000000000000000000000815250905090565b6060612e6882611d90565b612ea7576040517f08c379a0000000000000000000000000000000000000000000000000000000008152600401612e9e90614a7a565b60405180910390fd5b6000612eb1612e20565b90506000815111612ed15760405180602001604052806000815250612efc565b80612edb8461339c565b604051602001612eec9291906146c2565b6040516020818303038152906040525b915050919050565b60007f01ffc9a7000000000000000000000000000000000000000000000000000000007bffffffffffffffffffffffffffffffffffffffffffffffffffffffff1916827bffffffffffffffffffffffffffffffffffffffffffffffffffffffff1916149050919050565b612f79838383613549565b600073ffffffffffffffffffffffffffffffffffffffff168373ffffffffffffffffffffffffffffffffffffffff161415612fbc57612fb78161354e565b612ffb565b8173ffffffffffffffffffffffffffffffffffffffff168373ffffffffffffffffffffffffffffffffffffffff1614612ffa57612ff98382613597565b5b5b600073ffffffffffffffffffffffffffffffffffffffff168273ffffffffffffffffffffffffffffffffffffffff16141561303e5761303981613704565b61307d565b8273ffffffffffffffffffffffffffffffffffffffff168273ffffffffffffffffffffffffffffffffffffffff161461307c5761307b8282613847565b5b5b505050565b600073ffffffffffffffffffffffffffffffffffffffff168273ffffffffffffffffffffffffffffffffffffffff1614156130f2576040517f08c379a00000000000000000000000000000000000000000000000000000000081526004016130e9906149fa565b60405180910390fd5b6130fb81611d90565b1561313b576040517f08c379a0000000000000000000000000000000000000000000000000000000008152600401613132906148da565b60405180910390fd5b61314760008383612bc6565b6001600360008473ffffffffffffffffffffffffffffffffffffffff1673ffffffffffffffffffffffffffffffffffffffff16815260200190815260200160002060008282546131979190614cb5565b92505081905550816002600083815260200190815260200160002060006101000a81548173ffffffffffffffffffffffffffffffffffffffff021916908373ffffffffffffffffffffffffffffffffffffffff160217905550808273ffffffffffffffffffffffffffffffffffffffff16600073ffffffffffffffffffffffffffffffffffffffff167fddf252ad1be2c89b69c2b068fc378daa952ba7f163c4a11628f55a4df523b3ef60405160405180910390a461325860008383612bd6565b5050565b600061326782611678565b905061327581600084612bc6565b613280600083611e04565b6001600360008373ffffffffffffffffffffffffffffffffffffffff1673ffffffffffffffffffffffffffffffffffffffff16815260200190815260200160002060008282546132d09190614dcd565b925050819055506002600083815260200190815260200160002060006101000a81549073ffffffffffffffffffffffffffffffffffffffff021916905581600073ffffffffffffffffffffffffffffffffffffffff168273ffffffffffffffffffffffffffffffffffffffff167fddf252ad1be2c89b69c2b068fc378daa952ba7f163c4a11628f55a4df523b3ef60405160405180910390a461337581600084612bd6565b5050565b6000808273ffffffffffffffffffffffffffffffffffffffff163b119050919050565b606060008214156133e4576040518060400160405280600181526020017f30000000000000000000000000000000000000000000000000000000000000008152509050613544565b600082905060005b600082146134165780806133ff90614f4c565b915050600a8261340f9190614d42565b91506133ec565b60008167ffffffffffffffff811115613458577f4e487b7100000000000000000000000000000000000000000000000000000000600052604160045260246000fd5b6040519080825280601f01601f19166020018201604052801561348a5781602001600182028036833780820191505090505b5090505b6000851461353d576001826134a39190614dcd565b9150600a856134b29190614fdb565b60306134be9190614cb5565b60f81b8183815181106134fa577f4e487b7100000000000000000000000000000000000000000000000000000000600052603260045260246000fd5b60200101907effffffffffffffffffffffffffffffffffffffffffffffffffffffffffffff1916908160001a905350600a856135369190614d42565b945061348e565b8093505050505b919050565b505050565b6008805490506009600083815260200190815260200160002081905550600881908060018154018082558091505060019003906000526020600020016000909190919091505550565b600060016135a48461172a565b6135ae9190614dcd565b9050600060076000848152602001908152602001600020549050818114613693576000600660008673ffffffffffffffffffffffffffffffffffffffff1673ffffffffffffffffffffffffffffffffffffffff168152602001908152602001600020600084815260200190815260200160002054905080600660008773ffffffffffffffffffffffffffffffffffffffff1673ffffffffffffffffffffffffffffffffffffffff168152602001908152602001600020600084815260200190815260200160002081905550816007600083815260200190815260200160002081905550505b6007600084815260200190815260200160002060009055600660008573ffffffffffffffffffffffffffffffffffffffff1673ffffffffffffffffffffffffffffffffffffffff16815260200190815260200160002060008381526020019081526020016000206000905550505050565b600060016008805490506137189190614dcd565b905060006009600084815260200190815260200160002054905060006008838154811061376e577f4e487b7100000000000000000000000000000000000000000000000000000000600052603260045260246000fd5b9060005260206000200154905080600883815481106137b6577f4e487b7100000000000000000000000000000000000000000000000000000000600052603260045260246000fd5b90600052602060002001819055508160096000838152602001908152602001600020819055506009600085815260200190815260200160002060009055600880548061382b577f4e487b7100000000000000000000000000000000000000000000000000000000600052603160045260246000fd5b6001900381819060005260206000200160009055905550505050565b60006138528361172a565b905081600660008573ffffffffffffffffffffffffffffffffffffffff1673ffffffffffffffffffffffffffffffffffffffff168152602001908152602001600020600083815260200190815260200160002081905550806007600084815260200190815260200160002081905550505050565b604051806101a001604052806000815260200160006003811115613913577f4e487b7100000000000000000000000000000000000000000000000000000000600052602160045260246000fd5b81526020016000815260200160008152602001600081526020016000815260200160608152602001600060ff168152602001600060ff168152602001600060ff168152602001600060ff16815260200160608152602001600073ffffffffffffffffffffffffffffffffffffffff1681525090565b82805461399490614ee9565b90600052602060002090601f0160209004810192826139b657600085556139fd565b82601f106139cf57805160ff19168380011785556139fd565b828001600101855582156139fd579182015b828111156139fc5782518255916020019190600101906139e1565b5b509050613a0a9190613aae565b5090565b828054828255906000526020600020908101928215613a5d579160200282015b82811115613a5c578251829080519060200190613a4c929190613988565b5091602001919060010190613a2e565b5b509050613a6a9190613acb565b5090565b508054613a7a90614ee9565b6000825580601f10613a8c5750613aab565b601f016020900490600052602060002090810190613aaa9190613aae565b5b50565b5b80821115613ac7576000816000905550600101613aaf565b5090565b5b80821115613aeb5760008181613ae29190613a6e565b50600101613acc565b5090565b6000613b02613afd84614b9a565b614b75565b90508083825260208201905082856020860282011115613b2157600080fd5b60005b85811015613b6b57813567ffffffffffffffff811115613b4357600080fd5b808601613b508982613cae565b85526020850194506020840193505050600181019050613b24565b5050509392505050565b6000613b88613b8384614bc6565b614b75565b905082815260208101848484011115613ba057600080fd5b613bab848285614ea7565b509392505050565b6000613bc6613bc184614bf7565b614b75565b905082815260208101848484011115613bde57600080fd5b613be9848285614ea7565b509392505050565b600081359050613c0081615787565b92915050565b600081519050613c1581615787565b92915050565b600082601f830112613c2c57600080fd5b8135613c3c848260208601613aef565b91505092915050565b600081359050613c548161579e565b92915050565b600081359050613c69816157b5565b92915050565b600081519050613c7e816157b5565b92915050565b600082601f830112613c9557600080fd5b8135613ca5848260208601613b75565b91505092915050565b600082601f830112613cbf57600080fd5b8135613ccf848260208601613bb3565b91505092915050565b600081359050613ce7816157cc565b92915050565b600081359050613cfc816157e3565b92915050565b600081519050613d11816157e3565b92915050565b600060208284031215613d2957600080fd5b6000613d3784828501613bf1565b91505092915050565b600060208284031215613d5257600080fd5b6000613d6084828501613c06565b91505092915050565b60008060408385031215613d7c57600080fd5b6000613d8a85828601613bf1565b9250506020613d9b85828601613bf1565b9150509250929050565b600080600060608486031215613dba57600080fd5b6000613dc886828701613bf1565b9350506020613dd986828701613bf1565b9250506040613dea86828701613cd8565b9150509250925092565b60008060008060808587031215613e0a57600080fd5b6000613e1887828801613bf1565b9450506020613e2987828801613bf1565b9350506040613e3a87828801613cd8565b925050606085013567ffffffffffffffff811115613e5757600080fd5b613e6387828801613c84565b91505092959194509250565b60008060408385031215613e8257600080fd5b6000613e9085828601613bf1565b9250506020613ea185828601613c45565b9150509250929050565b60008060408385031215613ebe57600080fd5b6000613ecc85828601613bf1565b9250506020613edd85828601613cd8565b9150509250929050565b600060208284031215613ef957600080fd5b6000613f0784828501613c5a565b91505092915050565b600060208284031215613f2257600080fd5b6000613f3084828501613c6f565b91505092915050565b600080600060608486031215613f4e57600080fd5b600084013567ffffffffffffffff811115613f6857600080fd5b613f7486828701613cae565b935050602084013567ffffffffffffffff811115613f9157600080fd5b613f9d86828701613cae565b925050604084013567ffffffffffffffff811115613fba57600080fd5b613fc686828701613c1b565b9150509250925092565b600060208284031215613fe257600080fd5b6000613ff084828501613cd8565b91505092915050565b6000806040838503121561400c57600080fd5b600061401a85828601613cd8565b925050602061402b85828601613ced565b9150509250929050565b60006020828403121561404757600080fd5b600061405584828501613d02565b91505092915050565b600061406a8383614547565b905092915050565b61407b81614e01565b82525050565b61408a81614e01565b82525050565b600061409b82614c38565b6140a58185614c66565b9350836020820285016140b785614c28565b8060005b858110156140f357848403895281516140d4858261405e565b94506140df83614c59565b925060208a019950506001810190506140bb565b50829750879550505050505092915050565b61410e81614e13565b82525050565b600061411f82614c43565b6141298185614c77565b9350614139818560208601614eb6565b614142816150f7565b840191505092915050565b61415681614e95565b82525050565b600061416782614c4e565b6141718185614c88565b9350614181818560208601614eb6565b61418a816150f7565b840191505092915050565b60006141a082614c4e565b6141aa8185614c99565b93506141ba818560208601614eb6565b6141c3816150f7565b840191505092915050565b60006141d982614c4e565b6141e38185614caa565b93506141f3818560208601614eb6565b80840191505092915050565b600061420c602b83614c99565b915061421782615115565b604082019050919050565b600061422f603283614c99565b915061423a82615164565b604082019050919050565b6000614252602683614c99565b915061425d826151b3565b604082019050919050565b6000614275602583614c99565b915061428082615202565b604082019050919050565b6000614298601c83614c99565b91506142a382615251565b602082019050919050565b60006142bb602483614c99565b91506142c68261527a565b604082019050919050565b60006142de601983614c99565b91506142e9826152c9565b602082019050919050565b6000614301602c83614c99565b915061430c826152f2565b604082019050919050565b6000614324603883614c99565b915061432f82615341565b604082019050919050565b6000614347602a83614c99565b915061435282615390565b604082019050919050565b600061436a602983614c99565b9150614375826153df565b604082019050919050565b600061438d602e83614c99565b91506143988261542e565b604082019050919050565b60006143b0601a83614c99565b91506143bb8261547d565b602082019050919050565b60006143d3602083614c99565b91506143de826154a6565b602082019050919050565b60006143f6603183614c99565b9150614401826154cf565b604082019050919050565b6000614419602c83614c99565b91506144248261551e565b604082019050919050565b600061443c602083614c99565b91506144478261556d565b602082019050919050565b600061445f602f83614c99565b915061446a82615596565b604082019050919050565b6000614482602183614c99565b915061448d826155e5565b604082019050919050565b60006144a5603183614c99565b91506144b082615634565b604082019050919050565b60006144c8602c83614c99565b91506144d382615683565b604082019050919050565b60006144eb601883614c99565b91506144f6826156d2565b602082019050919050565b600061450e603083614c99565b9150614519826156fb565b604082019050919050565b6000614531601d83614c99565b915061453c8261574a565b602082019050919050565b60006101a0830160008301516145606000860182614667565b506020830151614573602086018261414d565b5060408301516145866040860182614667565b5060608301516145996060860182614667565b5060808301516145ac6080860182614667565b5060a08301516145bf60a0860182614667565b5060c083015184820360c08601526145d7828261415c565b91505060e08301516145ec60e086018261469c565b5061010083015161460161010086018261469c565b5061012083015161461661012086018261469c565b5061014083015161462b61014086018261469c565b50610160830151848203610160860152614645828261415c565b91505061018083015161465c610180860182614072565b508091505092915050565b61467081614e7e565b82525050565b61467f81614e7e565b82525050565b61469661469182614e7e565b614fbf565b82525050565b6146a581614e88565b82525050565b6146bc6146b782614e88565b614fc9565b82525050565b60006146ce82856141ce565b91506146da82846141ce565b91508190509392505050565b60006146f282876146ab565b6001820191506147028286614685565b6020820191506147128285614685565b6020820191506147228284614685565b60208201915081905095945050505050565b60006020820190506147496000830184614081565b92915050565b60006080820190506147646000830187614081565b6147716020830186614081565b61477e6040830185614676565b81810360608301526147908184614114565b905095945050505050565b60006040820190506147b06000830185614081565b6147bd6020830184614676565b9392505050565b600060208201905081810360008301526147de8184614090565b905092915050565b60006020820190506147fb6000830184614105565b92915050565b6000602082019050818103600083015261481b8184614195565b905092915050565b6000604082019050818103600083015261483d8185614195565b905081810360208301526148518184614195565b90509392505050565b60006020820190508181036000830152614873816141ff565b9050919050565b6000602082019050818103600083015261489381614222565b9050919050565b600060208201905081810360008301526148b381614245565b9050919050565b600060208201905081810360008301526148d381614268565b9050919050565b600060208201905081810360008301526148f38161428b565b9050919050565b60006020820190508181036000830152614913816142ae565b9050919050565b60006020820190508181036000830152614933816142d1565b9050919050565b60006020820190508181036000830152614953816142f4565b9050919050565b6000602082019050818103600083015261497381614317565b9050919050565b600060208201905081810360008301526149938161433a565b9050919050565b600060208201905081810360008301526149b38161435d565b9050919050565b600060208201905081810360008301526149d381614380565b9050919050565b600060208201905081810360008301526149f3816143a3565b9050919050565b60006020820190508181036000830152614a13816143c6565b9050919050565b60006020820190508181036000830152614a33816143e9565b9050919050565b60006020820190508181036000830152614a538161440c565b9050919050565b60006020820190508181036000830152614a738161442f565b9050919050565b60006020820190508181036000830152614a9381614452565b9050919050565b60006020820190508181036000830152614ab381614475565b9050919050565b60006020820190508181036000830152614ad381614498565b9050919050565b60006020820190508181036000830152614af3816144bb565b9050919050565b60006020820190508181036000830152614b13816144de565b9050919050565b60006020820190508181036000830152614b3381614501565b9050919050565b60006020820190508181036000830152614b5381614524565b9050919050565b6000602082019050614b6f6000830184614676565b92915050565b6000614b7f614b90565b9050614b8b8282614f1b565b919050565b6000604051905090565b600067ffffffffffffffff821115614bb557614bb46150c8565b5b602082029050602081019050919050565b600067ffffffffffffffff821115614be157614be06150c8565b5b614bea826150f7565b9050602081019050919050565b600067ffffffffffffffff821115614c1257614c116150c8565b5b614c1b826150f7565b9050602081019050919050565b6000819050602082019050919050565b600081519050919050565b600081519050919050565b600081519050919050565b6000602082019050919050565b600082825260208201905092915050565b600082825260208201905092915050565b600082825260208201905092915050565b600082825260208201905092915050565b600081905092915050565b6000614cc082614e7e565b9150614ccb83614e7e565b9250827fffffffffffffffffffffffffffffffffffffffffffffffffffffffffffffffff03821115614d0057614cff61500c565b5b828201905092915050565b6000614d1682614e88565b9150614d2183614e88565b92508260ff03821115614d3757614d3661500c565b5b828201905092915050565b6000614d4d82614e7e565b9150614d5883614e7e565b925082614d6857614d6761503b565b5b828204905092915050565b6000614d7e82614e7e565b9150614d8983614e7e565b9250817fffffffffffffffffffffffffffffffffffffffffffffffffffffffffffffffff0483118215151615614dc257614dc161500c565b5b828202905092915050565b6000614dd882614e7e565b9150614de383614e7e565b925082821015614df657614df561500c565b5b828203905092915050565b6000614e0c82614e5e565b9050919050565b60008115159050919050565b60007fffffffff0000000000000000000000000000000000000000000000000000000082169050919050565b6000819050614e5982615773565b919050565b600073ffffffffffffffffffffffffffffffffffffffff82169050919050565b6000819050919050565b600060ff82169050919050565b6000614ea082614e4b565b9050919050565b82818337600083830152505050565b60005b83811015614ed4578082015181840152602081019050614eb9565b83811115614ee3576000848401525b50505050565b60006002820490506001821680614f0157607f821691505b60208210811415614f1557614f14615099565b5b50919050565b614f24826150f7565b810181811067ffffffffffffffff82111715614f4357614f426150c8565b5b80604052505050565b6000614f5782614e7e565b91507fffffffffffffffffffffffffffffffffffffffffffffffffffffffffffffffff821415614f8a57614f8961500c565b5b600182019050919050565b6000614fa082614e88565b915060ff821415614fb457614fb361500c565b5b600182019050919050565b6000819050919050565b6000614fd482615108565b9050919050565b6000614fe682614e7e565b9150614ff183614e7e565b9250826150015761500061503b565b5b828206905092915050565b7f4e487b7100000000000000000000000000000000000000000000000000000000600052601160045260246000fd5b7f4e487b7100000000000000000000000000000000000000000000000000000000600052601260045260246000fd5b7f4e487b7100000000000000000000000000000000000000000000000000000000600052602160045260246000fd5b7f4e487b7100000000000000000000000000000000000000000000000000000000600052602260045260246000fd5b7f4e487b7100000000000000000000000000000000000000000000000000000000600052604160045260246000fd5b6000601f19601f8301169050919050565b60008160f81b9050919050565b7f455243373231456e756d657261626c653a206f776e657220696e646578206f7560008201527f74206f6620626f756e6473000000000000000000000000000000000000000000602082015250565b7f4552433732313a207472616e7366657220746f206e6f6e20455243373231526560008201527f63656976657220696d706c656d656e7465720000000000000000000000000000602082015250565b7f4f776e61626c653a206e6577206f776e657220697320746865207a65726f206160008201527f6464726573730000000000000000000000000000000000000000000000000000602082015250565b7f4552433732313a207472616e736665722066726f6d20696e636f72726563742060008201527f6f776e6572000000000000000000000000000000000000000000000000000000602082015250565b7f4552433732313a20746f6b656e20616c7265616479206d696e74656400000000600082015250565b7f4552433732313a207472616e7366657220746f20746865207a65726f2061646460008201527f7265737300000000000000000000000000000000000000000000000000000000602082015250565b7f4552433732313a20617070726f766520746f2063616c6c657200000000000000600082015250565b7f4552433732313a206f70657261746f7220717565727920666f72206e6f6e657860008201527f697374656e7420746f6b656e0000000000000000000000000000000000000000602082015250565b7f4552433732313a20617070726f76652063616c6c6572206973206e6f74206f7760008201527f6e6572206e6f7220617070726f76656420666f7220616c6c0000000000000000602082015250565b7f4552433732313a2062616c616e636520717565727920666f7220746865207a6560008201527f726f206164647265737300000000000000000000000000000000000000000000602082015250565b7f4552433732313a206f776e657220717565727920666f72206e6f6e657869737460008201527f656e7420746f6b656e0000000000000000000000000000000000000000000000602082015250565b7f45524337323155524953746f726167653a2055524920736574206f66206e6f6e60008201527f6578697374656e7420746f6b656e000000000000000000000000000000000000602082015250565b7f596f752063616e2774206b696c6c2074686973205a6f6d626965000000000000600082015250565b7f4552433732313a206d696e7420746f20746865207a65726f2061646472657373600082015250565b7f45524337323155524953746f726167653a2055524920717565727920666f722060008201527f6e6f6e6578697374656e7420746f6b656e000000000000000000000000000000602082015250565b7f4552433732313a20617070726f76656420717565727920666f72206e6f6e657860008201527f697374656e7420746f6b656e0000000000000000000000000000000000000000602082015250565b7f4f776e61626c653a2063616c6c6572206973206e6f7420746865206f776e6572600082015250565b7f4552433732314d657461646174613a2055524920717565727920666f72206e6f60008201527f6e6578697374656e7420746f6b656e0000000000000000000000000000000000602082015250565b7f4552433732313a20617070726f76616c20746f2063757272656e74206f776e6560008201527f7200000000000000000000000000000000000000000000000000000000000000602082015250565b7f4552433732313a207472616e736665722063616c6c6572206973206e6f74206f60008201527f776e6572206e6f7220617070726f766564000000000000000000000000000000602082015250565b7f455243373231456e756d657261626c653a20676c6f62616c20696e646578206f60008201527f7574206f6620626f756e64730000000000000000000000000000000000000000602082015250565b7f596f7520646f6e277420686176652074686973204c616e640000000000000000600082015250565b7f4552433732314275726e61626c653a2063616c6c6572206973206e6f74206f7760008201527f6e6572206e6f7220617070726f76656400000000000000000000000000000000602082015250565b7f596f752063616e2774206d696e742066726f6d2074686973204c616e64000000600082015250565b600481106157845761578361506a565b5b50565b61579081614e01565b811461579b57600080fd5b50565b6157a781614e13565b81146157b257600080fd5b50565b6157be81614e1f565b81146157c957600080fd5b50565b6157d581614e7e565b81146157e057600080fd5b50565b6157ec81614e88565b81146157f757600080fd5b5056fea26469706673582212209340425ce947fc2c4fd22f2a96447b4cb0d26b35eca5a8563c824b38ce9dc7de64736f6c63430008040033",
  "linkReferences": {},
  "deployedLinkReferences": {}
}