{
  "_format": "hh-sol-artifact-1",
  "contractName": "ZombieNFT",
  "sourceName": "src/backend/contracts/ZombieNFT.sol",
  "abi": [
    {
      "inputs": [
        {
          "internalType": "address",
          "name": "_contractMain",
          "type": "address"
        },
        {
          "internalType": "address",
          "name": "_contractLands",
          "type": "address"
        }
      ],
      "stateMutability": "nonpayable",
      "type": "constructor"
    },
    {
      "inputs": [
        {
          "internalType": "string",
          "name": "message",
          "type": "string"
        }
      ],
      "name": "ZombiesMintError",
      "type": "error"
    },
    {
      "anonymous": false,
      "inputs": [
        {
          "indexed": true,
          "internalType": "address",
          "name": "owner",
          "type": "address"
        },
        {
          "indexed": true,
          "internalType": "address",
          "name": "approved",
          "type": "address"
        },
        {
          "indexed": true,
          "internalType": "uint256",
          "name": "tokenId",
          "type": "uint256"
        }
      ],
      "name": "Approval",
      "type": "event"
    },
    {
      "anonymous": false,
      "inputs": [
        {
          "indexed": true,
          "internalType": "address",
          "name": "owner",
          "type": "address"
        },
        {
          "indexed": true,
          "internalType": "address",
          "name": "operator",
          "type": "address"
        },
        {
          "indexed": false,
          "internalType": "bool",
          "name": "approved",
          "type": "bool"
        }
      ],
      "name": "ApprovalForAll",
      "type": "event"
    },
    {
      "anonymous": false,
      "inputs": [
        {
          "indexed": true,
          "internalType": "address",
          "name": "previousOwner",
          "type": "address"
        },
        {
          "indexed": true,
          "internalType": "address",
          "name": "newOwner",
          "type": "address"
        }
      ],
      "name": "OwnershipTransferred",
      "type": "event"
    },
    {
      "anonymous": false,
      "inputs": [
        {
          "indexed": true,
          "internalType": "address",
          "name": "from",
          "type": "address"
        },
        {
          "indexed": true,
          "internalType": "address",
          "name": "to",
          "type": "address"
        },
        {
          "indexed": true,
          "internalType": "uint256",
          "name": "tokenId",
          "type": "uint256"
        }
      ],
      "name": "Transfer",
      "type": "event"
    },
    {
      "inputs": [
        {
          "internalType": "string",
          "name": "title",
          "type": "string"
        },
        {
          "internalType": "string",
          "name": "image",
          "type": "string"
        },
        {
          "internalType": "string[]",
          "name": "zombieImages",
          "type": "string[]"
        }
      ],
      "name": "addCollection",
      "outputs": [],
      "stateMutability": "nonpayable",
      "type": "function"
    },
    {
      "inputs": [
        {
          "internalType": "address",
          "name": "to",
          "type": "address"
        },
        {
          "internalType": "uint256",
          "name": "tokenId",
          "type": "uint256"
        }
      ],
      "name": "approve",
      "outputs": [],
      "stateMutability": "nonpayable",
      "type": "function"
    },
    {
      "inputs": [
        {
          "internalType": "address",
          "name": "owner",
          "type": "address"
        }
      ],
      "name": "balanceOf",
      "outputs": [
        {
          "internalType": "uint256",
          "name": "",
          "type": "uint256"
        }
      ],
      "stateMutability": "view",
      "type": "function"
    },
    {
      "inputs": [
        {
          "internalType": "uint256",
          "name": "tokenId",
          "type": "uint256"
        }
      ],
      "name": "burn",
      "outputs": [],
      "stateMutability": "nonpayable",
      "type": "function"
    },
    {
      "inputs": [
        {
          "internalType": "uint256",
          "name": "",
          "type": "uint256"
        }
      ],
      "name": "cardRarity",
      "outputs": [
        {
          "internalType": "string",
          "name": "",
          "type": "string"
        }
      ],
      "stateMutability": "view",
      "type": "function"
    },
    {
      "inputs": [],
      "name": "collectionCount",
      "outputs": [
        {
          "internalType": "uint256",
          "name": "",
          "type": "uint256"
        }
      ],
      "stateMutability": "view",
      "type": "function"
    },
    {
      "inputs": [
        {
          "internalType": "uint256",
          "name": "",
          "type": "uint256"
        }
      ],
      "name": "collections",
      "outputs": [
        {
          "internalType": "string",
          "name": "title",
          "type": "string"
        },
        {
          "internalType": "string",
          "name": "image",
          "type": "string"
        }
      ],
      "stateMutability": "view",
      "type": "function"
    },
    {
      "inputs": [
        {
          "internalType": "uint256",
          "name": "tokenId",
          "type": "uint256"
        }
      ],
      "name": "getApproved",
      "outputs": [
        {
          "internalType": "address",
          "name": "",
          "type": "address"
        }
      ],
      "stateMutability": "view",
      "type": "function"
    },
    {
      "inputs": [
        {
          "internalType": "address",
          "name": "owner",
          "type": "address"
        },
        {
          "internalType": "address",
          "name": "operator",
          "type": "address"
        }
      ],
      "name": "isApprovedForAll",
      "outputs": [
        {
          "internalType": "bool",
          "name": "",
          "type": "bool"
        }
      ],
      "stateMutability": "view",
      "type": "function"
    },
    {
      "inputs": [],
      "name": "name",
      "outputs": [
        {
          "internalType": "string",
          "name": "",
          "type": "string"
        }
      ],
      "stateMutability": "view",
      "type": "function"
    },
    {
      "inputs": [],
      "name": "owner",
      "outputs": [
        {
          "internalType": "address",
          "name": "",
          "type": "address"
        }
      ],
      "stateMutability": "view",
      "type": "function"
    },
    {
      "inputs": [
        {
          "internalType": "uint256",
          "name": "tokenId",
          "type": "uint256"
        }
      ],
      "name": "ownerOf",
      "outputs": [
        {
          "internalType": "address",
          "name": "",
          "type": "address"
        }
      ],
      "stateMutability": "view",
      "type": "function"
    },
    {
      "inputs": [],
      "name": "renounceOwnership",
      "outputs": [],
      "stateMutability": "nonpayable",
      "type": "function"
    },
    {
      "inputs": [
        {
          "internalType": "uint256",
          "name": "landId",
          "type": "uint256"
        }
      ],
      "name": "safeMint",
      "outputs": [],
      "stateMutability": "nonpayable",
      "type": "function"
    },
    {
      "inputs": [
        {
          "internalType": "address",
          "name": "from",
          "type": "address"
        },
        {
          "internalType": "address",
          "name": "to",
          "type": "address"
        },
        {
          "internalType": "uint256",
          "name": "tokenId",
          "type": "uint256"
        }
      ],
      "name": "safeTransferFrom",
      "outputs": [],
      "stateMutability": "nonpayable",
      "type": "function"
    },
    {
      "inputs": [
        {
          "internalType": "address",
          "name": "from",
          "type": "address"
        },
        {
          "internalType": "address",
          "name": "to",
          "type": "address"
        },
        {
          "internalType": "uint256",
          "name": "tokenId",
          "type": "uint256"
        },
        {
          "internalType": "bytes",
          "name": "_data",
          "type": "bytes"
        }
      ],
      "name": "safeTransferFrom",
      "outputs": [],
      "stateMutability": "nonpayable",
      "type": "function"
    },
    {
      "inputs": [
        {
          "internalType": "address",
          "name": "operator",
          "type": "address"
        },
        {
          "internalType": "bool",
          "name": "approved",
          "type": "bool"
        }
      ],
      "name": "setApprovalForAll",
      "outputs": [],
      "stateMutability": "nonpayable",
      "type": "function"
    },
    {
      "inputs": [
        {
          "internalType": "bytes4",
          "name": "_interfaceId",
          "type": "bytes4"
        }
      ],
      "name": "supportsInterface",
      "outputs": [
        {
          "internalType": "bool",
          "name": "",
          "type": "bool"
        }
      ],
      "stateMutability": "view",
      "type": "function"
    },
    {
      "inputs": [],
      "name": "symbol",
      "outputs": [
        {
          "internalType": "string",
          "name": "",
          "type": "string"
        }
      ],
      "stateMutability": "view",
      "type": "function"
    },
    {
      "inputs": [
        {
          "internalType": "uint256",
          "name": "index",
          "type": "uint256"
        }
      ],
      "name": "tokenByIndex",
      "outputs": [
        {
          "internalType": "uint256",
          "name": "",
          "type": "uint256"
        }
      ],
      "stateMutability": "view",
      "type": "function"
    },
    {
      "inputs": [
        {
          "internalType": "address",
          "name": "owner",
          "type": "address"
        },
        {
          "internalType": "uint256",
          "name": "index",
          "type": "uint256"
        }
      ],
      "name": "tokenOfOwnerByIndex",
      "outputs": [
        {
          "internalType": "uint256",
          "name": "",
          "type": "uint256"
        }
      ],
      "stateMutability": "view",
      "type": "function"
    },
    {
      "inputs": [
        {
          "internalType": "uint256",
          "name": "_tokenId",
          "type": "uint256"
        }
      ],
      "name": "tokenURI",
      "outputs": [
        {
          "internalType": "string",
          "name": "",
          "type": "string"
        }
      ],
      "stateMutability": "view",
      "type": "function"
    },
    {
      "inputs": [],
      "name": "totalSupply",
      "outputs": [
        {
          "internalType": "uint256",
          "name": "",
          "type": "uint256"
        }
      ],
      "stateMutability": "view",
      "type": "function"
    },
    {
      "inputs": [
        {
          "internalType": "address",
          "name": "from",
          "type": "address"
        },
        {
          "internalType": "address",
          "name": "to",
          "type": "address"
        },
        {
          "internalType": "uint256",
          "name": "tokenId",
          "type": "uint256"
        }
      ],
      "name": "transferFrom",
      "outputs": [],
      "stateMutability": "nonpayable",
      "type": "function"
    },
    {
      "inputs": [
        {
          "internalType": "address",
          "name": "newOwner",
          "type": "address"
        }
      ],
      "name": "transferOwnership",
      "outputs": [],
      "stateMutability": "nonpayable",
      "type": "function"
    },
    {
      "inputs": [
        {
          "internalType": "uint256",
          "name": "_startIndex",
          "type": "uint256"
        },
        {
          "internalType": "uint8",
          "name": "_count",
          "type": "uint8"
        }
      ],
      "name": "userZombies",
      "outputs": [
        {
          "components": [
            {
              "internalType": "uint256",
              "name": "tokenId",
              "type": "uint256"
            },
            {
              "internalType": "enum ZombieNFT.CardRarity",
              "name": "cardRarity",
              "type": "uint8"
            },
            {
              "internalType": "uint256",
              "name": "collection",
              "type": "uint256"
            },
            {
              "internalType": "uint256",
              "name": "killTokens",
              "type": "uint256"
            },
            {
              "internalType": "uint256",
              "name": "salePrice",
              "type": "uint256"
            },
            {
              "internalType": "uint256",
              "name": "mintDate",
              "type": "uint256"
            },
            {
              "internalType": "string",
              "name": "media",
              "type": "string"
            },
            {
              "internalType": "uint8",
              "name": "health",
              "type": "uint8"
            },
            {
              "internalType": "uint8",
              "name": "attack",
              "type": "uint8"
            },
            {
              "internalType": "uint8",
              "name": "brain",
              "type": "uint8"
            },
            {
              "internalType": "uint8",
              "name": "speed",
              "type": "uint8"
            },
            {
              "internalType": "string",
              "name": "nftType",
              "type": "string"
            },
            {
              "internalType": "address",
              "name": "ownerId",
              "type": "address"
            }
          ],
          "internalType": "struct ZombieNFT.Zombie[]",
          "name": "",
          "type": "tuple[]"
        }
      ],
      "stateMutability": "view",
      "type": "function"
    }
  ],
  "bytecode": "0x60806040523480156200001157600080fd5b5060405162005bb438038062005bb4833981810160405281019062000037919062000495565b6040518060400160405280600781526020017f5a6f6d4c616e64000000000000000000000000000000000000000000000000008152506040518060400160405280600481526020017f5a4d4c5a000000000000000000000000000000000000000000000000000000008152508160009080519060200190620000bb929190620003ce565b508060019080519060200190620000d4929190620003ce565b505050620000f7620000eb6200030060201b60201c565b6200030860201b60201c565b81600d60006101000a81548173ffffffffffffffffffffffffffffffffffffffff021916908373ffffffffffffffffffffffffffffffffffffffff16021790555080600e60006101000a81548173ffffffffffffffffffffffffffffffffffffffff021916908373ffffffffffffffffffffffffffffffffffffffff1602179055506040518060400160405280600681526020017f436f6d6d6f6e0000000000000000000000000000000000000000000000000000815250601260008081526020019081526020016000209080519060200190620001d7929190620003ce565b506040518060400160405280600881526020017f556e636f6d6d6f6e0000000000000000000000000000000000000000000000008152506012600060018152602001908152602001600020908051906020019062000237929190620003ce565b506040518060400160405280600481526020017f52617265000000000000000000000000000000000000000000000000000000008152506012600060028152602001908152602001600020908051906020019062000297929190620003ce565b506040518060400160405280600481526020017f457069630000000000000000000000000000000000000000000000000000000081525060126000600381526020019081526020016000209080519060200190620002f7929190620003ce565b50505062000589565b600033905090565b6000600b60009054906101000a900473ffffffffffffffffffffffffffffffffffffffff16905081600b60006101000a81548173ffffffffffffffffffffffffffffffffffffffff021916908373ffffffffffffffffffffffffffffffffffffffff1602179055508173ffffffffffffffffffffffffffffffffffffffff168173ffffffffffffffffffffffffffffffffffffffff167f8be0079c531659141344cd1fd0a4f28419497f9722a3daafe3b4186f6b6457e060405160405180910390a35050565b828054620003dc906200050a565b90600052602060002090601f0160209004810192826200040057600085556200044c565b82601f106200041b57805160ff19168380011785556200044c565b828001600101855582156200044c579182015b828111156200044b5782518255916020019190600101906200042e565b5b5090506200045b91906200045f565b5090565b5b808211156200047a57600081600090555060010162000460565b5090565b6000815190506200048f816200056f565b92915050565b60008060408385031215620004a957600080fd5b6000620004b9858286016200047e565b9250506020620004cc858286016200047e565b9150509250929050565b6000620004e382620004ea565b9050919050565b600073ffffffffffffffffffffffffffffffffffffffff82169050919050565b600060028204905060018216806200052357607f821691505b602082108114156200053a576200053962000540565b5b50919050565b7f4e487b7100000000000000000000000000000000000000000000000000000000600052602260045260246000fd5b6200057a81620004d6565b81146200058657600080fd5b50565b61561b80620005996000396000f3fe608060405234801561001057600080fd5b506004361061018e5760003560e01c80636352211e116100de578063b88d4fde11610097578063d57f966b11610071578063d57f966b146104a5578063e985e9c5146104c3578063f2fde38b146104f3578063fdbda0ec1461050f5761018e565b8063b88d4fde14610429578063bd5f161c14610445578063c87b56dd146104755761018e565b80636352211e1461036757806370a0823114610397578063715018a6146103c75780638da5cb5b146103d157806395d89b41146103ef578063a22cb4651461040d5761018e565b806318160ddd1161014b57806331c864e81161012557806331c864e8146102e357806342842e0e146102ff57806342966c681461031b5780634f6ccce7146103375761018e565b806318160ddd1461027957806323b872dd146102975780632f745c59146102b35761018e565b806301ffc9a71461019357806306fdde03146101c3578063081812fc146101e1578063095ea7b314610211578063112400f91461022d578063131376111461025d575b600080fd5b6101ad60048036038101906101a89190613d67565b610540565b6040516101ba919061461a565b60405180910390f35b6101cb610552565b6040516101d89190614635565b60405180910390f35b6101fb60048036038101906101f69190613e50565b6105e4565b6040516102089190614591565b60405180910390f35b61022b60048036038101906102269190613d2b565b610669565b005b61024760048036038101906102429190613e79565b610781565b60405161025491906145f8565b60405180910390f35b61027760048036038101906102729190613db9565b610b63565b005b610281610c88565b60405161028e919061496e565b60405180910390f35b6102b160048036038101906102ac9190613c25565b610c95565b005b6102cd60048036038101906102c89190613d2b565b610cf5565b6040516102da919061496e565b60405180910390f35b6102fd60048036038101906102f89190613e50565b610d9a565b005b61031960048036038101906103149190613c25565b6113e5565b005b61033560048036038101906103309190613e50565b611405565b005b610351600480360381019061034c9190613e50565b611461565b60405161035e919061496e565b60405180910390f35b610381600480360381019061037c9190613e50565b6114f8565b60405161038e9190614591565b60405180910390f35b6103b160048036038101906103ac9190613b97565b6115aa565b6040516103be919061496e565b60405180910390f35b6103cf611662565b005b6103d96116ea565b6040516103e69190614591565b60405180910390f35b6103f7611714565b6040516104049190614635565b60405180910390f35b61042760048036038101906104229190613cef565b6117a6565b005b610443600480360381019061043e9190613c74565b6117bc565b005b61045f600480360381019061045a9190613e50565b61181e565b60405161046c9190614635565b60405180910390f35b61048f600480360381019061048a9190613e50565b6118be565b60405161049c9190614635565b60405180910390f35b6104ad6118d0565b6040516104ba919061496e565b60405180910390f35b6104dd60048036038101906104d89190613be9565b6118d6565b6040516104ea919061461a565b60405180910390f35b61050d60048036038101906105089190613b97565b61196a565b005b61052960048036038101906105249190613e50565b611a62565b604051610537929190614657565b60405180910390f35b600061054b82611b96565b9050919050565b60606000805461056190614cfd565b80601f016020809104026020016040519081016040528092919081815260200182805461058d90614cfd565b80156105da5780601f106105af576101008083540402835291602001916105da565b820191906000526020600020905b8154815290600101906020018083116105bd57829003601f168201915b5050505050905090565b60006105ef82611c10565b61062e576040517f08c379a00000000000000000000000000000000000000000000000000000000081526004016106259061484e565b60405180910390fd5b6004600083815260200190815260200160002060009054906101000a900473ffffffffffffffffffffffffffffffffffffffff169050919050565b6000610674826114f8565b90508073ffffffffffffffffffffffffffffffffffffffff168373ffffffffffffffffffffffffffffffffffffffff1614156106e5576040517f08c379a00000000000000000000000000000000000000000000000000000000081526004016106dc906148ae565b60405180910390fd5b8073ffffffffffffffffffffffffffffffffffffffff16610704611c7c565b73ffffffffffffffffffffffffffffffffffffffff16148061073357506107328161072d611c7c565b6118d6565b5b610772576040517f08c379a00000000000000000000000000000000000000000000000000000000081526004016107699061478e565b60405180910390fd5b61077c8383611c84565b505050565b606060008260ff1667ffffffffffffffff8111156107c8577f4e487b7100000000000000000000000000000000000000000000000000000000600052604160045260246000fd5b60405190808252806020026020018201604052801561080157816020015b6107ee613746565b8152602001906001900390816107e65790505b509050600061080f336115aa565b905060008590505b8460ff16811015610b575780821115610b445760006108363383610cf5565b9050600f6000828152602001908152602001600020604051806101a0016040529081600082015481526020016001820160009054906101000a900460ff1660038111156108ac577f4e487b7100000000000000000000000000000000000000000000000000000000600052602160045260246000fd5b60038111156108e4577f4e487b7100000000000000000000000000000000000000000000000000000000600052602160045260246000fd5b81526020016002820154815260200160038201548152602001600482015481526020016005820154815260200160068201805461092090614cfd565b80601f016020809104026020016040519081016040528092919081815260200182805461094c90614cfd565b80156109995780601f1061096e57610100808354040283529160200191610999565b820191906000526020600020905b81548152906001019060200180831161097c57829003601f168201915b505050505081526020016007820160009054906101000a900460ff1660ff1660ff1681526020016007820160019054906101000a900460ff1660ff1660ff1681526020016007820160029054906101000a900460ff1660ff1660ff1681526020016007820160039054906101000a900460ff1660ff1660ff168152602001600882018054610a2690614cfd565b80601f0160208091040260200160405190810160405280929190818152602001828054610a5290614cfd565b8015610a9f5780601f10610a7457610100808354040283529160200191610a9f565b820191906000526020600020905b815481529060010190602001808311610a8257829003601f168201915b505050505081526020016009820160009054906101000a900473ffffffffffffffffffffffffffffffffffffffff1673ffffffffffffffffffffffffffffffffffffffff1673ffffffffffffffffffffffffffffffffffffffff1681525050848381518110610b37577f4e487b7100000000000000000000000000000000000000000000000000000000600052603260045260246000fd5b6020026020010181905250505b8080610b4f90614d60565b915050610817565b50819250505092915050565b610b6b611c7c565b73ffffffffffffffffffffffffffffffffffffffff16610b896116ea565b73ffffffffffffffffffffffffffffffffffffffff1614610bdf576040517f08c379a0000000000000000000000000000000000000000000000000000000008152600401610bd69061486e565b60405180910390fd5b6040518060600160405280848152602001838152602001828152506010600060115481526020019081526020016000206000820151816000019080519060200190610c2b929190613808565b506020820151816001019080519060200190610c48929190613808565b506040820151816002019080519060200190610c6592919061388e565b50905050600160116000828254610c7c9190614ac9565b92505081905550505050565b6000600880549050905090565b610ca6610ca0611c7c565b82611d3d565b610ce5576040517f08c379a0000000000000000000000000000000000000000000000000000000008152600401610cdc906148ce565b60405180910390fd5b610cf0838383611e1b565b505050565b6000610d00836115aa565b8210610d41576040517f08c379a0000000000000000000000000000000000000000000000000000000008152600401610d389061468e565b60405180910390fd5b600660008473ffffffffffffffffffffffffffffffffffffffff1673ffffffffffffffffffffffffffffffffffffffff168152602001908152602001600020600083815260200190815260200160002054905092915050565b3373ffffffffffffffffffffffffffffffffffffffff16600e60009054906101000a900473ffffffffffffffffffffffffffffffffffffffff1673ffffffffffffffffffffffffffffffffffffffff16636352211e836040518263ffffffff1660e01b8152600401610e0c919061496e565b60206040518083038186803b158015610e2457600080fd5b505afa158015610e38573d6000803e3d6000fd5b505050506040513d601f19601f82011682018060405250810190610e5c9190613bc0565b73ffffffffffffffffffffffffffffffffffffffff1614610eb2576040517fea7a24bc000000000000000000000000000000000000000000000000000000008152600401610ea99061490e565b60405180910390fd5b6000600e60009054906101000a900473ffffffffffffffffffffffffffffffffffffffff1673ffffffffffffffffffffffffffffffffffffffff1663e7e937b9836040518263ffffffff1660e01b8152600401610f0f919061496e565b60206040518083038186803b158015610f2757600080fd5b505afa158015610f3b573d6000803e3d6000fd5b505050506040513d601f19601f82011682018060405250810190610f5f9190613eb5565b905060008160ff1611156113a65760005b8160ff168160ff161015611313576000610f8982612082565b90506000610fa2600584610f9d9190614b1f565b612107565b90506000610fbc600a85610fb69190614b1f565b8361214e565b90506000610fca600c612287565b90506000610fe5600f87610fde9190614b1f565b6031612295565b90506000611000601488610ff99190614b1f565b6018612295565b9050600061101b6019896110149190614b1f565b6018612295565b90506000611036601e8a61102f9190614b1f565b6013612295565b9050600061104789868686866122ea565b9050611053600c6124cf565b61105d33876124e5565b6110678688612503565b604051806101a001604052808781526020018a60038111156110b2577f4e487b7100000000000000000000000000000000000000000000000000000000600052602160045260246000fd5b8152602001898152602001828152602001600081526020014281526020018881526020018660ff1681526020018560ff1681526020018460ff1681526020018360ff1681526020016040518060400160405280600681526020017f5a6f6d626965000000000000000000000000000000000000000000000000000081525081526020013373ffffffffffffffffffffffffffffffffffffffff16815250600f60008881526020019081526020016000206000820151816000015560208201518160010160006101000a81548160ff021916908360038111156111bd577f4e487b7100000000000000000000000000000000000000000000000000000000600052602160045260246000fd5b021790555060408201518160020155606082015181600301556080820151816004015560a0820151816005015560c0820151816006019080519060200190611206929190613808565b5060e08201518160070160006101000a81548160ff021916908360ff1602179055506101008201518160070160016101000a81548160ff021916908360ff1602179055506101208201518160070160026101000a81548160ff021916908360ff1602179055506101408201518160070160036101000a81548160ff021916908360ff1602179055506101608201518160080190805190602001906112ab929190613808565b506101808201518160090160006101000a81548173ffffffffffffffffffffffffffffffffffffffff021916908373ffffffffffffffffffffffffffffffffffffffff160217905550905050505050505050505050808061130b90614da9565b915050610f70565b50600e60009054906101000a900473ffffffffffffffffffffffffffffffffffffffff1673ffffffffffffffffffffffffffffffffffffffff166317cdd616836040518263ffffffff1660e01b815260040161136f919061496e565b600060405180830381600087803b15801561138957600080fd5b505af115801561139d573d6000803e3d6000fd5b505050506113e1565b6040517fea7a24bc0000000000000000000000000000000000000000000000000000000081526004016113d89061494e565b60405180910390fd5b5050565b611400838383604051806020016040528060008152506117bc565b505050565b611416611410611c7c565b82611d3d565b611455576040517f08c379a000000000000000000000000000000000000000000000000000000000815260040161144c9061492e565b60405180910390fd5b61145e81612577565b50565b600061146b610c88565b82106114ac576040517f08c379a00000000000000000000000000000000000000000000000000000000081526004016114a3906148ee565b60405180910390fd5b600882815481106114e6577f4e487b7100000000000000000000000000000000000000000000000000000000600052603260045260246000fd5b90600052602060002001549050919050565b6000806002600084815260200190815260200160002060009054906101000a900473ffffffffffffffffffffffffffffffffffffffff169050600073ffffffffffffffffffffffffffffffffffffffff168173ffffffffffffffffffffffffffffffffffffffff1614156115a1576040517f08c379a0000000000000000000000000000000000000000000000000000000008152600401611598906147ce565b60405180910390fd5b80915050919050565b60008073ffffffffffffffffffffffffffffffffffffffff168273ffffffffffffffffffffffffffffffffffffffff16141561161b576040517f08c379a0000000000000000000000000000000000000000000000000000000008152600401611612906147ae565b60405180910390fd5b600360008373ffffffffffffffffffffffffffffffffffffffff1673ffffffffffffffffffffffffffffffffffffffff168152602001908152602001600020549050919050565b61166a611c7c565b73ffffffffffffffffffffffffffffffffffffffff166116886116ea565b73ffffffffffffffffffffffffffffffffffffffff16146116de576040517f08c379a00000000000000000000000000000000000000000000000000000000081526004016116d59061486e565b60405180910390fd5b6116e86000612583565b565b6000600b60009054906101000a900473ffffffffffffffffffffffffffffffffffffffff16905090565b60606001805461172390614cfd565b80601f016020809104026020016040519081016040528092919081815260200182805461174f90614cfd565b801561179c5780601f106117715761010080835404028352916020019161179c565b820191906000526020600020905b81548152906001019060200180831161177f57829003601f168201915b5050505050905090565b6117b86117b1611c7c565b8383612649565b5050565b6117cd6117c7611c7c565b83611d3d565b61180c576040517f08c379a0000000000000000000000000000000000000000000000000000000008152600401611803906148ce565b60405180910390fd5b611818848484846127b6565b50505050565b6012602052806000526040600020600091509050805461183d90614cfd565b80601f016020809104026020016040519081016040528092919081815260200182805461186990614cfd565b80156118b65780601f1061188b576101008083540402835291602001916118b6565b820191906000526020600020905b81548152906001019060200180831161189957829003601f168201915b505050505081565b60606118c982612812565b9050919050565b60115481565b6000600560008473ffffffffffffffffffffffffffffffffffffffff1673ffffffffffffffffffffffffffffffffffffffff16815260200190815260200160002060008373ffffffffffffffffffffffffffffffffffffffff1673ffffffffffffffffffffffffffffffffffffffff16815260200190815260200160002060009054906101000a900460ff16905092915050565b611972611c7c565b73ffffffffffffffffffffffffffffffffffffffff166119906116ea565b73ffffffffffffffffffffffffffffffffffffffff16146119e6576040517f08c379a00000000000000000000000000000000000000000000000000000000081526004016119dd9061486e565b60405180910390fd5b600073ffffffffffffffffffffffffffffffffffffffff168173ffffffffffffffffffffffffffffffffffffffff161415611a56576040517f08c379a0000000000000000000000000000000000000000000000000000000008152600401611a4d906146ce565b60405180910390fd5b611a5f81612583565b50565b6010602052806000526040600020600091509050806000018054611a8590614cfd565b80601f0160208091040260200160405190810160405280929190818152602001828054611ab190614cfd565b8015611afe5780601f10611ad357610100808354040283529160200191611afe565b820191906000526020600020905b815481529060010190602001808311611ae157829003601f168201915b505050505090806001018054611b1390614cfd565b80601f0160208091040260200160405190810160405280929190818152602001828054611b3f90614cfd565b8015611b8c5780601f10611b6157610100808354040283529160200191611b8c565b820191906000526020600020905b815481529060010190602001808311611b6f57829003601f168201915b5050505050905082565b60007f780e9d63000000000000000000000000000000000000000000000000000000007bffffffffffffffffffffffffffffffffffffffffffffffffffffffff1916827bffffffffffffffffffffffffffffffffffffffffffffffffffffffff19161480611c095750611c0882612964565b5b9050919050565b60008073ffffffffffffffffffffffffffffffffffffffff166002600084815260200190815260200160002060009054906101000a900473ffffffffffffffffffffffffffffffffffffffff1673ffffffffffffffffffffffffffffffffffffffff1614159050919050565b600033905090565b816004600083815260200190815260200160002060006101000a81548173ffffffffffffffffffffffffffffffffffffffff021916908373ffffffffffffffffffffffffffffffffffffffff160217905550808273ffffffffffffffffffffffffffffffffffffffff16611cf7836114f8565b73ffffffffffffffffffffffffffffffffffffffff167f8c5be1e5ebec7d5bd14f71427d1e84f3dd0314c0f7b2291e5b200ac8c7c3b92560405160405180910390a45050565b6000611d4882611c10565b611d87576040517f08c379a0000000000000000000000000000000000000000000000000000000008152600401611d7e9061476e565b60405180910390fd5b6000611d92836114f8565b90508073ffffffffffffffffffffffffffffffffffffffff168473ffffffffffffffffffffffffffffffffffffffff161480611e0157508373ffffffffffffffffffffffffffffffffffffffff16611de9846105e4565b73ffffffffffffffffffffffffffffffffffffffff16145b80611e125750611e1181856118d6565b5b91505092915050565b8273ffffffffffffffffffffffffffffffffffffffff16611e3b826114f8565b73ffffffffffffffffffffffffffffffffffffffff1614611e91576040517f08c379a0000000000000000000000000000000000000000000000000000000008152600401611e88906146ee565b60405180910390fd5b600073ffffffffffffffffffffffffffffffffffffffff168273ffffffffffffffffffffffffffffffffffffffff161415611f01576040517f08c379a0000000000000000000000000000000000000000000000000000000008152600401611ef89061472e565b60405180910390fd5b611f0c838383612a46565b611f17600082611c84565b6001600360008573ffffffffffffffffffffffffffffffffffffffff1673ffffffffffffffffffffffffffffffffffffffff1681526020019081526020016000206000828254611f679190614be1565b925050819055506001600360008473ffffffffffffffffffffffffffffffffffffffff1673ffffffffffffffffffffffffffffffffffffffff1681526020019081526020016000206000828254611fbe9190614ac9565b92505081905550816002600083815260200190815260200160002060006101000a81548173ffffffffffffffffffffffffffffffffffffffff021916908373ffffffffffffffffffffffffffffffffffffffff160217905550808273ffffffffffffffffffffffffffffffffffffffff168473ffffffffffffffffffffffffffffffffffffffff167fddf252ad1be2c89b69c2b068fc378daa952ba7f163c4a11628f55a4df523b3ef60405160405180910390a461207d838383612a56565b505050565b6000806103e883444260016040516020016120a09493929190614543565b6040516020818303038152906040528051906020012060001c6120c39190614def565b9050600a81116120d7576003915050612102565b603c81116120e9576002915050612102565b61012c81116120fc576001915050612102565b60009150505b919050565b600060115482444260016040516020016121249493929190614543565b6040516020818303038152906040528051906020012060001c6121479190614def565b9050919050565b606060006010600084815260200190815260200160002090506000816002018054905085444260016040516020016121899493929190614543565b6040516020818303038152906040528051906020012060001c6121ac9190614def565b90508160020181815481106121ea577f4e487b7100000000000000000000000000000000000000000000000000000000600052603260045260246000fd5b9060005260206000200180546121ff90614cfd565b80601f016020809104026020016040519081016040528092919081815260200182805461222b90614cfd565b80156122785780601f1061224d57610100808354040283529160200191612278565b820191906000526020600020905b81548152906001019060200180831161225b57829003601f168201915b50505050509250505092915050565b600081600001549050919050565b600060018260ff1684444260016040516020016122b59493929190614543565b6040516020818303038152906040528051906020012060001c6122d89190614def565b6122e29190614b1f565b905092915050565b6000806001905060038081111561232a577f4e487b7100000000000000000000000000000000000000000000000000000000600052602160045260246000fd5b876003811115612363577f4e487b7100000000000000000000000000000000000000000000000000000000600052602160045260246000fd5b14156123725760159050612474565b600260038111156123ac577f4e487b7100000000000000000000000000000000000000000000000000000000600052602160045260246000fd5b8760038111156123e5577f4e487b7100000000000000000000000000000000000000000000000000000000600052602160045260246000fd5b14156123f45760099050612473565b6001600381111561242e577f4e487b7100000000000000000000000000000000000000000000000000000000600052602160045260246000fd5b876003811115612467577f4e487b7100000000000000000000000000000000000000000000000000000000600052602160045260246000fd5b141561247257600390505b5b5b670de0b6b3a764000060028486888a61248d9190614b1f565b6124979190614b1f565b6124a19190614b1f565b60ff166124ae9190614b56565b826124b99190614b87565b6124c39190614b87565b91505095945050505050565b6001816000016000828254019250508190555050565b6124ff828260405180602001604052806000815250612a5b565b5050565b61250c82611c10565b61254b576040517f08c379a0000000000000000000000000000000000000000000000000000000008152600401612542906147ee565b60405180910390fd5b80600a60008481526020019081526020016000209080519060200190612572929190613808565b505050565b61258081612ab6565b50565b6000600b60009054906101000a900473ffffffffffffffffffffffffffffffffffffffff16905081600b60006101000a81548173ffffffffffffffffffffffffffffffffffffffff021916908373ffffffffffffffffffffffffffffffffffffffff1602179055508173ffffffffffffffffffffffffffffffffffffffff168173ffffffffffffffffffffffffffffffffffffffff167f8be0079c531659141344cd1fd0a4f28419497f9722a3daafe3b4186f6b6457e060405160405180910390a35050565b8173ffffffffffffffffffffffffffffffffffffffff168373ffffffffffffffffffffffffffffffffffffffff1614156126b8576040517f08c379a00000000000000000000000000000000000000000000000000000000081526004016126af9061474e565b60405180910390fd5b80600560008573ffffffffffffffffffffffffffffffffffffffff1673ffffffffffffffffffffffffffffffffffffffff16815260200190815260200160002060008473ffffffffffffffffffffffffffffffffffffffff1673ffffffffffffffffffffffffffffffffffffffff16815260200190815260200160002060006101000a81548160ff0219169083151502179055508173ffffffffffffffffffffffffffffffffffffffff168373ffffffffffffffffffffffffffffffffffffffff167f17307eab39ab6107e8899845ad3d59bd9653f200f220920489ca2b5937696c31836040516127a9919061461a565b60405180910390a3505050565b6127c1848484611e1b565b6127cd84848484612b09565b61280c576040517f08c379a0000000000000000000000000000000000000000000000000000000008152600401612803906146ae565b60405180910390fd5b50505050565b606061281d82611c10565b61285c576040517f08c379a00000000000000000000000000000000000000000000000000000000081526004016128539061482e565b60405180910390fd5b6000600a6000848152602001908152602001600020805461287c90614cfd565b80601f01602080910402602001604051908101604052809291908181526020018280546128a890614cfd565b80156128f55780601f106128ca576101008083540402835291602001916128f5565b820191906000526020600020905b8154815290600101906020018083116128d857829003601f168201915b505050505090506000612906612ca0565b905060008151141561291c57819250505061295f565b60008251111561295157808260405160200161293992919061451f565b6040516020818303038152906040529250505061295f565b61295a84612cdd565b925050505b919050565b60007f80ac58cd000000000000000000000000000000000000000000000000000000007bffffffffffffffffffffffffffffffffffffffffffffffffffffffff1916827bffffffffffffffffffffffffffffffffffffffffffffffffffffffff19161480612a2f57507f5b5e139f000000000000000000000000000000000000000000000000000000007bffffffffffffffffffffffffffffffffffffffffffffffffffffffff1916827bffffffffffffffffffffffffffffffffffffffffffffffffffffffff1916145b80612a3f5750612a3e82612d84565b5b9050919050565b612a51838383612dee565b505050565b505050565b612a658383612f02565b612a726000848484612b09565b612ab1576040517f08c379a0000000000000000000000000000000000000000000000000000000008152600401612aa8906146ae565b60405180910390fd5b505050565b612abf816130dc565b6000600a60008381526020019081526020016000208054612adf90614cfd565b905014612b0657600a60008281526020019081526020016000206000612b0591906138ee565b5b50565b6000612b2a8473ffffffffffffffffffffffffffffffffffffffff166131f9565b15612c93578373ffffffffffffffffffffffffffffffffffffffff1663150b7a02612b53611c7c565b8786866040518563ffffffff1660e01b8152600401612b7594939291906145ac565b602060405180830381600087803b158015612b8f57600080fd5b505af1925050508015612bc057506040513d601f19601f82011682018060405250810190612bbd9190613d90565b60015b612c43573d8060008114612bf0576040519150601f19603f3d011682016040523d82523d6000602084013e612bf5565b606091505b50600081511415612c3b576040517f08c379a0000000000000000000000000000000000000000000000000000000008152600401612c32906146ae565b60405180910390fd5b805181602001fd5b63150b7a0260e01b7bffffffffffffffffffffffffffffffffffffffffffffffffffffffff1916817bffffffffffffffffffffffffffffffffffffffffffffffffffffffff191614915050612c98565b600190505b949350505050565b60606040518060400160405280601581526020017f68747470733a2f2f697066732e696f2f697066732f0000000000000000000000815250905090565b6060612ce882611c10565b612d27576040517f08c379a0000000000000000000000000000000000000000000000000000000008152600401612d1e9061488e565b60405180910390fd5b6000612d31612ca0565b90506000815111612d515760405180602001604052806000815250612d7c565b80612d5b8461321c565b604051602001612d6c92919061451f565b6040516020818303038152906040525b915050919050565b60007f01ffc9a7000000000000000000000000000000000000000000000000000000007bffffffffffffffffffffffffffffffffffffffffffffffffffffffff1916827bffffffffffffffffffffffffffffffffffffffffffffffffffffffff1916149050919050565b612df98383836133c9565b600073ffffffffffffffffffffffffffffffffffffffff168373ffffffffffffffffffffffffffffffffffffffff161415612e3c57612e37816133ce565b612e7b565b8173ffffffffffffffffffffffffffffffffffffffff168373ffffffffffffffffffffffffffffffffffffffff1614612e7a57612e798382613417565b5b5b600073ffffffffffffffffffffffffffffffffffffffff168273ffffffffffffffffffffffffffffffffffffffff161415612ebe57612eb981613584565b612efd565b8273ffffffffffffffffffffffffffffffffffffffff168273ffffffffffffffffffffffffffffffffffffffff1614612efc57612efb82826136c7565b5b5b505050565b600073ffffffffffffffffffffffffffffffffffffffff168273ffffffffffffffffffffffffffffffffffffffff161415612f72576040517f08c379a0000000000000000000000000000000000000000000000000000000008152600401612f699061480e565b60405180910390fd5b612f7b81611c10565b15612fbb576040517f08c379a0000000000000000000000000000000000000000000000000000000008152600401612fb29061470e565b60405180910390fd5b612fc760008383612a46565b6001600360008473ffffffffffffffffffffffffffffffffffffffff1673ffffffffffffffffffffffffffffffffffffffff16815260200190815260200160002060008282546130179190614ac9565b92505081905550816002600083815260200190815260200160002060006101000a81548173ffffffffffffffffffffffffffffffffffffffff021916908373ffffffffffffffffffffffffffffffffffffffff160217905550808273ffffffffffffffffffffffffffffffffffffffff16600073ffffffffffffffffffffffffffffffffffffffff167fddf252ad1be2c89b69c2b068fc378daa952ba7f163c4a11628f55a4df523b3ef60405160405180910390a46130d860008383612a56565b5050565b60006130e7826114f8565b90506130f581600084612a46565b613100600083611c84565b6001600360008373ffffffffffffffffffffffffffffffffffffffff1673ffffffffffffffffffffffffffffffffffffffff16815260200190815260200160002060008282546131509190614be1565b925050819055506002600083815260200190815260200160002060006101000a81549073ffffffffffffffffffffffffffffffffffffffff021916905581600073ffffffffffffffffffffffffffffffffffffffff168273ffffffffffffffffffffffffffffffffffffffff167fddf252ad1be2c89b69c2b068fc378daa952ba7f163c4a11628f55a4df523b3ef60405160405180910390a46131f581600084612a56565b5050565b6000808273ffffffffffffffffffffffffffffffffffffffff163b119050919050565b60606000821415613264576040518060400160405280600181526020017f300000000000000000000000000000000000000000000000000000000000000081525090506133c4565b600082905060005b6000821461329657808061327f90614d60565b915050600a8261328f9190614b56565b915061326c565b60008167ffffffffffffffff8111156132d8577f4e487b7100000000000000000000000000000000000000000000000000000000600052604160045260246000fd5b6040519080825280601f01601f19166020018201604052801561330a5781602001600182028036833780820191505090505b5090505b600085146133bd576001826133239190614be1565b9150600a856133329190614def565b603061333e9190614ac9565b60f81b81838151811061337a577f4e487b7100000000000000000000000000000000000000000000000000000000600052603260045260246000fd5b60200101907effffffffffffffffffffffffffffffffffffffffffffffffffffffffffffff1916908160001a905350600a856133b69190614b56565b945061330e565b8093505050505b919050565b505050565b6008805490506009600083815260200190815260200160002081905550600881908060018154018082558091505060019003906000526020600020016000909190919091505550565b60006001613424846115aa565b61342e9190614be1565b9050600060076000848152602001908152602001600020549050818114613513576000600660008673ffffffffffffffffffffffffffffffffffffffff1673ffffffffffffffffffffffffffffffffffffffff168152602001908152602001600020600084815260200190815260200160002054905080600660008773ffffffffffffffffffffffffffffffffffffffff1673ffffffffffffffffffffffffffffffffffffffff168152602001908152602001600020600084815260200190815260200160002081905550816007600083815260200190815260200160002081905550505b6007600084815260200190815260200160002060009055600660008573ffffffffffffffffffffffffffffffffffffffff1673ffffffffffffffffffffffffffffffffffffffff16815260200190815260200160002060008381526020019081526020016000206000905550505050565b600060016008805490506135989190614be1565b90506000600960008481526020019081526020016000205490506000600883815481106135ee577f4e487b7100000000000000000000000000000000000000000000000000000000600052603260045260246000fd5b906000526020600020015490508060088381548110613636577f4e487b7100000000000000000000000000000000000000000000000000000000600052603260045260246000fd5b9060005260206000200181905550816009600083815260200190815260200160002081905550600960008581526020019081526020016000206000905560088054806136ab577f4e487b7100000000000000000000000000000000000000000000000000000000600052603160045260246000fd5b6001900381819060005260206000200160009055905550505050565b60006136d2836115aa565b905081600660008573ffffffffffffffffffffffffffffffffffffffff1673ffffffffffffffffffffffffffffffffffffffff168152602001908152602001600020600083815260200190815260200160002081905550806007600084815260200190815260200160002081905550505050565b604051806101a001604052806000815260200160006003811115613793577f4e487b7100000000000000000000000000000000000000000000000000000000600052602160045260246000fd5b81526020016000815260200160008152602001600081526020016000815260200160608152602001600060ff168152602001600060ff168152602001600060ff168152602001600060ff16815260200160608152602001600073ffffffffffffffffffffffffffffffffffffffff1681525090565b82805461381490614cfd565b90600052602060002090601f016020900481019282613836576000855561387d565b82601f1061384f57805160ff191683800117855561387d565b8280016001018555821561387d579182015b8281111561387c578251825591602001919060010190613861565b5b50905061388a919061392e565b5090565b8280548282559060005260206000209081019282156138dd579160200282015b828111156138dc5782518290805190602001906138cc929190613808565b50916020019190600101906138ae565b5b5090506138ea919061394b565b5090565b5080546138fa90614cfd565b6000825580601f1061390c575061392b565b601f01602090049060005260206000209081019061392a919061392e565b5b50565b5b8082111561394757600081600090555060010161392f565b5090565b5b8082111561396b576000818161396291906138ee565b5060010161394c565b5090565b600061398261397d846149ae565b614989565b905080838252602082019050828560208602820111156139a157600080fd5b60005b858110156139eb57813567ffffffffffffffff8111156139c357600080fd5b8086016139d08982613b2e565b855260208501945060208401935050506001810190506139a4565b5050509392505050565b6000613a08613a03846149da565b614989565b905082815260208101848484011115613a2057600080fd5b613a2b848285614cbb565b509392505050565b6000613a46613a4184614a0b565b614989565b905082815260208101848484011115613a5e57600080fd5b613a69848285614cbb565b509392505050565b600081359050613a8081615572565b92915050565b600081519050613a9581615572565b92915050565b600082601f830112613aac57600080fd5b8135613abc84826020860161396f565b91505092915050565b600081359050613ad481615589565b92915050565b600081359050613ae9816155a0565b92915050565b600081519050613afe816155a0565b92915050565b600082601f830112613b1557600080fd5b8135613b258482602086016139f5565b91505092915050565b600082601f830112613b3f57600080fd5b8135613b4f848260208601613a33565b91505092915050565b600081359050613b67816155b7565b92915050565b600081359050613b7c816155ce565b92915050565b600081519050613b91816155ce565b92915050565b600060208284031215613ba957600080fd5b6000613bb784828501613a71565b91505092915050565b600060208284031215613bd257600080fd5b6000613be084828501613a86565b91505092915050565b60008060408385031215613bfc57600080fd5b6000613c0a85828601613a71565b9250506020613c1b85828601613a71565b9150509250929050565b600080600060608486031215613c3a57600080fd5b6000613c4886828701613a71565b9350506020613c5986828701613a71565b9250506040613c6a86828701613b58565b9150509250925092565b60008060008060808587031215613c8a57600080fd5b6000613c9887828801613a71565b9450506020613ca987828801613a71565b9350506040613cba87828801613b58565b925050606085013567ffffffffffffffff811115613cd757600080fd5b613ce387828801613b04565b91505092959194509250565b60008060408385031215613d0257600080fd5b6000613d1085828601613a71565b9250506020613d2185828601613ac5565b9150509250929050565b60008060408385031215613d3e57600080fd5b6000613d4c85828601613a71565b9250506020613d5d85828601613b58565b9150509250929050565b600060208284031215613d7957600080fd5b6000613d8784828501613ada565b91505092915050565b600060208284031215613da257600080fd5b6000613db084828501613aef565b91505092915050565b600080600060608486031215613dce57600080fd5b600084013567ffffffffffffffff811115613de857600080fd5b613df486828701613b2e565b935050602084013567ffffffffffffffff811115613e1157600080fd5b613e1d86828701613b2e565b925050604084013567ffffffffffffffff811115613e3a57600080fd5b613e4686828701613a9b565b9150509250925092565b600060208284031215613e6257600080fd5b6000613e7084828501613b58565b91505092915050565b60008060408385031215613e8c57600080fd5b6000613e9a85828601613b58565b9250506020613eab85828601613b6d565b9150509250929050565b600060208284031215613ec757600080fd5b6000613ed584828501613b82565b91505092915050565b6000613eea83836143a4565b905092915050565b613efb81614c15565b82525050565b613f0a81614c15565b82525050565b6000613f1b82614a4c565b613f258185614a7a565b935083602082028501613f3785614a3c565b8060005b85811015613f735784840389528151613f548582613ede565b9450613f5f83614a6d565b925060208a01995050600181019050613f3b565b50829750879550505050505092915050565b613f8e81614c27565b82525050565b6000613f9f82614a57565b613fa98185614a8b565b9350613fb9818560208601614cca565b613fc281614f0b565b840191505092915050565b613fd681614ca9565b82525050565b6000613fe782614a62565b613ff18185614a9c565b9350614001818560208601614cca565b61400a81614f0b565b840191505092915050565b600061402082614a62565b61402a8185614aad565b935061403a818560208601614cca565b61404381614f0b565b840191505092915050565b600061405982614a62565b6140638185614abe565b9350614073818560208601614cca565b80840191505092915050565b600061408c602b83614aad565b915061409782614f29565b604082019050919050565b60006140af603283614aad565b91506140ba82614f78565b604082019050919050565b60006140d2602683614aad565b91506140dd82614fc7565b604082019050919050565b60006140f5602583614aad565b915061410082615016565b604082019050919050565b6000614118601c83614aad565b915061412382615065565b602082019050919050565b600061413b602483614aad565b91506141468261508e565b604082019050919050565b600061415e601983614aad565b9150614169826150dd565b602082019050919050565b6000614181602c83614aad565b915061418c82615106565b604082019050919050565b60006141a4603883614aad565b91506141af82615155565b604082019050919050565b60006141c7602a83614aad565b91506141d2826151a4565b604082019050919050565b60006141ea602983614aad565b91506141f5826151f3565b604082019050919050565b600061420d602e83614aad565b915061421882615242565b604082019050919050565b6000614230602083614aad565b915061423b82615291565b602082019050919050565b6000614253603183614aad565b915061425e826152ba565b604082019050919050565b6000614276602c83614aad565b915061428182615309565b604082019050919050565b6000614299602083614aad565b91506142a482615358565b602082019050919050565b60006142bc602f83614aad565b91506142c782615381565b604082019050919050565b60006142df602183614aad565b91506142ea826153d0565b604082019050919050565b6000614302603183614aad565b915061430d8261541f565b604082019050919050565b6000614325602c83614aad565b91506143308261546e565b604082019050919050565b6000614348601883614aad565b9150614353826154bd565b602082019050919050565b600061436b603083614aad565b9150614376826154e6565b604082019050919050565b600061438e601d83614aad565b915061439982615535565b602082019050919050565b60006101a0830160008301516143bd60008601826144c4565b5060208301516143d06020860182613fcd565b5060408301516143e360408601826144c4565b5060608301516143f660608601826144c4565b50608083015161440960808601826144c4565b5060a083015161441c60a08601826144c4565b5060c083015184820360c08601526144348282613fdc565b91505060e083015161444960e08601826144f9565b5061010083015161445e6101008601826144f9565b506101208301516144736101208601826144f9565b506101408301516144886101408601826144f9565b506101608301518482036101608601526144a28282613fdc565b9150506101808301516144b9610180860182613ef2565b508091505092915050565b6144cd81614c92565b82525050565b6144dc81614c92565b82525050565b6144f36144ee82614c92565b614dd3565b82525050565b61450281614c9c565b82525050565b61451961451482614c9c565b614ddd565b82525050565b600061452b828561404e565b9150614537828461404e565b91508190509392505050565b600061454f8287614508565b60018201915061455f82866144e2565b60208201915061456f82856144e2565b60208201915061457f82846144e2565b60208201915081905095945050505050565b60006020820190506145a66000830184613f01565b92915050565b60006080820190506145c16000830187613f01565b6145ce6020830186613f01565b6145db60408301856144d3565b81810360608301526145ed8184613f94565b905095945050505050565b600060208201905081810360008301526146128184613f10565b905092915050565b600060208201905061462f6000830184613f85565b92915050565b6000602082019050818103600083015261464f8184614015565b905092915050565b600060408201905081810360008301526146718185614015565b905081810360208301526146858184614015565b90509392505050565b600060208201905081810360008301526146a78161407f565b9050919050565b600060208201905081810360008301526146c7816140a2565b9050919050565b600060208201905081810360008301526146e7816140c5565b9050919050565b60006020820190508181036000830152614707816140e8565b9050919050565b600060208201905081810360008301526147278161410b565b9050919050565b600060208201905081810360008301526147478161412e565b9050919050565b6000602082019050818103600083015261476781614151565b9050919050565b6000602082019050818103600083015261478781614174565b9050919050565b600060208201905081810360008301526147a781614197565b9050919050565b600060208201905081810360008301526147c7816141ba565b9050919050565b600060208201905081810360008301526147e7816141dd565b9050919050565b6000602082019050818103600083015261480781614200565b9050919050565b6000602082019050818103600083015261482781614223565b9050919050565b6000602082019050818103600083015261484781614246565b9050919050565b6000602082019050818103600083015261486781614269565b9050919050565b600060208201905081810360008301526148878161428c565b9050919050565b600060208201905081810360008301526148a7816142af565b9050919050565b600060208201905081810360008301526148c7816142d2565b9050919050565b600060208201905081810360008301526148e7816142f5565b9050919050565b6000602082019050818103600083015261490781614318565b9050919050565b600060208201905081810360008301526149278161433b565b9050919050565b600060208201905081810360008301526149478161435e565b9050919050565b6000602082019050818103600083015261496781614381565b9050919050565b600060208201905061498360008301846144d3565b92915050565b60006149936149a4565b905061499f8282614d2f565b919050565b6000604051905090565b600067ffffffffffffffff8211156149c9576149c8614edc565b5b602082029050602081019050919050565b600067ffffffffffffffff8211156149f5576149f4614edc565b5b6149fe82614f0b565b9050602081019050919050565b600067ffffffffffffffff821115614a2657614a25614edc565b5b614a2f82614f0b565b9050602081019050919050565b6000819050602082019050919050565b600081519050919050565b600081519050919050565b600081519050919050565b6000602082019050919050565b600082825260208201905092915050565b600082825260208201905092915050565b600082825260208201905092915050565b600082825260208201905092915050565b600081905092915050565b6000614ad482614c92565b9150614adf83614c92565b9250827fffffffffffffffffffffffffffffffffffffffffffffffffffffffffffffffff03821115614b1457614b13614e20565b5b828201905092915050565b6000614b2a82614c9c565b9150614b3583614c9c565b92508260ff03821115614b4b57614b4a614e20565b5b828201905092915050565b6000614b6182614c92565b9150614b6c83614c92565b925082614b7c57614b7b614e4f565b5b828204905092915050565b6000614b9282614c92565b9150614b9d83614c92565b9250817fffffffffffffffffffffffffffffffffffffffffffffffffffffffffffffffff0483118215151615614bd657614bd5614e20565b5b828202905092915050565b6000614bec82614c92565b9150614bf783614c92565b925082821015614c0a57614c09614e20565b5b828203905092915050565b6000614c2082614c72565b9050919050565b60008115159050919050565b60007fffffffff0000000000000000000000000000000000000000000000000000000082169050919050565b6000819050614c6d8261555e565b919050565b600073ffffffffffffffffffffffffffffffffffffffff82169050919050565b6000819050919050565b600060ff82169050919050565b6000614cb482614c5f565b9050919050565b82818337600083830152505050565b60005b83811015614ce8578082015181840152602081019050614ccd565b83811115614cf7576000848401525b50505050565b60006002820490506001821680614d1557607f821691505b60208210811415614d2957614d28614ead565b5b50919050565b614d3882614f0b565b810181811067ffffffffffffffff82111715614d5757614d56614edc565b5b80604052505050565b6000614d6b82614c92565b91507fffffffffffffffffffffffffffffffffffffffffffffffffffffffffffffffff821415614d9e57614d9d614e20565b5b600182019050919050565b6000614db482614c9c565b915060ff821415614dc857614dc7614e20565b5b600182019050919050565b6000819050919050565b6000614de882614f1c565b9050919050565b6000614dfa82614c92565b9150614e0583614c92565b925082614e1557614e14614e4f565b5b828206905092915050565b7f4e487b7100000000000000000000000000000000000000000000000000000000600052601160045260246000fd5b7f4e487b7100000000000000000000000000000000000000000000000000000000600052601260045260246000fd5b7f4e487b7100000000000000000000000000000000000000000000000000000000600052602160045260246000fd5b7f4e487b7100000000000000000000000000000000000000000000000000000000600052602260045260246000fd5b7f4e487b7100000000000000000000000000000000000000000000000000000000600052604160045260246000fd5b6000601f19601f8301169050919050565b60008160f81b9050919050565b7f455243373231456e756d657261626c653a206f776e657220696e646578206f7560008201527f74206f6620626f756e6473000000000000000000000000000000000000000000602082015250565b7f4552433732313a207472616e7366657220746f206e6f6e20455243373231526560008201527f63656976657220696d706c656d656e7465720000000000000000000000000000602082015250565b7f4f776e61626c653a206e6577206f776e657220697320746865207a65726f206160008201527f6464726573730000000000000000000000000000000000000000000000000000602082015250565b7f4552433732313a207472616e736665722066726f6d20696e636f72726563742060008201527f6f776e6572000000000000000000000000000000000000000000000000000000602082015250565b7f4552433732313a20746f6b656e20616c7265616479206d696e74656400000000600082015250565b7f4552433732313a207472616e7366657220746f20746865207a65726f2061646460008201527f7265737300000000000000000000000000000000000000000000000000000000602082015250565b7f4552433732313a20617070726f766520746f2063616c6c657200000000000000600082015250565b7f4552433732313a206f70657261746f7220717565727920666f72206e6f6e657860008201527f697374656e7420746f6b656e0000000000000000000000000000000000000000602082015250565b7f4552433732313a20617070726f76652063616c6c6572206973206e6f74206f7760008201527f6e6572206e6f7220617070726f76656420666f7220616c6c0000000000000000602082015250565b7f4552433732313a2062616c616e636520717565727920666f7220746865207a6560008201527f726f206164647265737300000000000000000000000000000000000000000000602082015250565b7f4552433732313a206f776e657220717565727920666f72206e6f6e657869737460008201527f656e7420746f6b656e0000000000000000000000000000000000000000000000602082015250565b7f45524337323155524953746f726167653a2055524920736574206f66206e6f6e60008201527f6578697374656e7420746f6b656e000000000000000000000000000000000000602082015250565b7f4552433732313a206d696e7420746f20746865207a65726f2061646472657373600082015250565b7f45524337323155524953746f726167653a2055524920717565727920666f722060008201527f6e6f6e6578697374656e7420746f6b656e000000000000000000000000000000602082015250565b7f4552433732313a20617070726f76656420717565727920666f72206e6f6e657860008201527f697374656e7420746f6b656e0000000000000000000000000000000000000000602082015250565b7f4f776e61626c653a2063616c6c6572206973206e6f7420746865206f776e6572600082015250565b7f4552433732314d657461646174613a2055524920717565727920666f72206e6f60008201527f6e6578697374656e7420746f6b656e0000000000000000000000000000000000602082015250565b7f4552433732313a20617070726f76616c20746f2063757272656e74206f776e6560008201527f7200000000000000000000000000000000000000000000000000000000000000602082015250565b7f4552433732313a207472616e736665722063616c6c6572206973206e6f74206f60008201527f776e6572206e6f7220617070726f766564000000000000000000000000000000602082015250565b7f455243373231456e756d657261626c653a20676c6f62616c20696e646578206f60008201527f7574206f6620626f756e64730000000000000000000000000000000000000000602082015250565b7f596f7520646f6e277420686176652074686973204c616e640000000000000000600082015250565b7f4552433732314275726e61626c653a2063616c6c6572206973206e6f74206f7760008201527f6e6572206e6f7220617070726f76656400000000000000000000000000000000602082015250565b7f596f752063616e2774206d696e742066726f6d2074686973204c616e64000000600082015250565b6004811061556f5761556e614e7e565b5b50565b61557b81614c15565b811461558657600080fd5b50565b61559281614c27565b811461559d57600080fd5b50565b6155a981614c33565b81146155b457600080fd5b50565b6155c081614c92565b81146155cb57600080fd5b50565b6155d781614c9c565b81146155e257600080fd5b5056fea26469706673582212208cc0f50b16735fafc97787f6e96f408907a9b8554aafc272bc99ee7da157c16f64736f6c63430008040033",
  "linkReferences": {},
  "deployedLinkReferences": {}
}