{
  "_format": "hh-sol-artifact-1",
  "contractName": "ZombieNFT",
  "sourceName": "src/backend/contracts/ZombieNFT.sol",
  "abi": [
    {
      "inputs": [
        {
          "internalType": "address",
          "name": "_contractMain",
          "type": "address"
        },
        {
          "internalType": "address",
          "name": "_contractLands",
          "type": "address"
        }
      ],
      "stateMutability": "nonpayable",
      "type": "constructor"
    },
    {
      "inputs": [
        {
          "internalType": "string",
          "name": "message",
          "type": "string"
        }
      ],
      "name": "ZombiesMintError",
      "type": "error"
    },
    {
      "anonymous": false,
      "inputs": [
        {
          "indexed": true,
          "internalType": "address",
          "name": "owner",
          "type": "address"
        },
        {
          "indexed": true,
          "internalType": "address",
          "name": "approved",
          "type": "address"
        },
        {
          "indexed": true,
          "internalType": "uint256",
          "name": "tokenId",
          "type": "uint256"
        }
      ],
      "name": "Approval",
      "type": "event"
    },
    {
      "anonymous": false,
      "inputs": [
        {
          "indexed": true,
          "internalType": "address",
          "name": "owner",
          "type": "address"
        },
        {
          "indexed": true,
          "internalType": "address",
          "name": "operator",
          "type": "address"
        },
        {
          "indexed": false,
          "internalType": "bool",
          "name": "approved",
          "type": "bool"
        }
      ],
      "name": "ApprovalForAll",
      "type": "event"
    },
    {
      "anonymous": false,
      "inputs": [
        {
          "indexed": true,
          "internalType": "address",
          "name": "previousOwner",
          "type": "address"
        },
        {
          "indexed": true,
          "internalType": "address",
          "name": "newOwner",
          "type": "address"
        }
      ],
      "name": "OwnershipTransferred",
      "type": "event"
    },
    {
      "anonymous": false,
      "inputs": [
        {
          "indexed": true,
          "internalType": "address",
          "name": "from",
          "type": "address"
        },
        {
          "indexed": true,
          "internalType": "address",
          "name": "to",
          "type": "address"
        },
        {
          "indexed": true,
          "internalType": "uint256",
          "name": "tokenId",
          "type": "uint256"
        }
      ],
      "name": "Transfer",
      "type": "event"
    },
    {
      "inputs": [
        {
          "internalType": "string",
          "name": "title",
          "type": "string"
        },
        {
          "internalType": "string",
          "name": "image",
          "type": "string"
        },
        {
          "internalType": "string[]",
          "name": "zombieImages",
          "type": "string[]"
        }
      ],
      "name": "addCollection",
      "outputs": [],
      "stateMutability": "nonpayable",
      "type": "function"
    },
    {
      "inputs": [
        {
          "internalType": "address",
          "name": "to",
          "type": "address"
        },
        {
          "internalType": "uint256",
          "name": "tokenId",
          "type": "uint256"
        }
      ],
      "name": "approve",
      "outputs": [],
      "stateMutability": "nonpayable",
      "type": "function"
    },
    {
      "inputs": [
        {
          "internalType": "address",
          "name": "owner",
          "type": "address"
        }
      ],
      "name": "balanceOf",
      "outputs": [
        {
          "internalType": "uint256",
          "name": "",
          "type": "uint256"
        }
      ],
      "stateMutability": "view",
      "type": "function"
    },
    {
      "inputs": [
        {
          "internalType": "uint256",
          "name": "tokenId",
          "type": "uint256"
        }
      ],
      "name": "burn",
      "outputs": [],
      "stateMutability": "nonpayable",
      "type": "function"
    },
    {
      "inputs": [
        {
          "internalType": "uint256",
          "name": "",
          "type": "uint256"
        }
      ],
      "name": "cardRarity",
      "outputs": [
        {
          "internalType": "string",
          "name": "",
          "type": "string"
        }
      ],
      "stateMutability": "view",
      "type": "function"
    },
    {
      "inputs": [],
      "name": "collectionCount",
      "outputs": [
        {
          "internalType": "uint256",
          "name": "",
          "type": "uint256"
        }
      ],
      "stateMutability": "view",
      "type": "function"
    },
    {
      "inputs": [
        {
          "internalType": "uint256",
          "name": "",
          "type": "uint256"
        }
      ],
      "name": "collections",
      "outputs": [
        {
          "internalType": "string",
          "name": "title",
          "type": "string"
        },
        {
          "internalType": "string",
          "name": "image",
          "type": "string"
        }
      ],
      "stateMutability": "view",
      "type": "function"
    },
    {
      "inputs": [
        {
          "internalType": "uint256",
          "name": "tokenId",
          "type": "uint256"
        }
      ],
      "name": "getApproved",
      "outputs": [
        {
          "internalType": "address",
          "name": "",
          "type": "address"
        }
      ],
      "stateMutability": "view",
      "type": "function"
    },
    {
      "inputs": [
        {
          "internalType": "address",
          "name": "owner",
          "type": "address"
        },
        {
          "internalType": "address",
          "name": "operator",
          "type": "address"
        }
      ],
      "name": "isApprovedForAll",
      "outputs": [
        {
          "internalType": "bool",
          "name": "",
          "type": "bool"
        }
      ],
      "stateMutability": "view",
      "type": "function"
    },
    {
      "inputs": [],
      "name": "name",
      "outputs": [
        {
          "internalType": "string",
          "name": "",
          "type": "string"
        }
      ],
      "stateMutability": "view",
      "type": "function"
    },
    {
      "inputs": [],
      "name": "owner",
      "outputs": [
        {
          "internalType": "address",
          "name": "",
          "type": "address"
        }
      ],
      "stateMutability": "view",
      "type": "function"
    },
    {
      "inputs": [
        {
          "internalType": "uint256",
          "name": "tokenId",
          "type": "uint256"
        }
      ],
      "name": "ownerOf",
      "outputs": [
        {
          "internalType": "address",
          "name": "",
          "type": "address"
        }
      ],
      "stateMutability": "view",
      "type": "function"
    },
    {
      "inputs": [],
      "name": "renounceOwnership",
      "outputs": [],
      "stateMutability": "nonpayable",
      "type": "function"
    },
    {
      "inputs": [
        {
          "internalType": "uint256",
          "name": "landId",
          "type": "uint256"
        }
      ],
      "name": "safeMint",
      "outputs": [],
      "stateMutability": "nonpayable",
      "type": "function"
    },
    {
      "inputs": [
        {
          "internalType": "address",
          "name": "from",
          "type": "address"
        },
        {
          "internalType": "address",
          "name": "to",
          "type": "address"
        },
        {
          "internalType": "uint256",
          "name": "tokenId",
          "type": "uint256"
        }
      ],
      "name": "safeTransferFrom",
      "outputs": [],
      "stateMutability": "nonpayable",
      "type": "function"
    },
    {
      "inputs": [
        {
          "internalType": "address",
          "name": "from",
          "type": "address"
        },
        {
          "internalType": "address",
          "name": "to",
          "type": "address"
        },
        {
          "internalType": "uint256",
          "name": "tokenId",
          "type": "uint256"
        },
        {
          "internalType": "bytes",
          "name": "_data",
          "type": "bytes"
        }
      ],
      "name": "safeTransferFrom",
      "outputs": [],
      "stateMutability": "nonpayable",
      "type": "function"
    },
    {
      "inputs": [
        {
          "internalType": "address",
          "name": "operator",
          "type": "address"
        },
        {
          "internalType": "bool",
          "name": "approved",
          "type": "bool"
        }
      ],
      "name": "setApprovalForAll",
      "outputs": [],
      "stateMutability": "nonpayable",
      "type": "function"
    },
    {
      "inputs": [
        {
          "internalType": "bytes4",
          "name": "_interfaceId",
          "type": "bytes4"
        }
      ],
      "name": "supportsInterface",
      "outputs": [
        {
          "internalType": "bool",
          "name": "",
          "type": "bool"
        }
      ],
      "stateMutability": "view",
      "type": "function"
    },
    {
      "inputs": [],
      "name": "symbol",
      "outputs": [
        {
          "internalType": "string",
          "name": "",
          "type": "string"
        }
      ],
      "stateMutability": "view",
      "type": "function"
    },
    {
      "inputs": [
        {
          "internalType": "uint256",
          "name": "index",
          "type": "uint256"
        }
      ],
      "name": "tokenByIndex",
      "outputs": [
        {
          "internalType": "uint256",
          "name": "",
          "type": "uint256"
        }
      ],
      "stateMutability": "view",
      "type": "function"
    },
    {
      "inputs": [
        {
          "internalType": "address",
          "name": "owner",
          "type": "address"
        },
        {
          "internalType": "uint256",
          "name": "index",
          "type": "uint256"
        }
      ],
      "name": "tokenOfOwnerByIndex",
      "outputs": [
        {
          "internalType": "uint256",
          "name": "",
          "type": "uint256"
        }
      ],
      "stateMutability": "view",
      "type": "function"
    },
    {
      "inputs": [
        {
          "internalType": "uint256",
          "name": "_tokenId",
          "type": "uint256"
        }
      ],
      "name": "tokenURI",
      "outputs": [
        {
          "internalType": "string",
          "name": "",
          "type": "string"
        }
      ],
      "stateMutability": "view",
      "type": "function"
    },
    {
      "inputs": [],
      "name": "totalSupply",
      "outputs": [
        {
          "internalType": "uint256",
          "name": "",
          "type": "uint256"
        }
      ],
      "stateMutability": "view",
      "type": "function"
    },
    {
      "inputs": [
        {
          "internalType": "address",
          "name": "from",
          "type": "address"
        },
        {
          "internalType": "address",
          "name": "to",
          "type": "address"
        },
        {
          "internalType": "uint256",
          "name": "tokenId",
          "type": "uint256"
        }
      ],
      "name": "transferFrom",
      "outputs": [],
      "stateMutability": "nonpayable",
      "type": "function"
    },
    {
      "inputs": [
        {
          "internalType": "address",
          "name": "newOwner",
          "type": "address"
        }
      ],
      "name": "transferOwnership",
      "outputs": [],
      "stateMutability": "nonpayable",
      "type": "function"
    },
    {
      "inputs": [
        {
          "internalType": "uint256",
          "name": "_startIndex",
          "type": "uint256"
        },
        {
          "internalType": "uint8",
          "name": "_count",
          "type": "uint8"
        }
      ],
      "name": "userZombies",
      "outputs": [
        {
          "components": [
            {
              "internalType": "uint256",
              "name": "tokenId",
              "type": "uint256"
            },
            {
              "internalType": "enum ZombieNFT.CardRarity",
              "name": "cardRarity",
              "type": "uint8"
            },
            {
              "internalType": "uint256",
              "name": "collection",
              "type": "uint256"
            },
            {
              "internalType": "uint256",
              "name": "killTokens",
              "type": "uint256"
            },
            {
              "internalType": "uint256",
              "name": "salePrice",
              "type": "uint256"
            },
            {
              "internalType": "uint256",
              "name": "mintDate",
              "type": "uint256"
            },
            {
              "internalType": "string",
              "name": "media",
              "type": "string"
            },
            {
              "internalType": "uint8",
              "name": "health",
              "type": "uint8"
            },
            {
              "internalType": "uint8",
              "name": "attack",
              "type": "uint8"
            },
            {
              "internalType": "uint8",
              "name": "brain",
              "type": "uint8"
            },
            {
              "internalType": "uint8",
              "name": "speed",
              "type": "uint8"
            },
            {
              "internalType": "string",
              "name": "nftType",
              "type": "string"
            },
            {
              "internalType": "address",
              "name": "ownerId",
              "type": "address"
            }
          ],
          "internalType": "struct ZombieNFT.Zombie[]",
          "name": "",
          "type": "tuple[]"
        }
      ],
      "stateMutability": "view",
      "type": "function"
    }
  ],
  "bytecode": "0x60806040523480156200001157600080fd5b506040516200603738038062006037833981810160405281019062000037919062000495565b6040518060400160405280600781526020017f5a6f6d4c616e64000000000000000000000000000000000000000000000000008152506040518060400160405280600481526020017f5a4d4c5a000000000000000000000000000000000000000000000000000000008152508160009080519060200190620000bb929190620003ce565b508060019080519060200190620000d4929190620003ce565b505050620000f7620000eb6200030060201b60201c565b6200030860201b60201c565b81600d60006101000a81548173ffffffffffffffffffffffffffffffffffffffff021916908373ffffffffffffffffffffffffffffffffffffffff16021790555080600e60006101000a81548173ffffffffffffffffffffffffffffffffffffffff021916908373ffffffffffffffffffffffffffffffffffffffff1602179055506040518060400160405280600681526020017f436f6d6d6f6e0000000000000000000000000000000000000000000000000000815250601260008081526020019081526020016000209080519060200190620001d7929190620003ce565b506040518060400160405280600881526020017f556e636f6d6d6f6e0000000000000000000000000000000000000000000000008152506012600060018152602001908152602001600020908051906020019062000237929190620003ce565b506040518060400160405280600481526020017f52617265000000000000000000000000000000000000000000000000000000008152506012600060028152602001908152602001600020908051906020019062000297929190620003ce565b506040518060400160405280600481526020017f457069630000000000000000000000000000000000000000000000000000000081525060126000600381526020019081526020016000209080519060200190620002f7929190620003ce565b50505062000589565b600033905090565b6000600b60009054906101000a900473ffffffffffffffffffffffffffffffffffffffff16905081600b60006101000a81548173ffffffffffffffffffffffffffffffffffffffff021916908373ffffffffffffffffffffffffffffffffffffffff1602179055508173ffffffffffffffffffffffffffffffffffffffff168173ffffffffffffffffffffffffffffffffffffffff167f8be0079c531659141344cd1fd0a4f28419497f9722a3daafe3b4186f6b6457e060405160405180910390a35050565b828054620003dc906200050a565b90600052602060002090601f0160209004810192826200040057600085556200044c565b82601f106200041b57805160ff19168380011785556200044c565b828001600101855582156200044c579182015b828111156200044b5782518255916020019190600101906200042e565b5b5090506200045b91906200045f565b5090565b5b808211156200047a57600081600090555060010162000460565b5090565b6000815190506200048f816200056f565b92915050565b60008060408385031215620004a957600080fd5b6000620004b9858286016200047e565b9250506020620004cc858286016200047e565b9150509250929050565b6000620004e382620004ea565b9050919050565b600073ffffffffffffffffffffffffffffffffffffffff82169050919050565b600060028204905060018216806200052357607f821691505b602082108114156200053a576200053962000540565b5b50919050565b7f4e487b7100000000000000000000000000000000000000000000000000000000600052602260045260246000fd5b6200057a81620004d6565b81146200058657600080fd5b50565b615a9e80620005996000396000f3fe608060405234801561001057600080fd5b506004361061018e5760003560e01c80636352211e116100de578063b88d4fde11610097578063d57f966b11610071578063d57f966b146104a5578063e985e9c5146104c3578063f2fde38b146104f3578063fdbda0ec1461050f5761018e565b8063b88d4fde14610429578063bd5f161c14610445578063c87b56dd146104755761018e565b80636352211e1461036757806370a0823114610397578063715018a6146103c75780638da5cb5b146103d157806395d89b41146103ef578063a22cb4651461040d5761018e565b806318160ddd1161014b57806331c864e81161012557806331c864e8146102e357806342842e0e146102ff57806342966c681461031b5780634f6ccce7146103375761018e565b806318160ddd1461027957806323b872dd146102975780632f745c59146102b35761018e565b806301ffc9a71461019357806306fdde03146101c3578063081812fc146101e1578063095ea7b314610211578063112400f91461022d578063131376111461025d575b600080fd5b6101ad60048036038101906101a8919061410d565b610540565b6040516101ba91906149c0565b60405180910390f35b6101cb610552565b6040516101d891906149db565b60405180910390f35b6101fb60048036038101906101f691906141f6565b6105e4565b6040516102089190614937565b60405180910390f35b61022b600480360381019061022691906140d1565b610669565b005b6102476004803603810190610242919061421f565b610781565b604051610254919061499e565b60405180910390f35b6102776004803603810190610272919061415f565b610b63565b005b610281610c88565b60405161028e9190614d44565b60405180910390f35b6102b160048036038101906102ac9190613fcb565b610c95565b005b6102cd60048036038101906102c891906140d1565b610cf5565b6040516102da9190614d44565b60405180910390f35b6102fd60048036038101906102f891906141f6565b610d9a565b005b61031960048036038101906103149190613fcb565b6114f1565b005b610335600480360381019061033091906141f6565b611511565b005b610351600480360381019061034c91906141f6565b61156d565b60405161035e9190614d44565b60405180910390f35b610381600480360381019061037c91906141f6565b611604565b60405161038e9190614937565b60405180910390f35b6103b160048036038101906103ac9190613f3d565b6116b6565b6040516103be9190614d44565b60405180910390f35b6103cf61176e565b005b6103d96117f6565b6040516103e69190614937565b60405180910390f35b6103f7611820565b60405161040491906149db565b60405180910390f35b61042760048036038101906104229190614095565b6118b2565b005b610443600480360381019061043e919061401a565b6118c8565b005b61045f600480360381019061045a91906141f6565b61192a565b60405161046c91906149db565b60405180910390f35b61048f600480360381019061048a91906141f6565b6119ca565b60405161049c91906149db565b60405180910390f35b6104ad6119dc565b6040516104ba9190614d44565b60405180910390f35b6104dd60048036038101906104d89190613f8f565b6119e2565b6040516104ea91906149c0565b60405180910390f35b61050d60048036038101906105089190613f3d565b611a76565b005b610529600480360381019061052491906141f6565b611b6e565b6040516105379291906149fd565b60405180910390f35b600061054b82611ca2565b9050919050565b60606000805461056190615180565b80601f016020809104026020016040519081016040528092919081815260200182805461058d90615180565b80156105da5780601f106105af576101008083540402835291602001916105da565b820191906000526020600020905b8154815290600101906020018083116105bd57829003601f168201915b5050505050905090565b60006105ef82611d1c565b61062e576040517f08c379a000000000000000000000000000000000000000000000000000000000815260040161062590614c24565b60405180910390fd5b6004600083815260200190815260200160002060009054906101000a900473ffffffffffffffffffffffffffffffffffffffff169050919050565b600061067482611604565b90508073ffffffffffffffffffffffffffffffffffffffff168373ffffffffffffffffffffffffffffffffffffffff1614156106e5576040517f08c379a00000000000000000000000000000000000000000000000000000000081526004016106dc90614c84565b60405180910390fd5b8073ffffffffffffffffffffffffffffffffffffffff16610704611d88565b73ffffffffffffffffffffffffffffffffffffffff16148061073357506107328161072d611d88565b6119e2565b5b610772576040517f08c379a000000000000000000000000000000000000000000000000000000000815260040161076990614b64565b60405180910390fd5b61077c8383611d90565b505050565b606060008260ff1667ffffffffffffffff8111156107c8577f4e487b7100000000000000000000000000000000000000000000000000000000600052604160045260246000fd5b60405190808252806020026020018201604052801561080157816020015b6107ee613aec565b8152602001906001900390816107e65790505b509050600061080f336116b6565b905060008590505b8460ff16811015610b575780821115610b445760006108363383610cf5565b9050600f6000828152602001908152602001600020604051806101a0016040529081600082015481526020016001820160009054906101000a900460ff1660038111156108ac577f4e487b7100000000000000000000000000000000000000000000000000000000600052602160045260246000fd5b60038111156108e4577f4e487b7100000000000000000000000000000000000000000000000000000000600052602160045260246000fd5b81526020016002820154815260200160038201548152602001600482015481526020016005820154815260200160068201805461092090615180565b80601f016020809104026020016040519081016040528092919081815260200182805461094c90615180565b80156109995780601f1061096e57610100808354040283529160200191610999565b820191906000526020600020905b81548152906001019060200180831161097c57829003601f168201915b505050505081526020016007820160009054906101000a900460ff1660ff1660ff1681526020016007820160019054906101000a900460ff1660ff1660ff1681526020016007820160029054906101000a900460ff1660ff1660ff1681526020016007820160039054906101000a900460ff1660ff1660ff168152602001600882018054610a2690615180565b80601f0160208091040260200160405190810160405280929190818152602001828054610a5290615180565b8015610a9f5780601f10610a7457610100808354040283529160200191610a9f565b820191906000526020600020905b815481529060010190602001808311610a8257829003601f168201915b505050505081526020016009820160009054906101000a900473ffffffffffffffffffffffffffffffffffffffff1673ffffffffffffffffffffffffffffffffffffffff1673ffffffffffffffffffffffffffffffffffffffff1681525050848381518110610b37577f4e487b7100000000000000000000000000000000000000000000000000000000600052603260045260246000fd5b6020026020010181905250505b8080610b4f906151e3565b915050610817565b50819250505092915050565b610b6b611d88565b73ffffffffffffffffffffffffffffffffffffffff16610b896117f6565b73ffffffffffffffffffffffffffffffffffffffff1614610bdf576040517f08c379a0000000000000000000000000000000000000000000000000000000008152600401610bd690614c44565b60405180910390fd5b6040518060600160405280848152602001838152602001828152506010600060115481526020019081526020016000206000820151816000019080519060200190610c2b929190613bae565b506020820151816001019080519060200190610c48929190613bae565b506040820151816002019080519060200190610c65929190613c34565b50905050600160116000828254610c7c9190614ee4565b92505081905550505050565b6000600880549050905090565b610ca6610ca0611d88565b82611e49565b610ce5576040517f08c379a0000000000000000000000000000000000000000000000000000000008152600401610cdc90614ca4565b60405180910390fd5b610cf0838383611f27565b505050565b6000610d00836116b6565b8210610d41576040517f08c379a0000000000000000000000000000000000000000000000000000000008152600401610d3890614a64565b60405180910390fd5b600660008473ffffffffffffffffffffffffffffffffffffffff1673ffffffffffffffffffffffffffffffffffffffff168152602001908152602001600020600083815260200190815260200160002054905092915050565b3373ffffffffffffffffffffffffffffffffffffffff16600e60009054906101000a900473ffffffffffffffffffffffffffffffffffffffff1673ffffffffffffffffffffffffffffffffffffffff16636352211e836040518263ffffffff1660e01b8152600401610e0c9190614d44565b60206040518083038186803b158015610e2457600080fd5b505afa158015610e38573d6000803e3d6000fd5b505050506040513d601f19601f82011682018060405250810190610e5c9190613f66565b73ffffffffffffffffffffffffffffffffffffffff1614610eb2576040517fea7a24bc000000000000000000000000000000000000000000000000000000008152600401610ea990614ce4565b60405180910390fd5b6000600e60009054906101000a900473ffffffffffffffffffffffffffffffffffffffff1673ffffffffffffffffffffffffffffffffffffffff1663e7e937b9836040518263ffffffff1660e01b8152600401610f0f9190614d44565b60206040518083038186803b158015610f2757600080fd5b505afa158015610f3b573d6000803e3d6000fd5b505050506040513d601f19601f82011682018060405250810190610f5f919061425b565b9050610fa36040518060400160405280600881526020017f43616e206d696e740000000000000000000000000000000000000000000000008152508260ff1661218e565b60008160ff1611156114b25760005b8160ff168160ff1610156113e157610ffe6040518060400160405280600d81526020017f6e6577207a6f6d6269652e2e2e0000000000000000000000000000000000000081525061222a565b6000611009826122c3565b9050600061101683612348565b90506110576040518060400160405280601081526020017f5f636f6c6c656374696f6e496e646578000000000000000000000000000000008152508261218e565b6000611063848361238f565b90506110a46040518060400160405280600481526020017f5f75726900000000000000000000000000000000000000000000000000000000815250826124c8565b60006110b0600c612564565b905060006110bf866032612572565b905060006110ce876019612572565b905060006110dd886019612572565b905060006110ec896014612572565b905060006110fd89868686866125bb565b90506111178560ff168560ff168560ff168560ff166127aa565b611121600c61284c565b61112b3387612862565b6111358688612880565b604051806101a001604052808781526020018a6003811115611180577f4e487b7100000000000000000000000000000000000000000000000000000000600052602160045260246000fd5b8152602001898152602001828152602001600081526020014281526020018881526020018660ff1681526020018560ff1681526020018460ff1681526020018360ff1681526020016040518060400160405280600681526020017f5a6f6d626965000000000000000000000000000000000000000000000000000081525081526020013373ffffffffffffffffffffffffffffffffffffffff16815250600f60008881526020019081526020016000206000820151816000015560208201518160010160006101000a81548160ff0219169083600381111561128b577f4e487b7100000000000000000000000000000000000000000000000000000000600052602160045260246000fd5b021790555060408201518160020155606082015181600301556080820151816004015560a0820151816005015560c08201518160060190805190602001906112d4929190613bae565b5060e08201518160070160006101000a81548160ff021916908360ff1602179055506101008201518160070160016101000a81548160ff021916908360ff1602179055506101208201518160070160026101000a81548160ff021916908360ff1602179055506101408201518160070160036101000a81548160ff021916908360ff160217905550610160820151816008019080519060200190611379929190613bae565b506101808201518160090160006101000a81548173ffffffffffffffffffffffffffffffffffffffff021916908373ffffffffffffffffffffffffffffffffffffffff16021790555090505050505050505050505080806113d99061522c565b915050610fb2565b506114206040518060400160405280601781526020017f6c616e645365744d696e7454696d657374616d702e2e2e00000000000000000081525061222a565b600e60009054906101000a900473ffffffffffffffffffffffffffffffffffffffff1673ffffffffffffffffffffffffffffffffffffffff166317cdd616836040518263ffffffff1660e01b815260040161147b9190614d44565b600060405180830381600087803b15801561149557600080fd5b505af11580156114a9573d6000803e3d6000fd5b505050506114ed565b6040517fea7a24bc0000000000000000000000000000000000000000000000000000000081526004016114e490614d24565b60405180910390fd5b5050565b61150c838383604051806020016040528060008152506118c8565b505050565b61152261151c611d88565b82611e49565b611561576040517f08c379a000000000000000000000000000000000000000000000000000000000815260040161155890614d04565b60405180910390fd5b61156a816128f4565b50565b6000611577610c88565b82106115b8576040517f08c379a00000000000000000000000000000000000000000000000000000000081526004016115af90614cc4565b60405180910390fd5b600882815481106115f2577f4e487b7100000000000000000000000000000000000000000000000000000000600052603260045260246000fd5b90600052602060002001549050919050565b6000806002600084815260200190815260200160002060009054906101000a900473ffffffffffffffffffffffffffffffffffffffff169050600073ffffffffffffffffffffffffffffffffffffffff168173ffffffffffffffffffffffffffffffffffffffff1614156116ad576040517f08c379a00000000000000000000000000000000000000000000000000000000081526004016116a490614ba4565b60405180910390fd5b80915050919050565b60008073ffffffffffffffffffffffffffffffffffffffff168273ffffffffffffffffffffffffffffffffffffffff161415611727576040517f08c379a000000000000000000000000000000000000000000000000000000000815260040161171e90614b84565b60405180910390fd5b600360008373ffffffffffffffffffffffffffffffffffffffff1673ffffffffffffffffffffffffffffffffffffffff168152602001908152602001600020549050919050565b611776611d88565b73ffffffffffffffffffffffffffffffffffffffff166117946117f6565b73ffffffffffffffffffffffffffffffffffffffff16146117ea576040517f08c379a00000000000000000000000000000000000000000000000000000000081526004016117e190614c44565b60405180910390fd5b6117f46000612900565b565b6000600b60009054906101000a900473ffffffffffffffffffffffffffffffffffffffff16905090565b60606001805461182f90615180565b80601f016020809104026020016040519081016040528092919081815260200182805461185b90615180565b80156118a85780601f1061187d576101008083540402835291602001916118a8565b820191906000526020600020905b81548152906001019060200180831161188b57829003601f168201915b5050505050905090565b6118c46118bd611d88565b83836129c6565b5050565b6118d96118d3611d88565b83611e49565b611918576040517f08c379a000000000000000000000000000000000000000000000000000000000815260040161190f90614ca4565b60405180910390fd5b61192484848484612b33565b50505050565b6012602052806000526040600020600091509050805461194990615180565b80601f016020809104026020016040519081016040528092919081815260200182805461197590615180565b80156119c25780601f10611997576101008083540402835291602001916119c2565b820191906000526020600020905b8154815290600101906020018083116119a557829003601f168201915b505050505081565b60606119d582612b8f565b9050919050565b60115481565b6000600560008473ffffffffffffffffffffffffffffffffffffffff1673ffffffffffffffffffffffffffffffffffffffff16815260200190815260200160002060008373ffffffffffffffffffffffffffffffffffffffff1673ffffffffffffffffffffffffffffffffffffffff16815260200190815260200160002060009054906101000a900460ff16905092915050565b611a7e611d88565b73ffffffffffffffffffffffffffffffffffffffff16611a9c6117f6565b73ffffffffffffffffffffffffffffffffffffffff1614611af2576040517f08c379a0000000000000000000000000000000000000000000000000000000008152600401611ae990614c44565b60405180910390fd5b600073ffffffffffffffffffffffffffffffffffffffff168173ffffffffffffffffffffffffffffffffffffffff161415611b62576040517f08c379a0000000000000000000000000000000000000000000000000000000008152600401611b5990614aa4565b60405180910390fd5b611b6b81612900565b50565b6010602052806000526040600020600091509050806000018054611b9190615180565b80601f0160208091040260200160405190810160405280929190818152602001828054611bbd90615180565b8015611c0a5780601f10611bdf57610100808354040283529160200191611c0a565b820191906000526020600020905b815481529060010190602001808311611bed57829003601f168201915b505050505090806001018054611c1f90615180565b80601f0160208091040260200160405190810160405280929190818152602001828054611c4b90615180565b8015611c985780601f10611c6d57610100808354040283529160200191611c98565b820191906000526020600020905b815481529060010190602001808311611c7b57829003601f168201915b5050505050905082565b60007f780e9d63000000000000000000000000000000000000000000000000000000007bffffffffffffffffffffffffffffffffffffffffffffffffffffffff1916827bffffffffffffffffffffffffffffffffffffffffffffffffffffffff19161480611d155750611d1482612ce1565b5b9050919050565b60008073ffffffffffffffffffffffffffffffffffffffff166002600084815260200190815260200160002060009054906101000a900473ffffffffffffffffffffffffffffffffffffffff1673ffffffffffffffffffffffffffffffffffffffff1614159050919050565b600033905090565b816004600083815260200190815260200160002060006101000a81548173ffffffffffffffffffffffffffffffffffffffff021916908373ffffffffffffffffffffffffffffffffffffffff160217905550808273ffffffffffffffffffffffffffffffffffffffff16611e0383611604565b73ffffffffffffffffffffffffffffffffffffffff167f8c5be1e5ebec7d5bd14f71427d1e84f3dd0314c0f7b2291e5b200ac8c7c3b92560405160405180910390a45050565b6000611e5482611d1c565b611e93576040517f08c379a0000000000000000000000000000000000000000000000000000000008152600401611e8a90614b44565b60405180910390fd5b6000611e9e83611604565b90508073ffffffffffffffffffffffffffffffffffffffff168473ffffffffffffffffffffffffffffffffffffffff161480611f0d57508373ffffffffffffffffffffffffffffffffffffffff16611ef5846105e4565b73ffffffffffffffffffffffffffffffffffffffff16145b80611f1e5750611f1d81856119e2565b5b91505092915050565b8273ffffffffffffffffffffffffffffffffffffffff16611f4782611604565b73ffffffffffffffffffffffffffffffffffffffff1614611f9d576040517f08c379a0000000000000000000000000000000000000000000000000000000008152600401611f9490614ac4565b60405180910390fd5b600073ffffffffffffffffffffffffffffffffffffffff168273ffffffffffffffffffffffffffffffffffffffff16141561200d576040517f08c379a000000000000000000000000000000000000000000000000000000000815260040161200490614b04565b60405180910390fd5b612018838383612dc3565b612023600082611d90565b6001600360008573ffffffffffffffffffffffffffffffffffffffff1673ffffffffffffffffffffffffffffffffffffffff16815260200190815260200160002060008282546120739190615050565b925050819055506001600360008473ffffffffffffffffffffffffffffffffffffffff1673ffffffffffffffffffffffffffffffffffffffff16815260200190815260200160002060008282546120ca9190614ee4565b92505081905550816002600083815260200190815260200160002060006101000a81548173ffffffffffffffffffffffffffffffffffffffff021916908373ffffffffffffffffffffffffffffffffffffffff160217905550808273ffffffffffffffffffffffffffffffffffffffff168473ffffffffffffffffffffffffffffffffffffffff167fddf252ad1be2c89b69c2b068fc378daa952ba7f163c4a11628f55a4df523b3ef60405160405180910390a4612189838383612dd3565b505050565b61222682826040516024016121a4929190614a34565b6040516020818303038152906040527f9710a9d0000000000000000000000000000000000000000000000000000000007bffffffffffffffffffffffffffffffffffffffffffffffffffffffff19166020820180517bffffffffffffffffffffffffffffffffffffffffffffffffffffffff8381831617835250505050612dd8565b5050565b6122c08160405160240161223e91906149db565b6040516020818303038152906040527f41304fac000000000000000000000000000000000000000000000000000000007bffffffffffffffffffffffffffffffffffffffffffffffffffffffff19166020820180517bffffffffffffffffffffffffffffffffffffffffffffffffffffffff8381831617835250505050612dd8565b50565b6000806103e883444260016040516020016122e194939291906148e9565b6040516020818303038152906040528051906020012060001c6123049190615272565b9050600a8111612318576003915050612343565b603c811161232a576002915050612343565b61012c811161233d576001915050612343565b60009150505b919050565b6000601154824442600160405160200161236594939291906148e9565b6040516020818303038152906040528051906020012060001c6123889190615272565b9050919050565b606060006010600084815260200190815260200160002090506000816002018054905085444260016040516020016123ca94939291906148e9565b6040516020818303038152906040528051906020012060001c6123ed9190615272565b905081600201818154811061242b577f4e487b7100000000000000000000000000000000000000000000000000000000600052603260045260246000fd5b90600052602060002001805461244090615180565b80601f016020809104026020016040519081016040528092919081815260200182805461246c90615180565b80156124b95780601f1061248e576101008083540402835291602001916124b9565b820191906000526020600020905b81548152906001019060200180831161249c57829003601f168201915b50505050509250505092915050565b61256082826040516024016124de9291906149fd565b6040516020818303038152906040527f4b5c4277000000000000000000000000000000000000000000000000000000007bffffffffffffffffffffffffffffffffffffffffffffffffffffffff19166020820180517bffffffffffffffffffffffffffffffffffffffffffffffffffffffff8381831617835250505050612dd8565b5050565b600081600001549050919050565b60008160ff16834442600160405160200161259094939291906148e9565b6040516020818303038152906040528051906020012060001c6125b39190615272565b905092915050565b600080600190506003808111156125fb577f4e487b7100000000000000000000000000000000000000000000000000000000600052602160045260246000fd5b876003811115612634577f4e487b7100000000000000000000000000000000000000000000000000000000600052602160045260246000fd5b14156126435760159050612745565b6002600381111561267d577f4e487b7100000000000000000000000000000000000000000000000000000000600052602160045260246000fd5b8760038111156126b6577f4e487b7100000000000000000000000000000000000000000000000000000000600052602160045260246000fd5b14156126c55760099050612744565b600160038111156126ff577f4e487b7100000000000000000000000000000000000000000000000000000000600052602160045260246000fd5b876003811115612738577f4e487b7100000000000000000000000000000000000000000000000000000000600052602160045260246000fd5b141561274357600390505b5b5b670de0b6b3a764000060028486888a61275e9190614f3a565b6127689190614f3a565b6127729190614f3a565b61277c9190614fa2565b826127879190615015565b60ff166127949190614fd3565b67ffffffffffffffff1691505095945050505050565b612846848484846040516024016127c49493929190614d5f565b6040516020818303038152906040527f5ca0ad3e000000000000000000000000000000000000000000000000000000007bffffffffffffffffffffffffffffffffffffffffffffffffffffffff19166020820180517bffffffffffffffffffffffffffffffffffffffffffffffffffffffff8381831617835250505050612dd8565b50505050565b6001816000016000828254019250508190555050565b61287c828260405180602001604052806000815250612e01565b5050565b61288982611d1c565b6128c8576040517f08c379a00000000000000000000000000000000000000000000000000000000081526004016128bf90614bc4565b60405180910390fd5b80600a600084815260200190815260200160002090805190602001906128ef929190613bae565b505050565b6128fd81612e5c565b50565b6000600b60009054906101000a900473ffffffffffffffffffffffffffffffffffffffff16905081600b60006101000a81548173ffffffffffffffffffffffffffffffffffffffff021916908373ffffffffffffffffffffffffffffffffffffffff1602179055508173ffffffffffffffffffffffffffffffffffffffff168173ffffffffffffffffffffffffffffffffffffffff167f8be0079c531659141344cd1fd0a4f28419497f9722a3daafe3b4186f6b6457e060405160405180910390a35050565b8173ffffffffffffffffffffffffffffffffffffffff168373ffffffffffffffffffffffffffffffffffffffff161415612a35576040517f08c379a0000000000000000000000000000000000000000000000000000000008152600401612a2c90614b24565b60405180910390fd5b80600560008573ffffffffffffffffffffffffffffffffffffffff1673ffffffffffffffffffffffffffffffffffffffff16815260200190815260200160002060008473ffffffffffffffffffffffffffffffffffffffff1673ffffffffffffffffffffffffffffffffffffffff16815260200190815260200160002060006101000a81548160ff0219169083151502179055508173ffffffffffffffffffffffffffffffffffffffff168373ffffffffffffffffffffffffffffffffffffffff167f17307eab39ab6107e8899845ad3d59bd9653f200f220920489ca2b5937696c3183604051612b2691906149c0565b60405180910390a3505050565b612b3e848484611f27565b612b4a84848484612eaf565b612b89576040517f08c379a0000000000000000000000000000000000000000000000000000000008152600401612b8090614a84565b60405180910390fd5b50505050565b6060612b9a82611d1c565b612bd9576040517f08c379a0000000000000000000000000000000000000000000000000000000008152600401612bd090614c04565b60405180910390fd5b6000600a60008481526020019081526020016000208054612bf990615180565b80601f0160208091040260200160405190810160405280929190818152602001828054612c2590615180565b8015612c725780601f10612c4757610100808354040283529160200191612c72565b820191906000526020600020905b815481529060010190602001808311612c5557829003601f168201915b505050505090506000612c83613046565b9050600081511415612c99578192505050612cdc565b600082511115612cce578082604051602001612cb69291906148c5565b60405160208183030381529060405292505050612cdc565b612cd784613083565b925050505b919050565b60007f80ac58cd000000000000000000000000000000000000000000000000000000007bffffffffffffffffffffffffffffffffffffffffffffffffffffffff1916827bffffffffffffffffffffffffffffffffffffffffffffffffffffffff19161480612dac57507f5b5e139f000000000000000000000000000000000000000000000000000000007bffffffffffffffffffffffffffffffffffffffffffffffffffffffff1916827bffffffffffffffffffffffffffffffffffffffffffffffffffffffff1916145b80612dbc5750612dbb8261312a565b5b9050919050565b612dce838383613194565b505050565b505050565b60008151905060006a636f6e736f6c652e6c6f679050602083016000808483855afa5050505050565b612e0b83836132a8565b612e186000848484612eaf565b612e57576040517f08c379a0000000000000000000000000000000000000000000000000000000008152600401612e4e90614a84565b60405180910390fd5b505050565b612e6581613482565b6000600a60008381526020019081526020016000208054612e8590615180565b905014612eac57600a60008281526020019081526020016000206000612eab9190613c94565b5b50565b6000612ed08473ffffffffffffffffffffffffffffffffffffffff1661359f565b15613039578373ffffffffffffffffffffffffffffffffffffffff1663150b7a02612ef9611d88565b8786866040518563ffffffff1660e01b8152600401612f1b9493929190614952565b602060405180830381600087803b158015612f3557600080fd5b505af1925050508015612f6657506040513d601f19601f82011682018060405250810190612f639190614136565b60015b612fe9573d8060008114612f96576040519150601f19603f3d011682016040523d82523d6000602084013e612f9b565b606091505b50600081511415612fe1576040517f08c379a0000000000000000000000000000000000000000000000000000000008152600401612fd890614a84565b60405180910390fd5b805181602001fd5b63150b7a0260e01b7bffffffffffffffffffffffffffffffffffffffffffffffffffffffff1916817bffffffffffffffffffffffffffffffffffffffffffffffffffffffff19161491505061303e565b600190505b949350505050565b60606040518060400160405280601581526020017f68747470733a2f2f697066732e696f2f697066732f0000000000000000000000815250905090565b606061308e82611d1c565b6130cd576040517f08c379a00000000000000000000000000000000000000000000000000000000081526004016130c490614c64565b60405180910390fd5b60006130d7613046565b905060008151116130f75760405180602001604052806000815250613122565b80613101846135c2565b6040516020016131129291906148c5565b6040516020818303038152906040525b915050919050565b60007f01ffc9a7000000000000000000000000000000000000000000000000000000007bffffffffffffffffffffffffffffffffffffffffffffffffffffffff1916827bffffffffffffffffffffffffffffffffffffffffffffffffffffffff1916149050919050565b61319f83838361376f565b600073ffffffffffffffffffffffffffffffffffffffff168373ffffffffffffffffffffffffffffffffffffffff1614156131e2576131dd81613774565b613221565b8173ffffffffffffffffffffffffffffffffffffffff168373ffffffffffffffffffffffffffffffffffffffff16146132205761321f83826137bd565b5b5b600073ffffffffffffffffffffffffffffffffffffffff168273ffffffffffffffffffffffffffffffffffffffff1614156132645761325f8161392a565b6132a3565b8273ffffffffffffffffffffffffffffffffffffffff168273ffffffffffffffffffffffffffffffffffffffff16146132a2576132a18282613a6d565b5b5b505050565b600073ffffffffffffffffffffffffffffffffffffffff168273ffffffffffffffffffffffffffffffffffffffff161415613318576040517f08c379a000000000000000000000000000000000000000000000000000000000815260040161330f90614be4565b60405180910390fd5b61332181611d1c565b15613361576040517f08c379a000000000000000000000000000000000000000000000000000000000815260040161335890614ae4565b60405180910390fd5b61336d60008383612dc3565b6001600360008473ffffffffffffffffffffffffffffffffffffffff1673ffffffffffffffffffffffffffffffffffffffff16815260200190815260200160002060008282546133bd9190614ee4565b92505081905550816002600083815260200190815260200160002060006101000a81548173ffffffffffffffffffffffffffffffffffffffff021916908373ffffffffffffffffffffffffffffffffffffffff160217905550808273ffffffffffffffffffffffffffffffffffffffff16600073ffffffffffffffffffffffffffffffffffffffff167fddf252ad1be2c89b69c2b068fc378daa952ba7f163c4a11628f55a4df523b3ef60405160405180910390a461347e60008383612dd3565b5050565b600061348d82611604565b905061349b81600084612dc3565b6134a6600083611d90565b6001600360008373ffffffffffffffffffffffffffffffffffffffff1673ffffffffffffffffffffffffffffffffffffffff16815260200190815260200160002060008282546134f69190615050565b925050819055506002600083815260200190815260200160002060006101000a81549073ffffffffffffffffffffffffffffffffffffffff021916905581600073ffffffffffffffffffffffffffffffffffffffff168273ffffffffffffffffffffffffffffffffffffffff167fddf252ad1be2c89b69c2b068fc378daa952ba7f163c4a11628f55a4df523b3ef60405160405180910390a461359b81600084612dd3565b5050565b6000808273ffffffffffffffffffffffffffffffffffffffff163b119050919050565b6060600082141561360a576040518060400160405280600181526020017f3000000000000000000000000000000000000000000000000000000000000000815250905061376a565b600082905060005b6000821461363c578080613625906151e3565b915050600a826136359190614f71565b9150613612565b60008167ffffffffffffffff81111561367e577f4e487b7100000000000000000000000000000000000000000000000000000000600052604160045260246000fd5b6040519080825280601f01601f1916602001820160405280156136b05781602001600182028036833780820191505090505b5090505b60008514613763576001826136c99190615050565b9150600a856136d89190615272565b60306136e49190614ee4565b60f81b818381518110613720577f4e487b7100000000000000000000000000000000000000000000000000000000600052603260045260246000fd5b60200101907effffffffffffffffffffffffffffffffffffffffffffffffffffffffffffff1916908160001a905350600a8561375c9190614f71565b94506136b4565b8093505050505b919050565b505050565b6008805490506009600083815260200190815260200160002081905550600881908060018154018082558091505060019003906000526020600020016000909190919091505550565b600060016137ca846116b6565b6137d49190615050565b90506000600760008481526020019081526020016000205490508181146138b9576000600660008673ffffffffffffffffffffffffffffffffffffffff1673ffffffffffffffffffffffffffffffffffffffff168152602001908152602001600020600084815260200190815260200160002054905080600660008773ffffffffffffffffffffffffffffffffffffffff1673ffffffffffffffffffffffffffffffffffffffff168152602001908152602001600020600084815260200190815260200160002081905550816007600083815260200190815260200160002081905550505b6007600084815260200190815260200160002060009055600660008573ffffffffffffffffffffffffffffffffffffffff1673ffffffffffffffffffffffffffffffffffffffff16815260200190815260200160002060008381526020019081526020016000206000905550505050565b6000600160088054905061393e9190615050565b9050600060096000848152602001908152602001600020549050600060088381548110613994577f4e487b7100000000000000000000000000000000000000000000000000000000600052603260045260246000fd5b9060005260206000200154905080600883815481106139dc577f4e487b7100000000000000000000000000000000000000000000000000000000600052603260045260246000fd5b906000526020600020018190555081600960008381526020019081526020016000208190555060096000858152602001908152602001600020600090556008805480613a51577f4e487b7100000000000000000000000000000000000000000000000000000000600052603160045260246000fd5b6001900381819060005260206000200160009055905550505050565b6000613a78836116b6565b905081600660008573ffffffffffffffffffffffffffffffffffffffff1673ffffffffffffffffffffffffffffffffffffffff168152602001908152602001600020600083815260200190815260200160002081905550806007600084815260200190815260200160002081905550505050565b604051806101a001604052806000815260200160006003811115613b39577f4e487b7100000000000000000000000000000000000000000000000000000000600052602160045260246000fd5b81526020016000815260200160008152602001600081526020016000815260200160608152602001600060ff168152602001600060ff168152602001600060ff168152602001600060ff16815260200160608152602001600073ffffffffffffffffffffffffffffffffffffffff1681525090565b828054613bba90615180565b90600052602060002090601f016020900481019282613bdc5760008555613c23565b82601f10613bf557805160ff1916838001178555613c23565b82800160010185558215613c23579182015b82811115613c22578251825591602001919060010190613c07565b5b509050613c309190613cd4565b5090565b828054828255906000526020600020908101928215613c83579160200282015b82811115613c82578251829080519060200190613c72929190613bae565b5091602001919060010190613c54565b5b509050613c909190613cf1565b5090565b508054613ca090615180565b6000825580601f10613cb25750613cd1565b601f016020900490600052602060002090810190613cd09190613cd4565b5b50565b5b80821115613ced576000816000905550600101613cd5565b5090565b5b80821115613d115760008181613d089190613c94565b50600101613cf2565b5090565b6000613d28613d2384614dc9565b614da4565b90508083825260208201905082856020860282011115613d4757600080fd5b60005b85811015613d9157813567ffffffffffffffff811115613d6957600080fd5b808601613d768982613ed4565b85526020850194506020840193505050600181019050613d4a565b5050509392505050565b6000613dae613da984614df5565b614da4565b905082815260208101848484011115613dc657600080fd5b613dd184828561513e565b509392505050565b6000613dec613de784614e26565b614da4565b905082815260208101848484011115613e0457600080fd5b613e0f84828561513e565b509392505050565b600081359050613e26816159f5565b92915050565b600081519050613e3b816159f5565b92915050565b600082601f830112613e5257600080fd5b8135613e62848260208601613d15565b91505092915050565b600081359050613e7a81615a0c565b92915050565b600081359050613e8f81615a23565b92915050565b600081519050613ea481615a23565b92915050565b600082601f830112613ebb57600080fd5b8135613ecb848260208601613d9b565b91505092915050565b600082601f830112613ee557600080fd5b8135613ef5848260208601613dd9565b91505092915050565b600081359050613f0d81615a3a565b92915050565b600081359050613f2281615a51565b92915050565b600081519050613f3781615a51565b92915050565b600060208284031215613f4f57600080fd5b6000613f5d84828501613e17565b91505092915050565b600060208284031215613f7857600080fd5b6000613f8684828501613e2c565b91505092915050565b60008060408385031215613fa257600080fd5b6000613fb085828601613e17565b9250506020613fc185828601613e17565b9150509250929050565b600080600060608486031215613fe057600080fd5b6000613fee86828701613e17565b9350506020613fff86828701613e17565b925050604061401086828701613efe565b9150509250925092565b6000806000806080858703121561403057600080fd5b600061403e87828801613e17565b945050602061404f87828801613e17565b935050604061406087828801613efe565b925050606085013567ffffffffffffffff81111561407d57600080fd5b61408987828801613eaa565b91505092959194509250565b600080604083850312156140a857600080fd5b60006140b685828601613e17565b92505060206140c785828601613e6b565b9150509250929050565b600080604083850312156140e457600080fd5b60006140f285828601613e17565b925050602061410385828601613efe565b9150509250929050565b60006020828403121561411f57600080fd5b600061412d84828501613e80565b91505092915050565b60006020828403121561414857600080fd5b600061415684828501613e95565b91505092915050565b60008060006060848603121561417457600080fd5b600084013567ffffffffffffffff81111561418e57600080fd5b61419a86828701613ed4565b935050602084013567ffffffffffffffff8111156141b757600080fd5b6141c386828701613ed4565b925050604084013567ffffffffffffffff8111156141e057600080fd5b6141ec86828701613e41565b9150509250925092565b60006020828403121561420857600080fd5b600061421684828501613efe565b91505092915050565b6000806040838503121561423257600080fd5b600061424085828601613efe565b925050602061425185828601613f13565b9150509250929050565b60006020828403121561426d57600080fd5b600061427b84828501613f28565b91505092915050565b6000614290838361474a565b905092915050565b6142a181615084565b82525050565b6142b081615084565b82525050565b60006142c182614e67565b6142cb8185614e95565b9350836020820285016142dd85614e57565b8060005b8581101561431957848403895281516142fa8582614284565b945061430583614e88565b925060208a019950506001810190506142e1565b50829750879550505050505092915050565b61433481615096565b82525050565b600061434582614e72565b61434f8185614ea6565b935061435f81856020860161514d565b6143688161538e565b840191505092915050565b61437c8161512c565b82525050565b600061438d82614e7d565b6143978185614eb7565b93506143a781856020860161514d565b6143b08161538e565b840191505092915050565b60006143c682614e7d565b6143d08185614ec8565b93506143e081856020860161514d565b6143e98161538e565b840191505092915050565b60006143ff82614e7d565b6144098185614ed9565b935061441981856020860161514d565b80840191505092915050565b6000614432602b83614ec8565b915061443d826153ac565b604082019050919050565b6000614455603283614ec8565b9150614460826153fb565b604082019050919050565b6000614478602683614ec8565b91506144838261544a565b604082019050919050565b600061449b602583614ec8565b91506144a682615499565b604082019050919050565b60006144be601c83614ec8565b91506144c9826154e8565b602082019050919050565b60006144e1602483614ec8565b91506144ec82615511565b604082019050919050565b6000614504601983614ec8565b915061450f82615560565b602082019050919050565b6000614527602c83614ec8565b915061453282615589565b604082019050919050565b600061454a603883614ec8565b9150614555826155d8565b604082019050919050565b600061456d602a83614ec8565b915061457882615627565b604082019050919050565b6000614590602983614ec8565b915061459b82615676565b604082019050919050565b60006145b3602e83614ec8565b91506145be826156c5565b604082019050919050565b60006145d6602083614ec8565b91506145e182615714565b602082019050919050565b60006145f9603183614ec8565b91506146048261573d565b604082019050919050565b600061461c602c83614ec8565b91506146278261578c565b604082019050919050565b600061463f602083614ec8565b915061464a826157db565b602082019050919050565b6000614662602f83614ec8565b915061466d82615804565b604082019050919050565b6000614685602183614ec8565b915061469082615853565b604082019050919050565b60006146a8603183614ec8565b91506146b3826158a2565b604082019050919050565b60006146cb602c83614ec8565b91506146d6826158f1565b604082019050919050565b60006146ee601883614ec8565b91506146f982615940565b602082019050919050565b6000614711603083614ec8565b915061471c82615969565b604082019050919050565b6000614734601d83614ec8565b915061473f826159b8565b602082019050919050565b60006101a083016000830151614763600086018261486a565b5060208301516147766020860182614373565b506040830151614789604086018261486a565b50606083015161479c606086018261486a565b5060808301516147af608086018261486a565b5060a08301516147c260a086018261486a565b5060c083015184820360c08601526147da8282614382565b91505060e08301516147ef60e086018261489f565b5061010083015161480461010086018261489f565b5061012083015161481961012086018261489f565b5061014083015161482e61014086018261489f565b506101608301518482036101608601526148488282614382565b91505061018083015161485f610180860182614298565b508091505092915050565b61487381615101565b82525050565b61488281615101565b82525050565b61489961489482615101565b615256565b82525050565b6148a88161511f565b82525050565b6148bf6148ba8261511f565b615260565b82525050565b60006148d182856143f4565b91506148dd82846143f4565b91508190509392505050565b60006148f582876148ae565b6001820191506149058286614888565b6020820191506149158285614888565b6020820191506149258284614888565b60208201915081905095945050505050565b600060208201905061494c60008301846142a7565b92915050565b600060808201905061496760008301876142a7565b61497460208301866142a7565b6149816040830185614879565b8181036060830152614993818461433a565b905095945050505050565b600060208201905081810360008301526149b881846142b6565b905092915050565b60006020820190506149d5600083018461432b565b92915050565b600060208201905081810360008301526149f581846143bb565b905092915050565b60006040820190508181036000830152614a1781856143bb565b90508181036020830152614a2b81846143bb565b90509392505050565b60006040820190508181036000830152614a4e81856143bb565b9050614a5d6020830184614879565b9392505050565b60006020820190508181036000830152614a7d81614425565b9050919050565b60006020820190508181036000830152614a9d81614448565b9050919050565b60006020820190508181036000830152614abd8161446b565b9050919050565b60006020820190508181036000830152614add8161448e565b9050919050565b60006020820190508181036000830152614afd816144b1565b9050919050565b60006020820190508181036000830152614b1d816144d4565b9050919050565b60006020820190508181036000830152614b3d816144f7565b9050919050565b60006020820190508181036000830152614b5d8161451a565b9050919050565b60006020820190508181036000830152614b7d8161453d565b9050919050565b60006020820190508181036000830152614b9d81614560565b9050919050565b60006020820190508181036000830152614bbd81614583565b9050919050565b60006020820190508181036000830152614bdd816145a6565b9050919050565b60006020820190508181036000830152614bfd816145c9565b9050919050565b60006020820190508181036000830152614c1d816145ec565b9050919050565b60006020820190508181036000830152614c3d8161460f565b9050919050565b60006020820190508181036000830152614c5d81614632565b9050919050565b60006020820190508181036000830152614c7d81614655565b9050919050565b60006020820190508181036000830152614c9d81614678565b9050919050565b60006020820190508181036000830152614cbd8161469b565b9050919050565b60006020820190508181036000830152614cdd816146be565b9050919050565b60006020820190508181036000830152614cfd816146e1565b9050919050565b60006020820190508181036000830152614d1d81614704565b9050919050565b60006020820190508181036000830152614d3d81614727565b9050919050565b6000602082019050614d596000830184614879565b92915050565b6000608082019050614d746000830187614879565b614d816020830186614879565b614d8e6040830185614879565b614d9b6060830184614879565b95945050505050565b6000614dae614dbf565b9050614dba82826151b2565b919050565b6000604051905090565b600067ffffffffffffffff821115614de457614de361535f565b5b602082029050602081019050919050565b600067ffffffffffffffff821115614e1057614e0f61535f565b5b614e198261538e565b9050602081019050919050565b600067ffffffffffffffff821115614e4157614e4061535f565b5b614e4a8261538e565b9050602081019050919050565b6000819050602082019050919050565b600081519050919050565b600081519050919050565b600081519050919050565b6000602082019050919050565b600082825260208201905092915050565b600082825260208201905092915050565b600082825260208201905092915050565b600082825260208201905092915050565b600081905092915050565b6000614eef82615101565b9150614efa83615101565b9250827fffffffffffffffffffffffffffffffffffffffffffffffffffffffffffffffff03821115614f2f57614f2e6152a3565b5b828201905092915050565b6000614f458261511f565b9150614f508361511f565b92508260ff03821115614f6657614f656152a3565b5b828201905092915050565b6000614f7c82615101565b9150614f8783615101565b925082614f9757614f966152d2565b5b828204905092915050565b6000614fad8261511f565b9150614fb88361511f565b925082614fc857614fc76152d2565b5b828204905092915050565b6000614fde8261510b565b9150614fe98361510b565b92508167ffffffffffffffff048311821515161561500a576150096152a3565b5b828202905092915050565b60006150208261511f565b915061502b8361511f565b92508160ff0483118215151615615045576150446152a3565b5b828202905092915050565b600061505b82615101565b915061506683615101565b925082821015615079576150786152a3565b5b828203905092915050565b600061508f826150e1565b9050919050565b60008115159050919050565b60007fffffffff0000000000000000000000000000000000000000000000000000000082169050919050565b60008190506150dc826159e1565b919050565b600073ffffffffffffffffffffffffffffffffffffffff82169050919050565b6000819050919050565b600067ffffffffffffffff82169050919050565b600060ff82169050919050565b6000615137826150ce565b9050919050565b82818337600083830152505050565b60005b8381101561516b578082015181840152602081019050615150565b8381111561517a576000848401525b50505050565b6000600282049050600182168061519857607f821691505b602082108114156151ac576151ab615330565b5b50919050565b6151bb8261538e565b810181811067ffffffffffffffff821117156151da576151d961535f565b5b80604052505050565b60006151ee82615101565b91507fffffffffffffffffffffffffffffffffffffffffffffffffffffffffffffffff821415615221576152206152a3565b5b600182019050919050565b60006152378261511f565b915060ff82141561524b5761524a6152a3565b5b600182019050919050565b6000819050919050565b600061526b8261539f565b9050919050565b600061527d82615101565b915061528883615101565b925082615298576152976152d2565b5b828206905092915050565b7f4e487b7100000000000000000000000000000000000000000000000000000000600052601160045260246000fd5b7f4e487b7100000000000000000000000000000000000000000000000000000000600052601260045260246000fd5b7f4e487b7100000000000000000000000000000000000000000000000000000000600052602160045260246000fd5b7f4e487b7100000000000000000000000000000000000000000000000000000000600052602260045260246000fd5b7f4e487b7100000000000000000000000000000000000000000000000000000000600052604160045260246000fd5b6000601f19601f8301169050919050565b60008160f81b9050919050565b7f455243373231456e756d657261626c653a206f776e657220696e646578206f7560008201527f74206f6620626f756e6473000000000000000000000000000000000000000000602082015250565b7f4552433732313a207472616e7366657220746f206e6f6e20455243373231526560008201527f63656976657220696d706c656d656e7465720000000000000000000000000000602082015250565b7f4f776e61626c653a206e6577206f776e657220697320746865207a65726f206160008201527f6464726573730000000000000000000000000000000000000000000000000000602082015250565b7f4552433732313a207472616e736665722066726f6d20696e636f72726563742060008201527f6f776e6572000000000000000000000000000000000000000000000000000000602082015250565b7f4552433732313a20746f6b656e20616c7265616479206d696e74656400000000600082015250565b7f4552433732313a207472616e7366657220746f20746865207a65726f2061646460008201527f7265737300000000000000000000000000000000000000000000000000000000602082015250565b7f4552433732313a20617070726f766520746f2063616c6c657200000000000000600082015250565b7f4552433732313a206f70657261746f7220717565727920666f72206e6f6e657860008201527f697374656e7420746f6b656e0000000000000000000000000000000000000000602082015250565b7f4552433732313a20617070726f76652063616c6c6572206973206e6f74206f7760008201527f6e6572206e6f7220617070726f76656420666f7220616c6c0000000000000000602082015250565b7f4552433732313a2062616c616e636520717565727920666f7220746865207a6560008201527f726f206164647265737300000000000000000000000000000000000000000000602082015250565b7f4552433732313a206f776e657220717565727920666f72206e6f6e657869737460008201527f656e7420746f6b656e0000000000000000000000000000000000000000000000602082015250565b7f45524337323155524953746f726167653a2055524920736574206f66206e6f6e60008201527f6578697374656e7420746f6b656e000000000000000000000000000000000000602082015250565b7f4552433732313a206d696e7420746f20746865207a65726f2061646472657373600082015250565b7f45524337323155524953746f726167653a2055524920717565727920666f722060008201527f6e6f6e6578697374656e7420746f6b656e000000000000000000000000000000602082015250565b7f4552433732313a20617070726f76656420717565727920666f72206e6f6e657860008201527f697374656e7420746f6b656e0000000000000000000000000000000000000000602082015250565b7f4f776e61626c653a2063616c6c6572206973206e6f7420746865206f776e6572600082015250565b7f4552433732314d657461646174613a2055524920717565727920666f72206e6f60008201527f6e6578697374656e7420746f6b656e0000000000000000000000000000000000602082015250565b7f4552433732313a20617070726f76616c20746f2063757272656e74206f776e6560008201527f7200000000000000000000000000000000000000000000000000000000000000602082015250565b7f4552433732313a207472616e736665722063616c6c6572206973206e6f74206f60008201527f776e6572206e6f7220617070726f766564000000000000000000000000000000602082015250565b7f455243373231456e756d657261626c653a20676c6f62616c20696e646578206f60008201527f7574206f6620626f756e64730000000000000000000000000000000000000000602082015250565b7f596f7520646f6e277420686176652074686973204c616e640000000000000000600082015250565b7f4552433732314275726e61626c653a2063616c6c6572206973206e6f74206f7760008201527f6e6572206e6f7220617070726f76656400000000000000000000000000000000602082015250565b7f596f752063616e2774206d696e742066726f6d2074686973204c616e64000000600082015250565b600481106159f2576159f1615301565b5b50565b6159fe81615084565b8114615a0957600080fd5b50565b615a1581615096565b8114615a2057600080fd5b50565b615a2c816150a2565b8114615a3757600080fd5b50565b615a4381615101565b8114615a4e57600080fd5b50565b615a5a8161511f565b8114615a6557600080fd5b5056fea26469706673582212201277eac7dd9c575364f90bc45dee58b657dd785e6dada75d4ead1827ca93c54c64736f6c63430008040033",
  "linkReferences": {},
  "deployedLinkReferences": {}
}