{
  "_format": "hh-sol-artifact-1",
  "contractName": "ZombieNFT",
  "sourceName": "src/backend/contracts/ZombieNFT.sol",
  "abi": [
    {
      "inputs": [
        {
          "internalType": "address",
          "name": "_contractMain",
          "type": "address"
        }
      ],
      "stateMutability": "nonpayable",
      "type": "constructor"
    },
    {
      "anonymous": false,
      "inputs": [
        {
          "indexed": true,
          "internalType": "address",
          "name": "owner",
          "type": "address"
        },
        {
          "indexed": true,
          "internalType": "address",
          "name": "approved",
          "type": "address"
        },
        {
          "indexed": true,
          "internalType": "uint256",
          "name": "tokenId",
          "type": "uint256"
        }
      ],
      "name": "Approval",
      "type": "event"
    },
    {
      "anonymous": false,
      "inputs": [
        {
          "indexed": true,
          "internalType": "address",
          "name": "owner",
          "type": "address"
        },
        {
          "indexed": true,
          "internalType": "address",
          "name": "operator",
          "type": "address"
        },
        {
          "indexed": false,
          "internalType": "bool",
          "name": "approved",
          "type": "bool"
        }
      ],
      "name": "ApprovalForAll",
      "type": "event"
    },
    {
      "anonymous": false,
      "inputs": [
        {
          "indexed": true,
          "internalType": "address",
          "name": "previousOwner",
          "type": "address"
        },
        {
          "indexed": true,
          "internalType": "address",
          "name": "newOwner",
          "type": "address"
        }
      ],
      "name": "OwnershipTransferred",
      "type": "event"
    },
    {
      "anonymous": false,
      "inputs": [
        {
          "indexed": true,
          "internalType": "address",
          "name": "from",
          "type": "address"
        },
        {
          "indexed": true,
          "internalType": "address",
          "name": "to",
          "type": "address"
        },
        {
          "indexed": true,
          "internalType": "uint256",
          "name": "tokenId",
          "type": "uint256"
        }
      ],
      "name": "Transfer",
      "type": "event"
    },
    {
      "inputs": [
        {
          "internalType": "address",
          "name": "to",
          "type": "address"
        },
        {
          "internalType": "uint256",
          "name": "tokenId",
          "type": "uint256"
        }
      ],
      "name": "approve",
      "outputs": [],
      "stateMutability": "nonpayable",
      "type": "function"
    },
    {
      "inputs": [
        {
          "internalType": "address",
          "name": "owner",
          "type": "address"
        }
      ],
      "name": "balanceOf",
      "outputs": [
        {
          "internalType": "uint256",
          "name": "",
          "type": "uint256"
        }
      ],
      "stateMutability": "view",
      "type": "function"
    },
    {
      "inputs": [
        {
          "internalType": "uint256",
          "name": "tokenId",
          "type": "uint256"
        }
      ],
      "name": "burn",
      "outputs": [],
      "stateMutability": "nonpayable",
      "type": "function"
    },
    {
      "inputs": [
        {
          "internalType": "uint256",
          "name": "",
          "type": "uint256"
        }
      ],
      "name": "cardRarity",
      "outputs": [
        {
          "internalType": "string",
          "name": "",
          "type": "string"
        }
      ],
      "stateMutability": "view",
      "type": "function"
    },
    {
      "inputs": [
        {
          "internalType": "uint256",
          "name": "tokenId",
          "type": "uint256"
        }
      ],
      "name": "getApproved",
      "outputs": [
        {
          "internalType": "address",
          "name": "",
          "type": "address"
        }
      ],
      "stateMutability": "view",
      "type": "function"
    },
    {
      "inputs": [
        {
          "internalType": "address",
          "name": "owner",
          "type": "address"
        },
        {
          "internalType": "address",
          "name": "operator",
          "type": "address"
        }
      ],
      "name": "isApprovedForAll",
      "outputs": [
        {
          "internalType": "bool",
          "name": "",
          "type": "bool"
        }
      ],
      "stateMutability": "view",
      "type": "function"
    },
    {
      "inputs": [],
      "name": "name",
      "outputs": [
        {
          "internalType": "string",
          "name": "",
          "type": "string"
        }
      ],
      "stateMutability": "view",
      "type": "function"
    },
    {
      "inputs": [],
      "name": "owner",
      "outputs": [
        {
          "internalType": "address",
          "name": "",
          "type": "address"
        }
      ],
      "stateMutability": "view",
      "type": "function"
    },
    {
      "inputs": [
        {
          "internalType": "uint256",
          "name": "tokenId",
          "type": "uint256"
        }
      ],
      "name": "ownerOf",
      "outputs": [
        {
          "internalType": "address",
          "name": "",
          "type": "address"
        }
      ],
      "stateMutability": "view",
      "type": "function"
    },
    {
      "inputs": [],
      "name": "renounceOwnership",
      "outputs": [],
      "stateMutability": "nonpayable",
      "type": "function"
    },
    {
      "inputs": [],
      "name": "safeMint",
      "outputs": [
        {
          "internalType": "uint256",
          "name": "",
          "type": "uint256"
        }
      ],
      "stateMutability": "payable",
      "type": "function"
    },
    {
      "inputs": [
        {
          "internalType": "address",
          "name": "from",
          "type": "address"
        },
        {
          "internalType": "address",
          "name": "to",
          "type": "address"
        },
        {
          "internalType": "uint256",
          "name": "tokenId",
          "type": "uint256"
        }
      ],
      "name": "safeTransferFrom",
      "outputs": [],
      "stateMutability": "nonpayable",
      "type": "function"
    },
    {
      "inputs": [
        {
          "internalType": "address",
          "name": "from",
          "type": "address"
        },
        {
          "internalType": "address",
          "name": "to",
          "type": "address"
        },
        {
          "internalType": "uint256",
          "name": "tokenId",
          "type": "uint256"
        },
        {
          "internalType": "bytes",
          "name": "_data",
          "type": "bytes"
        }
      ],
      "name": "safeTransferFrom",
      "outputs": [],
      "stateMutability": "nonpayable",
      "type": "function"
    },
    {
      "inputs": [
        {
          "internalType": "address",
          "name": "operator",
          "type": "address"
        },
        {
          "internalType": "bool",
          "name": "approved",
          "type": "bool"
        }
      ],
      "name": "setApprovalForAll",
      "outputs": [],
      "stateMutability": "nonpayable",
      "type": "function"
    },
    {
      "inputs": [
        {
          "internalType": "bytes4",
          "name": "_interfaceId",
          "type": "bytes4"
        }
      ],
      "name": "supportsInterface",
      "outputs": [
        {
          "internalType": "bool",
          "name": "",
          "type": "bool"
        }
      ],
      "stateMutability": "view",
      "type": "function"
    },
    {
      "inputs": [],
      "name": "symbol",
      "outputs": [
        {
          "internalType": "string",
          "name": "",
          "type": "string"
        }
      ],
      "stateMutability": "view",
      "type": "function"
    },
    {
      "inputs": [
        {
          "internalType": "uint256",
          "name": "index",
          "type": "uint256"
        }
      ],
      "name": "tokenByIndex",
      "outputs": [
        {
          "internalType": "uint256",
          "name": "",
          "type": "uint256"
        }
      ],
      "stateMutability": "view",
      "type": "function"
    },
    {
      "inputs": [
        {
          "internalType": "address",
          "name": "owner",
          "type": "address"
        },
        {
          "internalType": "uint256",
          "name": "index",
          "type": "uint256"
        }
      ],
      "name": "tokenOfOwnerByIndex",
      "outputs": [
        {
          "internalType": "uint256",
          "name": "",
          "type": "uint256"
        }
      ],
      "stateMutability": "view",
      "type": "function"
    },
    {
      "inputs": [
        {
          "internalType": "uint256",
          "name": "_tokenId",
          "type": "uint256"
        }
      ],
      "name": "tokenURI",
      "outputs": [
        {
          "internalType": "string",
          "name": "",
          "type": "string"
        }
      ],
      "stateMutability": "view",
      "type": "function"
    },
    {
      "inputs": [],
      "name": "totalSupply",
      "outputs": [
        {
          "internalType": "uint256",
          "name": "",
          "type": "uint256"
        }
      ],
      "stateMutability": "view",
      "type": "function"
    },
    {
      "inputs": [
        {
          "internalType": "address",
          "name": "from",
          "type": "address"
        },
        {
          "internalType": "address",
          "name": "to",
          "type": "address"
        },
        {
          "internalType": "uint256",
          "name": "tokenId",
          "type": "uint256"
        }
      ],
      "name": "transferFrom",
      "outputs": [],
      "stateMutability": "nonpayable",
      "type": "function"
    },
    {
      "inputs": [
        {
          "internalType": "address",
          "name": "newOwner",
          "type": "address"
        }
      ],
      "name": "transferOwnership",
      "outputs": [],
      "stateMutability": "nonpayable",
      "type": "function"
    },
    {
      "inputs": [
        {
          "internalType": "uint256",
          "name": "_startIndex",
          "type": "uint256"
        },
        {
          "internalType": "uint8",
          "name": "_count",
          "type": "uint8"
        }
      ],
      "name": "userZombies",
      "outputs": [
        {
          "components": [
            {
              "internalType": "uint256",
              "name": "tokenId",
              "type": "uint256"
            },
            {
              "internalType": "string",
              "name": "cardRarity",
              "type": "string"
            },
            {
              "internalType": "uint256",
              "name": "killTokens",
              "type": "uint256"
            },
            {
              "internalType": "uint256",
              "name": "salePrice",
              "type": "uint256"
            },
            {
              "internalType": "string",
              "name": "media",
              "type": "string"
            },
            {
              "internalType": "string",
              "name": "nftType",
              "type": "string"
            },
            {
              "internalType": "address",
              "name": "ownerId",
              "type": "address"
            }
          ],
          "internalType": "struct ZombieNFT.Zombie[]",
          "name": "",
          "type": "tuple[]"
        }
      ],
      "stateMutability": "view",
      "type": "function"
    },
    {
      "inputs": [
        {
          "internalType": "uint256",
          "name": "",
          "type": "uint256"
        }
      ],
      "name": "zombieMedia",
      "outputs": [
        {
          "internalType": "string",
          "name": "",
          "type": "string"
        }
      ],
      "stateMutability": "view",
      "type": "function"
    }
  ],
  "bytecode": "0x60806040526040518061014001604052806040518060600160405280603b815260200162004e8c603b913981526020016040518060600160405280603b815260200162004e8c603b913981526020016040518060600160405280603b815260200162004e8c603b913981526020016040518060600160405280603b815260200162004e8c603b913981526020016040518060600160405280603b815260200162004e8c603b913981526020016040518060600160405280603b815260200162004e8c603b913981526020016040518060600160405280603b815260200162004e8c603b913981526020016040518060600160405280603b815260200162004e8c603b913981526020016040518060600160405280603b815260200162004e8c603b913981526020016040518060600160405280603b815260200162004e8c603b9139815250601090600a62000156929190620004df565b503480156200016457600080fd5b5060405162004ec738038062004ec783398181016040528101906200018a91906200067b565b6040518060400160405280600781526020017f5a6f6d4c616e64000000000000000000000000000000000000000000000000008152506040518060400160405280600481526020017f5a4d4c5a0000000000000000000000000000000000000000000000000000000081525081600090805190602001906200020e92919062000546565b5080600190805190602001906200022792919062000546565b5050506200024a6200023e6200041160201b60201c565b6200041960201b60201c565b80600d60006101000a81548173ffffffffffffffffffffffffffffffffffffffff021916908373ffffffffffffffffffffffffffffffffffffffff1602179055506040518060400160405280600681526020017f436f6d6d6f6e0000000000000000000000000000000000000000000000000000815250600f60008081526020019081526020016000209080519060200190620002e992919062000546565b506040518060400160405280600881526020017f556e636f6d6d6f6e000000000000000000000000000000000000000000000000815250600f60006001815260200190815260200160002090805190602001906200034992919062000546565b506040518060400160405280600481526020017f5261726500000000000000000000000000000000000000000000000000000000815250600f6000600281526020019081526020016000209080519060200190620003a992919062000546565b506040518060400160405280600481526020017f4570696300000000000000000000000000000000000000000000000000000000815250600f60006003815260200190815260200160002090805190602001906200040992919062000546565b50506200075a565b600033905090565b6000600b60009054906101000a900473ffffffffffffffffffffffffffffffffffffffff16905081600b60006101000a81548173ffffffffffffffffffffffffffffffffffffffff021916908373ffffffffffffffffffffffffffffffffffffffff1602179055508173ffffffffffffffffffffffffffffffffffffffff168173ffffffffffffffffffffffffffffffffffffffff167f8be0079c531659141344cd1fd0a4f28419497f9722a3daafe3b4186f6b6457e060405160405180910390a35050565b82805482825590600052602060002090810192821562000533579160200282015b82811115620005325782518290805190602001906200052192919062000546565b509160200191906001019062000500565b5b509050620005429190620005d7565b5090565b8280546200055490620006db565b90600052602060002090601f016020900481019282620005785760008555620005c4565b82601f106200059357805160ff1916838001178555620005c4565b82800160010185558215620005c4579182015b82811115620005c3578251825591602001919060010190620005a6565b5b509050620005d39190620005ff565b5090565b5b80821115620005fb5760008181620005f191906200061e565b50600101620005d8565b5090565b5b808211156200061a57600081600090555060010162000600565b5090565b5080546200062c90620006db565b6000825580601f1062000640575062000661565b601f016020900490600052602060002090810190620006609190620005ff565b5b50565b600081519050620006758162000740565b92915050565b6000602082840312156200068e57600080fd5b60006200069e8482850162000664565b91505092915050565b6000620006b482620006bb565b9050919050565b600073ffffffffffffffffffffffffffffffffffffffff82169050919050565b60006002820490506001821680620006f457607f821691505b602082108114156200070b576200070a62000711565b5b50919050565b7f4e487b7100000000000000000000000000000000000000000000000000000000600052602260045260246000fd5b6200074b81620006a7565b81146200075757600080fd5b50565b614722806200076a6000396000f3fe60806040526004361061014b5760003560e01c806364a8eec2116100b6578063a22cb4651161006f578063a22cb465146104bd578063b88d4fde146104e6578063bd5f161c1461050f578063c87b56dd1461054c578063e985e9c514610589578063f2fde38b146105c65761014b565b806364a8eec2146103b85780636871ee40146103f557806370a0823114610413578063715018a6146104505780638da5cb5b1461046757806395d89b41146104925761014b565b806323b872dd1161010857806323b872dd146102865780632f745c59146102af57806342842e0e146102ec57806342966c68146103155780634f6ccce71461033e5780636352211e1461037b5761014b565b806301ffc9a71461015057806306fdde031461018d578063081812fc146101b8578063095ea7b3146101f5578063112400f91461021e57806318160ddd1461025b575b600080fd5b34801561015c57600080fd5b5061017760048036038101906101729190613298565b6105ef565b6040516101849190613989565b60405180910390f35b34801561019957600080fd5b506101a2610601565b6040516101af91906139a4565b60405180910390f35b3480156101c457600080fd5b506101df60048036038101906101da91906132ea565b610693565b6040516101ec9190613900565b60405180910390f35b34801561020157600080fd5b5061021c6004803603810190610217919061325c565b610718565b005b34801561022a57600080fd5b5061024560048036038101906102409190613313565b610830565b6040516102529190613967565b60405180910390f35b34801561026757600080fd5b50610270610b94565b60405161027d9190613c66565b60405180910390f35b34801561029257600080fd5b506102ad60048036038101906102a89190613156565b610ba1565b005b3480156102bb57600080fd5b506102d660048036038101906102d1919061325c565b610c01565b6040516102e39190613c66565b60405180910390f35b3480156102f857600080fd5b50610313600480360381019061030e9190613156565b610ca6565b005b34801561032157600080fd5b5061033c600480360381019061033791906132ea565b610cc6565b005b34801561034a57600080fd5b50610365600480360381019061036091906132ea565b610d22565b6040516103729190613c66565b60405180910390f35b34801561038757600080fd5b506103a2600480360381019061039d91906132ea565b610db9565b6040516103af9190613900565b60405180910390f35b3480156103c457600080fd5b506103df60048036038101906103da91906132ea565b610e6b565b6040516103ec91906139a4565b60405180910390f35b6103fd610f17565b60405161040a9190613c66565b60405180910390f35b34801561041f57600080fd5b5061043a600480360381019061043591906130f1565b6110b7565b6040516104479190613c66565b60405180910390f35b34801561045c57600080fd5b5061046561116f565b005b34801561047357600080fd5b5061047c6111f7565b6040516104899190613900565b60405180910390f35b34801561049e57600080fd5b506104a7611221565b6040516104b491906139a4565b60405180910390f35b3480156104c957600080fd5b506104e460048036038101906104df9190613220565b6112b3565b005b3480156104f257600080fd5b5061050d600480360381019061050891906131a5565b6112c9565b005b34801561051b57600080fd5b50610536600480360381019061053191906132ea565b61132b565b60405161054391906139a4565b60405180910390f35b34801561055857600080fd5b50610573600480360381019061056e91906132ea565b6113cb565b60405161058091906139a4565b60405180910390f35b34801561059557600080fd5b506105b060048036038101906105ab919061311a565b6113dd565b6040516105bd9190613989565b60405180910390f35b3480156105d257600080fd5b506105ed60048036038101906105e891906130f1565b611471565b005b60006105fa82611569565b9050919050565b60606000805461061090613ee2565b80601f016020809104026020016040519081016040528092919081815260200182805461063c90613ee2565b80156106895780601f1061065e57610100808354040283529160200191610689565b820191906000526020600020905b81548152906001019060200180831161066c57829003601f168201915b5050505050905090565b600061069e826115e3565b6106dd576040517f08c379a00000000000000000000000000000000000000000000000000000000081526004016106d490613b86565b60405180910390fd5b6004600083815260200190815260200160002060009054906101000a900473ffffffffffffffffffffffffffffffffffffffff169050919050565b600061072382610db9565b90508073ffffffffffffffffffffffffffffffffffffffff168373ffffffffffffffffffffffffffffffffffffffff161415610794576040517f08c379a000000000000000000000000000000000000000000000000000000000815260040161078b90613be6565b60405180910390fd5b8073ffffffffffffffffffffffffffffffffffffffff166107b361164f565b73ffffffffffffffffffffffffffffffffffffffff1614806107e257506107e1816107dc61164f565b6113dd565b5b610821576040517f08c379a000000000000000000000000000000000000000000000000000000000815260040161081890613ac6565b60405180910390fd5b61082b8383611657565b505050565b606060008260ff1667ffffffffffffffff811115610877577f4e487b7100000000000000000000000000000000000000000000000000000000600052604160045260246000fd5b6040519080825280602002602001820160405280156108b057816020015b61089d612ed5565b8152602001906001900390816108955790505b50905060006108be336110b7565b905060008590505b8460ff16811015610b885780821115610b755760006108e53383610c01565b9050600e60008281526020019081526020016000206040518060e00160405290816000820154815260200160018201805461091f90613ee2565b80601f016020809104026020016040519081016040528092919081815260200182805461094b90613ee2565b80156109985780601f1061096d57610100808354040283529160200191610998565b820191906000526020600020905b81548152906001019060200180831161097b57829003601f168201915b5050505050815260200160028201548152602001600382015481526020016004820180546109c590613ee2565b80601f01602080910402602001604051908101604052809291908181526020018280546109f190613ee2565b8015610a3e5780601f10610a1357610100808354040283529160200191610a3e565b820191906000526020600020905b815481529060010190602001808311610a2157829003601f168201915b50505050508152602001600582018054610a5790613ee2565b80601f0160208091040260200160405190810160405280929190818152602001828054610a8390613ee2565b8015610ad05780601f10610aa557610100808354040283529160200191610ad0565b820191906000526020600020905b815481529060010190602001808311610ab357829003601f168201915b505050505081526020016006820160009054906101000a900473ffffffffffffffffffffffffffffffffffffffff1673ffffffffffffffffffffffffffffffffffffffff1673ffffffffffffffffffffffffffffffffffffffff1681525050848381518110610b68577f4e487b7100000000000000000000000000000000000000000000000000000000600052603260045260246000fd5b6020026020010181905250505b8080610b8090613f45565b9150506108c6565b50819250505092915050565b6000600880549050905090565b610bb2610bac61164f565b82611710565b610bf1576040517f08c379a0000000000000000000000000000000000000000000000000000000008152600401610be890613c06565b60405180910390fd5b610bfc8383836117ee565b505050565b6000610c0c836110b7565b8210610c4d576040517f08c379a0000000000000000000000000000000000000000000000000000000008152600401610c44906139c6565b60405180910390fd5b600660008473ffffffffffffffffffffffffffffffffffffffff1673ffffffffffffffffffffffffffffffffffffffff168152602001908152602001600020600083815260200190815260200160002054905092915050565b610cc1838383604051806020016040528060008152506112c9565b505050565b610cd7610cd161164f565b82611710565b610d16576040517f08c379a0000000000000000000000000000000000000000000000000000000008152600401610d0d90613c46565b60405180910390fd5b610d1f81611a55565b50565b6000610d2c610b94565b8210610d6d576040517f08c379a0000000000000000000000000000000000000000000000000000000008152600401610d6490613c26565b60405180910390fd5b60088281548110610da7577f4e487b7100000000000000000000000000000000000000000000000000000000600052603260045260246000fd5b90600052602060002001549050919050565b6000806002600084815260200190815260200160002060009054906101000a900473ffffffffffffffffffffffffffffffffffffffff169050600073ffffffffffffffffffffffffffffffffffffffff168173ffffffffffffffffffffffffffffffffffffffff161415610e62576040517f08c379a0000000000000000000000000000000000000000000000000000000008152600401610e5990613b06565b60405180910390fd5b80915050919050565b60108181548110610e7b57600080fd5b906000526020600020016000915090508054610e9690613ee2565b80601f0160208091040260200160405190810160405280929190818152602001828054610ec290613ee2565b8015610f0f5780601f10610ee457610100808354040283529160200191610f0f565b820191906000526020600020905b815481529060010190602001808311610ef257829003601f168201915b505050505081565b600080610f22611a61565b90506000610f2e611b44565b90506000610f3c600c611c5c565b9050610f48600c611c6a565b610f523382611c80565b610f5c8183611c9e565b6040518060e0016040528082815260200184815260200160648152602001600081526020018381526020016040518060400160405280600681526020017f7a6f6d626965000000000000000000000000000000000000000000000000000081525081526020013373ffffffffffffffffffffffffffffffffffffffff16815250600e6000838152602001908152602001600020600082015181600001556020820151816001019080519060200190611015929190612f28565b5060408201518160020155606082015181600301556080820151816004019080519060200190611046929190612f28565b5060a0820151816005019080519060200190611063929190612f28565b5060c08201518160060160006101000a81548173ffffffffffffffffffffffffffffffffffffffff021916908373ffffffffffffffffffffffffffffffffffffffff16021790555090505080935050505090565b60008073ffffffffffffffffffffffffffffffffffffffff168273ffffffffffffffffffffffffffffffffffffffff161415611128576040517f08c379a000000000000000000000000000000000000000000000000000000000815260040161111f90613ae6565b60405180910390fd5b600360008373ffffffffffffffffffffffffffffffffffffffff1673ffffffffffffffffffffffffffffffffffffffff168152602001908152602001600020549050919050565b61117761164f565b73ffffffffffffffffffffffffffffffffffffffff166111956111f7565b73ffffffffffffffffffffffffffffffffffffffff16146111eb576040517f08c379a00000000000000000000000000000000000000000000000000000000081526004016111e290613ba6565b60405180910390fd5b6111f56000611d12565b565b6000600b60009054906101000a900473ffffffffffffffffffffffffffffffffffffffff16905090565b60606001805461123090613ee2565b80601f016020809104026020016040519081016040528092919081815260200182805461125c90613ee2565b80156112a95780601f1061127e576101008083540402835291602001916112a9565b820191906000526020600020905b81548152906001019060200180831161128c57829003601f168201915b5050505050905090565b6112c56112be61164f565b8383611dd8565b5050565b6112da6112d461164f565b83611710565b611319576040517f08c379a000000000000000000000000000000000000000000000000000000000815260040161131090613c06565b60405180910390fd5b61132584848484611f45565b50505050565b600f602052806000526040600020600091509050805461134a90613ee2565b80601f016020809104026020016040519081016040528092919081815260200182805461137690613ee2565b80156113c35780601f10611398576101008083540402835291602001916113c3565b820191906000526020600020905b8154815290600101906020018083116113a657829003601f168201915b505050505081565b60606113d682611fa1565b9050919050565b6000600560008473ffffffffffffffffffffffffffffffffffffffff1673ffffffffffffffffffffffffffffffffffffffff16815260200190815260200160002060008373ffffffffffffffffffffffffffffffffffffffff1673ffffffffffffffffffffffffffffffffffffffff16815260200190815260200160002060009054906101000a900460ff16905092915050565b61147961164f565b73ffffffffffffffffffffffffffffffffffffffff166114976111f7565b73ffffffffffffffffffffffffffffffffffffffff16146114ed576040517f08c379a00000000000000000000000000000000000000000000000000000000081526004016114e490613ba6565b60405180910390fd5b600073ffffffffffffffffffffffffffffffffffffffff168173ffffffffffffffffffffffffffffffffffffffff16141561155d576040517f08c379a000000000000000000000000000000000000000000000000000000000815260040161155490613a06565b60405180910390fd5b61156681611d12565b50565b60007f780e9d63000000000000000000000000000000000000000000000000000000007bffffffffffffffffffffffffffffffffffffffffffffffffffffffff1916827bffffffffffffffffffffffffffffffffffffffffffffffffffffffff191614806115dc57506115db826120f3565b5b9050919050565b60008073ffffffffffffffffffffffffffffffffffffffff166002600084815260200190815260200160002060009054906101000a900473ffffffffffffffffffffffffffffffffffffffff1673ffffffffffffffffffffffffffffffffffffffff1614159050919050565b600033905090565b816004600083815260200190815260200160002060006101000a81548173ffffffffffffffffffffffffffffffffffffffff021916908373ffffffffffffffffffffffffffffffffffffffff160217905550808273ffffffffffffffffffffffffffffffffffffffff166116ca83610db9565b73ffffffffffffffffffffffffffffffffffffffff167f8c5be1e5ebec7d5bd14f71427d1e84f3dd0314c0f7b2291e5b200ac8c7c3b92560405160405180910390a45050565b600061171b826115e3565b61175a576040517f08c379a000000000000000000000000000000000000000000000000000000000815260040161175190613aa6565b60405180910390fd5b600061176583610db9565b90508073ffffffffffffffffffffffffffffffffffffffff168473ffffffffffffffffffffffffffffffffffffffff1614806117d457508373ffffffffffffffffffffffffffffffffffffffff166117bc84610693565b73ffffffffffffffffffffffffffffffffffffffff16145b806117e557506117e481856113dd565b5b91505092915050565b8273ffffffffffffffffffffffffffffffffffffffff1661180e82610db9565b73ffffffffffffffffffffffffffffffffffffffff1614611864576040517f08c379a000000000000000000000000000000000000000000000000000000000815260040161185b90613a26565b60405180910390fd5b600073ffffffffffffffffffffffffffffffffffffffff168273ffffffffffffffffffffffffffffffffffffffff1614156118d4576040517f08c379a00000000000000000000000000000000000000000000000000000000081526004016118cb90613a66565b60405180910390fd5b6118df8383836121d5565b6118ea600082611657565b6001600360008573ffffffffffffffffffffffffffffffffffffffff1673ffffffffffffffffffffffffffffffffffffffff168152602001908152602001600020600082825461193a9190613deb565b925050819055506001600360008473ffffffffffffffffffffffffffffffffffffffff1673ffffffffffffffffffffffffffffffffffffffff16815260200190815260200160002060008282546119919190613d64565b92505081905550816002600083815260200190815260200160002060006101000a81548173ffffffffffffffffffffffffffffffffffffffff021916908373ffffffffffffffffffffffffffffffffffffffff160217905550808273ffffffffffffffffffffffffffffffffffffffff168473ffffffffffffffffffffffffffffffffffffffff167fddf252ad1be2c89b69c2b068fc378daa952ba7f163c4a11628f55a4df523b3ef60405160405180910390a4611a508383836121e5565b505050565b611a5e816121ea565b50565b60606000600444426001604051602001611a7d939291906138c3565b6040516020818303038152906040528051906020012060001c611aa09190613f98565b9050600f60008281526020019081526020016000208054611ac090613ee2565b80601f0160208091040260200160405190810160405280929190818152602001828054611aec90613ee2565b8015611b395780601f10611b0e57610100808354040283529160200191611b39565b820191906000526020600020905b815481529060010190602001808311611b1c57829003601f168201915b505050505091505090565b6060600060108054905044426001604051602001611b64939291906138c3565b6040516020818303038152906040528051906020012060001c611b879190613f98565b905060108181548110611bc3577f4e487b7100000000000000000000000000000000000000000000000000000000600052603260045260246000fd5b906000526020600020018054611bd890613ee2565b80601f0160208091040260200160405190810160405280929190818152602001828054611c0490613ee2565b8015611c515780601f10611c2657610100808354040283529160200191611c51565b820191906000526020600020905b815481529060010190602001808311611c3457829003601f168201915b505050505091505090565b600081600001549050919050565b6001816000016000828254019250508190555050565b611c9a82826040518060200160405280600081525061223d565b5050565b611ca7826115e3565b611ce6576040517f08c379a0000000000000000000000000000000000000000000000000000000008152600401611cdd90613b26565b60405180910390fd5b80600a60008481526020019081526020016000209080519060200190611d0d929190612f28565b505050565b6000600b60009054906101000a900473ffffffffffffffffffffffffffffffffffffffff16905081600b60006101000a81548173ffffffffffffffffffffffffffffffffffffffff021916908373ffffffffffffffffffffffffffffffffffffffff1602179055508173ffffffffffffffffffffffffffffffffffffffff168173ffffffffffffffffffffffffffffffffffffffff167f8be0079c531659141344cd1fd0a4f28419497f9722a3daafe3b4186f6b6457e060405160405180910390a35050565b8173ffffffffffffffffffffffffffffffffffffffff168373ffffffffffffffffffffffffffffffffffffffff161415611e47576040517f08c379a0000000000000000000000000000000000000000000000000000000008152600401611e3e90613a86565b60405180910390fd5b80600560008573ffffffffffffffffffffffffffffffffffffffff1673ffffffffffffffffffffffffffffffffffffffff16815260200190815260200160002060008473ffffffffffffffffffffffffffffffffffffffff1673ffffffffffffffffffffffffffffffffffffffff16815260200190815260200160002060006101000a81548160ff0219169083151502179055508173ffffffffffffffffffffffffffffffffffffffff168373ffffffffffffffffffffffffffffffffffffffff167f17307eab39ab6107e8899845ad3d59bd9653f200f220920489ca2b5937696c3183604051611f389190613989565b60405180910390a3505050565b611f508484846117ee565b611f5c84848484612298565b611f9b576040517f08c379a0000000000000000000000000000000000000000000000000000000008152600401611f92906139e6565b60405180910390fd5b50505050565b6060611fac826115e3565b611feb576040517f08c379a0000000000000000000000000000000000000000000000000000000008152600401611fe290613b66565b60405180910390fd5b6000600a6000848152602001908152602001600020805461200b90613ee2565b80601f016020809104026020016040519081016040528092919081815260200182805461203790613ee2565b80156120845780601f1061205957610100808354040283529160200191612084565b820191906000526020600020905b81548152906001019060200180831161206757829003601f168201915b50505050509050600061209561242f565b90506000815114156120ab5781925050506120ee565b6000825111156120e05780826040516020016120c892919061389f565b604051602081830303815290604052925050506120ee565b6120e98461246c565b925050505b919050565b60007f80ac58cd000000000000000000000000000000000000000000000000000000007bffffffffffffffffffffffffffffffffffffffffffffffffffffffff1916827bffffffffffffffffffffffffffffffffffffffffffffffffffffffff191614806121be57507f5b5e139f000000000000000000000000000000000000000000000000000000007bffffffffffffffffffffffffffffffffffffffffffffffffffffffff1916827bffffffffffffffffffffffffffffffffffffffffffffffffffffffff1916145b806121ce57506121cd82612513565b5b9050919050565b6121e083838361257d565b505050565b505050565b6121f381612691565b6000600a6000838152602001908152602001600020805461221390613ee2565b90501461223a57600a600082815260200190815260200160002060006122399190612fae565b5b50565b61224783836127ae565b6122546000848484612298565b612293576040517f08c379a000000000000000000000000000000000000000000000000000000000815260040161228a906139e6565b60405180910390fd5b505050565b60006122b98473ffffffffffffffffffffffffffffffffffffffff16612988565b15612422578373ffffffffffffffffffffffffffffffffffffffff1663150b7a026122e261164f565b8786866040518563ffffffff1660e01b8152600401612304949392919061391b565b602060405180830381600087803b15801561231e57600080fd5b505af192505050801561234f57506040513d601f19601f8201168201806040525081019061234c91906132c1565b60015b6123d2573d806000811461237f576040519150601f19603f3d011682016040523d82523d6000602084013e612384565b606091505b506000815114156123ca576040517f08c379a00000000000000000000000000000000000000000000000000000000081526004016123c1906139e6565b60405180910390fd5b805181602001fd5b63150b7a0260e01b7bffffffffffffffffffffffffffffffffffffffffffffffffffffffff1916817bffffffffffffffffffffffffffffffffffffffffffffffffffffffff191614915050612427565b600190505b949350505050565b60606040518060400160405280601581526020017f68747470733a2f2f697066732e696f2f697066732f0000000000000000000000815250905090565b6060612477826115e3565b6124b6576040517f08c379a00000000000000000000000000000000000000000000000000000000081526004016124ad90613bc6565b60405180910390fd5b60006124c061242f565b905060008151116124e0576040518060200160405280600081525061250b565b806124ea846129ab565b6040516020016124fb92919061389f565b6040516020818303038152906040525b915050919050565b60007f01ffc9a7000000000000000000000000000000000000000000000000000000007bffffffffffffffffffffffffffffffffffffffffffffffffffffffff1916827bffffffffffffffffffffffffffffffffffffffffffffffffffffffff1916149050919050565b612588838383612b58565b600073ffffffffffffffffffffffffffffffffffffffff168373ffffffffffffffffffffffffffffffffffffffff1614156125cb576125c681612b5d565b61260a565b8173ffffffffffffffffffffffffffffffffffffffff168373ffffffffffffffffffffffffffffffffffffffff1614612609576126088382612ba6565b5b5b600073ffffffffffffffffffffffffffffffffffffffff168273ffffffffffffffffffffffffffffffffffffffff16141561264d5761264881612d13565b61268c565b8273ffffffffffffffffffffffffffffffffffffffff168273ffffffffffffffffffffffffffffffffffffffff161461268b5761268a8282612e56565b5b5b505050565b600061269c82610db9565b90506126aa816000846121d5565b6126b5600083611657565b6001600360008373ffffffffffffffffffffffffffffffffffffffff1673ffffffffffffffffffffffffffffffffffffffff16815260200190815260200160002060008282546127059190613deb565b925050819055506002600083815260200190815260200160002060006101000a81549073ffffffffffffffffffffffffffffffffffffffff021916905581600073ffffffffffffffffffffffffffffffffffffffff168273ffffffffffffffffffffffffffffffffffffffff167fddf252ad1be2c89b69c2b068fc378daa952ba7f163c4a11628f55a4df523b3ef60405160405180910390a46127aa816000846121e5565b5050565b600073ffffffffffffffffffffffffffffffffffffffff168273ffffffffffffffffffffffffffffffffffffffff16141561281e576040517f08c379a000000000000000000000000000000000000000000000000000000000815260040161281590613b46565b60405180910390fd5b612827816115e3565b15612867576040517f08c379a000000000000000000000000000000000000000000000000000000000815260040161285e90613a46565b60405180910390fd5b612873600083836121d5565b6001600360008473ffffffffffffffffffffffffffffffffffffffff1673ffffffffffffffffffffffffffffffffffffffff16815260200190815260200160002060008282546128c39190613d64565b92505081905550816002600083815260200190815260200160002060006101000a81548173ffffffffffffffffffffffffffffffffffffffff021916908373ffffffffffffffffffffffffffffffffffffffff160217905550808273ffffffffffffffffffffffffffffffffffffffff16600073ffffffffffffffffffffffffffffffffffffffff167fddf252ad1be2c89b69c2b068fc378daa952ba7f163c4a11628f55a4df523b3ef60405160405180910390a4612984600083836121e5565b5050565b6000808273ffffffffffffffffffffffffffffffffffffffff163b119050919050565b606060008214156129f3576040518060400160405280600181526020017f30000000000000000000000000000000000000000000000000000000000000008152509050612b53565b600082905060005b60008214612a25578080612a0e90613f45565b915050600a82612a1e9190613dba565b91506129fb565b60008167ffffffffffffffff811115612a67577f4e487b7100000000000000000000000000000000000000000000000000000000600052604160045260246000fd5b6040519080825280601f01601f191660200182016040528015612a995781602001600182028036833780820191505090505b5090505b60008514612b4c57600182612ab29190613deb565b9150600a85612ac19190613f98565b6030612acd9190613d64565b60f81b818381518110612b09577f4e487b7100000000000000000000000000000000000000000000000000000000600052603260045260246000fd5b60200101907effffffffffffffffffffffffffffffffffffffffffffffffffffffffffffff1916908160001a905350600a85612b459190613dba565b9450612a9d565b8093505050505b919050565b505050565b6008805490506009600083815260200190815260200160002081905550600881908060018154018082558091505060019003906000526020600020016000909190919091505550565b60006001612bb3846110b7565b612bbd9190613deb565b9050600060076000848152602001908152602001600020549050818114612ca2576000600660008673ffffffffffffffffffffffffffffffffffffffff1673ffffffffffffffffffffffffffffffffffffffff168152602001908152602001600020600084815260200190815260200160002054905080600660008773ffffffffffffffffffffffffffffffffffffffff1673ffffffffffffffffffffffffffffffffffffffff168152602001908152602001600020600084815260200190815260200160002081905550816007600083815260200190815260200160002081905550505b6007600084815260200190815260200160002060009055600660008573ffffffffffffffffffffffffffffffffffffffff1673ffffffffffffffffffffffffffffffffffffffff16815260200190815260200160002060008381526020019081526020016000206000905550505050565b60006001600880549050612d279190613deb565b9050600060096000848152602001908152602001600020549050600060088381548110612d7d577f4e487b7100000000000000000000000000000000000000000000000000000000600052603260045260246000fd5b906000526020600020015490508060088381548110612dc5577f4e487b7100000000000000000000000000000000000000000000000000000000600052603260045260246000fd5b906000526020600020018190555081600960008381526020019081526020016000208190555060096000858152602001908152602001600020600090556008805480612e3a577f4e487b7100000000000000000000000000000000000000000000000000000000600052603160045260246000fd5b6001900381819060005260206000200160009055905550505050565b6000612e61836110b7565b905081600660008573ffffffffffffffffffffffffffffffffffffffff1673ffffffffffffffffffffffffffffffffffffffff168152602001908152602001600020600083815260200190815260200160002081905550806007600084815260200190815260200160002081905550505050565b6040518060e00160405280600081526020016060815260200160008152602001600081526020016060815260200160608152602001600073ffffffffffffffffffffffffffffffffffffffff1681525090565b828054612f3490613ee2565b90600052602060002090601f016020900481019282612f565760008555612f9d565b82601f10612f6f57805160ff1916838001178555612f9d565b82800160010185558215612f9d579182015b82811115612f9c578251825591602001919060010190612f81565b5b509050612faa9190612fee565b5090565b508054612fba90613ee2565b6000825580601f10612fcc5750612feb565b601f016020900490600052602060002090810190612fea9190612fee565b5b50565b5b80821115613007576000816000905550600101612fef565b5090565b600061301e61301984613ca6565b613c81565b90508281526020810184848401111561303657600080fd5b613041848285613ea0565b509392505050565b60008135905061305881614679565b92915050565b60008135905061306d81614690565b92915050565b600081359050613082816146a7565b92915050565b600081519050613097816146a7565b92915050565b600082601f8301126130ae57600080fd5b81356130be84826020860161300b565b91505092915050565b6000813590506130d6816146be565b92915050565b6000813590506130eb816146d5565b92915050565b60006020828403121561310357600080fd5b600061311184828501613049565b91505092915050565b6000806040838503121561312d57600080fd5b600061313b85828601613049565b925050602061314c85828601613049565b9150509250929050565b60008060006060848603121561316b57600080fd5b600061317986828701613049565b935050602061318a86828701613049565b925050604061319b868287016130c7565b9150509250925092565b600080600080608085870312156131bb57600080fd5b60006131c987828801613049565b94505060206131da87828801613049565b93505060406131eb878288016130c7565b925050606085013567ffffffffffffffff81111561320857600080fd5b6132148782880161309d565b91505092959194509250565b6000806040838503121561323357600080fd5b600061324185828601613049565b92505060206132528582860161305e565b9150509250929050565b6000806040838503121561326f57600080fd5b600061327d85828601613049565b925050602061328e858286016130c7565b9150509250929050565b6000602082840312156132aa57600080fd5b60006132b884828501613073565b91505092915050565b6000602082840312156132d357600080fd5b60006132e184828501613088565b91505092915050565b6000602082840312156132fc57600080fd5b600061330a848285016130c7565b91505092915050565b6000806040838503121561332657600080fd5b6000613334858286016130c7565b9250506020613345858286016130dc565b9150509250929050565b600061335b83836137c0565b905092915050565b61336c81613e1f565b82525050565b61337b81613e1f565b82525050565b600061338c82613ce7565b6133968185613d15565b9350836020820285016133a885613cd7565b8060005b858110156133e457848403895281516133c5858261334f565b94506133d083613d08565b925060208a019950506001810190506133ac565b50829750879550505050505092915050565b6133ff81613e31565b82525050565b600061341082613cf2565b61341a8185613d26565b935061342a818560208601613eaf565b61343381614085565b840191505092915050565b600061344982613cfd565b6134538185613d37565b9350613463818560208601613eaf565b61346c81614085565b840191505092915050565b600061348282613cfd565b61348c8185613d48565b935061349c818560208601613eaf565b6134a581614085565b840191505092915050565b60006134bb82613cfd565b6134c58185613d59565b93506134d5818560208601613eaf565b80840191505092915050565b60006134ee602b83613d48565b91506134f982614096565b604082019050919050565b6000613511603283613d48565b915061351c826140e5565b604082019050919050565b6000613534602683613d48565b915061353f82614134565b604082019050919050565b6000613557602583613d48565b915061356282614183565b604082019050919050565b600061357a601c83613d48565b9150613585826141d2565b602082019050919050565b600061359d602483613d48565b91506135a8826141fb565b604082019050919050565b60006135c0601983613d48565b91506135cb8261424a565b602082019050919050565b60006135e3602c83613d48565b91506135ee82614273565b604082019050919050565b6000613606603883613d48565b9150613611826142c2565b604082019050919050565b6000613629602a83613d48565b915061363482614311565b604082019050919050565b600061364c602983613d48565b915061365782614360565b604082019050919050565b600061366f602e83613d48565b915061367a826143af565b604082019050919050565b6000613692602083613d48565b915061369d826143fe565b602082019050919050565b60006136b5603183613d48565b91506136c082614427565b604082019050919050565b60006136d8602c83613d48565b91506136e382614476565b604082019050919050565b60006136fb602083613d48565b9150613706826144c5565b602082019050919050565b600061371e602f83613d48565b9150613729826144ee565b604082019050919050565b6000613741602183613d48565b915061374c8261453d565b604082019050919050565b6000613764603183613d48565b915061376f8261458c565b604082019050919050565b6000613787602c83613d48565b9150613792826145db565b604082019050919050565b60006137aa603083613d48565b91506137b58261462a565b604082019050919050565b600060e0830160008301516137d8600086018261386a565b50602083015184820360208601526137f0828261343e565b9150506040830151613805604086018261386a565b506060830151613818606086018261386a565b5060808301518482036080860152613830828261343e565b91505060a083015184820360a086015261384a828261343e565b91505060c083015161385f60c0860182613363565b508091505092915050565b61387381613e89565b82525050565b61388281613e89565b82525050565b61389961389482613e89565b613f8e565b82525050565b60006138ab82856134b0565b91506138b782846134b0565b91508190509392505050565b60006138cf8286613888565b6020820191506138df8285613888565b6020820191506138ef8284613888565b602082019150819050949350505050565b60006020820190506139156000830184613372565b92915050565b60006080820190506139306000830187613372565b61393d6020830186613372565b61394a6040830185613879565b818103606083015261395c8184613405565b905095945050505050565b600060208201905081810360008301526139818184613381565b905092915050565b600060208201905061399e60008301846133f6565b92915050565b600060208201905081810360008301526139be8184613477565b905092915050565b600060208201905081810360008301526139df816134e1565b9050919050565b600060208201905081810360008301526139ff81613504565b9050919050565b60006020820190508181036000830152613a1f81613527565b9050919050565b60006020820190508181036000830152613a3f8161354a565b9050919050565b60006020820190508181036000830152613a5f8161356d565b9050919050565b60006020820190508181036000830152613a7f81613590565b9050919050565b60006020820190508181036000830152613a9f816135b3565b9050919050565b60006020820190508181036000830152613abf816135d6565b9050919050565b60006020820190508181036000830152613adf816135f9565b9050919050565b60006020820190508181036000830152613aff8161361c565b9050919050565b60006020820190508181036000830152613b1f8161363f565b9050919050565b60006020820190508181036000830152613b3f81613662565b9050919050565b60006020820190508181036000830152613b5f81613685565b9050919050565b60006020820190508181036000830152613b7f816136a8565b9050919050565b60006020820190508181036000830152613b9f816136cb565b9050919050565b60006020820190508181036000830152613bbf816136ee565b9050919050565b60006020820190508181036000830152613bdf81613711565b9050919050565b60006020820190508181036000830152613bff81613734565b9050919050565b60006020820190508181036000830152613c1f81613757565b9050919050565b60006020820190508181036000830152613c3f8161377a565b9050919050565b60006020820190508181036000830152613c5f8161379d565b9050919050565b6000602082019050613c7b6000830184613879565b92915050565b6000613c8b613c9c565b9050613c978282613f14565b919050565b6000604051905090565b600067ffffffffffffffff821115613cc157613cc0614056565b5b613cca82614085565b9050602081019050919050565b6000819050602082019050919050565b600081519050919050565b600081519050919050565b600081519050919050565b6000602082019050919050565b600082825260208201905092915050565b600082825260208201905092915050565b600082825260208201905092915050565b600082825260208201905092915050565b600081905092915050565b6000613d6f82613e89565b9150613d7a83613e89565b9250827fffffffffffffffffffffffffffffffffffffffffffffffffffffffffffffffff03821115613daf57613dae613fc9565b5b828201905092915050565b6000613dc582613e89565b9150613dd083613e89565b925082613de057613ddf613ff8565b5b828204905092915050565b6000613df682613e89565b9150613e0183613e89565b925082821015613e1457613e13613fc9565b5b828203905092915050565b6000613e2a82613e69565b9050919050565b60008115159050919050565b60007fffffffff0000000000000000000000000000000000000000000000000000000082169050919050565b600073ffffffffffffffffffffffffffffffffffffffff82169050919050565b6000819050919050565b600060ff82169050919050565b82818337600083830152505050565b60005b83811015613ecd578082015181840152602081019050613eb2565b83811115613edc576000848401525b50505050565b60006002820490506001821680613efa57607f821691505b60208210811415613f0e57613f0d614027565b5b50919050565b613f1d82614085565b810181811067ffffffffffffffff82111715613f3c57613f3b614056565b5b80604052505050565b6000613f5082613e89565b91507fffffffffffffffffffffffffffffffffffffffffffffffffffffffffffffffff821415613f8357613f82613fc9565b5b600182019050919050565b6000819050919050565b6000613fa382613e89565b9150613fae83613e89565b925082613fbe57613fbd613ff8565b5b828206905092915050565b7f4e487b7100000000000000000000000000000000000000000000000000000000600052601160045260246000fd5b7f4e487b7100000000000000000000000000000000000000000000000000000000600052601260045260246000fd5b7f4e487b7100000000000000000000000000000000000000000000000000000000600052602260045260246000fd5b7f4e487b7100000000000000000000000000000000000000000000000000000000600052604160045260246000fd5b6000601f19601f8301169050919050565b7f455243373231456e756d657261626c653a206f776e657220696e646578206f7560008201527f74206f6620626f756e6473000000000000000000000000000000000000000000602082015250565b7f4552433732313a207472616e7366657220746f206e6f6e20455243373231526560008201527f63656976657220696d706c656d656e7465720000000000000000000000000000602082015250565b7f4f776e61626c653a206e6577206f776e657220697320746865207a65726f206160008201527f6464726573730000000000000000000000000000000000000000000000000000602082015250565b7f4552433732313a207472616e736665722066726f6d20696e636f72726563742060008201527f6f776e6572000000000000000000000000000000000000000000000000000000602082015250565b7f4552433732313a20746f6b656e20616c7265616479206d696e74656400000000600082015250565b7f4552433732313a207472616e7366657220746f20746865207a65726f2061646460008201527f7265737300000000000000000000000000000000000000000000000000000000602082015250565b7f4552433732313a20617070726f766520746f2063616c6c657200000000000000600082015250565b7f4552433732313a206f70657261746f7220717565727920666f72206e6f6e657860008201527f697374656e7420746f6b656e0000000000000000000000000000000000000000602082015250565b7f4552433732313a20617070726f76652063616c6c6572206973206e6f74206f7760008201527f6e6572206e6f7220617070726f76656420666f7220616c6c0000000000000000602082015250565b7f4552433732313a2062616c616e636520717565727920666f7220746865207a6560008201527f726f206164647265737300000000000000000000000000000000000000000000602082015250565b7f4552433732313a206f776e657220717565727920666f72206e6f6e657869737460008201527f656e7420746f6b656e0000000000000000000000000000000000000000000000602082015250565b7f45524337323155524953746f726167653a2055524920736574206f66206e6f6e60008201527f6578697374656e7420746f6b656e000000000000000000000000000000000000602082015250565b7f4552433732313a206d696e7420746f20746865207a65726f2061646472657373600082015250565b7f45524337323155524953746f726167653a2055524920717565727920666f722060008201527f6e6f6e6578697374656e7420746f6b656e000000000000000000000000000000602082015250565b7f4552433732313a20617070726f76656420717565727920666f72206e6f6e657860008201527f697374656e7420746f6b656e0000000000000000000000000000000000000000602082015250565b7f4f776e61626c653a2063616c6c6572206973206e6f7420746865206f776e6572600082015250565b7f4552433732314d657461646174613a2055524920717565727920666f72206e6f60008201527f6e6578697374656e7420746f6b656e0000000000000000000000000000000000602082015250565b7f4552433732313a20617070726f76616c20746f2063757272656e74206f776e6560008201527f7200000000000000000000000000000000000000000000000000000000000000602082015250565b7f4552433732313a207472616e736665722063616c6c6572206973206e6f74206f60008201527f776e6572206e6f7220617070726f766564000000000000000000000000000000602082015250565b7f455243373231456e756d657261626c653a20676c6f62616c20696e646578206f60008201527f7574206f6620626f756e64730000000000000000000000000000000000000000602082015250565b7f4552433732314275726e61626c653a2063616c6c6572206973206e6f74206f7760008201527f6e6572206e6f7220617070726f76656400000000000000000000000000000000602082015250565b61468281613e1f565b811461468d57600080fd5b50565b61469981613e31565b81146146a457600080fd5b50565b6146b081613e3d565b81146146bb57600080fd5b50565b6146c781613e89565b81146146d257600080fd5b50565b6146de81613e93565b81146146e957600080fd5b5056fea26469706673582212204d8168c04c613f40c760c48b2fef7b2229816c381bdc4d322949ae432582c21264736f6c634300080400336261666b72656967657a7566696837676d763664367866626d3361636b62767378786277356d70726c74336878356b767465376b6a6b6261786a75",
  "linkReferences": {},
  "deployedLinkReferences": {}
}