{
  "_format": "hh-sol-artifact-1",
  "contractName": "ZombieNFTContract",
  "sourceName": "src/backend/contracts/ZombieNFT.sol",
  "abi": [
    {
      "inputs": [],
      "stateMutability": "nonpayable",
      "type": "constructor"
    },
    {
      "inputs": [
        {
          "internalType": "string",
          "name": "message",
          "type": "string"
        },
        {
          "internalType": "uint256",
          "name": "tokenId",
          "type": "uint256"
        }
      ],
      "name": "MonsterMintError",
      "type": "error"
    },
    {
      "inputs": [
        {
          "internalType": "string",
          "name": "message",
          "type": "string"
        },
        {
          "internalType": "uint256",
          "name": "get",
          "type": "uint256"
        },
        {
          "internalType": "uint256",
          "name": "expected",
          "type": "uint256"
        }
      ],
      "name": "MonsterMintPaymentError",
      "type": "error"
    },
    {
      "inputs": [
        {
          "internalType": "string",
          "name": "message",
          "type": "string"
        }
      ],
      "name": "ZombiesKillError",
      "type": "error"
    },
    {
      "inputs": [
        {
          "internalType": "string",
          "name": "message",
          "type": "string"
        }
      ],
      "name": "ZombiesMintError",
      "type": "error"
    },
    {
      "anonymous": false,
      "inputs": [
        {
          "indexed": false,
          "internalType": "address",
          "name": "previousAdmin",
          "type": "address"
        },
        {
          "indexed": false,
          "internalType": "address",
          "name": "newAdmin",
          "type": "address"
        }
      ],
      "name": "AdminChanged",
      "type": "event"
    },
    {
      "anonymous": false,
      "inputs": [
        {
          "indexed": true,
          "internalType": "address",
          "name": "owner",
          "type": "address"
        },
        {
          "indexed": true,
          "internalType": "address",
          "name": "approved",
          "type": "address"
        },
        {
          "indexed": true,
          "internalType": "uint256",
          "name": "tokenId",
          "type": "uint256"
        }
      ],
      "name": "Approval",
      "type": "event"
    },
    {
      "anonymous": false,
      "inputs": [
        {
          "indexed": true,
          "internalType": "address",
          "name": "owner",
          "type": "address"
        },
        {
          "indexed": true,
          "internalType": "address",
          "name": "operator",
          "type": "address"
        },
        {
          "indexed": false,
          "internalType": "bool",
          "name": "approved",
          "type": "bool"
        }
      ],
      "name": "ApprovalForAll",
      "type": "event"
    },
    {
      "anonymous": false,
      "inputs": [
        {
          "indexed": true,
          "internalType": "address",
          "name": "beacon",
          "type": "address"
        }
      ],
      "name": "BeaconUpgraded",
      "type": "event"
    },
    {
      "anonymous": false,
      "inputs": [
        {
          "indexed": false,
          "internalType": "uint8",
          "name": "version",
          "type": "uint8"
        }
      ],
      "name": "Initialized",
      "type": "event"
    },
    {
      "anonymous": false,
      "inputs": [
        {
          "indexed": true,
          "internalType": "address",
          "name": "previousOwner",
          "type": "address"
        },
        {
          "indexed": true,
          "internalType": "address",
          "name": "newOwner",
          "type": "address"
        }
      ],
      "name": "OwnershipTransferred",
      "type": "event"
    },
    {
      "anonymous": false,
      "inputs": [
        {
          "indexed": true,
          "internalType": "address",
          "name": "from",
          "type": "address"
        },
        {
          "indexed": true,
          "internalType": "address",
          "name": "to",
          "type": "address"
        },
        {
          "indexed": true,
          "internalType": "uint256",
          "name": "tokenId",
          "type": "uint256"
        }
      ],
      "name": "Transfer",
      "type": "event"
    },
    {
      "anonymous": false,
      "inputs": [
        {
          "indexed": true,
          "internalType": "address",
          "name": "implementation",
          "type": "address"
        }
      ],
      "name": "Upgraded",
      "type": "event"
    },
    {
      "inputs": [
        {
          "internalType": "address",
          "name": "to",
          "type": "address"
        },
        {
          "internalType": "uint256",
          "name": "tokenId",
          "type": "uint256"
        }
      ],
      "name": "approve",
      "outputs": [],
      "stateMutability": "nonpayable",
      "type": "function"
    },
    {
      "inputs": [
        {
          "internalType": "address",
          "name": "owner",
          "type": "address"
        }
      ],
      "name": "balanceOf",
      "outputs": [
        {
          "internalType": "uint256",
          "name": "",
          "type": "uint256"
        }
      ],
      "stateMutability": "view",
      "type": "function"
    },
    {
      "inputs": [
        {
          "internalType": "uint256",
          "name": "tokenId",
          "type": "uint256"
        }
      ],
      "name": "burn",
      "outputs": [],
      "stateMutability": "nonpayable",
      "type": "function"
    },
    {
      "inputs": [
        {
          "internalType": "uint256",
          "name": "_id",
          "type": "uint256"
        },
        {
          "internalType": "uint256",
          "name": "_payAmount",
          "type": "uint256"
        },
        {
          "internalType": "address",
          "name": "_newOwner",
          "type": "address"
        }
      ],
      "name": "buyToken",
      "outputs": [
        {
          "internalType": "address",
          "name": "",
          "type": "address"
        }
      ],
      "stateMutability": "nonpayable",
      "type": "function"
    },
    {
      "inputs": [
        {
          "internalType": "address",
          "name": "_owner",
          "type": "address"
        },
        {
          "internalType": "uint256[]",
          "name": "_zombiesList",
          "type": "uint256[]"
        },
        {
          "internalType": "uint256",
          "name": "_payAmount",
          "type": "uint256"
        }
      ],
      "name": "checkAndBurnZombies",
      "outputs": [
        {
          "internalType": "uint256",
          "name": "",
          "type": "uint256"
        },
        {
          "internalType": "uint256",
          "name": "",
          "type": "uint256"
        },
        {
          "internalType": "uint256",
          "name": "",
          "type": "uint256"
        },
        {
          "internalType": "uint256",
          "name": "",
          "type": "uint256"
        },
        {
          "internalType": "uint256",
          "name": "",
          "type": "uint256"
        }
      ],
      "stateMutability": "nonpayable",
      "type": "function"
    },
    {
      "inputs": [
        {
          "internalType": "uint256",
          "name": "tokenId",
          "type": "uint256"
        }
      ],
      "name": "getApproved",
      "outputs": [
        {
          "internalType": "address",
          "name": "",
          "type": "address"
        }
      ],
      "stateMutability": "view",
      "type": "function"
    },
    {
      "inputs": [
        {
          "internalType": "uint256[]",
          "name": "_listId",
          "type": "uint256[]"
        }
      ],
      "name": "getListById",
      "outputs": [
        {
          "components": [
            {
              "internalType": "uint256",
              "name": "tokenId",
              "type": "uint256"
            },
            {
              "internalType": "enum Utils.CardRarity",
              "name": "cardRarity",
              "type": "uint8"
            },
            {
              "internalType": "uint256",
              "name": "collection",
              "type": "uint256"
            },
            {
              "internalType": "uint256",
              "name": "killTokens",
              "type": "uint256"
            },
            {
              "internalType": "uint256",
              "name": "salePrice",
              "type": "uint256"
            },
            {
              "internalType": "uint256",
              "name": "mintDate",
              "type": "uint256"
            },
            {
              "internalType": "string",
              "name": "media",
              "type": "string"
            },
            {
              "internalType": "uint8",
              "name": "health",
              "type": "uint8"
            },
            {
              "internalType": "uint8",
              "name": "attack",
              "type": "uint8"
            },
            {
              "internalType": "uint8",
              "name": "brain",
              "type": "uint8"
            },
            {
              "internalType": "uint8",
              "name": "speed",
              "type": "uint8"
            },
            {
              "internalType": "string",
              "name": "nftType",
              "type": "string"
            },
            {
              "internalType": "address",
              "name": "ownerId",
              "type": "address"
            },
            {
              "internalType": "enum Utils.ModifierItems[]",
              "name": "modifier_items",
              "type": "uint8[]"
            },
            {
              "internalType": "uint256",
              "name": "next_battle",
              "type": "uint256"
            }
          ],
          "internalType": "struct ZombieNFTContract.Zombie[]",
          "name": "",
          "type": "tuple[]"
        }
      ],
      "stateMutability": "view",
      "type": "function"
    },
    {
      "inputs": [
        {
          "internalType": "uint256",
          "name": "_startIndex",
          "type": "uint256"
        },
        {
          "internalType": "uint8",
          "name": "_count",
          "type": "uint8"
        },
        {
          "internalType": "string",
          "name": "_rarity",
          "type": "string"
        },
        {
          "internalType": "string",
          "name": "_collection",
          "type": "string"
        }
      ],
      "name": "getMarketItems",
      "outputs": [
        {
          "internalType": "uint256",
          "name": "",
          "type": "uint256"
        },
        {
          "components": [
            {
              "internalType": "uint256",
              "name": "tokenId",
              "type": "uint256"
            },
            {
              "internalType": "enum Utils.CardRarity",
              "name": "cardRarity",
              "type": "uint8"
            },
            {
              "internalType": "uint256",
              "name": "collection",
              "type": "uint256"
            },
            {
              "internalType": "uint256",
              "name": "killTokens",
              "type": "uint256"
            },
            {
              "internalType": "uint256",
              "name": "salePrice",
              "type": "uint256"
            },
            {
              "internalType": "uint256",
              "name": "mintDate",
              "type": "uint256"
            },
            {
              "internalType": "string",
              "name": "media",
              "type": "string"
            },
            {
              "internalType": "uint8",
              "name": "health",
              "type": "uint8"
            },
            {
              "internalType": "uint8",
              "name": "attack",
              "type": "uint8"
            },
            {
              "internalType": "uint8",
              "name": "brain",
              "type": "uint8"
            },
            {
              "internalType": "uint8",
              "name": "speed",
              "type": "uint8"
            },
            {
              "internalType": "string",
              "name": "nftType",
              "type": "string"
            },
            {
              "internalType": "address",
              "name": "ownerId",
              "type": "address"
            },
            {
              "internalType": "enum Utils.ModifierItems[]",
              "name": "modifier_items",
              "type": "uint8[]"
            },
            {
              "internalType": "uint256",
              "name": "next_battle",
              "type": "uint256"
            }
          ],
          "internalType": "struct ZombieNFTContract.Zombie[]",
          "name": "",
          "type": "tuple[]"
        }
      ],
      "stateMutability": "view",
      "type": "function"
    },
    {
      "inputs": [
        {
          "internalType": "uint256[]",
          "name": "_zombiesList",
          "type": "uint256[]"
        }
      ],
      "name": "getRandomRarityByZombies",
      "outputs": [
        {
          "internalType": "string",
          "name": "",
          "type": "string"
        }
      ],
      "stateMutability": "view",
      "type": "function"
    },
    {
      "inputs": [
        {
          "internalType": "uint256",
          "name": "_id",
          "type": "uint256"
        }
      ],
      "name": "getRarityCollection",
      "outputs": [
        {
          "internalType": "string",
          "name": "",
          "type": "string"
        },
        {
          "internalType": "uint256",
          "name": "",
          "type": "uint256"
        }
      ],
      "stateMutability": "view",
      "type": "function"
    },
    {
      "inputs": [],
      "name": "getUserCollectionZombieCount",
      "outputs": [
        {
          "internalType": "uint256[]",
          "name": "",
          "type": "uint256[]"
        }
      ],
      "stateMutability": "view",
      "type": "function"
    },
    {
      "inputs": [
        {
          "internalType": "address",
          "name": "_owner",
          "type": "address"
        },
        {
          "internalType": "uint256",
          "name": "_collectionFilter",
          "type": "uint256"
        }
      ],
      "name": "getUserZombieCollection",
      "outputs": [
        {
          "internalType": "uint256[]",
          "name": "",
          "type": "uint256[]"
        }
      ],
      "stateMutability": "view",
      "type": "function"
    },
    {
      "inputs": [
        {
          "internalType": "address",
          "name": "_owner",
          "type": "address"
        },
        {
          "internalType": "string",
          "name": "_rarityFilter",
          "type": "string"
        }
      ],
      "name": "getUserZombieRarity",
      "outputs": [
        {
          "internalType": "uint256[]",
          "name": "",
          "type": "uint256[]"
        }
      ],
      "stateMutability": "view",
      "type": "function"
    },
    {
      "inputs": [
        {
          "internalType": "address",
          "name": "_mainContract",
          "type": "address"
        }
      ],
      "name": "initialize",
      "outputs": [],
      "stateMutability": "nonpayable",
      "type": "function"
    },
    {
      "inputs": [
        {
          "internalType": "address",
          "name": "owner",
          "type": "address"
        },
        {
          "internalType": "address",
          "name": "operator",
          "type": "address"
        }
      ],
      "name": "isApprovedForAll",
      "outputs": [
        {
          "internalType": "bool",
          "name": "",
          "type": "bool"
        }
      ],
      "stateMutability": "view",
      "type": "function"
    },
    {
      "inputs": [
        {
          "internalType": "uint256[]",
          "name": "_tokenList",
          "type": "uint256[]"
        }
      ],
      "name": "killNftList",
      "outputs": [],
      "stateMutability": "nonpayable",
      "type": "function"
    },
    {
      "inputs": [],
      "name": "leaderboardStats",
      "outputs": [
        {
          "internalType": "uint256",
          "name": "",
          "type": "uint256"
        },
        {
          "internalType": "uint256",
          "name": "",
          "type": "uint256"
        }
      ],
      "stateMutability": "view",
      "type": "function"
    },
    {
      "inputs": [],
      "name": "name",
      "outputs": [
        {
          "internalType": "string",
          "name": "",
          "type": "string"
        }
      ],
      "stateMutability": "view",
      "type": "function"
    },
    {
      "inputs": [],
      "name": "owner",
      "outputs": [
        {
          "internalType": "address",
          "name": "",
          "type": "address"
        }
      ],
      "stateMutability": "view",
      "type": "function"
    },
    {
      "inputs": [
        {
          "internalType": "uint256",
          "name": "tokenId",
          "type": "uint256"
        }
      ],
      "name": "ownerOf",
      "outputs": [
        {
          "internalType": "address",
          "name": "",
          "type": "address"
        }
      ],
      "stateMutability": "view",
      "type": "function"
    },
    {
      "inputs": [],
      "name": "proxiableUUID",
      "outputs": [
        {
          "internalType": "bytes32",
          "name": "",
          "type": "bytes32"
        }
      ],
      "stateMutability": "view",
      "type": "function"
    },
    {
      "inputs": [],
      "name": "renounceOwnership",
      "outputs": [],
      "stateMutability": "nonpayable",
      "type": "function"
    },
    {
      "inputs": [
        {
          "internalType": "uint256",
          "name": "_landId",
          "type": "uint256"
        }
      ],
      "name": "safeMint",
      "outputs": [],
      "stateMutability": "nonpayable",
      "type": "function"
    },
    {
      "inputs": [
        {
          "internalType": "address",
          "name": "from",
          "type": "address"
        },
        {
          "internalType": "address",
          "name": "to",
          "type": "address"
        },
        {
          "internalType": "uint256",
          "name": "tokenId",
          "type": "uint256"
        }
      ],
      "name": "safeTransferFrom",
      "outputs": [],
      "stateMutability": "nonpayable",
      "type": "function"
    },
    {
      "inputs": [
        {
          "internalType": "address",
          "name": "from",
          "type": "address"
        },
        {
          "internalType": "address",
          "name": "to",
          "type": "address"
        },
        {
          "internalType": "uint256",
          "name": "tokenId",
          "type": "uint256"
        },
        {
          "internalType": "bytes",
          "name": "data",
          "type": "bytes"
        }
      ],
      "name": "safeTransferFrom",
      "outputs": [],
      "stateMutability": "nonpayable",
      "type": "function"
    },
    {
      "inputs": [
        {
          "internalType": "address",
          "name": "operator",
          "type": "address"
        },
        {
          "internalType": "bool",
          "name": "approved",
          "type": "bool"
        }
      ],
      "name": "setApprovalForAll",
      "outputs": [],
      "stateMutability": "nonpayable",
      "type": "function"
    },
    {
      "inputs": [
        {
          "internalType": "uint256",
          "name": "_tokenId",
          "type": "uint256"
        },
        {
          "internalType": "uint256",
          "name": "_price",
          "type": "uint256"
        },
        {
          "internalType": "address",
          "name": "ownerId",
          "type": "address"
        }
      ],
      "name": "setMarketSalePrice",
      "outputs": [],
      "stateMutability": "nonpayable",
      "type": "function"
    },
    {
      "inputs": [
        {
          "internalType": "bytes4",
          "name": "_interfaceId",
          "type": "bytes4"
        }
      ],
      "name": "supportsInterface",
      "outputs": [
        {
          "internalType": "bool",
          "name": "",
          "type": "bool"
        }
      ],
      "stateMutability": "view",
      "type": "function"
    },
    {
      "inputs": [],
      "name": "symbol",
      "outputs": [
        {
          "internalType": "string",
          "name": "",
          "type": "string"
        }
      ],
      "stateMutability": "view",
      "type": "function"
    },
    {
      "inputs": [
        {
          "internalType": "uint256",
          "name": "index",
          "type": "uint256"
        }
      ],
      "name": "tokenByIndex",
      "outputs": [
        {
          "internalType": "uint256",
          "name": "",
          "type": "uint256"
        }
      ],
      "stateMutability": "view",
      "type": "function"
    },
    {
      "inputs": [
        {
          "internalType": "address",
          "name": "owner",
          "type": "address"
        },
        {
          "internalType": "uint256",
          "name": "index",
          "type": "uint256"
        }
      ],
      "name": "tokenOfOwnerByIndex",
      "outputs": [
        {
          "internalType": "uint256",
          "name": "",
          "type": "uint256"
        }
      ],
      "stateMutability": "view",
      "type": "function"
    },
    {
      "inputs": [
        {
          "internalType": "uint256",
          "name": "_tokenId",
          "type": "uint256"
        }
      ],
      "name": "tokenURI",
      "outputs": [
        {
          "internalType": "string",
          "name": "",
          "type": "string"
        }
      ],
      "stateMutability": "view",
      "type": "function"
    },
    {
      "inputs": [],
      "name": "totalSupply",
      "outputs": [
        {
          "internalType": "uint256",
          "name": "",
          "type": "uint256"
        }
      ],
      "stateMutability": "view",
      "type": "function"
    },
    {
      "inputs": [
        {
          "internalType": "address",
          "name": "from",
          "type": "address"
        },
        {
          "internalType": "address",
          "name": "to",
          "type": "address"
        },
        {
          "internalType": "uint256",
          "name": "tokenId",
          "type": "uint256"
        }
      ],
      "name": "transferFrom",
      "outputs": [],
      "stateMutability": "nonpayable",
      "type": "function"
    },
    {
      "inputs": [
        {
          "internalType": "address",
          "name": "newOwner",
          "type": "address"
        }
      ],
      "name": "transferOwnership",
      "outputs": [],
      "stateMutability": "nonpayable",
      "type": "function"
    },
    {
      "inputs": [
        {
          "internalType": "address",
          "name": "newImplementation",
          "type": "address"
        }
      ],
      "name": "upgradeTo",
      "outputs": [],
      "stateMutability": "nonpayable",
      "type": "function"
    },
    {
      "inputs": [
        {
          "internalType": "address",
          "name": "newImplementation",
          "type": "address"
        },
        {
          "internalType": "bytes",
          "name": "data",
          "type": "bytes"
        }
      ],
      "name": "upgradeToAndCall",
      "outputs": [],
      "stateMutability": "payable",
      "type": "function"
    },
    {
      "inputs": [
        {
          "internalType": "uint256",
          "name": "_page",
          "type": "uint256"
        },
        {
          "internalType": "uint8",
          "name": "_count",
          "type": "uint8"
        },
        {
          "internalType": "uint256",
          "name": "_collectionFilter",
          "type": "uint256"
        },
        {
          "internalType": "string",
          "name": "_rarityFilter",
          "type": "string"
        }
      ],
      "name": "userZombies",
      "outputs": [
        {
          "internalType": "uint256",
          "name": "",
          "type": "uint256"
        },
        {
          "components": [
            {
              "internalType": "uint256",
              "name": "tokenId",
              "type": "uint256"
            },
            {
              "internalType": "enum Utils.CardRarity",
              "name": "cardRarity",
              "type": "uint8"
            },
            {
              "internalType": "uint256",
              "name": "collection",
              "type": "uint256"
            },
            {
              "internalType": "uint256",
              "name": "killTokens",
              "type": "uint256"
            },
            {
              "internalType": "uint256",
              "name": "salePrice",
              "type": "uint256"
            },
            {
              "internalType": "uint256",
              "name": "mintDate",
              "type": "uint256"
            },
            {
              "internalType": "string",
              "name": "media",
              "type": "string"
            },
            {
              "internalType": "uint8",
              "name": "health",
              "type": "uint8"
            },
            {
              "internalType": "uint8",
              "name": "attack",
              "type": "uint8"
            },
            {
              "internalType": "uint8",
              "name": "brain",
              "type": "uint8"
            },
            {
              "internalType": "uint8",
              "name": "speed",
              "type": "uint8"
            },
            {
              "internalType": "string",
              "name": "nftType",
              "type": "string"
            },
            {
              "internalType": "address",
              "name": "ownerId",
              "type": "address"
            },
            {
              "internalType": "enum Utils.ModifierItems[]",
              "name": "modifier_items",
              "type": "uint8[]"
            },
            {
              "internalType": "uint256",
              "name": "next_battle",
              "type": "uint256"
            }
          ],
          "internalType": "struct ZombieNFTContract.Zombie[]",
          "name": "",
          "type": "tuple[]"
        }
      ],
      "stateMutability": "view",
      "type": "function"
    }
  ],
  "bytecode": "0x60a0604052306080523480156200001557600080fd5b506200002062000026565b620000e8565b600054610100900460ff1615620000935760405162461bcd60e51b815260206004820152602760248201527f496e697469616c697a61626c653a20636f6e747261637420697320696e697469604482015266616c697a696e6760c81b606482015260840160405180910390fd5b60005460ff9081161015620000e6576000805460ff191660ff9081179091556040519081527f7f26b83ff96e1f2b6a682f133852f6798a09c465da95921460cefb38474024989060200160405180910390a15b565b608051615afd620001206000396000818161163d0152818161167d015281816119f701528181611a370152611b5d0152615afd6000f3fe6080604052600436106102255760003560e01c80636352211e11610123578063af3f6577116100ab578063d9dbcf821161006f578063d9dbcf821461069e578063e985e9c5146106be578063f2fde38b14610707578063f4c6817c14610727578063feb9fd641461075157600080fd5b8063af3f6577146105f0578063b88d4fde14610610578063c4d66de814610630578063c87b56dd14610650578063cb06c8291461067057600080fd5b8063767c5e1b116100f2578063767c5e1b1461054f5780638da5cb5b1461056f5780638e169b141461058e57806395d89b41146105bb578063a22cb465146105d057600080fd5b80636352211e146104da5780636ba74be4146104fa57806370a082311461051a578063715018a61461053a57600080fd5b806331c864e8116101b157806342966c681161017557806342966c68146104445780634689856c146104645780634f1ef286146104925780634f6ccce7146104a557806352d1902d146104c557600080fd5b806331c864e8146103a25780633659cfe6146103c257806336a14046146103e257806337116c6e1461040457806342842e0e1461042457600080fd5b806318160ddd116101f857806318160ddd146102db57806321466eb5146102fa57806323b872dd1461031a5780632553f32c1461033a5780632f745c591461038257600080fd5b806301ffc9a71461022a57806306fdde031461025f578063081812fc14610281578063095ea7b3146102b9575b600080fd5b34801561023657600080fd5b5061024a610245366004614c77565b610771565b60405190151581526020015b60405180910390f35b34801561026b57600080fd5b50610274610782565b6040516102569190614cec565b34801561028d57600080fd5b506102a161029c366004614cff565b610814565b6040516001600160a01b039091168152602001610256565b3480156102c557600080fd5b506102d96102d4366004614d2d565b61083b565b005b3480156102e757600080fd5b506099545b604051908152602001610256565b34801561030657600080fd5b506102a1610315366004614d59565b610956565b34801561032657600080fd5b506102d9610335366004614d92565b610a9f565b34801561034657600080fd5b5061035a610355366004614ea7565b610ad1565b604080519586526020860194909452928401919091526060830152608082015260a001610256565b34801561038e57600080fd5b506102ec61039d366004614d2d565b610e3b565b3480156103ae57600080fd5b506102d96103bd366004614cff565b610ed1565b3480156103ce57600080fd5b506102d96103dd366004614eff565b611632565b3480156103ee57600080fd5b506103f7611712565b6040516102569190614f1c565b34801561041057600080fd5b506103f761041f366004614fd8565b6118c3565b34801561043057600080fd5b506102d961043f366004614d92565b61196f565b34801561045057600080fd5b506102d961045f366004614cff565b61198a565b34801561047057600080fd5b5061048461047f366004614cff565b6119b8565b604051610256929190615027565b6102d96104a0366004614fd8565b6119ec565b3480156104b157600080fd5b506102ec6104c0366004614cff565b611abd565b3480156104d157600080fd5b506102ec611b50565b3480156104e657600080fd5b506102a16104f5366004614cff565b611c03565b34801561050657600080fd5b506103f7610515366004614d2d565b611c63565b34801561052657600080fd5b506102ec610535366004614eff565b611c8a565b34801561054657600080fd5b506102d9611d10565b34801561055b57600080fd5b5061027461056a366004615049565b611d24565b34801561057b57600080fd5b5061012d546001600160a01b03166102a1565b34801561059a57600080fd5b506105ae6105a9366004615049565b611d82565b6040516102569190615250565b3480156105c757600080fd5b506102746120c0565b3480156105dc57600080fd5b506102d96105eb366004615263565b6120cf565b3480156105fc57600080fd5b506102d961060b366004615049565b6120da565b34801561061c57600080fd5b506102d961062b3660046152a1565b612210565b34801561063c57600080fd5b506102d961064b366004614eff565b612248565b34801561065c57600080fd5b5061027461066b366004614cff565b6123da565b34801561067c57600080fd5b5061069061068b36600461531b565b6123e5565b604051610256929190615343565b3480156106aa57600080fd5b506106906106b936600461535c565b612877565b3480156106ca57600080fd5b5061024a6106d93660046153cf565b6001600160a01b039182166000908152606a6020908152604080832093909416825291909152205460ff1690565b34801561071357600080fd5b506102d9610722366004614eff565b612cc7565b34801561073357600080fd5b5061073c612d3d565b60408051928352602083019190915201610256565b34801561075d57600080fd5b506102d961076c366004614d59565b612d56565b600061077c82612dee565b92915050565b606060658054610791906153fd565b80601f01602080910402602001604051908101604052809291908181526020018280546107bd906153fd565b801561080a5780601f106107df5761010080835404028352916020019161080a565b820191906000526020600020905b8154815290600101906020018083116107ed57829003601f168201915b5050505050905090565b600061081f82612e13565b506000908152606960205260409020546001600160a01b031690565b600061084682611c03565b9050806001600160a01b0316836001600160a01b031614156108b95760405162461bcd60e51b815260206004820152602160248201527f4552433732313a20617070726f76616c20746f2063757272656e74206f776e656044820152603960f91b60648201526084015b60405180910390fd5b336001600160a01b03821614806108d557506108d581336106d9565b6109475760405162461bcd60e51b815260206004820152603e60248201527f4552433732313a20617070726f76652063616c6c6572206973206e6f7420746f60448201527f6b656e206f776e6572206e6f7220617070726f76656420666f7220616c6c000060648201526084016108b0565b6109518383612e72565b505050565b6000610960612ee0565b60008481526101c66020526040902060048101546109b75760405162461bcd60e51b815260206004820152601460248201527315dc9bdb99c81c185e5b595b9d08185b5bdd5b9d60621b60448201526064016108b0565b83816004015414610a015760405162461bcd60e51b815260206004820152601460248201527315dc9bdb99c81c185e5b595b9d08185b5bdd5b9d60621b60448201526064016108b0565b60098101546001600160a01b0384811691161415610a615760405162461bcd60e51b815260206004820152601f60248201527f43616e27742073656c6c20666f72207468652073616d65206163636f756e740060448201526064016108b0565b6009810180546001600160a01b038581166001600160a01b03198316179092556000600484015516610a94818588612fa9565b9150505b9392505050565b610aaa335b82613150565b610ac65760405162461bcd60e51b81526004016108b090615432565b610951838383612fa9565b6000806000806000610ae16131cf565b60006040518060a00160405280600081526020016000815260200160008152602001600081526020016101c660008b600081518110610b2257610b22615480565b602002602001015181526020019081526020016000206002015481525090506000885190506000806101c360009054906101000a90046001600160a01b03166001600160a01b03166342104fac6040518163ffffffff1660e01b8152600401602060405180830381865afa158015610b9e573d6000803e3d6000fd5b505050506040513d601f19601f82011682018060405250810190610bc29190615496565b905060005b83811015610daf5760008c8281518110610be357610be3615480565b6020026020010151905060006101c6600083815260200190815260200160002090508e6001600160a01b03168160090160009054906101000a90046001600160a01b03166001600160a01b031614610c8a578054604080516334ad07dd60e11b81526004810191909152601960448201527f596f7520646f6e2774206f776e2074686973207a6f6d62696500000000000000606482015260248101919091526084016108b0565b60018101546001600160a01b0385169063d3ef3df490610cac9060ff1661321a565b6040518263ffffffff1660e01b8152600401610cc89190614cec565b602060405180830381865afa158015610ce5573d6000803e3d6000fd5b505050506040513d601f19601f82011682018060405250810190610d0991906154b3565b610d1390866154e2565b6007820154885191965060ff16908890610d2e9083906154e2565b905250600781015460208801805161010090920460ff1691610d519083906154e2565b90525060078101546040880180516201000090920460ff1691610d759083906154e2565b9052506003810154606088018051610d8e9083906154e2565b9052508054610d9c906132f0565b505080610da8906154fa565b9050610bc7565b50898214610e0d5760405162075be960e91b815260606004820152601860648201527f57726f6e67205a4d4c207061796d656e7420616d6f756e7400000000000000006084820152602481018b90526044810183905260a4016108b0565b50508151602083015160408401516060850151608090950151929d919c509a50929850965090945050505050565b6000610e4683611c8a565b8210610ea85760405162461bcd60e51b815260206004820152602b60248201527f455243373231456e756d657261626c653a206f776e657220696e646578206f7560448201526a74206f6620626f756e647360a81b60648201526084016108b0565b506001600160a01b03919091166000908152609760209081526040808320938352929052205490565b6101c3546040805163afc297cb60e01b815290516000926001600160a01b03169163afc297cb9160048083019260209291908290030181865afa158015610f1c573d6000803e3d6000fd5b505050506040513d601f19601f82011682018060405250810190610f409190615496565b905060006101c360009054906101000a90046001600160a01b03166001600160a01b03166342104fac6040518163ffffffff1660e01b8152600401602060405180830381865afa158015610f98573d6000803e3d6000fd5b505050506040513d601f19601f82011682018060405250810190610fbc9190615496565b90506000806000846001600160a01b031663c3edcdd1876040518263ffffffff1660e01b8152600401610ff191815260200190565b600060405180830381865afa15801561100e573d6000803e3d6000fd5b505050506040513d6000823e601f3d908101601f19168201604052611036919081019061555a565b919450925090506001600160a01b038316331461109657604051633a9e892f60e21b815260206004820152601860248201527f596f7520646f6e277420686176652074686973204c616e64000000000000000060448201526064016108b0565b6110bd82604051806040016040528060058152602001644d6963726f60d81b815250613346565b80156110c9575080601e145b1561113257604051633a9e892f60e21b815260206004820152603260248201527f4c616e64207265736f75726365206973206465706c657465643a20796f75206d60448201527134b73a32b21030b636103d37b6b134b2b99760711b60648201526084016108b0565b60405163e7e937b960e01b8152600481018790526000906001600160a01b0387169063e7e937b990602401602060405180830381865afa15801561117a573d6000803e3d6000fd5b505050506040513d601f19601f8201168201806040525081019061119e91906155b3565b905060ff8116156115cc5760005b8160ff168160ff16101561156c5760408051610120810182526000610100820181815282526020808301829052828401829052606083018290526080830182905260a0830182905260c083018290528351908101845290815260e0820152905163d9c273e760e01b815260ff831660048201526001600160a01b0388169063d9c273e7906024016000604051808303816000875af1158015611252573d6000803e3d6000fd5b505050506040513d6000823e601f3d908101601f1916820160405261127a91908101906155d0565b60e089015260c088015260a087015260ff9081166080870152908116606086015290811660408501521660208301528082526000906112b89061335a565b905060006112c66101c45490565b90506112d76101c480546001019055565b6112e1338261344d565b6112ef818460e00151613467565b604051806101e001604052808281526020018360038111156113135761131361507d565b81526020018460c0015181526020018460a001518152602001600081526020014281526020018460e001518152602001846020015160ff168152602001846040015160ff168152602001846060015160ff168152602001846080015160ff168152602001604051806040016040528060068152602001655a6f6d62696560d01b8152508152602001336001600160a01b0316815260200160006001600160401b038111156113c3576113c3614dd3565b6040519080825280602002602001820160405280156113ec578160200160208202803683370190505b5081524260209182015260008381526101c6825260409020825181559082015160018083018054909160ff199091169083600381111561142e5761142e61507d565b021790555060408201516002820155606082015160038201556080820151600482015560a0820151600582015560c08201518051611476916006840191602090910190614a57565b5060e08201516007820180546101008086015161012087015161014088015160ff96871661ffff19909516949094179186169092021763ffff00001916620100009185169190910263ff0000001916176301000000939091169290920291909117905561016082015180516114f5916008840191602090910190614a57565b506101808201516009820180546001600160a01b0319166001600160a01b039092169190911790556101a0820151805161153991600a840191602090910190614adb565b506101c082015181600b015590505061155833828560c0015185613501565b5050508061156590615696565b90506111ac565b50604051630be6eb0b60e11b8152600481018890526001600160a01b038716906317cdd61690602401600060405180830381600087803b1580156115af57600080fd5b505af11580156115c3573d6000803e3d6000fd5b50505050611629565b604051633a9e892f60e21b815260206004820152602b60248201527f596f752063616e2774206d696e74206f6e2074686973204c616e642c2077616960448201526a7420323420686f7572732160a81b60648201526084016108b0565b50505050505050565b306001600160a01b037f000000000000000000000000000000000000000000000000000000000000000016141561167b5760405162461bcd60e51b81526004016108b0906156b6565b7f00000000000000000000000000000000000000000000000000000000000000006001600160a01b03166116c4600080516020615a81833981519152546001600160a01b031690565b6001600160a01b0316146116ea5760405162461bcd60e51b81526004016108b090615702565b6116f381613591565b6040805160008082526020820190925261170f91839190613599565b50565b606060006101c360009054906101000a90046001600160a01b03166001600160a01b031663981101706040518163ffffffff1660e01b8152600401602060405180830381865afa15801561176a573d6000803e3d6000fd5b505050506040513d601f19601f8201168201806040525081019061178e9190615496565b90506000816001600160a01b031663a4f0a9b96040518163ffffffff1660e01b8152600401602060405180830381865afa1580156117d0573d6000803e3d6000fd5b505050506040513d601f19601f820116820180604052508101906117f491906154b3565b90506000816001600160401b0381111561181057611810614dd3565b604051908082528060200260200182016040528015611839578160200160208202803683370190505b509050600061184733611c8a565b905060005b818110156118b95760006118603383610e3b565b60008181526101c6602052604090206002015485519192509060019086908390811061188e5761188e615480565b602002602001018181516118a291906154e2565b9052506118b291508290506154fa565b905061184c565b5090949350505050565b6001600160a01b03821660009081526101c8602052604081206060916118e88461335a565b60038111156118f9576118f961507d565b600381111561190a5761190a61507d565b815260200190815260200160002080548060200260200160405190810160405280929190818152602001828054801561196257602002820191906000526020600020905b81548152602001906001019080831161194e575b5050505050905092915050565b61095183838360405180602001604052806000815250612210565b61199333610aa4565b6119af5760405162461bcd60e51b81526004016108b090615432565b61170f816132f0565b60008181526101c660205260408120600181015460609291906119dd9060ff1661321a565b81600201549250925050915091565b306001600160a01b037f0000000000000000000000000000000000000000000000000000000000000000161415611a355760405162461bcd60e51b81526004016108b0906156b6565b7f00000000000000000000000000000000000000000000000000000000000000006001600160a01b0316611a7e600080516020615a81833981519152546001600160a01b031690565b6001600160a01b031614611aa45760405162461bcd60e51b81526004016108b090615702565b611aad82613591565b611ab982826001613599565b5050565b6000611ac860995490565b8210611b2b5760405162461bcd60e51b815260206004820152602c60248201527f455243373231456e756d657261626c653a20676c6f62616c20696e646578206f60448201526b7574206f6620626f756e647360a01b60648201526084016108b0565b60998281548110611b3e57611b3e615480565b90600052602060002001549050919050565b6000306001600160a01b037f00000000000000000000000000000000000000000000000000000000000000001614611bf05760405162461bcd60e51b815260206004820152603860248201527f555550535570677261646561626c653a206d757374206e6f742062652063616c60448201527f6c6564207468726f7567682064656c656761746563616c6c000000000000000060648201526084016108b0565b50600080516020615a8183398151915290565b6000818152606760205260408120546001600160a01b03168061077c5760405162461bcd60e51b8152602060048201526018602482015277115490cdcc8c4e881a5b9d985b1a59081d1bdad95b88125160421b60448201526064016108b0565b6001600160a01b03821660009081526101c76020526040812060609161190a60018561574e565b60006001600160a01b038216611cf45760405162461bcd60e51b815260206004820152602960248201527f4552433732313a2061646472657373207a65726f206973206e6f7420612076616044820152683634b21037bbb732b960b91b60648201526084016108b0565b506001600160a01b031660009081526068602052604090205490565b611d18613704565b611d22600061375f565b565b60606000611d34600960016137b2565b90506000838281518110611d4a57611d4a615480565b60209081029190910181015160008181526101c690925260409091206001015490915060ff16611d798161321a565b95945050505050565b6060600082516001600160401b03811115611d9f57611d9f614dd3565b604051908082528060200260200182016040528015611dd857816020015b611dc5614b8a565b815260200190600190039081611dbd5790505b50905060005b83518110156120b9576101c66000858381518110611dfe57611dfe615480565b60200260200101518152602001908152602001600020604051806101e0016040529081600082015481526020016001820160009054906101000a900460ff166003811115611e4e57611e4e61507d565b6003811115611e5f57611e5f61507d565b815260200160028201548152602001600382015481526020016004820154815260200160058201548152602001600682018054611e9b906153fd565b80601f0160208091040260200160405190810160405280929190818152602001828054611ec7906153fd565b8015611f145780601f10611ee957610100808354040283529160200191611f14565b820191906000526020600020905b815481529060010190602001808311611ef757829003601f168201915b5050509183525050600782015460ff808216602084015261010082048116604084015262010000820481166060840152630100000090910416608082015260088201805460a090920191611f67906153fd565b80601f0160208091040260200160405190810160405280929190818152602001828054611f93906153fd565b8015611fe05780601f10611fb557610100808354040283529160200191611fe0565b820191906000526020600020905b815481529060010190602001808311611fc357829003601f168201915b505050918352505060098201546001600160a01b0316602080830191909152600a83018054604080518285028101850182528281529401939283018282801561207857602002820191906000526020600020906000905b82829054906101000a900460ff1660038111156120565761205661507d565b8152602060019283018181049485019490930390920291018084116120375790505b50505050508152602001600b8201548152505082828151811061209d5761209d615480565b6020026020010181905250806120b2906154fa565b9050611dde565b5092915050565b606060668054610791906153fd565b611ab933838361381f565b6000805b82518110156121a55760008382815181106120fb576120fb615480565b60209081029190910181015160008181526101c690925260409091206009810154919250906001600160a01b031633146121785760405163bb20bcd360e01b815260206004820152601a60248201527f596f752063616e2774206b696c6c2074686973205a6f6d62696500000000000060448201526064016108b0565b600381015461218790856154e2565b9350612192826132f0565b50508061219e906154fa565b90506120de565b506101c3546040516325a2808d60e11b8152336004820152602481018390526001600160a01b0390911690634b45011a906044015b600060405180830381600087803b1580156121f457600080fd5b505af1158015612208573d6000803e3d6000fd5b505050505050565b61221a3383613150565b6122365760405162461bcd60e51b81526004016108b090615432565b612242848484846138ee565b50505050565b600054610100900460ff16158080156122685750600054600160ff909116105b806122825750303b158015612282575060005460ff166001145b6122e55760405162461bcd60e51b815260206004820152602e60248201527f496e697469616c697a61626c653a20636f6e747261637420697320616c72656160448201526d191e481a5b9a5d1a585b1a5e995960921b60648201526084016108b0565b6000805460ff191660011790558015612308576000805461ff0019166101001790555b61234d60405180604001604052806007815260200166169bdb53185b9960ca1b815250604051806040016040528060048152602001632d26a62d60e11b815250613921565b612355613952565b61235d613952565b612365613952565b61236d613979565b612375613952565b6101c380546001600160a01b0319166001600160a01b0384161790558015611ab9576000805461ff0019169055604051600181527f7f26b83ff96e1f2b6a682f133852f6798a09c465da95921460cefb38474024989060200160405180910390a15050565b606061077c826139a8565b6000606060008060008760ff166001600160401b0381111561240957612409614dd3565b604051908082528060200260200182016040528015612432578160200160208202803683370190505b50905060006101c360009054906101000a90046001600160a01b03166001600160a01b03166342104fac6040518163ffffffff1660e01b8152600401602060405180830381865afa15801561248b573d6000803e3d6000fd5b505050506040513d601f19601f820116820180604052508101906124af9190615496565b604051636db3194f60e11b81529091506001600160a01b0382169063db66329e906124e6908d908d908d908d903390600401615765565b600060405180830381865afa158015612503573d6000803e3d6000fd5b505050506040513d6000823e601f3d908101601f1916820160405261252b9190810190615802565b909550935091506000846001600160401b0381111561254c5761254c614dd3565b60405190808252806020026020018201604052801561258557816020015b612572614b8a565b81526020019060019003908161256a5790505b50905060005b85811015612865576101c660008583815181106125aa576125aa615480565b60200260200101518152602001908152602001600020604051806101e0016040529081600082015481526020016001820160009054906101000a900460ff1660038111156125fa576125fa61507d565b600381111561260b5761260b61507d565b815260200160028201548152602001600382015481526020016004820154815260200160058201548152602001600682018054612647906153fd565b80601f0160208091040260200160405190810160405280929190818152602001828054612673906153fd565b80156126c05780601f10612695576101008083540402835291602001916126c0565b820191906000526020600020905b8154815290600101906020018083116126a357829003601f168201915b5050509183525050600782015460ff808216602084015261010082048116604084015262010000820481166060840152630100000090910416608082015260088201805460a090920191612713906153fd565b80601f016020809104026020016040519081016040528092919081815260200182805461273f906153fd565b801561278c5780601f106127615761010080835404028352916020019161278c565b820191906000526020600020905b81548152906001019060200180831161276f57829003601f168201915b505050918352505060098201546001600160a01b0316602080830191909152600a83018054604080518285028101850182528281529401939283018282801561282457602002820191906000526020600020906000905b82829054906101000a900460ff1660038111156128025761280261507d565b8152602060019283018181049485019490930390920291018084116127e35790505b50505050508152602001600b8201548152505082828151811061284957612849615480565b60200260200101819052508061285e906154fa565b905061258b565b50929a92995091975050505050505050565b6000606060008560ff166001600160401b0381111561289857612898614dd3565b6040519080825280602002602001820160405280156128d157816020015b6128be614b8a565b8152602001906001900390816128b65790505b50905060006101c360009054906101000a90046001600160a01b03166001600160a01b031663f34b899d6040518163ffffffff1660e01b8152600401602060405180830381865afa15801561292a573d6000803e3d6000fd5b505050506040513d601f19601f8201168201806040525081019061294e9190615496565b9050600080826001600160a01b031663278d453c8b8b8b8b6040518563ffffffff1660e01b81526004016129859493929190615851565b600060405180830381865afa1580156129a2573d6000803e3d6000fd5b505050506040513d6000823e601f3d908101601f191682016040526129ca91908101906158ae565b9150915060005b8960ff16811015612cb65782811015612ca6576101c660008383815181106129fb576129fb615480565b60200260200101518152602001908152602001600020604051806101e0016040529081600082015481526020016001820160009054906101000a900460ff166003811115612a4b57612a4b61507d565b6003811115612a5c57612a5c61507d565b815260200160028201548152602001600382015481526020016004820154815260200160058201548152602001600682018054612a98906153fd565b80601f0160208091040260200160405190810160405280929190818152602001828054612ac4906153fd565b8015612b115780601f10612ae657610100808354040283529160200191612b11565b820191906000526020600020905b815481529060010190602001808311612af457829003601f168201915b5050509183525050600782015460ff808216602084015261010082048116604084015262010000820481166060840152630100000090910416608082015260088201805460a090920191612b64906153fd565b80601f0160208091040260200160405190810160405280929190818152602001828054612b90906153fd565b8015612bdd5780601f10612bb257610100808354040283529160200191612bdd565b820191906000526020600020905b815481529060010190602001808311612bc057829003601f168201915b505050918352505060098201546001600160a01b0316602080830191909152600a830180546040805182850281018501825282815294019392830182828015612c7557602002820191906000526020600020906000905b82829054906101000a900460ff166003811115612c5357612c5361507d565b815260206001928301818104948501949093039092029101808411612c345790505b50505050508152602001600b82015481525050858281518110612c9a57612c9a615480565b60200260200101819052505b612caf816154fa565b90506129d1565b509099929850919650505050505050565b612ccf613704565b6001600160a01b038116612d345760405162461bcd60e51b815260206004820152602660248201527f4f776e61626c653a206e6577206f776e657220697320746865207a65726f206160448201526564647265737360d01b60648201526084016108b0565b61170f8161375f565b600080612d4a6101c45490565b6101c554915091509091565b612d5e612ee0565b60008381526101c660205260409020600901546001600160a01b03828116911614612dd75760405162461bcd60e51b815260206004820152602360248201527f596f752063616e2774206368616e676520707269636520666f7220746869732060448201526213919560ea1b60648201526084016108b0565b5060009182526101c6602052604090912060040155565b60006001600160e01b0319821663780e9d6360e01b148061077c575061077c82613ace565b6000818152606760205260409020546001600160a01b031661170f5760405162461bcd60e51b8152602060048201526018602482015277115490cdcc8c4e881a5b9d985b1a59081d1bdad95b88125160421b60448201526064016108b0565b600081815260696020526040902080546001600160a01b0319166001600160a01b0384169081179091558190612ea782611c03565b6001600160a01b03167f8c5be1e5ebec7d5bd14f71427d1e84f3dd0314c0f7b2291e5b200ac8c7c3b92560405160405180910390a45050565b6101c3546040805163f34b899d60e01b815290516000926001600160a01b03169163f34b899d9160048083019260209291908290030181865afa158015612f2b573d6000803e3d6000fd5b505050506040513d601f19601f82011682018060405250810190612f4f9190615496565b90506001600160a01b038116331461170f5760405162461bcd60e51b815260206004820152601a60248201527f596f752063616e27742063616c6c2074686973206d6574686f6400000000000060448201526064016108b0565b826001600160a01b0316612fbc82611c03565b6001600160a01b0316146130205760405162461bcd60e51b815260206004820152602560248201527f4552433732313a207472616e736665722066726f6d20696e636f72726563742060448201526437bbb732b960d91b60648201526084016108b0565b6001600160a01b0382166130825760405162461bcd60e51b8152602060048201526024808201527f4552433732313a207472616e7366657220746f20746865207a65726f206164646044820152637265737360e01b60648201526084016108b0565b61308d838383613b1e565b613098600082612e72565b6001600160a01b03831660009081526068602052604081208054600192906130c190849061574e565b90915550506001600160a01b03821660009081526068602052604081208054600192906130ef9084906154e2565b909155505060008181526067602052604080822080546001600160a01b0319166001600160a01b0386811691821790925591518493918716917fddf252ad1be2c89b69c2b068fc378daa952ba7f163c4a11628f55a4df523b3ef91a4505050565b60008061315c83611c03565b9050806001600160a01b0316846001600160a01b031614806131a357506001600160a01b038082166000908152606a602090815260408083209388168352929052205460ff165b806131c75750836001600160a01b03166131bc84610814565b6001600160a01b0316145b949350505050565b6101c3546040805163f095821f60e01b815290516000926001600160a01b03169163f095821f9160048083019260209291908290030181865afa158015612f2b573d6000803e3d6000fd5b606060008260038111156132305761323061507d565b141561325857505060408051808201909152600681526521b7b6b6b7b760d11b602082015290565b600182600381111561326c5761326c61507d565b14156132965750506040805180820190915260088152672ab721b7b6b6b7b760c11b602082015290565b60028260038111156132aa576132aa61507d565b14156132d05750506040805180820190915260048152635261726560e01b602082015290565b50506040805180820190915260048152634570696360e01b602082015290565b60008181526101c6602052604090206002810154600182015461331a91339185919060ff16613ba3565b61332382613e38565b60016101c5600082825461333791906154e2565b90915550611ab9905082613ef6565b60006133528383613f36565b159392505050565b6000808260405160200161336e91906158ea565b6040516020818303038152906040528051906020012090506040516020016133a2906521b7b6b6b7b760d11b815260060190565b604051602081830303815290604052805190602001208114156133c85750600092915050565b604051672ab721b7b6b6b7b760c11b6020820152602801604051602081830303815290604052805190602001208114156134055750600192915050565b604051635261726560e01b60208201526024016040516020818303038152906040528051906020012081141561343e5750600292915050565b50600392915050565b50919050565b611ab9828260405180602001604052806000815250614059565b6000828152606760205260409020546001600160a01b03166134e25760405162461bcd60e51b815260206004820152602e60248201527f45524337323155524953746f726167653a2055524920736574206f66206e6f6e60448201526d32bc34b9ba32b73a103a37b5b2b760911b60648201526084016108b0565b600082815260c960209081526040909120825161095192840190614a57565b6001600160a01b03841660008181526101c76020908152604080832086845282528083208054600181018255908452828420018790559282526101c89052908120908260038111156135555761355561507d565b60038111156135665761356661507d565b8152602080820192909252604001600090812080546001810182559082529190200192909255505050565b61170f613704565b7f4910fdfa16fed3260ed0e7147f7cc6da11a60208b5b9406d12a635614ffd91435460ff16156135cc576109518361408c565b826001600160a01b03166352d1902d6040518163ffffffff1660e01b8152600401602060405180830381865afa925050508015613626575060408051601f3d908101601f19168201909252613623918101906154b3565b60015b6136895760405162461bcd60e51b815260206004820152602e60248201527f45524331393637557067726164653a206e657720696d706c656d656e7461746960448201526d6f6e206973206e6f74205555505360901b60648201526084016108b0565b600080516020615a8183398151915281146136f85760405162461bcd60e51b815260206004820152602960248201527f45524331393637557067726164653a20756e737570706f727465642070726f786044820152681a58589b195555525160ba1b60648201526084016108b0565b50610951838383614128565b61012d546001600160a01b03163314611d225760405162461bcd60e51b815260206004820181905260248201527f4f776e61626c653a2063616c6c6572206973206e6f7420746865206f776e657260448201526064016108b0565b61012d80546001600160a01b038381166001600160a01b0319831681179093556040519116919082907f8be0079c531659141344cd1fd0a4f28419497f9722a3daafe3b4186f6b6457e090600090a35050565b6040516001600160f81b031960f883901b1660208201526bffffffffffffffffffffffff193360601b1660218201524460358201524260558201526001607582015260009083906095016040516020818303038152906040528051906020012060001c610a98919061591c565b816001600160a01b0316836001600160a01b031614156138815760405162461bcd60e51b815260206004820152601960248201527f4552433732313a20617070726f766520746f2063616c6c65720000000000000060448201526064016108b0565b6001600160a01b038381166000818152606a6020908152604080832094871680845294825291829020805460ff191686151590811790915591519182527f17307eab39ab6107e8899845ad3d59bd9653f200f220920489ca2b5937696c31910160405180910390a3505050565b6138f9848484612fa9565b6139058484848461414d565b6122425760405162461bcd60e51b81526004016108b090615930565b600054610100900460ff166139485760405162461bcd60e51b81526004016108b090615982565b611ab9828261424b565b600054610100900460ff16611d225760405162461bcd60e51b81526004016108b090615982565b600054610100900460ff166139a05760405162461bcd60e51b81526004016108b090615982565b611d22614299565b60606139b382612e13565b600082815260c96020526040812080546139cc906153fd565b80601f01602080910402602001604051908101604052809291908181526020018280546139f8906153fd565b8015613a455780601f10613a1a57610100808354040283529160200191613a45565b820191906000526020600020905b815481529060010190602001808311613a2857829003601f168201915b505050505090506000613a8060408051808201909152601581527468747470733a2f2f697066732e696f2f697066732f60581b602082015290565b9050805160001415613a93575092915050565b815115613ac5578082604051602001613aad9291906159cd565b60405160208183030381529060405292505050919050565b6131c7846142c9565b60006001600160e01b031982166380ac58cd60e01b1480613aff57506001600160e01b03198216635b5e139f60e01b145b8061077c57506301ffc9a760e01b6001600160e01b031983161461077c565b613b29838383614359565b6001600160a01b038316156109515760008181526101c6602052604090206009810180546001600160a01b0319166001600160a01b038516179055613b6d82613e38565b60028101546001820154613b8891869185919060ff16613ba3565b6002810154600182015461224291859185919060ff16613501565b6001600160a01b03841660009081526101c760209081526040808320858452825280832080548251818502810185019093528083528493613c1b93929190830182828015613c1057602002820191906000526020600020905b815481526020019060010190808311613bfc575b505050505086614411565b915091508015613cbc576001600160a01b03861660009081526101c760209081526040808320878452909152902080548190613c599060019061574e565b81548110613c6957613c69615480565b9060005260206000200154818481548110613c8657613c86615480565b906000526020600020018190555080805480613ca457613ca46159fc565b60019003818190600052602060002001600090559055505b6001600160a01b03861660009081526101c8602052604081208190613d629082876003811115613cee57613cee61507d565b6003811115613cff57613cff61507d565b8152602001908152602001600020805480602002602001604051908101604052809291908181526020018280548015613d5757602002820191906000526020600020905b815481526020019060010190808311613d43575b505050505088614411565b915091508015613e2e576001600160a01b03881660009081526101c86020526040812081876003811115613d9857613d9861507d565b6003811115613da957613da961507d565b815260200190815260200160002090508060018280549050613dcb919061574e565b81548110613ddb57613ddb615480565b9060005260206000200154818481548110613df857613df8615480565b906000526020600020018190555080805480613e1657613e166159fc565b60019003818190600052602060002001600090559055505b5050505050505050565b6101c3546040805163f34b899d60e01b815290516000926001600160a01b03169163f34b899d9160048083019260209291908290030181865afa158015613e83573d6000803e3d6000fd5b505050506040513d601f19601f82011682018060405250810190613ea79190615496565b604080516314a2c6db60e11b815260048101859052602481019190915260066044820152657a6f6d62696560d01b60648201529091506001600160a01b038216906329458db6906084016121da565b613eff81614471565b600081815260c9602052604090208054613f18906153fd565b15905061170f57600081815260c96020526040812061170f91614c16565b815181516000918491849190811115613f4d575080515b60005b8181101561401f57828181518110613f6a57613f6a615480565b602001015160f81c60f81b6001600160f81b031916848281518110613f9157613f91615480565b01602001516001600160f81b0319161015613fb45760001994505050505061077c565b828181518110613fc657613fc6615480565b602001015160f81c60f81b6001600160f81b031916848281518110613fed57613fed615480565b01602001516001600160f81b031916111561400f57600194505050505061077c565b614018816154fa565b9050613f50565b5081518351101561403757600019935050505061077c565b81518351111561404d576001935050505061077c565b6000935050505061077c565b6140638383614518565b614070600084848461414d565b6109515760405162461bcd60e51b81526004016108b090615930565b6001600160a01b0381163b6140f95760405162461bcd60e51b815260206004820152602d60248201527f455243313936373a206e657720696d706c656d656e746174696f6e206973206e60448201526c1bdd08184818dbdb9d1c9858dd609a1b60648201526084016108b0565b600080516020615a8183398151915280546001600160a01b0319166001600160a01b0392909216919091179055565b61413183614666565b60008251118061413e5750805b156109515761224283836146a6565b60006001600160a01b0384163b1561424057604051630a85bd0160e11b81526001600160a01b0385169063150b7a0290614191903390899088908890600401615a12565b6020604051808303816000875af19250505080156141cc575060408051601f3d908101601f191682019092526141c991810190615a4f565b60015b614226573d8080156141fa576040519150601f19603f3d011682016040523d82523d6000602084013e6141ff565b606091505b50805161421e5760405162461bcd60e51b81526004016108b090615930565b805181602001fd5b6001600160e01b031916630a85bd0160e11b1490506131c7565b506001949350505050565b600054610100900460ff166142725760405162461bcd60e51b81526004016108b090615982565b8151614285906065906020850190614a57565b508051610951906066906020840190614a57565b600054610100900460ff166142c05760405162461bcd60e51b81526004016108b090615982565b611d223361375f565b60606142d482612e13565b600061430860408051808201909152601581527468747470733a2f2f697066732e696f2f697066732f60581b602082015290565b905060008151116143285760405180602001604052806000815250610a98565b8061433284614791565b6040516020016143439291906159cd565b6040516020818303038152906040529392505050565b6001600160a01b0383166143b4576143af81609980546000838152609a60205260408120829055600182018355919091527f72a152ddfb8e864297c917af52ea6c1c68aead0fee1a62673fcc7e0c94979d000155565b6143d7565b816001600160a01b0316836001600160a01b0316146143d7576143d7838261488e565b6001600160a01b0382166143ee576109518161492b565b826001600160a01b0316826001600160a01b0316146109515761095182826149da565b81516000908190815b81811015614460578486828151811061443557614435615480565b602002602001015114156144505792506001915061446a9050565b614459816154fa565b905061441a565b5060008092509250505b9250929050565b600061447c82611c03565b905061448a81600084613b1e565b614495600083612e72565b6001600160a01b03811660009081526068602052604081208054600192906144be90849061574e565b909155505060008281526067602052604080822080546001600160a01b0319169055518391906001600160a01b038416907fddf252ad1be2c89b69c2b068fc378daa952ba7f163c4a11628f55a4df523b3ef908390a45050565b6001600160a01b03821661456e5760405162461bcd60e51b815260206004820181905260248201527f4552433732313a206d696e7420746f20746865207a65726f206164647265737360448201526064016108b0565b6000818152606760205260409020546001600160a01b0316156145d35760405162461bcd60e51b815260206004820152601c60248201527f4552433732313a20746f6b656e20616c7265616479206d696e7465640000000060448201526064016108b0565b6145df60008383613b1e565b6001600160a01b03821660009081526068602052604081208054600192906146089084906154e2565b909155505060008181526067602052604080822080546001600160a01b0319166001600160a01b03861690811790915590518392907fddf252ad1be2c89b69c2b068fc378daa952ba7f163c4a11628f55a4df523b3ef908290a45050565b61466f8161408c565b6040516001600160a01b038216907fbc7cd75a20ee27fd9adebab32041f755214dbc6bffa90cc0225b39da2e5c2d3b90600090a250565b60606001600160a01b0383163b61470e5760405162461bcd60e51b815260206004820152602660248201527f416464726573733a2064656c65676174652063616c6c20746f206e6f6e2d636f6044820152651b9d1c9858dd60d21b60648201526084016108b0565b600080846001600160a01b03168460405161472991906158ea565b600060405180830381855af49150503d8060008114614764576040519150601f19603f3d011682016040523d82523d6000602084013e614769565b606091505b5091509150611d798282604051806060016040528060278152602001615aa160279139614a1e565b6060816147b55750506040805180820190915260018152600360fc1b602082015290565b8160005b81156147df57806147c9816154fa565b91506147d89050600a83615a6c565b91506147b9565b6000816001600160401b038111156147f9576147f9614dd3565b6040519080825280601f01601f191660200182016040528015614823576020820181803683370190505b5090505b84156131c75761483860018361574e565b9150614845600a8661591c565b6148509060306154e2565b60f81b81838151811061486557614865615480565b60200101906001600160f81b031916908160001a905350614887600a86615a6c565b9450614827565b6000600161489b84611c8a565b6148a5919061574e565b6000838152609860205260409020549091508082146148f8576001600160a01b03841660009081526097602090815260408083208584528252808320548484528184208190558352609890915290208190555b5060009182526098602090815260408084208490556001600160a01b039094168352609781528383209183525290812055565b60995460009061493d9060019061574e565b6000838152609a60205260408120546099805493945090928490811061496557614965615480565b90600052602060002001549050806099838154811061498657614986615480565b6000918252602080832090910192909255828152609a909152604080822084905585825281205560998054806149be576149be6159fc565b6001900381819060005260206000200160009055905550505050565b60006149e583611c8a565b6001600160a01b039093166000908152609760209081526040808320868452825280832085905593825260989052919091209190915550565b60608315614a2d575081610a98565b825115614a3d5782518084602001fd5b8160405162461bcd60e51b81526004016108b09190614cec565b828054614a63906153fd565b90600052602060002090601f016020900481019282614a855760008555614acb565b82601f10614a9e57805160ff1916838001178555614acb565b82800160010185558215614acb579182015b82811115614acb578251825591602001919060010190614ab0565b50614ad7929150614c4c565b5090565b82805482825590600052602060002090601f01602090048101928215614acb5791602002820160005b83821115614b5057835183826101000a81548160ff02191690836003811115614b2f57614b2f61507d565b02179055509260200192600101602081600001049283019260010302614b04565b8015614b7d5782816101000a81549060ff0219169055600101602081600001049283019260010302614b50565b5050614ad7929150614c4c565b604080516101e081019091526000808252602082019081526020016000815260200160008152602001600081526020016000815260200160608152602001600060ff168152602001600060ff168152602001600060ff168152602001600060ff1681526020016060815260200160006001600160a01b0316815260200160608152602001600081525090565b508054614c22906153fd565b6000825580601f10614c32575050565b601f01602090049060005260206000209081019061170f91905b5b80821115614ad75760008155600101614c4d565b6001600160e01b03198116811461170f57600080fd5b600060208284031215614c8957600080fd5b8135610a9881614c61565b60005b83811015614caf578181015183820152602001614c97565b838111156122425750506000910152565b60008151808452614cd8816020860160208601614c94565b601f01601f19169290920160200192915050565b602081526000610a986020830184614cc0565b600060208284031215614d1157600080fd5b5035919050565b6001600160a01b038116811461170f57600080fd5b60008060408385031215614d4057600080fd5b8235614d4b81614d18565b946020939093013593505050565b600080600060608486031215614d6e57600080fd5b83359250602084013591506040840135614d8781614d18565b809150509250925092565b600080600060608486031215614da757600080fd5b8335614db281614d18565b92506020840135614dc281614d18565b929592945050506040919091013590565b634e487b7160e01b600052604160045260246000fd5b604051601f8201601f191681016001600160401b0381118282101715614e1157614e11614dd3565b604052919050565b60006001600160401b03821115614e3257614e32614dd3565b5060051b60200190565b600082601f830112614e4d57600080fd5b81356020614e62614e5d83614e19565b614de9565b82815260059290921b84018101918181019086841115614e8157600080fd5b8286015b84811015614e9c5780358352918301918301614e85565b509695505050505050565b600080600060608486031215614ebc57600080fd5b8335614ec781614d18565b925060208401356001600160401b03811115614ee257600080fd5b614eee86828701614e3c565b925050604084013590509250925092565b600060208284031215614f1157600080fd5b8135610a9881614d18565b6020808252825182820181905260009190848201906040850190845b81811015614f5457835183529284019291840191600101614f38565b50909695505050505050565b60006001600160401b03821115614f7957614f79614dd3565b50601f01601f191660200190565b600082601f830112614f9857600080fd5b8135614fa6614e5d82614f60565b818152846020838601011115614fbb57600080fd5b816020850160208301376000918101602001919091529392505050565b60008060408385031215614feb57600080fd5b8235614ff681614d18565b915060208301356001600160401b0381111561501157600080fd5b61501d85828601614f87565b9150509250929050565b60408152600061503a6040830185614cc0565b90508260208301529392505050565b60006020828403121561505b57600080fd5b81356001600160401b0381111561507157600080fd5b6131c784828501614e3c565b634e487b7160e01b600052602160045260246000fd5b6004811061170f57634e487b7160e01b600052602160045260246000fd5b6150ba81615093565b9052565b600081518084526020808501945080840160005b838110156150f75781516150e581615093565b875295820195908201906001016150d2565b509495945050505050565b600081518084526020808501808196508360051b8101915082860160005b8581101561524357828403895281516101e08151865286820151615146888801826150b1565b5060408281015190870152606080830151908701526080808301519087015260a0808301519087015260c08083015181880183905261518783890182614cc0565b9250505060e08083015161519f8289018260ff169052565b50506101008281015160ff9081169188019190915261012080840151821690880152610140808401519091169087015261016080830151878303828901526151e78382614cc0565b9250505061018080830151615206828901826001600160a01b03169052565b50506101a0808301518783038289015261522083826150be565b6101c0948501519890940197909752505098850198935090840190600101615120565b5091979650505050505050565b602081526000610a986020830184615102565b6000806040838503121561527657600080fd5b823561528181614d18565b91506020830135801515811461529657600080fd5b809150509250929050565b600080600080608085870312156152b757600080fd5b84356152c281614d18565b935060208501356152d281614d18565b92506040850135915060608501356001600160401b038111156152f457600080fd5b61530087828801614f87565b91505092959194509250565b60ff8116811461170f57600080fd5b6000806000806080858703121561533157600080fd5b8435935060208501356152d28161530c565b8281526040602082015260006131c76040830184615102565b6000806000806080858703121561537257600080fd5b8435935060208501356153848161530c565b925060408501356001600160401b03808211156153a057600080fd5b6153ac88838901614f87565b935060608701359150808211156153c257600080fd5b5061530087828801614f87565b600080604083850312156153e257600080fd5b82356153ed81614d18565b9150602083013561529681614d18565b600181811c9082168061541157607f821691505b6020821081141561344757634e487b7160e01b600052602260045260246000fd5b6020808252602e908201527f4552433732313a2063616c6c6572206973206e6f7420746f6b656e206f776e6560408201526d1c881b9bdc88185c1c1c9bdd995960921b606082015260800190565b634e487b7160e01b600052603260045260246000fd5b6000602082840312156154a857600080fd5b8151610a9881614d18565b6000602082840312156154c557600080fd5b5051919050565b634e487b7160e01b600052601160045260246000fd5b600082198211156154f5576154f56154cc565b500190565b600060001982141561550e5761550e6154cc565b5060010190565b600082601f83011261552657600080fd5b8151615534614e5d82614f60565b81815284602083860101111561554957600080fd5b6131c7826020830160208701614c94565b60008060006060848603121561556f57600080fd5b835161557a81614d18565b60208501519093506001600160401b0381111561559657600080fd5b6155a286828701615515565b925050604084015190509250925092565b6000602082840312156155c557600080fd5b8151610a988161530c565b600080600080600080600080610100898b0312156155ed57600080fd5b88516001600160401b038082111561560457600080fd5b6156108c838d01615515565b995060208b015191506156228261530c565b60408b01519198506156338261530c565b60608b01519197506156448261530c565b60808b01519196506156558261530c565b60a08b015160c08c015160e08d015193975090955093508082111561567957600080fd5b506156868b828c01615515565b9150509295985092959890939650565b600060ff821660ff8114156156ad576156ad6154cc565b60010192915050565b6020808252602c908201527f46756e6374696f6e206d7573742062652063616c6c6564207468726f7567682060408201526b19195b1959d85d1958d85b1b60a21b606082015260800190565b6020808252602c908201527f46756e6374696f6e206d7573742062652063616c6c6564207468726f7567682060408201526b6163746976652070726f787960a01b606082015260800190565b600082821015615760576157606154cc565b500390565b85815260ff8516602082015283604082015260a06060820152600061578d60a0830185614cc0565b905060018060a01b03831660808301529695505050505050565b600082601f8301126157b857600080fd5b815160206157c8614e5d83614e19565b82815260059290921b840181019181810190868411156157e757600080fd5b8286015b84811015614e9c57805183529183019183016157eb565b60008060006060848603121561581757600080fd5b83516001600160401b0381111561582d57600080fd5b615839868287016157a7565b93505060208401519150604084015190509250925092565b84815260ff8416602082015260a06040820152600760a0820152667a6f6d6269657360c81b60c082015260e06060820152600061589160e0830185614cc0565b82810360808401526158a38185614cc0565b979650505050505050565b600080604083850312156158c157600080fd5b8251915060208301516001600160401b038111156158de57600080fd5b61501d858286016157a7565b600082516158fc818460208701614c94565b9190910192915050565b634e487b7160e01b600052601260045260246000fd5b60008261592b5761592b615906565b500690565b60208082526032908201527f4552433732313a207472616e7366657220746f206e6f6e20455243373231526560408201527131b2b4bb32b91034b6b83632b6b2b73a32b960711b606082015260800190565b6020808252602b908201527f496e697469616c697a61626c653a20636f6e7472616374206973206e6f74206960408201526a6e697469616c697a696e6760a81b606082015260800190565b600083516159df818460208801614c94565b8351908301906159f3818360208801614c94565b01949350505050565b634e487b7160e01b600052603160045260246000fd5b6001600160a01b0385811682528416602082015260408101839052608060608201819052600090615a4590830184614cc0565b9695505050505050565b600060208284031215615a6157600080fd5b8151610a9881614c61565b600082615a7b57615a7b615906565b50049056fe360894a13ba1a3210667c828492db98dca3e2076cc3735a920a3ca505d382bbc416464726573733a206c6f772d6c6576656c2064656c65676174652063616c6c206661696c6564a26469706673582212208bb67e861c7ab4ad2b353ed92b2a42f7c0ebd1bd30a8091d11ee9250de36c60b64736f6c634300080c0033",
  "linkReferences": {},
  "deployedLinkReferences": {}
}