{
  "_format": "hh-sol-artifact-1",
  "contractName": "MainContract",
  "sourceName": "src/backend/contracts/Main.sol",
  "abi": [
    {
      "inputs": [],
      "stateMutability": "nonpayable",
      "type": "constructor"
    },
    {
      "inputs": [
        {
          "internalType": "address",
          "name": "have",
          "type": "address"
        },
        {
          "internalType": "address",
          "name": "want",
          "type": "address"
        }
      ],
      "name": "OnlyCoordinatorCanFulfill",
      "type": "error"
    },
    {
      "anonymous": false,
      "inputs": [
        {
          "indexed": false,
          "internalType": "address",
          "name": "previousAdmin",
          "type": "address"
        },
        {
          "indexed": false,
          "internalType": "address",
          "name": "newAdmin",
          "type": "address"
        }
      ],
      "name": "AdminChanged",
      "type": "event"
    },
    {
      "anonymous": false,
      "inputs": [
        {
          "indexed": true,
          "internalType": "address",
          "name": "beacon",
          "type": "address"
        }
      ],
      "name": "BeaconUpgraded",
      "type": "event"
    },
    {
      "anonymous": false,
      "inputs": [
        {
          "indexed": false,
          "internalType": "uint8",
          "name": "version",
          "type": "uint8"
        }
      ],
      "name": "Initialized",
      "type": "event"
    },
    {
      "anonymous": false,
      "inputs": [
        {
          "indexed": true,
          "internalType": "address",
          "name": "previousOwner",
          "type": "address"
        },
        {
          "indexed": true,
          "internalType": "address",
          "name": "newOwner",
          "type": "address"
        }
      ],
      "name": "OwnershipTransferred",
      "type": "event"
    },
    {
      "anonymous": false,
      "inputs": [
        {
          "indexed": true,
          "internalType": "address",
          "name": "implementation",
          "type": "address"
        }
      ],
      "name": "Upgraded",
      "type": "event"
    },
    {
      "inputs": [
        {
          "internalType": "uint256",
          "name": "_max",
          "type": "uint256"
        }
      ],
      "name": "checkRandomVRF",
      "outputs": [
        {
          "internalType": "uint256",
          "name": "",
          "type": "uint256"
        },
        {
          "internalType": "uint256",
          "name": "",
          "type": "uint256"
        }
      ],
      "stateMutability": "view",
      "type": "function"
    },
    {
      "inputs": [],
      "name": "getContractCollection",
      "outputs": [
        {
          "internalType": "address",
          "name": "",
          "type": "address"
        }
      ],
      "stateMutability": "view",
      "type": "function"
    },
    {
      "inputs": [],
      "name": "getContractLandNFT",
      "outputs": [
        {
          "internalType": "address",
          "name": "",
          "type": "address"
        }
      ],
      "stateMutability": "view",
      "type": "function"
    },
    {
      "inputs": [],
      "name": "getContractLandNFTHelper",
      "outputs": [
        {
          "internalType": "address",
          "name": "",
          "type": "address"
        }
      ],
      "stateMutability": "view",
      "type": "function"
    },
    {
      "inputs": [],
      "name": "getContractMarket",
      "outputs": [
        {
          "internalType": "address",
          "name": "",
          "type": "address"
        }
      ],
      "stateMutability": "view",
      "type": "function"
    },
    {
      "inputs": [],
      "name": "getContractMonsterNFT",
      "outputs": [
        {
          "internalType": "address",
          "name": "",
          "type": "address"
        }
      ],
      "stateMutability": "view",
      "type": "function"
    },
    {
      "inputs": [],
      "name": "getContractMonsterNFTHelper",
      "outputs": [
        {
          "internalType": "address",
          "name": "",
          "type": "address"
        }
      ],
      "stateMutability": "view",
      "type": "function"
    },
    {
      "inputs": [],
      "name": "getContractTokenFT",
      "outputs": [
        {
          "internalType": "address",
          "name": "",
          "type": "address"
        }
      ],
      "stateMutability": "view",
      "type": "function"
    },
    {
      "inputs": [],
      "name": "getContractZombieNFT",
      "outputs": [
        {
          "internalType": "address",
          "name": "",
          "type": "address"
        }
      ],
      "stateMutability": "view",
      "type": "function"
    },
    {
      "inputs": [],
      "name": "getContractZombieNFTHelper",
      "outputs": [
        {
          "internalType": "address",
          "name": "",
          "type": "address"
        }
      ],
      "stateMutability": "view",
      "type": "function"
    },
    {
      "inputs": [
        {
          "internalType": "uint256",
          "name": "_max",
          "type": "uint256"
        },
        {
          "internalType": "uint8",
          "name": "_shift",
          "type": "uint8"
        }
      ],
      "name": "getRandomVRF",
      "outputs": [
        {
          "internalType": "uint256",
          "name": "",
          "type": "uint256"
        }
      ],
      "stateMutability": "nonpayable",
      "type": "function"
    },
    {
      "inputs": [
        {
          "internalType": "address",
          "name": "_vrfCoordinator",
          "type": "address"
        },
        {
          "internalType": "bytes32",
          "name": "_keyHash",
          "type": "bytes32"
        }
      ],
      "name": "initialize",
      "outputs": [],
      "stateMutability": "nonpayable",
      "type": "function"
    },
    {
      "inputs": [],
      "name": "owner",
      "outputs": [
        {
          "internalType": "address",
          "name": "",
          "type": "address"
        }
      ],
      "stateMutability": "view",
      "type": "function"
    },
    {
      "inputs": [],
      "name": "proxiableUUID",
      "outputs": [
        {
          "internalType": "bytes32",
          "name": "",
          "type": "bytes32"
        }
      ],
      "stateMutability": "view",
      "type": "function"
    },
    {
      "inputs": [
        {
          "internalType": "uint256",
          "name": "",
          "type": "uint256"
        }
      ],
      "name": "randomWords",
      "outputs": [
        {
          "internalType": "uint256",
          "name": "",
          "type": "uint256"
        }
      ],
      "stateMutability": "view",
      "type": "function"
    },
    {
      "inputs": [],
      "name": "randomWordsCount",
      "outputs": [
        {
          "internalType": "uint256",
          "name": "",
          "type": "uint256"
        }
      ],
      "stateMutability": "view",
      "type": "function"
    },
    {
      "inputs": [
        {
          "internalType": "uint256",
          "name": "requestId",
          "type": "uint256"
        },
        {
          "internalType": "uint256[]",
          "name": "randomWords",
          "type": "uint256[]"
        }
      ],
      "name": "rawFulfillRandomWords",
      "outputs": [],
      "stateMutability": "nonpayable",
      "type": "function"
    },
    {
      "inputs": [],
      "name": "renounceOwnership",
      "outputs": [],
      "stateMutability": "nonpayable",
      "type": "function"
    },
    {
      "inputs": [],
      "name": "requestRandomWords",
      "outputs": [
        {
          "internalType": "uint256",
          "name": "",
          "type": "uint256"
        }
      ],
      "stateMutability": "nonpayable",
      "type": "function"
    },
    {
      "inputs": [
        {
          "internalType": "address",
          "name": "_account",
          "type": "address"
        },
        {
          "internalType": "uint256",
          "name": "_amount",
          "type": "uint256"
        }
      ],
      "name": "transferOnKill",
      "outputs": [],
      "stateMutability": "nonpayable",
      "type": "function"
    },
    {
      "inputs": [
        {
          "internalType": "address",
          "name": "newOwner",
          "type": "address"
        }
      ],
      "name": "transferOwnership",
      "outputs": [],
      "stateMutability": "nonpayable",
      "type": "function"
    },
    {
      "inputs": [
        {
          "internalType": "uint64",
          "name": "_subscriptionId",
          "type": "uint64"
        }
      ],
      "name": "updateChainlinkSubscriptionVRF",
      "outputs": [],
      "stateMutability": "nonpayable",
      "type": "function"
    },
    {
      "inputs": [
        {
          "internalType": "address",
          "name": "_landNFT",
          "type": "address"
        },
        {
          "internalType": "address",
          "name": "_landNFTHelper",
          "type": "address"
        },
        {
          "internalType": "address",
          "name": "_zombieNFT",
          "type": "address"
        },
        {
          "internalType": "address",
          "name": "_zombieNFTHelper",
          "type": "address"
        },
        {
          "internalType": "address",
          "name": "_monsterNFT",
          "type": "address"
        },
        {
          "internalType": "address",
          "name": "_monsterNFTHelper",
          "type": "address"
        },
        {
          "internalType": "address",
          "name": "_tokenFT",
          "type": "address"
        },
        {
          "internalType": "address",
          "name": "_collection",
          "type": "address"
        },
        {
          "internalType": "address",
          "name": "_market",
          "type": "address"
        }
      ],
      "name": "updateContractAddress",
      "outputs": [],
      "stateMutability": "nonpayable",
      "type": "function"
    },
    {
      "inputs": [
        {
          "internalType": "address",
          "name": "newImplementation",
          "type": "address"
        }
      ],
      "name": "upgradeTo",
      "outputs": [],
      "stateMutability": "nonpayable",
      "type": "function"
    },
    {
      "inputs": [
        {
          "internalType": "address",
          "name": "newImplementation",
          "type": "address"
        },
        {
          "internalType": "bytes",
          "name": "data",
          "type": "bytes"
        }
      ],
      "name": "upgradeToAndCall",
      "outputs": [],
      "stateMutability": "payable",
      "type": "function"
    }
  ],
  "bytecode": "0x60a06040523060805234801561001457600080fd5b5061001d610022565b6100e2565b600054610100900460ff161561008e5760405162461bcd60e51b815260206004820152602760248201527f496e697469616c697a61626c653a20636f6e747261637420697320696e697469604482015266616c697a696e6760c81b606482015260840160405180910390fd5b60005460ff90811610156100e0576000805460ff191660ff9081179091556040519081527f7f26b83ff96e1f2b6a682f133852f6798a09c465da95921460cefb38474024989060200160405180910390a15b565b6080516118a7610119600039600081816104db0152818161051b015281816106a6015281816106e6015261077501526118a76000f3fe6080604052600436106101665760003560e01c806398110170116100d1578063beff730f1161008a578063e0c8628911610064578063e0c862891461040c578063f095821f14610421578063f2fde38b1461043f578063f34b899d1461045f57600080fd5b8063beff730f146103ae578063c189779e146103ce578063c7842629146103ee57600080fd5b806398110170146102fe578063afc297cb1461031c578063b53720c51461033a578063b8fe254414610358578063bb37ee1c14610378578063be13f47c1461038e57600080fd5b806353d09e251161012357806353d09e251461023a5780635bbb504b14610258578063715018a6146102785780637641ed661461028d5780638da5cb5b146102ab578063911b687c146102c957600080fd5b80631fe543e31461016b5780633659cfe61461018d57806342104fac146101ad5780634b45011a146101e45780634f1ef2861461020457806352d1902d14610217575b600080fd5b34801561017757600080fd5b5061018b610186366004611321565b61047d565b005b34801561019957600080fd5b5061018b6101a83660046113ef565b6104d0565b3480156101b957600080fd5b5060ce546001600160a01b03165b6040516001600160a01b0390911681526020015b60405180910390f35b3480156101f057600080fd5b5061018b6101ff36600461140a565b6105b0565b61018b610212366004611434565b61069b565b34801561022357600080fd5b5061022c610768565b6040519081526020016101db565b34801561024657600080fd5b5060cc546001600160a01b03166101c7565b34801561026457600080fd5b5061022c6102733660046114da565b61081b565b34801561028457600080fd5b5061018b61094f565b34801561029957600080fd5b5060d0546001600160a01b03166101c7565b3480156102b757600080fd5b506033546001600160a01b03166101c7565b3480156102d557600080fd5b506102e96102e4366004611510565b610963565b604080519283526020830191909152016101db565b34801561030a57600080fd5b5060d2546001600160a01b03166101c7565b34801561032857600080fd5b5060cb546001600160a01b03166101c7565b34801561034657600080fd5b5060cd546001600160a01b03166101c7565b34801561036457600080fd5b5061018b610373366004611529565b61099f565b34801561038457600080fd5b5061022c60d95481565b34801561039a57600080fd5b5061018b6103a936600461140a565b6109d5565b3480156103ba57600080fd5b5061022c6103c9366004611510565b610b34565b3480156103da57600080fd5b5061018b6103e9366004611553565b610b55565b3480156103fa57600080fd5b5060d1546001600160a01b03166101c7565b34801561041857600080fd5b5061022c610bfa565b34801561042d57600080fd5b5060cf546001600160a01b03166101c7565b34801561044b57600080fd5b5061018b61045a3660046113ef565b610cc0565b34801561046b57600080fd5b5060d3546001600160a01b03166101c7565b60ca546001600160a01b031633146104c25760ca5460405163073e64fd60e21b81523360048201526001600160a01b0390911660248201526044015b60405180910390fd5b6104cc8282610d36565b5050565b306001600160a01b037f00000000000000000000000000000000000000000000000000000000000000001614156105195760405162461bcd60e51b81526004016104b9906115fb565b7f00000000000000000000000000000000000000000000000000000000000000006001600160a01b031661056260008051602061182b833981519152546001600160a01b031690565b6001600160a01b0316146105885760405162461bcd60e51b81526004016104b990611647565b61059181610d90565b604080516000808252602082019092526105ad91839190610d98565b50565b60cd546001600160a01b03163314806105d3575060cf546001600160a01b031633145b61061f5760405162461bcd60e51b815260206004820152601a60248201527f596f752063616e27742063616c6c2074686973206d6574686f6400000000000060448201526064016104b9565b60d15460405163a9059cbb60e01b81526001600160a01b038481166004830152602482018490529091169063a9059cbb906044016020604051808303816000875af1158015610672573d6000803e3d6000fd5b505050506040513d601f19601f820116820180604052508101906106969190611693565b505050565b306001600160a01b037f00000000000000000000000000000000000000000000000000000000000000001614156106e45760405162461bcd60e51b81526004016104b9906115fb565b7f00000000000000000000000000000000000000000000000000000000000000006001600160a01b031661072d60008051602061182b833981519152546001600160a01b031690565b6001600160a01b0316146107535760405162461bcd60e51b81526004016104b990611647565b61075c82610d90565b6104cc82826001610d98565b6000306001600160a01b037f000000000000000000000000000000000000000000000000000000000000000016146108085760405162461bcd60e51b815260206004820152603860248201527f555550535570677261646561626c653a206d757374206e6f742062652063616c60448201527f6c6564207468726f7567682064656c656761746563616c6c000000000000000060648201526084016104b9565b5060008051602061182b83398151915290565b60d8546000908190156108db57600060d860008154811061083e5761083e6116b5565b90600052602060002001549050848161085791906116cb565b60d880549193509061086b90600190611703565b8154811061087b5761087b6116b5565b906000526020600020015460d860008154811061089a5761089a6116b5565b60009182526020909120015560d88054806108b7576108b761171a565b6000828152602081208201600019908101919091550190555060d85460d955610948565b6040516001600160f81b031960f885901b1660208201526bffffffffffffffffffffffff193360601b1660218201524460358201524260558201526001607582015284906095016040516020818303038152906040528051906020012060001c61094591906116cb565b90505b9392505050565b610957610f03565b6109616000610f5d565b565b600080600060d860008154811061097c5761097c6116b5565b6000918252602082200154915061099385836116cb565b91959194509092505050565b6109a7610f03565b60d4805467ffffffffffffffff909216600160a01b0267ffffffffffffffff60a01b19909216919091179055565b600054610100900460ff16158080156109f55750600054600160ff909116105b80610a0f5750303b158015610a0f575060005460ff166001145b610a725760405162461bcd60e51b815260206004820152602e60248201527f496e697469616c697a61626c653a20636f6e747261637420697320616c72656160448201526d191e481a5b9a5d1a585b1a5e995960921b60648201526084016104b9565b6000805460ff191660011790558015610a95576000805461ff0019166101001790555b610a9d610faf565b610aa5610fde565b610aae83611005565b60d480546001600160a01b0319166001600160a01b03851617905560d682905560d7805469ffffffffffffffffffff1916660a00030000c3501790558015610696576000805461ff0019169055604051600181527f7f26b83ff96e1f2b6a682f133852f6798a09c465da95921460cefb38474024989060200160405180910390a1505050565b60d88181548110610b4457600080fd5b600091825260209091200154905081565b610b5d610f03565b60cb80546001600160a01b03199081166001600160a01b039b8c161790915560cc80548216998b169990991790985560cd80548916978a169790971790965560ce805488169589169590951790945560cf805487169388169390931790925560d08054861691871691909117905560d18054851691861691909117905560d28054841691851691909117905560d380549092169216919091179055565b60d45460d65460d7546040516305d3b1d360e41b81526004810192909252600160a01b830467ffffffffffffffff166024830152640100000000810461ffff16604483015263ffffffff8082166064840152660100000000000090910416608482015260009182916001600160a01b0390911690635d3b1d309060a4016020604051808303816000875af1158015610c96573d6000803e3d6000fd5b505050506040513d601f19601f82011682018060405250810190610cba9190611730565b92915050565b610cc8610f03565b6001600160a01b038116610d2d5760405162461bcd60e51b815260206004820152602660248201527f4f776e61626c653a206e6577206f776e657220697320746865207a65726f206160448201526564647265737360d01b60648201526084016104b9565b6105ad81610f5d565b60005b8151811015610d855760d8828281518110610d5657610d566116b5565b60209081029190910181015182546001810184556000938452919092200155610d7e81611749565b9050610d39565b505060d85460d95550565b6105ad610f03565b7f4910fdfa16fed3260ed0e7147f7cc6da11a60208b5b9406d12a635614ffd91435460ff1615610dcb5761069683611076565b826001600160a01b03166352d1902d6040518163ffffffff1660e01b8152600401602060405180830381865afa925050508015610e25575060408051601f3d908101601f19168201909252610e2291810190611730565b60015b610e885760405162461bcd60e51b815260206004820152602e60248201527f45524331393637557067726164653a206e657720696d706c656d656e7461746960448201526d6f6e206973206e6f74205555505360901b60648201526084016104b9565b60008051602061182b8339815191528114610ef75760405162461bcd60e51b815260206004820152602960248201527f45524331393637557067726164653a20756e737570706f727465642070726f786044820152681a58589b195555525160ba1b60648201526084016104b9565b50610696838383611112565b6033546001600160a01b031633146109615760405162461bcd60e51b815260206004820181905260248201527f4f776e61626c653a2063616c6c6572206973206e6f7420746865206f776e657260448201526064016104b9565b603380546001600160a01b038381166001600160a01b0319831681179093556040519116919082907f8be0079c531659141344cd1fd0a4f28419497f9722a3daafe3b4186f6b6457e090600090a35050565b600054610100900460ff16610fd65760405162461bcd60e51b81526004016104b990611764565b61096161113d565b600054610100900460ff166109615760405162461bcd60e51b81526004016104b990611764565b60ca546001600160a01b0316156110545760405162461bcd60e51b8152602060048201526013602482015272105b1c9958591e481a5b9a5d1a585b1a5e9959606a1b60448201526064016104b9565b60ca80546001600160a01b0319166001600160a01b0392909216919091179055565b6001600160a01b0381163b6110e35760405162461bcd60e51b815260206004820152602d60248201527f455243313936373a206e657720696d706c656d656e746174696f6e206973206e60448201526c1bdd08184818dbdb9d1c9858dd609a1b60648201526084016104b9565b60008051602061182b83398151915280546001600160a01b0319166001600160a01b0392909216919091179055565b61111b8361116d565b6000825111806111285750805b156106965761113783836111ad565b50505050565b600054610100900460ff166111645760405162461bcd60e51b81526004016104b990611764565b61096133610f5d565b61117681611076565b6040516001600160a01b038216907fbc7cd75a20ee27fd9adebab32041f755214dbc6bffa90cc0225b39da2e5c2d3b90600090a250565b60606001600160a01b0383163b6112155760405162461bcd60e51b815260206004820152602660248201527f416464726573733a2064656c65676174652063616c6c20746f206e6f6e2d636f6044820152651b9d1c9858dd60d21b60648201526084016104b9565b600080846001600160a01b03168460405161123091906117db565b600060405180830381855af49150503d806000811461126b576040519150601f19603f3d011682016040523d82523d6000602084013e611270565b606091505b5091509150611298828260405180606001604052806027815260200161184b602791396112a1565b95945050505050565b606083156112b0575081610948565b8251156112c05782518084602001fd5b8160405162461bcd60e51b81526004016104b991906117f7565b634e487b7160e01b600052604160045260246000fd5b604051601f8201601f1916810167ffffffffffffffff81118282101715611319576113196112da565b604052919050565b6000806040838503121561133457600080fd5b8235915060208084013567ffffffffffffffff8082111561135457600080fd5b818601915086601f83011261136857600080fd5b81358181111561137a5761137a6112da565b8060051b915061138b8483016112f0565b81815291830184019184810190898411156113a557600080fd5b938501935b838510156113c3578435825293850193908501906113aa565b8096505050505050509250929050565b80356001600160a01b03811681146113ea57600080fd5b919050565b60006020828403121561140157600080fd5b610948826113d3565b6000806040838503121561141d57600080fd5b611426836113d3565b946020939093013593505050565b6000806040838503121561144757600080fd5b611450836113d3565b915060208084013567ffffffffffffffff8082111561146e57600080fd5b818601915086601f83011261148257600080fd5b813581811115611494576114946112da565b6114a6601f8201601f191685016112f0565b915080825287848285010111156114bc57600080fd5b80848401858401376000848284010152508093505050509250929050565b600080604083850312156114ed57600080fd5b82359150602083013560ff8116811461150557600080fd5b809150509250929050565b60006020828403121561152257600080fd5b5035919050565b60006020828403121561153b57600080fd5b813567ffffffffffffffff8116811461094857600080fd5b60008060008060008060008060006101208a8c03121561157257600080fd5b61157b8a6113d3565b985061158960208b016113d3565b975061159760408b016113d3565b96506115a560608b016113d3565b95506115b360808b016113d3565b94506115c160a08b016113d3565b93506115cf60c08b016113d3565b92506115dd60e08b016113d3565b91506115ec6101008b016113d3565b90509295985092959850929598565b6020808252602c908201527f46756e6374696f6e206d7573742062652063616c6c6564207468726f7567682060408201526b19195b1959d85d1958d85b1b60a21b606082015260800190565b6020808252602c908201527f46756e6374696f6e206d7573742062652063616c6c6564207468726f7567682060408201526b6163746976652070726f787960a01b606082015260800190565b6000602082840312156116a557600080fd5b8151801515811461094857600080fd5b634e487b7160e01b600052603260045260246000fd5b6000826116e857634e487b7160e01b600052601260045260246000fd5b500690565b634e487b7160e01b600052601160045260246000fd5b600082821015611715576117156116ed565b500390565b634e487b7160e01b600052603160045260246000fd5b60006020828403121561174257600080fd5b5051919050565b600060001982141561175d5761175d6116ed565b5060010190565b6020808252602b908201527f496e697469616c697a61626c653a20636f6e7472616374206973206e6f74206960408201526a6e697469616c697a696e6760a81b606082015260800190565b60005b838110156117ca5781810151838201526020016117b2565b838111156111375750506000910152565b600082516117ed8184602087016117af565b9190910192915050565b60208152600082518060208401526118168160408501602087016117af565b601f01601f1916919091016040019291505056fe360894a13ba1a3210667c828492db98dca3e2076cc3735a920a3ca505d382bbc416464726573733a206c6f772d6c6576656c2064656c65676174652063616c6c206661696c6564a26469706673582212205e8a0b1c2c728caf51e6a03e2a7fc06109545218ef42731f365dc5df61e72d1864736f6c634300080c0033",
  "linkReferences": {},
  "deployedLinkReferences": {}
}