{
  "_format": "hh-sol-artifact-1",
  "contractName": "MarketContract",
  "sourceName": "src/backend/contracts/Market.sol",
  "abi": [
    {
      "inputs": [],
      "stateMutability": "nonpayable",
      "type": "constructor"
    },
    {
      "inputs": [
        {
          "internalType": "string",
          "name": "message",
          "type": "string"
        }
      ],
      "name": "MarketError",
      "type": "error"
    },
    {
      "anonymous": false,
      "inputs": [
        {
          "indexed": false,
          "internalType": "address",
          "name": "previousAdmin",
          "type": "address"
        },
        {
          "indexed": false,
          "internalType": "address",
          "name": "newAdmin",
          "type": "address"
        }
      ],
      "name": "AdminChanged",
      "type": "event"
    },
    {
      "anonymous": false,
      "inputs": [
        {
          "indexed": true,
          "internalType": "address",
          "name": "beacon",
          "type": "address"
        }
      ],
      "name": "BeaconUpgraded",
      "type": "event"
    },
    {
      "anonymous": false,
      "inputs": [
        {
          "indexed": false,
          "internalType": "uint8",
          "name": "version",
          "type": "uint8"
        }
      ],
      "name": "Initialized",
      "type": "event"
    },
    {
      "anonymous": false,
      "inputs": [
        {
          "indexed": true,
          "internalType": "address",
          "name": "previousOwner",
          "type": "address"
        },
        {
          "indexed": true,
          "internalType": "address",
          "name": "newOwner",
          "type": "address"
        }
      ],
      "name": "OwnershipTransferred",
      "type": "event"
    },
    {
      "anonymous": false,
      "inputs": [
        {
          "indexed": true,
          "internalType": "address",
          "name": "implementation",
          "type": "address"
        }
      ],
      "name": "Upgraded",
      "type": "event"
    },
    {
      "inputs": [],
      "name": "HISTORY_LIMIT",
      "outputs": [
        {
          "internalType": "uint256",
          "name": "",
          "type": "uint256"
        }
      ],
      "stateMutability": "view",
      "type": "function"
    },
    {
      "inputs": [],
      "name": "ITEMS_LIMIT",
      "outputs": [
        {
          "internalType": "uint256",
          "name": "",
          "type": "uint256"
        }
      ],
      "stateMutability": "view",
      "type": "function"
    },
    {
      "inputs": [
        {
          "internalType": "uint256",
          "name": "_tokenId",
          "type": "uint256"
        },
        {
          "internalType": "string",
          "name": "_typeNFT",
          "type": "string"
        }
      ],
      "name": "buyNFT",
      "outputs": [],
      "stateMutability": "payable",
      "type": "function"
    },
    {
      "inputs": [
        {
          "internalType": "string",
          "name": "",
          "type": "string"
        }
      ],
      "name": "currentSaleIndex",
      "outputs": [
        {
          "internalType": "uint256",
          "name": "",
          "type": "uint256"
        }
      ],
      "stateMutability": "view",
      "type": "function"
    },
    {
      "inputs": [
        {
          "internalType": "uint256",
          "name": "_startIndex",
          "type": "uint256"
        },
        {
          "internalType": "uint8",
          "name": "_count",
          "type": "uint8"
        },
        {
          "internalType": "string",
          "name": "_filterLandType",
          "type": "string"
        }
      ],
      "name": "getLandsFromMarket",
      "outputs": [
        {
          "internalType": "uint256",
          "name": "",
          "type": "uint256"
        },
        {
          "internalType": "uint256[]",
          "name": "",
          "type": "uint256[]"
        }
      ],
      "stateMutability": "view",
      "type": "function"
    },
    {
      "inputs": [],
      "name": "getSaleHistory",
      "outputs": [
        {
          "internalType": "uint256",
          "name": "",
          "type": "uint256"
        },
        {
          "components": [
            {
              "internalType": "address",
              "name": "fromUser",
              "type": "address"
            },
            {
              "internalType": "address",
              "name": "toUser",
              "type": "address"
            },
            {
              "internalType": "string",
              "name": "nftType",
              "type": "string"
            },
            {
              "internalType": "uint256",
              "name": "price",
              "type": "uint256"
            },
            {
              "internalType": "uint256",
              "name": "tokenId",
              "type": "uint256"
            },
            {
              "internalType": "uint256",
              "name": "timestamp",
              "type": "uint256"
            }
          ],
          "internalType": "struct MarketContract.HistoryItem[]",
          "name": "",
          "type": "tuple[]"
        }
      ],
      "stateMutability": "view",
      "type": "function"
    },
    {
      "inputs": [
        {
          "internalType": "uint256",
          "name": "_startIndex",
          "type": "uint256"
        },
        {
          "internalType": "uint8",
          "name": "_count",
          "type": "uint8"
        },
        {
          "internalType": "string",
          "name": "_nftType",
          "type": "string"
        },
        {
          "internalType": "string",
          "name": "_filterRarity",
          "type": "string"
        },
        {
          "internalType": "string",
          "name": "_filterCollection",
          "type": "string"
        }
      ],
      "name": "getZombiesMonstersFromMarket",
      "outputs": [
        {
          "internalType": "uint256",
          "name": "",
          "type": "uint256"
        },
        {
          "internalType": "uint256[]",
          "name": "",
          "type": "uint256[]"
        }
      ],
      "stateMutability": "view",
      "type": "function"
    },
    {
      "inputs": [
        {
          "internalType": "address",
          "name": "_mainContract",
          "type": "address"
        }
      ],
      "name": "initialize",
      "outputs": [],
      "stateMutability": "nonpayable",
      "type": "function"
    },
    {
      "inputs": [
        {
          "internalType": "uint256",
          "name": "",
          "type": "uint256"
        }
      ],
      "name": "marketHistory",
      "outputs": [
        {
          "internalType": "address",
          "name": "fromUser",
          "type": "address"
        },
        {
          "internalType": "address",
          "name": "toUser",
          "type": "address"
        },
        {
          "internalType": "string",
          "name": "nftType",
          "type": "string"
        },
        {
          "internalType": "uint256",
          "name": "price",
          "type": "uint256"
        },
        {
          "internalType": "uint256",
          "name": "tokenId",
          "type": "uint256"
        },
        {
          "internalType": "uint256",
          "name": "timestamp",
          "type": "uint256"
        }
      ],
      "stateMutability": "view",
      "type": "function"
    },
    {
      "inputs": [],
      "name": "owner",
      "outputs": [
        {
          "internalType": "address",
          "name": "",
          "type": "address"
        }
      ],
      "stateMutability": "view",
      "type": "function"
    },
    {
      "inputs": [],
      "name": "proxiableUUID",
      "outputs": [
        {
          "internalType": "bytes32",
          "name": "",
          "type": "bytes32"
        }
      ],
      "stateMutability": "view",
      "type": "function"
    },
    {
      "inputs": [
        {
          "internalType": "uint256[]",
          "name": "_idList",
          "type": "uint256[]"
        },
        {
          "internalType": "uint256[]",
          "name": "_priceList",
          "type": "uint256[]"
        },
        {
          "internalType": "string",
          "name": "_typeNFT",
          "type": "string"
        }
      ],
      "name": "publishOnMarket",
      "outputs": [],
      "stateMutability": "nonpayable",
      "type": "function"
    },
    {
      "inputs": [
        {
          "internalType": "uint256",
          "name": "_tokenId",
          "type": "uint256"
        },
        {
          "internalType": "string",
          "name": "_typeNFT",
          "type": "string"
        }
      ],
      "name": "removeFromMarket",
      "outputs": [],
      "stateMutability": "nonpayable",
      "type": "function"
    },
    {
      "inputs": [
        {
          "internalType": "uint256",
          "name": "_tokenId",
          "type": "uint256"
        },
        {
          "internalType": "string",
          "name": "_typeNFT",
          "type": "string"
        }
      ],
      "name": "removeFromMarketExternal",
      "outputs": [],
      "stateMutability": "nonpayable",
      "type": "function"
    },
    {
      "inputs": [],
      "name": "renounceOwnership",
      "outputs": [],
      "stateMutability": "nonpayable",
      "type": "function"
    },
    {
      "inputs": [
        {
          "internalType": "address",
          "name": "newOwner",
          "type": "address"
        }
      ],
      "name": "transferOwnership",
      "outputs": [],
      "stateMutability": "nonpayable",
      "type": "function"
    },
    {
      "inputs": [
        {
          "internalType": "address",
          "name": "newImplementation",
          "type": "address"
        }
      ],
      "name": "upgradeTo",
      "outputs": [],
      "stateMutability": "nonpayable",
      "type": "function"
    },
    {
      "inputs": [
        {
          "internalType": "address",
          "name": "newImplementation",
          "type": "address"
        },
        {
          "internalType": "bytes",
          "name": "data",
          "type": "bytes"
        }
      ],
      "name": "upgradeToAndCall",
      "outputs": [],
      "stateMutability": "payable",
      "type": "function"
    }
  ],
  "bytecode": "0x60a0604052306080523480156200001557600080fd5b506200002062000026565b620000e8565b600054610100900460ff1615620000935760405162461bcd60e51b815260206004820152602760248201527f496e697469616c697a61626c653a20636f6e747261637420697320696e697469604482015266616c697a696e6760c81b606482015260840160405180910390fd5b60005460ff9081161015620000e6576000805460ff191660ff9081179091556040519081527f7f26b83ff96e1f2b6a682f133852f6798a09c465da95921460cefb38474024989060200160405180910390a15b565b6080516133de6200012060003960008181610a8c01528181610acc01528181610b6c01528181610bac0152610c3f01526133de6000f3fe6080604052600436106101095760003560e01c80637620f62511610095578063c4d66de811610064578063c4d66de8146102af578063d6eb4df4146102cf578063f18021c2146102ef578063f2fde38b14610321578063fa95df8d1461034157600080fd5b80637620f6251461022e5780638697ea7c1461024e5780638da5cb5b14610264578063a4fa49e01461028c57600080fd5b80633659cfe6116100dc5780633659cfe6146101bc5780633c7dc863146101dc5780634f1ef286146101f157806352d1902d14610204578063715018a61461021957600080fd5b80630854748a1461010e5780631342c94514610123578063278d453c1461016e57806329458db61461019c575b600080fd5b61012161011c366004612ba9565b610361565b005b34801561012f57600080fd5b5061015b61013e366004612bef565b805160208183018101805160cf8252928201919093012091525481565b6040519081526020015b60405180910390f35b34801561017a57600080fd5b5061018e610189366004612c39565b6107ee565b604051610165929190612cdb565b3480156101a857600080fd5b506101216101b7366004612ba9565b6109ce565b3480156101c857600080fd5b506101216101d7366004612d3e565b610a81565b3480156101e857600080fd5b5061015b603281565b6101216101ff366004612d5b565b610b61565b34801561021057600080fd5b5061015b610c32565b34801561022557600080fd5b50610121610ce5565b34801561023a57600080fd5b5061018e610249366004612db4565b610cf9565b34801561025a57600080fd5b5061015b6101f481565b34801561027057600080fd5b506097546040516001600160a01b039091168152602001610165565b34801561029857600080fd5b506102a161100a565b604051610165929190612e62565b3480156102bb57600080fd5b506101216102ca366004612d3e565b6111bb565b3480156102db57600080fd5b506101216102ea366004612f5a565b611366565b3480156102fb57600080fd5b5061030f61030a366004612fd3565b611887565b60405161016596959493929190612fec565b34801561032d57600080fd5b5061012161033c366004612d3e565b611951565b34801561034d57600080fd5b5061012161035c366004612ba9565b6119c7565b60008061038a83604051806040016040528060048152602001631b185b9960e21b815250611bf7565b156104115760ca915060c960009054906101000a90046001600160a01b03166001600160a01b031663afc297cb6040518163ffffffff1660e01b8152600401602060405180830381865afa1580156103e6573d6000803e3d6000fd5b505050506040513d601f19601f8201168201806040525081019061040a9190613036565b905061055e565b61043983604051806040016040528060068152602001657a6f6d62696560d01b815250611bf7565b156104955760cb915060c960009054906101000a90046001600160a01b03166001600160a01b031663b53720c56040518163ffffffff1660e01b8152600401602060405180830381865afa1580156103e6573d6000803e3d6000fd5b6104be836040518060400160405280600781526020016636b7b739ba32b960c91b815250611bf7565b1561051a5760cc915060c960009054906101000a90046001600160a01b03166001600160a01b031663f095821f6040518163ffffffff1660e01b8152600401602060405180830381865afa1580156103e6573d6000803e3d6000fd5b604051637bfeaddb60e11b815260206004820152601360248201527257726f6e6720747970654e465420706172616d60681b60448201526064015b60405180910390fd5b6040516321466eb560e01b8152600481018590523460248201523360448201526000906001600160a01b038316906321466eb5906064016020604051808303816000875af11580156105b4573d6000803e3d6000fd5b505050506040513d601f19601f820116820180604052508101906105d89190613036565b905060006105e86103e83461307f565b6105f3906005613093565b6105fd90346130b2565b6040519091506001600160a01b0383169082156108fc029083906000818181858888f19350505050158015610636573d6000803e3d6000fd5b506000806106938680548060200260200160405190810160405280929190818152602001828054801561068857602002820191906000526020600020905b815481526020019060010190808311610674575b505050505089611c0d565b91509150801561070f57855486906106ad906001906130b2565b815481106106bd576106bd6130c9565b90600052602060002001548683815481106106da576106da6130c9565b9060005260206000200181905550858054806106f8576106f86130df565b600190038181906000526020600020016000905590555b6040805160c0810182526001600160a01b0380871682523360208084019182528385018c8152346060860152608085018e90524260a086015260cd54600090815260ce835295909520845181549085166001600160a01b03199182161782559251600182018054919095169316929092179092559251805192939261079a9260028501920190612a45565b50606082015181600301556080820151816004015560a08201518160050155905050600160cd60008282546107cf91906130f5565b909155505060cd546032116107e457600060cd555b5050505050505050565b60006060600061081d86604051806040016040528060078152602001667a6f6d6269657360c81b815250611bf7565b6108285760cc61082b565b60cb5b905060008760ff166001600160401b0381111561084a5761084a612ade565b604051908082528060200260200182016040528015610873578160200160208202803683370190505b50905060008083805490506001600160401b0381111561089557610895612ade565b6040519080825280602002602001820160405280156108be578160200160208202803683370190505b509050875160001415806108d25750865115155b156108ed576108e3848a8a8a611c6d565b9092509050610941565b83546040805160208084028201810190925282815291869183018282801561093457602002820191906000526020600020905b815481526020019060010190808311610920575b5050875495509293505050505b60008061095160ff8d168e6130f5565b90508c5b818110156109ba57808511156109aa57838181518110610977576109776130c9565b6020026020010151868481518110610991576109916130c9565b60209081029190910101526109a76001846130f5565b92505b6109b38161310d565b9050610955565b50929c939b50929950505050505050505050565b6109d661202c565b60006109fe82604051806040016040528060048152602001631b185b9960e21b815250611bf7565b15610a0b575060ca610a72565b610a3382604051806040016040528060068152602001657a6f6d62696560d01b815250611bf7565b15610a40575060cb610a72565b610a69826040518060400160405280600781526020016636b7b739ba32b960c91b815250611bf7565b1561051a575060cc5b610a7c8382612210565b505050565b306001600160a01b037f0000000000000000000000000000000000000000000000000000000000000000161415610aca5760405162461bcd60e51b815260040161055590613128565b7f00000000000000000000000000000000000000000000000000000000000000006001600160a01b0316610b13600080516020613362833981519152546001600160a01b031690565b6001600160a01b031614610b395760405162461bcd60e51b815260040161055590613174565b610b42816122ed565b60408051600080825260208201909252610b5e918391906122f5565b50565b306001600160a01b037f0000000000000000000000000000000000000000000000000000000000000000161415610baa5760405162461bcd60e51b815260040161055590613128565b7f00000000000000000000000000000000000000000000000000000000000000006001600160a01b0316610bf3600080516020613362833981519152546001600160a01b031690565b6001600160a01b031614610c195760405162461bcd60e51b815260040161055590613174565b610c22826122ed565b610c2e828260016122f5565b5050565b6000306001600160a01b037f00000000000000000000000000000000000000000000000000000000000000001614610cd25760405162461bcd60e51b815260206004820152603860248201527f555550535570677261646561626c653a206d757374206e6f742062652063616c60448201527f6c6564207468726f7567682064656c656761746563616c6c00000000000000006064820152608401610555565b5060008051602061336283398151915290565b610ced612460565b610cf760006124ba565b565b60006060600060ca805490506001600160401b03811115610d1c57610d1c612ade565b604051908082528060200260200182016040528015610d45578160200160208202803683370190505b50905060008560ff166001600160401b03811115610d6557610d65612ade565b604051908082528060200260200182016040528015610d8e578160200160208202803683370190505b5090506000855160001415610dfd5760ca805480602002602001604051908101604052809291908181526020018280548015610de957602002820191906000526020600020905b815481526020019060010190808311610dd5575b5050505050925060ca805490509050610f80565b60c9546040805163afc297cb60e01b815290516000926001600160a01b03169163afc297cb9160048083019260209291908290030181865afa158015610e47573d6000803e3d6000fd5b505050506040513d601f19601f82011682018060405250810190610e6b9190613036565b60ca549091506000805b82811015610f7a576000846001600160a01b03166359cc3cb860ca8481548110610ea157610ea16130c9565b90600052602060002001546040518263ffffffff1660e01b8152600401610eca91815260200190565b600060405180830381865afa158015610ee7573d6000803e3d6000fd5b505050506040513d6000823e601f3d908101601f19168201604052610f0f9190810190613205565b9050610f1b818c611bf7565b15610f695760ca8281548110610f3357610f336130c9565b9060005260206000200154888481518110610f5057610f506130c9565b6020908102919091010152610f666001846130f5565b92505b50610f738161310d565b9050610e75565b50925050505b600080610f9060ff8a168b6130f5565b9050895b81811015610ff95780841115610fe957858181518110610fb657610fb66130c9565b6020026020010151858481518110610fd057610fd06130c9565b6020908102919091010152610fe66001846130f5565b92505b610ff28161310d565b9050610f94565b509199929850919650505050505050565b60408051603280825261066082019092526000916060918391816020015b6110736040518060c0016040528060006001600160a01b0316815260200160006001600160a01b03168152602001606081526020016000815260200160008152602001600081525090565b81526020019060019003908161102857905050905060005b60328110156111af57600081815260ce6020908152604091829020825160c08101845281546001600160a01b0390811682526001830154169281019290925260028101805492939192918401916110e190613239565b80601f016020809104026020016040519081016040528092919081815260200182805461110d90613239565b801561115a5780601f1061112f5761010080835404028352916020019161115a565b820191906000526020600020905b81548152906001019060200180831161113d57829003601f168201915b505050505081526020016003820154815260200160048201548152602001600582015481525050828281518110611193576111936130c9565b6020026020010181905250806111a89061310d565b905061108b565b5060cd54939092509050565b600054610100900460ff16158080156111db5750600054600160ff909116105b806111f55750303b1580156111f5575060005460ff166001145b6112585760405162461bcd60e51b815260206004820152602e60248201527f496e697469616c697a61626c653a20636f6e747261637420697320616c72656160448201526d191e481a5b9a5d1a585b1a5e995960921b6064820152608401610555565b6000805460ff19166001179055801561127b576000805461ff0019166101001790555b61128361250c565b61128b61253b565b60c980546001600160a01b0319166001600160a01b038416179055604051631b185b9960e21b815260009060cf9060040190815260405190819003602001812091909155657a6f6d62696560d01b815260009060cf90600601908152604051908190036020018120919091556636b7b739ba32b960c91b815260009060cf90600701908152604051908190036020019020558015610c2e576000805461ff0019169055604051600181527f7f26b83ff96e1f2b6a682f133852f6798a09c465da95921460cefb38474024989060200160405180910390a15050565b60008061138f83604051806040016040528060048152602001631b185b9960e21b815250611bf7565b156114165760c960009054906101000a90046001600160a01b03166001600160a01b031663afc297cb6040518163ffffffff1660e01b8152600401602060405180830381865afa1580156113e7573d6000803e3d6000fd5b505050506040513d601f19601f8201168201806040525081019061140b9190613036565b915060ca9050611571565b61143e83604051806040016040528060068152602001657a6f6d62696560d01b815250611bf7565b156114c55760c960009054906101000a90046001600160a01b03166001600160a01b031663b53720c56040518163ffffffff1660e01b8152600401602060405180830381865afa158015611496573d6000803e3d6000fd5b505050506040513d601f19601f820116820180604052508101906114ba9190613036565b915060cb9050611571565b6114ee836040518060400160405280600781526020016636b7b739ba32b960c91b815250611bf7565b1561051a5760c960009054906101000a90046001600160a01b03166001600160a01b031663f095821f6040518163ffffffff1660e01b8152600401602060405180830381865afa158015611546573d6000803e3d6000fd5b505050506040513d601f19601f8201168201806040525081019061156a9190613036565b915060cc90505b60005b868110156107e45760006115ef838054806020026020016040519081016040528092919081815260200182805480156115cc57602002820191906000526020600020905b8154815260200190600101908083116115b8575b50505050508a8a858181106115e3576115e36130c9565b90506020020135612562565b90508061187657836001600160a01b031663feb9fd648a8a85818110611617576116176130c9565b90506020020135898986818110611630576116306130c9565b6040516001600160e01b031960e087901b16815260048101949094526020029190910135602483015250336044820152606401600060405180830381600087803b15801561167d57600080fd5b505af1158015611691573d6000803e3d6000fd5b5050505060cf856040516116a59190613274565b90815260405190819003602001902054835411156117c057836001600160a01b031663feb9fd648460cf886040516116dd9190613274565b908152602001604051809103902054815481106116fc576116fc6130c9565b60009182526020822001546040516001600160e01b031960e085901b16815260048101919091526024810191909152336044820152606401600060405180830381600087803b15801561174e57600080fd5b505af1158015611762573d6000803e3d6000fd5b50505050888883818110611778576117786130c9565b905060200201358360cf876040516117909190613274565b908152602001604051809103902054815481106117af576117af6130c9565b6000918252602090912001556117f6565b828989848181106117d3576117d36130c9565b835460018101855560009485526020948590209190940292909201359190920155505b600160cf866040516118089190613274565b9081526020016040518091039020600082825461182591906130f5565b925050819055506101f460cf8660405161183f9190613274565b9081526020016040518091039020541061187657600060cf866040516118659190613274565b908152604051908190036020019020555b506118808161310d565b9050611574565b60ce602052600090815260409020805460018201546002830180546001600160a01b039384169492909316926118bc90613239565b80601f01602080910402602001604051908101604052809291908181526020018280546118e890613239565b80156119355780601f1061190a57610100808354040283529160200191611935565b820191906000526020600020905b81548152906001019060200180831161191857829003601f168201915b5050505050908060030154908060040154908060050154905086565b611959612460565b6001600160a01b0381166119be5760405162461bcd60e51b815260206004820152602660248201527f4f776e61626c653a206e6577206f776e657220697320746865207a65726f206160448201526564647265737360d01b6064820152608401610555565b610b5e816124ba565b6000806119f083604051806040016040528060048152602001631b185b9960e21b815250611bf7565b15611a775760ca915060c960009054906101000a90046001600160a01b03166001600160a01b031663afc297cb6040518163ffffffff1660e01b8152600401602060405180830381865afa158015611a4c573d6000803e3d6000fd5b505050506040513d601f19601f82011682018060405250810190611a709190613036565b9050611b80565b611a9f83604051806040016040528060068152602001657a6f6d62696560d01b815250611bf7565b15611afb5760cb915060c960009054906101000a90046001600160a01b03166001600160a01b031663b53720c56040518163ffffffff1660e01b8152600401602060405180830381865afa158015611a4c573d6000803e3d6000fd5b611b24836040518060400160405280600781526020016636b7b739ba32b960c91b815250611bf7565b1561051a5760cc915060c960009054906101000a90046001600160a01b03166001600160a01b031663f095821f6040518163ffffffff1660e01b8152600401602060405180830381865afa158015611a4c573d6000803e3d6000fd5b604051633fae7f5960e21b815260048101859052600060248201523360448201526001600160a01b0382169063feb9fd6490606401600060405180830381600087803b158015611bcf57600080fd5b505af1158015611be3573d6000803e3d6000fd5b50505050611bf18483612210565b50505050565b6000611c0383836125b8565b1590505b92915050565b81516000908190815b81811015611c5c5784868281518110611c3157611c316130c9565b60200260200101511415611c4c57925060019150611c669050565b611c558161310d565b9050611c16565b5060008092509250505b9250929050565b8354600090606090829081816001600160401b03811115611c9057611c90612ade565b604051908082528060200260200182016040528015611cb9578160200160208202803683370190505b5090506000611ce789604051806040016040528060078152602001667a6f6d6269657360c81b815250611bf7565b611d675760c960009054906101000a90046001600160a01b03166001600160a01b031663f095821f6040518163ffffffff1660e01b8152600401602060405180830381865afa158015611d3e573d6000803e3d6000fd5b505050506040513d601f19601f82011682018060405250810190611d629190613036565b611dde565b60c960009054906101000a90046001600160a01b03166001600160a01b031663b53720c56040518163ffffffff1660e01b8152600401602060405180830381865afa158015611dba573d6000803e3d6000fd5b505050506040513d601f19601f82011682018060405250810190611dde9190613036565b905060005b8381101561201c5760008080611e188d604051806040016040528060078152602001667a6f6d6269657360c81b815250611bf7565b611eb057846001600160a01b0316634689856c8f8681548110611e3d57611e3d6130c9565b90600052602060002001546040518263ffffffff1660e01b8152600401611e6691815260200190565b600060405180830381865afa158015611e83573d6000803e3d6000fd5b505050506040513d6000823e601f3d908101601f19168201604052611eab9190810190613290565b611f3f565b846001600160a01b0316634689856c8f8681548110611ed157611ed16130c9565b90600052602060002001546040518263ffffffff1660e01b8152600401611efa91815260200190565b600060405180830381865afa158015611f17573d6000803e3d6000fd5b505050506040513d6000823e601f3d908101601f19168201604052611f3f9190810190613290565b915091508b51600014158015611f5557508a5115155b15611f8c57611f64828d611bf7565b8015611f7d5750611f7d611f77826126db565b8c611bf7565b15611f8757600192505b611fba565b8b5115611f9d57611f7d828d611bf7565b8a5115611fba57611fb0611f77826126db565b15611fba57600192505b8215612008578d8481548110611fd257611fd26130c9565b9060005260206000200154868981518110611fef57611fef6130c9565b60209081029190910101526120056001896130f5565b97505b505050806120159061310d565b9050611de3565b5092999098509650505050505050565b60c9546040805163f095821f60e01b815290516000926001600160a01b03169163f095821f9160048083019260209291908290030181865afa158015612076573d6000803e3d6000fd5b505050506040513d601f19601f8201168201806040525081019061209a9190613036565b9050600060c960009054906101000a90046001600160a01b03166001600160a01b031663b53720c56040518163ffffffff1660e01b8152600401602060405180830381865afa1580156120f1573d6000803e3d6000fd5b505050506040513d601f19601f820116820180604052508101906121159190613036565b9050600060c960009054906101000a90046001600160a01b03166001600160a01b031663afc297cb6040518163ffffffff1660e01b8152600401602060405180830381865afa15801561216c573d6000803e3d6000fd5b505050506040513d601f19601f820116820180604052508101906121909190613036565b90506001600160a01b0382163314806121b157506001600160a01b03831633145b806121c457506001600160a01b03811633145b610a7c5760405162461bcd60e51b815260206004820152601a60248201527f596f752063616e27742063616c6c2074686973206d6574686f640000000000006044820152606401610555565b60008061226c8380548060200260200160405190810160405280929190818152602001828054801561226157602002820191906000526020600020905b81548152602001906001019080831161224d575b505050505085611c0d565b915091508015611bf15782548390612286906001906130b2565b81548110612296576122966130c9565b90600052602060002001548383815481106122b3576122b36130c9565b9060005260206000200181905550828054806122d1576122d16130df565b6001900381819060005260206000200160009055905550505050565b610b5e612460565b7f4910fdfa16fed3260ed0e7147f7cc6da11a60208b5b9406d12a635614ffd91435460ff161561232857610a7c836127e0565b826001600160a01b03166352d1902d6040518163ffffffff1660e01b8152600401602060405180830381865afa925050508015612382575060408051601f3d908101601f1916820190925261237f918101906132d6565b60015b6123e55760405162461bcd60e51b815260206004820152602e60248201527f45524331393637557067726164653a206e657720696d706c656d656e7461746960448201526d6f6e206973206e6f74205555505360901b6064820152608401610555565b60008051602061336283398151915281146124545760405162461bcd60e51b815260206004820152602960248201527f45524331393637557067726164653a20756e737570706f727465642070726f786044820152681a58589b195555525160ba1b6064820152608401610555565b50610a7c83838361287c565b6097546001600160a01b03163314610cf75760405162461bcd60e51b815260206004820181905260248201527f4f776e61626c653a2063616c6c6572206973206e6f7420746865206f776e65726044820152606401610555565b609780546001600160a01b038381166001600160a01b0319831681179093556040519116919082907f8be0079c531659141344cd1fd0a4f28419497f9722a3daafe3b4186f6b6457e090600090a35050565b600054610100900460ff166125335760405162461bcd60e51b8152600401610555906132ef565b610cf76128a1565b600054610100900460ff16610cf75760405162461bcd60e51b8152600401610555906132ef565b8151600090815b818110156125ad5783858281518110612584576125846130c9565b6020026020010151141561259d57600192505050611c07565b6125a68161310d565b9050612569565b506000949350505050565b8151815160009184918491908111156125cf575080515b60005b818110156126a1578281815181106125ec576125ec6130c9565b602001015160f81c60f81b6001600160f81b031916848281518110612613576126136130c9565b01602001516001600160f81b031916101561263657600019945050505050611c07565b828181518110612648576126486130c9565b602001015160f81c60f81b6001600160f81b03191684828151811061266f5761266f6130c9565b01602001516001600160f81b0319161115612691576001945050505050611c07565b61269a8161310d565b90506125d2565b508151835110156126b9576000199350505050611c07565b8151835111156126cf5760019350505050611c07565b60009350505050611c07565b6060816126ff5750506040805180820190915260018152600360fc1b602082015290565b8160005b811561272957806127138161310d565b91506127229050600a8361307f565b9150612703565b6000816001600160401b0381111561274357612743612ade565b6040519080825280601f01601f19166020018201604052801561276d576020820181803683370190505b5090505b84156127d8576127826001836130b2565b915061278f600a8661333a565b61279a9060306130f5565b60f81b8183815181106127af576127af6130c9565b60200101906001600160f81b031916908160001a9053506127d1600a8661307f565b9450612771565b949350505050565b6001600160a01b0381163b61284d5760405162461bcd60e51b815260206004820152602d60248201527f455243313936373a206e657720696d706c656d656e746174696f6e206973206e60448201526c1bdd08184818dbdb9d1c9858dd609a1b6064820152608401610555565b60008051602061336283398151915280546001600160a01b0319166001600160a01b0392909216919091179055565b612885836128d1565b6000825111806128925750805b15610a7c57611bf18383612911565b600054610100900460ff166128c85760405162461bcd60e51b8152600401610555906132ef565b610cf7336124ba565b6128da816127e0565b6040516001600160a01b038216907fbc7cd75a20ee27fd9adebab32041f755214dbc6bffa90cc0225b39da2e5c2d3b90600090a250565b60606001600160a01b0383163b6129795760405162461bcd60e51b815260206004820152602660248201527f416464726573733a2064656c65676174652063616c6c20746f206e6f6e2d636f6044820152651b9d1c9858dd60d21b6064820152608401610555565b600080846001600160a01b0316846040516129949190613274565b600060405180830381855af49150503d80600081146129cf576040519150601f19603f3d011682016040523d82523d6000602084013e6129d4565b606091505b50915091506129fc828260405180606001604052806027815260200161338260279139612a05565b95945050505050565b60608315612a14575081612a3e565b825115612a245782518084602001fd5b8160405162461bcd60e51b8152600401610555919061334e565b9392505050565b828054612a5190613239565b90600052602060002090601f016020900481019282612a735760008555612ab9565b82601f10612a8c57805160ff1916838001178555612ab9565b82800160010185558215612ab9579182015b82811115612ab9578251825591602001919060010190612a9e565b50612ac5929150612ac9565b5090565b5b80821115612ac55760008155600101612aca565b634e487b7160e01b600052604160045260246000fd5b604051601f8201601f191681016001600160401b0381118282101715612b1c57612b1c612ade565b604052919050565b60006001600160401b03821115612b3d57612b3d612ade565b50601f01601f191660200190565b6000612b5e612b5984612b24565b612af4565b9050828152838383011115612b7257600080fd5b828260208301376000602084830101529392505050565b600082601f830112612b9a57600080fd5b612a3e83833560208501612b4b565b60008060408385031215612bbc57600080fd5b8235915060208301356001600160401b03811115612bd957600080fd5b612be585828601612b89565b9150509250929050565b600060208284031215612c0157600080fd5b81356001600160401b03811115612c1757600080fd5b6127d884828501612b89565b803560ff81168114612c3457600080fd5b919050565b600080600080600060a08688031215612c5157600080fd5b85359450612c6160208701612c23565b935060408601356001600160401b0380821115612c7d57600080fd5b612c8989838a01612b89565b94506060880135915080821115612c9f57600080fd5b612cab89838a01612b89565b93506080880135915080821115612cc157600080fd5b50612cce88828901612b89565b9150509295509295909350565b6000604082018483526020604081850152818551808452606086019150828701935060005b81811015612d1c57845183529383019391830191600101612d00565b5090979650505050505050565b6001600160a01b0381168114610b5e57600080fd5b600060208284031215612d5057600080fd5b8135612a3e81612d29565b60008060408385031215612d6e57600080fd5b8235612d7981612d29565b915060208301356001600160401b03811115612d9457600080fd5b8301601f81018513612da557600080fd5b612be585823560208401612b4b565b600080600060608486031215612dc957600080fd5b83359250612dd960208501612c23565b915060408401356001600160401b03811115612df457600080fd5b612e0086828701612b89565b9150509250925092565b60005b83811015612e25578181015183820152602001612e0d565b83811115611bf15750506000910152565b60008151808452612e4e816020860160208601612e0a565b601f01601f19169290920160200192915050565b6000604080830185845260208281860152818651808452606093508387019150838160051b88010183890160005b83811015612f0657898303605f19018552815180516001600160a01b0390811685528782015116878501528881015160c08a860181905290612ed482870182612e36565b838b0151878c01526080808501519088015260a093840151939096019290925250509385019390850190600101612e90565b50909a9950505050505050505050565b60008083601f840112612f2857600080fd5b5081356001600160401b03811115612f3f57600080fd5b6020830191508360208260051b8501011115611c6657600080fd5b600080600080600060608688031215612f7257600080fd5b85356001600160401b0380821115612f8957600080fd5b612f9589838a01612f16565b90975095506020880135915080821115612fae57600080fd5b612fba89838a01612f16565b90955093506040880135915080821115612cc157600080fd5b600060208284031215612fe557600080fd5b5035919050565b6001600160a01b0387811682528616602082015260c06040820181905260009061301890830187612e36565b606083019590955250608081019290925260a0909101529392505050565b60006020828403121561304857600080fd5b8151612a3e81612d29565b634e487b7160e01b600052601260045260246000fd5b634e487b7160e01b600052601160045260246000fd5b60008261308e5761308e613053565b500490565b60008160001904831182151516156130ad576130ad613069565b500290565b6000828210156130c4576130c4613069565b500390565b634e487b7160e01b600052603260045260246000fd5b634e487b7160e01b600052603160045260246000fd5b6000821982111561310857613108613069565b500190565b600060001982141561312157613121613069565b5060010190565b6020808252602c908201527f46756e6374696f6e206d7573742062652063616c6c6564207468726f7567682060408201526b19195b1959d85d1958d85b1b60a21b606082015260800190565b6020808252602c908201527f46756e6374696f6e206d7573742062652063616c6c6564207468726f7567682060408201526b6163746976652070726f787960a01b606082015260800190565b600082601f8301126131d157600080fd5b81516131df612b5982612b24565b8181528460208386010111156131f457600080fd5b6127d8826020830160208701612e0a565b60006020828403121561321757600080fd5b81516001600160401b0381111561322d57600080fd5b6127d8848285016131c0565b600181811c9082168061324d57607f821691505b6020821081141561326e57634e487b7160e01b600052602260045260246000fd5b50919050565b60008251613286818460208701612e0a565b9190910192915050565b600080604083850312156132a357600080fd5b82516001600160401b038111156132b957600080fd5b6132c5858286016131c0565b925050602083015190509250929050565b6000602082840312156132e857600080fd5b5051919050565b6020808252602b908201527f496e697469616c697a61626c653a20636f6e7472616374206973206e6f74206960408201526a6e697469616c697a696e6760a81b606082015260800190565b60008261334957613349613053565b500690565b602081526000612a3e6020830184612e3656fe360894a13ba1a3210667c828492db98dca3e2076cc3735a920a3ca505d382bbc416464726573733a206c6f772d6c6576656c2064656c65676174652063616c6c206661696c6564a264697066735822122099922564870615e1dcafeb1a806cdf01c044a26bc5d31ead8468da04261ac7e464736f6c634300080c0033",
  "linkReferences": {},
  "deployedLinkReferences": {}
}