{
  "_format": "hh-sol-artifact-1",
  "contractName": "ZombieNFTHelperContract",
  "sourceName": "src/backend/contracts/ZombieNFTHelper.sol",
  "abi": [
    {
      "inputs": [],
      "stateMutability": "nonpayable",
      "type": "constructor"
    },
    {
      "anonymous": false,
      "inputs": [
        {
          "indexed": false,
          "internalType": "address",
          "name": "previousAdmin",
          "type": "address"
        },
        {
          "indexed": false,
          "internalType": "address",
          "name": "newAdmin",
          "type": "address"
        }
      ],
      "name": "AdminChanged",
      "type": "event"
    },
    {
      "anonymous": false,
      "inputs": [
        {
          "indexed": true,
          "internalType": "address",
          "name": "beacon",
          "type": "address"
        }
      ],
      "name": "BeaconUpgraded",
      "type": "event"
    },
    {
      "anonymous": false,
      "inputs": [
        {
          "indexed": false,
          "internalType": "uint8",
          "name": "version",
          "type": "uint8"
        }
      ],
      "name": "Initialized",
      "type": "event"
    },
    {
      "anonymous": false,
      "inputs": [
        {
          "indexed": true,
          "internalType": "address",
          "name": "previousOwner",
          "type": "address"
        },
        {
          "indexed": true,
          "internalType": "address",
          "name": "newOwner",
          "type": "address"
        }
      ],
      "name": "OwnershipTransferred",
      "type": "event"
    },
    {
      "anonymous": false,
      "inputs": [
        {
          "indexed": true,
          "internalType": "address",
          "name": "implementation",
          "type": "address"
        }
      ],
      "name": "Upgraded",
      "type": "event"
    },
    {
      "inputs": [
        {
          "internalType": "uint8",
          "name": "_index",
          "type": "uint8"
        }
      ],
      "name": "generateMetadata",
      "outputs": [
        {
          "internalType": "string",
          "name": "",
          "type": "string"
        },
        {
          "internalType": "uint8",
          "name": "",
          "type": "uint8"
        },
        {
          "internalType": "uint8",
          "name": "",
          "type": "uint8"
        },
        {
          "internalType": "uint8",
          "name": "",
          "type": "uint8"
        },
        {
          "internalType": "uint8",
          "name": "",
          "type": "uint8"
        },
        {
          "internalType": "uint256",
          "name": "",
          "type": "uint256"
        },
        {
          "internalType": "uint256",
          "name": "",
          "type": "uint256"
        },
        {
          "internalType": "string",
          "name": "",
          "type": "string"
        }
      ],
      "stateMutability": "nonpayable",
      "type": "function"
    },
    {
      "inputs": [
        {
          "internalType": "uint256",
          "name": "_page",
          "type": "uint256"
        },
        {
          "internalType": "uint256",
          "name": "_count",
          "type": "uint256"
        },
        {
          "internalType": "uint256",
          "name": "_collectionFilter",
          "type": "uint256"
        },
        {
          "internalType": "string",
          "name": "_rarityFilter",
          "type": "string"
        },
        {
          "internalType": "address",
          "name": "_owner",
          "type": "address"
        }
      ],
      "name": "getPageIdList",
      "outputs": [
        {
          "internalType": "uint256[]",
          "name": "",
          "type": "uint256[]"
        },
        {
          "internalType": "uint256",
          "name": "",
          "type": "uint256"
        },
        {
          "internalType": "uint256",
          "name": "",
          "type": "uint256"
        }
      ],
      "stateMutability": "view",
      "type": "function"
    },
    {
      "inputs": [
        {
          "internalType": "string",
          "name": "_rarityStr",
          "type": "string"
        }
      ],
      "name": "getRarityTokenPrice",
      "outputs": [
        {
          "internalType": "uint256",
          "name": "",
          "type": "uint256"
        }
      ],
      "stateMutability": "pure",
      "type": "function"
    },
    {
      "inputs": [
        {
          "internalType": "uint256",
          "name": "_page",
          "type": "uint256"
        },
        {
          "internalType": "uint256",
          "name": "_count",
          "type": "uint256"
        },
        {
          "internalType": "uint256",
          "name": "_totalListLength",
          "type": "uint256"
        }
      ],
      "name": "getStartEndIndex",
      "outputs": [
        {
          "internalType": "uint256",
          "name": "",
          "type": "uint256"
        },
        {
          "internalType": "uint256",
          "name": "",
          "type": "uint256"
        }
      ],
      "stateMutability": "pure",
      "type": "function"
    },
    {
      "inputs": [
        {
          "internalType": "address",
          "name": "_mainContract",
          "type": "address"
        }
      ],
      "name": "initialize",
      "outputs": [],
      "stateMutability": "nonpayable",
      "type": "function"
    },
    {
      "inputs": [],
      "name": "owner",
      "outputs": [
        {
          "internalType": "address",
          "name": "",
          "type": "address"
        }
      ],
      "stateMutability": "view",
      "type": "function"
    },
    {
      "inputs": [],
      "name": "proxiableUUID",
      "outputs": [
        {
          "internalType": "bytes32",
          "name": "",
          "type": "bytes32"
        }
      ],
      "stateMutability": "view",
      "type": "function"
    },
    {
      "inputs": [],
      "name": "renounceOwnership",
      "outputs": [],
      "stateMutability": "nonpayable",
      "type": "function"
    },
    {
      "inputs": [
        {
          "internalType": "address",
          "name": "newOwner",
          "type": "address"
        }
      ],
      "name": "transferOwnership",
      "outputs": [],
      "stateMutability": "nonpayable",
      "type": "function"
    },
    {
      "inputs": [
        {
          "internalType": "address",
          "name": "newImplementation",
          "type": "address"
        }
      ],
      "name": "upgradeTo",
      "outputs": [],
      "stateMutability": "nonpayable",
      "type": "function"
    },
    {
      "inputs": [
        {
          "internalType": "address",
          "name": "newImplementation",
          "type": "address"
        },
        {
          "internalType": "bytes",
          "name": "data",
          "type": "bytes"
        }
      ],
      "name": "upgradeToAndCall",
      "outputs": [],
      "stateMutability": "payable",
      "type": "function"
    }
  ],
  "bytecode": "0x60a06040523060805234801561001457600080fd5b5061001d610022565b6100e2565b600054610100900460ff161561008e5760405162461bcd60e51b815260206004820152602760248201527f496e697469616c697a61626c653a20636f6e747261637420697320696e697469604482015266616c697a696e6760c81b606482015260840160405180910390fd5b60005460ff90811610156100e0576000805460ff191660ff9081179091556040519081527f7f26b83ff96e1f2b6a682f133852f6798a09c465da95921460cefb38474024989060200160405180910390a15b565b6080516122346200011a6000396000818161023e015281816102870152818161032701528181610367015261046201526122346000f3fe60806040526004361061009c5760003560e01c80638da5cb5b116100645780638da5cb5b14610148578063c4d66de814610170578063d3ef3df414610190578063d9c273e7146101b0578063db66329e146101e4578063f2fde38b1461021357600080fd5b80633659cfe6146100a15780634f1ef286146100c3578063527c9716146100d657806352d1902d14610110578063715018a614610133575b600080fd5b3480156100ad57600080fd5b506100c16100bc366004611ab2565b610233565b005b6100c16100d1366004611b7c565b61031c565b3480156100e257600080fd5b506100f66100f1366004611be0565b6103ed565b604080519283526020830191909152015b60405180910390f35b34801561011c57600080fd5b50610125610455565b604051908152602001610107565b34801561013f57600080fd5b506100c1610508565b34801561015457600080fd5b506033546040516001600160a01b039091168152602001610107565b34801561017c57600080fd5b506100c161018b366004611ab2565b61051c565b34801561019c57600080fd5b506101256101ab366004611c2c565b610650565b3480156101bc57600080fd5b506101d06101cb366004611c69565b610717565b604051610107989796959493929190611ce4565b3480156101f057600080fd5b506102046101ff366004611d4b565b610950565b60405161010793929190611dba565b34801561021f57600080fd5b506100c161022e366004611ab2565b610c6e565b306001600160a01b037f00000000000000000000000000000000000000000000000000000000000000001614156102855760405162461bcd60e51b815260040161027c90611e07565b60405180910390fd5b7f00000000000000000000000000000000000000000000000000000000000000006001600160a01b03166102ce6000805160206121b8833981519152546001600160a01b031690565b6001600160a01b0316146102f45760405162461bcd60e51b815260040161027c90611e53565b6102fd81610ce4565b6040805160008082526020820190925261031991839190610cec565b50565b306001600160a01b037f00000000000000000000000000000000000000000000000000000000000000001614156103655760405162461bcd60e51b815260040161027c90611e07565b7f00000000000000000000000000000000000000000000000000000000000000006001600160a01b03166103ae6000805160206121b8833981519152546001600160a01b031690565b6001600160a01b0316146103d45760405162461bcd60e51b815260040161027c90611e53565b6103dd82610ce4565b6103e982826001610cec565b5050565b600080808080866103ff60018a611eb5565b6104099190611ecc565b90508515610448578061041d600188611eb5565b6104279190611eb5565b92508683106104485761043a8784611eb5565b610445906001611eeb565b91505b5090969095509350505050565b6000306001600160a01b037f000000000000000000000000000000000000000000000000000000000000000016146104f55760405162461bcd60e51b815260206004820152603860248201527f555550535570677261646561626c653a206d757374206e6f742062652063616c60448201527f6c6564207468726f7567682064656c656761746563616c6c0000000000000000606482015260840161027c565b506000805160206121b883398151915290565b610510610e5c565b61051a6000610eb6565b565b600054610100900460ff161580801561053c5750600054600160ff909116105b806105565750303b158015610556575060005460ff166001145b6105b95760405162461bcd60e51b815260206004820152602e60248201527f496e697469616c697a61626c653a20636f6e747261637420697320616c72656160448201526d191e481a5b9a5d1a585b1a5e995960921b606482015260840161027c565b6000805460ff1916600117905580156105dc576000805461ff0019166101001790555b6105e4610f08565b6105ec610f37565b60c980546001600160a01b0319166001600160a01b03841617905580156103e9576000805461ff0019169055604051600181527f7f26b83ff96e1f2b6a682f133852f6798a09c465da95921460cefb38474024989060200160405180910390a15050565b600061067a826040518060400160405280600681526020016521b7b6b6b7b760d11b815250610f5e565b1561068e5750674563918244f40000919050565b6106b882604051806040016040528060088152602001672ab721b7b6b6b7b760c11b815250610f5e565b156106cc5750678ac7230489e80000919050565b6106f282604051806040016040528060048152602001635261726560e01b815250610f5e565b1561070757506801158e460913d00000919050565b5068022b1c8c1227a00000919050565b6040805161012081018252600061010082018181528252602080830182905282840182905260608381018390526080840183905260a0840183905260c08401839052845191820190945281815260e083015290819081908190819081908790826107808b610f74565b905061079860316107928d600f611f03565b83611031565b60ff1660208301526107b060186107928d6014611f03565b60ff1660408301526107c860186107928d6019611f03565b60ff1660608301526107e060016107928d601e611f03565b60ff16608083018190526020830151604084015160608501516108079385939291906111e3565b60a083015260c95460408051630981101760e41b815290516000926001600160a01b03169163981101709160048083019260209291908290030181865afa158015610856573d6000803e3d6000fd5b505050506040513d601f19601f8201168201806040525081019061087a9190611f28565b90506001600160a01b03811663c2ae4b016108968e6008611f03565b6040516001600160e01b031960e084901b16815260ff9091166004820152602401600060405180830381865afa1580156108d4573d6000803e3d6000fd5b505050506040513d6000823e601f3d908101601f191682016040526108fc9190810190611f45565b60e085015260c084015261090f826112a9565b83602001518460400151856060015186608001518760a001518860c001518960e001519a509a509a509a509a509a509a509a50505050919395975091939597565b6060600080600060c960009054906101000a90046001600160a01b03166001600160a01b031663b53720c56040518163ffffffff1660e01b8152600401602060405180830381865afa1580156109aa573d6000803e3d6000fd5b505050506040513d601f19601f820116820180604052508101906109ce9190611f28565b905060008867ffffffffffffffff8111156109eb576109eb611acf565b604051908082528060200260200182016040528015610a14578160200160208202803683370190505b5090506000808915801590610a295750885115155b15610a4757610a3b8a8a8e8e8c61137f565b91945092509050610c5c565b8915610ae457604051631ae9d2f960e21b81526001600160a01b038981166004830152602482018c905260009190861690636ba74be4906044015b600060405180830381865afa158015610a9f573d6000803e3d6000fd5b505050506040513d6000823e601f3d908101601f19168201604052610ac79190810190611fc8565b9050610ad68182518f8f6115e9565b91955093509150610c5c9050565b885115610b1c57604051631b88b63760e11b81526000906001600160a01b038616906337116c6e90610a82908c908e9060040161206e565b6040516370a0823160e01b81526001600160a01b0389811660048301528516906370a0823190602401602060405180830381865afa158015610b62573d6000803e3d6000fd5b505050506040513d601f19601f82011682018060405250810190610b869190612092565b9050600080610b968e8e856103ed565b9092509050805b828111610c585780841115610c4857604051632f745c5960e01b81526001600160a01b038c8116600483015260248201839052881690632f745c5990604401602060405180830381865afa158015610bf9573d6000803e3d6000fd5b505050506040513d601f19601f82011682018060405250810190610c1d9190612092565b868681518110610c2f57610c2f6120ab565b6020908102919091010152610c45600186611eeb565b94505b610c51816120c1565b9050610b9d565b5050505b919b909a509098509650505050505050565b610c76610e5c565b6001600160a01b038116610cdb5760405162461bcd60e51b815260206004820152602660248201527f4f776e61626c653a206e6577206f776e657220697320746865207a65726f206160448201526564647265737360d01b606482015260840161027c565b61031981610eb6565b610319610e5c565b7f4910fdfa16fed3260ed0e7147f7cc6da11a60208b5b9406d12a635614ffd91435460ff1615610d2457610d1f836116c0565b505050565b826001600160a01b03166352d1902d6040518163ffffffff1660e01b8152600401602060405180830381865afa925050508015610d7e575060408051601f3d908101601f19168201909252610d7b91810190612092565b60015b610de15760405162461bcd60e51b815260206004820152602e60248201527f45524331393637557067726164653a206e657720696d706c656d656e7461746960448201526d6f6e206973206e6f74205555505360901b606482015260840161027c565b6000805160206121b88339815191528114610e505760405162461bcd60e51b815260206004820152602960248201527f45524331393637557067726164653a20756e737570706f727465642070726f786044820152681a58589b195555525160ba1b606482015260840161027c565b50610d1f83838361175c565b6033546001600160a01b0316331461051a5760405162461bcd60e51b815260206004820181905260248201527f4f776e61626c653a2063616c6c6572206973206e6f7420746865206f776e6572604482015260640161027c565b603380546001600160a01b038381166001600160a01b0319831681179093556040519116919082907f8be0079c531659141344cd1fd0a4f28419497f9722a3daafe3b4186f6b6457e090600090a35050565b600054610100900460ff16610f2f5760405162461bcd60e51b815260040161027c906120dc565b61051a611787565b600054610100900460ff1661051a5760405162461bcd60e51b815260040161027c906120dc565b6000610f6a83836117b7565b1590505b92915050565b60c954604051635bbb504b60e01b81526103e8600482015260ff8316602482015260009182916001600160a01b0390911690635bbb504b906044016020604051808303816000875af1158015610fce573d6000803e3d6000fd5b505050506040513d601f19601f82011682018060405250810190610ff29190612092565b9050600a81116110055750600392915050565b603c81116110165750600292915050565b61012c81116110285750600192915050565b50600092915050565b600080848184600381111561104857611048612127565b14156110605761105960048761213d565b90506110f6565b600184600381111561107457611074612127565b14156110925761108560058761213d565b915061105960028761213d565b60028460038111156110a6576110a6612127565b14156110dc5760056110b9876002611ecc565b6110c3919061213d565b915060046110d2876003611ecc565b611059919061213d565b60146110e987600d611ecc565b6110f3919061213d565b91505b60006111028383611eb5565b905080156111d4576000611117826001611eeb565b611123906103e861213d565b60c954604051635bbb504b60e01b81526103e8600482015260ff8a1660248201529192506000916001600160a01b0390911690635bbb504b906044016020604051808303816000875af115801561117e573d6000803e3d6000fd5b505050506040513d601f19601f820116820180604052508101906111a29190612092565b905060006111b0838361213d565b90506111bc8187611eeb565b6111c7906001611eeb565b96505050505050506111dc565b600193505050505b9392505050565b6000600160038760038111156111fb576111fb612127565b141561120957506015611249565b600287600381111561121d5761121d612127565b141561122b57506009611249565b600187600381111561123f5761123f612127565b1415611249575060035b600461125684600a61215f565b85611261888a611f03565b61126b9190611f03565b6112759190611f03565b60ff16611282919061213d565b61128c9082611ecc565b61129e90670de0b6b3a7640000611ecc565b979650505050505050565b606060008260038111156112bf576112bf612127565b14156112e757505060408051808201909152600681526521b7b6b6b7b760d11b602082015290565b60018260038111156112fb576112fb612127565b14156113255750506040805180820190915260088152672ab721b7b6b6b7b760c11b602082015290565b600282600381111561133957611339612127565b141561135f5750506040805180820190915260048152635261726560e01b602082015290565b50506040805180820190915260048152634570696360e01b602082015290565b6060600080600060c960009054906101000a90046001600160a01b03166001600160a01b031663b53720c56040518163ffffffff1660e01b8152600401602060405180830381865afa1580156113d9573d6000803e3d6000fd5b505050506040513d601f19601f820116820180604052508101906113fd9190611f28565b604051631ae9d2f960e21b81526001600160a01b038781166004830152602482018c9052919250600091831690636ba74be490604401600060405180830381865afa158015611450573d6000803e3d6000fd5b505050506040513d6000823e601f3d908101601f191682016040526114789190810190611fc8565b90506000826001600160a01b03166337116c6e888c6040518363ffffffff1660e01b81526004016114aa92919061206e565b600060405180830381865afa1580156114c7573d6000803e3d6000fd5b505050506040513d6000823e601f3d908101601f191682016040526114ef9190810190611fc8565b8251909150600090818167ffffffffffffffff81111561151157611511611acf565b60405190808252806020026020018201604052801561153a578160200160208202803683370190505b50905060005b828110156115c55761156b8587838151811061155e5761155e6120ab565b60200260200101516118da565b156115b557858181518110611582576115826120ab565b602002602001015182858151811061159c5761159c6120ab565b60209081029190910101526115b2600185611eeb565b93505b6115be816120c1565b9050611540565b506115d281848e8e6115e9565b985098509850505050505050955095509592505050565b60606000806000808567ffffffffffffffff81111561160a5761160a611acf565b604051908082528060200260200182016040528015611633578160200160208202803683370190505b50905060008061164489898c6103ed565b9092509050805b8281116116af57808b111561169f578b818151811061166c5761166c6120ab565b6020026020010151848681518110611686576116866120ab565b602090810291909101015261169c600186611eeb565b94505b6116a8816120c1565b905061164b565b50919a929950919650505050505050565b6001600160a01b0381163b61172d5760405162461bcd60e51b815260206004820152602d60248201527f455243313936373a206e657720696d706c656d656e746174696f6e206973206e60448201526c1bdd08184818dbdb9d1c9858dd609a1b606482015260840161027c565b6000805160206121b883398151915280546001600160a01b0319166001600160a01b0392909216919091179055565b61176583611930565b6000825111806117725750805b15610d1f576117818383611970565b50505050565b600054610100900460ff166117ae5760405162461bcd60e51b815260040161027c906120dc565b61051a33610eb6565b8151815160009184918491908111156117ce575080515b60005b818110156118a0578281815181106117eb576117eb6120ab565b602001015160f81c60f81b6001600160f81b031916848281518110611812576118126120ab565b01602001516001600160f81b031916101561183557600019945050505050610f6e565b828181518110611847576118476120ab565b602001015160f81c60f81b6001600160f81b03191684828151811061186e5761186e6120ab565b01602001516001600160f81b0319161115611890576001945050505050610f6e565b611899816120c1565b90506117d1565b508151835110156118b8576000199350505050610f6e565b8151835111156118ce5760019350505050610f6e565b60009350505050610f6e565b8151600090815b8181101561192557838582815181106118fc576118fc6120ab565b6020026020010151141561191557600192505050610f6e565b61191e816120c1565b90506118e1565b506000949350505050565b611939816116c0565b6040516001600160a01b038216907fbc7cd75a20ee27fd9adebab32041f755214dbc6bffa90cc0225b39da2e5c2d3b90600090a250565b60606001600160a01b0383163b6119d85760405162461bcd60e51b815260206004820152602660248201527f416464726573733a2064656c65676174652063616c6c20746f206e6f6e2d636f6044820152651b9d1c9858dd60d21b606482015260840161027c565b600080846001600160a01b0316846040516119f39190612188565b600060405180830381855af49150503d8060008114611a2e576040519150601f19603f3d011682016040523d82523d6000602084013e611a33565b606091505b5091509150611a5b82826040518060600160405280602781526020016121d860279139611a64565b95945050505050565b60608315611a735750816111dc565b825115611a835782518084602001fd5b8160405162461bcd60e51b815260040161027c91906121a4565b6001600160a01b038116811461031957600080fd5b600060208284031215611ac457600080fd5b81356111dc81611a9d565b634e487b7160e01b600052604160045260246000fd5b604051601f8201601f1916810167ffffffffffffffff81118282101715611b0e57611b0e611acf565b604052919050565b600067ffffffffffffffff821115611b3057611b30611acf565b50601f01601f191660200190565b6000611b51611b4c84611b16565b611ae5565b9050828152838383011115611b6557600080fd5b828260208301376000602084830101529392505050565b60008060408385031215611b8f57600080fd5b8235611b9a81611a9d565b9150602083013567ffffffffffffffff811115611bb657600080fd5b8301601f81018513611bc757600080fd5b611bd685823560208401611b3e565b9150509250929050565b600080600060608486031215611bf557600080fd5b505081359360208301359350604090920135919050565b600082601f830112611c1d57600080fd5b6111dc83833560208501611b3e565b600060208284031215611c3e57600080fd5b813567ffffffffffffffff811115611c5557600080fd5b611c6184828501611c0c565b949350505050565b600060208284031215611c7b57600080fd5b813560ff811681146111dc57600080fd5b60005b83811015611ca7578181015183820152602001611c8f565b838111156117815750506000910152565b60008151808452611cd0816020860160208601611c8c565b601f01601f19169290920160200192915050565b6000610100808352611cf88184018c611cb8565b905060ff8a16602084015260ff8916604084015260ff8816606084015260ff871660808401528560a08401528460c084015282810360e0840152611d3c8185611cb8565b9b9a5050505050505050505050565b600080600080600060a08688031215611d6357600080fd5b853594506020860135935060408601359250606086013567ffffffffffffffff811115611d8f57600080fd5b611d9b88828901611c0c565b9250506080860135611dac81611a9d565b809150509295509295909350565b606080825284519082018190526000906020906080840190828801845b82811015611df357815184529284019290840190600101611dd7565b505050908301949094525060400152919050565b6020808252602c908201527f46756e6374696f6e206d7573742062652063616c6c6564207468726f7567682060408201526b19195b1959d85d1958d85b1b60a21b606082015260800190565b6020808252602c908201527f46756e6374696f6e206d7573742062652063616c6c6564207468726f7567682060408201526b6163746976652070726f787960a01b606082015260800190565b634e487b7160e01b600052601160045260246000fd5b600082821015611ec757611ec7611e9f565b500390565b6000816000190483118215151615611ee657611ee6611e9f565b500290565b60008219821115611efe57611efe611e9f565b500190565b600060ff821660ff84168060ff03821115611f2057611f20611e9f565b019392505050565b600060208284031215611f3a57600080fd5b81516111dc81611a9d565b60008060408385031215611f5857600080fd5b82519150602083015167ffffffffffffffff811115611f7657600080fd5b8301601f81018513611f8757600080fd5b8051611f95611b4c82611b16565b818152866020838501011115611faa57600080fd5b611fbb826020830160208601611c8c565b8093505050509250929050565b60006020808385031215611fdb57600080fd5b825167ffffffffffffffff80821115611ff357600080fd5b818501915085601f83011261200757600080fd5b81518181111561201957612019611acf565b8060051b915061202a848301611ae5565b818152918301840191848101908884111561204457600080fd5b938501935b8385101561206257845182529385019390850190612049565b98975050505050505050565b6001600160a01b0383168152604060208201819052600090611c6190830184611cb8565b6000602082840312156120a457600080fd5b5051919050565b634e487b7160e01b600052603260045260246000fd5b60006000198214156120d5576120d5611e9f565b5060010190565b6020808252602b908201527f496e697469616c697a61626c653a20636f6e7472616374206973206e6f74206960408201526a6e697469616c697a696e6760a81b606082015260800190565b634e487b7160e01b600052602160045260246000fd5b60008261215a57634e487b7160e01b600052601260045260246000fd5b500490565b600060ff821660ff84168160ff048111821515161561218057612180611e9f565b029392505050565b6000825161219a818460208701611c8c565b9190910192915050565b6020815260006111dc6020830184611cb856fe360894a13ba1a3210667c828492db98dca3e2076cc3735a920a3ca505d382bbc416464726573733a206c6f772d6c6576656c2064656c65676174652063616c6c206661696c6564a2646970667358221220ff64454c38d7b2f53bf4432f31a73b2fa75b77cbc292278995bf42da5b70cd3464736f6c634300080c0033",
  "linkReferences": {},
  "deployedLinkReferences": {}
}