{
  "_format": "hh-sol-artifact-1",
  "contractName": "CollectionContract",
  "sourceName": "src/backend/contracts/Collection.sol",
  "abi": [
    {
      "inputs": [],
      "stateMutability": "nonpayable",
      "type": "constructor"
    },
    {
      "anonymous": false,
      "inputs": [
        {
          "indexed": false,
          "internalType": "address",
          "name": "previousAdmin",
          "type": "address"
        },
        {
          "indexed": false,
          "internalType": "address",
          "name": "newAdmin",
          "type": "address"
        }
      ],
      "name": "AdminChanged",
      "type": "event"
    },
    {
      "anonymous": false,
      "inputs": [
        {
          "indexed": true,
          "internalType": "address",
          "name": "beacon",
          "type": "address"
        }
      ],
      "name": "BeaconUpgraded",
      "type": "event"
    },
    {
      "anonymous": false,
      "inputs": [
        {
          "indexed": false,
          "internalType": "uint8",
          "name": "version",
          "type": "uint8"
        }
      ],
      "name": "Initialized",
      "type": "event"
    },
    {
      "anonymous": false,
      "inputs": [
        {
          "indexed": true,
          "internalType": "address",
          "name": "previousOwner",
          "type": "address"
        },
        {
          "indexed": true,
          "internalType": "address",
          "name": "newOwner",
          "type": "address"
        }
      ],
      "name": "OwnershipTransferred",
      "type": "event"
    },
    {
      "anonymous": false,
      "inputs": [
        {
          "indexed": true,
          "internalType": "address",
          "name": "implementation",
          "type": "address"
        }
      ],
      "name": "Upgraded",
      "type": "event"
    },
    {
      "inputs": [
        {
          "internalType": "string",
          "name": "_title",
          "type": "string"
        },
        {
          "internalType": "string",
          "name": "_image",
          "type": "string"
        }
      ],
      "name": "addCollection",
      "outputs": [],
      "stateMutability": "nonpayable",
      "type": "function"
    },
    {
      "inputs": [],
      "name": "collectionCount",
      "outputs": [
        {
          "internalType": "uint256",
          "name": "",
          "type": "uint256"
        }
      ],
      "stateMutability": "view",
      "type": "function"
    },
    {
      "inputs": [
        {
          "internalType": "uint256",
          "name": "",
          "type": "uint256"
        }
      ],
      "name": "collections",
      "outputs": [
        {
          "internalType": "string",
          "name": "title",
          "type": "string"
        },
        {
          "internalType": "string",
          "name": "image",
          "type": "string"
        }
      ],
      "stateMutability": "view",
      "type": "function"
    },
    {
      "inputs": [],
      "name": "getAllCollections",
      "outputs": [
        {
          "internalType": "string",
          "name": "",
          "type": "string"
        },
        {
          "components": [
            {
              "internalType": "string",
              "name": "title",
              "type": "string"
            },
            {
              "internalType": "string",
              "name": "image",
              "type": "string"
            }
          ],
          "internalType": "struct CollectionContract.Collection[]",
          "name": "",
          "type": "tuple[]"
        }
      ],
      "stateMutability": "view",
      "type": "function"
    },
    {
      "inputs": [],
      "name": "getAllCollectionsCount",
      "outputs": [
        {
          "internalType": "uint256",
          "name": "",
          "type": "uint256"
        }
      ],
      "stateMutability": "view",
      "type": "function"
    },
    {
      "inputs": [
        {
          "internalType": "uint8",
          "name": "_shift",
          "type": "uint8"
        }
      ],
      "name": "getCollectionAndZombie",
      "outputs": [
        {
          "internalType": "uint256",
          "name": "",
          "type": "uint256"
        },
        {
          "internalType": "string",
          "name": "",
          "type": "string"
        }
      ],
      "stateMutability": "view",
      "type": "function"
    },
    {
      "inputs": [
        {
          "internalType": "uint256",
          "name": "collectionId",
          "type": "uint256"
        }
      ],
      "name": "getCollectionImage",
      "outputs": [
        {
          "internalType": "string",
          "name": "",
          "type": "string"
        }
      ],
      "stateMutability": "view",
      "type": "function"
    },
    {
      "inputs": [
        {
          "internalType": "address",
          "name": "_mainContract",
          "type": "address"
        },
        {
          "internalType": "string",
          "name": "_collectionHash",
          "type": "string"
        }
      ],
      "name": "initialize",
      "outputs": [],
      "stateMutability": "nonpayable",
      "type": "function"
    },
    {
      "inputs": [],
      "name": "owner",
      "outputs": [
        {
          "internalType": "address",
          "name": "",
          "type": "address"
        }
      ],
      "stateMutability": "view",
      "type": "function"
    },
    {
      "inputs": [],
      "name": "proxiableUUID",
      "outputs": [
        {
          "internalType": "bytes32",
          "name": "",
          "type": "bytes32"
        }
      ],
      "stateMutability": "view",
      "type": "function"
    },
    {
      "inputs": [],
      "name": "renounceOwnership",
      "outputs": [],
      "stateMutability": "nonpayable",
      "type": "function"
    },
    {
      "inputs": [
        {
          "internalType": "address",
          "name": "newOwner",
          "type": "address"
        }
      ],
      "name": "transferOwnership",
      "outputs": [],
      "stateMutability": "nonpayable",
      "type": "function"
    },
    {
      "inputs": [
        {
          "internalType": "address",
          "name": "newImplementation",
          "type": "address"
        }
      ],
      "name": "upgradeTo",
      "outputs": [],
      "stateMutability": "nonpayable",
      "type": "function"
    },
    {
      "inputs": [
        {
          "internalType": "address",
          "name": "newImplementation",
          "type": "address"
        },
        {
          "internalType": "bytes",
          "name": "data",
          "type": "bytes"
        }
      ],
      "name": "upgradeToAndCall",
      "outputs": [],
      "stateMutability": "payable",
      "type": "function"
    }
  ],
  "bytecode": "0x60a0604052306080523480156200001557600080fd5b506200002062000026565b62000156565b6200003260ff62000035565b50565b60008054610100900460ff1615620000ce578160ff1660011480156200006e57506200006c306200014760201b62000b9f1760201c565b155b620000c65760405162461bcd60e51b815260206004820152602e602482015260008051602062001bf483398151915260448201526d191e481a5b9a5d1a585b1a5e995960921b60648201526084015b60405180910390fd5b506000919050565b60005460ff8084169116106200012d5760405162461bcd60e51b815260206004820152602e602482015260008051602062001bf483398151915260448201526d191e481a5b9a5d1a585b1a5e995960921b6064820152608401620000bd565b506000805460ff191660ff92909216919091179055600190565b6001600160a01b03163b151590565b608051611a666200018e600039600081816102be01528181610307015281816104430152818161048301526105160152611a666000f3fe6080604052600436106100dd5760003560e01c80638da5cb5b1161007f578063d57f966b11610059578063d57f966b1461022f578063f2fde38b14610245578063f399e22e14610265578063fdbda0ec1461028557600080fd5b80638da5cb5b146101c4578063a4f0a9b9146101ec578063c2ae4b011461020157600080fd5b806352d1902d116100bb57806352d1902d14610137578063636f34961461015f5780636804a9581461018c578063715018a6146101af57600080fd5b80633659cfe6146100e2578063407917eb146101045780634f1ef28614610124575b600080fd5b3480156100ee57600080fd5b506101026100fd3660046112e4565b6102b3565b005b34801561011057600080fd5b5061010261011f3660046113ab565b61039c565b61010261013236600461140f565b610438565b34801561014357600080fd5b5061014c610509565b6040519081526020015b60405180910390f35b34801561016b57600080fd5b5061017f61017a366004611467565b6105bc565b60405161015691906114d8565b34801561019857600080fd5b506101a16105f6565b6040516101569291906114eb565b3480156101bb57600080fd5b5061010261086d565b3480156101d057600080fd5b506033546040516001600160a01b039091168152602001610156565b3480156101f857600080fd5b5060cb5461014c565b34801561020d57600080fd5b5061022161021c366004611580565b6108a3565b6040516101569291906115a3565b34801561023b57600080fd5b5061014c60cb5481565b34801561025157600080fd5b506101026102603660046112e4565b61092d565b34801561027157600080fd5b506101026102803660046115bc565b6109c5565b34801561029157600080fd5b506102a56102a0366004611467565b610a73565b604051610156929190611600565b306001600160a01b037f00000000000000000000000000000000000000000000000000000000000000001614156103055760405162461bcd60e51b81526004016102fc90611625565b60405180910390fd5b7f00000000000000000000000000000000000000000000000000000000000000006001600160a01b031661034e6000805160206119ea833981519152546001600160a01b031690565b6001600160a01b0316146103745760405162461bcd60e51b81526004016102fc90611671565b61037d81610bae565b6040805160008082526020820190925261039991839190610bd8565b50565b6033546001600160a01b031633146103c65760405162461bcd60e51b81526004016102fc906116bd565b604080518082018252838152602080820184905260cb54600090815260cc82529290922081518051929391926103ff9284920190611234565b5060208281015180516104189260018501920190611234565b50905050600160cb600082825461042f9190611708565b90915550505050565b306001600160a01b037f00000000000000000000000000000000000000000000000000000000000000001614156104815760405162461bcd60e51b81526004016102fc90611625565b7f00000000000000000000000000000000000000000000000000000000000000006001600160a01b03166104ca6000805160206119ea833981519152546001600160a01b031690565b6001600160a01b0316146104f05760405162461bcd60e51b81526004016102fc90611671565b6104f982610bae565b61050582826001610bd8565b5050565b6000306001600160a01b037f000000000000000000000000000000000000000000000000000000000000000016146105a95760405162461bcd60e51b815260206004820152603860248201527f555550535570677261646561626c653a206d757374206e6f742062652063616c60448201527f6c6564207468726f7567682064656c656761746563616c6c000000000000000060648201526084016102fc565b506000805160206119ea83398151915290565b600081815260cc602090815260409182902091516060926105e09260ca92016117f5565b6040516020818303038152906040529050919050565b606080600060cb5467ffffffffffffffff811115610616576106166112ff565b60405190808252806020026020018201604052801561065b57816020015b60408051808201909152606080825260208201528152602001906001900390816106345790505b50905060005b60cb548110156107d457600081815260cc602052604090819020815180830190925280548290829061069290611720565b80601f01602080910402602001604051908101604052809291908181526020018280546106be90611720565b801561070b5780601f106106e05761010080835404028352916020019161070b565b820191906000526020600020905b8154815290600101906020018083116106ee57829003601f168201915b5050505050815260200160018201805461072490611720565b80601f016020809104026020016040519081016040528092919081815260200182805461075090611720565b801561079d5780601f106107725761010080835404028352916020019161079d565b820191906000526020600020905b81548152906001019060200180831161078057829003601f168201915b5050505050815250508282815181106107b8576107b861182d565b6020026020010181905250806107cd90611843565b9050610661565b5060ca818180546107e490611720565b80601f016020809104026020016040519081016040528092919081815260200182805461081090611720565b801561085d5780601f106108325761010080835404028352916020019161085d565b820191906000526020600020905b81548152906001019060200180831161084057829003601f168201915b5050505050915092509250509091565b6033546001600160a01b031633146108975760405162461bcd60e51b81526004016102fc906116bd565b6108a16000610d43565b565b6000606060006108b860cb548560ff16610d95565b600081815260cc602052604081209192506108e26103e76108da88600a61185e565b60ff16610d95565b6108ed906001611708565b90506000826001016108fe83610de7565b60405160200161090f929190611883565b60408051601f19818403018152919052939793965092945050505050565b6033546001600160a01b031633146109575760405162461bcd60e51b81526004016102fc906116bd565b6001600160a01b0381166109bc5760405162461bcd60e51b815260206004820152602660248201527f4f776e61626c653a206e6577206f776e657220697320746865207a65726f206160448201526564647265737360d01b60648201526084016102fc565b61039981610d43565b60006109d16001610eed565b905080156109e9576000805461ff0019166101001790555b6109f1610f7a565b6109f9610fa9565b60c980546001600160a01b0319166001600160a01b0385161790558151610a279060ca906020850190611234565b508015610a6e576000805461ff0019169055604051600181527f7f26b83ff96e1f2b6a682f133852f6798a09c465da95921460cefb38474024989060200160405180910390a15b505050565b60cc60205260009081526040902080548190610a8e90611720565b80601f0160208091040260200160405190810160405280929190818152602001828054610aba90611720565b8015610b075780601f10610adc57610100808354040283529160200191610b07565b820191906000526020600020905b815481529060010190602001808311610aea57829003601f168201915b505050505090806001018054610b1c90611720565b80601f0160208091040260200160405190810160405280929190818152602001828054610b4890611720565b8015610b955780601f10610b6a57610100808354040283529160200191610b95565b820191906000526020600020905b815481529060010190602001808311610b7857829003601f168201915b5050505050905082565b6001600160a01b03163b151590565b6033546001600160a01b031633146103995760405162461bcd60e51b81526004016102fc906116bd565b7f4910fdfa16fed3260ed0e7147f7cc6da11a60208b5b9406d12a635614ffd91435460ff1615610c0b57610a6e83610fd0565b826001600160a01b03166352d1902d6040518163ffffffff1660e01b8152600401602060405180830381865afa925050508015610c65575060408051601f3d908101601f19168201909252610c62918101906118c6565b60015b610cc85760405162461bcd60e51b815260206004820152602e60248201527f45524331393637557067726164653a206e657720696d706c656d656e7461746960448201526d6f6e206973206e6f74205555505360901b60648201526084016102fc565b6000805160206119ea8339815191528114610d375760405162461bcd60e51b815260206004820152602960248201527f45524331393637557067726164653a20756e737570706f727465642070726f786044820152681a58589b195555525160ba1b60648201526084016102fc565b50610a6e83838361106c565b603380546001600160a01b038381166001600160a01b0319831681179093556040519116919082907f8be0079c531659141344cd1fd0a4f28419497f9722a3daafe3b4186f6b6457e090600090a35050565b6040805160208101839052449181019190915242606082015260016080820152600090839060a0016040516020818303038152906040528051906020012060001c610de091906118f5565b9392505050565b606081610e0b5750506040805180820190915260018152600360fc1b602082015290565b8160005b8115610e355780610e1f81611843565b9150610e2e9050600a83611909565b9150610e0f565b60008167ffffffffffffffff811115610e5057610e506112ff565b6040519080825280601f01601f191660200182016040528015610e7a576020820181803683370190505b5090505b8415610ee557610e8f60018361191d565b9150610e9c600a866118f5565b610ea7906030611708565b60f81b818381518110610ebc57610ebc61182d565b60200101906001600160f81b031916908160001a905350610ede600a86611909565b9450610e7e565b949350505050565b60008054610100900460ff1615610f34578160ff166001148015610f105750303b155b610f2c5760405162461bcd60e51b81526004016102fc90611934565b506000919050565b60005460ff808416911610610f5b5760405162461bcd60e51b81526004016102fc90611934565b506000805460ff191660ff92909216919091179055600190565b919050565b600054610100900460ff16610fa15760405162461bcd60e51b81526004016102fc90611982565b6108a1611097565b600054610100900460ff166108a15760405162461bcd60e51b81526004016102fc90611982565b6001600160a01b0381163b61103d5760405162461bcd60e51b815260206004820152602d60248201527f455243313936373a206e657720696d706c656d656e746174696f6e206973206e60448201526c1bdd08184818dbdb9d1c9858dd609a1b60648201526084016102fc565b6000805160206119ea83398151915280546001600160a01b0319166001600160a01b0392909216919091179055565b611075836110c7565b6000825111806110825750805b15610a6e576110918383611107565b50505050565b600054610100900460ff166110be5760405162461bcd60e51b81526004016102fc90611982565b6108a133610d43565b6110d081610fd0565b6040516001600160a01b038216907fbc7cd75a20ee27fd9adebab32041f755214dbc6bffa90cc0225b39da2e5c2d3b90600090a250565b60606001600160a01b0383163b61116f5760405162461bcd60e51b815260206004820152602660248201527f416464726573733a2064656c65676174652063616c6c20746f206e6f6e2d636f6044820152651b9d1c9858dd60d21b60648201526084016102fc565b600080846001600160a01b03168460405161118a91906119cd565b600060405180830381855af49150503d80600081146111c5576040519150601f19603f3d011682016040523d82523d6000602084013e6111ca565b606091505b50915091506111f28282604051806060016040528060278152602001611a0a602791396111fb565b95945050505050565b6060831561120a575081610de0565b82511561121a5782518084602001fd5b8160405162461bcd60e51b81526004016102fc91906114d8565b82805461124090611720565b90600052602060002090601f01602090048101928261126257600085556112a8565b82601f1061127b57805160ff19168380011785556112a8565b828001600101855582156112a8579182015b828111156112a857825182559160200191906001019061128d565b506112b49291506112b8565b5090565b5b808211156112b457600081556001016112b9565b80356001600160a01b0381168114610f7557600080fd5b6000602082840312156112f657600080fd5b610de0826112cd565b634e487b7160e01b600052604160045260246000fd5b600067ffffffffffffffff80841115611330576113306112ff565b604051601f8501601f19908116603f01168101908282118183101715611358576113586112ff565b8160405280935085815286868601111561137157600080fd5b858560208301376000602087830101525050509392505050565b600082601f83011261139c57600080fd5b610de083833560208501611315565b600080604083850312156113be57600080fd5b823567ffffffffffffffff808211156113d657600080fd5b6113e28683870161138b565b935060208501359150808211156113f857600080fd5b506114058582860161138b565b9150509250929050565b6000806040838503121561142257600080fd5b61142b836112cd565b9150602083013567ffffffffffffffff81111561144757600080fd5b8301601f8101851361145857600080fd5b61140585823560208401611315565b60006020828403121561147957600080fd5b5035919050565b60005b8381101561149b578181015183820152602001611483565b838111156110915750506000910152565b600081518084526114c4816020860160208601611480565b601f01601f19169290920160200192915050565b602081526000610de060208301846114ac565b600060408083526114fe818401866114ac565b6020848203818601528186518084528284019150828160051b85010183890160005b8381101561157057868303601f19018552815180518985526115448a8601826114ac565b91880151858303868a015291905061155c81836114ac565b968801969450505090850190600101611520565b50909a9950505050505050505050565b60006020828403121561159257600080fd5b813560ff81168114610de057600080fd5b828152604060208201526000610ee560408301846114ac565b600080604083850312156115cf57600080fd5b6115d8836112cd565b9150602083013567ffffffffffffffff8111156115f457600080fd5b6114058582860161138b565b60408152600061161360408301856114ac565b82810360208401526111f281856114ac565b6020808252602c908201527f46756e6374696f6e206d7573742062652063616c6c6564207468726f7567682060408201526b19195b1959d85d1958d85b1b60a21b606082015260800190565b6020808252602c908201527f46756e6374696f6e206d7573742062652063616c6c6564207468726f7567682060408201526b6163746976652070726f787960a01b606082015260800190565b6020808252818101527f4f776e61626c653a2063616c6c6572206973206e6f7420746865206f776e6572604082015260600190565b634e487b7160e01b600052601160045260246000fd5b6000821982111561171b5761171b6116f2565b500190565b600181811c9082168061173457607f821691505b6020821081141561175557634e487b7160e01b600052602260045260246000fd5b50919050565b8054600090600181811c908083168061177557607f831692505b602080841082141561179757634e487b7160e01b600052602260045260246000fd5b8180156117ab57600181146117bc576117e9565b60ff198616895284890196506117e9565b60008881526020902060005b868110156117e15781548b8201529085019083016117c8565b505084890196505b50505050505092915050565b6000611801828561175b565b602f60f81b8152611815600182018561175b565b652d312e706e6760d01b815260060195945050505050565b634e487b7160e01b600052603260045260246000fd5b6000600019821415611857576118576116f2565b5060010190565b600060ff821660ff84168060ff0382111561187b5761187b6116f2565b019392505050565b600061188f828561175b565b602f60f81b815283516118a9816001840160208801611480565b632e706e6760e01b60019290910191820152600501949350505050565b6000602082840312156118d857600080fd5b5051919050565b634e487b7160e01b600052601260045260246000fd5b600082611904576119046118df565b500690565b600082611918576119186118df565b500490565b60008282101561192f5761192f6116f2565b500390565b6020808252602e908201527f496e697469616c697a61626c653a20636f6e747261637420697320616c72656160408201526d191e481a5b9a5d1a585b1a5e995960921b606082015260800190565b6020808252602b908201527f496e697469616c697a61626c653a20636f6e7472616374206973206e6f74206960408201526a6e697469616c697a696e6760a81b606082015260800190565b600082516119df818460208701611480565b919091019291505056fe360894a13ba1a3210667c828492db98dca3e2076cc3735a920a3ca505d382bbc416464726573733a206c6f772d6c6576656c2064656c65676174652063616c6c206661696c6564a26469706673582212200621ed401d2323d172d7fe479874dd36d2bf5cf59070772a2560b1affd28297064736f6c634300080c0033496e697469616c697a61626c653a20636f6e747261637420697320616c726561",
  "linkReferences": {},
  "deployedLinkReferences": {}
}