{
  "_format": "hh-sol-artifact-1",
  "contractName": "LandNFTContract",
  "sourceName": "src/backend/contracts/LandNFT.sol",
  "abi": [
    {
      "inputs": [],
      "stateMutability": "nonpayable",
      "type": "constructor"
    },
    {
      "inputs": [
        {
          "internalType": "string",
          "name": "message",
          "type": "string"
        },
        {
          "internalType": "uint256",
          "name": "limit",
          "type": "uint256"
        }
      ],
      "name": "LandsLimitError",
      "type": "error"
    },
    {
      "inputs": [
        {
          "internalType": "string",
          "name": "message",
          "type": "string"
        }
      ],
      "name": "LandsSmallLimitError",
      "type": "error"
    },
    {
      "anonymous": false,
      "inputs": [
        {
          "indexed": false,
          "internalType": "address",
          "name": "previousAdmin",
          "type": "address"
        },
        {
          "indexed": false,
          "internalType": "address",
          "name": "newAdmin",
          "type": "address"
        }
      ],
      "name": "AdminChanged",
      "type": "event"
    },
    {
      "anonymous": false,
      "inputs": [
        {
          "indexed": true,
          "internalType": "address",
          "name": "owner",
          "type": "address"
        },
        {
          "indexed": true,
          "internalType": "address",
          "name": "approved",
          "type": "address"
        },
        {
          "indexed": true,
          "internalType": "uint256",
          "name": "tokenId",
          "type": "uint256"
        }
      ],
      "name": "Approval",
      "type": "event"
    },
    {
      "anonymous": false,
      "inputs": [
        {
          "indexed": true,
          "internalType": "address",
          "name": "owner",
          "type": "address"
        },
        {
          "indexed": true,
          "internalType": "address",
          "name": "operator",
          "type": "address"
        },
        {
          "indexed": false,
          "internalType": "bool",
          "name": "approved",
          "type": "bool"
        }
      ],
      "name": "ApprovalForAll",
      "type": "event"
    },
    {
      "anonymous": false,
      "inputs": [
        {
          "indexed": true,
          "internalType": "address",
          "name": "beacon",
          "type": "address"
        }
      ],
      "name": "BeaconUpgraded",
      "type": "event"
    },
    {
      "anonymous": false,
      "inputs": [
        {
          "indexed": false,
          "internalType": "uint8",
          "name": "version",
          "type": "uint8"
        }
      ],
      "name": "Initialized",
      "type": "event"
    },
    {
      "anonymous": false,
      "inputs": [
        {
          "indexed": true,
          "internalType": "address",
          "name": "previousOwner",
          "type": "address"
        },
        {
          "indexed": true,
          "internalType": "address",
          "name": "newOwner",
          "type": "address"
        }
      ],
      "name": "OwnershipTransferred",
      "type": "event"
    },
    {
      "anonymous": false,
      "inputs": [
        {
          "indexed": true,
          "internalType": "address",
          "name": "from",
          "type": "address"
        },
        {
          "indexed": true,
          "internalType": "address",
          "name": "to",
          "type": "address"
        },
        {
          "indexed": true,
          "internalType": "uint256",
          "name": "tokenId",
          "type": "uint256"
        }
      ],
      "name": "Transfer",
      "type": "event"
    },
    {
      "anonymous": false,
      "inputs": [
        {
          "indexed": true,
          "internalType": "address",
          "name": "implementation",
          "type": "address"
        }
      ],
      "name": "Upgraded",
      "type": "event"
    },
    {
      "inputs": [
        {
          "internalType": "address",
          "name": "to",
          "type": "address"
        },
        {
          "internalType": "uint256",
          "name": "tokenId",
          "type": "uint256"
        }
      ],
      "name": "approve",
      "outputs": [],
      "stateMutability": "nonpayable",
      "type": "function"
    },
    {
      "inputs": [
        {
          "internalType": "address",
          "name": "owner",
          "type": "address"
        }
      ],
      "name": "balanceOf",
      "outputs": [
        {
          "internalType": "uint256",
          "name": "",
          "type": "uint256"
        }
      ],
      "stateMutability": "view",
      "type": "function"
    },
    {
      "inputs": [
        {
          "internalType": "uint256",
          "name": "tokenId",
          "type": "uint256"
        }
      ],
      "name": "burn",
      "outputs": [],
      "stateMutability": "nonpayable",
      "type": "function"
    },
    {
      "inputs": [
        {
          "internalType": "uint256",
          "name": "_id",
          "type": "uint256"
        },
        {
          "internalType": "uint256",
          "name": "_payAmount",
          "type": "uint256"
        },
        {
          "internalType": "address",
          "name": "_newOwner",
          "type": "address"
        }
      ],
      "name": "buyToken",
      "outputs": [
        {
          "internalType": "address",
          "name": "",
          "type": "address"
        }
      ],
      "stateMutability": "nonpayable",
      "type": "function"
    },
    {
      "inputs": [],
      "name": "getAllLands",
      "outputs": [
        {
          "components": [
            {
              "internalType": "uint256",
              "name": "price",
              "type": "uint256"
            },
            {
              "internalType": "uint256",
              "name": "limitCount",
              "type": "uint256"
            },
            {
              "internalType": "uint8",
              "name": "zombiesPerDay",
              "type": "uint8"
            },
            {
              "internalType": "string",
              "name": "media",
              "type": "string"
            }
          ],
          "internalType": "struct LandNFTContract.LandTypeData[]",
          "name": "",
          "type": "tuple[]"
        }
      ],
      "stateMutability": "view",
      "type": "function"
    },
    {
      "inputs": [
        {
          "internalType": "uint256",
          "name": "tokenId",
          "type": "uint256"
        }
      ],
      "name": "getApproved",
      "outputs": [
        {
          "internalType": "address",
          "name": "",
          "type": "address"
        }
      ],
      "stateMutability": "view",
      "type": "function"
    },
    {
      "inputs": [
        {
          "internalType": "uint256",
          "name": "_landId",
          "type": "uint256"
        }
      ],
      "name": "getLandMintZombiesCount",
      "outputs": [
        {
          "internalType": "uint8",
          "name": "",
          "type": "uint8"
        }
      ],
      "stateMutability": "view",
      "type": "function"
    },
    {
      "inputs": [
        {
          "internalType": "uint256[]",
          "name": "_listId",
          "type": "uint256[]"
        }
      ],
      "name": "getListById",
      "outputs": [
        {
          "components": [
            {
              "internalType": "uint256",
              "name": "tokenId",
              "type": "uint256"
            },
            {
              "internalType": "enum LandNFTContract.LandType",
              "name": "landType",
              "type": "uint8"
            },
            {
              "internalType": "uint256",
              "name": "lastZombieClaim",
              "type": "uint256"
            },
            {
              "internalType": "uint256",
              "name": "salePrice",
              "type": "uint256"
            },
            {
              "internalType": "string",
              "name": "media",
              "type": "string"
            },
            {
              "internalType": "string",
              "name": "nftType",
              "type": "string"
            },
            {
              "internalType": "uint256",
              "name": "discoverEvents",
              "type": "uint256"
            },
            {
              "internalType": "uint256",
              "name": "countMintedZombies",
              "type": "uint256"
            },
            {
              "internalType": "address",
              "name": "ownerId",
              "type": "address"
            }
          ],
          "internalType": "struct LandNFTContract.Land[]",
          "name": "",
          "type": "tuple[]"
        }
      ],
      "stateMutability": "view",
      "type": "function"
    },
    {
      "inputs": [
        {
          "internalType": "uint256",
          "name": "_startIndex",
          "type": "uint256"
        },
        {
          "internalType": "uint8",
          "name": "_count",
          "type": "uint8"
        },
        {
          "internalType": "string",
          "name": "_filterLandType",
          "type": "string"
        }
      ],
      "name": "getMarketItems",
      "outputs": [
        {
          "internalType": "uint256",
          "name": "",
          "type": "uint256"
        },
        {
          "components": [
            {
              "internalType": "uint256",
              "name": "tokenId",
              "type": "uint256"
            },
            {
              "internalType": "enum LandNFTContract.LandType",
              "name": "landType",
              "type": "uint8"
            },
            {
              "internalType": "uint256",
              "name": "lastZombieClaim",
              "type": "uint256"
            },
            {
              "internalType": "uint256",
              "name": "salePrice",
              "type": "uint256"
            },
            {
              "internalType": "string",
              "name": "media",
              "type": "string"
            },
            {
              "internalType": "string",
              "name": "nftType",
              "type": "string"
            },
            {
              "internalType": "uint256",
              "name": "discoverEvents",
              "type": "uint256"
            },
            {
              "internalType": "uint256",
              "name": "countMintedZombies",
              "type": "uint256"
            },
            {
              "internalType": "address",
              "name": "ownerId",
              "type": "address"
            }
          ],
          "internalType": "struct LandNFTContract.Land[]",
          "name": "",
          "type": "tuple[]"
        }
      ],
      "stateMutability": "view",
      "type": "function"
    },
    {
      "inputs": [
        {
          "internalType": "address",
          "name": "_mainContract",
          "type": "address"
        }
      ],
      "name": "initialize",
      "outputs": [],
      "stateMutability": "nonpayable",
      "type": "function"
    },
    {
      "inputs": [
        {
          "internalType": "address",
          "name": "owner",
          "type": "address"
        },
        {
          "internalType": "address",
          "name": "operator",
          "type": "address"
        }
      ],
      "name": "isApprovedForAll",
      "outputs": [
        {
          "internalType": "bool",
          "name": "",
          "type": "bool"
        }
      ],
      "stateMutability": "view",
      "type": "function"
    },
    {
      "inputs": [
        {
          "internalType": "uint256",
          "name": "_id",
          "type": "uint256"
        }
      ],
      "name": "landInfo",
      "outputs": [
        {
          "internalType": "address",
          "name": "",
          "type": "address"
        },
        {
          "internalType": "string",
          "name": "",
          "type": "string"
        },
        {
          "internalType": "uint256",
          "name": "",
          "type": "uint256"
        }
      ],
      "stateMutability": "view",
      "type": "function"
    },
    {
      "inputs": [
        {
          "internalType": "uint256",
          "name": "_id",
          "type": "uint256"
        }
      ],
      "name": "landInfoType",
      "outputs": [
        {
          "internalType": "string",
          "name": "",
          "type": "string"
        }
      ],
      "stateMutability": "view",
      "type": "function"
    },
    {
      "inputs": [
        {
          "internalType": "uint256",
          "name": "_landId",
          "type": "uint256"
        }
      ],
      "name": "landSetMintTimestamp",
      "outputs": [],
      "stateMutability": "nonpayable",
      "type": "function"
    },
    {
      "inputs": [
        {
          "internalType": "enum LandNFTContract.LandType",
          "name": "",
          "type": "uint8"
        }
      ],
      "name": "landTypeCount",
      "outputs": [
        {
          "internalType": "uint256",
          "name": "",
          "type": "uint256"
        }
      ],
      "stateMutability": "view",
      "type": "function"
    },
    {
      "inputs": [
        {
          "internalType": "enum LandNFTContract.LandType",
          "name": "",
          "type": "uint8"
        }
      ],
      "name": "landTypeData",
      "outputs": [
        {
          "internalType": "uint256",
          "name": "price",
          "type": "uint256"
        },
        {
          "internalType": "uint256",
          "name": "limitCount",
          "type": "uint256"
        },
        {
          "internalType": "uint8",
          "name": "zombiesPerDay",
          "type": "uint8"
        },
        {
          "internalType": "string",
          "name": "media",
          "type": "string"
        }
      ],
      "stateMutability": "view",
      "type": "function"
    },
    {
      "inputs": [
        {
          "internalType": "uint8",
          "name": "",
          "type": "uint8"
        }
      ],
      "name": "landTypeIndex",
      "outputs": [
        {
          "internalType": "enum LandNFTContract.LandType",
          "name": "",
          "type": "uint8"
        }
      ],
      "stateMutability": "view",
      "type": "function"
    },
    {
      "inputs": [],
      "name": "name",
      "outputs": [
        {
          "internalType": "string",
          "name": "",
          "type": "string"
        }
      ],
      "stateMutability": "view",
      "type": "function"
    },
    {
      "inputs": [],
      "name": "owner",
      "outputs": [
        {
          "internalType": "address",
          "name": "",
          "type": "address"
        }
      ],
      "stateMutability": "view",
      "type": "function"
    },
    {
      "inputs": [
        {
          "internalType": "uint256",
          "name": "tokenId",
          "type": "uint256"
        }
      ],
      "name": "ownerOf",
      "outputs": [
        {
          "internalType": "address",
          "name": "",
          "type": "address"
        }
      ],
      "stateMutability": "view",
      "type": "function"
    },
    {
      "inputs": [],
      "name": "proxiableUUID",
      "outputs": [
        {
          "internalType": "bytes32",
          "name": "",
          "type": "bytes32"
        }
      ],
      "stateMutability": "view",
      "type": "function"
    },
    {
      "inputs": [],
      "name": "renounceOwnership",
      "outputs": [],
      "stateMutability": "nonpayable",
      "type": "function"
    },
    {
      "inputs": [],
      "name": "safeMint",
      "outputs": [
        {
          "internalType": "uint256",
          "name": "",
          "type": "uint256"
        }
      ],
      "stateMutability": "payable",
      "type": "function"
    },
    {
      "inputs": [
        {
          "internalType": "address",
          "name": "from",
          "type": "address"
        },
        {
          "internalType": "address",
          "name": "to",
          "type": "address"
        },
        {
          "internalType": "uint256",
          "name": "tokenId",
          "type": "uint256"
        }
      ],
      "name": "safeTransferFrom",
      "outputs": [],
      "stateMutability": "nonpayable",
      "type": "function"
    },
    {
      "inputs": [
        {
          "internalType": "address",
          "name": "from",
          "type": "address"
        },
        {
          "internalType": "address",
          "name": "to",
          "type": "address"
        },
        {
          "internalType": "uint256",
          "name": "tokenId",
          "type": "uint256"
        },
        {
          "internalType": "bytes",
          "name": "_data",
          "type": "bytes"
        }
      ],
      "name": "safeTransferFrom",
      "outputs": [],
      "stateMutability": "nonpayable",
      "type": "function"
    },
    {
      "inputs": [
        {
          "internalType": "address",
          "name": "operator",
          "type": "address"
        },
        {
          "internalType": "bool",
          "name": "approved",
          "type": "bool"
        }
      ],
      "name": "setApprovalForAll",
      "outputs": [],
      "stateMutability": "nonpayable",
      "type": "function"
    },
    {
      "inputs": [
        {
          "internalType": "uint256",
          "name": "_tokenId",
          "type": "uint256"
        },
        {
          "internalType": "uint256",
          "name": "_price",
          "type": "uint256"
        },
        {
          "internalType": "address",
          "name": "_ownerId",
          "type": "address"
        }
      ],
      "name": "setMarketSalePrice",
      "outputs": [],
      "stateMutability": "nonpayable",
      "type": "function"
    },
    {
      "inputs": [
        {
          "internalType": "bytes4",
          "name": "_interfaceId",
          "type": "bytes4"
        }
      ],
      "name": "supportsInterface",
      "outputs": [
        {
          "internalType": "bool",
          "name": "",
          "type": "bool"
        }
      ],
      "stateMutability": "view",
      "type": "function"
    },
    {
      "inputs": [],
      "name": "symbol",
      "outputs": [
        {
          "internalType": "string",
          "name": "",
          "type": "string"
        }
      ],
      "stateMutability": "view",
      "type": "function"
    },
    {
      "inputs": [
        {
          "internalType": "uint256",
          "name": "index",
          "type": "uint256"
        }
      ],
      "name": "tokenByIndex",
      "outputs": [
        {
          "internalType": "uint256",
          "name": "",
          "type": "uint256"
        }
      ],
      "stateMutability": "view",
      "type": "function"
    },
    {
      "inputs": [
        {
          "internalType": "address",
          "name": "owner",
          "type": "address"
        },
        {
          "internalType": "uint256",
          "name": "index",
          "type": "uint256"
        }
      ],
      "name": "tokenOfOwnerByIndex",
      "outputs": [
        {
          "internalType": "uint256",
          "name": "",
          "type": "uint256"
        }
      ],
      "stateMutability": "view",
      "type": "function"
    },
    {
      "inputs": [
        {
          "internalType": "uint256",
          "name": "_tokenId",
          "type": "uint256"
        }
      ],
      "name": "tokenURI",
      "outputs": [
        {
          "internalType": "string",
          "name": "",
          "type": "string"
        }
      ],
      "stateMutability": "view",
      "type": "function"
    },
    {
      "inputs": [],
      "name": "totalSupply",
      "outputs": [
        {
          "internalType": "uint256",
          "name": "",
          "type": "uint256"
        }
      ],
      "stateMutability": "view",
      "type": "function"
    },
    {
      "inputs": [
        {
          "internalType": "address",
          "name": "from",
          "type": "address"
        },
        {
          "internalType": "address",
          "name": "to",
          "type": "address"
        },
        {
          "internalType": "uint256",
          "name": "tokenId",
          "type": "uint256"
        }
      ],
      "name": "transferFrom",
      "outputs": [],
      "stateMutability": "nonpayable",
      "type": "function"
    },
    {
      "inputs": [
        {
          "internalType": "address",
          "name": "newOwner",
          "type": "address"
        }
      ],
      "name": "transferOwnership",
      "outputs": [],
      "stateMutability": "nonpayable",
      "type": "function"
    },
    {
      "inputs": [
        {
          "internalType": "address",
          "name": "newImplementation",
          "type": "address"
        }
      ],
      "name": "upgradeTo",
      "outputs": [],
      "stateMutability": "nonpayable",
      "type": "function"
    },
    {
      "inputs": [
        {
          "internalType": "address",
          "name": "newImplementation",
          "type": "address"
        },
        {
          "internalType": "bytes",
          "name": "data",
          "type": "bytes"
        }
      ],
      "name": "upgradeToAndCall",
      "outputs": [],
      "stateMutability": "payable",
      "type": "function"
    },
    {
      "inputs": [],
      "name": "userLands",
      "outputs": [
        {
          "components": [
            {
              "internalType": "uint256",
              "name": "tokenId",
              "type": "uint256"
            },
            {
              "internalType": "enum LandNFTContract.LandType",
              "name": "landType",
              "type": "uint8"
            },
            {
              "internalType": "uint256",
              "name": "lastZombieClaim",
              "type": "uint256"
            },
            {
              "internalType": "uint256",
              "name": "salePrice",
              "type": "uint256"
            },
            {
              "internalType": "string",
              "name": "media",
              "type": "string"
            },
            {
              "internalType": "string",
              "name": "nftType",
              "type": "string"
            },
            {
              "internalType": "uint256",
              "name": "discoverEvents",
              "type": "uint256"
            },
            {
              "internalType": "uint256",
              "name": "countMintedZombies",
              "type": "uint256"
            },
            {
              "internalType": "address",
              "name": "ownerId",
              "type": "address"
            }
          ],
          "internalType": "struct LandNFTContract.Land[]",
          "name": "",
          "type": "tuple[]"
        }
      ],
      "stateMutability": "view",
      "type": "function"
    },
    {
      "inputs": [
        {
          "internalType": "uint256",
          "name": "_amount",
          "type": "uint256"
        }
      ],
      "name": "withdrawToken",
      "outputs": [],
      "stateMutability": "nonpayable",
      "type": "function"
    }
  ],
  "bytecode": "0x60a0604052306080523480156200001557600080fd5b506200002062000026565b62000156565b6200003260ff62000035565b50565b60008054610100900460ff1615620000ce578160ff1660011480156200006e57506200006c306200014760201b6200283a1760201c565b155b620000c65760405162461bcd60e51b815260206004820152602e60248201526000805160206200522383398151915260448201526d191e481a5b9a5d1a585b1a5e995960921b60648201526084015b60405180910390fd5b506000919050565b60005460ff8084169116106200012d5760405162461bcd60e51b815260206004820152602e60248201526000805160206200522383398151915260448201526d191e481a5b9a5d1a585b1a5e995960921b6064820152608401620000bd565b506000805460ff191660ff92909216919091179055600190565b6001600160a01b03163b151590565b6080516150956200018e60003960008181610ea501528181610ee5015281816110170152818161105701526111d501526150956000f3fe60806040526004361061022f5760003560e01c80636352211e1161012e578063b7b6e543116100ab578063d8e4c9b21161006f578063d8e4c9b2146106b4578063e7e937b9146106e2578063e985e9c514610714578063f2fde38b1461075d578063feb9fd641461077d57600080fd5b8063b7b6e54314610603578063b88d4fde14610625578063c3edcdd114610645578063c4d66de814610674578063c87b56dd1461069457600080fd5b80638e169b14116100f25780638e169b141461054057806395d89b4114610560578063a22cb46514610575578063a2e7ccb514610595578063a5d6c8e9146105d357600080fd5b80636352211e146104c45780636871ee40146104e457806370a08231146104ec578063715018a61461050c5780638da5cb5b1461052157600080fd5b806323b872dd116101bc5780634f1ef286116101805780634f1ef2861461043c5780634f6ccce71461044f57806350baa6221461046f57806352d1902d1461048f57806359cc3cb8146104a457600080fd5b806323b872dd1461039c5780632f745c59146103bc5780633659cfe6146103dc57806342842e0e146103fc57806342966c681461041c57600080fd5b8063095ea7b311610203578063095ea7b3146102e957806317300fcc1461030b57806317cdd6161461034757806318160ddd1461036757806321466eb51461037c57600080fd5b80621d436a1461023457806301ffc9a71461025f57806306fdde031461028f578063081812fc146102b1575b600080fd5b34801561024057600080fd5b5061024961079d565b60405161025691906144b6565b60405180910390f35b34801561026b57600080fd5b5061027f61027a3660046144df565b610a0a565b6040519015158152602001610256565b34801561029b57600080fd5b506102a4610a1b565b60405161025691906144fc565b3480156102bd57600080fd5b506102d16102cc36600461450f565b610aad565b6040516001600160a01b039091168152602001610256565b3480156102f557600080fd5b5061030961030436600461453d565b610b3a565b005b34801561031757600080fd5b50610339610326366004614569565b6101c66020526000908152604090205481565b604051908152602001610256565b34801561035357600080fd5b5061030961036236600461450f565b610c50565b34801561037357600080fd5b50609954610339565b34801561038857600080fd5b506102d161039736600461458a565b610c89565b3480156103a857600080fd5b506103096103b73660046145c3565b610dd2565b3480156103c857600080fd5b506103396103d736600461453d565b610e04565b3480156103e857600080fd5b506103096103f7366004614604565b610e9a565b34801561040857600080fd5b506103096104173660046145c3565b610f7a565b34801561042857600080fd5b5061030961043736600461450f565b610f95565b61030961044a3660046146e0565b61100c565b34801561045b57600080fd5b5061033961046a36600461450f565b6110dd565b34801561047b57600080fd5b5061030961048a36600461450f565b611170565b34801561049b57600080fd5b506103396111c8565b3480156104b057600080fd5b506102a46104bf36600461450f565b61127b565b3480156104d057600080fd5b506102d16104df36600461450f565b61129d565b610339611314565b3480156104f857600080fd5b50610339610507366004614604565b6116bb565b34801561051857600080fd5b50610309611742565b34801561052d57600080fd5b5061012d546001600160a01b03166102d1565b34801561054c57600080fd5b5061024961055b366004614754565b611779565b34801561056c57600080fd5b506102a46119eb565b34801561058157600080fd5b506103096105903660046147ea565b6119fa565b3480156105a157600080fd5b506105c66105b0366004614839565b6101c56020526000908152604090205460ff1681565b6040516102569190614854565b3480156105df57600080fd5b506105f36105ee366004614569565b611a05565b6040516102569493929190614862565b34801561060f57600080fd5b50610618611abd565b6040516102569190614894565b34801561063157600080fd5b50610309610640366004614922565b611c6f565b34801561065157600080fd5b5061066561066036600461450f565b611ca7565b6040516102569392919061498e565b34801561068057600080fd5b5061030961068f366004614604565b611cf1565b3480156106a057600080fd5b506102a46106af36600461450f565b6122e7565b3480156106c057600080fd5b506106d46106cf3660046149c2565b6122f2565b604051610256929190614a2d565b3480156106ee57600080fd5b506107026106fd36600461450f565b61267a565b60405160ff9091168152602001610256565b34801561072057600080fd5b5061027f61072f366004614a46565b6001600160a01b039182166000908152606a6020908152604080832093909416825291909152205460ff1690565b34801561076957600080fd5b50610309610778366004614604565b612709565b34801561078957600080fd5b5061030961079836600461458a565b6127a2565b606060006107aa336116bb565b905060008167ffffffffffffffff8111156107c7576107c7614621565b60405190808252806020026020018201604052801561080057816020015b6107ed61421b565b8152602001906001900390816107e55790505b50905060005b82811015610a0357600061081a3383610e04565b60008181526101c960209081526040918290208251610120810190935280548352600181015493945091929083019060ff16600381111561085d5761085d614340565b600381111561086e5761086e614340565b8152602001600282015481526020016003820154815260200160048201805461089690614a74565b80601f01602080910402602001604051908101604052809291908181526020018280546108c290614a74565b801561090f5780601f106108e45761010080835404028352916020019161090f565b820191906000526020600020905b8154815290600101906020018083116108f257829003601f168201915b5050505050815260200160058201805461092890614a74565b80601f016020809104026020016040519081016040528092919081815260200182805461095490614a74565b80156109a15780601f10610976576101008083540402835291602001916109a1565b820191906000526020600020905b81548152906001019060200180831161098457829003601f168201915b505050918352505060068201546020820152600782015460408201526008909101546001600160a01b031660609091015283518490849081106109e6576109e6614aa9565b602002602001018190525050806109fc90614ad5565b9050610806565b5092915050565b6000610a1582612849565b92915050565b606060658054610a2a90614a74565b80601f0160208091040260200160405190810160405280929190818152602001828054610a5690614a74565b8015610aa35780601f10610a7857610100808354040283529160200191610aa3565b820191906000526020600020905b815481529060010190602001808311610a8657829003601f168201915b5050505050905090565b6000610ab88261286e565b610b1e5760405162461bcd60e51b815260206004820152602c60248201527f4552433732313a20617070726f76656420717565727920666f72206e6f6e657860448201526b34b9ba32b73a103a37b5b2b760a11b60648201526084015b60405180910390fd5b506000908152606960205260409020546001600160a01b031690565b6000610b458261129d565b9050806001600160a01b0316836001600160a01b03161415610bb35760405162461bcd60e51b815260206004820152602160248201527f4552433732313a20617070726f76616c20746f2063757272656e74206f776e656044820152603960f91b6064820152608401610b15565b336001600160a01b0382161480610bcf5750610bcf813361072f565b610c415760405162461bcd60e51b815260206004820152603860248201527f4552433732313a20617070726f76652063616c6c6572206973206e6f74206f7760448201527f6e6572206e6f7220617070726f76656420666f7220616c6c00000000000000006064820152608401610b15565b610c4b838361288b565b505050565b610c586128f9565b60008181526101c960205260408120426002820155600701805460019290610c81908490614af0565b909155505050565b6000610c936129c2565b60008481526101c9602052604090206003810154610cea5760405162461bcd60e51b815260206004820152601460248201527315dc9bdb99c81c185e5b595b9d08185b5bdd5b9d60621b6044820152606401610b15565b83816003015414610d345760405162461bcd60e51b815260206004820152601460248201527315dc9bdb99c81c185e5b595b9d08185b5bdd5b9d60621b6044820152606401610b15565b60088101546001600160a01b0384811691161415610d945760405162461bcd60e51b815260206004820152601f60248201527f43616e27742073656c6c20666f72207468652073616d65206163636f756e74006044820152606401610b15565b6008810180546001600160a01b038581166001600160a01b03198316179092556000600384015516610dc7818588612a0d565b9150505b9392505050565b610ddd335b82612bb4565b610df95760405162461bcd60e51b8152600401610b1590614b08565b610c4b838383612a0d565b6000610e0f836116bb565b8210610e715760405162461bcd60e51b815260206004820152602b60248201527f455243373231456e756d657261626c653a206f776e657220696e646578206f7560448201526a74206f6620626f756e647360a81b6064820152608401610b15565b506001600160a01b03919091166000908152609760209081526040808320938352929052205490565b306001600160a01b037f0000000000000000000000000000000000000000000000000000000000000000161415610ee35760405162461bcd60e51b8152600401610b1590614b59565b7f00000000000000000000000000000000000000000000000000000000000000006001600160a01b0316610f2c600080516020614f68833981519152546001600160a01b031690565b6001600160a01b031614610f525760405162461bcd60e51b8152600401610b1590614ba5565b610f5b81612c9e565b60408051600080825260208201909252610f7791839190612cc9565b50565b610c4b83838360405180602001604052806000815250611c6f565b610f9e33610dd7565b6110035760405162461bcd60e51b815260206004820152603060248201527f4552433732314275726e61626c653a2063616c6c6572206973206e6f74206f7760448201526f1b995c881b9bdc88185c1c1c9bdd995960821b6064820152608401610b15565b610f7781612e34565b306001600160a01b037f00000000000000000000000000000000000000000000000000000000000000001614156110555760405162461bcd60e51b8152600401610b1590614b59565b7f00000000000000000000000000000000000000000000000000000000000000006001600160a01b031661109e600080516020614f68833981519152546001600160a01b031690565b6001600160a01b0316146110c45760405162461bcd60e51b8152600401610b1590614ba5565b6110cd82612c9e565b6110d982826001612cc9565b5050565b60006110e860995490565b821061114b5760405162461bcd60e51b815260206004820152602c60248201527f455243373231456e756d657261626c653a20676c6f62616c20696e646578206f60448201526b7574206f6620626f756e647360a01b6064820152608401610b15565b6099828154811061115e5761115e614aa9565b90600052602060002001549050919050565b61012d546001600160a01b0316331461119b5760405162461bcd60e51b8152600401610b1590614bf1565b604051339082156108fc029083906000818181858888f193505050501580156110d9573d6000803e3d6000fd5b6000306001600160a01b037f000000000000000000000000000000000000000000000000000000000000000016146112685760405162461bcd60e51b815260206004820152603860248201527f555550535570677261646561626c653a206d757374206e6f742062652063616c60448201527f6c6564207468726f7567682064656c656761746563616c6c00000000000000006064820152608401610b15565b50600080516020614f6883398151915290565b60008181526101c96020526040902060010154606090610a159060ff16612e46565b6000818152606760205260408120546001600160a01b031680610a155760405162461bcd60e51b815260206004820152602960248201527f4552433732313a206f776e657220717565727920666f72206e6f6e657869737460448201526832b73a103a37b5b2b760b91b6064820152608401610b15565b60008061131f612f1b565b905061132a81613042565b60006101c7600083600381111561134357611343614340565b600381111561135457611354614340565b8152602001908152602001600020600301805461137090614a74565b80601f016020809104026020016040519081016040528092919081815260200182805461139c90614a74565b80156113e95780601f106113be576101008083540402835291602001916113e9565b820191906000526020600020905b8154815290600101906020018083116113cc57829003601f168201915b5050505050905060006113fc6101c45490565b905061140d6101c480546001019055565b61141733826131ab565b61142181836131c5565b60405180610120016040528082815260200184600381111561144557611445614340565b815260200160008152602001600081526020016101c7600086600381111561146f5761146f614340565b600381111561148057611480614340565b8152602001908152602001600020600301805461149c90614a74565b80601f01602080910402602001604051908101604052809291908181526020018280546114c890614a74565b80156115155780601f106114ea57610100808354040283529160200191611515565b820191906000526020600020905b8154815290600101906020018083116114f857829003601f168201915b505050505081526020016040518060400160405280600481526020016313185b9960e21b81525081526020016000815260200160008152602001336001600160a01b03168152506101c960008381526020019081526020016000206000820151816000015560208201518160010160006101000a81548160ff021916908360038111156115a4576115a4614340565b02179055506040820151600282015560608201516003820155608082015180516115d8916004840191602090910190614271565b5060a082015180516115f4916005840191602090910190614271565b5060c0820151600682015560e0820151600782015561010090910151600890910180546001600160a01b0319166001600160a01b039092169190911790556101c6600084600381111561164957611649614340565b600381111561165a5761165a614340565b8152602001908152602001600020600081548092919061167990614ad5565b909155506000905083600381111561169357611693614340565b1415610dcb573360009081526101c860205260409020805460ff191660011790559392505050565b60006001600160a01b0382166117265760405162461bcd60e51b815260206004820152602a60248201527f4552433732313a2062616c616e636520717565727920666f7220746865207a65604482015269726f206164647265737360b01b6064820152608401610b15565b506001600160a01b031660009081526068602052604090205490565b61012d546001600160a01b0316331461176d5760405162461bcd60e51b8152600401610b1590614bf1565b6117776000613250565b565b60606000825167ffffffffffffffff81111561179757611797614621565b6040519080825280602002602001820160405280156117d057816020015b6117bd61421b565b8152602001906001900390816117b55790505b50905060005b8351811015610a03576101c960008583815181106117f6576117f6614aa9565b6020026020010151815260200190815260200160002060405180610120016040529081600082015481526020016001820160009054906101000a900460ff16600381111561184657611846614340565b600381111561185757611857614340565b8152602001600282015481526020016003820154815260200160048201805461187f90614a74565b80601f01602080910402602001604051908101604052809291908181526020018280546118ab90614a74565b80156118f85780601f106118cd576101008083540402835291602001916118f8565b820191906000526020600020905b8154815290600101906020018083116118db57829003601f168201915b5050505050815260200160058201805461191190614a74565b80601f016020809104026020016040519081016040528092919081815260200182805461193d90614a74565b801561198a5780601f1061195f5761010080835404028352916020019161198a565b820191906000526020600020905b81548152906001019060200180831161196d57829003601f168201915b505050918352505060068201546020820152600782015460408201526008909101546001600160a01b031660609091015282518390839081106119cf576119cf614aa9565b6020026020010181905250806119e490614ad5565b90506117d6565b606060668054610a2a90614a74565b6110d93383836132a3565b6101c76020526000908152604090208054600182015460028301546003840180549394929360ff9092169291611a3a90614a74565b80601f0160208091040260200160405190810160405280929190818152602001828054611a6690614a74565b8015611ab35780601f10611a8857610100808354040283529160200191611ab3565b820191906000526020600020905b815481529060010190602001808311611a9657829003601f168201915b5050505050905084565b60408051600480825260a0820190925260609160009190816020015b611b0760405180608001604052806000815260200160008152602001600060ff168152602001606081525090565b815260200190600190039081611ad957905050905060005b60048160ff161015611c695760ff80821660009081526101c560205260408120546101c792166003811115611b5657611b56614340565b6003811115611b6757611b67614340565b81526020808201929092526040908101600020815160808101835281548152600182015493810193909352600281015460ff1691830191909152600381018054606084019190611bb690614a74565b80601f0160208091040260200160405190810160405280929190818152602001828054611be290614a74565b8015611c2f5780601f10611c0457610100808354040283529160200191611c2f565b820191906000526020600020905b815481529060010190602001808311611c1257829003601f168201915b505050505081525050828260ff1681518110611c4d57611c4d614aa9565b602002602001018190525080611c6290614c26565b9050611b1f565b50919050565b611c793383612bb4565b611c955760405162461bcd60e51b8152600401610b1590614b08565b611ca184848484613372565b50505050565b60008181526101c96020526040812060088101546001820154606092849290916001600160a01b0390911690611cdf9060ff16612e46565b60079092015490969195509350915050565b6000611cfd60016133a5565b90508015611d15576000805461ff0019166101001790555b611d5a60405180604001604052806007815260200166169bdb53185b9960ca1b815250604051806040016040528060048152602001631693531360e21b815250613432565b611d62613463565b611d6a613463565b611d72613463565b611d7a61348a565b611d82613463565b6101c380546001600160a01b0319166001600160a01b0384161790556101c560209081527f0ac9d374755404692c16f3e5d6d71fdb2195a9b14c407f14a90c1bb9c44ddf6a805460ff199081169091557f816f2382abfe7a352b739364271e45f343d7faf96f7359e23a6fec9259b0a9818054821660019081179091557fa4d8ad4f5c3cb7fe02cf49e800605bda87de88c643bbfcc265cc60032494f23a80546002908416179055600360008190527f840a6f4c731511087ddd1a93db74c9a8574430ab883f85add70c1912fff0728f8054909316179091556040805160808101825266038d7ea4c68000815261c34f818501528082019290925280516060808201909252603b8082529293918401929091615025908301399052600080526101c7602090815281517f803f868a8c92f93994e82b8386807484eb2b85ad4113cddb6f2ba1000bfa9148908155828201517f803f868a8c92f93994e82b8386807484eb2b85ad4113cddb6f2ba1000bfa91495560408301517f803f868a8c92f93994e82b8386807484eb2b85ad4113cddb6f2ba1000bfa914a805460ff191660ff909216919091179055606083015180519192611f64927f803f868a8c92f93994e82b8386807484eb2b85ad4113cddb6f2ba1000bfa914b9290910190614271565b5090505060405180608001604052806701118f178fb48000815260200161270f8152602001600260ff1681526020016040518060600160405280603b8152602001614f2d603b9139905260016000526101c7602090815281517fecae23ce77e22cf74da29a9dcf572b01e30bb26796df1b98b54cc945f91a312e908155828201517fecae23ce77e22cf74da29a9dcf572b01e30bb26796df1b98b54cc945f91a312f5560408301517fecae23ce77e22cf74da29a9dcf572b01e30bb26796df1b98b54cc945f91a3130805460ff191660ff909216919091179055606083015180519192612076927fecae23ce77e22cf74da29a9dcf572b01e30bb26796df1b98b54cc945f91a31319290910190614271565b509050506040518060800160405280670214e8348c4f0000815260200161176f8152602001600460ff1681526020016040518060600160405280603b8152602001614fea603b9139905260026000526101c7602090815281517f0f664db7d929ca145ef65ba243fb6b0231c84fa0f6d181c15b7a634a3b83b1d6908155828201517f0f664db7d929ca145ef65ba243fb6b0231c84fa0f6d181c15b7a634a3b83b1d75560408301517f0f664db7d929ca145ef65ba243fb6b0231c84fa0f6d181c15b7a634a3b83b1d8805460ff191660ff909216919091179055606083015180519192612188927f0f664db7d929ca145ef65ba243fb6b0231c84fa0f6d181c15b7a634a3b83b1d99290910190614271565b509050506040518060800160405280670494654067e1000081526020016107cf8152602001600860ff1681526020016040518060600160405280603b8152602001614f88603b9139905260036000526101c7602090815281517f01ff15573a5e91f7038bc125320a0fe4228830b2730ae57a221de98fde5afc96908155828201517f01ff15573a5e91f7038bc125320a0fe4228830b2730ae57a221de98fde5afc975560408301517f01ff15573a5e91f7038bc125320a0fe4228830b2730ae57a221de98fde5afc98805460ff191660ff90921691909117905560608301518051919261229a927f01ff15573a5e91f7038bc125320a0fe4228830b2730ae57a221de98fde5afc999290910190614271565b5090505080156110d9576000805461ff0019169055604051600181527f7f26b83ff96e1f2b6a682f133852f6798a09c465da95921460cefb38474024989060200160405180910390a15050565b6060610a15826134b9565b6000606060008460ff1667ffffffffffffffff81111561231457612314614621565b60405190808252806020026020018201604052801561234d57816020015b61233a61421b565b8152602001906001900390816123325790505b50905060006101c360009054906101000a90046001600160a01b03166001600160a01b031663f34b899d6040518163ffffffff1660e01b8152600401602060405180830381865afa1580156123a6573d6000803e3d6000fd5b505050506040513d601f19601f820116820180604052508101906123ca9190614c46565b9050600080826001600160a01b0316637620f6258a8a8a6040518463ffffffff1660e01b81526004016123ff93929190614c63565b600060405180830381865afa15801561241c573d6000803e3d6000fd5b505050506040513d6000823e601f3d908101601f191682016040526124449190810190614c85565b9150915060005b8860ff1681101561266a578281101561265a576101c9600083838151811061247557612475614aa9565b6020026020010151815260200190815260200160002060405180610120016040529081600082015481526020016001820160009054906101000a900460ff1660038111156124c5576124c5614340565b60038111156124d6576124d6614340565b815260200160028201548152602001600382015481526020016004820180546124fe90614a74565b80601f016020809104026020016040519081016040528092919081815260200182805461252a90614a74565b80156125775780601f1061254c57610100808354040283529160200191612577565b820191906000526020600020905b81548152906001019060200180831161255a57829003601f168201915b5050505050815260200160058201805461259090614a74565b80601f01602080910402602001604051908101604052809291908181526020018280546125bc90614a74565b80156126095780601f106125de57610100808354040283529160200191612609565b820191906000526020600020905b8154815290600101906020018083116125ec57829003601f168201915b505050918352505060068201546020820152600782015460408201526008909101546001600160a01b0316606090910152855186908390811061264e5761264e614aa9565b60200260200101819052505b61266381614ad5565b905061244b565b5090989297509195505050505050565b60008181526101c960205260408120600201546201518090819061269e9042614d22565b106127005760008381526101c9602052604081206001015460ff16906101c7908260038111156126d0576126d0614340565b60038111156126e1576126e1614340565b815260208101919091526040016000206002015460ff16949350505050565b50600092915050565b61012d546001600160a01b031633146127345760405162461bcd60e51b8152600401610b1590614bf1565b6001600160a01b0381166127995760405162461bcd60e51b815260206004820152602660248201527f4f776e61626c653a206e6577206f776e657220697320746865207a65726f206160448201526564647265737360d01b6064820152608401610b15565b610f7781613250565b6127aa6129c2565b60008381526101c960205260409020600801546001600160a01b038281169116146128235760405162461bcd60e51b815260206004820152602360248201527f596f752063616e2774206368616e676520707269636520666f7220746869732060448201526213919560ea1b6064820152608401610b15565b5060009182526101c9602052604090912060030155565b6001600160a01b03163b151590565b60006001600160e01b0319821663780e9d6360e01b1480610a155750610a1582613645565b6000908152606760205260409020546001600160a01b0316151590565b600081815260696020526040902080546001600160a01b0319166001600160a01b03841690811790915581906128c08261129d565b6001600160a01b03167f8c5be1e5ebec7d5bd14f71427d1e84f3dd0314c0f7b2291e5b200ac8c7c3b92560405160405180910390a45050565b6101c3546040805163b53720c560e01b815290516000926001600160a01b03169163b53720c59160048083019260209291908290030181865afa158015612944573d6000803e3d6000fd5b505050506040513d601f19601f820116820180604052508101906129689190614c46565b90506001600160a01b0381163314610f775760405162461bcd60e51b815260206004820152601a60248201527f596f752063616e27742063616c6c2074686973206d6574686f640000000000006044820152606401610b15565b6101c3546040805163f34b899d60e01b815290516000926001600160a01b03169163f34b899d9160048083019260209291908290030181865afa158015612944573d6000803e3d6000fd5b826001600160a01b0316612a208261129d565b6001600160a01b031614612a845760405162461bcd60e51b815260206004820152602560248201527f4552433732313a207472616e736665722066726f6d20696e636f72726563742060448201526437bbb732b960d91b6064820152608401610b15565b6001600160a01b038216612ae65760405162461bcd60e51b8152602060048201526024808201527f4552433732313a207472616e7366657220746f20746865207a65726f206164646044820152637265737360e01b6064820152608401610b15565b612af1838383613695565b612afc60008261288b565b6001600160a01b0383166000908152606860205260408120805460019290612b25908490614d22565b90915550506001600160a01b0382166000908152606860205260408120805460019290612b53908490614af0565b909155505060008181526067602052604080822080546001600160a01b0319166001600160a01b0386811691821790925591518493918716917fddf252ad1be2c89b69c2b068fc378daa952ba7f163c4a11628f55a4df523b3ef91a4505050565b6000612bbf8261286e565b612c205760405162461bcd60e51b815260206004820152602c60248201527f4552433732313a206f70657261746f7220717565727920666f72206e6f6e657860448201526b34b9ba32b73a103a37b5b2b760a11b6064820152608401610b15565b6000612c2b8361129d565b9050806001600160a01b0316846001600160a01b03161480612c7257506001600160a01b038082166000908152606a602090815260408083209388168352929052205460ff165b80612c965750836001600160a01b0316612c8b84610aad565b6001600160a01b0316145b949350505050565b61012d546001600160a01b03163314610f775760405162461bcd60e51b8152600401610b1590614bf1565b7f4910fdfa16fed3260ed0e7147f7cc6da11a60208b5b9406d12a635614ffd91435460ff1615612cfc57610c4b836136ea565b826001600160a01b03166352d1902d6040518163ffffffff1660e01b8152600401602060405180830381865afa925050508015612d56575060408051601f3d908101601f19168201909252612d5391810190614d39565b60015b612db95760405162461bcd60e51b815260206004820152602e60248201527f45524331393637557067726164653a206e657720696d706c656d656e7461746960448201526d6f6e206973206e6f74205555505360901b6064820152608401610b15565b600080516020614f688339815191528114612e285760405162461bcd60e51b815260206004820152602960248201527f45524331393637557067726164653a20756e737570706f727465642070726f786044820152681a58589b195555525160ba1b6064820152608401610b15565b50610c4b838383613786565b612e3d816137ab565b610f77816137eb565b60606000826003811115612e5c57612e5c614340565b1415612e835750506040805180820190915260058152644d6963726f60d81b602082015290565b6001826003811115612e9757612e97614340565b1415612ebe57505060408051808201909152600581526414db585b1b60da1b602082015290565b6002826003811115612ed257612ed2614340565b1415612efa5750506040805180820190915260068152654d656469756d60d01b602082015290565b50506040805180820190915260058152644c6172676560d81b602082015290565b60008080526101c76020527f803f868a8c92f93994e82b8386807484eb2b85ad4113cddb6f2ba1000bfa914854341415612f555750600090565b60016000526101c76020527fecae23ce77e22cf74da29a9dcf572b01e30bb26796df1b98b54cc945f91a312e54341415612f8f5750600190565b60026000526101c76020527f0f664db7d929ca145ef65ba243fb6b0231c84fa0f6d181c15b7a634a3b83b1d654341415612fc95750600290565b60036000526101c76020527f01ff15573a5e91f7038bc125320a0fe4228830b2730ae57a221de98fde5afc96543414156130035750600390565b60405162461bcd60e51b815260206004820152601460248201527315dc9bdb99c819195c1bdcda5d08185b5bdd5b9d60621b6044820152606401610b15565b60006101c7600083600381111561305b5761305b614340565b600381111561306c5761306c614340565b81526020810191909152604001600090812060010154915082600381111561309657613096614340565b1415613103573360009081526101c8602052604090205460ff161515600114156131035760405163b490537d60e01b815260206004820181905260248201527f596f752063616e206d696e74206a757374206f6e65204d6963726f204c616e646044820152606401610b15565b806101c6600084600381111561311b5761311b614340565b600381111561312c5761312c614340565b815260200190815260200160002054106110d957604080516309742fc560e21b81526004810191909152603060448201527f596f752063616e2774206d696e74206c616e6473206f6620746869732074797060648201526f194b081b1a5b5a5d081c995858da195960821b60848201526024810182905260a401610b15565b6110d98282604051806020016040528060008152506138df565b6131ce8261286e565b6132315760405162461bcd60e51b815260206004820152602e60248201527f45524337323155524953746f726167653a2055524920736574206f66206e6f6e60448201526d32bc34b9ba32b73a103a37b5b2b760911b6064820152608401610b15565b600082815260c9602090815260409091208251610c4b92840190614271565b61012d80546001600160a01b038381166001600160a01b0319831681179093556040519116919082907f8be0079c531659141344cd1fd0a4f28419497f9722a3daafe3b4186f6b6457e090600090a35050565b816001600160a01b0316836001600160a01b031614156133055760405162461bcd60e51b815260206004820152601960248201527f4552433732313a20617070726f766520746f2063616c6c6572000000000000006044820152606401610b15565b6001600160a01b038381166000818152606a6020908152604080832094871680845294825291829020805460ff191686151590811790915591519182527f17307eab39ab6107e8899845ad3d59bd9653f200f220920489ca2b5937696c31910160405180910390a3505050565b61337d848484612a0d565b61338984848484613912565b611ca15760405162461bcd60e51b8152600401610b1590614d52565b60008054610100900460ff16156133ec578160ff1660011480156133c85750303b155b6133e45760405162461bcd60e51b8152600401610b1590614da4565b506000919050565b60005460ff8084169116106134135760405162461bcd60e51b8152600401610b1590614da4565b506000805460ff191660ff92909216919091179055600190565b919050565b600054610100900460ff166134595760405162461bcd60e51b8152600401610b1590614df2565b6110d98282613a10565b600054610100900460ff166117775760405162461bcd60e51b8152600401610b1590614df2565b600054610100900460ff166134b15760405162461bcd60e51b8152600401610b1590614df2565b611777613a5e565b60606134c48261286e565b61352a5760405162461bcd60e51b815260206004820152603160248201527f45524337323155524953746f726167653a2055524920717565727920666f72206044820152703737b732bc34b9ba32b73a103a37b5b2b760791b6064820152608401610b15565b600082815260c960205260408120805461354390614a74565b80601f016020809104026020016040519081016040528092919081815260200182805461356f90614a74565b80156135bc5780601f10613591576101008083540402835291602001916135bc565b820191906000526020600020905b81548152906001019060200180831161359f57829003601f168201915b5050505050905060006135f760408051808201909152601581527468747470733a2f2f697066732e696f2f697066732f60581b602082015290565b905080516000141561360a575092915050565b81511561363c578082604051602001613624929190614e3d565b60405160208183030381529060405292505050919050565b612c9684613a8e565b60006001600160e01b031982166380ac58cd60e01b148061367657506001600160e01b03198216635b5e139f60e01b145b80610a1557506301ffc9a760e01b6001600160e01b0319831614610a15565b6136a0838383613b82565b6001600160a01b03831615610c4b576136b8816137eb565b60008181526101c96020526040902060080180546001600160a01b0384166001600160a01b0319909116179055505050565b6001600160a01b0381163b6137575760405162461bcd60e51b815260206004820152602d60248201527f455243313936373a206e657720696d706c656d656e746174696f6e206973206e60448201526c1bdd08184818dbdb9d1c9858dd609a1b6064820152608401610b15565b600080516020614f6883398151915280546001600160a01b0319166001600160a01b0392909216919091179055565b61378f83613c3a565b60008251118061379c5750805b15610c4b57611ca18383613c7a565b6137b481613d6e565b600081815260c96020526040902080546137cd90614a74565b159050610f7757600081815260c960205260408120610f77916142f5565b6101c3546040805163f34b899d60e01b815290516000926001600160a01b03169163f34b899d9160048083019260209291908290030181865afa158015613836573d6000803e3d6000fd5b505050506040513d601f19601f8201168201806040525081019061385a9190614c46565b6040516314a2c6db60e11b81529091506001600160a01b038216906329458db6906138a9908590600401908152604060208201819052600490820152631b185b9960e21b606082015260800190565b600060405180830381600087803b1580156138c357600080fd5b505af11580156138d7573d6000803e3d6000fd5b505050505050565b6138e98383613e15565b6138f66000848484613912565b610c4b5760405162461bcd60e51b8152600401610b1590614d52565b60006001600160a01b0384163b15613a0557604051630a85bd0160e11b81526001600160a01b0385169063150b7a0290613956903390899088908890600401614e6c565b6020604051808303816000875af1925050508015613991575060408051601f3d908101601f1916820190925261398e91810190614e9f565b60015b6139eb573d8080156139bf576040519150601f19603f3d011682016040523d82523d6000602084013e6139c4565b606091505b5080516139e35760405162461bcd60e51b8152600401610b1590614d52565b805181602001fd5b6001600160e01b031916630a85bd0160e11b149050612c96565b506001949350505050565b600054610100900460ff16613a375760405162461bcd60e51b8152600401610b1590614df2565b8151613a4a906065906020850190614271565b508051610c4b906066906020840190614271565b600054610100900460ff16613a855760405162461bcd60e51b8152600401610b1590614df2565b61177733613250565b6060613a998261286e565b613afd5760405162461bcd60e51b815260206004820152602f60248201527f4552433732314d657461646174613a2055524920717565727920666f72206e6f60448201526e3732bc34b9ba32b73a103a37b5b2b760891b6064820152608401610b15565b6000613b3160408051808201909152601581527468747470733a2f2f697066732e696f2f697066732f60581b602082015290565b90506000815111613b515760405180602001604052806000815250610dcb565b80613b5b84613f54565b604051602001613b6c929190614e3d565b6040516020818303038152906040529392505050565b6001600160a01b038316613bdd57613bd881609980546000838152609a60205260408120829055600182018355919091527f72a152ddfb8e864297c917af52ea6c1c68aead0fee1a62673fcc7e0c94979d000155565b613c00565b816001600160a01b0316836001600160a01b031614613c0057613c008382614052565b6001600160a01b038216613c1757610c4b816140ef565b826001600160a01b0316826001600160a01b031614610c4b57610c4b828261419e565b613c43816136ea565b6040516001600160a01b038216907fbc7cd75a20ee27fd9adebab32041f755214dbc6bffa90cc0225b39da2e5c2d3b90600090a250565b60606001600160a01b0383163b613ce25760405162461bcd60e51b815260206004820152602660248201527f416464726573733a2064656c65676174652063616c6c20746f206e6f6e2d636f6044820152651b9d1c9858dd60d21b6064820152608401610b15565b600080846001600160a01b031684604051613cfd9190614ebc565b600060405180830381855af49150503d8060008114613d38576040519150601f19603f3d011682016040523d82523d6000602084013e613d3d565b606091505b5091509150613d658282604051806060016040528060278152602001614fc3602791396141e2565b95945050505050565b6000613d798261129d565b9050613d8781600084613695565b613d9260008361288b565b6001600160a01b0381166000908152606860205260408120805460019290613dbb908490614d22565b909155505060008281526067602052604080822080546001600160a01b0319169055518391906001600160a01b038416907fddf252ad1be2c89b69c2b068fc378daa952ba7f163c4a11628f55a4df523b3ef908390a45050565b6001600160a01b038216613e6b5760405162461bcd60e51b815260206004820181905260248201527f4552433732313a206d696e7420746f20746865207a65726f20616464726573736044820152606401610b15565b613e748161286e565b15613ec15760405162461bcd60e51b815260206004820152601c60248201527f4552433732313a20746f6b656e20616c7265616479206d696e746564000000006044820152606401610b15565b613ecd60008383613695565b6001600160a01b0382166000908152606860205260408120805460019290613ef6908490614af0565b909155505060008181526067602052604080822080546001600160a01b0319166001600160a01b03861690811790915590518392907fddf252ad1be2c89b69c2b068fc378daa952ba7f163c4a11628f55a4df523b3ef908290a45050565b606081613f785750506040805180820190915260018152600360fc1b602082015290565b8160005b8115613fa25780613f8c81614ad5565b9150613f9b9050600a83614eee565b9150613f7c565b60008167ffffffffffffffff811115613fbd57613fbd614621565b6040519080825280601f01601f191660200182016040528015613fe7576020820181803683370190505b5090505b8415612c9657613ffc600183614d22565b9150614009600a86614f02565b614014906030614af0565b60f81b81838151811061402957614029614aa9565b60200101906001600160f81b031916908160001a90535061404b600a86614eee565b9450613feb565b6000600161405f846116bb565b6140699190614d22565b6000838152609860205260409020549091508082146140bc576001600160a01b03841660009081526097602090815260408083208584528252808320548484528184208190558352609890915290208190555b5060009182526098602090815260408084208490556001600160a01b039094168352609781528383209183525290812055565b60995460009061410190600190614d22565b6000838152609a60205260408120546099805493945090928490811061412957614129614aa9565b90600052602060002001549050806099838154811061414a5761414a614aa9565b6000918252602080832090910192909255828152609a9091526040808220849055858252812055609980548061418257614182614f16565b6001900381819060005260206000200160009055905550505050565b60006141a9836116bb565b6001600160a01b039093166000908152609760209081526040808320868452825280832085905593825260989052919091209190915550565b606083156141f1575081610dcb565b8251156142015782518084602001fd5b8160405162461bcd60e51b8152600401610b1591906144fc565b60408051610120810190915260008082526020820190815260200160008152602001600081526020016060815260200160608152602001600081526020016000815260200160006001600160a01b031681525090565b82805461427d90614a74565b90600052602060002090601f01602090048101928261429f57600085556142e5565b82601f106142b857805160ff19168380011785556142e5565b828001600101855582156142e5579182015b828111156142e55782518255916020019190600101906142ca565b506142f192915061432b565b5090565b50805461430190614a74565b6000825580601f10614311575050565b601f016020900490600052602060002090810190610f7791905b5b808211156142f1576000815560010161432c565b634e487b7160e01b600052602160045260246000fd5b6004811061437457634e487b7160e01b600052602160045260246000fd5b9052565b60005b8381101561439357818101518382015260200161437b565b83811115611ca15750506000910152565b600081518084526143bc816020860160208601614378565b601f01601f19169290920160200192915050565b600082825180855260208086019550808260051b84010181860160005b848110156144a957601f198684030189528151610120815185528582015161441787870182614356565b506040828101519086015260608083015190860152608080830151818701839052614444838801826143a4565b9250505060a0808301518683038288015261445f83826143a4565b60c0858101519089015260e08086015190890152610100948501516001600160a01b038116868a01529490935091506144959050565b5099850199935050908301906001016143ed565b5090979650505050505050565b602081526000610dcb60208301846143d0565b6001600160e01b031981168114610f7757600080fd5b6000602082840312156144f157600080fd5b8135610dcb816144c9565b602081526000610dcb60208301846143a4565b60006020828403121561452157600080fd5b5035919050565b6001600160a01b0381168114610f7757600080fd5b6000806040838503121561455057600080fd5b823561455b81614528565b946020939093013593505050565b60006020828403121561457b57600080fd5b813560048110610dcb57600080fd5b60008060006060848603121561459f57600080fd5b833592506020840135915060408401356145b881614528565b809150509250925092565b6000806000606084860312156145d857600080fd5b83356145e381614528565b925060208401356145f381614528565b929592945050506040919091013590565b60006020828403121561461657600080fd5b8135610dcb81614528565b634e487b7160e01b600052604160045260246000fd5b604051601f8201601f1916810167ffffffffffffffff8111828210171561466057614660614621565b604052919050565b600067ffffffffffffffff83111561468257614682614621565b614695601f8401601f1916602001614637565b90508281528383830111156146a957600080fd5b828260208301376000602084830101529392505050565b600082601f8301126146d157600080fd5b610dcb83833560208501614668565b600080604083850312156146f357600080fd5b82356146fe81614528565b9150602083013567ffffffffffffffff81111561471a57600080fd5b614726858286016146c0565b9150509250929050565b600067ffffffffffffffff82111561474a5761474a614621565b5060051b60200190565b6000602080838503121561476757600080fd5b823567ffffffffffffffff81111561477e57600080fd5b8301601f8101851361478f57600080fd5b80356147a261479d82614730565b614637565b81815260059190911b820183019083810190878311156147c157600080fd5b928401925b828410156147df578335825292840192908401906147c6565b979650505050505050565b600080604083850312156147fd57600080fd5b823561480881614528565b91506020830135801515811461481d57600080fd5b809150509250929050565b803560ff8116811461342d57600080fd5b60006020828403121561484b57600080fd5b610dcb82614828565b60208101610a158284614356565b84815283602082015260ff8316604082015260806060820152600061488a60808301846143a4565b9695505050505050565b60006020808301818452808551808352604092508286019150828160051b87010184880160005b8381101561491457888303603f1901855281518051845287810151888501528681015160ff1687850152606090810151608091850182905290614900818601836143a4565b9689019694505050908601906001016148bb565b509098975050505050505050565b6000806000806080858703121561493857600080fd5b843561494381614528565b9350602085013561495381614528565b925060408501359150606085013567ffffffffffffffff81111561497657600080fd5b614982878288016146c0565b91505092959194509250565b6001600160a01b03841681526060602082018190526000906149b2908301856143a4565b9050826040830152949350505050565b6000806000606084860312156149d757600080fd5b833592506149e760208501614828565b9150604084013567ffffffffffffffff811115614a0357600080fd5b8401601f81018613614a1457600080fd5b614a2386823560208401614668565b9150509250925092565b828152604060208201526000612c9660408301846143d0565b60008060408385031215614a5957600080fd5b8235614a6481614528565b9150602083013561481d81614528565b600181811c90821680614a8857607f821691505b60208210811415611c6957634e487b7160e01b600052602260045260246000fd5b634e487b7160e01b600052603260045260246000fd5b634e487b7160e01b600052601160045260246000fd5b6000600019821415614ae957614ae9614abf565b5060010190565b60008219821115614b0357614b03614abf565b500190565b60208082526031908201527f4552433732313a207472616e736665722063616c6c6572206973206e6f74206f6040820152701ddb995c881b9bdc88185c1c1c9bdd9959607a1b606082015260800190565b6020808252602c908201527f46756e6374696f6e206d7573742062652063616c6c6564207468726f7567682060408201526b19195b1959d85d1958d85b1b60a21b606082015260800190565b6020808252602c908201527f46756e6374696f6e206d7573742062652063616c6c6564207468726f7567682060408201526b6163746976652070726f787960a01b606082015260800190565b6020808252818101527f4f776e61626c653a2063616c6c6572206973206e6f7420746865206f776e6572604082015260600190565b600060ff821660ff811415614c3d57614c3d614abf565b60010192915050565b600060208284031215614c5857600080fd5b8151610dcb81614528565b83815260ff83166020820152606060408201526000613d6560608301846143a4565b60008060408385031215614c9857600080fd5b8251915060208084015167ffffffffffffffff811115614cb757600080fd5b8401601f81018613614cc857600080fd5b8051614cd661479d82614730565b81815260059190911b82018301908381019088831115614cf557600080fd5b928401925b82841015614d1357835182529284019290840190614cfa565b80955050505050509250929050565b600082821015614d3457614d34614abf565b500390565b600060208284031215614d4b57600080fd5b5051919050565b60208082526032908201527f4552433732313a207472616e7366657220746f206e6f6e20455243373231526560408201527131b2b4bb32b91034b6b83632b6b2b73a32b960711b606082015260800190565b6020808252602e908201527f496e697469616c697a61626c653a20636f6e747261637420697320616c72656160408201526d191e481a5b9a5d1a585b1a5e995960921b606082015260800190565b6020808252602b908201527f496e697469616c697a61626c653a20636f6e7472616374206973206e6f74206960408201526a6e697469616c697a696e6760a81b606082015260800190565b60008351614e4f818460208801614378565b835190830190614e63818360208801614378565b01949350505050565b6001600160a01b038581168252841660208201526040810183905260806060820181905260009061488a908301846143a4565b600060208284031215614eb157600080fd5b8151610dcb816144c9565b60008251614ece818460208701614378565b9190910192915050565b634e487b7160e01b600052601260045260246000fd5b600082614efd57614efd614ed8565b500490565b600082614f1157614f11614ed8565b500690565b634e487b7160e01b600052603160045260246000fdfe6261666b7265696876636f72616978647978366a62726c6d6c667734357073726a6c6b77656d703769653377636b79653766726e796862646e6f69360894a13ba1a3210667c828492db98dca3e2076cc3735a920a3ca505d382bbc6261666b72656967657a7566696837676d763664367866626d3361636b62767378786277356d70726c74336878356b767465376b6a6b6261786a75416464726573733a206c6f772d6c6576656c2064656c65676174652063616c6c206661696c65646261666b72656965707a726d776365717535753662356478326a64727232767135756a6568696275347633327a64787267346a64677473326f7a716261666b726569647572743568736a6471696432746c36617a7762787965356670697a727a667663786861766a707767327772356b64766b377434a2646970667358221220d21dd03f2ae7581bf7af6e96df18eee2478c223bf45cce6accaf05f8eab6fa2664736f6c634300080c0033496e697469616c697a61626c653a20636f6e747261637420697320616c726561",
  "linkReferences": {},
  "deployedLinkReferences": {}
}