{
  "_format": "hh-sol-artifact-1",
  "contractName": "MainContract",
  "sourceName": "src/backend/contracts/Main.sol",
  "abi": [
    {
      "inputs": [],
      "stateMutability": "nonpayable",
      "type": "constructor"
    },
    {
      "anonymous": false,
      "inputs": [
        {
          "indexed": false,
          "internalType": "address",
          "name": "previousAdmin",
          "type": "address"
        },
        {
          "indexed": false,
          "internalType": "address",
          "name": "newAdmin",
          "type": "address"
        }
      ],
      "name": "AdminChanged",
      "type": "event"
    },
    {
      "anonymous": false,
      "inputs": [
        {
          "indexed": true,
          "internalType": "address",
          "name": "beacon",
          "type": "address"
        }
      ],
      "name": "BeaconUpgraded",
      "type": "event"
    },
    {
      "anonymous": false,
      "inputs": [
        {
          "indexed": false,
          "internalType": "uint8",
          "name": "version",
          "type": "uint8"
        }
      ],
      "name": "Initialized",
      "type": "event"
    },
    {
      "anonymous": false,
      "inputs": [
        {
          "indexed": true,
          "internalType": "address",
          "name": "previousOwner",
          "type": "address"
        },
        {
          "indexed": true,
          "internalType": "address",
          "name": "newOwner",
          "type": "address"
        }
      ],
      "name": "OwnershipTransferred",
      "type": "event"
    },
    {
      "anonymous": false,
      "inputs": [
        {
          "indexed": true,
          "internalType": "address",
          "name": "implementation",
          "type": "address"
        }
      ],
      "name": "Upgraded",
      "type": "event"
    },
    {
      "inputs": [],
      "name": "getContractCollection",
      "outputs": [
        {
          "internalType": "address",
          "name": "",
          "type": "address"
        }
      ],
      "stateMutability": "view",
      "type": "function"
    },
    {
      "inputs": [],
      "name": "getContractLandNFT",
      "outputs": [
        {
          "internalType": "address",
          "name": "",
          "type": "address"
        }
      ],
      "stateMutability": "view",
      "type": "function"
    },
    {
      "inputs": [],
      "name": "getContractMarket",
      "outputs": [
        {
          "internalType": "address",
          "name": "",
          "type": "address"
        }
      ],
      "stateMutability": "view",
      "type": "function"
    },
    {
      "inputs": [],
      "name": "getContractMonsterNFT",
      "outputs": [
        {
          "internalType": "address",
          "name": "",
          "type": "address"
        }
      ],
      "stateMutability": "view",
      "type": "function"
    },
    {
      "inputs": [],
      "name": "getContractMonsterNFTHelper",
      "outputs": [
        {
          "internalType": "address",
          "name": "",
          "type": "address"
        }
      ],
      "stateMutability": "view",
      "type": "function"
    },
    {
      "inputs": [],
      "name": "getContractTokenFT",
      "outputs": [
        {
          "internalType": "address",
          "name": "",
          "type": "address"
        }
      ],
      "stateMutability": "view",
      "type": "function"
    },
    {
      "inputs": [],
      "name": "getContractZombieNFT",
      "outputs": [
        {
          "internalType": "address",
          "name": "",
          "type": "address"
        }
      ],
      "stateMutability": "view",
      "type": "function"
    },
    {
      "inputs": [],
      "name": "getContractZombieNFTHelper",
      "outputs": [
        {
          "internalType": "address",
          "name": "",
          "type": "address"
        }
      ],
      "stateMutability": "view",
      "type": "function"
    },
    {
      "inputs": [],
      "name": "initialize",
      "outputs": [],
      "stateMutability": "nonpayable",
      "type": "function"
    },
    {
      "inputs": [],
      "name": "owner",
      "outputs": [
        {
          "internalType": "address",
          "name": "",
          "type": "address"
        }
      ],
      "stateMutability": "view",
      "type": "function"
    },
    {
      "inputs": [],
      "name": "proxiableUUID",
      "outputs": [
        {
          "internalType": "bytes32",
          "name": "",
          "type": "bytes32"
        }
      ],
      "stateMutability": "view",
      "type": "function"
    },
    {
      "inputs": [],
      "name": "renounceOwnership",
      "outputs": [],
      "stateMutability": "nonpayable",
      "type": "function"
    },
    {
      "inputs": [
        {
          "internalType": "address",
          "name": "newOwner",
          "type": "address"
        }
      ],
      "name": "transferOwnership",
      "outputs": [],
      "stateMutability": "nonpayable",
      "type": "function"
    },
    {
      "inputs": [
        {
          "internalType": "address",
          "name": "_landNFT",
          "type": "address"
        },
        {
          "internalType": "address",
          "name": "_zombieNFT",
          "type": "address"
        },
        {
          "internalType": "address",
          "name": "_zombieNFTHelper",
          "type": "address"
        },
        {
          "internalType": "address",
          "name": "_monsterNFT",
          "type": "address"
        },
        {
          "internalType": "address",
          "name": "_monsterNFTHelper",
          "type": "address"
        },
        {
          "internalType": "address",
          "name": "_tokenFT",
          "type": "address"
        },
        {
          "internalType": "address",
          "name": "_collection",
          "type": "address"
        },
        {
          "internalType": "address",
          "name": "_market",
          "type": "address"
        }
      ],
      "name": "updateContractAddress",
      "outputs": [],
      "stateMutability": "nonpayable",
      "type": "function"
    },
    {
      "inputs": [
        {
          "internalType": "address",
          "name": "newImplementation",
          "type": "address"
        }
      ],
      "name": "upgradeTo",
      "outputs": [],
      "stateMutability": "nonpayable",
      "type": "function"
    },
    {
      "inputs": [
        {
          "internalType": "address",
          "name": "newImplementation",
          "type": "address"
        },
        {
          "internalType": "bytes",
          "name": "data",
          "type": "bytes"
        }
      ],
      "name": "upgradeToAndCall",
      "outputs": [],
      "stateMutability": "payable",
      "type": "function"
    }
  ],
  "bytecode": "0x60a0604052306080523480156200001557600080fd5b506200002062000026565b62000156565b6200003260ff62000035565b50565b60008054610100900460ff1615620000ce578160ff1660011480156200006e57506200006c306200014760201b620007501760201c565b155b620000c65760405162461bcd60e51b815260206004820152602e60248201526000805160206200123f83398151915260448201526d191e481a5b9a5d1a585b1a5e995960921b60648201526084015b60405180910390fd5b506000919050565b60005460ff8084169116106200012d5760405162461bcd60e51b815260206004820152602e60248201526000805160206200123f83398151915260448201526d191e481a5b9a5d1a585b1a5e995960921b6064820152608401620000bd565b506000805460ff191660ff92909216919091179055600190565b6001600160a01b03163b151590565b6080516110b16200018e600039600081816103ad015281816103ed0152818161048d015281816104cd015261056001526110b16000f3fe6080604052600436106100f35760003560e01c80638da5cb5b1161008a578063c784262911610059578063c784262914610267578063f095821f14610285578063f2fde38b146102a3578063f34b899d146102c357600080fd5b80638da5cb5b146101ef578063981101701461020d578063afc297cb1461022b578063b53720c51461024957600080fd5b806352d1902d116100c657806352d1902d14610184578063715018a6146101a75780637641ed66146101bc5780638129fc1c146101da57600080fd5b80631e7c09be146100f85780633659cfe61461011a57806342104fac1461013a5780634f1ef28614610171575b600080fd5b34801561010457600080fd5b50610118610113366004610cb0565b6102e1565b005b34801561012657600080fd5b50610118610135366004610d47565b6103a2565b34801561014657600080fd5b5060cb546001600160a01b03165b6040516001600160a01b0390911681526020015b60405180910390f35b61011861017f366004610d78565b610482565b34801561019057600080fd5b50610199610553565b604051908152602001610168565b3480156101b357600080fd5b50610118610606565b3480156101c857600080fd5b5060cd546001600160a01b0316610154565b3480156101e657600080fd5b5061011861063c565b3480156101fb57600080fd5b506033546001600160a01b0316610154565b34801561021957600080fd5b5060cf546001600160a01b0316610154565b34801561023757600080fd5b5060c9546001600160a01b0316610154565b34801561025557600080fd5b5060ca546001600160a01b0316610154565b34801561027357600080fd5b5060ce546001600160a01b0316610154565b34801561029157600080fd5b5060cc546001600160a01b0316610154565b3480156102af57600080fd5b506101186102be366004610d47565b6106b8565b3480156102cf57600080fd5b5060d0546001600160a01b0316610154565b6033546001600160a01b031633146103145760405162461bcd60e51b815260040161030b90610e3a565b60405180910390fd5b60c980546001600160a01b03199081166001600160a01b039a8b161790915560ca80548216988a169890981790975560cb805488169689169690961790955560cc805487169488169490941790935560cd805486169287169290921790915560ce8054851691861691909117905560cf8054841691851691909117905560d080549092169216919091179055565b306001600160a01b037f00000000000000000000000000000000000000000000000000000000000000001614156103eb5760405162461bcd60e51b815260040161030b90610e6f565b7f00000000000000000000000000000000000000000000000000000000000000006001600160a01b0316610434600080516020611035833981519152546001600160a01b031690565b6001600160a01b03161461045a5760405162461bcd60e51b815260040161030b90610ebb565b6104638161075f565b6040805160008082526020820190925261047f91839190610789565b50565b306001600160a01b037f00000000000000000000000000000000000000000000000000000000000000001614156104cb5760405162461bcd60e51b815260040161030b90610e6f565b7f00000000000000000000000000000000000000000000000000000000000000006001600160a01b0316610514600080516020611035833981519152546001600160a01b031690565b6001600160a01b03161461053a5760405162461bcd60e51b815260040161030b90610ebb565b6105438261075f565b61054f82826001610789565b5050565b6000306001600160a01b037f000000000000000000000000000000000000000000000000000000000000000016146105f35760405162461bcd60e51b815260206004820152603860248201527f555550535570677261646561626c653a206d757374206e6f742062652063616c60448201527f6c6564207468726f7567682064656c656761746563616c6c0000000000000000606482015260840161030b565b5060008051602061103583398151915290565b6033546001600160a01b031633146106305760405162461bcd60e51b815260040161030b90610e3a565b61063a60006108f9565b565b6000610648600161094b565b90508015610660576000805461ff0019166101001790555b6106686109d8565b610670610a07565b801561047f576000805461ff0019169055604051600181527f7f26b83ff96e1f2b6a682f133852f6798a09c465da95921460cefb38474024989060200160405180910390a150565b6033546001600160a01b031633146106e25760405162461bcd60e51b815260040161030b90610e3a565b6001600160a01b0381166107475760405162461bcd60e51b815260206004820152602660248201527f4f776e61626c653a206e6577206f776e657220697320746865207a65726f206160448201526564647265737360d01b606482015260840161030b565b61047f816108f9565b6001600160a01b03163b151590565b6033546001600160a01b0316331461047f5760405162461bcd60e51b815260040161030b90610e3a565b7f4910fdfa16fed3260ed0e7147f7cc6da11a60208b5b9406d12a635614ffd91435460ff16156107c1576107bc83610a2e565b505050565b826001600160a01b03166352d1902d6040518163ffffffff1660e01b8152600401602060405180830381865afa92505050801561081b575060408051601f3d908101601f1916820190925261081891810190610f07565b60015b61087e5760405162461bcd60e51b815260206004820152602e60248201527f45524331393637557067726164653a206e657720696d706c656d656e7461746960448201526d6f6e206973206e6f74205555505360901b606482015260840161030b565b60008051602061103583398151915281146108ed5760405162461bcd60e51b815260206004820152602960248201527f45524331393637557067726164653a20756e737570706f727465642070726f786044820152681a58589b195555525160ba1b606482015260840161030b565b506107bc838383610aca565b603380546001600160a01b038381166001600160a01b0319831681179093556040519116919082907f8be0079c531659141344cd1fd0a4f28419497f9722a3daafe3b4186f6b6457e090600090a35050565b60008054610100900460ff1615610992578160ff16600114801561096e5750303b155b61098a5760405162461bcd60e51b815260040161030b90610f20565b506000919050565b60005460ff8084169116106109b95760405162461bcd60e51b815260040161030b90610f20565b506000805460ff191660ff92909216919091179055600190565b919050565b600054610100900460ff166109ff5760405162461bcd60e51b815260040161030b90610f6e565b61063a610af5565b600054610100900460ff1661063a5760405162461bcd60e51b815260040161030b90610f6e565b6001600160a01b0381163b610a9b5760405162461bcd60e51b815260206004820152602d60248201527f455243313936373a206e657720696d706c656d656e746174696f6e206973206e60448201526c1bdd08184818dbdb9d1c9858dd609a1b606482015260840161030b565b60008051602061103583398151915280546001600160a01b0319166001600160a01b0392909216919091179055565b610ad383610b25565b600082511180610ae05750805b156107bc57610aef8383610b65565b50505050565b600054610100900460ff16610b1c5760405162461bcd60e51b815260040161030b90610f6e565b61063a336108f9565b610b2e81610a2e565b6040516001600160a01b038216907fbc7cd75a20ee27fd9adebab32041f755214dbc6bffa90cc0225b39da2e5c2d3b90600090a250565b60606001600160a01b0383163b610bcd5760405162461bcd60e51b815260206004820152602660248201527f416464726573733a2064656c65676174652063616c6c20746f206e6f6e2d636f6044820152651b9d1c9858dd60d21b606482015260840161030b565b600080846001600160a01b031684604051610be89190610fe5565b600060405180830381855af49150503d8060008114610c23576040519150601f19603f3d011682016040523d82523d6000602084013e610c28565b606091505b5091509150610c50828260405180606001604052806027815260200161105560279139610c59565b95945050505050565b60608315610c68575081610c92565b825115610c785782518084602001fd5b8160405162461bcd60e51b815260040161030b9190611001565b9392505050565b80356001600160a01b03811681146109d357600080fd5b600080600080600080600080610100898b031215610ccd57600080fd5b610cd689610c99565b9750610ce460208a01610c99565b9650610cf260408a01610c99565b9550610d0060608a01610c99565b9450610d0e60808a01610c99565b9350610d1c60a08a01610c99565b9250610d2a60c08a01610c99565b9150610d3860e08a01610c99565b90509295985092959890939650565b600060208284031215610d5957600080fd5b610c9282610c99565b634e487b7160e01b600052604160045260246000fd5b60008060408385031215610d8b57600080fd5b610d9483610c99565b9150602083013567ffffffffffffffff80821115610db157600080fd5b818501915085601f830112610dc557600080fd5b813581811115610dd757610dd7610d62565b604051601f8201601f19908116603f01168101908382118183101715610dff57610dff610d62565b81604052828152886020848701011115610e1857600080fd5b8260208601602083013760006020848301015280955050505050509250929050565b6020808252818101527f4f776e61626c653a2063616c6c6572206973206e6f7420746865206f776e6572604082015260600190565b6020808252602c908201527f46756e6374696f6e206d7573742062652063616c6c6564207468726f7567682060408201526b19195b1959d85d1958d85b1b60a21b606082015260800190565b6020808252602c908201527f46756e6374696f6e206d7573742062652063616c6c6564207468726f7567682060408201526b6163746976652070726f787960a01b606082015260800190565b600060208284031215610f1957600080fd5b5051919050565b6020808252602e908201527f496e697469616c697a61626c653a20636f6e747261637420697320616c72656160408201526d191e481a5b9a5d1a585b1a5e995960921b606082015260800190565b6020808252602b908201527f496e697469616c697a61626c653a20636f6e7472616374206973206e6f74206960408201526a6e697469616c697a696e6760a81b606082015260800190565b60005b83811015610fd4578181015183820152602001610fbc565b83811115610aef5750506000910152565b60008251610ff7818460208701610fb9565b9190910192915050565b6020815260008251806020840152611020816040850160208701610fb9565b601f01601f1916919091016040019291505056fe360894a13ba1a3210667c828492db98dca3e2076cc3735a920a3ca505d382bbc416464726573733a206c6f772d6c6576656c2064656c65676174652063616c6c206661696c6564a2646970667358221220749b2caf0950b1d2f6ee37e77a71861d1db35ef5a6b8cec87fe1a45e82a6b7bc64736f6c634300080c0033496e697469616c697a61626c653a20636f6e747261637420697320616c726561",
  "linkReferences": {},
  "deployedLinkReferences": {}
}