{
  "_format": "hh-sol-artifact-1",
  "contractName": "MarketContract",
  "sourceName": "src/backend/contracts/Market.sol",
  "abi": [
    {
      "inputs": [],
      "stateMutability": "nonpayable",
      "type": "constructor"
    },
    {
      "inputs": [
        {
          "internalType": "string",
          "name": "message",
          "type": "string"
        }
      ],
      "name": "MarketError",
      "type": "error"
    },
    {
      "anonymous": false,
      "inputs": [
        {
          "indexed": false,
          "internalType": "address",
          "name": "previousAdmin",
          "type": "address"
        },
        {
          "indexed": false,
          "internalType": "address",
          "name": "newAdmin",
          "type": "address"
        }
      ],
      "name": "AdminChanged",
      "type": "event"
    },
    {
      "anonymous": false,
      "inputs": [
        {
          "indexed": true,
          "internalType": "address",
          "name": "beacon",
          "type": "address"
        }
      ],
      "name": "BeaconUpgraded",
      "type": "event"
    },
    {
      "anonymous": false,
      "inputs": [
        {
          "indexed": false,
          "internalType": "uint8",
          "name": "version",
          "type": "uint8"
        }
      ],
      "name": "Initialized",
      "type": "event"
    },
    {
      "anonymous": false,
      "inputs": [
        {
          "indexed": true,
          "internalType": "address",
          "name": "previousOwner",
          "type": "address"
        },
        {
          "indexed": true,
          "internalType": "address",
          "name": "newOwner",
          "type": "address"
        }
      ],
      "name": "OwnershipTransferred",
      "type": "event"
    },
    {
      "anonymous": false,
      "inputs": [
        {
          "indexed": true,
          "internalType": "address",
          "name": "implementation",
          "type": "address"
        }
      ],
      "name": "Upgraded",
      "type": "event"
    },
    {
      "inputs": [],
      "name": "HISTORY_LIMIT",
      "outputs": [
        {
          "internalType": "uint256",
          "name": "",
          "type": "uint256"
        }
      ],
      "stateMutability": "view",
      "type": "function"
    },
    {
      "inputs": [],
      "name": "ITEMS_LIMIT",
      "outputs": [
        {
          "internalType": "uint256",
          "name": "",
          "type": "uint256"
        }
      ],
      "stateMutability": "view",
      "type": "function"
    },
    {
      "inputs": [
        {
          "internalType": "uint256",
          "name": "_tokenId",
          "type": "uint256"
        },
        {
          "internalType": "string",
          "name": "_typeNFT",
          "type": "string"
        }
      ],
      "name": "buyNFT",
      "outputs": [],
      "stateMutability": "payable",
      "type": "function"
    },
    {
      "inputs": [
        {
          "internalType": "string",
          "name": "",
          "type": "string"
        }
      ],
      "name": "currentSaleIndex",
      "outputs": [
        {
          "internalType": "uint256",
          "name": "",
          "type": "uint256"
        }
      ],
      "stateMutability": "view",
      "type": "function"
    },
    {
      "inputs": [
        {
          "internalType": "uint256",
          "name": "_startIndex",
          "type": "uint256"
        },
        {
          "internalType": "uint8",
          "name": "_count",
          "type": "uint8"
        },
        {
          "internalType": "string",
          "name": "_filterLandType",
          "type": "string"
        }
      ],
      "name": "getLandsFromMarket",
      "outputs": [
        {
          "internalType": "uint256",
          "name": "",
          "type": "uint256"
        },
        {
          "internalType": "uint256[]",
          "name": "",
          "type": "uint256[]"
        }
      ],
      "stateMutability": "view",
      "type": "function"
    },
    {
      "inputs": [],
      "name": "getSaleHistory",
      "outputs": [
        {
          "internalType": "uint256",
          "name": "",
          "type": "uint256"
        },
        {
          "components": [
            {
              "internalType": "address",
              "name": "fromUser",
              "type": "address"
            },
            {
              "internalType": "address",
              "name": "toUser",
              "type": "address"
            },
            {
              "internalType": "string",
              "name": "nftType",
              "type": "string"
            },
            {
              "internalType": "uint256",
              "name": "price",
              "type": "uint256"
            },
            {
              "internalType": "uint256",
              "name": "tokenId",
              "type": "uint256"
            },
            {
              "internalType": "uint256",
              "name": "timestamp",
              "type": "uint256"
            }
          ],
          "internalType": "struct MarketContract.HistoryItem[]",
          "name": "",
          "type": "tuple[]"
        }
      ],
      "stateMutability": "view",
      "type": "function"
    },
    {
      "inputs": [
        {
          "internalType": "uint256",
          "name": "_startIndex",
          "type": "uint256"
        },
        {
          "internalType": "uint8",
          "name": "_count",
          "type": "uint8"
        },
        {
          "internalType": "string",
          "name": "_nftType",
          "type": "string"
        },
        {
          "internalType": "string",
          "name": "_filterRarity",
          "type": "string"
        },
        {
          "internalType": "string",
          "name": "_filterCollection",
          "type": "string"
        }
      ],
      "name": "getZombiesMonstersFromMarket",
      "outputs": [
        {
          "internalType": "uint256",
          "name": "",
          "type": "uint256"
        },
        {
          "internalType": "uint256[]",
          "name": "",
          "type": "uint256[]"
        }
      ],
      "stateMutability": "view",
      "type": "function"
    },
    {
      "inputs": [
        {
          "internalType": "address",
          "name": "_mainContract",
          "type": "address"
        }
      ],
      "name": "initialize",
      "outputs": [],
      "stateMutability": "nonpayable",
      "type": "function"
    },
    {
      "inputs": [
        {
          "internalType": "uint256",
          "name": "",
          "type": "uint256"
        }
      ],
      "name": "marketHistory",
      "outputs": [
        {
          "internalType": "address",
          "name": "fromUser",
          "type": "address"
        },
        {
          "internalType": "address",
          "name": "toUser",
          "type": "address"
        },
        {
          "internalType": "string",
          "name": "nftType",
          "type": "string"
        },
        {
          "internalType": "uint256",
          "name": "price",
          "type": "uint256"
        },
        {
          "internalType": "uint256",
          "name": "tokenId",
          "type": "uint256"
        },
        {
          "internalType": "uint256",
          "name": "timestamp",
          "type": "uint256"
        }
      ],
      "stateMutability": "view",
      "type": "function"
    },
    {
      "inputs": [],
      "name": "owner",
      "outputs": [
        {
          "internalType": "address",
          "name": "",
          "type": "address"
        }
      ],
      "stateMutability": "view",
      "type": "function"
    },
    {
      "inputs": [],
      "name": "proxiableUUID",
      "outputs": [
        {
          "internalType": "bytes32",
          "name": "",
          "type": "bytes32"
        }
      ],
      "stateMutability": "view",
      "type": "function"
    },
    {
      "inputs": [
        {
          "internalType": "uint256[]",
          "name": "_idList",
          "type": "uint256[]"
        },
        {
          "internalType": "uint256[]",
          "name": "_priceList",
          "type": "uint256[]"
        },
        {
          "internalType": "string",
          "name": "_typeNFT",
          "type": "string"
        }
      ],
      "name": "publishOnMarket",
      "outputs": [],
      "stateMutability": "nonpayable",
      "type": "function"
    },
    {
      "inputs": [
        {
          "internalType": "uint256",
          "name": "_tokenId",
          "type": "uint256"
        },
        {
          "internalType": "string",
          "name": "_typeNFT",
          "type": "string"
        }
      ],
      "name": "removeFromMarket",
      "outputs": [],
      "stateMutability": "nonpayable",
      "type": "function"
    },
    {
      "inputs": [
        {
          "internalType": "uint256",
          "name": "_tokenId",
          "type": "uint256"
        },
        {
          "internalType": "string",
          "name": "_typeNFT",
          "type": "string"
        }
      ],
      "name": "removeFromMarketExternal",
      "outputs": [],
      "stateMutability": "nonpayable",
      "type": "function"
    },
    {
      "inputs": [],
      "name": "renounceOwnership",
      "outputs": [],
      "stateMutability": "nonpayable",
      "type": "function"
    },
    {
      "inputs": [
        {
          "internalType": "address",
          "name": "newOwner",
          "type": "address"
        }
      ],
      "name": "transferOwnership",
      "outputs": [],
      "stateMutability": "nonpayable",
      "type": "function"
    },
    {
      "inputs": [
        {
          "internalType": "address",
          "name": "newImplementation",
          "type": "address"
        }
      ],
      "name": "upgradeTo",
      "outputs": [],
      "stateMutability": "nonpayable",
      "type": "function"
    },
    {
      "inputs": [
        {
          "internalType": "address",
          "name": "newImplementation",
          "type": "address"
        },
        {
          "internalType": "bytes",
          "name": "data",
          "type": "bytes"
        }
      ],
      "name": "upgradeToAndCall",
      "outputs": [],
      "stateMutability": "payable",
      "type": "function"
    }
  ],
  "bytecode": "0x60a0604052306080523480156200001557600080fd5b506200002062000026565b62000156565b6200003260ff62000035565b50565b60008054610100900460ff1615620000ce578160ff1660011480156200006e57506200006c306200014760201b62001b9f1760201c565b155b620000c65760405162461bcd60e51b815260206004820152602e6024820152600080516020620035f683398151915260448201526d191e481a5b9a5d1a585b1a5e995960921b60648201526084015b60405180910390fd5b506000919050565b60005460ff8084169116106200012d5760405162461bcd60e51b815260206004820152602e6024820152600080516020620035f683398151915260448201526d191e481a5b9a5d1a585b1a5e995960921b6064820152608401620000bd565b506000805460ff191660ff92909216919091179055600190565b6001600160a01b03163b151590565b6080516134686200018e60003960008181610a8c01528181610acc01528181610b6c01528181610bac0152610c3f01526134686000f3fe6080604052600436106101095760003560e01c80637620f62511610095578063c4d66de811610064578063c4d66de8146102af578063d6eb4df4146102cf578063f18021c2146102ef578063f2fde38b14610321578063fa95df8d1461034157600080fd5b80637620f6251461022e5780638697ea7c1461024e5780638da5cb5b14610264578063a4fa49e01461028c57600080fd5b80633659cfe6116100dc5780633659cfe6146101bc5780633c7dc863146101dc5780634f1ef286146101f157806352d1902d14610204578063715018a61461021957600080fd5b80630854748a1461010e5780631342c94514610123578063278d453c1461016e57806329458db61461019c575b600080fd5b61012161011c366004612bb5565b610361565b005b34801561012f57600080fd5b5061015b61013e366004612bfb565b805160208183018101805160cf8252928201919093012091525481565b6040519081526020015b60405180910390f35b34801561017a57600080fd5b5061018e610189366004612c40565b6107ee565b604051610165929190612ce2565b3480156101a857600080fd5b506101216101b7366004612bb5565b6109ce565b3480156101c857600080fd5b506101216101d7366004612d45565b610a81565b3480156101e857600080fd5b5061015b603281565b6101216101ff366004612d62565b610b61565b34801561021057600080fd5b5061015b610c32565b34801561022557600080fd5b50610121610ce5565b34801561023a57600080fd5b5061018e610249366004612dbb565b610d1b565b34801561025a57600080fd5b5061015b6101f481565b34801561027057600080fd5b506097546040516001600160a01b039091168152602001610165565b34801561029857600080fd5b506102a161102c565b604051610165929190612e69565b3480156102bb57600080fd5b506101216102ca366004612d45565b6111dd565b3480156102db57600080fd5b506101216102ea366004612f61565b6112ec565b3480156102fb57600080fd5b5061030f61030a366004612fda565b61180d565b60405161016596959493929190612ff3565b34801561032d57600080fd5b5061012161033c366004612d45565b6118d7565b34801561034d57600080fd5b5061012161035c366004612bb5565b61196f565b60008061038a83604051806040016040528060048152602001631b185b9960e21b815250611bae565b156104115760ca915060c960009054906101000a90046001600160a01b03166001600160a01b031663afc297cb6040518163ffffffff1660e01b8152600401602060405180830381865afa1580156103e6573d6000803e3d6000fd5b505050506040513d601f19601f8201168201806040525081019061040a919061303d565b905061055e565b61043983604051806040016040528060068152602001657a6f6d62696560d01b815250611bae565b156104955760cb915060c960009054906101000a90046001600160a01b03166001600160a01b031663b53720c56040518163ffffffff1660e01b8152600401602060405180830381865afa1580156103e6573d6000803e3d6000fd5b6104be836040518060400160405280600781526020016636b7b739ba32b960c91b815250611bae565b1561051a5760cc915060c960009054906101000a90046001600160a01b03166001600160a01b031663f095821f6040518163ffffffff1660e01b8152600401602060405180830381865afa1580156103e6573d6000803e3d6000fd5b604051637bfeaddb60e11b815260206004820152601360248201527257726f6e6720747970654e465420706172616d60681b60448201526064015b60405180910390fd5b6040516321466eb560e01b8152600481018590523460248201523360448201526000906001600160a01b038316906321466eb5906064016020604051808303816000875af11580156105b4573d6000803e3d6000fd5b505050506040513d601f19601f820116820180604052508101906105d8919061303d565b905060006105e86103e834613086565b6105f390600561309a565b6105fd90346130b9565b6040519091506001600160a01b0383169082156108fc029083906000818181858888f19350505050158015610636573d6000803e3d6000fd5b506000806106938680548060200260200160405190810160405280929190818152602001828054801561068857602002820191906000526020600020905b815481526020019060010190808311610674575b505050505089611bc4565b91509150801561070f57855486906106ad906001906130b9565b815481106106bd576106bd6130d0565b90600052602060002001548683815481106106da576106da6130d0565b9060005260206000200181905550858054806106f8576106f86130e6565b600190038181906000526020600020016000905590555b6040805160c0810182526001600160a01b0380871682523360208084019182528385018c8152346060860152608085018e90524260a086015260cd54600090815260ce835295909520845181549085166001600160a01b03199182161782559251600182018054919095169316929092179092559251805192939261079a9260028501920190612a51565b50606082015181600301556080820151816004015560a08201518160050155905050600160cd60008282546107cf91906130fc565b909155505060cd546032116107e457600060cd555b5050505050505050565b60006060600061081d86604051806040016040528060078152602001667a6f6d6269657360c81b815250611bae565b6108285760cc61082b565b60cb5b905060008760ff166001600160401b0381111561084a5761084a612aea565b604051908082528060200260200182016040528015610873578160200160208202803683370190505b50905060008083805490506001600160401b0381111561089557610895612aea565b6040519080825280602002602001820160405280156108be578160200160208202803683370190505b509050875160001415806108d25750865115155b156108ed576108e3848a8a8a611c24565b9092509050610941565b83546040805160208084028201810190925282815291869183018282801561093457602002820191906000526020600020905b815481526020019060010190808311610920575b5050875495509293505050505b60008061095160ff8d168e6130fc565b90508c5b818110156109ba57808511156109aa57838181518110610977576109776130d0565b6020026020010151868481518110610991576109916130d0565b60209081029190910101526109a76001846130fc565b92505b6109b381613114565b9050610955565b50929c939b50929950505050505050505050565b6109d6611fe3565b60006109fe82604051806040016040528060048152602001631b185b9960e21b815250611bae565b15610a0b575060ca610a72565b610a3382604051806040016040528060068152602001657a6f6d62696560d01b815250611bae565b15610a40575060cb610a72565b610a69826040518060400160405280600781526020016636b7b739ba32b960c91b815250611bae565b1561051a575060cc5b610a7c83826121c7565b505050565b306001600160a01b037f0000000000000000000000000000000000000000000000000000000000000000161415610aca5760405162461bcd60e51b81526004016105559061312f565b7f00000000000000000000000000000000000000000000000000000000000000006001600160a01b0316610b136000805160206133ec833981519152546001600160a01b031690565b6001600160a01b031614610b395760405162461bcd60e51b81526004016105559061317b565b610b42816122a4565b60408051600080825260208201909252610b5e918391906122ce565b50565b306001600160a01b037f0000000000000000000000000000000000000000000000000000000000000000161415610baa5760405162461bcd60e51b81526004016105559061312f565b7f00000000000000000000000000000000000000000000000000000000000000006001600160a01b0316610bf36000805160206133ec833981519152546001600160a01b031690565b6001600160a01b031614610c195760405162461bcd60e51b81526004016105559061317b565b610c22826122a4565b610c2e828260016122ce565b5050565b6000306001600160a01b037f00000000000000000000000000000000000000000000000000000000000000001614610cd25760405162461bcd60e51b815260206004820152603860248201527f555550535570677261646561626c653a206d757374206e6f742062652063616c60448201527f6c6564207468726f7567682064656c656761746563616c6c00000000000000006064820152608401610555565b506000805160206133ec83398151915290565b6097546001600160a01b03163314610d0f5760405162461bcd60e51b8152600401610555906131c7565b610d196000612439565b565b60006060600060ca805490506001600160401b03811115610d3e57610d3e612aea565b604051908082528060200260200182016040528015610d67578160200160208202803683370190505b50905060008560ff166001600160401b03811115610d8757610d87612aea565b604051908082528060200260200182016040528015610db0578160200160208202803683370190505b5090506000855160001415610e1f5760ca805480602002602001604051908101604052809291908181526020018280548015610e0b57602002820191906000526020600020905b815481526020019060010190808311610df7575b5050505050925060ca805490509050610fa2565b60c9546040805163afc297cb60e01b815290516000926001600160a01b03169163afc297cb9160048083019260209291908290030181865afa158015610e69573d6000803e3d6000fd5b505050506040513d601f19601f82011682018060405250810190610e8d919061303d565b60ca549091506000805b82811015610f9c576000846001600160a01b03166359cc3cb860ca8481548110610ec357610ec36130d0565b90600052602060002001546040518263ffffffff1660e01b8152600401610eec91815260200190565b600060405180830381865afa158015610f09573d6000803e3d6000fd5b505050506040513d6000823e601f3d908101601f19168201604052610f319190810190613241565b9050610f3d818c611bae565b15610f8b5760ca8281548110610f5557610f556130d0565b9060005260206000200154888481518110610f7257610f726130d0565b6020908102919091010152610f886001846130fc565b92505b50610f9581613114565b9050610e97565b50925050505b600080610fb260ff8a168b6130fc565b9050895b8181101561101b578084111561100b57858181518110610fd857610fd86130d0565b6020026020010151858481518110610ff257610ff26130d0565b60209081029190910101526110086001846130fc565b92505b61101481613114565b9050610fb6565b509199929850919650505050505050565b60408051603280825261066082019092526000916060918391816020015b6110956040518060c0016040528060006001600160a01b0316815260200160006001600160a01b03168152602001606081526020016000815260200160008152602001600081525090565b81526020019060019003908161104a57905050905060005b60328110156111d157600081815260ce6020908152604091829020825160c08101845281546001600160a01b03908116825260018301541692810192909252600281018054929391929184019161110390613275565b80601f016020809104026020016040519081016040528092919081815260200182805461112f90613275565b801561117c5780601f106111515761010080835404028352916020019161117c565b820191906000526020600020905b81548152906001019060200180831161115f57829003601f168201915b5050505050815260200160038201548152602001600482015481526020016005820154815250508282815181106111b5576111b56130d0565b6020026020010181905250806111ca90613114565b90506110ad565b5060cd54939092509050565b60006111e9600161248b565b90508015611201576000805461ff0019166101001790555b611209612518565b611211612547565b60c980546001600160a01b0319166001600160a01b038416179055604051631b185b9960e21b815260009060cf9060040190815260405190819003602001812091909155657a6f6d62696560d01b815260009060cf90600601908152604051908190036020018120919091556636b7b739ba32b960c91b815260009060cf90600701908152604051908190036020019020558015610c2e576000805461ff0019169055604051600181527f7f26b83ff96e1f2b6a682f133852f6798a09c465da95921460cefb38474024989060200160405180910390a15050565b60008061131583604051806040016040528060048152602001631b185b9960e21b815250611bae565b1561139c5760c960009054906101000a90046001600160a01b03166001600160a01b031663afc297cb6040518163ffffffff1660e01b8152600401602060405180830381865afa15801561136d573d6000803e3d6000fd5b505050506040513d601f19601f82011682018060405250810190611391919061303d565b915060ca90506114f7565b6113c483604051806040016040528060068152602001657a6f6d62696560d01b815250611bae565b1561144b5760c960009054906101000a90046001600160a01b03166001600160a01b031663b53720c56040518163ffffffff1660e01b8152600401602060405180830381865afa15801561141c573d6000803e3d6000fd5b505050506040513d601f19601f82011682018060405250810190611440919061303d565b915060cb90506114f7565b611474836040518060400160405280600781526020016636b7b739ba32b960c91b815250611bae565b1561051a5760c960009054906101000a90046001600160a01b03166001600160a01b031663f095821f6040518163ffffffff1660e01b8152600401602060405180830381865afa1580156114cc573d6000803e3d6000fd5b505050506040513d601f19601f820116820180604052508101906114f0919061303d565b915060cc90505b60005b868110156107e45760006115758380548060200260200160405190810160405280929190818152602001828054801561155257602002820191906000526020600020905b81548152602001906001019080831161153e575b50505050508a8a85818110611569576115696130d0565b9050602002013561256e565b9050806117fc57836001600160a01b031663feb9fd648a8a8581811061159d5761159d6130d0565b905060200201358989868181106115b6576115b66130d0565b6040516001600160e01b031960e087901b16815260048101949094526020029190910135602483015250336044820152606401600060405180830381600087803b15801561160357600080fd5b505af1158015611617573d6000803e3d6000fd5b5050505060cf8560405161162b91906132b0565b908152604051908190036020019020548354111561174657836001600160a01b031663feb9fd648460cf8860405161166391906132b0565b90815260200160405180910390205481548110611682576116826130d0565b60009182526020822001546040516001600160e01b031960e085901b16815260048101919091526024810191909152336044820152606401600060405180830381600087803b1580156116d457600080fd5b505af11580156116e8573d6000803e3d6000fd5b505050508888838181106116fe576116fe6130d0565b905060200201358360cf8760405161171691906132b0565b90815260200160405180910390205481548110611735576117356130d0565b60009182526020909120015561177c565b82898984818110611759576117596130d0565b835460018101855560009485526020948590209190940292909201359190920155505b600160cf8660405161178e91906132b0565b908152602001604051809103902060008282546117ab91906130fc565b925050819055506101f460cf866040516117c591906132b0565b908152602001604051809103902054106117fc57600060cf866040516117eb91906132b0565b908152604051908190036020019020555b5061180681613114565b90506114fa565b60ce602052600090815260409020805460018201546002830180546001600160a01b0393841694929093169261184290613275565b80601f016020809104026020016040519081016040528092919081815260200182805461186e90613275565b80156118bb5780601f10611890576101008083540402835291602001916118bb565b820191906000526020600020905b81548152906001019060200180831161189e57829003601f168201915b5050505050908060030154908060040154908060050154905086565b6097546001600160a01b031633146119015760405162461bcd60e51b8152600401610555906131c7565b6001600160a01b0381166119665760405162461bcd60e51b815260206004820152602660248201527f4f776e61626c653a206e6577206f776e657220697320746865207a65726f206160448201526564647265737360d01b6064820152608401610555565b610b5e81612439565b60008061199883604051806040016040528060048152602001631b185b9960e21b815250611bae565b15611a1f5760ca915060c960009054906101000a90046001600160a01b03166001600160a01b031663afc297cb6040518163ffffffff1660e01b8152600401602060405180830381865afa1580156119f4573d6000803e3d6000fd5b505050506040513d601f19601f82011682018060405250810190611a18919061303d565b9050611b28565b611a4783604051806040016040528060068152602001657a6f6d62696560d01b815250611bae565b15611aa35760cb915060c960009054906101000a90046001600160a01b03166001600160a01b031663b53720c56040518163ffffffff1660e01b8152600401602060405180830381865afa1580156119f4573d6000803e3d6000fd5b611acc836040518060400160405280600781526020016636b7b739ba32b960c91b815250611bae565b1561051a5760cc915060c960009054906101000a90046001600160a01b03166001600160a01b031663f095821f6040518163ffffffff1660e01b8152600401602060405180830381865afa1580156119f4573d6000803e3d6000fd5b604051633fae7f5960e21b815260048101859052600060248201523360448201526001600160a01b0382169063feb9fd6490606401600060405180830381600087803b158015611b7757600080fd5b505af1158015611b8b573d6000803e3d6000fd5b50505050611b9984836121c7565b50505050565b6001600160a01b03163b151590565b6000611bba83836125c4565b1590505b92915050565b81516000908190815b81811015611c135784868281518110611be857611be86130d0565b60200260200101511415611c0357925060019150611c1d9050565b611c0c81613114565b9050611bcd565b5060008092509250505b9250929050565b8354600090606090829081816001600160401b03811115611c4757611c47612aea565b604051908082528060200260200182016040528015611c70578160200160208202803683370190505b5090506000611c9e89604051806040016040528060078152602001667a6f6d6269657360c81b815250611bae565b611d1e5760c960009054906101000a90046001600160a01b03166001600160a01b031663f095821f6040518163ffffffff1660e01b8152600401602060405180830381865afa158015611cf5573d6000803e3d6000fd5b505050506040513d601f19601f82011682018060405250810190611d19919061303d565b611d95565b60c960009054906101000a90046001600160a01b03166001600160a01b031663b53720c56040518163ffffffff1660e01b8152600401602060405180830381865afa158015611d71573d6000803e3d6000fd5b505050506040513d601f19601f82011682018060405250810190611d95919061303d565b905060005b83811015611fd35760008080611dcf8d604051806040016040528060078152602001667a6f6d6269657360c81b815250611bae565b611e6757846001600160a01b0316634689856c8f8681548110611df457611df46130d0565b90600052602060002001546040518263ffffffff1660e01b8152600401611e1d91815260200190565b600060405180830381865afa158015611e3a573d6000803e3d6000fd5b505050506040513d6000823e601f3d908101601f19168201604052611e6291908101906132cc565b611ef6565b846001600160a01b0316634689856c8f8681548110611e8857611e886130d0565b90600052602060002001546040518263ffffffff1660e01b8152600401611eb191815260200190565b600060405180830381865afa158015611ece573d6000803e3d6000fd5b505050506040513d6000823e601f3d908101601f19168201604052611ef691908101906132cc565b915091508b51600014158015611f0c57508a5115155b15611f4357611f1b828d611bae565b8015611f345750611f34611f2e826126e7565b8c611bae565b15611f3e57600192505b611f71565b8b5115611f5457611f34828d611bae565b8a5115611f7157611f67611f2e826126e7565b15611f7157600192505b8215611fbf578d8481548110611f8957611f896130d0565b9060005260206000200154868981518110611fa657611fa66130d0565b6020908102919091010152611fbc6001896130fc565b97505b50505080611fcc90613114565b9050611d9a565b5092999098509650505050505050565b60c9546040805163f095821f60e01b815290516000926001600160a01b03169163f095821f9160048083019260209291908290030181865afa15801561202d573d6000803e3d6000fd5b505050506040513d601f19601f82011682018060405250810190612051919061303d565b9050600060c960009054906101000a90046001600160a01b03166001600160a01b031663b53720c56040518163ffffffff1660e01b8152600401602060405180830381865afa1580156120a8573d6000803e3d6000fd5b505050506040513d601f19601f820116820180604052508101906120cc919061303d565b9050600060c960009054906101000a90046001600160a01b03166001600160a01b031663afc297cb6040518163ffffffff1660e01b8152600401602060405180830381865afa158015612123573d6000803e3d6000fd5b505050506040513d601f19601f82011682018060405250810190612147919061303d565b90506001600160a01b03821633148061216857506001600160a01b03831633145b8061217b57506001600160a01b03811633145b610a7c5760405162461bcd60e51b815260206004820152601a60248201527f596f752063616e27742063616c6c2074686973206d6574686f640000000000006044820152606401610555565b6000806122238380548060200260200160405190810160405280929190818152602001828054801561221857602002820191906000526020600020905b815481526020019060010190808311612204575b505050505085611bc4565b915091508015611b99578254839061223d906001906130b9565b8154811061224d5761224d6130d0565b906000526020600020015483838154811061226a5761226a6130d0565b906000526020600020018190555082805480612288576122886130e6565b6001900381819060005260206000200160009055905550505050565b6097546001600160a01b03163314610b5e5760405162461bcd60e51b8152600401610555906131c7565b7f4910fdfa16fed3260ed0e7147f7cc6da11a60208b5b9406d12a635614ffd91435460ff161561230157610a7c836127ec565b826001600160a01b03166352d1902d6040518163ffffffff1660e01b8152600401602060405180830381865afa92505050801561235b575060408051601f3d908101601f1916820190925261235891810190613312565b60015b6123be5760405162461bcd60e51b815260206004820152602e60248201527f45524331393637557067726164653a206e657720696d706c656d656e7461746960448201526d6f6e206973206e6f74205555505360901b6064820152608401610555565b6000805160206133ec833981519152811461242d5760405162461bcd60e51b815260206004820152602960248201527f45524331393637557067726164653a20756e737570706f727465642070726f786044820152681a58589b195555525160ba1b6064820152608401610555565b50610a7c838383612888565b609780546001600160a01b038381166001600160a01b0319831681179093556040519116919082907f8be0079c531659141344cd1fd0a4f28419497f9722a3daafe3b4186f6b6457e090600090a35050565b60008054610100900460ff16156124d2578160ff1660011480156124ae5750303b155b6124ca5760405162461bcd60e51b81526004016105559061332b565b506000919050565b60005460ff8084169116106124f95760405162461bcd60e51b81526004016105559061332b565b506000805460ff191660ff92909216919091179055600190565b919050565b600054610100900460ff1661253f5760405162461bcd60e51b815260040161055590613379565b610d196128ad565b600054610100900460ff16610d195760405162461bcd60e51b815260040161055590613379565b8151600090815b818110156125b95783858281518110612590576125906130d0565b602002602001015114156125a957600192505050611bbe565b6125b281613114565b9050612575565b506000949350505050565b8151815160009184918491908111156125db575080515b60005b818110156126ad578281815181106125f8576125f86130d0565b602001015160f81c60f81b6001600160f81b03191684828151811061261f5761261f6130d0565b01602001516001600160f81b031916101561264257600019945050505050611bbe565b828181518110612654576126546130d0565b602001015160f81c60f81b6001600160f81b03191684828151811061267b5761267b6130d0565b01602001516001600160f81b031916111561269d576001945050505050611bbe565b6126a681613114565b90506125de565b508151835110156126c5576000199350505050611bbe565b8151835111156126db5760019350505050611bbe565b60009350505050611bbe565b60608161270b5750506040805180820190915260018152600360fc1b602082015290565b8160005b8115612735578061271f81613114565b915061272e9050600a83613086565b915061270f565b6000816001600160401b0381111561274f5761274f612aea565b6040519080825280601f01601f191660200182016040528015612779576020820181803683370190505b5090505b84156127e45761278e6001836130b9565b915061279b600a866133c4565b6127a69060306130fc565b60f81b8183815181106127bb576127bb6130d0565b60200101906001600160f81b031916908160001a9053506127dd600a86613086565b945061277d565b949350505050565b6001600160a01b0381163b6128595760405162461bcd60e51b815260206004820152602d60248201527f455243313936373a206e657720696d706c656d656e746174696f6e206973206e60448201526c1bdd08184818dbdb9d1c9858dd609a1b6064820152608401610555565b6000805160206133ec83398151915280546001600160a01b0319166001600160a01b0392909216919091179055565b612891836128dd565b60008251118061289e5750805b15610a7c57611b99838361291d565b600054610100900460ff166128d45760405162461bcd60e51b815260040161055590613379565b610d1933612439565b6128e6816127ec565b6040516001600160a01b038216907fbc7cd75a20ee27fd9adebab32041f755214dbc6bffa90cc0225b39da2e5c2d3b90600090a250565b60606001600160a01b0383163b6129855760405162461bcd60e51b815260206004820152602660248201527f416464726573733a2064656c65676174652063616c6c20746f206e6f6e2d636f6044820152651b9d1c9858dd60d21b6064820152608401610555565b600080846001600160a01b0316846040516129a091906132b0565b600060405180830381855af49150503d80600081146129db576040519150601f19603f3d011682016040523d82523d6000602084013e6129e0565b606091505b5091509150612a08828260405180606001604052806027815260200161340c60279139612a11565b95945050505050565b60608315612a20575081612a4a565b825115612a305782518084602001fd5b8160405162461bcd60e51b815260040161055591906133d8565b9392505050565b828054612a5d90613275565b90600052602060002090601f016020900481019282612a7f5760008555612ac5565b82601f10612a9857805160ff1916838001178555612ac5565b82800160010185558215612ac5579182015b82811115612ac5578251825591602001919060010190612aaa565b50612ad1929150612ad5565b5090565b5b80821115612ad15760008155600101612ad6565b634e487b7160e01b600052604160045260246000fd5b604051601f8201601f191681016001600160401b0381118282101715612b2857612b28612aea565b604052919050565b60006001600160401b03821115612b4957612b49612aea565b50601f01601f191660200190565b6000612b6a612b6584612b30565b612b00565b9050828152838383011115612b7e57600080fd5b828260208301376000602084830101529392505050565b600082601f830112612ba657600080fd5b612a4a83833560208501612b57565b60008060408385031215612bc857600080fd5b8235915060208301356001600160401b03811115612be557600080fd5b612bf185828601612b95565b9150509250929050565b600060208284031215612c0d57600080fd5b81356001600160401b03811115612c2357600080fd5b6127e484828501612b95565b803560ff8116811461251357600080fd5b600080600080600060a08688031215612c5857600080fd5b85359450612c6860208701612c2f565b935060408601356001600160401b0380821115612c8457600080fd5b612c9089838a01612b95565b94506060880135915080821115612ca657600080fd5b612cb289838a01612b95565b93506080880135915080821115612cc857600080fd5b50612cd588828901612b95565b9150509295509295909350565b6000604082018483526020604081850152818551808452606086019150828701935060005b81811015612d2357845183529383019391830191600101612d07565b5090979650505050505050565b6001600160a01b0381168114610b5e57600080fd5b600060208284031215612d5757600080fd5b8135612a4a81612d30565b60008060408385031215612d7557600080fd5b8235612d8081612d30565b915060208301356001600160401b03811115612d9b57600080fd5b8301601f81018513612dac57600080fd5b612bf185823560208401612b57565b600080600060608486031215612dd057600080fd5b83359250612de060208501612c2f565b915060408401356001600160401b03811115612dfb57600080fd5b612e0786828701612b95565b9150509250925092565b60005b83811015612e2c578181015183820152602001612e14565b83811115611b995750506000910152565b60008151808452612e55816020860160208601612e11565b601f01601f19169290920160200192915050565b6000604080830185845260208281860152818651808452606093508387019150838160051b88010183890160005b83811015612f0d57898303605f19018552815180516001600160a01b0390811685528782015116878501528881015160c08a860181905290612edb82870182612e3d565b838b0151878c01526080808501519088015260a093840151939096019290925250509385019390850190600101612e97565b50909a9950505050505050505050565b60008083601f840112612f2f57600080fd5b5081356001600160401b03811115612f4657600080fd5b6020830191508360208260051b8501011115611c1d57600080fd5b600080600080600060608688031215612f7957600080fd5b85356001600160401b0380821115612f9057600080fd5b612f9c89838a01612f1d565b90975095506020880135915080821115612fb557600080fd5b612fc189838a01612f1d565b90955093506040880135915080821115612cc857600080fd5b600060208284031215612fec57600080fd5b5035919050565b6001600160a01b0387811682528616602082015260c06040820181905260009061301f90830187612e3d565b606083019590955250608081019290925260a0909101529392505050565b60006020828403121561304f57600080fd5b8151612a4a81612d30565b634e487b7160e01b600052601260045260246000fd5b634e487b7160e01b600052601160045260246000fd5b6000826130955761309561305a565b500490565b60008160001904831182151516156130b4576130b4613070565b500290565b6000828210156130cb576130cb613070565b500390565b634e487b7160e01b600052603260045260246000fd5b634e487b7160e01b600052603160045260246000fd5b6000821982111561310f5761310f613070565b500190565b600060001982141561312857613128613070565b5060010190565b6020808252602c908201527f46756e6374696f6e206d7573742062652063616c6c6564207468726f7567682060408201526b19195b1959d85d1958d85b1b60a21b606082015260800190565b6020808252602c908201527f46756e6374696f6e206d7573742062652063616c6c6564207468726f7567682060408201526b6163746976652070726f787960a01b606082015260800190565b6020808252818101527f4f776e61626c653a2063616c6c6572206973206e6f7420746865206f776e6572604082015260600190565b600082601f83011261320d57600080fd5b815161321b612b6582612b30565b81815284602083860101111561323057600080fd5b6127e4826020830160208701612e11565b60006020828403121561325357600080fd5b81516001600160401b0381111561326957600080fd5b6127e4848285016131fc565b600181811c9082168061328957607f821691505b602082108114156132aa57634e487b7160e01b600052602260045260246000fd5b50919050565b600082516132c2818460208701612e11565b9190910192915050565b600080604083850312156132df57600080fd5b82516001600160401b038111156132f557600080fd5b613301858286016131fc565b925050602083015190509250929050565b60006020828403121561332457600080fd5b5051919050565b6020808252602e908201527f496e697469616c697a61626c653a20636f6e747261637420697320616c72656160408201526d191e481a5b9a5d1a585b1a5e995960921b606082015260800190565b6020808252602b908201527f496e697469616c697a61626c653a20636f6e7472616374206973206e6f74206960408201526a6e697469616c697a696e6760a81b606082015260800190565b6000826133d3576133d361305a565b500690565b602081526000612a4a6020830184612e3d56fe360894a13ba1a3210667c828492db98dca3e2076cc3735a920a3ca505d382bbc416464726573733a206c6f772d6c6576656c2064656c65676174652063616c6c206661696c6564a26469706673582212202d135042bdc6cbdc37f1d1b34996031728df350691a4659d058e8194c76396ce64736f6c634300080c0033496e697469616c697a61626c653a20636f6e747261637420697320616c726561",
  "linkReferences": {},
  "deployedLinkReferences": {}
}