{
  "_format": "hh-sol-artifact-1",
  "contractName": "MonsterNFTHelperContract",
  "sourceName": "src/backend/contracts/MonsterNFTHelper.sol",
  "abi": [
    {
      "inputs": [],
      "stateMutability": "nonpayable",
      "type": "constructor"
    },
    {
      "anonymous": false,
      "inputs": [
        {
          "indexed": false,
          "internalType": "address",
          "name": "previousAdmin",
          "type": "address"
        },
        {
          "indexed": false,
          "internalType": "address",
          "name": "newAdmin",
          "type": "address"
        }
      ],
      "name": "AdminChanged",
      "type": "event"
    },
    {
      "anonymous": false,
      "inputs": [
        {
          "indexed": true,
          "internalType": "address",
          "name": "beacon",
          "type": "address"
        }
      ],
      "name": "BeaconUpgraded",
      "type": "event"
    },
    {
      "anonymous": false,
      "inputs": [
        {
          "indexed": false,
          "internalType": "uint8",
          "name": "version",
          "type": "uint8"
        }
      ],
      "name": "Initialized",
      "type": "event"
    },
    {
      "anonymous": false,
      "inputs": [
        {
          "indexed": true,
          "internalType": "address",
          "name": "previousOwner",
          "type": "address"
        },
        {
          "indexed": true,
          "internalType": "address",
          "name": "newOwner",
          "type": "address"
        }
      ],
      "name": "OwnershipTransferred",
      "type": "event"
    },
    {
      "anonymous": false,
      "inputs": [
        {
          "indexed": true,
          "internalType": "address",
          "name": "implementation",
          "type": "address"
        }
      ],
      "name": "Upgraded",
      "type": "event"
    },
    {
      "inputs": [
        {
          "internalType": "uint256",
          "name": "_page",
          "type": "uint256"
        },
        {
          "internalType": "uint256",
          "name": "_count",
          "type": "uint256"
        },
        {
          "internalType": "string",
          "name": "_rarityFilter",
          "type": "string"
        },
        {
          "internalType": "address",
          "name": "_owner",
          "type": "address"
        }
      ],
      "name": "getPageIdList",
      "outputs": [
        {
          "internalType": "uint256[]",
          "name": "",
          "type": "uint256[]"
        },
        {
          "internalType": "uint256",
          "name": "",
          "type": "uint256"
        },
        {
          "internalType": "uint256",
          "name": "",
          "type": "uint256"
        }
      ],
      "stateMutability": "view",
      "type": "function"
    },
    {
      "inputs": [
        {
          "internalType": "address",
          "name": "_mainContract",
          "type": "address"
        }
      ],
      "name": "initialize",
      "outputs": [],
      "stateMutability": "nonpayable",
      "type": "function"
    },
    {
      "inputs": [],
      "name": "owner",
      "outputs": [
        {
          "internalType": "address",
          "name": "",
          "type": "address"
        }
      ],
      "stateMutability": "view",
      "type": "function"
    },
    {
      "inputs": [],
      "name": "proxiableUUID",
      "outputs": [
        {
          "internalType": "bytes32",
          "name": "",
          "type": "bytes32"
        }
      ],
      "stateMutability": "view",
      "type": "function"
    },
    {
      "inputs": [],
      "name": "renounceOwnership",
      "outputs": [],
      "stateMutability": "nonpayable",
      "type": "function"
    },
    {
      "inputs": [
        {
          "internalType": "address",
          "name": "newOwner",
          "type": "address"
        }
      ],
      "name": "transferOwnership",
      "outputs": [],
      "stateMutability": "nonpayable",
      "type": "function"
    },
    {
      "inputs": [
        {
          "internalType": "address",
          "name": "newImplementation",
          "type": "address"
        }
      ],
      "name": "upgradeTo",
      "outputs": [],
      "stateMutability": "nonpayable",
      "type": "function"
    },
    {
      "inputs": [
        {
          "internalType": "address",
          "name": "newImplementation",
          "type": "address"
        },
        {
          "internalType": "bytes",
          "name": "data",
          "type": "bytes"
        }
      ],
      "name": "upgradeToAndCall",
      "outputs": [],
      "stateMutability": "payable",
      "type": "function"
    }
  ],
  "bytecode": "0x60a0604052306080523480156200001557600080fd5b506200002062000026565b62000156565b6200003260ff62000035565b50565b60008054610100900460ff1615620000ce578160ff1660011480156200006e57506200006c306200014760201b620009011760201c565b155b620000c65760405162461bcd60e51b815260206004820152602e60248201526000805160206200178283398151915260448201526d191e481a5b9a5d1a585b1a5e995960921b60648201526084015b60405180910390fd5b506000919050565b60005460ff8084169116106200012d5760405162461bcd60e51b815260206004820152602e60248201526000805160206200178283398151915260448201526d191e481a5b9a5d1a585b1a5e995960921b6064820152608401620000bd565b506000805460ff191660ff92909216919091179055600190565b6001600160a01b03163b151590565b6080516115f46200018e6000396000818161053901528181610582015281816106220152818161066201526106f501526115f46000f3fe60806040526004361061007b5760003560e01c8063715018a61161004e578063715018a6146101105780638da5cb5b14610125578063c4d66de81461014d578063f2fde38b1461016d57600080fd5b8063308ac220146100805780633659cfe6146100b85780634f1ef286146100da57806352d1902d146100ed575b600080fd5b34801561008c57600080fd5b506100a061009b3660046110ba565b61018d565b6040516100af93929190611131565b60405180910390f35b3480156100c457600080fd5b506100d86100d336600461117e565b61052e565b005b6100d86100e836600461119b565b610617565b3480156100f957600080fd5b506101026106e8565b6040519081526020016100af565b34801561011c57600080fd5b506100d861079b565b34801561013157600080fd5b506033546040516001600160a01b0390911681526020016100af565b34801561015957600080fd5b506100d861016836600461117e565b6107d1565b34801561017957600080fd5b506100d861018836600461117e565b610869565b6060600080600060c960009054906101000a90046001600160a01b03166001600160a01b031663f095821f6040518163ffffffff1660e01b8152600401602060405180830381865afa1580156101e7573d6000803e3d6000fd5b505050506040513d601f19601f8201168201806040525081019061020b91906111ff565b9050600060c960009054906101000a90046001600160a01b03166001600160a01b03166342104fac6040518163ffffffff1660e01b8152600401602060405180830381865afa158015610262573d6000803e3d6000fd5b505050506040513d601f19601f8201168201806040525081019061028691906111ff565b905060008867ffffffffffffffff8111156102a3576102a3611006565b6040519080825280602002602001820160405280156102cc578160200160208202803683370190505b509050600080895160001461036e57604051636bec6f4960e11b81526000906001600160a01b0387169063d7d8de929061030c908d908f90600401611274565b600060405180830381865afa158015610329573d6000803e3d6000fd5b505050506040513d6000823e601f3d908101601f1916820160405261035191908101906112a0565b90506103608182518f8f610910565b9195509350915061051c9050565b6040516370a0823160e01b81526001600160a01b038a811660048301528616906370a0823190602401602060405180830381865afa1580156103b4573d6000803e3d6000fd5b505050506040513d601f19601f820116820180604052508101906103d89190611346565b60405163293e4b8b60e11b8152600481018e9052602481018d90526044810182905290915060009081906001600160a01b0387169063527c9716906064016040805180830381865afa158015610432573d6000803e3d6000fd5b505050506040513d601f19601f82011682018060405250810190610456919061135f565b9092509050805b828111610518578084111561050857604051632f745c5960e01b81526001600160a01b038d8116600483015260248201839052891690632f745c5990604401602060405180830381865afa1580156104b9573d6000803e3d6000fd5b505050506040513d601f19601f820116820180604052508101906104dd9190611346565b8686815181106104ef576104ef611383565b60209081029190910101526105056001866113af565b94505b610511816113c7565b905061045d565b5050505b919b909a509098509650505050505050565b306001600160a01b037f00000000000000000000000000000000000000000000000000000000000000001614156105805760405162461bcd60e51b8152600401610577906113e2565b60405180910390fd5b7f00000000000000000000000000000000000000000000000000000000000000006001600160a01b03166105c9600080516020611578833981519152546001600160a01b031690565b6001600160a01b0316146105ef5760405162461bcd60e51b81526004016105779061142e565b6105f881610ad1565b6040805160008082526020820190925261061491839190610afb565b50565b306001600160a01b037f00000000000000000000000000000000000000000000000000000000000000001614156106605760405162461bcd60e51b8152600401610577906113e2565b7f00000000000000000000000000000000000000000000000000000000000000006001600160a01b03166106a9600080516020611578833981519152546001600160a01b031690565b6001600160a01b0316146106cf5760405162461bcd60e51b81526004016105779061142e565b6106d882610ad1565b6106e482826001610afb565b5050565b6000306001600160a01b037f000000000000000000000000000000000000000000000000000000000000000016146107885760405162461bcd60e51b815260206004820152603860248201527f555550535570677261646561626c653a206d757374206e6f742062652063616c60448201527f6c6564207468726f7567682064656c656761746563616c6c00000000000000006064820152608401610577565b5060008051602061157883398151915290565b6033546001600160a01b031633146107c55760405162461bcd60e51b81526004016105779061147a565b6107cf6000610c6b565b565b60006107dd6001610cbd565b905080156107f5576000805461ff0019166101001790555b6107fd610d45565b610805610d74565b60c980546001600160a01b0319166001600160a01b03841617905580156106e4576000805461ff0019169055604051600181527f7f26b83ff96e1f2b6a682f133852f6798a09c465da95921460cefb38474024989060200160405180910390a15050565b6033546001600160a01b031633146108935760405162461bcd60e51b81526004016105779061147a565b6001600160a01b0381166108f85760405162461bcd60e51b815260206004820152602660248201527f4f776e61626c653a206e6577206f776e657220697320746865207a65726f206160448201526564647265737360d01b6064820152608401610577565b61061481610c6b565b6001600160a01b03163b151590565b60606000806000808567ffffffffffffffff81111561093157610931611006565b60405190808252806020026020018201604052801561095a578160200160208202803683370190505b509050600060c960009054906101000a90046001600160a01b03166001600160a01b03166342104fac6040518163ffffffff1660e01b8152600401602060405180830381865afa1580156109b2573d6000803e3d6000fd5b505050506040513d601f19601f820116820180604052508101906109d691906111ff565b60405163293e4b8b60e11b8152600481018a905260248101899052604481018b905290915060009081906001600160a01b0384169063527c9716906064016040805180830381865afa158015610a30573d6000803e3d6000fd5b505050506040513d601f19601f82011682018060405250810190610a54919061135f565b9092509050805b828111610abf57808c1115610aaf578c8181518110610a7c57610a7c611383565b6020026020010151858781518110610a9657610a96611383565b6020908102919091010152610aac6001876113af565b95505b610ab8816113c7565b9050610a5b565b50929b939a5092975050505050505050565b6033546001600160a01b031633146106145760405162461bcd60e51b81526004016105779061147a565b7f4910fdfa16fed3260ed0e7147f7cc6da11a60208b5b9406d12a635614ffd91435460ff1615610b3357610b2e83610d9b565b505050565b826001600160a01b03166352d1902d6040518163ffffffff1660e01b8152600401602060405180830381865afa925050508015610b8d575060408051601f3d908101601f19168201909252610b8a91810190611346565b60015b610bf05760405162461bcd60e51b815260206004820152602e60248201527f45524331393637557067726164653a206e657720696d706c656d656e7461746960448201526d6f6e206973206e6f74205555505360901b6064820152608401610577565b6000805160206115788339815191528114610c5f5760405162461bcd60e51b815260206004820152602960248201527f45524331393637557067726164653a20756e737570706f727465642070726f786044820152681a58589b195555525160ba1b6064820152608401610577565b50610b2e838383610e37565b603380546001600160a01b038381166001600160a01b0319831681179093556040519116919082907f8be0079c531659141344cd1fd0a4f28419497f9722a3daafe3b4186f6b6457e090600090a35050565b60008054610100900460ff1615610d04578160ff166001148015610ce05750303b155b610cfc5760405162461bcd60e51b8152600401610577906114af565b506000919050565b60005460ff808416911610610d2b5760405162461bcd60e51b8152600401610577906114af565b506000805460ff191660ff92909216919091179055600190565b600054610100900460ff16610d6c5760405162461bcd60e51b8152600401610577906114fd565b6107cf610e62565b600054610100900460ff166107cf5760405162461bcd60e51b8152600401610577906114fd565b6001600160a01b0381163b610e085760405162461bcd60e51b815260206004820152602d60248201527f455243313936373a206e657720696d706c656d656e746174696f6e206973206e60448201526c1bdd08184818dbdb9d1c9858dd609a1b6064820152608401610577565b60008051602061157883398151915280546001600160a01b0319166001600160a01b0392909216919091179055565b610e4083610e92565b600082511180610e4d5750805b15610b2e57610e5c8383610ed2565b50505050565b600054610100900460ff16610e895760405162461bcd60e51b8152600401610577906114fd565b6107cf33610c6b565b610e9b81610d9b565b6040516001600160a01b038216907fbc7cd75a20ee27fd9adebab32041f755214dbc6bffa90cc0225b39da2e5c2d3b90600090a250565b60606001600160a01b0383163b610f3a5760405162461bcd60e51b815260206004820152602660248201527f416464726573733a2064656c65676174652063616c6c20746f206e6f6e2d636f6044820152651b9d1c9858dd60d21b6064820152608401610577565b600080846001600160a01b031684604051610f559190611548565b600060405180830381855af49150503d8060008114610f90576040519150601f19603f3d011682016040523d82523d6000602084013e610f95565b606091505b5091509150610fbd828260405180606001604052806027815260200161159860279139610fc6565b95945050505050565b60608315610fd5575081610fff565b825115610fe55782518084602001fd5b8160405162461bcd60e51b81526004016105779190611564565b9392505050565b634e487b7160e01b600052604160045260246000fd5b604051601f8201601f1916810167ffffffffffffffff8111828210171561104557611045611006565b604052919050565b600067ffffffffffffffff83111561106757611067611006565b61107a601f8401601f191660200161101c565b905082815283838301111561108e57600080fd5b828260208301376000602084830101529392505050565b6001600160a01b038116811461061457600080fd5b600080600080608085870312156110d057600080fd5b8435935060208501359250604085013567ffffffffffffffff8111156110f557600080fd5b8501601f8101871361110657600080fd5b6111158782356020840161104d565b9250506060850135611126816110a5565b939692955090935050565b606080825284519082018190526000906020906080840190828801845b8281101561116a5781518452928401929084019060010161114e565b505050908301949094525060400152919050565b60006020828403121561119057600080fd5b8135610fff816110a5565b600080604083850312156111ae57600080fd5b82356111b9816110a5565b9150602083013567ffffffffffffffff8111156111d557600080fd5b8301601f810185136111e657600080fd5b6111f58582356020840161104d565b9150509250929050565b60006020828403121561121157600080fd5b8151610fff816110a5565b60005b8381101561123757818101518382015260200161121f565b83811115610e5c5750506000910152565b6000815180845261126081602086016020860161121c565b601f01601f19169290920160200192915050565b6001600160a01b038316815260406020820181905260009061129890830184611248565b949350505050565b600060208083850312156112b357600080fd5b825167ffffffffffffffff808211156112cb57600080fd5b818501915085601f8301126112df57600080fd5b8151818111156112f1576112f1611006565b8060051b915061130284830161101c565b818152918301840191848101908884111561131c57600080fd5b938501935b8385101561133a57845182529385019390850190611321565b98975050505050505050565b60006020828403121561135857600080fd5b5051919050565b6000806040838503121561137257600080fd5b505080516020909101519092909150565b634e487b7160e01b600052603260045260246000fd5b634e487b7160e01b600052601160045260246000fd5b600082198211156113c2576113c2611399565b500190565b60006000198214156113db576113db611399565b5060010190565b6020808252602c908201527f46756e6374696f6e206d7573742062652063616c6c6564207468726f7567682060408201526b19195b1959d85d1958d85b1b60a21b606082015260800190565b6020808252602c908201527f46756e6374696f6e206d7573742062652063616c6c6564207468726f7567682060408201526b6163746976652070726f787960a01b606082015260800190565b6020808252818101527f4f776e61626c653a2063616c6c6572206973206e6f7420746865206f776e6572604082015260600190565b6020808252602e908201527f496e697469616c697a61626c653a20636f6e747261637420697320616c72656160408201526d191e481a5b9a5d1a585b1a5e995960921b606082015260800190565b6020808252602b908201527f496e697469616c697a61626c653a20636f6e7472616374206973206e6f74206960408201526a6e697469616c697a696e6760a81b606082015260800190565b6000825161155a81846020870161121c565b9190910192915050565b602081526000610fff602083018461124856fe360894a13ba1a3210667c828492db98dca3e2076cc3735a920a3ca505d382bbc416464726573733a206c6f772d6c6576656c2064656c65676174652063616c6c206661696c6564a2646970667358221220fd60c5007dc5a1ccb42af3b73dcbc8a7306e7cc33d8620042d88e4066c154aad64736f6c634300080c0033496e697469616c697a61626c653a20636f6e747261637420697320616c726561",
  "linkReferences": {},
  "deployedLinkReferences": {}
}