{
  "_format": "hh-sol-artifact-1",
  "contractName": "TokenFTContract",
  "sourceName": "src/backend/contracts/TokenFT.sol",
  "abi": [
    {
      "inputs": [],
      "stateMutability": "nonpayable",
      "type": "constructor"
    },
    {
      "anonymous": false,
      "inputs": [
        {
          "indexed": false,
          "internalType": "address",
          "name": "previousAdmin",
          "type": "address"
        },
        {
          "indexed": false,
          "internalType": "address",
          "name": "newAdmin",
          "type": "address"
        }
      ],
      "name": "AdminChanged",
      "type": "event"
    },
    {
      "anonymous": false,
      "inputs": [
        {
          "indexed": true,
          "internalType": "address",
          "name": "owner",
          "type": "address"
        },
        {
          "indexed": true,
          "internalType": "address",
          "name": "spender",
          "type": "address"
        },
        {
          "indexed": false,
          "internalType": "uint256",
          "name": "value",
          "type": "uint256"
        }
      ],
      "name": "Approval",
      "type": "event"
    },
    {
      "anonymous": false,
      "inputs": [
        {
          "indexed": true,
          "internalType": "address",
          "name": "beacon",
          "type": "address"
        }
      ],
      "name": "BeaconUpgraded",
      "type": "event"
    },
    {
      "anonymous": false,
      "inputs": [
        {
          "indexed": false,
          "internalType": "uint8",
          "name": "version",
          "type": "uint8"
        }
      ],
      "name": "Initialized",
      "type": "event"
    },
    {
      "anonymous": false,
      "inputs": [
        {
          "indexed": true,
          "internalType": "address",
          "name": "previousOwner",
          "type": "address"
        },
        {
          "indexed": true,
          "internalType": "address",
          "name": "newOwner",
          "type": "address"
        }
      ],
      "name": "OwnershipTransferred",
      "type": "event"
    },
    {
      "anonymous": false,
      "inputs": [
        {
          "indexed": true,
          "internalType": "address",
          "name": "from",
          "type": "address"
        },
        {
          "indexed": true,
          "internalType": "address",
          "name": "to",
          "type": "address"
        },
        {
          "indexed": false,
          "internalType": "uint256",
          "name": "value",
          "type": "uint256"
        }
      ],
      "name": "Transfer",
      "type": "event"
    },
    {
      "anonymous": false,
      "inputs": [
        {
          "indexed": true,
          "internalType": "address",
          "name": "implementation",
          "type": "address"
        }
      ],
      "name": "Upgraded",
      "type": "event"
    },
    {
      "inputs": [
        {
          "internalType": "address",
          "name": "owner",
          "type": "address"
        },
        {
          "internalType": "address",
          "name": "spender",
          "type": "address"
        }
      ],
      "name": "allowance",
      "outputs": [
        {
          "internalType": "uint256",
          "name": "",
          "type": "uint256"
        }
      ],
      "stateMutability": "view",
      "type": "function"
    },
    {
      "inputs": [
        {
          "internalType": "address",
          "name": "spender",
          "type": "address"
        },
        {
          "internalType": "uint256",
          "name": "amount",
          "type": "uint256"
        }
      ],
      "name": "approve",
      "outputs": [
        {
          "internalType": "bool",
          "name": "",
          "type": "bool"
        }
      ],
      "stateMutability": "nonpayable",
      "type": "function"
    },
    {
      "inputs": [
        {
          "internalType": "address",
          "name": "account",
          "type": "address"
        }
      ],
      "name": "balanceOf",
      "outputs": [
        {
          "internalType": "uint256",
          "name": "",
          "type": "uint256"
        }
      ],
      "stateMutability": "view",
      "type": "function"
    },
    {
      "inputs": [
        {
          "internalType": "uint256",
          "name": "amount",
          "type": "uint256"
        }
      ],
      "name": "burn",
      "outputs": [],
      "stateMutability": "nonpayable",
      "type": "function"
    },
    {
      "inputs": [
        {
          "internalType": "address",
          "name": "account",
          "type": "address"
        },
        {
          "internalType": "uint256",
          "name": "amount",
          "type": "uint256"
        }
      ],
      "name": "burnFrom",
      "outputs": [],
      "stateMutability": "nonpayable",
      "type": "function"
    },
    {
      "inputs": [],
      "name": "decimals",
      "outputs": [
        {
          "internalType": "uint8",
          "name": "",
          "type": "uint8"
        }
      ],
      "stateMutability": "view",
      "type": "function"
    },
    {
      "inputs": [
        {
          "internalType": "address",
          "name": "spender",
          "type": "address"
        },
        {
          "internalType": "uint256",
          "name": "subtractedValue",
          "type": "uint256"
        }
      ],
      "name": "decreaseAllowance",
      "outputs": [
        {
          "internalType": "bool",
          "name": "",
          "type": "bool"
        }
      ],
      "stateMutability": "nonpayable",
      "type": "function"
    },
    {
      "inputs": [
        {
          "internalType": "address",
          "name": "_account",
          "type": "address"
        }
      ],
      "name": "earned",
      "outputs": [
        {
          "internalType": "uint256",
          "name": "",
          "type": "uint256"
        }
      ],
      "stateMutability": "view",
      "type": "function"
    },
    {
      "inputs": [],
      "name": "getAPR",
      "outputs": [
        {
          "internalType": "uint256",
          "name": "",
          "type": "uint256"
        }
      ],
      "stateMutability": "view",
      "type": "function"
    },
    {
      "inputs": [],
      "name": "getReward",
      "outputs": [],
      "stateMutability": "nonpayable",
      "type": "function"
    },
    {
      "inputs": [
        {
          "internalType": "address",
          "name": "spender",
          "type": "address"
        },
        {
          "internalType": "uint256",
          "name": "addedValue",
          "type": "uint256"
        }
      ],
      "name": "increaseAllowance",
      "outputs": [
        {
          "internalType": "bool",
          "name": "",
          "type": "bool"
        }
      ],
      "stateMutability": "nonpayable",
      "type": "function"
    },
    {
      "inputs": [
        {
          "internalType": "address",
          "name": "_mainContract",
          "type": "address"
        }
      ],
      "name": "initialize",
      "outputs": [],
      "stateMutability": "nonpayable",
      "type": "function"
    },
    {
      "inputs": [],
      "name": "lastUpdateTime",
      "outputs": [
        {
          "internalType": "uint256",
          "name": "",
          "type": "uint256"
        }
      ],
      "stateMutability": "view",
      "type": "function"
    },
    {
      "inputs": [
        {
          "internalType": "uint256",
          "name": "_payAmount",
          "type": "uint256"
        },
        {
          "internalType": "uint256[]",
          "name": "_zombiesList",
          "type": "uint256[]"
        }
      ],
      "name": "mintMonsterPay",
      "outputs": [
        {
          "internalType": "uint256",
          "name": "",
          "type": "uint256"
        }
      ],
      "stateMutability": "nonpayable",
      "type": "function"
    },
    {
      "inputs": [],
      "name": "myBalance",
      "outputs": [
        {
          "internalType": "uint256",
          "name": "",
          "type": "uint256"
        }
      ],
      "stateMutability": "view",
      "type": "function"
    },
    {
      "inputs": [],
      "name": "name",
      "outputs": [
        {
          "internalType": "string",
          "name": "",
          "type": "string"
        }
      ],
      "stateMutability": "view",
      "type": "function"
    },
    {
      "inputs": [],
      "name": "owner",
      "outputs": [
        {
          "internalType": "address",
          "name": "",
          "type": "address"
        }
      ],
      "stateMutability": "view",
      "type": "function"
    },
    {
      "inputs": [],
      "name": "proxiableUUID",
      "outputs": [
        {
          "internalType": "bytes32",
          "name": "",
          "type": "bytes32"
        }
      ],
      "stateMutability": "view",
      "type": "function"
    },
    {
      "inputs": [],
      "name": "renounceOwnership",
      "outputs": [],
      "stateMutability": "nonpayable",
      "type": "function"
    },
    {
      "inputs": [],
      "name": "rewardPerToken",
      "outputs": [
        {
          "internalType": "uint256",
          "name": "",
          "type": "uint256"
        }
      ],
      "stateMutability": "view",
      "type": "function"
    },
    {
      "inputs": [],
      "name": "rewardPerTokenStored",
      "outputs": [
        {
          "internalType": "uint256",
          "name": "",
          "type": "uint256"
        }
      ],
      "stateMutability": "view",
      "type": "function"
    },
    {
      "inputs": [],
      "name": "rewardRate",
      "outputs": [
        {
          "internalType": "uint256",
          "name": "",
          "type": "uint256"
        }
      ],
      "stateMutability": "view",
      "type": "function"
    },
    {
      "inputs": [
        {
          "internalType": "address",
          "name": "",
          "type": "address"
        }
      ],
      "name": "rewards",
      "outputs": [
        {
          "internalType": "uint256",
          "name": "",
          "type": "uint256"
        }
      ],
      "stateMutability": "view",
      "type": "function"
    },
    {
      "inputs": [
        {
          "internalType": "uint256",
          "name": "_amount",
          "type": "uint256"
        }
      ],
      "name": "stake",
      "outputs": [],
      "stateMutability": "nonpayable",
      "type": "function"
    },
    {
      "inputs": [],
      "name": "stakingTotalSupply",
      "outputs": [
        {
          "internalType": "uint256",
          "name": "",
          "type": "uint256"
        }
      ],
      "stateMutability": "view",
      "type": "function"
    },
    {
      "inputs": [],
      "name": "symbol",
      "outputs": [
        {
          "internalType": "string",
          "name": "",
          "type": "string"
        }
      ],
      "stateMutability": "view",
      "type": "function"
    },
    {
      "inputs": [],
      "name": "totalSupply",
      "outputs": [
        {
          "internalType": "uint256",
          "name": "",
          "type": "uint256"
        }
      ],
      "stateMutability": "view",
      "type": "function"
    },
    {
      "inputs": [
        {
          "internalType": "address",
          "name": "to",
          "type": "address"
        },
        {
          "internalType": "uint256",
          "name": "amount",
          "type": "uint256"
        }
      ],
      "name": "transfer",
      "outputs": [
        {
          "internalType": "bool",
          "name": "",
          "type": "bool"
        }
      ],
      "stateMutability": "nonpayable",
      "type": "function"
    },
    {
      "inputs": [
        {
          "internalType": "address",
          "name": "from",
          "type": "address"
        },
        {
          "internalType": "address",
          "name": "to",
          "type": "address"
        },
        {
          "internalType": "uint256",
          "name": "amount",
          "type": "uint256"
        }
      ],
      "name": "transferFrom",
      "outputs": [
        {
          "internalType": "bool",
          "name": "",
          "type": "bool"
        }
      ],
      "stateMutability": "nonpayable",
      "type": "function"
    },
    {
      "inputs": [
        {
          "internalType": "address",
          "name": "_account",
          "type": "address"
        },
        {
          "internalType": "uint256",
          "name": "_amount",
          "type": "uint256"
        }
      ],
      "name": "transferOnKill",
      "outputs": [],
      "stateMutability": "nonpayable",
      "type": "function"
    },
    {
      "inputs": [
        {
          "internalType": "address",
          "name": "newOwner",
          "type": "address"
        }
      ],
      "name": "transferOwnership",
      "outputs": [],
      "stateMutability": "nonpayable",
      "type": "function"
    },
    {
      "inputs": [
        {
          "internalType": "address",
          "name": "newImplementation",
          "type": "address"
        }
      ],
      "name": "upgradeTo",
      "outputs": [],
      "stateMutability": "nonpayable",
      "type": "function"
    },
    {
      "inputs": [
        {
          "internalType": "address",
          "name": "newImplementation",
          "type": "address"
        },
        {
          "internalType": "bytes",
          "name": "data",
          "type": "bytes"
        }
      ],
      "name": "upgradeToAndCall",
      "outputs": [],
      "stateMutability": "payable",
      "type": "function"
    },
    {
      "inputs": [
        {
          "internalType": "address",
          "name": "",
          "type": "address"
        }
      ],
      "name": "userRewardPerTokenPaid",
      "outputs": [
        {
          "internalType": "uint256",
          "name": "",
          "type": "uint256"
        }
      ],
      "stateMutability": "view",
      "type": "function"
    },
    {
      "inputs": [
        {
          "internalType": "uint256",
          "name": "_amount",
          "type": "uint256"
        }
      ],
      "name": "withdraw",
      "outputs": [],
      "stateMutability": "nonpayable",
      "type": "function"
    }
  ],
  "bytecode": "0x60a0604052306080523480156200001557600080fd5b506200002062000026565b62000156565b6200003260ff62000035565b50565b60008054610100900460ff1615620000ce578160ff1660011480156200006e57506200006c306200014760201b620012881760201c565b155b620000c65760405162461bcd60e51b815260206004820152602e6024820152600080516020620028ea83398151915260448201526d191e481a5b9a5d1a585b1a5e995960921b60648201526084015b60405180910390fd5b506000919050565b60005460ff8084169116106200012d5760405162461bcd60e51b815260206004820152602e6024820152600080516020620028ea83398151915260448201526d191e481a5b9a5d1a585b1a5e995960921b6064820152608401620000bd565b506000805460ff191660ff92909216919091179055600190565b6001600160a01b03163b151590565b60805161275c6200018e600039600081816109bd01528181610a0601528181610b9001528181610bd00152610c63015261275c6000f3fe6080604052600436106102035760003560e01c8063715018a611610118578063c4d66de8116100a0578063cd3daf9d1161006f578063cd3daf9d146105c7578063d58ea176146105dc578063dd62ed3e146105f3578063df136d6514610613578063f2fde38b1461062a57600080fd5b8063c4d66de814610558578063c89d5b8b14610578578063c8f33c911461058d578063c9116b69146105a457600080fd5b80638da5cb5b116100e75780638da5cb5b146104bb57806395d89b41146104e3578063a457c2d7146104f8578063a694fc3a14610518578063a9059cbb1461053857600080fd5b8063715018a61461044157806379cc6790146104565780637b0a47ee146104765780638b8763471461048d57600080fd5b80633659cfe61161019b5780634b45011a1161016a5780634b45011a146103a35780634f1ef286146103c357806352d1902d146103d657806370a08231146103eb578063713ea1581461042157600080fd5b80633659cfe61461032e578063395093511461034e5780633d18b9121461036e57806342966c681461038357600080fd5b806318160ddd116101d757806318160ddd146102bb57806323b872dd146102d05780632e1a7d4d146102f0578063313ce5671461031257600080fd5b80628cc2621461020857806306fdde031461023b5780630700037d1461025d578063095ea7b31461028b575b600080fd5b34801561021457600080fd5b50610228610223366004611fdd565b61064a565b6040519081526020015b60405180910390f35b34801561024757600080fd5b506102506107e9565b6040516102329190612026565b34801561026957600080fd5b50610228610278366004611fdd565b6101336020526000908152604090205481565b34801561029757600080fd5b506102ab6102a6366004612059565b61087b565b6040519015158152602001610232565b3480156102c757600080fd5b50603554610228565b3480156102dc57600080fd5b506102ab6102eb366004612085565b610895565b3480156102fc57600080fd5b5061031061030b3660046120c6565b6108bb565b005b34801561031e57600080fd5b5060405160128152602001610232565b34801561033a57600080fd5b50610310610349366004611fdd565b6109b2565b34801561035a57600080fd5b506102ab610369366004612059565b610a9b565b34801561037a57600080fd5b50610310610abd565b34801561038f57600080fd5b5061031061039e3660046120c6565b610b40565b3480156103af57600080fd5b506103106103be366004612059565b610b4a565b6103106103d1366004612126565b610b85565b3480156103e257600080fd5b50610228610c56565b3480156103f757600080fd5b50610228610406366004611fdd565b6001600160a01b031660009081526033602052604090205490565b34801561042d57600080fd5b5061022861043c3660046121ce565b610d09565b34801561044d57600080fd5b50610310610e4c565b34801561046257600080fd5b50610310610471366004612059565b610e82565b34801561048257600080fd5b5061022861012e5481565b34801561049957600080fd5b506102286104a8366004611fdd565b6101326020526000908152604090205481565b3480156104c757600080fd5b506097546040516001600160a01b039091168152602001610232565b3480156104ef57600080fd5b50610250610e97565b34801561050457600080fd5b506102ab610513366004612059565b610ea6565b34801561052457600080fd5b506103106105333660046120c6565b610f2c565b34801561054457600080fd5b506102ab610553366004612059565b610fbc565b34801561056457600080fd5b50610310610573366004611fdd565b610fca565b34801561058457600080fd5b50610228611117565b34801561059957600080fd5b5061022861012f5481565b3480156105b057600080fd5b503360009081526101346020526040902054610228565b3480156105d357600080fd5b50610228611160565b3480156105e857600080fd5b506102286101315481565b3480156105ff57600080fd5b5061022861060e366004612280565b6111c5565b34801561061f57600080fd5b506102286101305481565b34801561063657600080fd5b50610310610645366004611fdd565b6111f0565b6001600160a01b03811660009081526101336020908152604080832054610132909252822054829190670de0b6b3a764000090610685611160565b61068f91906122cf565b6001600160a01b038616600090815261013460205260409020546106b391906122e6565b6106bd9190612305565b6106c79190612327565b9050600061012d60009054906101000a90046001600160a01b03166001600160a01b031663f095821f6040518163ffffffff1660e01b8152600401602060405180830381865afa15801561071f573d6000803e3d6000fd5b505050506040513d601f19601f82011682018060405250810190610743919061233f565b6040516338a00d7760e21b815233600482015290915060009081906001600160a01b0384169063e28035dc906024016040805180830381865afa15801561078e573d6000803e3d6000fd5b505050506040513d601f19601f820116820180604052508101906107b2919061236c565b9150915080156107df57816107c8606486612305565b6107d291906122e6565b6107dc9085612327565b93505b5091949350505050565b6060603680546107f890612398565b80601f016020809104026020016040519081016040528092919081815260200182805461082490612398565b80156108715780601f1061084657610100808354040283529160200191610871565b820191906000526020600020905b81548152906001019060200180831161085457829003601f168201915b5050505050905090565b600033610889818585611297565b60019150505b92915050565b6000336108a38582856113bb565b6108ae858585611435565b60019150505b9392505050565b336108c4611160565b610130554261012f556108d68161064a565b6001600160a01b038216600090815261013360209081526040808320939093556101305461013290915291812091909155610131805484929061091a9084906122cf565b909155505033600090815261013460205260408120805484929061093f9084906122cf565b909155505060405163a9059cbb60e01b815233600482015260248101839052309063a9059cbb906044015b6020604051808303816000875af1158015610989573d6000803e3d6000fd5b505050506040513d601f19601f820116820180604052508101906109ad91906123d3565b505050565b306001600160a01b037f0000000000000000000000000000000000000000000000000000000000000000161415610a045760405162461bcd60e51b81526004016109fb906123ee565b60405180910390fd5b7f00000000000000000000000000000000000000000000000000000000000000006001600160a01b0316610a4d6000805160206126e0833981519152546001600160a01b031690565b6001600160a01b031614610a735760405162461bcd60e51b81526004016109fb9061243a565b610a7c81611603565b60408051600080825260208201909252610a989183919061162d565b50565b600033610889818585610aae83836111c5565b610ab89190612327565b611297565b33610ac6611160565b610130554261012f55610ad88161064a565b6001600160a01b0382166000908152610133602081815260408084209490945561013054610132825284842055338084529190528282208054929055915163a9059cbb60e01b815260048101929092526024820181905290309063a9059cbb9060440161096a565b610a983382611798565b610b526118e6565b60405163a9059cbb60e01b81526001600160a01b038316600482015260248101829052309063a9059cbb9060440161096a565b306001600160a01b037f0000000000000000000000000000000000000000000000000000000000000000161415610bce5760405162461bcd60e51b81526004016109fb906123ee565b7f00000000000000000000000000000000000000000000000000000000000000006001600160a01b0316610c176000805160206126e0833981519152546001600160a01b031690565b6001600160a01b031614610c3d5760405162461bcd60e51b81526004016109fb9061243a565b610c4682611603565b610c528282600161162d565b5050565b6000306001600160a01b037f00000000000000000000000000000000000000000000000000000000000000001614610cf65760405162461bcd60e51b815260206004820152603860248201527f555550535570677261646561626c653a206d757374206e6f742062652063616c60448201527f6c6564207468726f7567682064656c656761746563616c6c000000000000000060648201526084016109fb565b506000805160206126e083398151915290565b6000808311610d515760405162461bcd60e51b815260206004820152601460248201527315dc9bdb99c81c185e5b595b9d08185b5bdd5b9d60621b60448201526064016109fb565b61012d546040805163f095821f60e01b815290516000926001600160a01b03169163f095821f9160048083019260209291908290030181865afa158015610d9c573d6000803e3d6000fd5b505050506040513d601f19601f82011682018060405250810190610dc0919061233f565b90506000816001600160a01b031663489cb8208686336040518463ffffffff1660e01b8152600401610df493929190612486565b6020604051808303816000875af1158015610e13573d6000803e3d6000fd5b505050506040513d601f19601f82011682018060405250810190610e3791906124e9565b9050610e433086610fbc565b50949350505050565b6097546001600160a01b03163314610e765760405162461bcd60e51b81526004016109fb90612502565b610e806000611a3e565b565b610e8d8233836113bb565b610c528282611798565b6060603780546107f890612398565b60003381610eb482866111c5565b905083811015610f145760405162461bcd60e51b815260206004820152602560248201527f45524332303a2064656372656173656420616c6c6f77616e63652062656c6f77604482015264207a65726f60d81b60648201526084016109fb565b610f218286868403611297565b506001949350505050565b33610f35611160565b610130554261012f55610f478161064a565b6001600160a01b0382166000908152610133602090815260408083209390935561013054610132909152918120919091556101318054849290610f8b908490612327565b9091555050336000908152610134602052604081208054849290610fb0908490612327565b909155506109ad905030835b600033610889818585611435565b6000610fd66001611a90565b90508015610fee576000805461ff0019166101001790555b61103260405180604001604052806007815260200166169bdb5b185b9960ca1b8152506040518060400160405280600381526020016216935360ea1b815250611b1d565b61103a611b4e565b611042611b75565b61104a611b4e565b61012d80546001600160a01b0319166001600160a01b03841617905566038d7ea4c6800061012e556000601261108190600a61261b565b61108f90633b9aca006122e6565b9050600061109f6012600a61261b565b6110ad906304c4b4006122e6565b90506110c2336110bd83856122cf565b611ba4565b6110cc3082611ba4565b50508015610c52576000805461ff0019169055604051600181527f7f26b83ff96e1f2b6a682f133852f6798a09c465da95921460cefb38474024989060200160405180910390a15050565b610131546000901561115a57610131546301e13380908161114081670de0b6b3a76400006122e6565b61114a91906122e6565b6111549190612305565b91505090565b50600090565b6000610131546000141561117657506101305490565b6101315461012e5461012f5461118c90426122cf565b61119691906122e6565b6111a890670de0b6b3a76400006122e6565b6111b29190612305565b610130546111c09190612327565b905090565b6001600160a01b03918216600090815260346020908152604080832093909416825291909152205490565b6097546001600160a01b0316331461121a5760405162461bcd60e51b81526004016109fb90612502565b6001600160a01b03811661127f5760405162461bcd60e51b815260206004820152602660248201527f4f776e61626c653a206e6577206f776e657220697320746865207a65726f206160448201526564647265737360d01b60648201526084016109fb565b610a9881611a3e565b6001600160a01b03163b151590565b6001600160a01b0383166112f95760405162461bcd60e51b8152602060048201526024808201527f45524332303a20617070726f76652066726f6d20746865207a65726f206164646044820152637265737360e01b60648201526084016109fb565b6001600160a01b03821661135a5760405162461bcd60e51b815260206004820152602260248201527f45524332303a20617070726f766520746f20746865207a65726f206164647265604482015261737360f01b60648201526084016109fb565b6001600160a01b0383811660008181526034602090815260408083209487168084529482529182902085905590518481527f8c5be1e5ebec7d5bd14f71427d1e84f3dd0314c0f7b2291e5b200ac8c7c3b925910160405180910390a3505050565b60006113c784846111c5565b9050600019811461142f57818110156114225760405162461bcd60e51b815260206004820152601d60248201527f45524332303a20696e73756666696369656e7420616c6c6f77616e636500000060448201526064016109fb565b61142f8484848403611297565b50505050565b6001600160a01b0383166114995760405162461bcd60e51b815260206004820152602560248201527f45524332303a207472616e736665722066726f6d20746865207a65726f206164604482015264647265737360d81b60648201526084016109fb565b6001600160a01b0382166114fb5760405162461bcd60e51b815260206004820152602360248201527f45524332303a207472616e7366657220746f20746865207a65726f206164647260448201526265737360e81b60648201526084016109fb565b6001600160a01b038316600090815260336020526040902054818110156115735760405162461bcd60e51b815260206004820152602660248201527f45524332303a207472616e7366657220616d6f756e7420657863656564732062604482015265616c616e636560d01b60648201526084016109fb565b6001600160a01b038085166000908152603360205260408082208585039055918516815290812080548492906115aa908490612327565b92505081905550826001600160a01b0316846001600160a01b03167fddf252ad1be2c89b69c2b068fc378daa952ba7f163c4a11628f55a4df523b3ef846040516115f691815260200190565b60405180910390a361142f565b6097546001600160a01b03163314610a985760405162461bcd60e51b81526004016109fb90612502565b7f4910fdfa16fed3260ed0e7147f7cc6da11a60208b5b9406d12a635614ffd91435460ff1615611660576109ad83611c83565b826001600160a01b03166352d1902d6040518163ffffffff1660e01b8152600401602060405180830381865afa9250505080156116ba575060408051601f3d908101601f191682019092526116b7918101906124e9565b60015b61171d5760405162461bcd60e51b815260206004820152602e60248201527f45524331393637557067726164653a206e657720696d706c656d656e7461746960448201526d6f6e206973206e6f74205555505360901b60648201526084016109fb565b6000805160206126e0833981519152811461178c5760405162461bcd60e51b815260206004820152602960248201527f45524331393637557067726164653a20756e737570706f727465642070726f786044820152681a58589b195555525160ba1b60648201526084016109fb565b506109ad838383611d1f565b6001600160a01b0382166117f85760405162461bcd60e51b815260206004820152602160248201527f45524332303a206275726e2066726f6d20746865207a65726f206164647265736044820152607360f81b60648201526084016109fb565b6001600160a01b0382166000908152603360205260409020548181101561186c5760405162461bcd60e51b815260206004820152602260248201527f45524332303a206275726e20616d6f756e7420657863656564732062616c616e604482015261636560f01b60648201526084016109fb565b6001600160a01b038316600090815260336020526040812083830390556035805484929061189b9084906122cf565b90915550506040518281526000906001600160a01b038516907fddf252ad1be2c89b69c2b068fc378daa952ba7f163c4a11628f55a4df523b3ef9060200160405180910390a3505050565b61012d546040805163f095821f60e01b815290516000926001600160a01b03169163f095821f9160048083019260209291908290030181865afa158015611931573d6000803e3d6000fd5b505050506040513d601f19601f82011682018060405250810190611955919061233f565b9050600061012d60009054906101000a90046001600160a01b03166001600160a01b031663b53720c56040518163ffffffff1660e01b8152600401602060405180830381865afa1580156119ad573d6000803e3d6000fd5b505050506040513d601f19601f820116820180604052508101906119d1919061233f565b90506001600160a01b0381163314806119f257506001600160a01b03821633145b610c525760405162461bcd60e51b815260206004820152601a60248201527f596f752063616e27742063616c6c2074686973206d6574686f6400000000000060448201526064016109fb565b609780546001600160a01b038381166001600160a01b0319831681179093556040519116919082907f8be0079c531659141344cd1fd0a4f28419497f9722a3daafe3b4186f6b6457e090600090a35050565b60008054610100900460ff1615611ad7578160ff166001148015611ab35750303b155b611acf5760405162461bcd60e51b81526004016109fb9061262a565b506000919050565b60005460ff808416911610611afe5760405162461bcd60e51b81526004016109fb9061262a565b506000805460ff191660ff92909216919091179055600190565b919050565b600054610100900460ff16611b445760405162461bcd60e51b81526004016109fb90612678565b610c528282611d44565b600054610100900460ff16610e805760405162461bcd60e51b81526004016109fb90612678565b600054610100900460ff16611b9c5760405162461bcd60e51b81526004016109fb90612678565b610e80611d92565b6001600160a01b038216611bfa5760405162461bcd60e51b815260206004820152601f60248201527f45524332303a206d696e7420746f20746865207a65726f20616464726573730060448201526064016109fb565b8060356000828254611c0c9190612327565b90915550506001600160a01b03821660009081526033602052604081208054839290611c39908490612327565b90915550506040518181526001600160a01b038316906000907fddf252ad1be2c89b69c2b068fc378daa952ba7f163c4a11628f55a4df523b3ef9060200160405180910390a35050565b6001600160a01b0381163b611cf05760405162461bcd60e51b815260206004820152602d60248201527f455243313936373a206e657720696d706c656d656e746174696f6e206973206e60448201526c1bdd08184818dbdb9d1c9858dd609a1b60648201526084016109fb565b6000805160206126e083398151915280546001600160a01b0319166001600160a01b0392909216919091179055565b611d2883611dc2565b600082511180611d355750805b156109ad5761142f8383611e02565b600054610100900460ff16611d6b5760405162461bcd60e51b81526004016109fb90612678565b8151611d7e906036906020850190611f2f565b5080516109ad906037906020840190611f2f565b600054610100900460ff16611db95760405162461bcd60e51b81526004016109fb90612678565b610e8033611a3e565b611dcb81611c83565b6040516001600160a01b038216907fbc7cd75a20ee27fd9adebab32041f755214dbc6bffa90cc0225b39da2e5c2d3b90600090a250565b60606001600160a01b0383163b611e6a5760405162461bcd60e51b815260206004820152602660248201527f416464726573733a2064656c65676174652063616c6c20746f206e6f6e2d636f6044820152651b9d1c9858dd60d21b60648201526084016109fb565b600080846001600160a01b031684604051611e8591906126c3565b600060405180830381855af49150503d8060008114611ec0576040519150601f19603f3d011682016040523d82523d6000602084013e611ec5565b606091505b5091509150611eed828260405180606001604052806027815260200161270060279139611ef6565b95945050505050565b60608315611f055750816108b4565b825115611f155782518084602001fd5b8160405162461bcd60e51b81526004016109fb9190612026565b828054611f3b90612398565b90600052602060002090601f016020900481019282611f5d5760008555611fa3565b82601f10611f7657805160ff1916838001178555611fa3565b82800160010185558215611fa3579182015b82811115611fa3578251825591602001919060010190611f88565b50611faf929150611fb3565b5090565b5b80821115611faf5760008155600101611fb4565b6001600160a01b0381168114610a9857600080fd5b600060208284031215611fef57600080fd5b81356108b481611fc8565b60005b83811015612015578181015183820152602001611ffd565b8381111561142f5750506000910152565b6020815260008251806020840152612045816040850160208701611ffa565b601f01601f19169190910160400192915050565b6000806040838503121561206c57600080fd5b823561207781611fc8565b946020939093013593505050565b60008060006060848603121561209a57600080fd5b83356120a581611fc8565b925060208401356120b581611fc8565b929592945050506040919091013590565b6000602082840312156120d857600080fd5b5035919050565b634e487b7160e01b600052604160045260246000fd5b604051601f8201601f1916810167ffffffffffffffff8111828210171561211e5761211e6120df565b604052919050565b6000806040838503121561213957600080fd5b823561214481611fc8565b915060208381013567ffffffffffffffff8082111561216257600080fd5b818601915086601f83011261217657600080fd5b813581811115612188576121886120df565b61219a601f8201601f191685016120f5565b915080825287848285010111156121b057600080fd5b80848401858401376000848284010152508093505050509250929050565b600080604083850312156121e157600080fd5b8235915060208084013567ffffffffffffffff8082111561220157600080fd5b818601915086601f83011261221557600080fd5b813581811115612227576122276120df565b8060051b91506122388483016120f5565b818152918301840191848101908984111561225257600080fd5b938501935b8385101561227057843582529385019390850190612257565b8096505050505050509250929050565b6000806040838503121561229357600080fd5b823561229e81611fc8565b915060208301356122ae81611fc8565b809150509250929050565b634e487b7160e01b600052601160045260246000fd5b6000828210156122e1576122e16122b9565b500390565b6000816000190483118215151615612300576123006122b9565b500290565b60008261232257634e487b7160e01b600052601260045260246000fd5b500490565b6000821982111561233a5761233a6122b9565b500190565b60006020828403121561235157600080fd5b81516108b481611fc8565b80518015158114611b1857600080fd5b6000806040838503121561237f57600080fd5b8251915061238f6020840161235c565b90509250929050565b600181811c908216806123ac57607f821691505b602082108114156123cd57634e487b7160e01b600052602260045260246000fd5b50919050565b6000602082840312156123e557600080fd5b6108b48261235c565b6020808252602c908201527f46756e6374696f6e206d7573742062652063616c6c6564207468726f7567682060408201526b19195b1959d85d1958d85b1b60a21b606082015260800190565b6020808252602c908201527f46756e6374696f6e206d7573742062652063616c6c6564207468726f7567682060408201526b6163746976652070726f787960a01b606082015260800190565b6000606082018583526020606081850152818651808452608086019150828801935060005b818110156124c7578451835293830193918301916001016124ab565b50506001600160a01b0395909516604094909401939093525091949350505050565b6000602082840312156124fb57600080fd5b5051919050565b6020808252818101527f4f776e61626c653a2063616c6c6572206973206e6f7420746865206f776e6572604082015260600190565b600181815b80851115612572578160001904821115612558576125586122b9565b8085161561256557918102915b93841c939080029061253c565b509250929050565b6000826125895750600161088f565b816125965750600061088f565b81600181146125ac57600281146125b6576125d2565b600191505061088f565b60ff8411156125c7576125c76122b9565b50506001821b61088f565b5060208310610133831016604e8410600b84101617156125f5575081810a61088f565b6125ff8383612537565b8060001904821115612613576126136122b9565b029392505050565b60006108b460ff84168361257a565b6020808252602e908201527f496e697469616c697a61626c653a20636f6e747261637420697320616c72656160408201526d191e481a5b9a5d1a585b1a5e995960921b606082015260800190565b6020808252602b908201527f496e697469616c697a61626c653a20636f6e7472616374206973206e6f74206960408201526a6e697469616c697a696e6760a81b606082015260800190565b600082516126d5818460208701611ffa565b919091019291505056fe360894a13ba1a3210667c828492db98dca3e2076cc3735a920a3ca505d382bbc416464726573733a206c6f772d6c6576656c2064656c65676174652063616c6c206661696c6564a2646970667358221220cf4838469ad6801a9d031895103e4d1d205c72abec006c511f4ecd2cd417fc6c64736f6c634300080c0033496e697469616c697a61626c653a20636f6e747261637420697320616c726561",
  "linkReferences": {},
  "deployedLinkReferences": {}
}