{
  "_format": "hh-sol-artifact-1",
  "contractName": "ZombieNFTHelperContract",
  "sourceName": "src/backend/contracts/ZombieNFTHelper.sol",
  "abi": [
    {
      "inputs": [],
      "stateMutability": "nonpayable",
      "type": "constructor"
    },
    {
      "anonymous": false,
      "inputs": [
        {
          "indexed": false,
          "internalType": "address",
          "name": "previousAdmin",
          "type": "address"
        },
        {
          "indexed": false,
          "internalType": "address",
          "name": "newAdmin",
          "type": "address"
        }
      ],
      "name": "AdminChanged",
      "type": "event"
    },
    {
      "anonymous": false,
      "inputs": [
        {
          "indexed": true,
          "internalType": "address",
          "name": "beacon",
          "type": "address"
        }
      ],
      "name": "BeaconUpgraded",
      "type": "event"
    },
    {
      "anonymous": false,
      "inputs": [
        {
          "indexed": false,
          "internalType": "uint8",
          "name": "version",
          "type": "uint8"
        }
      ],
      "name": "Initialized",
      "type": "event"
    },
    {
      "anonymous": false,
      "inputs": [
        {
          "indexed": true,
          "internalType": "address",
          "name": "previousOwner",
          "type": "address"
        },
        {
          "indexed": true,
          "internalType": "address",
          "name": "newOwner",
          "type": "address"
        }
      ],
      "name": "OwnershipTransferred",
      "type": "event"
    },
    {
      "anonymous": false,
      "inputs": [
        {
          "indexed": true,
          "internalType": "address",
          "name": "implementation",
          "type": "address"
        }
      ],
      "name": "Upgraded",
      "type": "event"
    },
    {
      "inputs": [
        {
          "internalType": "uint8",
          "name": "_index",
          "type": "uint8"
        }
      ],
      "name": "generateMetadata",
      "outputs": [
        {
          "internalType": "string",
          "name": "",
          "type": "string"
        },
        {
          "internalType": "uint8",
          "name": "",
          "type": "uint8"
        },
        {
          "internalType": "uint8",
          "name": "",
          "type": "uint8"
        },
        {
          "internalType": "uint8",
          "name": "",
          "type": "uint8"
        },
        {
          "internalType": "uint8",
          "name": "",
          "type": "uint8"
        },
        {
          "internalType": "uint256",
          "name": "",
          "type": "uint256"
        },
        {
          "internalType": "uint256",
          "name": "",
          "type": "uint256"
        },
        {
          "internalType": "string",
          "name": "",
          "type": "string"
        }
      ],
      "stateMutability": "view",
      "type": "function"
    },
    {
      "inputs": [
        {
          "internalType": "uint256",
          "name": "_page",
          "type": "uint256"
        },
        {
          "internalType": "uint256",
          "name": "_count",
          "type": "uint256"
        },
        {
          "internalType": "uint256",
          "name": "_collectionFilter",
          "type": "uint256"
        },
        {
          "internalType": "string",
          "name": "_rarityFilter",
          "type": "string"
        },
        {
          "internalType": "address",
          "name": "_owner",
          "type": "address"
        }
      ],
      "name": "getPageIdList",
      "outputs": [
        {
          "internalType": "uint256[]",
          "name": "",
          "type": "uint256[]"
        },
        {
          "internalType": "uint256",
          "name": "",
          "type": "uint256"
        },
        {
          "internalType": "uint256",
          "name": "",
          "type": "uint256"
        }
      ],
      "stateMutability": "view",
      "type": "function"
    },
    {
      "inputs": [
        {
          "internalType": "string",
          "name": "_rarityStr",
          "type": "string"
        }
      ],
      "name": "getRarityTokenPrice",
      "outputs": [
        {
          "internalType": "uint256",
          "name": "",
          "type": "uint256"
        }
      ],
      "stateMutability": "pure",
      "type": "function"
    },
    {
      "inputs": [
        {
          "internalType": "uint256",
          "name": "_page",
          "type": "uint256"
        },
        {
          "internalType": "uint256",
          "name": "_count",
          "type": "uint256"
        },
        {
          "internalType": "uint256",
          "name": "_totalListLength",
          "type": "uint256"
        }
      ],
      "name": "getStartEndIndex",
      "outputs": [
        {
          "internalType": "uint256",
          "name": "",
          "type": "uint256"
        },
        {
          "internalType": "uint256",
          "name": "",
          "type": "uint256"
        }
      ],
      "stateMutability": "pure",
      "type": "function"
    },
    {
      "inputs": [
        {
          "internalType": "address",
          "name": "_mainContract",
          "type": "address"
        }
      ],
      "name": "initialize",
      "outputs": [],
      "stateMutability": "nonpayable",
      "type": "function"
    },
    {
      "inputs": [],
      "name": "owner",
      "outputs": [
        {
          "internalType": "address",
          "name": "",
          "type": "address"
        }
      ],
      "stateMutability": "view",
      "type": "function"
    },
    {
      "inputs": [],
      "name": "proxiableUUID",
      "outputs": [
        {
          "internalType": "bytes32",
          "name": "",
          "type": "bytes32"
        }
      ],
      "stateMutability": "view",
      "type": "function"
    },
    {
      "inputs": [],
      "name": "renounceOwnership",
      "outputs": [],
      "stateMutability": "nonpayable",
      "type": "function"
    },
    {
      "inputs": [
        {
          "internalType": "address",
          "name": "newOwner",
          "type": "address"
        }
      ],
      "name": "transferOwnership",
      "outputs": [],
      "stateMutability": "nonpayable",
      "type": "function"
    },
    {
      "inputs": [
        {
          "internalType": "address",
          "name": "newImplementation",
          "type": "address"
        }
      ],
      "name": "upgradeTo",
      "outputs": [],
      "stateMutability": "nonpayable",
      "type": "function"
    },
    {
      "inputs": [
        {
          "internalType": "address",
          "name": "newImplementation",
          "type": "address"
        },
        {
          "internalType": "bytes",
          "name": "data",
          "type": "bytes"
        }
      ],
      "name": "upgradeToAndCall",
      "outputs": [],
      "stateMutability": "payable",
      "type": "function"
    }
  ],
  "bytecode": "0x60a0604052306080523480156200001557600080fd5b506200002062000026565b62000156565b6200003260ff62000035565b50565b60008054610100900460ff1615620000ce578160ff1660011480156200006e57506200006c306200014760201b62000c8c1760201c565b155b620000c65760405162461bcd60e51b815260206004820152602e6024820152600080516020620023f383398151915260448201526d191e481a5b9a5d1a585b1a5e995960921b60648201526084015b60405180910390fd5b506000919050565b60005460ff8084169116106200012d5760405162461bcd60e51b815260206004820152602e6024820152600080516020620023f383398151915260448201526d191e481a5b9a5d1a585b1a5e995960921b6064820152608401620000bd565b506000805460ff191660ff92909216919091179055600190565b6001600160a01b03163b151590565b6080516122656200018e6000396000818161023e015281816102870152818161032701528181610367015261046201526122656000f3fe60806040526004361061009c5760003560e01c80638da5cb5b116100645780638da5cb5b14610148578063c4d66de814610170578063d3ef3df414610190578063d9c273e7146101b0578063db66329e146101e4578063f2fde38b1461021357600080fd5b80633659cfe6146100a15780634f1ef286146100c3578063527c9716146100d657806352d1902d14610110578063715018a614610133575b600080fd5b3480156100ad57600080fd5b506100c16100bc366004611a44565b610233565b005b6100c16100d1366004611b0e565b61031c565b3480156100e257600080fd5b506100f66100f1366004611b72565b6103ed565b604080519283526020830191909152015b60405180910390f35b34801561011c57600080fd5b50610125610455565b604051908152602001610107565b34801561013f57600080fd5b506100c1610508565b34801561015457600080fd5b506033546040516001600160a01b039091168152602001610107565b34801561017c57600080fd5b506100c161018b366004611a44565b61053e565b34801561019c57600080fd5b506101256101ab366004611bbe565b6105d6565b3480156101bc57600080fd5b506101d06101cb366004611bfb565b61069d565b604051610107989796959493929190611c76565b3480156101f057600080fd5b506102046101ff366004611cdd565b6108d6565b60405161010793929190611d4c565b34801561021f57600080fd5b506100c161022e366004611a44565b610bf4565b306001600160a01b037f00000000000000000000000000000000000000000000000000000000000000001614156102855760405162461bcd60e51b815260040161027c90611d99565b60405180910390fd5b7f00000000000000000000000000000000000000000000000000000000000000006001600160a01b03166102ce6000805160206121e9833981519152546001600160a01b031690565b6001600160a01b0316146102f45760405162461bcd60e51b815260040161027c90611de5565b6102fd81610c9b565b6040805160008082526020820190925261031991839190610cc5565b50565b306001600160a01b037f00000000000000000000000000000000000000000000000000000000000000001614156103655760405162461bcd60e51b815260040161027c90611d99565b7f00000000000000000000000000000000000000000000000000000000000000006001600160a01b03166103ae6000805160206121e9833981519152546001600160a01b031690565b6001600160a01b0316146103d45760405162461bcd60e51b815260040161027c90611de5565b6103dd82610c9b565b6103e982826001610cc5565b5050565b600080808080866103ff60018a611e47565b6104099190611e5e565b90508515610448578061041d600188611e47565b6104279190611e47565b92508683106104485761043a8784611e47565b610445906001611e7d565b91505b5090969095509350505050565b6000306001600160a01b037f000000000000000000000000000000000000000000000000000000000000000016146104f55760405162461bcd60e51b815260206004820152603860248201527f555550535570677261646561626c653a206d757374206e6f742062652063616c60448201527f6c6564207468726f7567682064656c656761746563616c6c0000000000000000606482015260840161027c565b506000805160206121e983398151915290565b6033546001600160a01b031633146105325760405162461bcd60e51b815260040161027c90611e95565b61053c6000610e35565b565b600061054a6001610e87565b90508015610562576000805461ff0019166101001790555b61056a610f0f565b610572610f3e565b60c980546001600160a01b0319166001600160a01b03841617905580156103e9576000805461ff0019169055604051600181527f7f26b83ff96e1f2b6a682f133852f6798a09c465da95921460cefb38474024989060200160405180910390a15050565b6000610600826040518060400160405280600681526020016521b7b6b6b7b760d11b815250610f65565b156106145750674563918244f40000919050565b61063e82604051806040016040528060088152602001672ab721b7b6b6b7b760c11b815250610f65565b156106525750678ac7230489e80000919050565b61067882604051806040016040528060048152602001635261726560e01b815250610f65565b1561068d57506801158e460913d00000919050565b5068022b1c8c1227a00000919050565b6040805161012081018252600061010082018181528252602080830182905282840182905260608381018390526080840183905260a0840183905260c08401839052845191820190945281815260e083015290819081908190819081908790826107068b610f7b565b905061071e60316107188d600f611eca565b83610fc9565b60ff16602083015261073660186107188d6014611eca565b60ff16604083015261074e60186107188d6019611eca565b60ff16606083015261076660016107188d601e611eca565b60ff166080830181905260208301516040840151606085015161078d938593929190611108565b60a083015260c95460408051630981101760e41b815290516000926001600160a01b03169163981101709160048083019260209291908290030181865afa1580156107dc573d6000803e3d6000fd5b505050506040513d601f19601f820116820180604052508101906108009190611eef565b90506001600160a01b03811663c2ae4b0161081c8e6008611eca565b6040516001600160e01b031960e084901b16815260ff9091166004820152602401600060405180830381865afa15801561085a573d6000803e3d6000fd5b505050506040513d6000823e601f3d908101601f191682016040526108829190810190611f0c565b60e085015260c0840152610895826111ce565b83602001518460400151856060015186608001518760a001518860c001518960e001519a509a509a509a509a509a509a509a50505050919395975091939597565b6060600080600060c960009054906101000a90046001600160a01b03166001600160a01b031663b53720c56040518163ffffffff1660e01b8152600401602060405180830381865afa158015610930573d6000803e3d6000fd5b505050506040513d601f19601f820116820180604052508101906109549190611eef565b905060008867ffffffffffffffff81111561097157610971611a61565b60405190808252806020026020018201604052801561099a578160200160208202803683370190505b50905060008089158015906109af5750885115155b156109cd576109c18a8a8e8e8c6112a4565b91945092509050610be2565b8915610a6a57604051631ae9d2f960e21b81526001600160a01b038981166004830152602482018c905260009190861690636ba74be4906044015b600060405180830381865afa158015610a25573d6000803e3d6000fd5b505050506040513d6000823e601f3d908101601f19168201604052610a4d9190810190611f8f565b9050610a5c8182518f8f61150e565b91955093509150610be29050565b885115610aa257604051631b88b63760e11b81526000906001600160a01b038616906337116c6e90610a08908c908e90600401612035565b6040516370a0823160e01b81526001600160a01b0389811660048301528516906370a0823190602401602060405180830381865afa158015610ae8573d6000803e3d6000fd5b505050506040513d601f19601f82011682018060405250810190610b0c9190612059565b9050600080610b1c8e8e856103ed565b9092509050805b828111610bde5780841115610bce57604051632f745c5960e01b81526001600160a01b038c8116600483015260248201839052881690632f745c5990604401602060405180830381865afa158015610b7f573d6000803e3d6000fd5b505050506040513d601f19601f82011682018060405250810190610ba39190612059565b868681518110610bb557610bb5612072565b6020908102919091010152610bcb600186611e7d565b94505b610bd781612088565b9050610b23565b5050505b919b909a509098509650505050505050565b6033546001600160a01b03163314610c1e5760405162461bcd60e51b815260040161027c90611e95565b6001600160a01b038116610c835760405162461bcd60e51b815260206004820152602660248201527f4f776e61626c653a206e6577206f776e657220697320746865207a65726f206160448201526564647265737360d01b606482015260840161027c565b61031981610e35565b6001600160a01b03163b151590565b6033546001600160a01b031633146103195760405162461bcd60e51b815260040161027c90611e95565b7f4910fdfa16fed3260ed0e7147f7cc6da11a60208b5b9406d12a635614ffd91435460ff1615610cfd57610cf8836115e5565b505050565b826001600160a01b03166352d1902d6040518163ffffffff1660e01b8152600401602060405180830381865afa925050508015610d57575060408051601f3d908101601f19168201909252610d5491810190612059565b60015b610dba5760405162461bcd60e51b815260206004820152602e60248201527f45524331393637557067726164653a206e657720696d706c656d656e7461746960448201526d6f6e206973206e6f74205555505360901b606482015260840161027c565b6000805160206121e98339815191528114610e295760405162461bcd60e51b815260206004820152602960248201527f45524331393637557067726164653a20756e737570706f727465642070726f786044820152681a58589b195555525160ba1b606482015260840161027c565b50610cf8838383611681565b603380546001600160a01b038381166001600160a01b0319831681179093556040519116919082907f8be0079c531659141344cd1fd0a4f28419497f9722a3daafe3b4186f6b6457e090600090a35050565b60008054610100900460ff1615610ece578160ff166001148015610eaa5750303b155b610ec65760405162461bcd60e51b815260040161027c906120a3565b506000919050565b60005460ff808416911610610ef55760405162461bcd60e51b815260040161027c906120a3565b506000805460ff191660ff92909216919091179055600190565b600054610100900460ff16610f365760405162461bcd60e51b815260040161027c906120f1565b61053c6116ac565b600054610100900460ff1661053c5760405162461bcd60e51b815260040161027c906120f1565b6000610f7183836116dc565b1590505b92915050565b600080610f8a6103e8846117ff565b9050600a8111610f9d5750600392915050565b603c8111610fae5750600292915050565b61012c8111610fc05750600192915050565b50600092915050565b6000808481846003811115610fe057610fe061213c565b1415610ff857610ff1600487612168565b905061108e565b600184600381111561100c5761100c61213c565b141561102a5761101d600587612168565b9150610ff1600287612168565b600284600381111561103e5761103e61213c565b1415611074576005611051876002611e5e565b61105b9190612168565b9150600461106a876003611e5e565b610ff19190612168565b601461108187600d611e5e565b61108b9190612168565b91505b600061109a8383611e47565b905080156110f95760006110af826001611e7d565b6110bb906103e8612168565b90506000816110cc6103e88a6117ff565b6110d69190612168565b90506110e28186611e7d565b6110ed906001611e7d565b95505050505050611101565b600193505050505b9392505050565b6000600160038760038111156111205761112061213c565b141561112e5750601561116e565b60028760038111156111425761114261213c565b14156111505750600961116e565b60018760038111156111645761116461213c565b141561116e575060035b600761117b84600a61217c565b85611186888a611eca565b6111909190611eca565b61119a9190611eca565b60ff166111a79190612168565b6111b19082611e5e565b6111c390670de0b6b3a7640000611e5e565b979650505050505050565b606060008260038111156111e4576111e461213c565b141561120c57505060408051808201909152600681526521b7b6b6b7b760d11b602082015290565b60018260038111156112205761122061213c565b141561124a5750506040805180820190915260088152672ab721b7b6b6b7b760c11b602082015290565b600282600381111561125e5761125e61213c565b14156112845750506040805180820190915260048152635261726560e01b602082015290565b50506040805180820190915260048152634570696360e01b602082015290565b6060600080600060c960009054906101000a90046001600160a01b03166001600160a01b031663b53720c56040518163ffffffff1660e01b8152600401602060405180830381865afa1580156112fe573d6000803e3d6000fd5b505050506040513d601f19601f820116820180604052508101906113229190611eef565b604051631ae9d2f960e21b81526001600160a01b038781166004830152602482018c9052919250600091831690636ba74be490604401600060405180830381865afa158015611375573d6000803e3d6000fd5b505050506040513d6000823e601f3d908101601f1916820160405261139d9190810190611f8f565b90506000826001600160a01b03166337116c6e888c6040518363ffffffff1660e01b81526004016113cf929190612035565b600060405180830381865afa1580156113ec573d6000803e3d6000fd5b505050506040513d6000823e601f3d908101601f191682016040526114149190810190611f8f565b8251909150600090818167ffffffffffffffff81111561143657611436611a61565b60405190808252806020026020018201604052801561145f578160200160208202803683370190505b50905060005b828110156114ea576114908587838151811061148357611483612072565b602002602001015161186c565b156114da578581815181106114a7576114a7612072565b60200260200101518285815181106114c1576114c1612072565b60209081029190910101526114d7600185611e7d565b93505b6114e381612088565b9050611465565b506114f781848e8e61150e565b985098509850505050505050955095509592505050565b60606000806000808567ffffffffffffffff81111561152f5761152f611a61565b604051908082528060200260200182016040528015611558578160200160208202803683370190505b50905060008061156989898c6103ed565b9092509050805b8281116115d457808b11156115c4578b818151811061159157611591612072565b60200260200101518486815181106115ab576115ab612072565b60209081029190910101526115c1600186611e7d565b94505b6115cd81612088565b9050611570565b50919a929950919650505050505050565b6001600160a01b0381163b6116525760405162461bcd60e51b815260206004820152602d60248201527f455243313936373a206e657720696d706c656d656e746174696f6e206973206e60448201526c1bdd08184818dbdb9d1c9858dd609a1b606482015260840161027c565b6000805160206121e983398151915280546001600160a01b0319166001600160a01b0392909216919091179055565b61168a836118c2565b6000825111806116975750805b15610cf8576116a68383611902565b50505050565b600054610100900460ff166116d35760405162461bcd60e51b815260040161027c906120f1565b61053c33610e35565b8151815160009184918491908111156116f3575080515b60005b818110156117c55782818151811061171057611710612072565b602001015160f81c60f81b6001600160f81b03191684828151811061173757611737612072565b01602001516001600160f81b031916101561175a57600019945050505050610f75565b82818151811061176c5761176c612072565b602001015160f81c60f81b6001600160f81b03191684828151811061179357611793612072565b01602001516001600160f81b03191611156117b5576001945050505050610f75565b6117be81612088565b90506116f6565b508151835110156117dd576000199350505050610f75565b8151835111156117f35760019350505050610f75565b60009350505050610f75565b6040516001600160f81b031960f883901b1660208201526bffffffffffffffffffffffff193360601b1660218201524460358201524260558201526001607582015260009083906095016040516020818303038152906040528051906020012060001c61110191906121a5565b8151600090815b818110156118b7578385828151811061188e5761188e612072565b602002602001015114156118a757600192505050610f75565b6118b081612088565b9050611873565b506000949350505050565b6118cb816115e5565b6040516001600160a01b038216907fbc7cd75a20ee27fd9adebab32041f755214dbc6bffa90cc0225b39da2e5c2d3b90600090a250565b60606001600160a01b0383163b61196a5760405162461bcd60e51b815260206004820152602660248201527f416464726573733a2064656c65676174652063616c6c20746f206e6f6e2d636f6044820152651b9d1c9858dd60d21b606482015260840161027c565b600080846001600160a01b03168460405161198591906121b9565b600060405180830381855af49150503d80600081146119c0576040519150601f19603f3d011682016040523d82523d6000602084013e6119c5565b606091505b50915091506119ed8282604051806060016040528060278152602001612209602791396119f6565b95945050505050565b60608315611a05575081611101565b825115611a155782518084602001fd5b8160405162461bcd60e51b815260040161027c91906121d5565b6001600160a01b038116811461031957600080fd5b600060208284031215611a5657600080fd5b813561110181611a2f565b634e487b7160e01b600052604160045260246000fd5b604051601f8201601f1916810167ffffffffffffffff81118282101715611aa057611aa0611a61565b604052919050565b600067ffffffffffffffff821115611ac257611ac2611a61565b50601f01601f191660200190565b6000611ae3611ade84611aa8565b611a77565b9050828152838383011115611af757600080fd5b828260208301376000602084830101529392505050565b60008060408385031215611b2157600080fd5b8235611b2c81611a2f565b9150602083013567ffffffffffffffff811115611b4857600080fd5b8301601f81018513611b5957600080fd5b611b6885823560208401611ad0565b9150509250929050565b600080600060608486031215611b8757600080fd5b505081359360208301359350604090920135919050565b600082601f830112611baf57600080fd5b61110183833560208501611ad0565b600060208284031215611bd057600080fd5b813567ffffffffffffffff811115611be757600080fd5b611bf384828501611b9e565b949350505050565b600060208284031215611c0d57600080fd5b813560ff8116811461110157600080fd5b60005b83811015611c39578181015183820152602001611c21565b838111156116a65750506000910152565b60008151808452611c62816020860160208601611c1e565b601f01601f19169290920160200192915050565b6000610100808352611c8a8184018c611c4a565b905060ff8a16602084015260ff8916604084015260ff8816606084015260ff871660808401528560a08401528460c084015282810360e0840152611cce8185611c4a565b9b9a5050505050505050505050565b600080600080600060a08688031215611cf557600080fd5b853594506020860135935060408601359250606086013567ffffffffffffffff811115611d2157600080fd5b611d2d88828901611b9e565b9250506080860135611d3e81611a2f565b809150509295509295909350565b606080825284519082018190526000906020906080840190828801845b82811015611d8557815184529284019290840190600101611d69565b505050908301949094525060400152919050565b6020808252602c908201527f46756e6374696f6e206d7573742062652063616c6c6564207468726f7567682060408201526b19195b1959d85d1958d85b1b60a21b606082015260800190565b6020808252602c908201527f46756e6374696f6e206d7573742062652063616c6c6564207468726f7567682060408201526b6163746976652070726f787960a01b606082015260800190565b634e487b7160e01b600052601160045260246000fd5b600082821015611e5957611e59611e31565b500390565b6000816000190483118215151615611e7857611e78611e31565b500290565b60008219821115611e9057611e90611e31565b500190565b6020808252818101527f4f776e61626c653a2063616c6c6572206973206e6f7420746865206f776e6572604082015260600190565b600060ff821660ff84168060ff03821115611ee757611ee7611e31565b019392505050565b600060208284031215611f0157600080fd5b815161110181611a2f565b60008060408385031215611f1f57600080fd5b82519150602083015167ffffffffffffffff811115611f3d57600080fd5b8301601f81018513611f4e57600080fd5b8051611f5c611ade82611aa8565b818152866020838501011115611f7157600080fd5b611f82826020830160208601611c1e565b8093505050509250929050565b60006020808385031215611fa257600080fd5b825167ffffffffffffffff80821115611fba57600080fd5b818501915085601f830112611fce57600080fd5b815181811115611fe057611fe0611a61565b8060051b9150611ff1848301611a77565b818152918301840191848101908884111561200b57600080fd5b938501935b8385101561202957845182529385019390850190612010565b98975050505050505050565b6001600160a01b0383168152604060208201819052600090611bf390830184611c4a565b60006020828403121561206b57600080fd5b5051919050565b634e487b7160e01b600052603260045260246000fd5b600060001982141561209c5761209c611e31565b5060010190565b6020808252602e908201527f496e697469616c697a61626c653a20636f6e747261637420697320616c72656160408201526d191e481a5b9a5d1a585b1a5e995960921b606082015260800190565b6020808252602b908201527f496e697469616c697a61626c653a20636f6e7472616374206973206e6f74206960408201526a6e697469616c697a696e6760a81b606082015260800190565b634e487b7160e01b600052602160045260246000fd5b634e487b7160e01b600052601260045260246000fd5b60008261217757612177612152565b500490565b600060ff821660ff84168160ff048111821515161561219d5761219d611e31565b029392505050565b6000826121b4576121b4612152565b500690565b600082516121cb818460208701611c1e565b9190910192915050565b6020815260006111016020830184611c4a56fe360894a13ba1a3210667c828492db98dca3e2076cc3735a920a3ca505d382bbc416464726573733a206c6f772d6c6576656c2064656c65676174652063616c6c206661696c6564a2646970667358221220f443e89347f45fc7ffcaf29f3b85720b44262ec176ebd32f89f30dbb39eda01564736f6c634300080c0033496e697469616c697a61626c653a20636f6e747261637420697320616c726561",
  "linkReferences": {},
  "deployedLinkReferences": {}
}