{
  "_format": "hh-sol-artifact-1",
  "contractName": "ZombieNFTContract",
  "sourceName": "src/backend/contracts/ZombieNFT.sol",
  "abi": [
    {
      "inputs": [],
      "stateMutability": "nonpayable",
      "type": "constructor"
    },
    {
      "inputs": [
        {
          "internalType": "string",
          "name": "message",
          "type": "string"
        },
        {
          "internalType": "uint256",
          "name": "tokenId",
          "type": "uint256"
        }
      ],
      "name": "MonsterMintError",
      "type": "error"
    },
    {
      "inputs": [
        {
          "internalType": "string",
          "name": "message",
          "type": "string"
        },
        {
          "internalType": "uint256",
          "name": "get",
          "type": "uint256"
        },
        {
          "internalType": "uint256",
          "name": "expected",
          "type": "uint256"
        }
      ],
      "name": "MonsterMintPaymentError",
      "type": "error"
    },
    {
      "inputs": [
        {
          "internalType": "string",
          "name": "message",
          "type": "string"
        }
      ],
      "name": "ZombiesKillError",
      "type": "error"
    },
    {
      "inputs": [
        {
          "internalType": "string",
          "name": "message",
          "type": "string"
        }
      ],
      "name": "ZombiesMintError",
      "type": "error"
    },
    {
      "anonymous": false,
      "inputs": [
        {
          "indexed": false,
          "internalType": "address",
          "name": "previousAdmin",
          "type": "address"
        },
        {
          "indexed": false,
          "internalType": "address",
          "name": "newAdmin",
          "type": "address"
        }
      ],
      "name": "AdminChanged",
      "type": "event"
    },
    {
      "anonymous": false,
      "inputs": [
        {
          "indexed": true,
          "internalType": "address",
          "name": "owner",
          "type": "address"
        },
        {
          "indexed": true,
          "internalType": "address",
          "name": "approved",
          "type": "address"
        },
        {
          "indexed": true,
          "internalType": "uint256",
          "name": "tokenId",
          "type": "uint256"
        }
      ],
      "name": "Approval",
      "type": "event"
    },
    {
      "anonymous": false,
      "inputs": [
        {
          "indexed": true,
          "internalType": "address",
          "name": "owner",
          "type": "address"
        },
        {
          "indexed": true,
          "internalType": "address",
          "name": "operator",
          "type": "address"
        },
        {
          "indexed": false,
          "internalType": "bool",
          "name": "approved",
          "type": "bool"
        }
      ],
      "name": "ApprovalForAll",
      "type": "event"
    },
    {
      "anonymous": false,
      "inputs": [
        {
          "indexed": true,
          "internalType": "address",
          "name": "beacon",
          "type": "address"
        }
      ],
      "name": "BeaconUpgraded",
      "type": "event"
    },
    {
      "anonymous": false,
      "inputs": [
        {
          "indexed": false,
          "internalType": "uint8",
          "name": "version",
          "type": "uint8"
        }
      ],
      "name": "Initialized",
      "type": "event"
    },
    {
      "anonymous": false,
      "inputs": [
        {
          "indexed": true,
          "internalType": "address",
          "name": "previousOwner",
          "type": "address"
        },
        {
          "indexed": true,
          "internalType": "address",
          "name": "newOwner",
          "type": "address"
        }
      ],
      "name": "OwnershipTransferred",
      "type": "event"
    },
    {
      "anonymous": false,
      "inputs": [
        {
          "indexed": true,
          "internalType": "address",
          "name": "from",
          "type": "address"
        },
        {
          "indexed": true,
          "internalType": "address",
          "name": "to",
          "type": "address"
        },
        {
          "indexed": true,
          "internalType": "uint256",
          "name": "tokenId",
          "type": "uint256"
        }
      ],
      "name": "Transfer",
      "type": "event"
    },
    {
      "anonymous": false,
      "inputs": [
        {
          "indexed": true,
          "internalType": "address",
          "name": "implementation",
          "type": "address"
        }
      ],
      "name": "Upgraded",
      "type": "event"
    },
    {
      "inputs": [
        {
          "internalType": "address",
          "name": "to",
          "type": "address"
        },
        {
          "internalType": "uint256",
          "name": "tokenId",
          "type": "uint256"
        }
      ],
      "name": "approve",
      "outputs": [],
      "stateMutability": "nonpayable",
      "type": "function"
    },
    {
      "inputs": [
        {
          "internalType": "address",
          "name": "owner",
          "type": "address"
        }
      ],
      "name": "balanceOf",
      "outputs": [
        {
          "internalType": "uint256",
          "name": "",
          "type": "uint256"
        }
      ],
      "stateMutability": "view",
      "type": "function"
    },
    {
      "inputs": [
        {
          "internalType": "uint256",
          "name": "tokenId",
          "type": "uint256"
        }
      ],
      "name": "burn",
      "outputs": [],
      "stateMutability": "nonpayable",
      "type": "function"
    },
    {
      "inputs": [
        {
          "internalType": "uint256",
          "name": "_id",
          "type": "uint256"
        },
        {
          "internalType": "uint256",
          "name": "_payAmount",
          "type": "uint256"
        },
        {
          "internalType": "address",
          "name": "_newOwner",
          "type": "address"
        }
      ],
      "name": "buyToken",
      "outputs": [
        {
          "internalType": "address",
          "name": "",
          "type": "address"
        }
      ],
      "stateMutability": "nonpayable",
      "type": "function"
    },
    {
      "inputs": [
        {
          "internalType": "address",
          "name": "_owner",
          "type": "address"
        },
        {
          "internalType": "uint256[]",
          "name": "_zombiesList",
          "type": "uint256[]"
        },
        {
          "internalType": "uint256",
          "name": "_payAmount",
          "type": "uint256"
        }
      ],
      "name": "checkAndBurnZombies",
      "outputs": [
        {
          "internalType": "uint256",
          "name": "",
          "type": "uint256"
        },
        {
          "internalType": "uint256",
          "name": "",
          "type": "uint256"
        },
        {
          "internalType": "uint256",
          "name": "",
          "type": "uint256"
        },
        {
          "internalType": "uint256",
          "name": "",
          "type": "uint256"
        },
        {
          "internalType": "uint256",
          "name": "",
          "type": "uint256"
        }
      ],
      "stateMutability": "nonpayable",
      "type": "function"
    },
    {
      "inputs": [
        {
          "internalType": "uint256",
          "name": "tokenId",
          "type": "uint256"
        }
      ],
      "name": "getApproved",
      "outputs": [
        {
          "internalType": "address",
          "name": "",
          "type": "address"
        }
      ],
      "stateMutability": "view",
      "type": "function"
    },
    {
      "inputs": [
        {
          "internalType": "uint256[]",
          "name": "_listId",
          "type": "uint256[]"
        }
      ],
      "name": "getListById",
      "outputs": [
        {
          "components": [
            {
              "internalType": "uint256",
              "name": "tokenId",
              "type": "uint256"
            },
            {
              "internalType": "enum Utils.CardRarity",
              "name": "cardRarity",
              "type": "uint8"
            },
            {
              "internalType": "uint256",
              "name": "collection",
              "type": "uint256"
            },
            {
              "internalType": "uint256",
              "name": "killTokens",
              "type": "uint256"
            },
            {
              "internalType": "uint256",
              "name": "salePrice",
              "type": "uint256"
            },
            {
              "internalType": "uint256",
              "name": "mintDate",
              "type": "uint256"
            },
            {
              "internalType": "string",
              "name": "media",
              "type": "string"
            },
            {
              "internalType": "uint8",
              "name": "health",
              "type": "uint8"
            },
            {
              "internalType": "uint8",
              "name": "attack",
              "type": "uint8"
            },
            {
              "internalType": "uint8",
              "name": "brain",
              "type": "uint8"
            },
            {
              "internalType": "uint8",
              "name": "speed",
              "type": "uint8"
            },
            {
              "internalType": "string",
              "name": "nftType",
              "type": "string"
            },
            {
              "internalType": "address",
              "name": "ownerId",
              "type": "address"
            },
            {
              "internalType": "enum Utils.ModifierItems[]",
              "name": "modifier_items",
              "type": "uint8[]"
            },
            {
              "internalType": "uint256",
              "name": "next_battle",
              "type": "uint256"
            }
          ],
          "internalType": "struct ZombieNFTContract.Zombie[]",
          "name": "",
          "type": "tuple[]"
        }
      ],
      "stateMutability": "view",
      "type": "function"
    },
    {
      "inputs": [
        {
          "internalType": "uint256",
          "name": "_startIndex",
          "type": "uint256"
        },
        {
          "internalType": "uint8",
          "name": "_count",
          "type": "uint8"
        },
        {
          "internalType": "string",
          "name": "_rarity",
          "type": "string"
        },
        {
          "internalType": "string",
          "name": "_collection",
          "type": "string"
        }
      ],
      "name": "getMarketItems",
      "outputs": [
        {
          "internalType": "uint256",
          "name": "",
          "type": "uint256"
        },
        {
          "components": [
            {
              "internalType": "uint256",
              "name": "tokenId",
              "type": "uint256"
            },
            {
              "internalType": "enum Utils.CardRarity",
              "name": "cardRarity",
              "type": "uint8"
            },
            {
              "internalType": "uint256",
              "name": "collection",
              "type": "uint256"
            },
            {
              "internalType": "uint256",
              "name": "killTokens",
              "type": "uint256"
            },
            {
              "internalType": "uint256",
              "name": "salePrice",
              "type": "uint256"
            },
            {
              "internalType": "uint256",
              "name": "mintDate",
              "type": "uint256"
            },
            {
              "internalType": "string",
              "name": "media",
              "type": "string"
            },
            {
              "internalType": "uint8",
              "name": "health",
              "type": "uint8"
            },
            {
              "internalType": "uint8",
              "name": "attack",
              "type": "uint8"
            },
            {
              "internalType": "uint8",
              "name": "brain",
              "type": "uint8"
            },
            {
              "internalType": "uint8",
              "name": "speed",
              "type": "uint8"
            },
            {
              "internalType": "string",
              "name": "nftType",
              "type": "string"
            },
            {
              "internalType": "address",
              "name": "ownerId",
              "type": "address"
            },
            {
              "internalType": "enum Utils.ModifierItems[]",
              "name": "modifier_items",
              "type": "uint8[]"
            },
            {
              "internalType": "uint256",
              "name": "next_battle",
              "type": "uint256"
            }
          ],
          "internalType": "struct ZombieNFTContract.Zombie[]",
          "name": "",
          "type": "tuple[]"
        }
      ],
      "stateMutability": "view",
      "type": "function"
    },
    {
      "inputs": [
        {
          "internalType": "uint256[]",
          "name": "_zombiesList",
          "type": "uint256[]"
        }
      ],
      "name": "getRandomRarityByZombies",
      "outputs": [
        {
          "internalType": "string",
          "name": "",
          "type": "string"
        }
      ],
      "stateMutability": "view",
      "type": "function"
    },
    {
      "inputs": [
        {
          "internalType": "uint256",
          "name": "_id",
          "type": "uint256"
        }
      ],
      "name": "getRarityCollection",
      "outputs": [
        {
          "internalType": "string",
          "name": "",
          "type": "string"
        },
        {
          "internalType": "uint256",
          "name": "",
          "type": "uint256"
        }
      ],
      "stateMutability": "view",
      "type": "function"
    },
    {
      "inputs": [],
      "name": "getUserCollectionZombieCount",
      "outputs": [
        {
          "internalType": "uint256[]",
          "name": "",
          "type": "uint256[]"
        }
      ],
      "stateMutability": "view",
      "type": "function"
    },
    {
      "inputs": [
        {
          "internalType": "address",
          "name": "_owner",
          "type": "address"
        },
        {
          "internalType": "uint256",
          "name": "_collectionFilter",
          "type": "uint256"
        }
      ],
      "name": "getUserZombieCollection",
      "outputs": [
        {
          "internalType": "uint256[]",
          "name": "",
          "type": "uint256[]"
        }
      ],
      "stateMutability": "view",
      "type": "function"
    },
    {
      "inputs": [
        {
          "internalType": "address",
          "name": "_owner",
          "type": "address"
        },
        {
          "internalType": "string",
          "name": "_rarityFilter",
          "type": "string"
        }
      ],
      "name": "getUserZombieRarity",
      "outputs": [
        {
          "internalType": "uint256[]",
          "name": "",
          "type": "uint256[]"
        }
      ],
      "stateMutability": "view",
      "type": "function"
    },
    {
      "inputs": [
        {
          "internalType": "address",
          "name": "_mainContract",
          "type": "address"
        }
      ],
      "name": "initialize",
      "outputs": [],
      "stateMutability": "nonpayable",
      "type": "function"
    },
    {
      "inputs": [
        {
          "internalType": "address",
          "name": "owner",
          "type": "address"
        },
        {
          "internalType": "address",
          "name": "operator",
          "type": "address"
        }
      ],
      "name": "isApprovedForAll",
      "outputs": [
        {
          "internalType": "bool",
          "name": "",
          "type": "bool"
        }
      ],
      "stateMutability": "view",
      "type": "function"
    },
    {
      "inputs": [
        {
          "internalType": "uint256[]",
          "name": "_tokenList",
          "type": "uint256[]"
        }
      ],
      "name": "killNftList",
      "outputs": [],
      "stateMutability": "nonpayable",
      "type": "function"
    },
    {
      "inputs": [],
      "name": "leaderboardStats",
      "outputs": [
        {
          "internalType": "uint256",
          "name": "",
          "type": "uint256"
        },
        {
          "internalType": "uint256",
          "name": "",
          "type": "uint256"
        }
      ],
      "stateMutability": "view",
      "type": "function"
    },
    {
      "inputs": [],
      "name": "name",
      "outputs": [
        {
          "internalType": "string",
          "name": "",
          "type": "string"
        }
      ],
      "stateMutability": "view",
      "type": "function"
    },
    {
      "inputs": [],
      "name": "owner",
      "outputs": [
        {
          "internalType": "address",
          "name": "",
          "type": "address"
        }
      ],
      "stateMutability": "view",
      "type": "function"
    },
    {
      "inputs": [
        {
          "internalType": "uint256",
          "name": "tokenId",
          "type": "uint256"
        }
      ],
      "name": "ownerOf",
      "outputs": [
        {
          "internalType": "address",
          "name": "",
          "type": "address"
        }
      ],
      "stateMutability": "view",
      "type": "function"
    },
    {
      "inputs": [],
      "name": "proxiableUUID",
      "outputs": [
        {
          "internalType": "bytes32",
          "name": "",
          "type": "bytes32"
        }
      ],
      "stateMutability": "view",
      "type": "function"
    },
    {
      "inputs": [],
      "name": "renounceOwnership",
      "outputs": [],
      "stateMutability": "nonpayable",
      "type": "function"
    },
    {
      "inputs": [
        {
          "internalType": "uint256",
          "name": "_landId",
          "type": "uint256"
        }
      ],
      "name": "safeMint",
      "outputs": [],
      "stateMutability": "nonpayable",
      "type": "function"
    },
    {
      "inputs": [
        {
          "internalType": "address",
          "name": "from",
          "type": "address"
        },
        {
          "internalType": "address",
          "name": "to",
          "type": "address"
        },
        {
          "internalType": "uint256",
          "name": "tokenId",
          "type": "uint256"
        }
      ],
      "name": "safeTransferFrom",
      "outputs": [],
      "stateMutability": "nonpayable",
      "type": "function"
    },
    {
      "inputs": [
        {
          "internalType": "address",
          "name": "from",
          "type": "address"
        },
        {
          "internalType": "address",
          "name": "to",
          "type": "address"
        },
        {
          "internalType": "uint256",
          "name": "tokenId",
          "type": "uint256"
        },
        {
          "internalType": "bytes",
          "name": "_data",
          "type": "bytes"
        }
      ],
      "name": "safeTransferFrom",
      "outputs": [],
      "stateMutability": "nonpayable",
      "type": "function"
    },
    {
      "inputs": [
        {
          "internalType": "address",
          "name": "operator",
          "type": "address"
        },
        {
          "internalType": "bool",
          "name": "approved",
          "type": "bool"
        }
      ],
      "name": "setApprovalForAll",
      "outputs": [],
      "stateMutability": "nonpayable",
      "type": "function"
    },
    {
      "inputs": [
        {
          "internalType": "uint256",
          "name": "_tokenId",
          "type": "uint256"
        },
        {
          "internalType": "uint256",
          "name": "_price",
          "type": "uint256"
        },
        {
          "internalType": "address",
          "name": "ownerId",
          "type": "address"
        }
      ],
      "name": "setMarketSalePrice",
      "outputs": [],
      "stateMutability": "nonpayable",
      "type": "function"
    },
    {
      "inputs": [
        {
          "internalType": "bytes4",
          "name": "_interfaceId",
          "type": "bytes4"
        }
      ],
      "name": "supportsInterface",
      "outputs": [
        {
          "internalType": "bool",
          "name": "",
          "type": "bool"
        }
      ],
      "stateMutability": "view",
      "type": "function"
    },
    {
      "inputs": [],
      "name": "symbol",
      "outputs": [
        {
          "internalType": "string",
          "name": "",
          "type": "string"
        }
      ],
      "stateMutability": "view",
      "type": "function"
    },
    {
      "inputs": [
        {
          "internalType": "uint256",
          "name": "index",
          "type": "uint256"
        }
      ],
      "name": "tokenByIndex",
      "outputs": [
        {
          "internalType": "uint256",
          "name": "",
          "type": "uint256"
        }
      ],
      "stateMutability": "view",
      "type": "function"
    },
    {
      "inputs": [
        {
          "internalType": "address",
          "name": "owner",
          "type": "address"
        },
        {
          "internalType": "uint256",
          "name": "index",
          "type": "uint256"
        }
      ],
      "name": "tokenOfOwnerByIndex",
      "outputs": [
        {
          "internalType": "uint256",
          "name": "",
          "type": "uint256"
        }
      ],
      "stateMutability": "view",
      "type": "function"
    },
    {
      "inputs": [
        {
          "internalType": "uint256",
          "name": "_tokenId",
          "type": "uint256"
        }
      ],
      "name": "tokenURI",
      "outputs": [
        {
          "internalType": "string",
          "name": "",
          "type": "string"
        }
      ],
      "stateMutability": "view",
      "type": "function"
    },
    {
      "inputs": [],
      "name": "totalSupply",
      "outputs": [
        {
          "internalType": "uint256",
          "name": "",
          "type": "uint256"
        }
      ],
      "stateMutability": "view",
      "type": "function"
    },
    {
      "inputs": [
        {
          "internalType": "address",
          "name": "from",
          "type": "address"
        },
        {
          "internalType": "address",
          "name": "to",
          "type": "address"
        },
        {
          "internalType": "uint256",
          "name": "tokenId",
          "type": "uint256"
        }
      ],
      "name": "transferFrom",
      "outputs": [],
      "stateMutability": "nonpayable",
      "type": "function"
    },
    {
      "inputs": [
        {
          "internalType": "address",
          "name": "newOwner",
          "type": "address"
        }
      ],
      "name": "transferOwnership",
      "outputs": [],
      "stateMutability": "nonpayable",
      "type": "function"
    },
    {
      "inputs": [
        {
          "internalType": "address",
          "name": "newImplementation",
          "type": "address"
        }
      ],
      "name": "upgradeTo",
      "outputs": [],
      "stateMutability": "nonpayable",
      "type": "function"
    },
    {
      "inputs": [
        {
          "internalType": "address",
          "name": "newImplementation",
          "type": "address"
        },
        {
          "internalType": "bytes",
          "name": "data",
          "type": "bytes"
        }
      ],
      "name": "upgradeToAndCall",
      "outputs": [],
      "stateMutability": "payable",
      "type": "function"
    },
    {
      "inputs": [
        {
          "internalType": "uint256",
          "name": "_page",
          "type": "uint256"
        },
        {
          "internalType": "uint8",
          "name": "_count",
          "type": "uint8"
        },
        {
          "internalType": "uint256",
          "name": "_collectionFilter",
          "type": "uint256"
        },
        {
          "internalType": "string",
          "name": "_rarityFilter",
          "type": "string"
        }
      ],
      "name": "userZombies",
      "outputs": [
        {
          "internalType": "uint256",
          "name": "",
          "type": "uint256"
        },
        {
          "components": [
            {
              "internalType": "uint256",
              "name": "tokenId",
              "type": "uint256"
            },
            {
              "internalType": "enum Utils.CardRarity",
              "name": "cardRarity",
              "type": "uint8"
            },
            {
              "internalType": "uint256",
              "name": "collection",
              "type": "uint256"
            },
            {
              "internalType": "uint256",
              "name": "killTokens",
              "type": "uint256"
            },
            {
              "internalType": "uint256",
              "name": "salePrice",
              "type": "uint256"
            },
            {
              "internalType": "uint256",
              "name": "mintDate",
              "type": "uint256"
            },
            {
              "internalType": "string",
              "name": "media",
              "type": "string"
            },
            {
              "internalType": "uint8",
              "name": "health",
              "type": "uint8"
            },
            {
              "internalType": "uint8",
              "name": "attack",
              "type": "uint8"
            },
            {
              "internalType": "uint8",
              "name": "brain",
              "type": "uint8"
            },
            {
              "internalType": "uint8",
              "name": "speed",
              "type": "uint8"
            },
            {
              "internalType": "string",
              "name": "nftType",
              "type": "string"
            },
            {
              "internalType": "address",
              "name": "ownerId",
              "type": "address"
            },
            {
              "internalType": "enum Utils.ModifierItems[]",
              "name": "modifier_items",
              "type": "uint8[]"
            },
            {
              "internalType": "uint256",
              "name": "next_battle",
              "type": "uint256"
            }
          ],
          "internalType": "struct ZombieNFTContract.Zombie[]",
          "name": "",
          "type": "tuple[]"
        }
      ],
      "stateMutability": "view",
      "type": "function"
    }
  ],
  "bytecode": "0x60a0604052306080523480156200001557600080fd5b506200002062000026565b62000156565b6200003260ff62000035565b50565b60008054610100900460ff1615620000ce578160ff1660011480156200006e57506200006c306200014760201b62002ebd1760201c565b155b620000c65760405162461bcd60e51b815260206004820152602e602482015260008051602062005f4283398151915260448201526d191e481a5b9a5d1a585b1a5e995960921b60648201526084015b60405180910390fd5b506000919050565b60005460ff8084169116106200012d5760405162461bcd60e51b815260206004820152602e602482015260008051602062005f4283398151915260448201526d191e481a5b9a5d1a585b1a5e995960921b6064820152608401620000bd565b506000805460ff191660ff92909216919091179055600190565b6001600160a01b03163b151590565b608051615db46200018e6000396000818161169e015281816116de01528181611aa101528181611ae10152611c070152615db46000f3fe6080604052600436106102255760003560e01c80636352211e11610123578063af3f6577116100ab578063d9dbcf821161006f578063d9dbcf821461069e578063e985e9c5146106be578063f2fde38b14610707578063f4c6817c14610727578063feb9fd641461075157600080fd5b8063af3f6577146105f0578063b88d4fde14610610578063c4d66de814610630578063c87b56dd14610650578063cb06c8291461067057600080fd5b8063767c5e1b116100f2578063767c5e1b1461054f5780638da5cb5b1461056f5780638e169b141461058e57806395d89b41146105bb578063a22cb465146105d057600080fd5b80636352211e146104da5780636ba74be4146104fa57806370a082311461051a578063715018a61461053a57600080fd5b806331c864e8116101b157806342966c681161017557806342966c68146104445780634689856c146104645780634f1ef286146104925780634f6ccce7146104a557806352d1902d146104c557600080fd5b806331c864e8146103a25780633659cfe6146103c257806336a14046146103e257806337116c6e1461040457806342842e0e1461042457600080fd5b806318160ddd116101f857806318160ddd146102db57806321466eb5146102fa57806323b872dd1461031a5780632553f32c1461033a5780632f745c591461038257600080fd5b806301ffc9a71461022a57806306fdde031461025f578063081812fc14610281578063095ea7b3146102b9575b600080fd5b34801561023657600080fd5b5061024a610245366004614eab565b610771565b60405190151581526020015b60405180910390f35b34801561026b57600080fd5b50610274610782565b6040516102569190614f20565b34801561028d57600080fd5b506102a161029c366004614f33565b610814565b6040516001600160a01b039091168152602001610256565b3480156102c557600080fd5b506102d96102d4366004614f61565b6108a1565b005b3480156102e757600080fd5b506099545b604051908152602001610256565b34801561030657600080fd5b506102a1610315366004614f8d565b6109b7565b34801561032657600080fd5b506102d9610335366004614fc6565b610b00565b34801561034657600080fd5b5061035a6103553660046150db565b610b32565b604080519586526020860194909452928401919091526060830152608082015260a001610256565b34801561038e57600080fd5b506102ec61039d366004614f61565b610e9c565b3480156103ae57600080fd5b506102d96103bd366004614f33565b610f32565b3480156103ce57600080fd5b506102d96103dd366004615133565b611693565b3480156103ee57600080fd5b506103f7611773565b6040516102569190615150565b34801561041057600080fd5b506103f761041f36600461520c565b611924565b34801561043057600080fd5b506102d961043f366004614fc6565b6119d0565b34801561045057600080fd5b506102d961045f366004614f33565b6119eb565b34801561047057600080fd5b5061048461047f366004614f33565b611a62565b60405161025692919061525b565b6102d96104a036600461520c565b611a96565b3480156104b157600080fd5b506102ec6104c0366004614f33565b611b67565b3480156104d157600080fd5b506102ec611bfa565b3480156104e657600080fd5b506102a16104f5366004614f33565b611cad565b34801561050657600080fd5b506103f7610515366004614f61565b611d24565b34801561052657600080fd5b506102ec610535366004615133565b611d4b565b34801561054657600080fd5b506102d9611dd2565b34801561055b57600080fd5b5061027461056a36600461527d565b611e09565b34801561057b57600080fd5b5061012d546001600160a01b03166102a1565b34801561059a57600080fd5b506105ae6105a936600461527d565b611e67565b6040516102569190615481565b3480156105c757600080fd5b506102746121a5565b3480156105dc57600080fd5b506102d96105eb366004615494565b6121b4565b3480156105fc57600080fd5b506102d961060b36600461527d565b6121bf565b34801561061c57600080fd5b506102d961062b3660046154d2565b612358565b34801561063c57600080fd5b506102d961064b366004615133565b612390565b34801561065c57600080fd5b5061027461066b366004614f33565b612486565b34801561067c57600080fd5b5061069061068b36600461554c565b612491565b604051610256929190615574565b3480156106aa57600080fd5b506106906106b936600461558d565b612923565b3480156106ca57600080fd5b5061024a6106d9366004615600565b6001600160a01b039182166000908152606a6020908152604080832093909416825291909152205460ff1690565b34801561071357600080fd5b506102d9610722366004615133565b612d73565b34801561073357600080fd5b5061073c612e0c565b60408051928352602083019190915201610256565b34801561075d57600080fd5b506102d961076c366004614f8d565b612e25565b600061077c82612ecc565b92915050565b6060606580546107919061562e565b80601f01602080910402602001604051908101604052809291908181526020018280546107bd9061562e565b801561080a5780601f106107df5761010080835404028352916020019161080a565b820191906000526020600020905b8154815290600101906020018083116107ed57829003601f168201915b5050505050905090565b600061081f82612ef1565b6108855760405162461bcd60e51b815260206004820152602c60248201527f4552433732313a20617070726f76656420717565727920666f72206e6f6e657860448201526b34b9ba32b73a103a37b5b2b760a11b60648201526084015b60405180910390fd5b506000908152606960205260409020546001600160a01b031690565b60006108ac82611cad565b9050806001600160a01b0316836001600160a01b0316141561091a5760405162461bcd60e51b815260206004820152602160248201527f4552433732313a20617070726f76616c20746f2063757272656e74206f776e656044820152603960f91b606482015260840161087c565b336001600160a01b0382161480610936575061093681336106d9565b6109a85760405162461bcd60e51b815260206004820152603860248201527f4552433732313a20617070726f76652063616c6c6572206973206e6f74206f7760448201527f6e6572206e6f7220617070726f76656420666f7220616c6c0000000000000000606482015260840161087c565b6109b28383612f0e565b505050565b60006109c1612f7c565b60008481526101c6602052604090206004810154610a185760405162461bcd60e51b815260206004820152601460248201527315dc9bdb99c81c185e5b595b9d08185b5bdd5b9d60621b604482015260640161087c565b83816004015414610a625760405162461bcd60e51b815260206004820152601460248201527315dc9bdb99c81c185e5b595b9d08185b5bdd5b9d60621b604482015260640161087c565b60098101546001600160a01b0384811691161415610ac25760405162461bcd60e51b815260206004820152601f60248201527f43616e27742073656c6c20666f72207468652073616d65206163636f756e7400604482015260640161087c565b6009810180546001600160a01b038581166001600160a01b03198316179092556000600484015516610af5818588613045565b9150505b9392505050565b610b0b335b826131ec565b610b275760405162461bcd60e51b815260040161087c90615663565b6109b2838383613045565b6000806000806000610b426132d6565b60006040518060a00160405280600081526020016000815260200160008152602001600081526020016101c660008b600081518110610b8357610b836156b4565b602002602001015181526020019081526020016000206002015481525090506000885190506000806101c360009054906101000a90046001600160a01b03166001600160a01b03166342104fac6040518163ffffffff1660e01b8152600401602060405180830381865afa158015610bff573d6000803e3d6000fd5b505050506040513d601f19601f82011682018060405250810190610c2391906156ca565b905060005b83811015610e105760008c8281518110610c4457610c446156b4565b6020026020010151905060006101c6600083815260200190815260200160002090508e6001600160a01b03168160090160009054906101000a90046001600160a01b03166001600160a01b031614610ceb578054604080516334ad07dd60e11b81526004810191909152601960448201527f596f7520646f6e2774206f776e2074686973207a6f6d626965000000000000006064820152602481019190915260840161087c565b60018101546001600160a01b0385169063d3ef3df490610d0d9060ff16613321565b6040518263ffffffff1660e01b8152600401610d299190614f20565b602060405180830381865afa158015610d46573d6000803e3d6000fd5b505050506040513d601f19601f82011682018060405250810190610d6a91906156e7565b610d749086615716565b6007820154885191965060ff16908890610d8f908390615716565b905250600781015460208801805161010090920460ff1691610db2908390615716565b90525060078101546040880180516201000090920460ff1691610dd6908390615716565b9052506003810154606088018051610def908390615716565b9052508054610dfd906133f7565b505080610e099061572e565b9050610c28565b50898214610e6e5760405162075be960e91b815260606004820152601860648201527f57726f6e67205a4d4c207061796d656e7420616d6f756e7400000000000000006084820152602481018b90526044810183905260a40161087c565b50508151602083015160408401516060850151608090950151929d919c509a50929850965090945050505050565b6000610ea783611d4b565b8210610f095760405162461bcd60e51b815260206004820152602b60248201527f455243373231456e756d657261626c653a206f776e657220696e646578206f7560448201526a74206f6620626f756e647360a81b606482015260840161087c565b506001600160a01b03919091166000908152609760209081526040808320938352929052205490565b6101c3546040805163afc297cb60e01b815290516000926001600160a01b03169163afc297cb9160048083019260209291908290030181865afa158015610f7d573d6000803e3d6000fd5b505050506040513d601f19601f82011682018060405250810190610fa191906156ca565b905060006101c360009054906101000a90046001600160a01b03166001600160a01b03166342104fac6040518163ffffffff1660e01b8152600401602060405180830381865afa158015610ff9573d6000803e3d6000fd5b505050506040513d601f19601f8201168201806040525081019061101d91906156ca565b90506000806000846001600160a01b031663c3edcdd1876040518263ffffffff1660e01b815260040161105291815260200190565b600060405180830381865afa15801561106f573d6000803e3d6000fd5b505050506040513d6000823e601f3d908101601f19168201604052611097919081019061578e565b919450925090506001600160a01b03831633146110f757604051633a9e892f60e21b815260206004820152601860248201527f596f7520646f6e277420686176652074686973204c616e640000000000000000604482015260640161087c565b61111e82604051806040016040528060058152602001644d6963726f60d81b81525061344d565b801561112a575080601e145b1561119357604051633a9e892f60e21b815260206004820152603260248201527f4c616e64207265736f75726365206973206465706c657465643a20796f75206d60448201527134b73a32b21030b636103d37b6b134b2b99760711b606482015260840161087c565b60405163e7e937b960e01b8152600481018790526000906001600160a01b0387169063e7e937b990602401602060405180830381865afa1580156111db573d6000803e3d6000fd5b505050506040513d601f19601f820116820180604052508101906111ff91906157e7565b905060ff81161561162d5760005b8160ff168160ff1610156115cd5760408051610120810182526000610100820181815282526020808301829052828401829052606083018290526080830182905260a0830182905260c083018290528351908101845290815260e0820152905163d9c273e760e01b815260ff831660048201526001600160a01b0388169063d9c273e7906024016000604051808303816000875af11580156112b3573d6000803e3d6000fd5b505050506040513d6000823e601f3d908101601f191682016040526112db9190810190615804565b60e089015260c088015260a087015260ff90811660808701529081166060860152908116604085015216602083015280825260009061131990613461565b905060006113276101c45490565b90506113386101c480546001019055565b6113423382613554565b611350818460e0015161356e565b604051806101e00160405280828152602001836003811115611374576113746152b1565b81526020018460c0015181526020018460a001518152602001600081526020014281526020018460e001518152602001846020015160ff168152602001846040015160ff168152602001846060015160ff168152602001846080015160ff168152602001604051806040016040528060068152602001655a6f6d62696560d01b8152508152602001336001600160a01b0316815260200160006001600160401b0381111561142457611424615007565b60405190808252806020026020018201604052801561144d578160200160208202803683370190505b5081524260209182015260008381526101c6825260409020825181559082015160018083018054909160ff199091169083600381111561148f5761148f6152b1565b021790555060408201516002820155606082015160038201556080820151600482015560a0820151600582015560c082015180516114d7916006840191602090910190614c8b565b5060e08201516007820180546101008086015161012087015161014088015160ff96871661ffff19909516949094179186169092021763ffff00001916620100009185169190910263ff000000191617630100000093909116929092029190911790556101608201518051611556916008840191602090910190614c8b565b506101808201516009820180546001600160a01b0319166001600160a01b039092169190911790556101a0820151805161159a91600a840191602090910190614d0f565b506101c082015181600b01559050506115b933828560c00151856135f9565b505050806115c6906158ca565b905061120d565b50604051630be6eb0b60e11b8152600481018890526001600160a01b038716906317cdd61690602401600060405180830381600087803b15801561161057600080fd5b505af1158015611624573d6000803e3d6000fd5b5050505061168a565b604051633a9e892f60e21b815260206004820152602b60248201527f596f752063616e2774206d696e74206f6e2074686973204c616e642c2077616960448201526a7420323420686f7572732160a81b606482015260840161087c565b50505050505050565b306001600160a01b037f00000000000000000000000000000000000000000000000000000000000000001614156116dc5760405162461bcd60e51b815260040161087c906158ea565b7f00000000000000000000000000000000000000000000000000000000000000006001600160a01b0316611725600080516020615d38833981519152546001600160a01b031690565b6001600160a01b03161461174b5760405162461bcd60e51b815260040161087c90615936565b61175481613689565b60408051600080825260208201909252611770918391906136b4565b50565b606060006101c360009054906101000a90046001600160a01b03166001600160a01b031663981101706040518163ffffffff1660e01b8152600401602060405180830381865afa1580156117cb573d6000803e3d6000fd5b505050506040513d601f19601f820116820180604052508101906117ef91906156ca565b90506000816001600160a01b031663a4f0a9b96040518163ffffffff1660e01b8152600401602060405180830381865afa158015611831573d6000803e3d6000fd5b505050506040513d601f19601f8201168201806040525081019061185591906156e7565b90506000816001600160401b0381111561187157611871615007565b60405190808252806020026020018201604052801561189a578160200160208202803683370190505b50905060006118a833611d4b565b905060005b8181101561191a5760006118c13383610e9c565b60008181526101c660205260409020600201548551919250906001908690839081106118ef576118ef6156b4565b602002602001018181516119039190615716565b905250611913915082905061572e565b90506118ad565b5090949350505050565b6001600160a01b03821660009081526101c86020526040812060609161194984613461565b600381111561195a5761195a6152b1565b600381111561196b5761196b6152b1565b81526020019081526020016000208054806020026020016040519081016040528092919081815260200182805480156119c357602002820191906000526020600020905b8154815260200190600101908083116119af575b5050505050905092915050565b6109b283838360405180602001604052806000815250612358565b6119f433610b05565b611a595760405162461bcd60e51b815260206004820152603060248201527f4552433732314275726e61626c653a2063616c6c6572206973206e6f74206f7760448201526f1b995c881b9bdc88185c1c1c9bdd995960821b606482015260840161087c565b611770816133f7565b60008181526101c66020526040812060018101546060929190611a879060ff16613321565b81600201549250925050915091565b306001600160a01b037f0000000000000000000000000000000000000000000000000000000000000000161415611adf5760405162461bcd60e51b815260040161087c906158ea565b7f00000000000000000000000000000000000000000000000000000000000000006001600160a01b0316611b28600080516020615d38833981519152546001600160a01b031690565b6001600160a01b031614611b4e5760405162461bcd60e51b815260040161087c90615936565b611b5782613689565b611b63828260016136b4565b5050565b6000611b7260995490565b8210611bd55760405162461bcd60e51b815260206004820152602c60248201527f455243373231456e756d657261626c653a20676c6f62616c20696e646578206f60448201526b7574206f6620626f756e647360a01b606482015260840161087c565b60998281548110611be857611be86156b4565b90600052602060002001549050919050565b6000306001600160a01b037f00000000000000000000000000000000000000000000000000000000000000001614611c9a5760405162461bcd60e51b815260206004820152603860248201527f555550535570677261646561626c653a206d757374206e6f742062652063616c60448201527f6c6564207468726f7567682064656c656761746563616c6c0000000000000000606482015260840161087c565b50600080516020615d3883398151915290565b6000818152606760205260408120546001600160a01b03168061077c5760405162461bcd60e51b815260206004820152602960248201527f4552433732313a206f776e657220717565727920666f72206e6f6e657869737460448201526832b73a103a37b5b2b760b91b606482015260840161087c565b6001600160a01b03821660009081526101c76020526040812060609161196b600185615982565b60006001600160a01b038216611db65760405162461bcd60e51b815260206004820152602a60248201527f4552433732313a2062616c616e636520717565727920666f7220746865207a65604482015269726f206164647265737360b01b606482015260840161087c565b506001600160a01b031660009081526068602052604090205490565b61012d546001600160a01b03163314611dfd5760405162461bcd60e51b815260040161087c90615999565b611e07600061381f565b565b60606000611e1960096001613872565b90506000838281518110611e2f57611e2f6156b4565b60209081029190910181015160008181526101c690925260409091206001015490915060ff16611e5e81613321565b95945050505050565b6060600082516001600160401b03811115611e8457611e84615007565b604051908082528060200260200182016040528015611ebd57816020015b611eaa614dbe565b815260200190600190039081611ea25790505b50905060005b835181101561219e576101c66000858381518110611ee357611ee36156b4565b60200260200101518152602001908152602001600020604051806101e0016040529081600082015481526020016001820160009054906101000a900460ff166003811115611f3357611f336152b1565b6003811115611f4457611f446152b1565b815260200160028201548152602001600382015481526020016004820154815260200160058201548152602001600682018054611f809061562e565b80601f0160208091040260200160405190810160405280929190818152602001828054611fac9061562e565b8015611ff95780601f10611fce57610100808354040283529160200191611ff9565b820191906000526020600020905b815481529060010190602001808311611fdc57829003601f168201915b5050509183525050600782015460ff808216602084015261010082048116604084015262010000820481166060840152630100000090910416608082015260088201805460a09092019161204c9061562e565b80601f01602080910402602001604051908101604052809291908181526020018280546120789061562e565b80156120c55780601f1061209a576101008083540402835291602001916120c5565b820191906000526020600020905b8154815290600101906020018083116120a857829003601f168201915b505050918352505060098201546001600160a01b0316602080830191909152600a83018054604080518285028101850182528281529401939283018282801561215d57602002820191906000526020600020906000905b82829054906101000a900460ff16600381111561213b5761213b6152b1565b81526020600192830181810494850194909303909202910180841161211c5790505b50505050508152602001600b82015481525050828281518110612182576121826156b4565b6020026020010181905250806121979061572e565b9050611ec3565b5092915050565b6060606680546107919061562e565b611b633383836138df565b6101c3546040805163c784262960e01b815290516000926001600160a01b03169163c78426299160048083019260209291908290030181865afa15801561220a573d6000803e3d6000fd5b505050506040513d601f19601f8201168201806040525081019061222e91906156ca565b90506000805b83518110156122fb576000848281518110612251576122516156b4565b60209081029190910181015160008181526101c690925260409091206009810154919250906001600160a01b031633146122ce5760405163bb20bcd360e01b815260206004820152601a60248201527f596f752063616e2774206b696c6c2074686973205a6f6d626965000000000000604482015260640161087c565b60038101546122dd9085615716565b93506122e8826133f7565b5050806122f49061572e565b9050612234565b506040516325a2808d60e11b8152336004820152602481018290526001600160a01b03831690634b45011a90604401600060405180830381600087803b15801561234457600080fd5b505af115801561168a573d6000803e3d6000fd5b61236233836131ec565b61237e5760405162461bcd60e51b815260040161087c90615663565b61238a848484846139ae565b50505050565b600061239c60016139e1565b905080156123b4576000805461ff0019166101001790555b6123f960405180604001604052806007815260200166169bdb53185b9960ca1b815250604051806040016040528060048152602001632d26a62d60e11b815250613a69565b612401613a9a565b612409613a9a565b612411613a9a565b612419613ac1565b612421613a9a565b6101c380546001600160a01b0319166001600160a01b0384161790558015611b63576000805461ff0019169055604051600181527f7f26b83ff96e1f2b6a682f133852f6798a09c465da95921460cefb38474024989060200160405180910390a15050565b606061077c82613af0565b6000606060008060008760ff166001600160401b038111156124b5576124b5615007565b6040519080825280602002602001820160405280156124de578160200160208202803683370190505b50905060006101c360009054906101000a90046001600160a01b03166001600160a01b03166342104fac6040518163ffffffff1660e01b8152600401602060405180830381865afa158015612537573d6000803e3d6000fd5b505050506040513d601f19601f8201168201806040525081019061255b91906156ca565b604051636db3194f60e11b81529091506001600160a01b0382169063db66329e90612592908d908d908d908d9033906004016159ce565b600060405180830381865afa1580156125af573d6000803e3d6000fd5b505050506040513d6000823e601f3d908101601f191682016040526125d79190810190615a6b565b909550935091506000846001600160401b038111156125f8576125f8615007565b60405190808252806020026020018201604052801561263157816020015b61261e614dbe565b8152602001906001900390816126165790505b50905060005b85811015612911576101c66000858381518110612656576126566156b4565b60200260200101518152602001908152602001600020604051806101e0016040529081600082015481526020016001820160009054906101000a900460ff1660038111156126a6576126a66152b1565b60038111156126b7576126b76152b1565b8152602001600282015481526020016003820154815260200160048201548152602001600582015481526020016006820180546126f39061562e565b80601f016020809104026020016040519081016040528092919081815260200182805461271f9061562e565b801561276c5780601f106127415761010080835404028352916020019161276c565b820191906000526020600020905b81548152906001019060200180831161274f57829003601f168201915b5050509183525050600782015460ff808216602084015261010082048116604084015262010000820481166060840152630100000090910416608082015260088201805460a0909201916127bf9061562e565b80601f01602080910402602001604051908101604052809291908181526020018280546127eb9061562e565b80156128385780601f1061280d57610100808354040283529160200191612838565b820191906000526020600020905b81548152906001019060200180831161281b57829003601f168201915b505050918352505060098201546001600160a01b0316602080830191909152600a8301805460408051828502810185018252828152940193928301828280156128d057602002820191906000526020600020906000905b82829054906101000a900460ff1660038111156128ae576128ae6152b1565b81526020600192830181810494850194909303909202910180841161288f5790505b50505050508152602001600b820154815250508282815181106128f5576128f56156b4565b60200260200101819052508061290a9061572e565b9050612637565b50929a92995091975050505050505050565b6000606060008560ff166001600160401b0381111561294457612944615007565b60405190808252806020026020018201604052801561297d57816020015b61296a614dbe565b8152602001906001900390816129625790505b50905060006101c360009054906101000a90046001600160a01b03166001600160a01b031663f34b899d6040518163ffffffff1660e01b8152600401602060405180830381865afa1580156129d6573d6000803e3d6000fd5b505050506040513d601f19601f820116820180604052508101906129fa91906156ca565b9050600080826001600160a01b031663278d453c8b8b8b8b6040518563ffffffff1660e01b8152600401612a319493929190615aba565b600060405180830381865afa158015612a4e573d6000803e3d6000fd5b505050506040513d6000823e601f3d908101601f19168201604052612a769190810190615b17565b9150915060005b8960ff16811015612d625782811015612d52576101c66000838381518110612aa757612aa76156b4565b60200260200101518152602001908152602001600020604051806101e0016040529081600082015481526020016001820160009054906101000a900460ff166003811115612af757612af76152b1565b6003811115612b0857612b086152b1565b815260200160028201548152602001600382015481526020016004820154815260200160058201548152602001600682018054612b449061562e565b80601f0160208091040260200160405190810160405280929190818152602001828054612b709061562e565b8015612bbd5780601f10612b9257610100808354040283529160200191612bbd565b820191906000526020600020905b815481529060010190602001808311612ba057829003601f168201915b5050509183525050600782015460ff808216602084015261010082048116604084015262010000820481166060840152630100000090910416608082015260088201805460a090920191612c109061562e565b80601f0160208091040260200160405190810160405280929190818152602001828054612c3c9061562e565b8015612c895780601f10612c5e57610100808354040283529160200191612c89565b820191906000526020600020905b815481529060010190602001808311612c6c57829003601f168201915b505050918352505060098201546001600160a01b0316602080830191909152600a830180546040805182850281018501825282815294019392830182828015612d2157602002820191906000526020600020906000905b82829054906101000a900460ff166003811115612cff57612cff6152b1565b815260206001928301818104948501949093039092029101808411612ce05790505b50505050508152602001600b82015481525050858281518110612d4657612d466156b4565b60200260200101819052505b612d5b8161572e565b9050612a7d565b509099929850919650505050505050565b61012d546001600160a01b03163314612d9e5760405162461bcd60e51b815260040161087c90615999565b6001600160a01b038116612e035760405162461bcd60e51b815260206004820152602660248201527f4f776e61626c653a206e6577206f776e657220697320746865207a65726f206160448201526564647265737360d01b606482015260840161087c565b6117708161381f565b600080612e196101c45490565b6101c554915091509091565b612e2d612f7c565b60008381526101c660205260409020600901546001600160a01b03828116911614612ea65760405162461bcd60e51b815260206004820152602360248201527f596f752063616e2774206368616e676520707269636520666f7220746869732060448201526213919560ea1b606482015260840161087c565b5060009182526101c6602052604090912060040155565b6001600160a01b03163b151590565b60006001600160e01b0319821663780e9d6360e01b148061077c575061077c82613c7c565b6000908152606760205260409020546001600160a01b0316151590565b600081815260696020526040902080546001600160a01b0319166001600160a01b0384169081179091558190612f4382611cad565b6001600160a01b03167f8c5be1e5ebec7d5bd14f71427d1e84f3dd0314c0f7b2291e5b200ac8c7c3b92560405160405180910390a45050565b6101c3546040805163f34b899d60e01b815290516000926001600160a01b03169163f34b899d9160048083019260209291908290030181865afa158015612fc7573d6000803e3d6000fd5b505050506040513d601f19601f82011682018060405250810190612feb91906156ca565b90506001600160a01b03811633146117705760405162461bcd60e51b815260206004820152601a60248201527f596f752063616e27742063616c6c2074686973206d6574686f64000000000000604482015260640161087c565b826001600160a01b031661305882611cad565b6001600160a01b0316146130bc5760405162461bcd60e51b815260206004820152602560248201527f4552433732313a207472616e736665722066726f6d20696e636f72726563742060448201526437bbb732b960d91b606482015260840161087c565b6001600160a01b03821661311e5760405162461bcd60e51b8152602060048201526024808201527f4552433732313a207472616e7366657220746f20746865207a65726f206164646044820152637265737360e01b606482015260840161087c565b613129838383613ccc565b613134600082612f0e565b6001600160a01b038316600090815260686020526040812080546001929061315d908490615982565b90915550506001600160a01b038216600090815260686020526040812080546001929061318b908490615716565b909155505060008181526067602052604080822080546001600160a01b0319166001600160a01b0386811691821790925591518493918716917fddf252ad1be2c89b69c2b068fc378daa952ba7f163c4a11628f55a4df523b3ef91a4505050565b60006131f782612ef1565b6132585760405162461bcd60e51b815260206004820152602c60248201527f4552433732313a206f70657261746f7220717565727920666f72206e6f6e657860448201526b34b9ba32b73a103a37b5b2b760a11b606482015260840161087c565b600061326383611cad565b9050806001600160a01b0316846001600160a01b031614806132aa57506001600160a01b038082166000908152606a602090815260408083209388168352929052205460ff165b806132ce5750836001600160a01b03166132c384610814565b6001600160a01b0316145b949350505050565b6101c3546040805163f095821f60e01b815290516000926001600160a01b03169163f095821f9160048083019260209291908290030181865afa158015612fc7573d6000803e3d6000fd5b60606000826003811115613337576133376152b1565b141561335f57505060408051808201909152600681526521b7b6b6b7b760d11b602082015290565b6001826003811115613373576133736152b1565b141561339d5750506040805180820190915260088152672ab721b7b6b6b7b760c11b602082015290565b60028260038111156133b1576133b16152b1565b14156133d75750506040805180820190915260048152635261726560e01b602082015290565b50506040805180820190915260048152634570696360e01b602082015290565b60008181526101c6602052604090206002810154600182015461342191339185919060ff16613d51565b61342a82613fe6565b60016101c5600082825461343e9190615716565b90915550611b639050826140d5565b60006134598383614115565b159392505050565b600080826040516020016134759190615b53565b6040516020818303038152906040528051906020012090506040516020016134a9906521b7b6b6b7b760d11b815260060190565b604051602081830303815290604052805190602001208114156134cf5750600092915050565b604051672ab721b7b6b6b7b760c11b60208201526028016040516020818303038152906040528051906020012081141561350c5750600192915050565b604051635261726560e01b6020820152602401604051602081830303815290604052805190602001208114156135455750600292915050565b50600392915050565b50919050565b611b63828260405180602001604052806000815250614238565b61357782612ef1565b6135da5760405162461bcd60e51b815260206004820152602e60248201527f45524337323155524953746f726167653a2055524920736574206f66206e6f6e60448201526d32bc34b9ba32b73a103a37b5b2b760911b606482015260840161087c565b600082815260c96020908152604090912082516109b292840190614c8b565b6001600160a01b03841660008181526101c76020908152604080832086845282528083208054600181018255908452828420018790559282526101c890529081209082600381111561364d5761364d6152b1565b600381111561365e5761365e6152b1565b8152602080820192909252604001600090812080546001810182559082529190200192909255505050565b61012d546001600160a01b031633146117705760405162461bcd60e51b815260040161087c90615999565b7f4910fdfa16fed3260ed0e7147f7cc6da11a60208b5b9406d12a635614ffd91435460ff16156136e7576109b28361426b565b826001600160a01b03166352d1902d6040518163ffffffff1660e01b8152600401602060405180830381865afa925050508015613741575060408051601f3d908101601f1916820190925261373e918101906156e7565b60015b6137a45760405162461bcd60e51b815260206004820152602e60248201527f45524331393637557067726164653a206e657720696d706c656d656e7461746960448201526d6f6e206973206e6f74205555505360901b606482015260840161087c565b600080516020615d3883398151915281146138135760405162461bcd60e51b815260206004820152602960248201527f45524331393637557067726164653a20756e737570706f727465642070726f786044820152681a58589b195555525160ba1b606482015260840161087c565b506109b2838383614307565b61012d80546001600160a01b038381166001600160a01b0319831681179093556040519116919082907f8be0079c531659141344cd1fd0a4f28419497f9722a3daafe3b4186f6b6457e090600090a35050565b6040516001600160f81b031960f883901b1660208201526bffffffffffffffffffffffff193360601b1660218201524460358201524260558201526001607582015260009083906095016040516020818303038152906040528051906020012060001c610af99190615b85565b816001600160a01b0316836001600160a01b031614156139415760405162461bcd60e51b815260206004820152601960248201527f4552433732313a20617070726f766520746f2063616c6c657200000000000000604482015260640161087c565b6001600160a01b038381166000818152606a6020908152604080832094871680845294825291829020805460ff191686151590811790915591519182527f17307eab39ab6107e8899845ad3d59bd9653f200f220920489ca2b5937696c31910160405180910390a3505050565b6139b9848484613045565b6139c58484848461432c565b61238a5760405162461bcd60e51b815260040161087c90615b99565b60008054610100900460ff1615613a28578160ff166001148015613a045750303b155b613a205760405162461bcd60e51b815260040161087c90615beb565b506000919050565b60005460ff808416911610613a4f5760405162461bcd60e51b815260040161087c90615beb565b506000805460ff191660ff92909216919091179055600190565b600054610100900460ff16613a905760405162461bcd60e51b815260040161087c90615c39565b611b63828261442a565b600054610100900460ff16611e075760405162461bcd60e51b815260040161087c90615c39565b600054610100900460ff16613ae85760405162461bcd60e51b815260040161087c90615c39565b611e07614478565b6060613afb82612ef1565b613b615760405162461bcd60e51b815260206004820152603160248201527f45524337323155524953746f726167653a2055524920717565727920666f72206044820152703737b732bc34b9ba32b73a103a37b5b2b760791b606482015260840161087c565b600082815260c9602052604081208054613b7a9061562e565b80601f0160208091040260200160405190810160405280929190818152602001828054613ba69061562e565b8015613bf35780601f10613bc857610100808354040283529160200191613bf3565b820191906000526020600020905b815481529060010190602001808311613bd657829003601f168201915b505050505090506000613c2e60408051808201909152601581527468747470733a2f2f697066732e696f2f697066732f60581b602082015290565b9050805160001415613c41575092915050565b815115613c73578082604051602001613c5b929190615c84565b60405160208183030381529060405292505050919050565b6132ce846144a8565b60006001600160e01b031982166380ac58cd60e01b1480613cad57506001600160e01b03198216635b5e139f60e01b145b8061077c57506301ffc9a760e01b6001600160e01b031983161461077c565b613cd783838361459c565b6001600160a01b038316156109b25760008181526101c6602052604090206009810180546001600160a01b0319166001600160a01b038516179055613d1b82613fe6565b60028101546001820154613d3691869185919060ff16613d51565b6002810154600182015461238a91859185919060ff166135f9565b6001600160a01b03841660009081526101c760209081526040808320858452825280832080548251818502810185019093528083528493613dc993929190830182828015613dbe57602002820191906000526020600020905b815481526020019060010190808311613daa575b505050505086614654565b915091508015613e6a576001600160a01b03861660009081526101c760209081526040808320878452909152902080548190613e0790600190615982565b81548110613e1757613e176156b4565b9060005260206000200154818481548110613e3457613e346156b4565b906000526020600020018190555080805480613e5257613e52615cb3565b60019003818190600052602060002001600090559055505b6001600160a01b03861660009081526101c8602052604081208190613f109082876003811115613e9c57613e9c6152b1565b6003811115613ead57613ead6152b1565b8152602001908152602001600020805480602002602001604051908101604052809291908181526020018280548015613f0557602002820191906000526020600020905b815481526020019060010190808311613ef1575b505050505088614654565b915091508015613fdc576001600160a01b03881660009081526101c86020526040812081876003811115613f4657613f466152b1565b6003811115613f5757613f576152b1565b815260200190815260200160002090508060018280549050613f799190615982565b81548110613f8957613f896156b4565b9060005260206000200154818481548110613fa657613fa66156b4565b906000526020600020018190555080805480613fc457613fc4615cb3565b60019003818190600052602060002001600090559055505b5050505050505050565b6101c3546040805163f34b899d60e01b815290516000926001600160a01b03169163f34b899d9160048083019260209291908290030181865afa158015614031573d6000803e3d6000fd5b505050506040513d601f19601f8201168201806040525081019061405591906156ca565b604080516314a2c6db60e11b815260048101859052602481019190915260066044820152657a6f6d62696560d01b60648201529091506001600160a01b038216906329458db690608401600060405180830381600087803b1580156140b957600080fd5b505af11580156140cd573d6000803e3d6000fd5b505050505050565b6140de816146b4565b600081815260c96020526040902080546140f79061562e565b15905061177057600081815260c96020526040812061177091614e4a565b81518151600091849184919081111561412c575080515b60005b818110156141fe57828181518110614149576141496156b4565b602001015160f81c60f81b6001600160f81b031916848281518110614170576141706156b4565b01602001516001600160f81b03191610156141935760001994505050505061077c565b8281815181106141a5576141a56156b4565b602001015160f81c60f81b6001600160f81b0319168482815181106141cc576141cc6156b4565b01602001516001600160f81b03191611156141ee57600194505050505061077c565b6141f78161572e565b905061412f565b5081518351101561421657600019935050505061077c565b81518351111561422c576001935050505061077c565b6000935050505061077c565b614242838361475b565b61424f600084848461432c565b6109b25760405162461bcd60e51b815260040161087c90615b99565b6001600160a01b0381163b6142d85760405162461bcd60e51b815260206004820152602d60248201527f455243313936373a206e657720696d706c656d656e746174696f6e206973206e60448201526c1bdd08184818dbdb9d1c9858dd609a1b606482015260840161087c565b600080516020615d3883398151915280546001600160a01b0319166001600160a01b0392909216919091179055565b6143108361489a565b60008251118061431d5750805b156109b25761238a83836148da565b60006001600160a01b0384163b1561441f57604051630a85bd0160e11b81526001600160a01b0385169063150b7a0290614370903390899088908890600401615cc9565b6020604051808303816000875af19250505080156143ab575060408051601f3d908101601f191682019092526143a891810190615d06565b60015b614405573d8080156143d9576040519150601f19603f3d011682016040523d82523d6000602084013e6143de565b606091505b5080516143fd5760405162461bcd60e51b815260040161087c90615b99565b805181602001fd5b6001600160e01b031916630a85bd0160e11b1490506132ce565b506001949350505050565b600054610100900460ff166144515760405162461bcd60e51b815260040161087c90615c39565b8151614464906065906020850190614c8b565b5080516109b2906066906020840190614c8b565b600054610100900460ff1661449f5760405162461bcd60e51b815260040161087c90615c39565b611e073361381f565b60606144b382612ef1565b6145175760405162461bcd60e51b815260206004820152602f60248201527f4552433732314d657461646174613a2055524920717565727920666f72206e6f60448201526e3732bc34b9ba32b73a103a37b5b2b760891b606482015260840161087c565b600061454b60408051808201909152601581527468747470733a2f2f697066732e696f2f697066732f60581b602082015290565b9050600081511161456b5760405180602001604052806000815250610af9565b80614575846149c5565b604051602001614586929190615c84565b6040516020818303038152906040529392505050565b6001600160a01b0383166145f7576145f281609980546000838152609a60205260408120829055600182018355919091527f72a152ddfb8e864297c917af52ea6c1c68aead0fee1a62673fcc7e0c94979d000155565b61461a565b816001600160a01b0316836001600160a01b03161461461a5761461a8382614ac2565b6001600160a01b038216614631576109b281614b5f565b826001600160a01b0316826001600160a01b0316146109b2576109b28282614c0e565b81516000908190815b818110156146a35784868281518110614678576146786156b4565b60200260200101511415614693579250600191506146ad9050565b61469c8161572e565b905061465d565b5060008092509250505b9250929050565b60006146bf82611cad565b90506146cd81600084613ccc565b6146d8600083612f0e565b6001600160a01b0381166000908152606860205260408120805460019290614701908490615982565b909155505060008281526067602052604080822080546001600160a01b0319169055518391906001600160a01b038416907fddf252ad1be2c89b69c2b068fc378daa952ba7f163c4a11628f55a4df523b3ef908390a45050565b6001600160a01b0382166147b15760405162461bcd60e51b815260206004820181905260248201527f4552433732313a206d696e7420746f20746865207a65726f2061646472657373604482015260640161087c565b6147ba81612ef1565b156148075760405162461bcd60e51b815260206004820152601c60248201527f4552433732313a20746f6b656e20616c7265616479206d696e74656400000000604482015260640161087c565b61481360008383613ccc565b6001600160a01b038216600090815260686020526040812080546001929061483c908490615716565b909155505060008181526067602052604080822080546001600160a01b0319166001600160a01b03861690811790915590518392907fddf252ad1be2c89b69c2b068fc378daa952ba7f163c4a11628f55a4df523b3ef908290a45050565b6148a38161426b565b6040516001600160a01b038216907fbc7cd75a20ee27fd9adebab32041f755214dbc6bffa90cc0225b39da2e5c2d3b90600090a250565b60606001600160a01b0383163b6149425760405162461bcd60e51b815260206004820152602660248201527f416464726573733a2064656c65676174652063616c6c20746f206e6f6e2d636f6044820152651b9d1c9858dd60d21b606482015260840161087c565b600080846001600160a01b03168460405161495d9190615b53565b600060405180830381855af49150503d8060008114614998576040519150601f19603f3d011682016040523d82523d6000602084013e61499d565b606091505b5091509150611e5e8282604051806060016040528060278152602001615d5860279139614c52565b6060816149e95750506040805180820190915260018152600360fc1b602082015290565b8160005b8115614a1357806149fd8161572e565b9150614a0c9050600a83615d23565b91506149ed565b6000816001600160401b03811115614a2d57614a2d615007565b6040519080825280601f01601f191660200182016040528015614a57576020820181803683370190505b5090505b84156132ce57614a6c600183615982565b9150614a79600a86615b85565b614a84906030615716565b60f81b818381518110614a9957614a996156b4565b60200101906001600160f81b031916908160001a905350614abb600a86615d23565b9450614a5b565b60006001614acf84611d4b565b614ad99190615982565b600083815260986020526040902054909150808214614b2c576001600160a01b03841660009081526097602090815260408083208584528252808320548484528184208190558352609890915290208190555b5060009182526098602090815260408084208490556001600160a01b039094168352609781528383209183525290812055565b609954600090614b7190600190615982565b6000838152609a602052604081205460998054939450909284908110614b9957614b996156b4565b906000526020600020015490508060998381548110614bba57614bba6156b4565b6000918252602080832090910192909255828152609a90915260408082208490558582528120556099805480614bf257614bf2615cb3565b6001900381819060005260206000200160009055905550505050565b6000614c1983611d4b565b6001600160a01b039093166000908152609760209081526040808320868452825280832085905593825260989052919091209190915550565b60608315614c61575081610af9565b825115614c715782518084602001fd5b8160405162461bcd60e51b815260040161087c9190614f20565b828054614c979061562e565b90600052602060002090601f016020900481019282614cb95760008555614cff565b82601f10614cd257805160ff1916838001178555614cff565b82800160010185558215614cff579182015b82811115614cff578251825591602001919060010190614ce4565b50614d0b929150614e80565b5090565b82805482825590600052602060002090601f01602090048101928215614cff5791602002820160005b83821115614d8457835183826101000a81548160ff02191690836003811115614d6357614d636152b1565b02179055509260200192600101602081600001049283019260010302614d38565b8015614db15782816101000a81549060ff0219169055600101602081600001049283019260010302614d84565b5050614d0b929150614e80565b604080516101e081019091526000808252602082019081526020016000815260200160008152602001600081526020016000815260200160608152602001600060ff168152602001600060ff168152602001600060ff168152602001600060ff1681526020016060815260200160006001600160a01b0316815260200160608152602001600081525090565b508054614e569061562e565b6000825580601f10614e66575050565b601f01602090049060005260206000209081019061177091905b5b80821115614d0b5760008155600101614e81565b6001600160e01b03198116811461177057600080fd5b600060208284031215614ebd57600080fd5b8135610af981614e95565b60005b83811015614ee3578181015183820152602001614ecb565b8381111561238a5750506000910152565b60008151808452614f0c816020860160208601614ec8565b601f01601f19169290920160200192915050565b602081526000610af96020830184614ef4565b600060208284031215614f4557600080fd5b5035919050565b6001600160a01b038116811461177057600080fd5b60008060408385031215614f7457600080fd5b8235614f7f81614f4c565b946020939093013593505050565b600080600060608486031215614fa257600080fd5b83359250602084013591506040840135614fbb81614f4c565b809150509250925092565b600080600060608486031215614fdb57600080fd5b8335614fe681614f4c565b92506020840135614ff681614f4c565b929592945050506040919091013590565b634e487b7160e01b600052604160045260246000fd5b604051601f8201601f191681016001600160401b038111828210171561504557615045615007565b604052919050565b60006001600160401b0382111561506657615066615007565b5060051b60200190565b600082601f83011261508157600080fd5b813560206150966150918361504d565b61501d565b82815260059290921b840181019181810190868411156150b557600080fd5b8286015b848110156150d057803583529183019183016150b9565b509695505050505050565b6000806000606084860312156150f057600080fd5b83356150fb81614f4c565b925060208401356001600160401b0381111561511657600080fd5b61512286828701615070565b925050604084013590509250925092565b60006020828403121561514557600080fd5b8135610af981614f4c565b6020808252825182820181905260009190848201906040850190845b818110156151885783518352928401929184019160010161516c565b50909695505050505050565b60006001600160401b038211156151ad576151ad615007565b50601f01601f191660200190565b600082601f8301126151cc57600080fd5b81356151da61509182615194565b8181528460208386010111156151ef57600080fd5b816020850160208301376000918101602001919091529392505050565b6000806040838503121561521f57600080fd5b823561522a81614f4c565b915060208301356001600160401b0381111561524557600080fd5b615251858286016151bb565b9150509250929050565b60408152600061526e6040830185614ef4565b90508260208301529392505050565b60006020828403121561528f57600080fd5b81356001600160401b038111156152a557600080fd5b6132ce84828501615070565b634e487b7160e01b600052602160045260246000fd5b6004811061177057634e487b7160e01b600052602160045260246000fd5b6152ee816152c7565b9052565b600081518084526020808501945080840160005b8381101561532b578151615319816152c7565b87529582019590820190600101615306565b509495945050505050565b6000815180845260208085019450848260051b860182860160005b8581101561547457838303895281516101e08151855286820151615377888701826152e5565b5060408281015190860152606080830151908601526080808301519086015260a0808301519086015260c0808301518187018390526153b883880182614ef4565b9250505060e0808301516153d08288018260ff169052565b50506101008281015160ff9081169187019190915261012080840151821690870152610140808401519091169086015261016080830151868303828801526154188382614ef4565b9250505061018080830151615437828801826001600160a01b03169052565b50506101a0808301518683038288015261545183826152f2565b6101c0948501519790940196909652505098850198925090840190600101615351565b5090979650505050505050565b602081526000610af96020830184615336565b600080604083850312156154a757600080fd5b82356154b281614f4c565b9150602083013580151581146154c757600080fd5b809150509250929050565b600080600080608085870312156154e857600080fd5b84356154f381614f4c565b9350602085013561550381614f4c565b92506040850135915060608501356001600160401b0381111561552557600080fd5b615531878288016151bb565b91505092959194509250565b60ff8116811461177057600080fd5b6000806000806080858703121561556257600080fd5b8435935060208501356155038161553d565b8281526040602082015260006132ce6040830184615336565b600080600080608085870312156155a357600080fd5b8435935060208501356155b58161553d565b925060408501356001600160401b03808211156155d157600080fd5b6155dd888389016151bb565b935060608701359150808211156155f357600080fd5b50615531878288016151bb565b6000806040838503121561561357600080fd5b823561561e81614f4c565b915060208301356154c781614f4c565b600181811c9082168061564257607f821691505b6020821081141561354e57634e487b7160e01b600052602260045260246000fd5b60208082526031908201527f4552433732313a207472616e736665722063616c6c6572206973206e6f74206f6040820152701ddb995c881b9bdc88185c1c1c9bdd9959607a1b606082015260800190565b634e487b7160e01b600052603260045260246000fd5b6000602082840312156156dc57600080fd5b8151610af981614f4c565b6000602082840312156156f957600080fd5b5051919050565b634e487b7160e01b600052601160045260246000fd5b6000821982111561572957615729615700565b500190565b600060001982141561574257615742615700565b5060010190565b600082601f83011261575a57600080fd5b815161576861509182615194565b81815284602083860101111561577d57600080fd5b6132ce826020830160208701614ec8565b6000806000606084860312156157a357600080fd5b83516157ae81614f4c565b60208501519093506001600160401b038111156157ca57600080fd5b6157d686828701615749565b925050604084015190509250925092565b6000602082840312156157f957600080fd5b8151610af98161553d565b600080600080600080600080610100898b03121561582157600080fd5b88516001600160401b038082111561583857600080fd5b6158448c838d01615749565b995060208b015191506158568261553d565b60408b01519198506158678261553d565b60608b01519197506158788261553d565b60808b01519196506158898261553d565b60a08b015160c08c015160e08d01519397509095509350808211156158ad57600080fd5b506158ba8b828c01615749565b9150509295985092959890939650565b600060ff821660ff8114156158e1576158e1615700565b60010192915050565b6020808252602c908201527f46756e6374696f6e206d7573742062652063616c6c6564207468726f7567682060408201526b19195b1959d85d1958d85b1b60a21b606082015260800190565b6020808252602c908201527f46756e6374696f6e206d7573742062652063616c6c6564207468726f7567682060408201526b6163746976652070726f787960a01b606082015260800190565b60008282101561599457615994615700565b500390565b6020808252818101527f4f776e61626c653a2063616c6c6572206973206e6f7420746865206f776e6572604082015260600190565b85815260ff8516602082015283604082015260a0606082015260006159f660a0830185614ef4565b905060018060a01b03831660808301529695505050505050565b600082601f830112615a2157600080fd5b81516020615a316150918361504d565b82815260059290921b84018101918181019086841115615a5057600080fd5b8286015b848110156150d05780518352918301918301615a54565b600080600060608486031215615a8057600080fd5b83516001600160401b03811115615a9657600080fd5b615aa286828701615a10565b93505060208401519150604084015190509250925092565b84815260ff8416602082015260a06040820152600760a0820152667a6f6d6269657360c81b60c082015260e060608201526000615afa60e0830185614ef4565b8281036080840152615b0c8185614ef4565b979650505050505050565b60008060408385031215615b2a57600080fd5b8251915060208301516001600160401b03811115615b4757600080fd5b61525185828601615a10565b60008251615b65818460208701614ec8565b9190910192915050565b634e487b7160e01b600052601260045260246000fd5b600082615b9457615b94615b6f565b500690565b60208082526032908201527f4552433732313a207472616e7366657220746f206e6f6e20455243373231526560408201527131b2b4bb32b91034b6b83632b6b2b73a32b960711b606082015260800190565b6020808252602e908201527f496e697469616c697a61626c653a20636f6e747261637420697320616c72656160408201526d191e481a5b9a5d1a585b1a5e995960921b606082015260800190565b6020808252602b908201527f496e697469616c697a61626c653a20636f6e7472616374206973206e6f74206960408201526a6e697469616c697a696e6760a81b606082015260800190565b60008351615c96818460208801614ec8565b835190830190615caa818360208801614ec8565b01949350505050565b634e487b7160e01b600052603160045260246000fd5b6001600160a01b0385811682528416602082015260408101839052608060608201819052600090615cfc90830184614ef4565b9695505050505050565b600060208284031215615d1857600080fd5b8151610af981614e95565b600082615d3257615d32615b6f565b50049056fe360894a13ba1a3210667c828492db98dca3e2076cc3735a920a3ca505d382bbc416464726573733a206c6f772d6c6576656c2064656c65676174652063616c6c206661696c6564a264697066735822122062c9f01f6529386874cc692d2ffdd93a25d9b0d21774aafcad161cd050b9bb0064736f6c634300080c0033496e697469616c697a61626c653a20636f6e747261637420697320616c726561",
  "linkReferences": {},
  "deployedLinkReferences": {}
}