{
  "_format": "hh-sol-artifact-1",
  "contractName": "CollectionContract",
  "sourceName": "src/backend/contracts/Collection.sol",
  "abi": [
    {
      "inputs": [],
      "stateMutability": "nonpayable",
      "type": "constructor"
    },
    {
      "anonymous": false,
      "inputs": [
        {
          "indexed": false,
          "internalType": "address",
          "name": "previousAdmin",
          "type": "address"
        },
        {
          "indexed": false,
          "internalType": "address",
          "name": "newAdmin",
          "type": "address"
        }
      ],
      "name": "AdminChanged",
      "type": "event"
    },
    {
      "anonymous": false,
      "inputs": [
        {
          "indexed": true,
          "internalType": "address",
          "name": "beacon",
          "type": "address"
        }
      ],
      "name": "BeaconUpgraded",
      "type": "event"
    },
    {
      "anonymous": false,
      "inputs": [
        {
          "indexed": false,
          "internalType": "uint8",
          "name": "version",
          "type": "uint8"
        }
      ],
      "name": "Initialized",
      "type": "event"
    },
    {
      "anonymous": false,
      "inputs": [
        {
          "indexed": true,
          "internalType": "address",
          "name": "previousOwner",
          "type": "address"
        },
        {
          "indexed": true,
          "internalType": "address",
          "name": "newOwner",
          "type": "address"
        }
      ],
      "name": "OwnershipTransferred",
      "type": "event"
    },
    {
      "anonymous": false,
      "inputs": [
        {
          "indexed": true,
          "internalType": "address",
          "name": "implementation",
          "type": "address"
        }
      ],
      "name": "Upgraded",
      "type": "event"
    },
    {
      "inputs": [
        {
          "internalType": "string",
          "name": "_title",
          "type": "string"
        },
        {
          "internalType": "string",
          "name": "_image",
          "type": "string"
        }
      ],
      "name": "addCollection",
      "outputs": [],
      "stateMutability": "nonpayable",
      "type": "function"
    },
    {
      "inputs": [],
      "name": "collectionCount",
      "outputs": [
        {
          "internalType": "uint256",
          "name": "",
          "type": "uint256"
        }
      ],
      "stateMutability": "view",
      "type": "function"
    },
    {
      "inputs": [
        {
          "internalType": "uint256",
          "name": "",
          "type": "uint256"
        }
      ],
      "name": "collections",
      "outputs": [
        {
          "internalType": "string",
          "name": "title",
          "type": "string"
        },
        {
          "internalType": "string",
          "name": "image",
          "type": "string"
        }
      ],
      "stateMutability": "view",
      "type": "function"
    },
    {
      "inputs": [],
      "name": "getAllCollections",
      "outputs": [
        {
          "internalType": "string",
          "name": "",
          "type": "string"
        },
        {
          "components": [
            {
              "internalType": "string",
              "name": "title",
              "type": "string"
            },
            {
              "internalType": "string",
              "name": "image",
              "type": "string"
            }
          ],
          "internalType": "struct CollectionContract.Collection[]",
          "name": "",
          "type": "tuple[]"
        }
      ],
      "stateMutability": "view",
      "type": "function"
    },
    {
      "inputs": [],
      "name": "getAllCollectionsCount",
      "outputs": [
        {
          "internalType": "uint256",
          "name": "",
          "type": "uint256"
        }
      ],
      "stateMutability": "view",
      "type": "function"
    },
    {
      "inputs": [
        {
          "internalType": "uint8",
          "name": "_shift",
          "type": "uint8"
        }
      ],
      "name": "getCollectionAndZombie",
      "outputs": [
        {
          "internalType": "uint256",
          "name": "",
          "type": "uint256"
        },
        {
          "internalType": "string",
          "name": "",
          "type": "string"
        }
      ],
      "stateMutability": "view",
      "type": "function"
    },
    {
      "inputs": [
        {
          "internalType": "uint256",
          "name": "collectionId",
          "type": "uint256"
        }
      ],
      "name": "getCollectionImage",
      "outputs": [
        {
          "internalType": "string",
          "name": "",
          "type": "string"
        }
      ],
      "stateMutability": "view",
      "type": "function"
    },
    {
      "inputs": [
        {
          "internalType": "address",
          "name": "_mainContract",
          "type": "address"
        },
        {
          "internalType": "string",
          "name": "_collectionHash",
          "type": "string"
        }
      ],
      "name": "initialize",
      "outputs": [],
      "stateMutability": "nonpayable",
      "type": "function"
    },
    {
      "inputs": [],
      "name": "owner",
      "outputs": [
        {
          "internalType": "address",
          "name": "",
          "type": "address"
        }
      ],
      "stateMutability": "view",
      "type": "function"
    },
    {
      "inputs": [],
      "name": "proxiableUUID",
      "outputs": [
        {
          "internalType": "bytes32",
          "name": "",
          "type": "bytes32"
        }
      ],
      "stateMutability": "view",
      "type": "function"
    },
    {
      "inputs": [],
      "name": "renounceOwnership",
      "outputs": [],
      "stateMutability": "nonpayable",
      "type": "function"
    },
    {
      "inputs": [
        {
          "internalType": "address",
          "name": "newOwner",
          "type": "address"
        }
      ],
      "name": "transferOwnership",
      "outputs": [],
      "stateMutability": "nonpayable",
      "type": "function"
    },
    {
      "inputs": [
        {
          "internalType": "address",
          "name": "newImplementation",
          "type": "address"
        }
      ],
      "name": "upgradeTo",
      "outputs": [],
      "stateMutability": "nonpayable",
      "type": "function"
    },
    {
      "inputs": [
        {
          "internalType": "address",
          "name": "newImplementation",
          "type": "address"
        },
        {
          "internalType": "bytes",
          "name": "data",
          "type": "bytes"
        }
      ],
      "name": "upgradeToAndCall",
      "outputs": [],
      "stateMutability": "payable",
      "type": "function"
    }
  ],
  "bytecode": "0x60a06040523060805234801561001457600080fd5b5061001d610022565b6100e2565b600054610100900460ff161561008e5760405162461bcd60e51b815260206004820152602760248201527f496e697469616c697a61626c653a20636f6e747261637420697320696e697469604482015266616c697a696e6760c81b606482015260840160405180910390fd5b60005460ff90811610156100e0576000805460ff191660ff9081179091556040519081527f7f26b83ff96e1f2b6a682f133852f6798a09c465da95921460cefb38474024989060200160405180910390a15b565b6080516119ba610119600039600081816102be01528181610307015281816104210152818161046101526104f401526119ba6000f3fe6080604052600436106100dd5760003560e01c80638da5cb5b1161007f578063d57f966b11610059578063d57f966b1461022f578063f2fde38b14610245578063f399e22e14610265578063fdbda0ec1461028557600080fd5b80638da5cb5b146101c4578063a4f0a9b9146101ec578063c2ae4b011461020157600080fd5b806352d1902d116100bb57806352d1902d14610137578063636f34961461015f5780636804a9581461018c578063715018a6146101af57600080fd5b80633659cfe6146100e2578063407917eb146101045780634f1ef28614610124575b600080fd5b3480156100ee57600080fd5b506101026100fd3660046112bb565b6102b3565b005b34801561011057600080fd5b5061010261011f366004611382565b61039c565b6101026101323660046113e6565b610416565b34801561014357600080fd5b5061014c6104e7565b6040519081526020015b60405180910390f35b34801561016b57600080fd5b5061017f61017a36600461143e565b61059a565b60405161015691906114af565b34801561019857600080fd5b506101a16105d4565b6040516101569291906114c2565b3480156101bb57600080fd5b5061010261084b565b3480156101d057600080fd5b506033546040516001600160a01b039091168152602001610156565b3480156101f857600080fd5b5060cb5461014c565b34801561020d57600080fd5b5061022161021c366004611557565b61085f565b60405161015692919061157a565b34801561023b57600080fd5b5061014c60cb5481565b34801561025157600080fd5b506101026102603660046112bb565b6108e9565b34801561027157600080fd5b50610102610280366004611593565b61095f565b34801561029157600080fd5b506102a56102a036600461143e565b610aa9565b6040516101569291906115d7565b306001600160a01b037f00000000000000000000000000000000000000000000000000000000000000001614156103055760405162461bcd60e51b81526004016102fc906115fc565b60405180910390fd5b7f00000000000000000000000000000000000000000000000000000000000000006001600160a01b031661034e60008051602061193e833981519152546001600160a01b031690565b6001600160a01b0316146103745760405162461bcd60e51b81526004016102fc90611648565b61037d81610bd5565b6040805160008082526020820190925261039991839190610bdd565b50565b6103a4610d48565b604080518082018252838152602080820184905260cb54600090815260cc82529290922081518051929391926103dd9284920190611206565b5060208281015180516103f69260018501920190611206565b50905050600160cb600082825461040d91906116aa565b90915550505050565b306001600160a01b037f000000000000000000000000000000000000000000000000000000000000000016141561045f5760405162461bcd60e51b81526004016102fc906115fc565b7f00000000000000000000000000000000000000000000000000000000000000006001600160a01b03166104a860008051602061193e833981519152546001600160a01b031690565b6001600160a01b0316146104ce5760405162461bcd60e51b81526004016102fc90611648565b6104d782610bd5565b6104e382826001610bdd565b5050565b6000306001600160a01b037f000000000000000000000000000000000000000000000000000000000000000016146105875760405162461bcd60e51b815260206004820152603860248201527f555550535570677261646561626c653a206d757374206e6f742062652063616c60448201527f6c6564207468726f7567682064656c656761746563616c6c000000000000000060648201526084016102fc565b5060008051602061193e83398151915290565b600081815260cc602090815260409182902091516060926105be9260ca9201611797565b6040516020818303038152906040529050919050565b606080600060cb5467ffffffffffffffff8111156105f4576105f46112d6565b60405190808252806020026020018201604052801561063957816020015b60408051808201909152606080825260208201528152602001906001900390816106125790505b50905060005b60cb548110156107b257600081815260cc6020526040908190208151808301909252805482908290610670906116c2565b80601f016020809104026020016040519081016040528092919081815260200182805461069c906116c2565b80156106e95780601f106106be576101008083540402835291602001916106e9565b820191906000526020600020905b8154815290600101906020018083116106cc57829003601f168201915b50505050508152602001600182018054610702906116c2565b80601f016020809104026020016040519081016040528092919081815260200182805461072e906116c2565b801561077b5780601f106107505761010080835404028352916020019161077b565b820191906000526020600020905b81548152906001019060200180831161075e57829003601f168201915b505050505081525050828281518110610796576107966117cf565b6020026020010181905250806107ab906117e5565b905061063f565b5060ca818180546107c2906116c2565b80601f01602080910402602001604051908101604052809291908181526020018280546107ee906116c2565b801561083b5780601f106108105761010080835404028352916020019161083b565b820191906000526020600020905b81548152906001019060200180831161081e57829003601f168201915b5050505050915092509250509091565b610853610d48565b61085d6000610da2565b565b60006060600061087460cb548560ff16610df4565b600081815260cc6020526040812091925061089e6103e761089688600a611800565b60ff16610df4565b6108a99060016116aa565b90506000826001016108ba83610e46565b6040516020016108cb929190611825565b60408051601f19818403018152919052939793965092945050505050565b6108f1610d48565b6001600160a01b0381166109565760405162461bcd60e51b815260206004820152602660248201527f4f776e61626c653a206e6577206f776e657220697320746865207a65726f206160448201526564647265737360d01b60648201526084016102fc565b61039981610da2565b600054610100900460ff161580801561097f5750600054600160ff909116105b806109995750303b158015610999575060005460ff166001145b6109fc5760405162461bcd60e51b815260206004820152602e60248201527f496e697469616c697a61626c653a20636f6e747261637420697320616c72656160448201526d191e481a5b9a5d1a585b1a5e995960921b60648201526084016102fc565b6000805460ff191660011790558015610a1f576000805461ff0019166101001790555b610a27610f4c565b610a2f610f7b565b60c980546001600160a01b0319166001600160a01b0385161790558151610a5d9060ca906020850190611206565b508015610aa4576000805461ff0019169055604051600181527f7f26b83ff96e1f2b6a682f133852f6798a09c465da95921460cefb38474024989060200160405180910390a15b505050565b60cc60205260009081526040902080548190610ac4906116c2565b80601f0160208091040260200160405190810160405280929190818152602001828054610af0906116c2565b8015610b3d5780601f10610b1257610100808354040283529160200191610b3d565b820191906000526020600020905b815481529060010190602001808311610b2057829003601f168201915b505050505090806001018054610b52906116c2565b80601f0160208091040260200160405190810160405280929190818152602001828054610b7e906116c2565b8015610bcb5780601f10610ba057610100808354040283529160200191610bcb565b820191906000526020600020905b815481529060010190602001808311610bae57829003601f168201915b5050505050905082565b610399610d48565b7f4910fdfa16fed3260ed0e7147f7cc6da11a60208b5b9406d12a635614ffd91435460ff1615610c1057610aa483610fa2565b826001600160a01b03166352d1902d6040518163ffffffff1660e01b8152600401602060405180830381865afa925050508015610c6a575060408051601f3d908101601f19168201909252610c6791810190611868565b60015b610ccd5760405162461bcd60e51b815260206004820152602e60248201527f45524331393637557067726164653a206e657720696d706c656d656e7461746960448201526d6f6e206973206e6f74205555505360901b60648201526084016102fc565b60008051602061193e8339815191528114610d3c5760405162461bcd60e51b815260206004820152602960248201527f45524331393637557067726164653a20756e737570706f727465642070726f786044820152681a58589b195555525160ba1b60648201526084016102fc565b50610aa483838361103e565b6033546001600160a01b0316331461085d5760405162461bcd60e51b815260206004820181905260248201527f4f776e61626c653a2063616c6c6572206973206e6f7420746865206f776e657260448201526064016102fc565b603380546001600160a01b038381166001600160a01b0319831681179093556040519116919082907f8be0079c531659141344cd1fd0a4f28419497f9722a3daafe3b4186f6b6457e090600090a35050565b6040805160208101839052449181019190915242606082015260016080820152600090839060a0016040516020818303038152906040528051906020012060001c610e3f9190611897565b9392505050565b606081610e6a5750506040805180820190915260018152600360fc1b602082015290565b8160005b8115610e945780610e7e816117e5565b9150610e8d9050600a836118ab565b9150610e6e565b60008167ffffffffffffffff811115610eaf57610eaf6112d6565b6040519080825280601f01601f191660200182016040528015610ed9576020820181803683370190505b5090505b8415610f4457610eee6001836118bf565b9150610efb600a86611897565b610f069060306116aa565b60f81b818381518110610f1b57610f1b6117cf565b60200101906001600160f81b031916908160001a905350610f3d600a866118ab565b9450610edd565b949350505050565b600054610100900460ff16610f735760405162461bcd60e51b81526004016102fc906118d6565b61085d611069565b600054610100900460ff1661085d5760405162461bcd60e51b81526004016102fc906118d6565b6001600160a01b0381163b61100f5760405162461bcd60e51b815260206004820152602d60248201527f455243313936373a206e657720696d706c656d656e746174696f6e206973206e60448201526c1bdd08184818dbdb9d1c9858dd609a1b60648201526084016102fc565b60008051602061193e83398151915280546001600160a01b0319166001600160a01b0392909216919091179055565b61104783611099565b6000825111806110545750805b15610aa45761106383836110d9565b50505050565b600054610100900460ff166110905760405162461bcd60e51b81526004016102fc906118d6565b61085d33610da2565b6110a281610fa2565b6040516001600160a01b038216907fbc7cd75a20ee27fd9adebab32041f755214dbc6bffa90cc0225b39da2e5c2d3b90600090a250565b60606001600160a01b0383163b6111415760405162461bcd60e51b815260206004820152602660248201527f416464726573733a2064656c65676174652063616c6c20746f206e6f6e2d636f6044820152651b9d1c9858dd60d21b60648201526084016102fc565b600080846001600160a01b03168460405161115c9190611921565b600060405180830381855af49150503d8060008114611197576040519150601f19603f3d011682016040523d82523d6000602084013e61119c565b606091505b50915091506111c4828260405180606001604052806027815260200161195e602791396111cd565b95945050505050565b606083156111dc575081610e3f565b8251156111ec5782518084602001fd5b8160405162461bcd60e51b81526004016102fc91906114af565b828054611212906116c2565b90600052602060002090601f016020900481019282611234576000855561127a565b82601f1061124d57805160ff191683800117855561127a565b8280016001018555821561127a579182015b8281111561127a57825182559160200191906001019061125f565b5061128692915061128a565b5090565b5b80821115611286576000815560010161128b565b80356001600160a01b03811681146112b657600080fd5b919050565b6000602082840312156112cd57600080fd5b610e3f8261129f565b634e487b7160e01b600052604160045260246000fd5b600067ffffffffffffffff80841115611307576113076112d6565b604051601f8501601f19908116603f0116810190828211818310171561132f5761132f6112d6565b8160405280935085815286868601111561134857600080fd5b858560208301376000602087830101525050509392505050565b600082601f83011261137357600080fd5b610e3f838335602085016112ec565b6000806040838503121561139557600080fd5b823567ffffffffffffffff808211156113ad57600080fd5b6113b986838701611362565b935060208501359150808211156113cf57600080fd5b506113dc85828601611362565b9150509250929050565b600080604083850312156113f957600080fd5b6114028361129f565b9150602083013567ffffffffffffffff81111561141e57600080fd5b8301601f8101851361142f57600080fd5b6113dc858235602084016112ec565b60006020828403121561145057600080fd5b5035919050565b60005b8381101561147257818101518382015260200161145a565b838111156110635750506000910152565b6000815180845261149b816020860160208601611457565b601f01601f19169290920160200192915050565b602081526000610e3f6020830184611483565b600060408083526114d581840186611483565b6020848203818601528186518084528284019150828160051b85010183890160005b8381101561154757868303601f190185528151805189855261151b8a860182611483565b91880151858303868a01529190506115338183611483565b9688019694505050908501906001016114f7565b50909a9950505050505050505050565b60006020828403121561156957600080fd5b813560ff81168114610e3f57600080fd5b828152604060208201526000610f446040830184611483565b600080604083850312156115a657600080fd5b6115af8361129f565b9150602083013567ffffffffffffffff8111156115cb57600080fd5b6113dc85828601611362565b6040815260006115ea6040830185611483565b82810360208401526111c48185611483565b6020808252602c908201527f46756e6374696f6e206d7573742062652063616c6c6564207468726f7567682060408201526b19195b1959d85d1958d85b1b60a21b606082015260800190565b6020808252602c908201527f46756e6374696f6e206d7573742062652063616c6c6564207468726f7567682060408201526b6163746976652070726f787960a01b606082015260800190565b634e487b7160e01b600052601160045260246000fd5b600082198211156116bd576116bd611694565b500190565b600181811c908216806116d657607f821691505b602082108114156116f757634e487b7160e01b600052602260045260246000fd5b50919050565b8054600090600181811c908083168061171757607f831692505b602080841082141561173957634e487b7160e01b600052602260045260246000fd5b81801561174d576001811461175e5761178b565b60ff1986168952848901965061178b565b60008881526020902060005b868110156117835781548b82015290850190830161176a565b505084890196505b50505050505092915050565b60006117a382856116fd565b602f60f81b81526117b760018201856116fd565b652d312e706e6760d01b815260060195945050505050565b634e487b7160e01b600052603260045260246000fd5b60006000198214156117f9576117f9611694565b5060010190565b600060ff821660ff84168060ff0382111561181d5761181d611694565b019392505050565b600061183182856116fd565b602f60f81b8152835161184b816001840160208801611457565b632e706e6760e01b60019290910191820152600501949350505050565b60006020828403121561187a57600080fd5b5051919050565b634e487b7160e01b600052601260045260246000fd5b6000826118a6576118a6611881565b500690565b6000826118ba576118ba611881565b500490565b6000828210156118d1576118d1611694565b500390565b6020808252602b908201527f496e697469616c697a61626c653a20636f6e7472616374206973206e6f74206960408201526a6e697469616c697a696e6760a81b606082015260800190565b60008251611933818460208701611457565b919091019291505056fe360894a13ba1a3210667c828492db98dca3e2076cc3735a920a3ca505d382bbc416464726573733a206c6f772d6c6576656c2064656c65676174652063616c6c206661696c6564a264697066735822122098b9207d2f8f644f5e1264c73d0080f7dde1a4bc56523a1ff72916251845289864736f6c634300080c0033",
  "linkReferences": {},
  "deployedLinkReferences": {}
}