{
  "_format": "hh-sol-artifact-1",
  "contractName": "LandNFTHelperContract",
  "sourceName": "src/backend/contracts/LandNFTHelper.sol",
  "abi": [
    {
      "inputs": [],
      "stateMutability": "nonpayable",
      "type": "constructor"
    },
    {
      "anonymous": false,
      "inputs": [
        {
          "indexed": false,
          "internalType": "address",
          "name": "previousAdmin",
          "type": "address"
        },
        {
          "indexed": false,
          "internalType": "address",
          "name": "newAdmin",
          "type": "address"
        }
      ],
      "name": "AdminChanged",
      "type": "event"
    },
    {
      "anonymous": false,
      "inputs": [
        {
          "indexed": true,
          "internalType": "address",
          "name": "beacon",
          "type": "address"
        }
      ],
      "name": "BeaconUpgraded",
      "type": "event"
    },
    {
      "anonymous": false,
      "inputs": [
        {
          "indexed": false,
          "internalType": "uint8",
          "name": "version",
          "type": "uint8"
        }
      ],
      "name": "Initialized",
      "type": "event"
    },
    {
      "anonymous": false,
      "inputs": [
        {
          "indexed": true,
          "internalType": "address",
          "name": "previousOwner",
          "type": "address"
        },
        {
          "indexed": true,
          "internalType": "address",
          "name": "newOwner",
          "type": "address"
        }
      ],
      "name": "OwnershipTransferred",
      "type": "event"
    },
    {
      "anonymous": false,
      "inputs": [
        {
          "indexed": true,
          "internalType": "address",
          "name": "implementation",
          "type": "address"
        }
      ],
      "name": "Upgraded",
      "type": "event"
    },
    {
      "inputs": [
        {
          "internalType": "address",
          "name": "_mainContract",
          "type": "address"
        }
      ],
      "name": "initialize",
      "outputs": [],
      "stateMutability": "nonpayable",
      "type": "function"
    },
    {
      "inputs": [],
      "name": "owner",
      "outputs": [
        {
          "internalType": "address",
          "name": "",
          "type": "address"
        }
      ],
      "stateMutability": "view",
      "type": "function"
    },
    {
      "inputs": [],
      "name": "proxiableUUID",
      "outputs": [
        {
          "internalType": "bytes32",
          "name": "",
          "type": "bytes32"
        }
      ],
      "stateMutability": "view",
      "type": "function"
    },
    {
      "inputs": [],
      "name": "renounceOwnership",
      "outputs": [],
      "stateMutability": "nonpayable",
      "type": "function"
    },
    {
      "inputs": [
        {
          "internalType": "address",
          "name": "newOwner",
          "type": "address"
        }
      ],
      "name": "transferOwnership",
      "outputs": [],
      "stateMutability": "nonpayable",
      "type": "function"
    },
    {
      "inputs": [
        {
          "internalType": "address",
          "name": "newImplementation",
          "type": "address"
        }
      ],
      "name": "upgradeTo",
      "outputs": [],
      "stateMutability": "nonpayable",
      "type": "function"
    },
    {
      "inputs": [
        {
          "internalType": "address",
          "name": "newImplementation",
          "type": "address"
        },
        {
          "internalType": "bytes",
          "name": "data",
          "type": "bytes"
        }
      ],
      "name": "upgradeToAndCall",
      "outputs": [],
      "stateMutability": "payable",
      "type": "function"
    }
  ],
  "bytecode": "0x60a06040523060805234801561001457600080fd5b5061001d610022565b6100e2565b600054610100900460ff161561008e5760405162461bcd60e51b815260206004820152602760248201527f496e697469616c697a61626c653a20636f6e747261637420697320696e697469604482015266616c697a696e6760c81b606482015260840160405180910390fd5b60005460ff90811610156100e0576000805460ff191660ff9081179091556040519081527f7f26b83ff96e1f2b6a682f133852f6798a09c465da95921460cefb38474024989060200160405180910390a15b565b608051610d626101196000396000818161015a015281816101a3015281816102430152818161028301526103160152610d626000f3fe6080604052600436106100705760003560e01c8063715018a61161004e578063715018a6146100d25780638da5cb5b146100e7578063c4d66de81461010f578063f2fde38b1461012f57600080fd5b80633659cfe6146100755780634f1ef2861461009757806352d1902d146100aa575b600080fd5b34801561008157600080fd5b50610095610090366004610a7b565b61014f565b005b6100956100a5366004610aac565b610238565b3480156100b657600080fd5b506100bf610309565b6040519081526020015b60405180910390f35b3480156100de57600080fd5b506100956103bc565b3480156100f357600080fd5b506033546040516001600160a01b0390911681526020016100c9565b34801561011b57600080fd5b5061009561012a366004610a7b565b6103d0565b34801561013b57600080fd5b5061009561014a366004610a7b565b610504565b306001600160a01b037f00000000000000000000000000000000000000000000000000000000000000001614156101a15760405162461bcd60e51b815260040161019890610b6e565b60405180910390fd5b7f00000000000000000000000000000000000000000000000000000000000000006001600160a01b03166101ea600080516020610ce6833981519152546001600160a01b031690565b6001600160a01b0316146102105760405162461bcd60e51b815260040161019890610bba565b6102198161057a565b6040805160008082526020820190925261023591839190610582565b50565b306001600160a01b037f00000000000000000000000000000000000000000000000000000000000000001614156102815760405162461bcd60e51b815260040161019890610b6e565b7f00000000000000000000000000000000000000000000000000000000000000006001600160a01b03166102ca600080516020610ce6833981519152546001600160a01b031690565b6001600160a01b0316146102f05760405162461bcd60e51b815260040161019890610bba565b6102f98261057a565b61030582826001610582565b5050565b6000306001600160a01b037f000000000000000000000000000000000000000000000000000000000000000016146103a95760405162461bcd60e51b815260206004820152603860248201527f555550535570677261646561626c653a206d757374206e6f742062652063616c60448201527f6c6564207468726f7567682064656c656761746563616c6c00000000000000006064820152608401610198565b50600080516020610ce683398151915290565b6103c46106f2565b6103ce600061074c565b565b600054610100900460ff16158080156103f05750600054600160ff909116105b8061040a5750303b15801561040a575060005460ff166001145b61046d5760405162461bcd60e51b815260206004820152602e60248201527f496e697469616c697a61626c653a20636f6e747261637420697320616c72656160448201526d191e481a5b9a5d1a585b1a5e995960921b6064820152608401610198565b6000805460ff191660011790558015610490576000805461ff0019166101001790555b61049861079e565b6104a06107cd565b60c980546001600160a01b0319166001600160a01b0384161790558015610305576000805461ff0019169055604051600181527f7f26b83ff96e1f2b6a682f133852f6798a09c465da95921460cefb38474024989060200160405180910390a15050565b61050c6106f2565b6001600160a01b0381166105715760405162461bcd60e51b815260206004820152602660248201527f4f776e61626c653a206e6577206f776e657220697320746865207a65726f206160448201526564647265737360d01b6064820152608401610198565b6102358161074c565b6102356106f2565b7f4910fdfa16fed3260ed0e7147f7cc6da11a60208b5b9406d12a635614ffd91435460ff16156105ba576105b5836107f4565b505050565b826001600160a01b03166352d1902d6040518163ffffffff1660e01b8152600401602060405180830381865afa925050508015610614575060408051601f3d908101601f1916820190925261061191810190610c06565b60015b6106775760405162461bcd60e51b815260206004820152602e60248201527f45524331393637557067726164653a206e657720696d706c656d656e7461746960448201526d6f6e206973206e6f74205555505360901b6064820152608401610198565b600080516020610ce683398151915281146106e65760405162461bcd60e51b815260206004820152602960248201527f45524331393637557067726164653a20756e737570706f727465642070726f786044820152681a58589b195555525160ba1b6064820152608401610198565b506105b5838383610890565b6033546001600160a01b031633146103ce5760405162461bcd60e51b815260206004820181905260248201527f4f776e61626c653a2063616c6c6572206973206e6f7420746865206f776e65726044820152606401610198565b603380546001600160a01b038381166001600160a01b0319831681179093556040519116919082907f8be0079c531659141344cd1fd0a4f28419497f9722a3daafe3b4186f6b6457e090600090a35050565b600054610100900460ff166107c55760405162461bcd60e51b815260040161019890610c1f565b6103ce6108bb565b600054610100900460ff166103ce5760405162461bcd60e51b815260040161019890610c1f565b6001600160a01b0381163b6108615760405162461bcd60e51b815260206004820152602d60248201527f455243313936373a206e657720696d706c656d656e746174696f6e206973206e60448201526c1bdd08184818dbdb9d1c9858dd609a1b6064820152608401610198565b600080516020610ce683398151915280546001600160a01b0319166001600160a01b0392909216919091179055565b610899836108eb565b6000825111806108a65750805b156105b5576108b5838361092b565b50505050565b600054610100900460ff166108e25760405162461bcd60e51b815260040161019890610c1f565b6103ce3361074c565b6108f4816107f4565b6040516001600160a01b038216907fbc7cd75a20ee27fd9adebab32041f755214dbc6bffa90cc0225b39da2e5c2d3b90600090a250565b60606001600160a01b0383163b6109935760405162461bcd60e51b815260206004820152602660248201527f416464726573733a2064656c65676174652063616c6c20746f206e6f6e2d636f6044820152651b9d1c9858dd60d21b6064820152608401610198565b600080846001600160a01b0316846040516109ae9190610c96565b600060405180830381855af49150503d80600081146109e9576040519150601f19603f3d011682016040523d82523d6000602084013e6109ee565b606091505b5091509150610a168282604051806060016040528060278152602001610d0660279139610a1f565b95945050505050565b60608315610a2e575081610a58565b825115610a3e5782518084602001fd5b8160405162461bcd60e51b81526004016101989190610cb2565b9392505050565b80356001600160a01b0381168114610a7657600080fd5b919050565b600060208284031215610a8d57600080fd5b610a5882610a5f565b634e487b7160e01b600052604160045260246000fd5b60008060408385031215610abf57600080fd5b610ac883610a5f565b9150602083013567ffffffffffffffff80821115610ae557600080fd5b818501915085601f830112610af957600080fd5b813581811115610b0b57610b0b610a96565b604051601f8201601f19908116603f01168101908382118183101715610b3357610b33610a96565b81604052828152886020848701011115610b4c57600080fd5b8260208601602083013760006020848301015280955050505050509250929050565b6020808252602c908201527f46756e6374696f6e206d7573742062652063616c6c6564207468726f7567682060408201526b19195b1959d85d1958d85b1b60a21b606082015260800190565b6020808252602c908201527f46756e6374696f6e206d7573742062652063616c6c6564207468726f7567682060408201526b6163746976652070726f787960a01b606082015260800190565b600060208284031215610c1857600080fd5b5051919050565b6020808252602b908201527f496e697469616c697a61626c653a20636f6e7472616374206973206e6f74206960408201526a6e697469616c697a696e6760a81b606082015260800190565b60005b83811015610c85578181015183820152602001610c6d565b838111156108b55750506000910152565b60008251610ca8818460208701610c6a565b9190910192915050565b6020815260008251806020840152610cd1816040850160208701610c6a565b601f01601f1916919091016040019291505056fe360894a13ba1a3210667c828492db98dca3e2076cc3735a920a3ca505d382bbc416464726573733a206c6f772d6c6576656c2064656c65676174652063616c6c206661696c6564a2646970667358221220d615da50825714d3fe194ddf157c40112ceefdc2ccde0e0ce3f4a266acb8388a64736f6c634300080c0033",
  "linkReferences": {},
  "deployedLinkReferences": {}
}